:100000000258E4020006C2AFD2AF32024E8FC2AF36
:10001000D2AF3202000E909F8AE0FEA3E0FF126191
:10002000FE2232025E8F12002E223202006675F925
:1000300001E4F5A8F5B8F59AF5A9F5B9F580F590BC
:10004000F5A0F5B075B750F5BCF5BDF5BE2212644C
:0A00500057222202002253BEF722BD
:07005B00025B8D43BE082289
:0600630002002AC2C632B1
:10006B00025C03C2AF1200261264E012004E12654E
:07007B006543C902D2AF2268
:1000830002598512006E12576A126557124198126F
:100093003AA61256A1E50A30E01C430F01E50A30E7
:1000A300E103430F02E50A30E203430F04530AFE60
:1000B300530AFD530AFB43C901C3E50994F4E50858
:1000C3009401400B124C1FE4F508F509124FBD12C1
:1000D300456B12302D123D02121DF6124383126539
:1000E3003AE50F30E0AF530FFE530FFD530FFB8084
:0200F300A42245
:1000F800FFFF4457494E543542A059000041A055CE
:100108000041A0560042A057000042A05D000042F6
:10011800A05B00005A9EC73FC900690064000086C2
:10012800000A2D2D203A3A000000000000000000CF
:10013800005A9EE13FCC01270064000086000A2D8A
:100148002D2F3A3A000000000000000000005A9FDE
:100158006D3FD001E50064000001E5006402AD00D8
:100168007D00100017181802000000603C9F314005
:100178000040A04140401040B04150402040C041A4
:1001880060403040D04170404040E04180405040A5
:10019800F041904060410041A04070411041B040A2
:1001A80080412041C04090413041D0549F1D41E0E2
:1001B80041F842104228424042584270428842A0C8
:1001C80042B8489F0E0000000000000000429F1641
:1001D8000000429F1B0000429F180000419F1A0028
:1001E800419F0D00429EFB0005498000B2E2CAD43F
:1001F800BABAD7D6006E60800949443030BBD8B748
:10020800E7B8DFCEC20000000000000000000000D8
:1002180000000000000000000049443031BBD8B79E
:10022800E7B5CDCEC20000000000000000000000CD
:1002380000000000000000000049443032BBD8B77D
:10024800E7B8DFCAAA0000000000000000000000B4
:1002580000000000000000000049443033BBD8B75C
:10026800E7B8DFCAAA000000000000000000000094
:1002780000000000000000000049443034CBCDB736
:10028800E7B8DFCEC2000000000000000000000058
:1002980000000000000000000049443035CBCDB715
:1002A800E7B5CDCEC200000000000000000000004D
:1002B80000000000000000000049443036CBCDB7F4
:1002C800E7B8DFCAAA000000000000000000000034
:1002D80000000000000000000049443037CBCDB7D3
:1002E800E7B5CDCAAA000000000000000000000029
:1002F80000000000000000000049443038B1A3C1EC
:10030800F4000000000000000000000000000000F1
:1003180000000000000000000049443039C4DAB28F
:10032800BFCDA8D0C50000000000000000000000FC
:10033800000000000000000000494431304E5443E2
:10034800D2ECB3A300000000000000000000000091
:1003580000000000000000000049443131B7E7BB4D
:10036800FA31B9CAD5CF0000000000000000000033
:1003780000000000000000000049443132B7E7BB2C
:10038800FA32B9CAD5CF0000000000000000000012
:1003980000000000000000000049443133B7E7BB0B
:1003A800FA33B9CAD5CF00000000000000000000F1
:1003B80000000000000000000049443134B7E7BBEA
:1003C800FA34B9CAD5CF00000000000000000000D0
:1003D80000000000000000000049443135B7E7BBC9
:1003E800FA35B9CAD5CF00000000000000000000AF
:1003F80000000000000000000049443136CDE2B79B
:10040800E7BBFAB9CAD5CF00000000000000000021
:1004180000000000000000000049443137B7E7BB86
:10042800FA31D4CBD0D0B3ACCAB100000000000080
:1004380000000000000000000049443138B7E7BB65
:10044800FA32D4CBD0D0B3ACCAB10000000000005F
:1004580000000000000000000049443139B7E7BB44
:10046800FA33D4CBD0D0B3ACCAB10000000000003E
:1004780000000000000000000049443230B7E7BB2C
:10048800FA34D4CBD0D0B3ACCAB10000000000001D
:1004980000000000000000000049443231B7E7BB0B
:1004A800FA35D4CBD0D0B3ACCAB1000000000000FC
:1004B80000000000000000000049443232CDE2B7DD
:1004C800E7BBFAD4CBD0D0B3ACCAB100000000006F
:1004D80000000000000000000049443233B8DFD1BA
:1004E800B931B8E6BEAF000000000000000000000F
:1004F80000000000000000000049443234B8DFD199
:10050800B931CBF8CBC000000000000000000000AB
:1005180000000000000000000049443235B5CDD18C
:10052800B931B8E6BEAF00000000000000000000CE
:1005380000000000000000000049443236B5CDD16B
:10054800B931CBF8CBC0000000000000000000006B
:1005580000000000000000000049443237C5C5C64D
:10056800F8CEC2B6C831B8E6BEAF00000000000041
:1005780000000000000000000049443238C5C5C62C
:10058800F8CEC2B6C831CBF8CBC0000000000000DE
:1005980000000000000000000049443239B6CCD603
:1005A800DCC6DA31B8E6BEAF00000000000000008B
:1005B80000000000000000000049443330D1B9BBFE
:1005C800FA31D4CBD0D0B3ACCAB1000000000000DF
:1005D80000000000000000000049443331B8DFD1BA
:1005E800B932B8E6BEAF000000000000000000000D
:1005F80000000000000000000049443332B8DFD199
:10060800B932CBF8CBC000000000000000000000A9
:1006180000000000000000000049443333B5CDD18C
:10062800B9D1B9C1A6B8E6BEAF000000000000000D
:1006380000000000000000000049443334B5CDD16B
:10064800B932CBF8CBC00000000000000000000069
:1006580000000000000000000049443335C5C5C64D
:10066800F8CEC2B6C832B8E6BEAF0000000000003F
:1006780000000000000000000049443336C5C5C62C
:10068800F8CEC2B6C832CBF8CBC0000000000000DC
:1006980000000000000000000049443337B6CCD603
:1006A800DCC6DA32B8E6BEAF000000000000000089
:1006B80000000000000000000049443338D1B9BBF5
:1006C800FA32D4CBD0D0B3ACCAB1000000000000DD
:1006D80000000000000000000049443339BCD3CAC0
:1006E800AAC6F7B5E7C1F7B9FDB4F30000000000EA
:1006F80000000000000000000049443430BCD3CAA8
:10070800AAC6F7B8DFCBAECEBB00000000000000E1
:1007180000000000000000000049443431BCD3CA86
:10072800AAC6F7C8B1CBAE00000000000000000068
:1007380000000000000000000049443432BCD3CA65
:10074800AAC6F7D4CBD0D0B3ACCAB1000000000021
:1007580000000000000000000049443433BCD3C846
:10076800C8C6F7B8E6BEAF000000000000000000F1
:1007780000000000000000000049443434BCD3C825
:10078800C8C6F731B3ACCAB10000000000000000D1
:1007980000000000000000000049443435BCD3C804
:1007A800C8C6F732B3ACCAB10000000000000000B0
:1007B80000000000000000000049443436B6CFB500
:1007C800E7D6D8C6F40000000000000000000000D2
:1007D80000000000000000000049443437B5E7D4A9
:1007E800B4CFE0D0F2B4EDCEF3000000000000007A
:1007F80000000000000000000049443438B5E7D488
:10080800B4C6B5C2CAC6ABB8DF000000000000001D
:1008180000000000000000000049443439B5E7D466
:10082800B4C6B5C2CAC6ABB5CD0000000000000012
:100838000000000000000000004944353041CFE0CE
:10084800B9FDD1B900000000000000000000000060
:100858000000000000000000004944353142CFE0AC
:10086800B9FDD1B900000000000000000000000040
:100878000000000000000000004944353243CFE08A
:10088800B9FDD1B920000000000000000000000000
:100898000000000000000000004944353341CFE06B
:1008A800C7B7D1B900000000000000000000000038
:1008B8000000000000000000004944353442CFE049
:1008C800C7B7D1B900000000000000000000000018
:1008D8000000000000000000004944353543CFE027
:1008E800C7B7D1B9000000000000000000000000F8
:1008F8000000000000000000004944353641CFE008
:10090800C8B1CFE0000000000000000000000000B7
:100918000000000000000000004944353742CFE0E5
:10092800C8B1CFE000000000000000000000000097
:100938000000000000000000004944353843CFE0C3
:10094800C8B1CFE000000000000000000000000077
:1009580000000000000000000049443539C6F8C115
:10096800F7B6AACAA7B8E6BEAF00000000000000AC
:1009780000000000000000000049443630B9FDC204
:10098800CBCDF8D4CBD0D0B3ACCAB10000000000B6
:1009980000000000000000000049443631B9FDC2E3
:1009A800CBCDF8B6C2B8E6BEAF000000000000002C
:1009B80000000000000000000049443632D4B6B3FD
:1009C800CCB9D8BBFAB8E6BEAF0000000000000002
:1009D80000000000000000000049443633D2E7CB95
:1009E800AEB8E6BEAF000000000000000000000046
:1009F80000000000000000000049443634C8BABFB7
:100A0800D8CDA8D0C5D2ECB3A300000000000000E8
:100A180000000000000000000049443635B1E4C67B
:100A2800B5C6F7B9CAD5CF00000000000000000025
:100A380000000000000000000049443636D7A2CB71
:100A4800AEB5E7B5BCC2CAB8DF00000000000000C0
:100A580000000000000000000049443637D7A2CB50
:100A6800AEB5E7B5BCC2CAB5CD00000000000000B5
:100A780000000000000000000049443638D1CCCE08
:100A8800EDB8E6BEAF000000000000000000000066
:100A980000000000000000000049443639D3C3BB01
:100AA800A7D7D4B6A8D2E5B8E6BEAF0000000000CC
:100AB80000000000000000000049443730B5E7D4CA
:100AC800B4D2ECB3A3000000000000000000000056
:100AD80000000000000000000049443731C8EBCB9B
:100AE800AEB8DFCEC2000000000000000000000029
:100AF80000000000000000000049443732CBAEB7C8
:100B0800A7B9CAD5CF00000000000000000000000F
:100B180000000000000000000049443733C5CCB98C
:100B2800DCB6CFC1F7B8E6BEAF0000000000000099
:100B380000000000000000000049443734B7E7BB5C
:100B4800FA36B9CAD5CF0000000000000000000046
:100B580000000000000000000049443735B7E7BB3B
:100B6800FA37B9CAD5CF0000000000000000000025
:100B780000000000000000000049443736B7E7BB1A
:100B8800FA38B9CAD5CF0000000000000000000004
:100B980000000000000000000049443737B7E7BBF9
:100BA800FA36B3ACCAB10000000000000000000033
:100BB80000000000000000000049443738B7E7BBD8
:100BC800FA37B3ACCAB10000000000000000000012
:100BD80000000000000000000049443739B7E7BBB7
:100BE800FA38B3ACCAB100000000000000000000F1
:100BF80000000000000000000049443830C5C5CBA3
:100C0800AEB8DFCBAECEBB00000000000000000095
:100C180000000000000000000049443831BCD3CA7D
:100C2800AAC6F7D2ECB3A300000000000000000041
:100C380000000000000000000049443832B7E7D146
:100C4800B9B9FDB5CD0000000000000000000000AB
:100C580000000000000000000049443833BAECCD21
:100C6800E2BCD3CAAAB9FDC8C80000000000000051
:100C780000000000000000000049443834D1B9BB2E
:100C8800FA31B8DFD1B90000000000000000000010
:100C980000000000000000000049443835B7E7BBF9
:100CA800FAB5E7C1F7B9FDB4F30000000000000091
:100CB80000000000000000000049443836B8A8C20F
:100CC800B7C8EBCBAEB8DFCEC20000000000000012
:100CD8000000000000000000004944383745455630
:100CE800B8E6BEAF000000000000000000000000F1
:100CF80000000000000000000049443838BDD3CB94
:100D0800AEC5CCD2E7CBAE0000000000000000006A
:100D180000000000000000000049443839C5C5C67D
:100D2800F8B8DFCEC200000000000000000000009C
:100D380000000000000000000049443930C9E8B153
:100D4800B8CAB9D3C3B3ACCAB100000000000000F0
:100D580000000000000000000049443931B1A3C17F
:100D6800F400000000000000000000000000000087
:100D780000000000000000000049443932B1A3C15E
:100D8800F400000000000000000000000000000067
:100D980000000000000000000049443933B1A3C13D
:100DA800F400000000000000000000000000000047
:100DB80000000000000000000049443934B1A3C11C
:100DC800F400000000000000000000000000000027
:100DD80000000000000000000049443935B1A3C1FB
:100DE800F400000000000000000000000000000007
:100DF80000000000000000000049443936B1A3C1DA
:100E0800F4000000000000000000000000000000E6
:100E180000000000000000000049443937BBD8B783
:100E2800E7CEC2CAAAB6C8B4ABB8D0C6F7000000AD
:100E380000000000000000000049443938CBCDB75D
:100E4800E7CEC2CAAAB6C8B4ABB8D0C6F70000008D
:100E580000000000000000000049443939BCD3CA32
:100E6800AAB0E5D2ECB3A300000000000000000027
:100E78000000000000000000004944313030C6C1C5
:100E8800C4BBD2D1CBF8B6A8000000000000000017
:100E98000000000000000000004944313031D2BB9E
:100EA800CCECBDABCBF8B6A80000000000000000F9
:100EB8000000000000000000004944313032C8FD45
:100EC800CCECBDABCBF8B6A80000000000000000D9
:100ED8000000000000000000004944313033C6DF44
:100EE800CCECBDABCBF8B6A80000000000000000B9
:100EF8000000000000000000004944313034CAAE50
:100F0800CEE5CCECBDABCBF8B6A8000000000000E5
:100F18000000000000000000004944313035C8FDE1
:100F2800CAAECCECBDABCBF8B6A800000000000000
:100F38000000000000000000004944313036B5E7E9
:100F4800D4B432CFE0D0F2B4ED00000000000000CD
:100F58000000000000000000004944313037B5E7C8
:100F6800D4B432C6B5C2CAB8DF0000000000000021
:100F78000000000000000000004944313038B5E7A7
:100F8800D4B432C6B5C2CAB5CD0000000000000016
:100F98000000000000000000004944313039B5E786
:100FA800D4B43241CFE0B9FDD1B90000000000004F
:100FB8000000000000000000004944313130B5E76E
:100FC800D4B43242CFE0B9FDD1B90000000000002E
:100FD8000000000000000000004944313131B5E74D
:100FE800D4B43243CFE0B9FDD1B90000000000000D
:100FF8000000000000000000004944313132B5E72C
:10100800D4B43241CFE0C7B7D1B900000000000026
:101018000000000000000000004944313133B5E70A
:10102800D4B43242CFE0C7B7D1B900000000000005
:101038000000000000000000004944313134B5E7E9
:10104800D4B43243CFE0C7B7D1B9000000000000E4
:10105800000000000000000000419DBF00419DC04D
:1010680000429DC10000429DC30000429DC5000092
:1010780047A02C0000000000000048A03B00000032
:10108800000000000048A03300000000000000003D
:1010980042A045000042A047000042A0430000448F
:1010A800A0510000000042A049000044A04B0000ED
:1010B800000002080000040B0000000042A04F00DE
:1010C80000010A0061009B3F00C1814001C08041CE
:1010D80001C0804100C1814001C0804100C1814000
:1010E80000C1814001C0804101C0804100C18140F0
:1010F80000C1814001C0804100C1814001C08041E0
:1011080001C0804100C1814001C0804100C18140CF
:1011180000C1814001C0804100C1814001C08041BF
:1011280001C0804100C1814000C1814001C08041AF
:1011380001C0804100C1814001C0804100C181409F
:1011480000C1814001C0804101C0804100C181408F
:1011580000C1814001C0804100C1814001C080417F
:1011680001C0804100C1814000C1814001C080416F
:1011780001C0804100C1814001C0804100C181405F
:1011880000C1814001C0804100C1814001C080414F
:1011980001C0804100C1814001C0804100C181403F
:1011A80000C1814001C0804101C0804100C181402F
:1011B80000C1814001C0804100C1814001C080411F
:1011C80001C0804100C1814061009C3F00C0C10155
:1011D800C30302C2C60607C705C5C404CC0C0DCD9F
:1011E8000FCFCE0E0ACACB0BC90908C8D81819D90F
:1011F8001BDBDA1A1EDEDF1FDD1D1CDC14D4D5153F
:10120800D71716D6D21213D311D1D010F03031F12E
:1012180033F3F23236F6F737F53534F43CFCFD3D5E
:10122800FF3F3EFEFA3A3BFB39F9F83828E8E9294E
:10123800EB2B2AEAEE2E2FEF2DEDEC2CE42425E5FE
:1012480027E7E62622E2E323E12120E0A06061A16E
:1012580063A3A26266A6A767A56564A46CACAD6D1E
:10126800AF6F6EAEAA6A6BAB69A9A86878B8B9798E
:10127800BB7B7ABABE7E7FBF7DBDBC7CB47475B5BE
:1012880077B7B67672B2B373B17170B050909151AE
:101298009353529296565797559594549C5C5D9DDE
:1012A8005F9F9E5E5A9A9B5B9959589888484989CE
:1012B8004B8B8A4A4E8E8F4F8D4D4C8C448485457E
:1012C8008747468682424383418180404198A500F2
:1012D8004190E000449926000000004190DB004462
:1012E80090DC0000000067B690EF5A020303C800C4
:1012F8000000A020031C00FF5A020301C8010000DF
:10130800A023031900FF5A020601C803A084A024E1
:10131800010000005A020301C8010000A0250104D1
:1013280000FF5A020601C802A085A025010400FF9B
:101338005A020303C8010000A0A0011A00FF5A02C4
:101348000302C8000000A0A3031000FF5A02030212
:10135800C801000AAA00032600FF5A020308C801B0
:10136800000AAA02034100FF5A020301C801000A49
:10137800AA0A036F00FF5A020301C801000AAA0B58
:10138800037700FF5A02031FC801000BAB20038C30
:1013980000FF5A020601C803AC80AC20023A000CD8
:1013A8005A020306C800000DAEA0032000FF5A022F
:1013B8000307C803B300B320011A00135A02060139
:1013C800C803B380B320011A00135A020601C803E8
:1013D800B382B322011C00135A020601C803B38367
:1013E800B323011D00135A020601C803B384B324B2
:1013F800011E00135A020601C803B385B325011F55
:1014080000135A020601C803B386B326012000134D
:101418005A02030BC803B400B420015800145A023E
:101428000601C803B480B420015800145A0206010A
:10143800C803B481B421015900145A020601C80333
:10144800B483B423015B00145A020601C803B484B0
:10145800B424015C00145A020601C803B485B425FB
:10146800015D00145A020601C803B486B426015E61
:1014780000145A020601C803B487B427015F001498
:101488005A020601C803B488B428016000145A023D
:101498000601C803B48AB42A016200145A0203067A
:1014A800C803B700B720013B00175A020305C80359
:1014B800B700B726014300175A020601C803B780D0
:1014C800B720013B00175A020601C803B784B724A6
:1014D800013F00175A020601C803B785B725014026
:1014E80000175A020601C803B786B726014300173A
:1014F8005A020601C803B787B727014400175A02E2
:101508000601C803B788B728014500175A02060123
:10151800C803B789B729014600175A020601C8034C
:10152800B78AB72A014700175A020301C803B8004F
:10153800B820016A00185A020303C803B800B8218A
:10154800016D00185A020301C803B800B8240172DB
:1015580000185A020301C803B800B825017400181E
:101568005A020301C803B800B826017B00185A02C2
:101578000301C803B800B827022A00185A02060156
:10158800C803B880B820016A00185A020601C803C7
:10159800B881B821016D00185A020601C803B88243
:1015A800B822016E00185A020601C803B883B8238E
:1015B800016F00185A020601C803B884B8240172E2
:1015C80000185A020601C803B885B8250174001826
:1015D8005A020601C803B886B826017B00185A02C9
:1015E8000601C803B887B827022A00185A0203015F
:1015F800C803BB00BB2001B0001B5A020302C8038A
:10160800BB00BB2101B2001B5A020301C803BB0087
:10161800BB2301B5001B5A020302C803BB00BB244D
:1016280001D1001B5A020302C803BB00BB2602718A
:10163800001B5A020302C803BB00BB280276001B2A
:101648005A020301C803BB00BB2A0286001B5A02C8
:101658000601C803BB80BB2001B0001B5A0206016B
:10166800C803BB81BB2101B2001B5A020601C80393
:10167800BB82BB2201B3001B5A020601C803BB830D
:10168800BB2301B5001B5A020601C803BB84BB2457
:1016980001D1001B5A020601C803BB85BB2501D234
:1016A800001B5A020601C803BB86BB260271001B39
:1016B8005A020601C803BB87BB270272001B5A02E5
:1016C8000601C803BB88BB280276001B5A02060124
:1016D800C803BB89BB290277001B5A020601C8034D
:1016E800BB8ABB2A0286001B5A020302C803BC003D
:1016F800BC200232001C5A020301C803BC00BC22F1
:101708000252001C5A020301C803BC00BC23025544
:10171800001C5A020301C803BC00BC240258001C68
:101728005A020301C803BC00BC250261001C5A020E
:101738000601C803BC80BC200232001C5A02060104
:10174800C803BC81BC210233001C5A020601C8032D
:10175800BC82BC220252001C5A020601C803BC8388
:10176800BC230255001C5A020601C803BC84BC24D1
:101778000258001C5A020601C803BC85BC25026138
:10178800001C5A020302C803BF00BF200102001F49
:101798005A020301C803BF00BF220107001F5A02F3
:1017A8000301C803BF00BF2301A5001F5A02060199
:1017B800C803BF80BF200102001F5A020601C803E8
:1017C800BF81BF210103001F5A020601C803BF825F
:1017D800BF220107001F5A020601C803BF83BF23A7
:1017E80001A5001F5A020308C803C200C2200182D3
:1017F80000225A020301C803C200C228018C002239
:101808005A020601C803C280C220018200225A027D
:101818000601C803C281C221018300225A020601BF
:10182800C803C282C222018400225A020601C803E8
:10183800C284C224018600225A020601C803C28556
:10184800C225018700225A020601C803C286C226A1
:10185800018800225A020601C803C287C2270189EB
:1018680000225A020601C803C288C228018C00223D
:101878005A020601C803C580C520023B000F5A0260
:101888000301C803C700C72001A600275A020301A5
:10189800C803C700C72101A900275A020601C803C7
:1018A800C780C72001A600275A020601C803C781BE
:1018B800C72101A900275A020601C803C782C72207
:1018C80001A800275A020301C8010027C72303758E
:1018D80000FF5A020301C8010027C724037700FF4D
:1018E8005A020301C803C800C820012700285A0269
:1018F8000301C803C800C821012900285A020304AB
:10190800C803C800C822012D00285A020601C803CE
:10191800C880C820012700285A020601C803C881C8
:10192800C821012900285A020601C803C882C82212
:10193800012D00285A020601C803C883C823012EB6
:1019480000285A020601C803C884C824012F0028A9
:101958005A020601C803C885C825013000285A0262
:10196800030EC8010029C9B0037800FF5A02060116
:10197800C803C990C930023C00295A020301C803B0
:10198800CC00CCA00303002C5A020301C803CF00EB
:10199800CF200108002F5A020302C803CF00CF212D
:1019A800010A002F5A020304C803CF00CF23010DF8
:1019B800002F5A020301C803CF00CF270141002F8F
:1019C8005A020301C803CF00CF28015A002F5A0238
:1019D8000301C803CF00CF2901A7002F5A0206012F
:1019E800C803CF80CF200108002F5A020601C80380
:1019F800CF81CF21010A002F5A020601C803CF82E6
:101A0800CF22010B002F5A020601C803CF83CF2330
:101A1800010D002F5A020601C803CF84CF24010EFE
:101A2800002F5A020601C803CF85CF25010F002FCA
:101A38005A020601C803CF86CF260110002F5A028A
:101A48000601C803CF87CF270141002F5A0206019C
:101A5800C803CF88CF28015A002F5A020601C803AD
:101A6800CF89CF2901A7002F5A020601C803CF8AC0
:101A7800CF2A023B002F5A020601C803CF8BCF2B77
:101A8800023B002F5A02030AC8010034D420039CE9
:101A980000FF5A020302C8010034D42A03A800FF39
:101AA8004E90E1000000000000000000000000006F
:101AB80000418E6A0062708E6B5A13B320B350B324
:101AC800805A13B322B352B3825A13B323B353B316
:101AD800835A13B324B354B3845A13B325B355B3F9
:101AE800855A13B326B356B3865A14B420B450B4E7
:101AF800805A14B421B451B4815A14B423B453B4E1
:101B0800835A14B424B454B4845A14B425B455B4C0
:101B1800855A14B426B456B4865A14B427B457B4A4
:101B2800875A14B428B458B4885A14B42AB45AB486
:101B38008A5A17B720B750B7805A17B724B754B77F
:101B4800845A17B725B755B7855A17B726B756B762
:101B5800865A17B727B757B7875A17B728B758B746
:101B6800885A17B729B759B7895A17B72AB75AB72A
:101B78008A5A18B820B850B8805A18B821B851B83D
:101B8800815A18B822B852B8825A18B823B853B82C
:101B9800835A18B824B854B8845A18B825B855B810
:101BA800855A18B826B856B8865A18B827B857B8F4
:101BB800875A1BBB20BB50BB805A1BBB21BB51BBE8
:101BC800815A1BBB22BB52BB825A1BBB23BB53BBD4
:101BD800835A1BBB24BB54BB845A1BBB25BB55BBB8
:101BE800855A1BBB26BB56BB865A1BBB27BB57BB9C
:101BF800875A1BBB28BB58BB885A1BBB29BB59BB80
:101C0800895A1BBB2ABB5ABB8A5A1CBC20BC50BC75
:101C1800805A1CBC21BC51BC815A1CBC22BC52BC81
:101C2800825A1CBC23BC53BC835A1CBC24BC54BC65
:101C3800845A1CBC25BC55BC855A1FBF20BF50BF49
:101C4800805A1FBF21BF51BF815A1FBF22BF52BF39
:101C5800825A1FBF23BF53BF835A22C220C250C219
:101C6800805A22C221C251C2815A22C222C252C201
:101C7800825A22C224C254C2845A22C225C255C2E0
:101C8800855A22C226C256C2865A22C227C257C2C3
:101C9800875A22C228C258C2885A27C720C750C7A5
:101CA800805A27C721C751C7815A28C820C850C899
:101CB800805A28C821C851C8815A28C822C852C881
:101CC800825A28C823C853C8835A28C824C854C865
:101CD800845A28C825C855C8855A2FCF20CF50CF39
:101CE800805A2FCF21CF51CF815A2FCF22CF52CF19
:101CF800825A2FCF23CF53CF835A2FCF24CF54CFFD
:101D0800845A2FCF25CF55CF855A2FCF26CF56CFE0
:101D1800865A2FCF27CF57CF875A2FCF28CF58CFC4
:101D2800885A2FCF29CF59CF89418E690058A014DE
:101D3800000000000000000000000000000000009B
:101D48000000000000000000589FF40000000000A0
:101D58000000010000000200027360000A2D080064
:101D680007ED65419FF0FF60649F8C000001000251
:101D78000003000400050006000700080009000A27
:101D8800000B000C000D000E000F011000110012D6
:101D98000213001400150016001700180019001A85
:101DA800001B021C001D001E001F00200021002235
:101DB8000023002400250026022700280029002AE5
:101DC800002B002C002D002E002F0330003100487E
:101DD800A00C0001010302030305429FF200004228
:101DE8009F8A0000429F870000419F890000AF0F33
:101DF800EF1313543F5401640160030224B57B01BF
:101E08007A99792A909B35F0A3740CF07F217EA0F3
:101E18001235CD90992CE0FEA3E0FF90992AE0FCC2
:101E2800A3E02FFFEC3EFE909F0DE06F7001EE6087
:101E38004C90992CE0FEA3E0FF90992AE0A3E02FB4
:101E4800FFEC3EFE909F0DE0C39FE49E501D9099CD
:101E580034E4F0A304F0FB7A997934909B35E4F0EC
:101E6800A37402F07F267EA012383A90992CE0A342
:101E7800E0FF90992AE0A3E02F909F0DF090992A17
:101E8800E0FEA3E0D39400EE9400500CA3E0FEA380
:101E9800E09400EE94004020909934E0FEA3E04ED8
:101EA80060167B017A9E79FB909B35E4F0A374025F
:101EB800F07FA07E0012383A90A059E0FEA3E064BB
:101EC8000D4E600302226790A059E0A3E0FF909FA7
:101ED80016E0FCA3E06F7002EC6E601EE4909F1B9E
:101EE800F0A3F07B017A9F791B909B35F0A37402D5
:101EF800F07F017EAE12383A80167B017A9F791BFB
:101F0800909B35E4F0A37402F07F017EAE1235CDCC
:101F18007B017A99792A909B35E4F0A37410F07FBD
:101F2800A07EAE1235CDE4909938F0A3E05407F0C6
:101F38007B017A9E79FD782A7C997D017E007F104D
:101F4800122A92EF702F909F18E0FEA3E0FF909F57
:101F58001BE0FCA3E0B5071DECB5061990A059E0FD
:101F6800FEA3E0FF909F16E0FCA3E06F7002EC6E0A
:101F780070030224A57B017A99792A78FD7C9E7DDD
:101F8800017E007F10122586E4909F1AF090995DDB
:101F9800F090995DE0C39408748094804003022215
:101FA8000FE490995CF090995CE0C394107480946D
:101FB800804003022206A3E0C454F0FF90995CE03D
:101FC8002F909961F0E075F018A42400FFE5F03433
:101FD80035FE7B017A99792A909B35E4F0A3743019
:101FE800F01235CD7B017A99792A90995E1228B042
:101FF80090995CE0FF7E007401A807088005C33350
:10200800CE33CED8F9FF90995DE025E024FDF58226
:10201800E4349EF583E0FCA3E0FDEE5CFEEF5D4E4C
:10202800700302215D90995E122890122697645AD7
:102038007004E5F064A570030220FA90995E1228F6
:102048009074A575F05A1226FA7B017A99793E9018
:102058009B35E4F0A37408F07F107E001235CD7B29
:10206800017A99793E782C7C997D017E007F031254
:1020780025867B017A997942782F7C997D017E00AB
:102088007F031225867E007F087D007B017A99797F
:1020980032122AB6909961E0FF909938E4F0A3EFE4
:1020A800F07B017A99793AC002C00190996175F084
:1020B80020A42409F9748035F0FA9099651228B0A3
:1020C800909968E4F0A37420F0D001D002125DC1A9
:1020D800909961E075F018A42400FFE5F03435FE0E
:1020E8007B017A99792A909B35E4F0A37430F01239
:1020F800383A909F1BE0FEA3E0FF7C007D0A122681
:1021080004909F1AE0C39FEC9E4041A3E0FEA3E029
:10211800FF122604EF240AFFE43EFE909F1AE0C354
:102128009FEC9E5027909961E075F018A42400FD5B
:10213800E5F03435FC909F1BE0A3E075F00AA4FF9E
:10214800909F1AE0C39FFF7B0D124D5A909F1AE093
:1021580004F00221FD90995E122890122697645A85
:102168007004E5F064A560030221FD7B017A99798A
:102178003E909B35F0A37408F07F107E001235CD99
:102188007B017A99793E78327C997D017E007F03C4
:102198001225867B017A99794278357C997D017E72
:1021A800007F03122586909961E0FF909938E4F04A
:1021B800A3EFF07B017A99792A909B35E4F0A37418
:1021C80010F07F007E3012383A12540AE490992AAF
:1021D800F0A3F0909961E075F018A42400FFE5F0F1
:1021E8003435FE7B017A99792A909B35E4F0A37403
:1021F80002F012383A90995CE004F0021FAE909910
:102208005DE004F0021F99909F1AE090995CF090AD
:102218009F1BE0FEA3E0FF7C007D0A122604EF244A
:102228000AFFE43EFE90995CE0C39FEC9E501D902F
:102238009F1BE0A3E075F00AA4FF90995CE0C39FA0
:10224800FF1249A290995CE004F080C3909F1BE0C4
:10225800FEA3E0FF909F18EEF0A3EFF00224A590F4
:10226800A059E0FEA3E0640E4E60030224A590A0EE
:1022780059E0A3E0FF909F16E0FCA3E06F7002EC2A
:102288006E601EE4909F1BF0A3F07B017A9F791B80
:10229800909B35F0A37402F07F017EAE12383A802D
:1022A800347B017A9F791B909B35E4F0A37402F08C
:1022B8007F017EAE1235CD909F18E0FEA3E0FF901F
:1022C8009F1BE0FCA3E06F7002EC6E70030224A574
:1022D80080030224A5909F1BE0FEA3E0FF909F18B7
:1022E800EEF0A3EFF0E4A3F0909F1AE0C3940A7411
:1022F800809480400302248BA3E0FEA3E0FF7C00CF
:102308007D0A122604909F1AE02FFFEC3EFE909F54
:1023180014E0FCA3E0FDC3EF9DEE9C400302248B78
:10232800909F1BE0FEA3E0FF7C007D0A122604902C
:102338009F1AE02FFFEC3EFE909F10E0FCA3E0D335
:102348009FEC9E4032909F1BE0FEA3E0FF7C0012B2
:102358002604909F1AE02FFFEC3EFEEF2401FFE4D5
:102368003EFE909F10E0FCA3E0C39FFFEC9E909977
:102378005EF0A3EFF0803A909F1BE0FEA3E0FF7CA5
:10238800007D0A122604909F1AE02FFFEC3EFEEF14
:102398002401FFE43EFE909F10E0FCA3E02400FD32
:1023A800EC3402FCC3ED9FFFEC9E90995EF0A3EF26
:1023B800F090995EE0FEA3E07803C333CE33CED825
:1023C800F92400FFEE3420FEE4FCFD909B33122834
:1023D80047909B37E4F0A37408F07D007C307F5A67
:1023E800125A0B7B017A99792A909B35E4F0A374F1
:1023F80010F07F007E301235CD7B017A99793AC092
:1024080003C002C001909938E0FEA3E07805C33309
:10241800CE33CED8F92409F974803EFA7B0190991D
:10242800651228B0909968E4F0A37420F0D001D028
:1024380002D003125DC1909F1AE025E0241DF582A9
:10244800E4349FF583E0FEA3E0FF7B017A99792AC3
:10245800909B35E4F0A37430F012383A909F1AE05C
:1024680025E0241DF582E4349FF583E0FCA3E0FD1C
:10247800909F1AE0FF7B0E124D5A909F1AE004F0CD
:102488000222F0909F1AE0C3940A74809480500D41
:10249800E0FF1249A2909F1AE004F080E690A0594C
:1024A800E0FEA3E0FF909F16EEF0A3EFF022E7090D
:1024B800F608DFFA8046E709F208DFFA803E8882EC
:1024C8008C83E709F0A3DFFA8032E309F608DFFA24
:1024D8008078E309F208DFFA807088828C83E30948
:1024E800F0A3DFFA806489828A83E0A3F608DFFA22
:1024F800805889828A83E0A3F208DFFA804C80D270
:1025080080FA80C680D4806980F28033801080A6EB
:1025180080EA809A80A880DA80E280CA8033898243
:102528008A83ECFAE493A3C8C582C8CCC583CCF0EF
:10253800A3C8C582C8CCC583CCDFE9DEE7800D8996
:10254800828A83E493A3F608DFF9ECFAA9F0EDFB9D
:102558002289828A83ECFAE0A3C8C582C8CCC583E5
:10256800CCF0A3C8C582C8CCC583CCDFEADEE8803E
:10257800DB89828A83E493A3F208DFF980CC88F0B0
:10258800EF60010E4E60C388F0ED2402B4040050E1
:10259800B9F582EB2402B4040050AF23234582230B
:1025A80090250673BB010689828A83E0225002E7E0
:1025B80022BBFE02E32289828A83E49322BB010CB8
:1025C800E58229F582E5833AF583E0225006E9257C
:1025D80082F8E622BBFE06E92582F8E222E5822996
:1025E800F582E5833AF583E49322BB010689828A62
:1025F80083F0225002F722BBFE01F322EF8DF0A4F4
:10260800A8F0CF8CF0A428CE8DF0A42EFE22BC001A
:102618000BBE0029EF8DF084FFADF022E4CCF875F5
:10262800F008EF2FFFEE33FEEC33FCEE9DEC984004
:1026380005FCEE9DFE0FD5F0E9E4CEFD22EDF8F5A0
:10264800F0EE8420D21CFEADF075F008EF2FFFED00
:1026580033FD4007985006D5F0F222C398FD0FD5F8
:10266800F0EA22C5F0F8A3E028F0C5F0F8E58215F5
:102678008270021583E038F022A3F8E0C5F025F057
:10268800F0E582158270021583E0C838F0E822BBB5
:10269800010A89828A83E0F5F0A3E022500687F0D8
:1026A80009E71922BBFE07E3F5F009E3192289823D
:1026B8008A83E493F5F074019322BB0110E5822923
:1026C800F582E5833AF583E0F5F0A3E0225009E9C5
:1026D8002582F886F008E622BBFE0AE92582F8E2A0
:1026E800F5F008E222E5832AF583E993F5F0A3E9FA
:1026F8009322BB010A89828A83F0E5F0A3F0225075
:1027080006F709A7F01922BBFE06F3E5F009F3194D
:1027180022EF2BFFEE3AFEED39FDEC38FC2275F086
:1027280008758200EF2FFFEE33FECD33CDCC33CCCE
:10273800C58233C5829BED9AEC99E58298400CF5E9
:1027480082EE9BFEED9AFDEC99FC0FD5F0D6E4CE17
:10275800FBE4CDFAE4CCF9A88222B800C1B900594B
:10276800BA002DEC8BF084CFCECDFCE5F0CBF97818
:1027780018EF2FFFEE33FEED33FDEC33FCEB33FBAC
:1027880010D703994004EB99FB0FD8E5E4F9FA2236
:102798007818EF2FFFEE33FEED33FDEC33FCC93331
:1027A800C910D7059BE99A4007EC9BFCE99AF90FF9
:1027B800D8E0E4C9FAE4CCFB2275F010EF2FFFEE65
:1027C80033FEED33FDCC33CCC833C810D7079BECB0
:1027D8009AE899400AED9BFDEC9AFCE899F80FD528
:1027E800F0DAE4CDFBE4CCFAE4C8F922EB9FF5F08B
:1027F800EA9E42F0E99D42F0EC6480C86480984506
:10280800F022EB9FF5F0EA9E42F0E99D42F0E89C49
:1028180045F022E86010ECA2E713FCED13FDEE137F
:10282800FEEF13FFD8F022E0FCA3E0FDA3E0FEA337
:10283800E0FF22E0F8A3E0F9A3E0FAA3E0FB22EC32
:10284800F0A3EDF0A3EEF0A3EFF022A8828583F0C9
:10285800D083D08212286A12286A12286A12286A3B
:10286800E473E493A3C583C5F0C583C8C582C8F0E3
:10287800A3C583C5F0C583C8C582C822A42582F52F
:1028880082E5F03583F58322E0FBA3E0FAA3E0F9C3
:1028980022F8E0FBA3A3E0F925F0F0E582158270A9
:1028A800021583E0FA38F022EBF0A3EAF0A3E9F08E
:1028B80022D083D082F8E4937012740193700DA330
:1028C800A393F8740193F5828883E4737402936880
:1028D80060EFA3A3A380DFD083D082F8E4937012C3
:1028E800740193700DA3A393F8740193F582888300
:1028F800E473740293B5F0067403936860E9A3A3C4
:10290800A3A380D8E3F5F009E208B5F06BDFF58002
:1029180067E3F5F009E608B5F05EDFF5805A87F061
:1029280009E608B5F052DFF6804E87F009E208B5EF
:10293800F046DFF6804288828C8387F009E0A3B5F1
:10294800F036DFF6803288828C8387F009E493A31F
:10295800B5F025DFF5802188828C83E3F5F009E066
:10296800A3B5F014DFF5801088828C83E3F5F009B5
:10297800E493A3B5F002DFF4022A3B808780E98064
:102988009080D4803E8015806E807E809D80B78048
:102998008D80A380518074803C022A4789828A8373
:1029A800ECFAE493F5F0A3C8C582C8CCC583CCE49F
:1029B80093A3C8C582C8CCC583CCB5F076DFE3DE67
:1029C800E1807089828A83E493F5F0A3E208B5F088
:1029D80062DFF4805E89828A83E0F5F0A3E608B5B9
:1029E800F051DFF5804D89828A83E0F5F0A3E20893
:1029F800B5F040DFF5803C89828A83E493F5F0A343
:102A0800E608B5F02EDFF4802A8002805789828A92
:102A180083ECFAE493F5F0A3C8C582C8CCC583CC8F
:102A2800E0A3C8C582C8CCC583CCB5F006DFE4DE18
:102A3800E280007FFFB5F0020F2240027F01228969
:102A4800828A83ECFAE0F5F0A3C8C582C8CCC583B6
:102A5800CCE0A3C8C582C8CCC583CCB5F0D5DFE52A
:102A6800DEE380CF89828A83ECFAE0F5F0A3C8C55B
:102A780082C8CCC583CCE493A3C8C582C8CCC5831F
:102A8800CCB5F0AFDFE4DEE280A988F0EF60010E9C
:102A98004E60ABED2402B404005098F582EB24029A
:102AA800B40400508E232345822390298373EF4E6C
:102AB8006012EF60010EEDBB010B89828A83F0A3DF
:102AC800DFFCDEFA2289F05007F709DFFCA9F022C3
:102AD800BBFEFCF309DFFCA9F022F8BB010DE5827F
:102AE80029F582E5833AF583E8F0225006E9258244
:102AF800C8F622BBFE05E92582C8F2227BFF7A6769
:102B080079F078657C997D017E007F3E1225867B71
:102B1800FF7A68792E78A47C997D017E007F241243
:102B280025867B017A997965909B35E4F0A3743EFC
:102B3800F07F207EAB1235CDE49099A3F09099A355
:102B4800E0C39410748094804003022DA5E0FF7EBA
:102B5800007401A807088005C333CE33CED8F9FF27
:102B680090996BE0FCA3E0FDEE5CFEEF5D4E700318
:102B7800022D899099A3E0FF7E007401A8070880C0
:102B880005C333CE33CED8F9FF90996FE0FCA3E0AC
:102B9800FDEE5CFEEF5D4E7003022D369099A3E0CA
:102BA800FF1313543F2407FFE4339099CAF0A3EFAF
:102BB800F09099CAE0FEA3E025E0FFEE33FE7465CD
:102BC8002FF58274993EF583E0FEA3E0FF9099A368
:102BD800E0540325E025E0FDEFA805088005CEC3F5
:102BE80013CE13D8F9540FFF9099C8E4F0A3EFF06F
:102BF8009099C8E0FEA3E08EF01228DF2C28000090
:102C08002C4000012C5800022C7000042C87000571
:102C18002C9E00062CB500082CCC000900002CE3E3
:102C28009099A3E025E024A4F582E43499F583E49F
:102C3800F0A37405F0022CF89099A3E025E024A4F1
:102C4800F582E43499F583E4F0A37406F0022CF8D5
:102C58009099A3E025E024A4F582E43499F583E46F
:102C6800F0A37407F0022CF89099A3E025E024A4BF
:102C7800F582E43499F583E4F0A37408F080719048
:102C880099A3E025E024A4F582E43499F583E4F0DF
:102C9800A37409F0805A9099A3E025E024A4F58252
:102CA800E43499F583E4F0A3740AF080439099A37F
:102CB800E025E024A4F582E43499F583E4F0A374D4
:102CC80003F0802C9099A3E025E024A4F582E43455
:102CD80099F583E4F0A37404F080159099A3E02596
:102CE800E024A4F582E43499F583E4F0A37405F0B4
:102CF8009099A3E0FF7E007401A807088005C333FC
:102D0800CE33CED8F9FF909967E0FCA3E0FDEE5CE6
:102D1800FEEF5D4E607E9099A3E025E024A4F58245
:102D2800E43499F583E475F00812266B806690996F
:102D3800A3E0FF7E007401A807088005C333CE33E3
:102D4800CED8F9FF909967E0FCA3E0FDEE5CFEEFBA
:102D58005D4E60179099A3E025E024A4F582E43441
:102D680099F583E4F0A37402F080299099A3E025F3
:102D7800E024A4F582E43499F583E4F0A304F08018
:102D8800139099A3E025E024A4F582E43499F5830F
:102D9800E4F0A3F09099A3E004F0022B459099A3E6
:102DA8007410F09099A3E0C3941274809480400347
:102DB800023016E024F0FF7E007401A807088005A1
:102DC800C333CE33CED8F9FF90996DE0FCA3E0FD74
:102DD800EE5CFEEF5D4E7003022FFA9099A3E0249B
:102DE800F0FF7E007401A807088005C333CE33CEF8
:102DF800D8F9FF909971E0FCA3E0FDEE5CFEEF5D71
:102E08004E7003022FA59099A3E0FF1313543F249B
:102E180007FFE4339099CAF0A3EFF09099CAE0FE57
:102E2800A3E025E0FFEE33FE74652FF58274993E2A
:102E3800F583E0FEA3E0FF9099A3E0540325E02585
:102E4800E0FDEFA805088005CEC313CE13D8F954CA
:102E58000FFF9099C8E4F0A3EFF09099C8E0FEA3A3
:102E6800E08EF01228DF2E9200002EAA00012EC25A
:102E780000022EDA00042EF100052F0800062F1F8D
:102E880000082F36000900002F4D9099A3E025E097
:102E980024A4F582E43499F583E4F0A37405F002E0
:102EA8002F629099A3E025E024A4F582E43499F5F3
:102EB80083E4F0A37406F0022F629099A3E025E062
:102EC80024A4F582E43499F583E4F0A37407F002AE
:102ED8002F629099A3E025E024A4F582E43499F5C3
:102EE80083E4F0A37408F080719099A3E025E024AE
:102EF800A4F582E43499F583E4F0A37409F0805AC8
:102F08009099A3E025E024A4F582E43499F583E4BC
:102F1800F0A3740AF080439099A3E025E024A4F577
:102F280082E43499F583E4F0A37403F0802C90993B
:102F3800A3E025E024A4F582E43499F583E4F0A322
:102F48007404F080159099A3E025E024A4F582E4A8
:102F58003499F583E4F0A37405F09099A3E024F084
:102F6800FF7E007401A807088005C333CE33CED88E
:102F7800F9FF909969E0FCA3E0FDEE5CFEEF5D4E81
:102F8800700302300D9099A3E025E024A4F582E4B3
:102F98003499F583E475F00812266B80689099A33C
:102FA800E024F0FF7E007401A807088005C333CE33
:102FB80033CED8F9FF909969E0FCA3E0FDEE5CFE02
:102FC800EF5D4E60179099A3E025E024A4F582E414
:102FD8003499F583E4F0A37402F080299099A3E072
:102FE80025E024A4F582E43499F583E4F0A304F001
:102FF80080139099A3E025E024A4F582E43499F5A0
:1030080083E4F0A3F09099A3E004F0022DAB7B01D8
:103018007A9979A4909B35E4F0A37424F07FA07E7C
:10302800AB12383A22E50F30E0167B017AA07959C5
:10303800909B35E4F0A37402F07F147E001235CD26
:10304800E50F20E20302331290A059E0FEA3E064EA
:103058000B4E7003122B0490A059E0FEA3E06429E4
:103068004E60030231407B017A99792D909B35F0AF
:10307800A3741CF07FB07EC91235CDE490992AF074
:1030880090992AE0C3940774809480400302312AFF
:10309800E025E025E0242DF582E43499F583E0FE6F
:1030A800A3E0C4F8540FC868FDEEC454F048FC907F
:1030B800992AE025E025E0242FF582E43499F58368
:1030C800E0FEA3E0EEC4540F2DFFE43C90992BF0F2
:1030D800A3EFF090992BE0FEA3E0FF7C007D18128F
:1030E800261690992AE025E02449F582E43499F5DA
:1030F80083EEF0A3EFF090992BE0FEA3E0FF7C00B5
:103108007D1812261690992AE025E02457F582E4C6
:103118003499F583ECF0A3EDF090992AE004F002DD
:1031280030887B017A997949909B35E4F0A3741C27
:10313800F07F207EC912383A90A059E0FEA3E064DF
:103148002C4E60030231D77B017A997930909B35F8
:10315800F0A37402F07FA07ECC1235CD909930E0B8
:10316800FEA3E0FFEEC4F854F0C868FEEFC4540FA5
:1031780048EE540F90992AF0A3E4F090992AE0FCC5
:10318800A3E0FD909930E0FEA3E07807CEC313CE0C
:1031980013D8F9541FFFECFEED4FFF90992AEEF07B
:1031A800A3EFF0909930E0A3E0547F90992CF0A31E
:1031B800E4F0A304F0A37403F07B017A99792A90D0
:1031C8009B35E4F0A37406F07F207ECC12383A9049
:1031D800A059E0FEA3E064274E705690A055E0C3C6
:1031E800940574809480504290992AE4F0A304F0E6
:1031F800FB7A99792A909B35E4F0A37402F07F2535
:103208007EA012383A90992AE4F0A3745AF07B0110
:103218007A99792A909B35E4F0A37402F07F857E31
:10322800A012383A90A055E004F0E490A056F0803F
:103238005390A056E0C39405748094805041E49064
:10324800992AF0A3F07B017A99792A909B35F0A30B
:103258007402F07F257EA012383A90992AE4F0A3F0
:10326800745AF07B017A99792A909B35E4F0A3741B
:1032780002F07F857EA012383A90A056E004F0E470
:1032880090A055F07B017A99792A909B35E4F0A3B8
:103298007402F07F167E001235CD90992AE0FEA3C5
:1032A800E04E6024E490992AF0A3F07B017A9979A2
:1032B8002A909B35F0A37402F07F167E0012383AEC
:1032C800E490A057F0A3F02290A057E0FEA3E0C33B
:1032D8009458EE9402500B90A057E475F001122612
:1032E8006B2290A057E0FEA3E0B4581EEEB4021A79
:1032F80090A057E475F00112266B90A059E0FEA348
:10330800E04E6006E4FFFE1261FE2290992F12281B
:10331800B0909932ECF0A3EDF0E4A3F0A3F090990B
:1033280032E0FEA3E0FFA3E0FCA3E0C39FEC9E50C5
:103338000C909934E475F00112266B80E190993273
:10334800E0FEA3E0C39405EE940050030235CCE4FC
:10335800A3F0A3F090992F122890909934E0FEA33F
:10336800E0F5828E831225C5640260030235A690BB
:10337800992F122890909934E0A3E029F9EA3EFAAF
:103388009000011225C51228B9339B0334EF0600BB
:103398000035A690992F122890909934E0FEA3E06A
:1033A80029F9EA3EFA9000021225C5FF909938E4FF
:1033B800F0A3EFF0909934E0A3E0FF909938E0FC97
:1033C800A3E02FFFEC3EFEEF2405FFE43EFE9099BC
:1033D80032E0FCA3E0FDD3EF9DEE9C4011909932C2
:1033E800E0FEA3E0FFA3EEF0A3EFF00235A690996C
:1033F8002F122890909934E0FEA3E029F9EA3EFACA
:10340800909938E0FEA3E02403FDE43EFC125B1231
:10341800909936EEF0A3EFF090992F12289090999A
:1034280034E0FEA3E029F9EA3EFA909938E0FEA3D9
:10343800E029F9EA3EFA9000031225C5FD90993675
:10344800E0FEA3E0EE6D7001E460030235A69099FA
:103458002F122890909934E0FEA3E029F9EA3EFA69
:10346800909938E0FEA3E029F9EA3EFA90000412A8
:1034780025C5FF909936E0A3E06F7001E460030270
:1034880035A69090E9E0FEA3E0FF90992F122890CE
:10349800E92403F9E43AFAC003C002C00190992F65
:1034A8001228909000021225C5FD909B35E4F0A3E8
:1034B800EDF0D001D002D00312383A7E007F0E7DA5
:1034C800007B017A9079E1122AB6909938E0FEA340
:1034D800E02405FFE43E909934F0A3EFF0908E6964
:1034E800E04402F00235A6909934E0FEA3E02408F7
:1034F800FFE43EFE909932E0FCA3E0FDD3EF9DEEA1
:103508009C4011909932E0FEA3E0FFA3EEF0A3EFF8
:10351800F00235A690992F122890909934E0FEA3D6
:10352800E029F9EA3EFA7D067C00125B1290993692
:10353800EEF0A3EFF090992F122890909934E0FEC6
:10354800A3E029F9EA3EFA9000061225C5FD9099F4
:1035580036E0FEA3E0EE6D7001E4704290992F1200
:103568002890909934E0FEA3E029F9EA3EFA900009
:10357800071225C5FF909936E0A3E0B50720E4902F
:10358800993475F00812266B7E007F0E7D007B0152
:103598007A9079E1122AB6908E69E04402F0909907
:1035A80034E475F00112266B909932E0FEA3E02412
:1035B800FBFFEE34FFFEA3E0FCA3E0C39FEC9E50AC
:1035C8000302335C22909B30EEF0A3EFF0A31228A5
:1035D800B07B007A007900C003C002C001909B3222
:1035E800122890D082D083D0E06B7008E965827091
:1035F80003EA65837003023839909B35E0FEA3E047
:103608004E7003023839909B35E0A3E0FFEEC313F8
:10361800FEEF13FF909B30E0FCA3E02FFFEE3CFE93
:10362800D3EF94FEEE94FF4003023839C2AF909B6B
:1036380030E0A3E05401909B37F0909B30E0FEA36C
:10364800E0FFEEC313FEEF13FF909B30EEF0A3EF05
:10365800F0909B30E0FEA3E07810CEC313CE13D8D1
:10366800F9F5F1909B30E0FEA3E0EEF5F2909B3087
:10367800E0A3E0F5F3E4F5F875F401D2FF30FCFDC2
:10368800D2FD909B37E064017072909B35E0FEA3F9
:10369800E064014E700AC2FBC2FAD2F9C2F880088F
:1036A800C2FBC2FAD2F9D2F8D2FE20FEFD909B35B9
:1036B800E0FEA3E064014E701A909B3275F001128F
:1036C8002899E5FC1225F2909B3574FFF5F0122637
:1036D8006B8029909B32E475F001122899E5FC1261
:1036E80025F2909B32E475F001122899E5FD122528
:1036F800F2909B3574FF75F0FE12266B909B35E0B7
:10370800FEA3E04E7003023834909B35E0A3E0C37B
:103718009404EE940040030237DD909B35E0A3E06B
:103728008EF01228DF3751000137470002373D007D
:103738000300003759D2FBD2FAD2F9C2F88012D26C
:10374800FBD2FAC2F9C2F88008D2FBC2FAC2F9C2A7
:10375800F8D2FE20FEFD909B35E0FEA3E08EF0122D
:1037680028DF37CA000137AA0002377A00030000B1
:103778003834909B32E475F001122899E5FA122545
:10378800F2909B32E475F001122899E5FB1225F2BC
:10379800909B32E475F001122899E5FC1225F2029B
:1037A8003834909B32E475F001122899E5FA122515
:1037B800F2909B32E475F001122899E5FB1225F28C
:1037C800806A909B32E475F001122899E5FA122577
:1037D800F280598057D2FBD2FAD2F9D2F8D2FE2021
:1037E800FEFD909B32E475F001122899E5FA122546
:1037F800F2909B32E475F001122899E5FB1225F24C
:10380800909B32E475F001122899E5FC1225F2909C
:103818009B32E475F001122899E5FD1225F2909B80
:103828003574FF75F0FC12266B023704E4F5F8D204
:10383800AF22909B30EEF0A3EFF0A31228B07B00EC
:103848007A007900C003C002C001909B3212289010
:10385800D082D083D0E06B7008E965827003EA6596
:10386800837003023AA5909B35E0FEA3E04E7003F7
:10387800023AA5909B35E0A3E0FFEEC313FEEF13D9
:10388800FF909B30E0FCA3E02FFFEE3CFED3EF94CB
:10389800FEEE94FF4003023AA5C2AF909B30E0A32E
:1038A800E05401909B37F0909B30E0FEA3E0FFEEE0
:1038B800C313FEEF13FF909B30EEF0A3EFF0909B45
:1038C80030E0FEA3E07810CEC313CE13D8F9F5F19B
:1038D800909B30E0FEA3E0EEF5F2909B30E0A3E091
:1038E800F5F3E4F5F875F401D2FF30FCFDC2FD9064
:1038F8009B37E064017072909B35E0FEA3E06401A1
:103908004E700AC2FBC2FAD2F9C2F88008C2FBC2E2
:10391800FAD2F9D2F8909B35E0FEA3E064014E702C
:103928001A909B3275F0011228991225ACF5FC907B
:103938009B3574FFF5F012266B8029909B32E47555
:10394800F0011228991225ACF5FC909B32E475F031
:10395800011228991225ACF5FD909B3574FF75F07E
:10396800FE12266BD2FE20FEFD909B35E0FEA3E002
:103978004E7003023AA0909B35E0A3E0C39404EE96
:1039880094004003023A49909B35E0A3E08EF01280
:1039980028DF39BE000139B4000239AA000300004B
:1039A80039C6D2FBD2FAD2F9C2F88012D2FBD2FAC7
:1039B800C2F9C2F88008D2FBC2FAC2F9C2F8909BD9
:1039C80035E0FEA3E08EF01228DF3A3100013A110B
:1039D800000239E2000300003A40909B32E475F09F
:1039E800011228991225ACF5FA909B32E475F00182
:1039F8001228991225ACF5FB909B32E475F0011260
:103A080028991225ACF5FC802F909B32E475F001C3
:103A18001228991225ACF5FA909B32E475F0011240
:103A280028991225ACF5FB800F909B32E475F001C4
:103A38001228991225ACF5FAD2FE30FE5B80FB8085
:103A480057D2FBD2FAD2F9D2F8909B32E475F00142
:103A58001228991225ACF5FA909B32E475F0011200
:103A680028991225ACF5FB909B32E475F0011228D9
:103A7800991225ACF5FC909B32E475F00112289957
:103A88001225ACF5FDD2FE20FEFD909B3574FF7526
:103A9800F0FC12266B023971E4F5F8D2AF227BFFF5
:103AA8007A67796C782A7C997D017E007F201225BF
:103AB800867B017A99792A90994C1228B090994F6F
:103AC8001228B0E490994AF0A3F090994AE0FEA336
:103AD800E0C3EE94024003023B6F90994AE0A3E0F2
:103AE8007803C333CE33CED8F92400FFEE3420FE5A
:103AF800E4FCFD909B33122847909B37E4F0A374B5
:103B080008F07D007C307F5A125A0B7B017A997934
:103B18002A909B35E4F0A37410F07F007E301235B4
:103B2800CD90994C122890122697645A7004E5F0AB
:103B380064A5602690994F122890122697B4A5275D
:103B4800E5F0B45A2290994F122890780E7C9F7D08
:103B5800017E007F08122586800D90994AE475F051
:103B68000112266B023AD2E490994AF0A3F0909998
:103B78004AE0FEA3E0C3940AEE94004003023D012C
:103B88007BFF7A67798C78527C997D017E007F2053
:103B98001225867B017A9E79C778527C997D017EB1
:103BA800007F1A12258690994AE0FEA3E0FF7C0068
:103BB8007D1B122604EF2464FFE43E909956F0A37F
:103BC800EFF090995B7401F090994AE0FEA3E090C1
:103BD8009F3175F006122884EE75F006A42583F54A
:103BE80083E0FEA3E0FF7B017A997952909B35E44C
:103BF800F0A37420F012383A7B017A9E79E178526A
:103C08007C997D017E007F1A12258690994AE0FEF4
:103C1800A3E0FF7C007D1B122604EF2464FFE43E32
:103C2800909956F0A3EFF090995B7401F090994A3F
:103C3800E0FEA3E0909F3375F006122884EE75F03D
:103C480006A42583F583E0FEA3E0FF7B017A99793A
:103C580052909B35E4F0A37420F012383A7B017A35
:103C68009F796D78527C997D017E007F1A12258696
:103C780090994AE0FEA3E0FF7C007D1B122604EF2A
:103C88002464FFE43E909956F0A3EFF090994AE03F
:103C9800FEA3E0FF122604EF2464FFE43E90995C43
:103CA800F0A3EFF090994AE0FEA3E0FF122604EF9C
:103CB800247DFFE43E909960F0A3EFF090994AE0EC
:103CC800FEA3E0909F3575F006122884EE75F00685
:103CD800A42583F583E0FEA3E0FF7B017A9979525E
:103CE800909B35E4F0A37420F012383A90994AE496
:103CF80075F00112266B023B7622E50F30E10D903C
:103D0800A05BE475F00112266B1254EC90A05BE006
:103D1800FEA3E0C394B0EE94045003023F50E49035
:103D2800A05BF0A3F0A3E0FEA3E02400FFEE3410B4
:103D380090992AF0A3EFF07B017A99792C909B3522
:103D4800E4F0A37402F07FA37EA01235CD90992CE5
:103D5800E475F0C812266B90992AE0FEA3E0FF7B79
:103D6800017A99792C909B35E4F0A37402F012380B
:103D78003A90A05DE0FEA3E02400FFEE341890998D
:103D88002AF0A3EFF07B017A99792C909B35E4F027
:103D9800A37402F07FA47EA01235CD90992AE0FE8C
:103DA800A3E0FF7B017A99792C909B35E4F0A3740A
:103DB80002F012383A90A05DE0FEA3E0FF9099303F
:103DC800EEF0A3EFF090A05DE475F00112266B9081
:103DD800A05DE0FEA3E0C394FEEE94074007E490E4
:103DE800A05DF0A3F07B017AA0795D909B35E4F0AB
:103DF800A37402F07F007E0312383A7B017AA0791F
:103E08005D909B35E4F0A37402F0FF7E0312383A0C
:103E180090992E7407F0A374FEF07B017A99792E9D
:103E2800909B35E4F0A37402F07F087E5012383A74
:103E38007B017A99792E909B35E4F0A37402F07F88
:103E4800097E5012383A90992E7402F0A3748AF0C1
:103E58007B017A99792E909B35E4F0A37402F07F68
:103E6800117E5012383A90A05DE0A3E030E00302E2
:103E78003F5090993074FFF5F012266B909930E01E
:103E8800FEA3E02400FFEE3410FE7B017A99792A24
:103E9800909B35E4F0A37404F01235CD90992E74FC
:103EA800A5F0A3745AF07B017A99792A909B35E49E
:103EB800F0A37406F07F007E5012383A909930E0F3
:103EC800FEA3E0FFE4FCFD909B33122847909B374C
:103ED800E4F0A37404F07D007C507FA5125A0B9087
:103EE8009930E0FEA3E02400FFEE3418FE7B017A4F
:103EF80099792A909B35E4F0A37404F01235CD909B
:103F0800992E74A5F0A3745AF07B017A99792A90B6
:103F18009B35E4F0A37406F07F007E5012383A9087
:103F28009930E0FEA3E02400FFEE3408FEE4FCFD37
:103F3800909B33122847909B37E4F0A37404F07DDC
:103F4800007C507FA5125A0B2290992F1228B0900E
:103F5800992F1228901225AC909932F0909932E05E
:103F6800C3948D748094804003024188E075F00EFC
:103F78009090EF122884E0645A600302417F909980
:103F880032E075F00E9090F2122884E0700302413E
:103F98007F909932E075F00E9090F4122884E070CA
:103FA80003024188909932E075F00E9090F412283F
:103FB80084E064017029909932E075F00E9090F5D4
:103FC800122884E0FEA3E0FF90A059E0FCA3E06F74
:103FD8007002EC6E600302417F02418802417F90CB
:103FE8009932E075F00E9090F4122884E064026033
:103FF800030240A4909932E075F00E9090F51228D3
:1040080084E0FEA3E0FF7B017A997933909B35E445
:10401800F0A37402F01235CD909933E0A3E0645A0E
:10402800600302417F909932E0C3948C748094803D
:10403800503CE075F00E909102122884E064027002
:104048002D909932E075F00E909103122884E0FECD
:10405800A3E0FF909932E075F00E9090F512288455
:10406800E0FCA3E06F7002EC6E7003024188E490FC
:104078009933F0A3F0909932E075F00E9090F51214
:104088002884E0FEA3E0FF7B017A997933909B3581
:10409800E4F0A37402F012383A024188909932E0B1
:1040A80075F00E9090F4122884E0640360030241D6
:1040B8007F909932E075F00E9090FB122884E0FE14
:1040C800A3E0FF90A059E0FCA3E0FDEF6D7002EEC5
:1040D8006C600302417F909932E075F00E9090F584
:1040E800122884E0FEA3E0FF7B017A997933909B44
:1040F80035E4F0A37402F01235CD909933E0A3E0D3
:10410800645A7073909932E0C3948C748094805090
:1041180039E075F00E909102122884E06403702A49
:10412800909932E075F00E909103122884E0FEA376
:10413800E0FF909932E075F00E9090F5122884E037
:10414800FCA3E06F7002EC6E6036E4909933F0A344
:10415800F0909932E075F00E9090F5122884E0FE08
:10416800A3E0FF7B017A997933909B35E4F0A3743F
:1041780002F012383A8009909932E004F0023F6464
:10418800909932E0FF90992F122890EF1225F22291
:104198007BFF7A65796C782A7C997D017E027F00A5
:1041A800122586909B3312285300000000909B37FD
:1041B8007410F0A3E4F0FD7C107F5A125A0B909B08
:1041C8002A7410F0A3E4F0909B2AE0FEA3E0C394C5
:1041D800FEEE94175069909B2AE0A3E0FF7B017ADA
:1041E80099792A909B357402F0A3E4F01235CDE456
:1041F800909B2CF0A3F0909B2CE0FEA3E0C3EE94E0
:1042080001502F909B2CE0A3E025E0FFEE33FE74D5
:104218002A2FF58274993EF583E0FEA3E0645A7074
:1042280003EE64A56019909B2CE475F00112266BCF
:1042380080C4909B2A740175F00012266B808890C8
:104248009B2CE0FEA3E0FF909B2AE0FCA3E02FFF5D
:10425800EC3E909B2EF0A3EFF0909B2EE0FEA3E0A7
:10426800C394FEEE94174009909B2E7410F0A3E4BB
:10427800F0909B2E74F075F00012266B909B2EE048
:10428800FEA3E0FF90A05DEEF0A3EFF07B017A9B28
:10429800792E909B35E4F0A37402F07F007E031220
:1042A800383A7B017A9B792E909B35E4F0A374020F
:1042B800F0FF7E0312383A7B017A9B792E909B356A
:1042C800E4F0A37402F07F087E5012383A7B017A3A
:1042D8009B792E909B35E4F0A37402F07F097E5001
:1042E80012383A90992A7407F0A374FEF07B017A89
:1042F80099792A909B35E4F0A37402F07F017E033C
:1043080012383A7B017A99792A909B35E4F0A374A4
:1043180002F004FFFE12383A90992AE4F0A37406DA
:10432800F0A3E4F0A304F0A3E4F0A3742EF0A374C4
:1043380001F0A3744CF0A37401F0A37471F0A3749A
:1043480001F0A37477F0A37401F0A3748AF0A37446
:1043580002F0A3748AF0A37401F0A37471F0A3743B
:10436800FFF0A3E4F07B017A99792A909B35F0A3BA
:104378007414F07F0A7E5012383A22E490992AF099
:10438800A3F0E50F20E00302456A7B017A99792AB8
:10439800909B35E4F0A37402F07F147E501235CD63
:1043A80090992AE0FEA3E04E700302456A90992A8C
:1043B800E0A3E08EF01228DF44E8A00044EDA02638
:1043C80044F2A40044F7A40144FCA4A044FCA4A122
:1043D80044FCA4A244FCA4A344FCA4A444FCA4A5B7
:1043E80044FCA4A644FCA4A744FCA4A844FCA4A997
:1043F80044FCA4AA44FCA4AB44FCA4AC44FCA4AD77
:1044080044FCA4AE44FCA4AF44FCA4B044FCA4B156
:1044180044FCA4B244FCA4B344FCA4B444FCA4B536
:1044280044FCA4B644FCA4B744FCA4B844FCA4B916
:1044380044FCA4BA44FCA4BB44FCA4BC44FCA4BDF6
:1044480044FCA4BE44FCA4BF44FCA4C044FCA4C1D6
:1044580044FCA4C244FCA4C344FCA4C444FCA4C5B6
:1044680044FCA4C644FCA4C744FCA4C844FCA4C996
:1044780044FCA4CA44FCA4CB44FCA4CC44FCA4CD76
:1044880044FCA4CE44FCA4CF44FCA4D044FCA4D156
:104498004509A4F04509A4F14509A4F24509A4F386
:1044A8004516A600454EA601451BAC004520AC01AB
:1044B800452AC500452FC6004525C7004534C70114
:1044C8004539C9014539C9074539C90D4539C90EA5
:1044D8004539C9114546CF00454BCF010000454E2F
:1044E800125E298061126476805C125C79805712B2
:1044F8000016805290992AE0FEA3E0FF125FA68082
:104508004590992AE0FEA3E0FF1260008038125817
:104518002A80331260B3802E1263408029124AE148
:104528008024126376801F126437801A120052802A
:104538001590992AE0FEA3E0FF1261B38008126289
:10454800458003126284E490992AF0A3F07B017AF3
:1045580099792A909B35F0A37402F07F147E50124B
:10456800383A227B007A00790090992A1228B09074
:1045780090E0E0640160030246029090DBE0FF9067
:1045880098A5E0D39F4011E09090DBF09099261217
:1045980028530000000080629090DBE0FF9098A50F
:1045A800E06F7056FFFEFDFC90992612283BD3124F
:1045B800280A403890992612283BC3E50E9BFFE550
:1045C8000D9AFEE50C99FDE50B98FCE47B0AFAF9D7
:1045D800F8C312280A50237B017A9879A69098A5E7
:1045E800E0FD7C00123313126411800EAF0EAE0D85
:1045F800AD0CAC0B909926122847908E69E030E0FC
:104608003AE020E1299090DC12283BC3E50E9BFBA1
:10461800E50D9AFAE50C99F9E50B98F89090E5E024
:10462800FFE4FCFDFEC312280A5003024717908ED0
:1046380069E030E12DA3E004F080279090DC122897
:104648003BC3E50E9BFFE50D9AFEE50C99FDE50BD6
:1046580098FCE47BF47A01F9F8D312280A400302A3
:104668004717908E6AE0700312485DAF0EAE0DAD2D
:104678000CAC0B9090DC122847908E69E054FDF04A
:10468800E054FEF07B017A8E796A123F51908E6A6F
:10469800E0C3948D748094805070E075F00EA4246B
:1046A800EFF9749035F0FA7B0178E17C907D017E1A
:1046B800007F0E1225869090E3E0640370117B0161
:1046C8007A9079E11250D9908E69E04401F02290F5
:1046D80090E3E0640670389090E9E0FEA3E0FF7B89
:1046E800017A99792D909B35E4F0A37402F0123584
:1046F800CD7B017A9079E190992DE0FCA3E0FD1241
:1047080051F4908E69E04401F022E4908E6AF02220
:10471800909938EFF0A3EDF0A3EBF0E4909945F011
:10472800A3F0909938E024D0FFE43407909945F03D
:10473800A3EFF0909945E0FEA3E0FF7C007D6412B2
:10474800261690993BECF0A3EDF0909945E0FEA376
:10475800E0FF7C007D6412261690993DEEF0A3EFF1
:10476800F0909939E0FF90993FE4F0A3EFF0909929
:104778003AE0FF909941E4F0A3EFF090993FE0FE12
:10478800A3E064014E600B90993FE0A3E064024E01
:10479800701490993B74FFF5F012266B90993FE4E2
:1047A80075F00C12266B90993BE0FEA3E07802CEE0
:1047B800C313CE13D8F9FF90993BE0FCA3E02FFD7B
:1047C800EE3CFCA3E0FEA3E07802CEC313CE13D8E0
:1047D800F92DFDEC3EFC90993DE0FEA3E025E0FFBD
:1047E800EE33FEC3ED9FFBEC9EFAA3E0FEA3E024AC
:1047F80001FFE43EFE7C007D0D1226047D05122695
:1048080016EF2BFFEE3AFEA3E0FCA3E02FFFEE3CF1
:10481800FEEF24FFFFEE34FFA3F0A3EFF0909943DF
:10482800E0FEA3E0C3EE9400500C909943E475F0C9
:104838000712266B80E7909943E0FEA3E0FF7C0017
:104848007D07122616909943ECF0A3EDF09099435A
:10485800E0A3E0FF227BFF7A687952782F7C997D6C
:10486800017E007F28122586E4909957F0A3F090E6
:104878009957E0FEA3E0C3944EEE9400400302492A
:10488800A1909957E0A3E07803C333CE33CED8F98B
:10489800246CF582748E3EF583E0FF90A059E0FC0D
:1048A800A3E0FDEF6D7001EC600302499490995705
:1048B800E0FEA3E07803C333CE33CED8F9246DF5F8
:1048C80082748E3EF583E0FEA3E0FF7B017A99793E
:1048D8002F909B35E4F0A37402F01235CD909957D0
:1048E800E0FEA3E07803C333CE33CED8F9246FF5C6
:1048F80082748E3EF583E0FEA3E0FF7B017A99790E
:1049080031909B35E4F0A37402F01235CD909931C3
:10491800E0FEA3E0FF90992FE0FCA3E06F7002ECAB
:104928006E6069909957E0FEA3E07803C333CE33F5
:10493800CED8F9246FF582748E3EF583E0FEA3E0AD
:10494800FF7B017A99792F909B35E4F0A37402F0EC
:1049580012383A909933E4F0A3745AF0909957E0DA
:10496800FEA3E07803C333CE33CED8F92471F582A1
:10497800748E3EF583E0FEA3E0FF7B017A997933DC
:10498800909B35E4F0A37402F012383A909957E4FA
:1049980075F00112266B02487722909962EFF07B3E
:1049A800FF7A6779CC78637C997D017E007F20123D
:1049B80025867B017A9E79C778637C997D017E0084
:1049C8007F1A122586909962E075F01BA42464FF73
:1049D800E435F0909967F0A3EFF090996C7401F0CA
:1049E800909962E075F006A42431F582E4349FF5CD
:1049F80083E0FEA3E0FF7B017A997963909B35E41D
:104A0800F0A37420F012383A7B017A9E79E178633A
:104A18007C997D017E007F1A122586909962E07547
:104A2800F01BA42464FFE435F0909967F0A3EFF03D
:104A380090996C7401F0909962E075F006A42433A3
:104A4800F582E4349FF583E0FEA3E0FF7B017A99C9
:104A58007963909B35E4F0A37420F012383A7B0117
:104A68007A9F796D78637C997D017E007F1A122583
:104A780086909962E075F01BA42464FFE435F090F9
:104A88009967F0A3EFF0909962E075F01BA4246495
:104A9800FFE435F090996DF0A3EFF0909962E0751E
:104AA800F01BA4247DFFE435F0909971F0A3EFF09A
:104AB800909962E075F006A42435F582E4349FF5F8
:104AC80083E0FEA3E0FF7B017A997963909B35E44C
:104AD800F0A37420F012383A227BFF7A68797A784A
:104AE8002C7C997D017E007F0E1225867B017A99A8
:104AF800792C909B35E4F0A3740CF07FA07EC7124C
:104B080035CDE490993AF0A3F090993AE0FEA3E00D
:104B1800FF90992CE0A3E05401FDEEEF4DFF909932
:104B28003AEEF0A3EFF090993AE0FCA3E0FD9099FB
:104B38002EE0A3E0540125E0FFE433FEEC4EFEED49
:104B48004FFF90993AEEF0A3EFF090993AE0FCA36A
:104B5800E0FD909930E0A3E07E0054017802C33371
:104B6800CE33CED8F9FFEC4EFEED4FFF90993AEEDA
:104B7800F0A3EFF090993AE0FCA3E0FD909932E0C1
:104B8800A3E07E0054017806C333CE33CED8F9FFB4
:104B9800EC4EFEED4FFF90993AEEF0A3EFF09099AE
:104BA8003AE0FCA3E0FD909934E0A3E05401C4543A
:104BB800F0FEEC4EFEEDFF90993AEEF0A3EFF09088
:104BC800993AE0FCA3E0FD909936E0A3E05401C4D3
:104BD8003354E0FEEC4EFEEDFF90993AEEF0A3EF71
:104BE800F07B017A99793A909B35E4F0A37402F04E
:104BF8007F227EC712383A90993AE4F0A3745AF0AB
:104C08007B017A99793A909B35E4F0A37402F07F9E
:104C1800827EC712383A221264937F641261607FE1
:104C28001012616012650F1264937F6512616090C3
:104C380099327406F0909932E0D39400748094808D
:104C4800401D12610B909932E0242AF582E43499D0
:104C5800F583EFF01264AE909932E014F080D6122A
:104C6800610B90992AEFF01264C712650FE49099CE
:104C780032F0909932E0C3940374809480504BE0F2
:104C8800242AF582E43499F583E0FFC4540F9099FF
:104C980033F0909932E0242AF582E43499F583E0E0
:104CA800540F909934F0909933E075F00AA4FFA35B
:104CB800E02FFF909932E0242AF582E43499F583B5
:104CC800EFF0909932E004F080A89099327404F0E3
:104CD800909932E0C3940774809480504BE0242A62
:104CE800F582E43499F583E0FFC4540F909933F0CA
:104CF800909932E0242AF582E43499F583E0540F40
:104D0800909934F0909933E075F00AA4FFA3E02F4E
:104D1800FF909932E0242AF582E43499F583EFF084
:104D2800909932E004F080A890992AE0FFA3E0FD72
:104D3800A3E0FB12471890992DEFF07B017A99793F
:104D48002A909B35E4F0A37408F07F107E00123897
:104D58003A22909962EFF0A3ECF0A3EDF0A3EBF008
:104D68007BFF7A6779AC78667C997D017E007F202D
:104D78001225867B017A9E79C778667C997D017EAB
:104D8800007F1A122586909962E075F01BA42464AE
:104D9800FFE435F090996AF0A3EFF0E490996FF092
:104DA800909963E0FEA3E02401FFE43E909966F049
:104DB800A3EFF0909962E075F006A42431F582E43F
:104DC800349FF583E0FEA3E0FF7B017A9979669032
:104DD8009B35E4F0A37420F012383A7B017A9E796F
:104DE800E178667C997D017E007F1A12258690996C
:104DF80062E075F01BA42464FFE435F090996AF032
:104E0800A3EFF0909965E0FFC3740E9F90996FF03F
:104E1800909963E0FEA3E02404FFE43E909966F0D5
:104E2800A3EFF0909962E075F006A42433F582E4CC
:104E3800349FF583E0FEA3E0FF7B017A99796690C1
:104E48009B35E4F0A37420F012383A909963E0FEA1
:104E5800A3E02408FFE43E909966F0A3EFF0909950
:104E680062E075F006A42435F582E4349FF583E00A
:104E7800FEA3E0FF7B017A997966909B35E4F0A365
:104E88007402F012383A22C0E0C0F0C083C082C079
:104E9800D075D000C000C001C002C003C004C00566
:104EA800C006C007C2AF758CBC758ACD90A045E41A
:104EB80075F00112266B90A045E0FEA3E0D394E8BC
:104EC800EE9403401890A045E4F0A3F0A375F00118
:104ED80012266B90A043E475F00112266B43C901BA
:104EE80090A05112282FE47B01FAF9F812271990A3
:104EF800A05112284790A049E475F00112266B9042
:104F0800A04B12282FE4F812271990A04B1228471B
:104F180090A04FE0FEA3E0FFE4FCFD7BDC7AFFF805
:104F2800D31227F4400A90A04FE475F00112266BC3
:104F38000509E50970020508AF0EAE0DAD0CAC0B06
:104F4800E47B01FAF9F81227198F0E8E0D8D0C8C5F
:104F58000BE47B64122762AC00AD01AE02AF03E440
:104F6800FBFAF9F8C312280A7003430A02E47BF437
:104F78007A01F9F8AF0EAE0DAD0CAC0B122762AC8E
:104F880000AD01AE02AF03E4FBFAF9F8C312280A38
:104F98007003430A04430A01D2AFD007D006D005F4
:104FA800D004D003D002D001D000D0D0D082D0839A
:104FB800D0F0D0E032E4909937F07B017AA0793BC9
:104FC800909B35F0A37408F07F9C7E001235CD903D
:104FD800A03BE0645A60030250D8A3E064A56003D4
:104FE8000250D89099327402F0909932E0C3940834
:104FF80074809480504EE0243BF582E434A0F5831D
:10500800E075F00A84909933F0909932E0243BF5EA
:1050180082E434A0F583E075F00A84909934E5F0D1
:10502800F0909933E0C454F0FFA3E02FFF90993239
:10503800E0242AF582E43499F583EFF0909932E080
:1050480004F080A590992CE090A033F090992DE081
:1050580090A034F090992EE090A035F090992FE030
:1050680090A037F0909930E090A038F0909931E016
:1050780090A039F090A03DE0FFA3E0FDA3E0FB1273
:105088004718909936EFF0E4909935F0A3E090A096
:1050980036F090993675F00A84909933F0909936E5
:1050A800E075F00A84909934E5F0F07B017AA079F4
:1050B800331255CAE490A03BF0A3F07B017AA079A3
:1050C8003B909B35F0A37408F07F9C7E0012383A21
:1050D8002290992F1228B0E4909934F090992F12C9
:1050E80028909000011225C5FF909934E0FE04F045
:1050F80074352EF582E43499F583EFF0909934E015
:10510800FF04F074352FF582E43499F5837403F0C5
:1051180090992F12289090000A1226C2E5F0FF906D
:105128009934E0FE04F074352EF582E43499F58361
:10513800EFF090992F12289090000A1226C2FF9043
:105148009934E0FE04F074352EF582E43499F58341
:10515800EFF090992F1228909000031225C5FFE4D4
:10516800909934E0FE04F074352EF582E43499F514
:1051780083E4F090992F1228909000031225C5FF20
:10518800909934E0FE04F074352EF582E43499F5F4
:1051980083EFF07B017A997935909934E0FD7C00B2
:1051A800125B12909932EEF0A3EFF0909932E0FE84
:1051B800A3E0EEFFA3E0FE04F074352EF582E4349C
:1051C80099F583EFF0909932E0A3E0FFA3E0FE04A5
:1051D800F074352EF582E43499F583EFF07B017A8B
:1051E800997935909934E0FD125F4C2290992F12ED
:1051F80028B0909932ECF0A3EDF0E4909936F09055
:10520800992F1228909000011225C5FF909936E039
:10521800FE04F074372EF582E43499F583EFF090AC
:105228009936E0FF04F074372FF582E43499F5835A
:105238007406F090992F12289090000A1226C2E561
:10524800F0FF909936E0FE04F074372EF582E434CE
:1052580099F583EFF090992F12289090000A122662
:10526800C2FF909936E0FE04F074372EF582E434DC
:1052780099F583EFF0909932E0FEA3E0EEFF909964
:1052880036E0FE04F074372EF582E43499F583EFA6
:10529800F0909932E0A3E0FF909936E0FE04F074B4
:1052A800372EF582E43499F583EFF07B017A99790A
:1052B80037909936E0FD7C00125B12909934EEF03D
:1052C800A3EFF0909934E0FEA3E0EEFFA3E0FE0424
:1052D800F074372EF582E43499F583EFF090993421
:1052E800E0A3E0FFA3E0FE04F074372EF582E43477
:1052F80099F583EFF07B017A997937909936E0FD3B
:10530800125F4C227E007F207D007B017A997933E1
:10531800122AB6E4909953F0A3F0909953E0FEA3B3
:10532800E0C3EE94015038909953E0A3E0C4F854D8
:105338000FC868FFEEC454F048FEE42FFFEE3410A7
:10534800FE7B017A997933909B35E4F0A37420F0C1
:1053580012383A909953E475F00112266B80BB908D
:105368009B3312285300000000909B377410F0A361
:10537800E4F0FD7C107FA5125A0BE490A05DF0A329
:10538800F07B017AA0795D909B35F0A37402F07FE1
:10539800007E0312383A7B017AA0795D909B35E450
:1053A800F0A37402F0FF7E0312383A90993774071D
:1053B800F0A374FEF07B017A997937909B35E4F07D
:1053C800A37402F07F087E5012383A7B017A9979EB
:1053D80037909B35E4F0A37402F07F097E501238B1
:1053E8003A9099377402F0A3748AF07B017A99791C
:1053F80037909B35E4F0A37402F07F117E50123889
:105408003A22909F10E0FEA3E07803C333CE33CE58
:10541800D8F92400FFEE3420FEE4FCFD909B331203
:105428002847909B37E4F0A37408F07D007C307F18
:10543800A5125A0B909F10E475F00112266B909FED
:1054480010E0FEA3E0C3EE94024007E4909F10F042
:10545800A3F0909F14E0FEA3E0C3EE9402402890CE
:105468009F147402F0A3E4F0909F1275F0011226C5
:105478006B909F12E0FEA3E0C3EE94024013E49009
:105488009F12F0A3F0800A909F14E475F001122691
:105498006B909F0E745AF0A374A5F07B017A9F79E4
:1054A8000E909B35E4F0A37408F07F007E3012382C
:1054B8003A909F10E0FEA3E07803C333CE33CED8F2
:1054C800F92400FFEE3420FEE4FCFD909B33122803
:1054D80047909B37E4F0A37404F07D007C307FA5EF
:1054E800125A0B227B017A997932909B35E4F0A30A
:1054F8007404F07F087E501235CD909934E0FEA3F5
:10550800E0FF909932E0FCA3E06F7002EC6E70034C
:105518000255C97B017A997934909B35E4F0A374DC
:1055280002F07F097E5012383A909932E0FEA3E0EB
:10553800FF90A05DE0FCA3E02FFFEC3E909936F0D1
:10554800A3EFF0909936E0FEA3E0C394FEEE940733
:10555800400B90993674F875F00212266B7B017A2D
:10556800997936909B35E4F0A37402F07F007E03AE
:1055780012383A7B017A997936909B35E4F0A37416
:1055880002F0FF7E0312383A909932E0FEA3E078E9
:1055980002CEC313CE13D8F9FF909932EEF0A3EFE1
:1055A800F0909932E475F08F12266B7B017A997925
:1055B80032909B35E4F0A37402F07F117E501238CC
:1055C8003A229099381228B01264937F641261606D
:1055D8007F30126160E4FF12616012650F126493FC
:1055E8007F641261607F1C1261607F48126160E411
:1055F800FF1261607F401261607F10126160126566
:105608000F1264937F641261607F10126160909939
:10561800381228909000061225C5FF1261609099F3
:10562800381228909000051225C5FF1261609099E4
:10563800381228909000041225C5FF1261609099D5
:10564800381228909000031225C5FF1261609099C6
:10565800381228909000021225C5FF1261609099B7
:10566800381228909000011225C5FF1261609099A8
:10567800381228901225ACFF12616012650F12646F
:10568800937F641261607F1E126160E4FF126160A3
:105698007F1012616012650F22909B33122853000D
:1056A800003000909B37E4F0A3740AF07D007C3052
:1056B8007F5A125A0B7B017AA07914909B35E4F03B
:1056C800A37414F07F007E301235CDE490992AF04F
:1056D80090992AE0C3940674809480506EE025E087
:1056E80025E02414F582E434A0F58312282FE4FB86
:1056F800FAF9F8C312280A602290992AE025E025D1
:10570800E02414F582E434A0F58312282F7B3F7A35
:1057180042790F7800C312280A502890992AE02568
:10572800E025E024F4F582E4349FF58312282F90D5
:10573800992AE025E025E02414F582E434A0F583D5
:1057480012284790992AE004F080857B017AA07995
:1057580014909B35E4F0A37414F07FA07EA6123851
:105768003A221264937F641261607F1D1261601295
:10577800650F1264937F6512616012610B90992A1C
:10578800EFF01264AE12610B1264C712650F9099A4
:105798002AE05402640260030258291264937F6469
:1057A8001261607F30126160E4FF12616012650F60
:1057B8001264937F641261607F1C1261607F4812DB
:1057C8006160E4FF1261607F401261607F101261C6
:1057D8006012650F1264937F641261607F1012611A
:1057E80060E4FF126160E4FF126160E4FF1261602F
:1057F8007F011261607F011261607F011261607F29
:105808001712616012650F1264937F641261607FE2
:105818001E126160E4FF1261607F10126160126500
:105828000F227B017A99792C909B35E4F0A37410B0
:10583800F07F207EA61235CD90992CE0A3E025E0DC
:1058480025E02418F582E434A0F58312282F9099D6
:105858003012283BC312280A60087F077E001261B5
:10586800FE2290993812282F90993412283BC3129F
:10587800280A60087F087E001261FE22909934127F
:10588800282F90992CE0A3E025E025E02418F58244
:10589800E434A0F5831228471263ACE4909940F0F1
:1058A800909940E0C3940A748094805018E025E0F1
:1058B800242CF582E43499F583E4F0A3F090994020
:1058C800E004F080DB7B017A99792C909B35E4F039
:1058D800A3740CF07F227EA612383A2275940175C3
:1058E8009502758E0075930075C87075C96075F856
:1058F80000787FE4F6D8FD758110025940020086D1
:10590800E493A3F8E493A34003F68001F208DFF4DC
:105918008029E493A3F85407240CC8C333C4540F54
:105928004420C8834004F456800146F6DFE4800B27
:105938000102040810204080900100E47E01936079
:10594800BCA3FF543F30E509541FFEE493A3600154
:105958000ECF54C025E060A840B8E493A3FAE493BE
:10596800A3F8E493A3C8C582C8CAC583CAF0A3C86C
:10597800C582C8CAC583CADFE9DEE780BEC0E0C009
:10598800F0C083C082C0D075D000C000C004C0067B
:10599800C007909B3CE4F0C2AFE59B30E03DE59C3E
:1059A800F0E0FF909DC1E0FCA3E024C7F582749D60
:1059B8003CF583EFF0909DC1E475F00112266B531E
:1059C8009BFE539BFE909DC1E0FEA3E0C39480EE36
:1059D80094004007909DC1E4F0A3F0E59B30E10BF3
:1059E800539BFD539BFD909DC0E4F043C901D2AF8A
:1059F800D007D006D004D000D0D0D082D083D0F049
:105A0800D0E032909B30EFF0A3ECF0A3EDF0E4F59A
:105A1800F1F5F275F30475F40175F88F30FCFD901B
:105A28009B30E0F5FA909B3312282F781012281B30
:105A38008FFB909B3312282F780812281B8FFC901D
:105A48009B3312282FEF54FEFFE48FFDD2FE20FE79
:105A5800FD909B31E0FEA3E0EEF5FA909B31E0A3C8
:105A6800E054FEF5FB909B37E0FEA3E0EEF5FC90DA
:105A78009B37E0A3E054FEF5FDD2FE20FEFDE4F5E1
:105A8800F87F04FE12605A22909930EEF0A3EFF0EE
:105A9800909930E0FEA3E04E700412634022909982
:105AA80030E0FEA3E064014E70041260B3229099C6
:105AB80030E0FEA3E064024E700412530C22909969
:105AC80030E0FEA3E064034E703FA3F0909932E00B
