:100000000266B9020006C2AFD2AF320256D3C2AF07
:10001000D2AF3202000E90A21FE0FEA3E0FF126EEC
:0A002000D02222026B6112714D2202
:10002B000272C4909F4312301800003000909F471B
:10003B00E4F0A3740AF07D007C307F5A12675A7B80
:10004B00017AA279D1909F45E4F0A37414F07F005C
:10005B007E30124159E4909D3AF0909D3AE0C39462
:10006B000674809480506EE025E025E024D1F58263
:10007B00E434A2F583122FF4E4FBFAF9F8C3122F40
:10008B00CF6022909D3AE025E025E024D1F582E473
:10009B0034A2F583122FF47B3F7A42790F7800C399
:1000AB00122FCF5028909D3AE025E025E024B1F5A2
:1000BB0082E434A2F583122FF4909D3AE025E025DB
:1000CB00E024D1F582E434A2F58312300C909D3AF2
:1000DB00E004F080857B017AA279D1909F45E4F012
:0C00EB00A37414F07FA07EA61243C6226E
:1000F800FFFF4457494E543542A32B000041A32625
:100108000041A3270041A3280042A329000042A3DD
:100118002F000042A32D00005AA14C3FC9006900DE
:1001280064000086000A2D2D203A3A0000000000E5
:1001380000000000005AA1663FCC012700640000BF
:1001480086000A2D2D2F3A3A00000000000000001A
:1001580000005AA2023FD001E50064000001E5005A
:100168006402AD007D00100017181802000000603E
:100178003CA1C6400040A04140401040B041504022
:100188002040C04160403040D04170404040E04194
:1001980080405040F041904060410041A040704193
:1001A8001041B04080412041C04090413041D0547E
:1001B800A1B241E041F84210422842404258427000
:1001C800428842A042B848A1A300000000000000F5
:1001D8000042A1AB000042A1B0000042A1AD000066
:1001E80041A1AF0041A1920042A1800005498ED1F2
:1001F800B2E2CAD4BABAD7D6006E608EDA494430B1
:1002080030BBD8B7E7B8DFCEC2000000000000005E
:100218000000000000000000000000000049443019
:1002280031BBD8B7E7B5CDCEC20000000000000052
:1002380000000000000000000000000000494430F9
:1002480032BBD8B7E7B8DFCAAA0000000000000038
:1002580000000000000000000000000000494430D9
:1002680033BBD8B7E7B5CDCAAA000000000000002C
:1002780000000000000000000000000000494430B9
:1002880034CBCDB7E7B8DFCEC200000000000000D5
:100298000000000000000000000000000049443099
:1002A80035CBCDB7E7B5CDCEC200000000000000C9
:1002B8000000000000000000000000000049443079
:1002C80036CBCDB7E7B8DFCAAA00000000000000AF
:1002D8000000000000000000000000000049443059
:1002E80037CBCDB7E7B5CDCAAA00000000000000A3
:1002F8000000000000000000000000000049443039
:1003080038B1A3C1F40000000000000000000000A4
:100318000000000000000000000000000049443018
:1003280039C4DAB2BFCDA8D0C50000000000000073
:1003380000000000000000000000000000494431F7
:10034800304E5443D2ECB3A300000000000000007C
:1003580000000000000000000000000000494431D7
:1003680031B7E7BBFA31B9CAD5CF000000000000A9
:1003780000000000000000000000000000494431B7
:1003880032B7E7BBFA32B9CAD5CF00000000000087
:100398000000000000000000000000000049443197
:1003A80033B7E7BBFA33B9CAD5CF00000000000065
:1003B8000000000000000000000000000049443177
:1003C80034B7E7BBFA34B9CAD5CF00000000000043
:1003D8000000000000000000000000000049443157
:1003E80035B7E7BBFA35B9CAD5CF00000000000021
:1003F8000000000000000000000000000049443137
:1004080036CDE2B7E7BBFAB9CAD5CF000000000085
:100418000000000000000000000000000049443116
:1004280037B7E7BBFA31D4CBD0D0B3ACCAB10000F0
:1004380000000000000000000000000000494431F6
:1004480038B7E7BBFA32D4CBD0D0B3ACCAB10000CE
:1004580000000000000000000000000000494431D6
:1004680039B7E7BBFA33D4CBD0D0B3ACCAB10000AC
:1004780000000000000000000000000000494432B5
:1004880030B7E7BBFA34D4CBD0D0B3ACCAB1000094
:100498000000000000000000000000000049443295
:1004A80031B7E7BBFA35D4CBD0D0B3ACCAB1000072
:1004B8000000000000000000000000000049443275
:1004C80032CDE2B7E7BBFAD4CBD0D0B3ACCAB100D7
:1004D8000000000000000000000000000049443255
:1004E80033B8DFD1B931B8E6BEAF00000000000074
:1004F8000000000000000000000000000049443235
:1005080034B8DFD1B931CBF8CBC00000000000000F
:100518000000000000000000000000000049443214
:1005280035B5CDD1B931B8E6BEAF00000000000046
:1005380000000000000000000000000000494432F4
:1005480036B5CDD1B931CBF8CBC0000000000000E2
:1005580000000000000000000000000000494432D4
:1005680037C5C5C6F8CEC2B6C831B8E6BEAF0000BA
:1005780000000000000000000000000000494432B4
:1005880038C5C5C6F8CEC2B6C831CBF8CBC0000056
:100598000000000000000000000000000049443294
:1005A80039B6CCD6DCC6DA31B8E6BEAF00000000FA
:1005B8000000000000000000000000000049443373
:1005C80030D1B9BBFA31D4CBD0D0B3ACCAB100006A
:1005D8000000000000000000000000000049443353
:1005E80031B8DFD1B932B8E6BEAF00000000000074
:1005F8000000000000000000000000000049443333
:1006080032B8DFD1B932CBF8CBC00000000000000F
:100618000000000000000000000000000049443312
:1006280033B5CDD1B9D1B9C1A6B8E6BEAF00000087
:1006380000000000000000000000000000494433F2
:1006480034B5CDD1B932CBF8CBC0000000000000E2
:1006580000000000000000000000000000494433D2
:1006680035C5C5C6F8CEC2B6C832B8E6BEAF0000BA
:1006780000000000000000000000000000494433B2
:1006880036C5C5C6F8CEC2B6C832CBF8CBC0000056
:100698000000000000000000000000000049443392
:1006A80037B6CCD6DCC6DA32B8E6BEAF00000000FA
:1006B8000000000000000000000000000049443372
:1006C80038D1B9BBFA32D4CBD0D0B3ACCAB1000060
:1006D8000000000000000000000000000049443352
:1006E80039BCD3CAAAC6F7B5E7C1F7B9FDB4F30058
:1006F8000000000000000000000000000049443431
:1007080030BCD3CAAAC6F7B8DFCBAECEBB00000058
:100718000000000000000000000000000049443410
:1007280031BCD3CAAAC6F7C8B1CBAE0000000000DE
:1007380000000000000000000000000000494434F0
:1007480032BCD3CAAAC6F7D4CBD0D0B3ACCAB10096
:1007580000000000000000000000000000494434D0
:1007680033BCD3C8C8C6F7B8E6BEAF000000000067
:1007780000000000000000000000000000494434B0
:1007880034BCD3C8C8C6F731B3ACCAB10000000046
:100798000000000000000000000000000049443490
:1007A80035BCD3C8C8C6F732B3ACCAB10000000024
:1007B8000000000000000000000000000049443470
:1007C80036B6CFB5E7D6D8C6F40000000000000062
:1007D8000000000000000000000000000049443450
:1007E80037B5E7D4B4CFE0D0F2B4EDCEF3000000D3
:1007F8000000000000000000000000000049443430
:1008080038B5E7D4B4C6B5C2CAC6ABB8DF00000075
:10081800000000000000000000000000004944340F
:1008280039B5E7D4B4C6B5C2CAC6ABB5CD00000069
:1008380000000000000000000000000000494435EE
:100848003041CFE0B9FDD1B9000000000000000040
:1008580000000000000000000000000000494435CE
:100868003142CFE0B9FDD1B900000000000000001E
:1008780000000000000000000000000000494435AE
:100888003243CFE0B9FDD1B92000000000000000DC
:10089800000000000000000000000000004944358E
:1008A8003341CFE0C7B7D1B9000000000000000015
:1008B800000000000000000000000000004944356E
:1008C8003442CFE0C7B7D1B90000000000000000F3
:1008D800000000000000000000000000004944354E
:1008E8003543CFE0C7B7D1B90000000000000000D1
:1008F800000000000000000000000000004944352E
:100908003641CFE0C8B1CFE0000000000000000091
:10091800000000000000000000000000004944350D
:100928003742CFE0C8B1CFE000000000000000006F
:1009380000000000000000000000000000494435ED
:100948003843CFE0C8B1CFE000000000000000004D
:1009580000000000000000000000000000494435CD
:1009680039C6F8C1F7B6AACAA7B8E6BEAF000000F4
:1009780000000000000000000000000000494436AC
:1009880030B9FDC2CBCDF8D4CBD0D0B3ACCAB1000E
:10099800000000000000000000000000004944368C
:1009A80031B9FDC2CBCDF8B6C2B8E6BEAF00000083
:1009B800000000000000000000000000004944366C
:1009C80032D4B6B3CCB9D8BBFAB8E6BEAF00000093
:1009D800000000000000000000000000004944364C
:1009E80033D2E7CBAEB8E6BEAF000000000000008F
:1009F800000000000000000000000000004944362C
:100A080034C8BABFD8CDA8D0C5D2ECB3A300000073
:100A1800000000000000000000000000004944360B
:100A280035B1E4C6B5C6F7B9CAD5CF000000000095
:100A380000000000000000000000000000494436EB
:100A480036D7A2CBAEB5E7B5BCC2CAB8DF00000046
:100A580000000000000000000000000000494436CB
:100A680037D7A2CBAEB5E7B5BCC2CAB5CD0000003A
:100A780000000000000000000000000000494436AB
:100A880038D1CCCEEDB8E6BEAF00000000000000C3
:100A9800000000000000000000000000004944368B
:100AA80039D3C3BBA7D7D4B6A8D2E5B8E6BEAF0042
:100AB800000000000000000000000000004944376A
:100AC80030B5E7D4B4D2ECB3A300000000000000B6
:100AD800000000000000000000000000004944374A
:100AE80031C8EBCBAEB8DFCEC2000000000000007A
:100AF800000000000000000000000000004944372A
:100B080032CBAEB7A7B9CAD5CF00000000000000AD
:100B18000000000000000000000000000049443709
:100B280033C5CCB9DCB6CFC1F7B8E6BEAF0000001C
:100B380000000000000000000000000000494437E9
:100B480034B7E7BBFA36B9CAD5CF000000000000B9
:100B580000000000000000000000000000494437C9
:100B680035B7E7BBFA37B9CAD5CF00000000000097
:100B780000000000000000000000000000494437A9
:100B880036B7E7BBFA38B9CAD5CF00000000000075
:100B98000000000000000000000000000049443789
:100BA80037B7E7BBFA36B3ACCAB1000000000000A3
:100BB8000000000000000000000000000049443769
:100BC80038B7E7BBFA37B3ACCAB100000000000081
:100BD8000000000000000000000000000049443749
:100BE80039B7E7BBFA38B3ACCAB10000000000005F
:100BF8000000000000000000000000000049443828
:100C080030C5C5CBAEB8DFCBAECEBB000000000010
:100C18000000000000000000000000000049443807
:100C280031BCD3CAAAC6F7D2ECB3A30000000000B7
:100C380000000000000000000000000000494438E7
:100C480032B7E7D1B9B9FDB5CD000000000000000A
:100C580000000000000000000000000000494438C7
:100C680033BAECCDE2BCD3CAAAB9FDC8C8000000AB
:100C780000000000000000000000000000494438A7
:100C880034D1B9BBFA31B8DFD1B900000000000097
:100C98000000000000000000000000000049443887
:100CA80035B7E7BBFAB5E7C1F7B9FDB4F300000003
:100CB8000000000000000000000000000049443867
:100CC80036B8A8C2B7C8EBCBAEB8DFCEC2000000BA
:100CD8000000000000000000000000000049443847
:100CE80037454556B8E6BEAF0000000000000000DA
:100CF8000000000000000000000000000049443827
:100D080038BDD3CBAEC5CCD2E7CBAE0000000000D7
:100D18000000000000000000000000000049443806
:100D280039C5C5C6F8B8DFCEC20000000000000013
:100D380000000000000000000000000000494439E5
:100D480030C9E8B1B8CAB9D3C3B3ACCAB10000005E
:100D580000000000000000000000000000494439C5
:100D680031B1A3C1F4000000000000000000000041
:100D780000000000000000000000000000494439A5
:100D880032B1A3C1F4000000000000000000000020
:100D98000000000000000000000000000049443985
:100DA80033B1A3C1F40000000000000000000000FF
:100DB8000000000000000000000000000049443965
:100DC80034B1A3C1F40000000000000000000000DE
:100DD8000000000000000000000000000049443945
:100DE80035B1A3C1F40000000000000000000000BD
:100DF8000000000000000000000000000049443925
:100E080036B1A3C1F400000000000000000000009B
:100E18000000000000000000000000000049443904
:100E280037BBD8B7E7CEC2CAAAB6C8B4ABB8D0C623
:100E3800F7000000000000000000000000494439ED
:100E480038CBCDB7E7CEC2CAAAB6C8B4ABB8D0C6FD
:100E5800F7000000000000000000000000494439CD
:100E680039BCD3CAAAB0E5D2ECB3A3000000000095
:100E780000000000000000000000000000494431AC
:100E88003030C6C1C4BBD2D1CBF8B6A80000000030
:100E9800000000000000000000000000004944318C
:100EA8003031D2BBCCECBDABCBF8B6A8000000000B
:100EB800000000000000000000000000004944316C
:100EC8003032C8FDCCECBDABCBF8B6A800000000B2
:100ED800000000000000000000000000004944314C
:100EE8003033C6DFCCECBDABCBF8B6A800000000B1
:100EF800000000000000000000000000004944312C
:100F08003034CAAECEE5CCECBDABCBF8B6A8000009
:100F1800000000000000000000000000004944310B
:100F28003035C8FDCAAECCECBDABCBF8B6A80000D6
:100F380000000000000000000000000000494431EB
:100F48003036B5E7D4B432CFE0D0F2B4ED000000CB
:100F580000000000000000000000000000494431CB
:100F68003037B5E7D4B432C6B5C2CAB8DF0000001E
:100F780000000000000000000000000000494431AB
:100F88003038B5E7D4B432C6B5C2CAB5CD00000012
:100F9800000000000000000000000000004944318B
:100FA8003039B5E7D4B43241CFE0B9FDD1B900004A
:100FB800000000000000000000000000004944316B
:100FC8003130B5E7D4B43242CFE0B9FDD1B9000031
:100FD800000000000000000000000000004944314B
:100FE8003131B5E7D4B43243CFE0B9FDD1B900000F
:100FF800000000000000000000000000004944312B
:101008003132B5E7D4B43241CFE0C7B7D1B9000027
:10101800000000000000000000000000004944310A
:101028003133B5E7D4B43242CFE0C7B7D1B9000005
:1010380000000000000000000000000000494431EA
:101048003134B5E7D4B43243CFE0C7B7D1B90000E3
:101058000000000000000000000000000041A33173
:101068000047A2FD0000000000000048A30C00009B
:1010780000000000000048A3040000000000000079
:1010880000C10042A2FB000052A2E90000000000DB
:101098000000000000000000000000000042A3164D
:1010A800000042A318000042A314000044A3220039
:1010B80000000042A31A000044A31C000000000224
:1010C800080000040B00000000040F0000000042AC
:1010D800A3200000010A0061009F4C00C18140016B
:1010E800C0804101C0804100C1814001C0804100F1
:1010F800C1814000C1814001C0804101C0804100E0
:10110800C1814000C1814001C0804100C1814001CE
:10111800C0804101C0804100C1814001C0804100C0
:10112800C1814000C1814001C0804100C1814001AE
:10113800C0804101C0804100C1814000C18140019F
:10114800C0804101C0804100C1814001C080410090
:10115800C1814000C1814001C0804101C08041007F
:10116800C1814000C1814001C0804100C18140016E
:10117800C0804101C0804100C1814000C18140015F
:10118800C0804101C0804100C1814001C080410050
:10119800C1814000C1814001C0804100C18140013E
:1011A800C0804101C0804100C1814001C080410030
:1011B800C1814000C1814001C0804101C08041001F
:1011C800C1814000C1814001C0804100C18140010E
:1011D800C0804101C0804100C181406100A04C0035
:1011E800C0C101C30302C2C60607C705C5C404CCF3
:1011F8000C0DCD0FCFCE0E0ACACB0BC90908C8D823
:101208001819D91BDBDA1A1EDEDF1FDD1D1CDC14E2
:10121800D4D515D71716D6D21213D311D1D010F0B2
:101228003031F133F3F23236F6F737F53534F43C32
:10123800FCFD3DFF3F3EFEFA3A3BFB39F9F8382802
:10124800E8E929EB2B2AEAEE2E2FEF2DEDEC2CE422
:101258002425E527E7E62622E2E323E12120E0A092
:101268006061A163A3A26266A6A767A56564A46C72
:10127800ACAD6DAF6F6EAEAA6A6BAB69A9A86878A2
:10128800B8B979BB7B7ABABE7E7FBF7DBDBC7CB462
:101298007475B577B7B67672B2B373B17170B05072
:1012A8009091519353529296565797559594549CB2
:1012B8005C5D9D5F9F9E5E5A9A9B5B995958988882
:1012C8004849894B8B8A4A4E8E8F4F8D4D4C8C44A2
:1012D80084854587474686824243834181804041D1
:1012E8008E4C0041837700448ECD0000000041837E
:1012F8007200448373000000006AC683865A021095
:1013080003C80250155016000000FF5A020303C814
:10131800000000A020031C00FF5A020301C80100BE
:1013280039A023031900FF5A020601C803A084A0AC
:1013380024010000395A020301C8010039A025011F
:101348000400FF5A020601C802A087A02701040072
:10135800FF5A020303C8010039A0A0011A00FF5A6E
:10136800020302C8000000A0A3031000FF5A0203F2
:1013780002C801000AAA00032600FF5A020308C88F
:1013880001000AAA02034100FF5A020301C8010032
:101398000AAA0A036F00FF5A020301C801000AAA39
:1013A8000B037700FF5A02031FC801000BAB200391
:1013B8008C00FF5A020601C803AC80AC20023A0038
:1013C8000C5A020306C800000DAEA0032000FF5A05
:1013D800020307C803B300B320011A00135A020618
:1013E80001C803B380B320011A00135A020601C8CA
:1013F80003B382B322011C00135A020601C803B3C7
:1014080083B323011D00135A020601C803B384B332
:1014180024011E00135A020601C803B385B325012F
:101428001F00135A020601C803B386B32601200021
:10143800135A02030BC803B400B420015800145A0D
:10144800020301C803B400B42B013B00145A020381
:1014580001C803B400B42C019E00145A020601C846
:1014680003B480B420015800145A020601C803B41A
:1014780081B421015900145A020601C803B483B487
:1014880023015B00145A020601C803B484B4240182
:101498005C00145A020601C803B485B425015D0036
:1014A800145A020601C803B486B426015E00145A11
:1014B800020601C803B487B427015F00145A020664
:1014C80001C803B488B428016000145A020601C890
:1014D80003B48AB42A016200145A020601C803B48C
:1014E8008BB42B013B00145A020601C803B48CB418
:1014F8002C019E00145A020306C803B700B7200146
:101508003B00175A020305C803B700B7260143007A
:10151800175A020601C803B780B720013B00175AC3
:10152800020601C803B784B724013F00175A020610
:1015380001C803B785B725014000175A020601C83C
:1015480003B786B726014300175A020601C803B736
:1015580087B727014400175A020601C803B788B79E
:1015680028014500175A020601C803B789B729019F
:101578004600175A020601C803B78AB72A0147006E
:10158800175A020301C803B800B820016A00185AA4
:10159800020303C803B800B821016D00185A0203FA
:1015A80001C803B800B824017200185A020301C820
:1015B80003B800B825017400185A020301C803B81B
:1015C80000B826017B00185A020301C803B800B806
:1015D80027022A00185A020601C803B880B8200159
:1015E8006A00185A020601C803B881B821016D00C3
:1015F800185A020601C803B882B822016E00185AA8
:10160800020601C803B883B823016F00185A0206FE
:1016180001C803B884B824017200185A020601C828
:1016280003B885B825017400185A020601C803B822
:1016380086B826017B00185A020601C803B887B885
:1016480027022A00185A020301C803BB00BB200165
:10165800B0001B5A020302C803BB00BB2101B20041
:101668001B5A020302C803BB00BB2301B5001B5A67
:10167800020302C803BB00BB2501B8001B5A0203C2
:1016880001C803BB00BB2701BB001B5A020302C8E9
:1016980003BB00BB2801D1001B5A020302C803BBCD
:1016A80000BB2A01FB001B5A020302C803BB00BB94
:1016B8002C0276001B5A020601C803BB80BB20011E
:1016C800B0001B5A020601C803BB81BB2101B2004E
:1016D8001B5A020601C803BB82BB2201B3001B5A76
:1016E800020601C803BB83BB2301B5001B5A0206CF
:1016F80001C803BB84BB2401B6001B5A020601C8FB
:1017080003BB85BB2501B8001B5A020601C803BBF1
:1017180086BB2601B9001B5A020601C803BB87BB5A
:101728002701BB001B5A020601C803BB88BB28015E
:10173800D1001B5A020601C803BB89BB2901D2008C
:101748001B5A020601C803BB8ABB2A01FB001B5AAD
:10175800020601C803BB8BBB2B01FC001B5A020607
:1017680001C803BB8CBB2C0276001B5A020601C8B9
:1017780003BB8DBB2D0277001B5A020302C803BCB2
:1017880000BC200232001C5A020301C803BC00BC82
:10179800220252001C5A020301C803BC00BC2302E7
:1017A80055001C5A020301C803BC00BC240258009F
:1017B8001C5A020301C803BC00BC250261001C5A64
:1017C800020302C803BC00BC260271001C5A0203B3
:1017D80001C803BC00BC280286001C5A020601C8C6
:1017E80003BC80BC200232001C5A020601C803BC9C
:1017F80081BC210233001C5A020601C803BC82BC0A
:10180800220252001C5A020601C803BC83BC2302F0
:1018180055001C5A020601C803BC84BC24025800A7
:101828001C5A020601C803BC85BC250261001C5A6B
:10183800020601C803BC86BC260271001C5A0206B7
:1018480001C803BC87BC270272001C5A020601C8E3
:1018580003BC88BC280286001C5A020302C803BFC6
:1018680000BF200102001F5A020301C803BF00BFC6
:10187800220107001F5A020301C803BF00BF23014A
:10188800A5001F5A020601C803BF80BF200102003D
:101898001F5A020601C803BF81BF210103001F5A56
:1018A800020601C803BF82BF220107001F5A0206B1
:1018B80001C803BF83BF2301A5001F5A020308C83C
:1018C80003C200C220018200225A020301C803C2D7
:1018D80000C228018C00225A020601C803C280C235
:1018E80020018200225A020601C803C281C22101D6
:1018F8008300225A020601C803C282C22201840060
:10190800225A020601C803C284C224018600225A50
:10191800020601C803C285C225018700225A0206B1
:1019280001C803C286C226018800225A020601C8DD
:1019380003C287C227018900225A020601C803C2CE
:1019480088C228018C00225A020601C803C580C536
:1019580020023B000F5A020301C803C700C7200139
:10196800A600275A020301C803C700C72101A9001E
:10197800275A020601C803C780C72001A600275AB4
:10198800020601C803C781C72101A900275A020618
:1019980001C803C782C72201A800275A020301C849
:1019A800010027C723037500FF5A020301C801007D
:1019B80027C724037700FF5A020301C803C800C8D9
:1019C80020012700285A020301C803C800C82101C2
:1019D8002900285A020304C803C800C822012D00A0
:1019E800285A020601C803C880C820012700285ABF
:1019F800020601C803C881C821012900285A020625
:101A080001C803C882C822012D00285A020601C84D
:101A180003C883C823012E00285A020601C803C838
:101A280084C824012F00285A020601C803C885C8A3
:101A380025013000285A02030EC8010029C9B00345
:101A48007800FF5A020601C803C990C930023C0059
:101A5800295A020302C803CC00CCA00302002C5A66
:101A6800020301C803CF00CF200108002F5A020348
:101A780002C803CF00CF21010A002F5A020304C86D
:101A880003CF00CF23010D002F5A020301C803CF53
:101A980000CF270141002F5A020301C803CF00CF0E
:101AA80028015A002F5A020301C803CF00CF290189
:101AB800A7002F5A020601C803CF81CF21010A00CF
:101AC8002F5A020601C803CF83CF23010D002F5AD6
:101AD800020601C803CF84CF24010E002F5A020644
:101AE80001C803CF85CF25010F002F5A020601C870
:101AF80003CF86CF260110002F5A020601C803CF54
:101B080087CF270141002F5A020601C803CF88CF8B
:101B180028015A002F5A020601C803CF89CF29018C
:101B2800A7002F5A020601C803CF8ACF2A023B001A
:101B38002F5A02030AC8010034D420039C00FF5A1C
:101B4800020302C8010034D42A03A800FF5A020382
:101B580007C803D500D520011A00355A020601C866
:101B680003D580D520011A00355A020601C803D5CD
:101B780082D522011C00355A020601C803D583D537
:101B880023011D00355A020601C803D584D5240156
:101B98001E00355A020601C803D585D525011F0048
:101BA800355A020601C803D586D526012000355AC4
:101BB800020301C803D600D620010800365A0203E2
:101BC80001C803D600D622010B00365A020601C806
:101BD80003D680D620010800365A020601C803D66B
:101BE80082D622010B00365A020601C803D68BD6CC
:101BF8002B023B00365A020301C803D800D8200143
:101C0800F500385A020301C803D800D8210207009A
:101C1800385A020601C803D880D82001F500385A7E
:101C2800020601C803D881D821020700385A0203E6
:101C380001C801003ADA2003CD00FF5A020301C8A7
:101C480001003ADA2103CF00FF5A020302C801005B
:101C58003ADA2203D100FF5A020301C801003ADA36
:101C68002403D500FF5A020301C801003ADA25030C
:101C7800D700FF5A020301C801003ADA2603D90047
:101C8800FF5A020301C801003ADA2703DB00FF5AB2
:101C9800020301C801003ADA2803DD00FF5A0203F3
:101CA80001C803DB00DB20019B003B5A020301C88B
:101CB80003DB00DB2102D3003B5A020302C803DB2B
:101CC80000DB2202D5003B5A020302C803DB00DB1B
:101CD8002402D8003B5A020305C803DB00DB2602B6
:101CE800DB003B5A020601C803DB80DB20019B00B6
:101CF8003B5A020601C803DB81DB2102D3003B5AB1
:101D0800020601C803DB82DB2202D5003B5A020629
:101D180001C803DB83DB2302D6003B5A020601C855
:101D280003DB84DB2402D8003B5A020601C803DB2C
:101D380085DB2502D9003B5A020601C803DB86DB96
:101D48002602DB003B5A020601C803DB87DB2702B9
:101D5800DC003B5A020601C803DB88DB2802DD00F1
:101D68003B5A020601C803DB89DB2902DE003B5A25
:101D7800020601C803DB8ADB2A02DF003B5A0203A2
:101D880001C803DD00DD20019B003D5A020302C8A3
:101D980003DD00DD2101E9003D5A020601C803DD2B
:101DA80080DD20019B003D5A020601C803DD81DD6C
:101DB8002101E9003D5A020601C803DD82DD220146
:101DC800EA003D4E8378000000000000000000009B
:101DD8000000000041800100637080025A13B320A4
:101DE800B350B3805A13B322B352B3825A13B323F6
:101DF800B353B3835A13B324B354B3845A13B325D8
:101E0800B355B3855A13B326B356B3865A14B420C0
:101E1800B450B4805A14B421B451B4815A14B423C0
:101E2800B453B4835A14B424B454B4845A14B4259F
:101E3800B455B4855A14B426B456B4865A14B42783
:101E4800B457B4875A14B428B458B4885A14B42A66
:101E5800B45AB48A5A14B42BB45BB48B5A14B42C45
:101E6800B45CB48C5A17B720B750B7805A17B72448
:101E7800B754B7845A17B725B755B7855A17B72631
:101E8800B756B7865A17B727B757B7875A17B72815
:101E9800B758B7885A17B729B759B7895A17B72AF9
:101EA800B75AB78A5A18B820B850B8805A18B82103
:101EB800B851B8815A18B822B852B8825A18B823FB
:101EC800B853B8835A18B824B854B8845A18B825DF
:101ED800B855B8855A18B826B856B8865A18B827C3
:101EE800B857B8875A1BBB20BB50BB805A1BBB21B5
:101EF800BB51BB815A1BBB22BB52BB825A1BBB23A3
:101F0800BB53BB835A1BBB24BB54BB845A1BBB2586
:101F1800BB55BB855A1BBB26BB56BB865A1BBB276A
:101F2800BB57BB875A1BBB28BB58BB885A1BBB294E
:101F3800BB59BB895A1BBB2ABB5ABB8A5A1BBB2B32
:101F4800BB5BBB8B5A1BBB2CBB5CBB8C5A1BBB2D16
:101F5800BB5DBB8D5A1CBC20BC50BC805A1CBC212C
:101F6800BC51BC815A1CBC22BC52BC825A1CBC232A
:101F7800BC53BC835A1CBC24BC54BC845A1CBC250E
:101F8800BC55BC855A1CBC26BC56BC865A1CBC27F2
:101F9800BC57BC875A1CBC28BC58BC885A1FBF20D9
:101FA800BF50BF805A1FBF21BF51BF815A1FBF22D8
:101FB800BF52BF825A1FBF23BF53BF835A22C220BA
:101FC800C250C2805A22C221C251C2815A22C222A0
:101FD800C252C2825A22C224C254C2845A22C22580
:101FE800C255C2855A22C226C256C2865A22C22762
:101FF800C257C2875A22C228C258C2885A27C72045
:10200800C750C7805A27C721C751C7815A28C82037
:10201800C850C8805A28C821C851C8815A28C8221F
:10202800C852C8825A28C823C853C8835A28C82403
:10203800C854C8845A28C825C855C8855A2FCF20DF
:10204800CF50CF805A2FCF21CF51CF815A2FCF22B7
:10205800CF52CF825A2FCF23CF53CF835A2FCF249B
:10206800CF54CF845A2FCF25CF55CF855A2FCF267F
:10207800CF56CF865A2FCF27CF57CF875A2FCF2863
:10208800CF58CF885A2FCF29CF59CF895A35D52045
:10209800D550D5805A35D522D552D5825A35D52333
:1020A800D553D5835A35D524D554D5845A35D52515
:1020B800D555D5855A35D526D556D5865A36D620FE
:1020C800D650D6805A36D622D652D6825A38D820FA
:1020D800D850D8805A38D821D851D8815A3BDB20DB
:1020E800DB50DB805A3BDB21DB51DB815A3BDB22B7
:1020F800DB52DB825A3BDB23DB53DB835A3BDB249B
:10210800DB54DB845A3BDB25DB55DB855A3BDB267E
:10211800DB56DB865A3BDB27DB57DB875A3BDB2862
:10212800DB58DB885A3BDB29DB59DB895A3BDB2A46
:10213800DB5ADB8A5A3DDD20DD50DD805A3DDD214A
:10214800DD51DD815A3DDD22DD52DD824180000016
:1021580058A2D100000000000000000000000000AC
:10216800000000000000000000000058A2B10000BC
:102178000000000000010000000200027360000A75
:102188002D080007ED6541A2ADFF608CA22100007B
:102198000100020003000400050006000700080013
:1021A80009000A000B000C000D000E000F011000C2
:1021B8001100120213001400150016001700180071
:1021C80019001A001B021C001D001E001F00200021
:1021D80021002200230024002500260227002800D1
:1021E80029002A002B002C002D002E002F03300080
:1021F8003100320033003400350036003700380033
:1022080039003A003B003C003D003E003F004000E2
:102218004100420043004400450048A2C9000101B2
:10222800030203030542A2AF000042A21F000042BE
:10223800A21C000041A21E0000AF13EF1313543F6D
:10224800540164016003022BF57B017A9D793A9071
:102258009F45F0A3740CF07F217EA0124159909DF8
:102268003CE0FEA3E0FF909D3AE0FCA3E02FFFECEA
:102278003EFE90A192E06F7001EE604C909D3CE0B4
:10228800FEA3E0FF909D3AE0A3E02FFFEC3EFE9016
:10229800A192E0C39FE49E501D909D44E4F0A304E6
:1022A800F0FB7A9D7944909F45E4F0A37402F07F97
:1022B800267EA01243C6909D3CE0A3E0FF909D3A85
:1022C800E0A3E02F90A192F0909D3AE0FEA3E0D326
:1022D8009400EE9400500CA3E0FEA3E09400EE946A
:1022E800004020909D44E0FEA3E04E60167B017AFA
:1022F800A17980909F45E4F0A37402F07FA07E004E
:102308001243C690A32BE0FEA3E0640D4E600302C7
:1023180026B290A32BE0A3E0FF90A1ABE0FCA3E0E2
:102328006F7002EC6E601EE490A1B0F0A3F07B0128
:102338007AA179B0909F45F0A37402F07F017EAE38
:102348001243C680167B017AA179B0909F45E4F0CC
:10235800A37402F07F017EAE1241597B017A9D7908
:102368003A909F45E4F0A37410F07FA07EAE12412E
:1023780059E4909D48F0A3E05407F07B017AA179D5
:1023880082783A7C9D7D017E007F10123257EF7073
:102398002F90A1ADE0FEA3E0FF90A1B0E0FCA3E088
:1023A800B5071DECB5061990A32BE0FEA3E0FF903E
:1023B800A1ABE0FCA3E06F7002EC6E70030229A7EA
:1023C8007B017A9D793A78827CA17D017E007F101D
:1023D800122CC6E490A1AFF0909D6DF0909D6DE039
:1023E800C3940874809480400302265AE4909D6C3C
:1023F800F0909D6CE0C39410748094804003022692
:1024080051A3E0C454F0FF909D6CE02F909D71F0B3
:10241800E075F018A42400FFE5F03435FE7B017A5E
:102428009D793A909F45E4F0A37430F01241597BAE
:10243800017A9D793A909D6E123075909D6CE0FFFF
:102448007E007401A807088005C333CE33CED8F9BF
:10245800FF909D6DE025E02482F582E434A1F583A8
:10246800E0FCA3E0FDEE5CFEEF5D4E70030225A8E4
:10247800909D6E123055122E0D645A7004E5F0646A
:10248800A57003022545909D6E12305574A575F010
:102498005A122E707B017A9D794E909F45E4F0A3E5
:1024A8007408F07F107E001241597B017A9D794EA5
:1024B800783C7C9D7D017E007F03122CC67B017ACF
:1024C8009D7952783F7C9D7D017E007F03122CC64A
:1024D8007E007F087D007B017A9D794212327B90D5
:1024E8009D71E0FF909D48E4F0A3EFF07B017A9D99
:1024F800794AC002C001909D7175F020A424DAF9D0
:10250800748E35F0FA909D85123075909D88E4F0B0
:10251800A37420F0D001D002126A93909D71E075E7
:10252800F018A42400FFE5F03435FE7B017A9D798C
:102538003A909F45E4F0A37430F01243C690A1B0DE
:10254800E0FEA3E0FF7C007D0A122D4490A1AFE0DD
:10255800C39FEC9E4041A3E0FEA3E0FF122D44EF91
:10256800240AFFE43EFE90A1AFE0C39FEC9E5027F3
:10257800909D71E075F018A42400FDE5F03435FC59
:1025880090A1B0E0A3E075F00AA4FF90A1AFE0C36A
:102598009FFF7B0D125D2490A1AFE004F002264856
:1025A800909D6E123055122E0D645A7004E5F06439
:1025B800A560030226487B017A9D794E909F45F0DD
:1025C800A37408F07F107E001241597B017A9D792F
:1025D8004E78427C9D7D017E007F03122CC67B01D4
:1025E8007A9D795278457C9D7D017E007F03122C6F
:1025F800C6909D71E0FF909D48E4F0A3EFF07B0149
:102608007A9D793A909F45E4F0A37410F07F007E9C
:10261800301243C61262A8E4909D3AF0A3F0909D50
:1026280071E075F018A42400FFE5F03435FE7B0155
:102638007A9D793A909F45E4F0A37402F01243C65C
:10264800909D6CE004F00223F9909D6DE004F00287
:1026580023E490A1AFE0909D6CF090A1B0E0FEA3C0
:10266800E0FF7C007D0A122D44EF240AFFE43EFEC1
:10267800909D6CE0C39FEC9E501D90A1B0E0A3E03C
:1026880075F00AA4FF909D6CE0C39FFF125AA790B3
:102698009D6CE004F080C390A1B0E0FEA3E0FF9041
:1026A800A1ADEEF0A3EFF00229A77B017A9D793A5C
:1026B800909F45E4F0A37410F07FA07EAE124159BC
:1026C800E4909D48F0A3E05407F07B017AA1798259
:1026D800783A7C9D7D017E007F10123257EF70039F
:1026E8000229A77B017A9D793A786E7C9D7D017ECF
:1026F800007F10122CC6E4909D6DF0909D6DE0C394
:102708009408748094804003022994E4909D6CF0AE
:10271800909D6CE0C3941074809480400302298BD0
:10272800E0FF7E007401A807088005C333CE33CECE
:10273800D8F9FF909D6DE025E0246EF582E4349D84
:10274800F583E0FCA3E0FDEE5CFCEF5DFD909D6C85
:10275800E0FF7E007401A807088005C333CE33CE9E
:10276800D8F9FF909D6DE025E02482F582E434A13C
:10277800F583E0FAA3E0FBEE5AFEEF5B6D7002EE24
:102788006C7003022982909D6DE0C454F0FF909D07
:102798006CE02F909D81F0E075F018A42400FFE50F
:1027A800F03435FE7B017A9D793A909F45E4F0A399
:1027B8007430F01241597B017A9D793A909D7E12CE
:1027C8003075909D6CE0FF7E007401A807088005B5
:1027D800C333CE33CED8F9FF909D6DE025E0246E4B
:1027E800F582E4349DF583E0FCA3E0FDEE5CFEEFAA
:1027F8005D4E70030228CF909D7E123055122E0D2B
:10280800645A7004E5F064A57003022982909D7EE5
:1028180012305574A575F05A122E707B017A9D7985
:102828004E909F45E4F0A37408F07F107E0012419B
:10283800597B017A9D794E783C7C9D7D017E007F95
:1028480003122CC67B017A9D7952783F7C9D7D01CD
:102858007E007F03122CC67E007F087D007B017AF4
:102868009D794212327B909D81E0FF909D48E4F073
:10287800A3EFF07B017A9D794AC002C001909D8147
:1028880075F020A424DAF9748E35F0FA909D85123B
:102898003075909D88E4F0A37420F0D001D0021226
:1028A8006A93909D81E075F018A42400FFE5F03448
:1028B80035FE7B017A9D793A909F45E4F0A3743008
:1028C800F01243C6022982909D7E123055122E0DB9
:1028D800645A7004E5F064A560030229827B017ADA
:1028E8009D794E909F45F0A37408F07F107E0012EA
:1028F80041597B017A9D794E78427C9D7D017E000D
:102908007F03122CC67B017A9D795278457C9D7D88
:10291800017E007F03122CC6909D81E0FF909D48A8
:10292800E4F0A3EFF07B017A9D793A909F45E4F0BB
:10293800A37410F07F007E301243C61262A8E490A0
:102948009D3AF0A3F0909D81E075F018A42400FF53
:10295800E5F03435FE7B017A9D793A909F45E4F0A5
:10296800A37402F01243C690A1B0E0FEA3E02401D4
:10297800FFE43E90A1ADF0A3EFF0909D6CE004F071
:10298800022718909D6DE004F00227037B017A9DD1
:10299800796E78827CA17D017E007F10122CC69012
:1029A800A32BE0FEA3E0640E4E6003022BE590A388
:1029B8002BE0A3E0FF90A1ABE0FCA3E06F7002EC7A
:1029C8006E601EE490A1B0F0A3F07B017AA179B00B
:1029D800909F45F0A37402F07F017EAE1243C6803B
:1029E800347B017AA179B0909F45E4F0A37402F09A
:1029F8007F017EAE12415990A1ADE0FEA3E0FF90A9
:102A0800A1B0E0FCA3E06F7002EC6E7003022BE54E
:102A18008003022BE590A1B0E0FEA3E0FF90A1ADFA
:102A2800EEF0A3EFF0E4A3F090A1AFE0C3940A7432
:102A38008094804003022BCBA3E0FEA3E0FF7C0040
:102A48007D0A122D4490A1AFE02FFFEC3EFE90A12D
:102A5800A9E0FCA3E0FDC3EF9DEE9C4003022BCB55
:102A680090A1B0E0FEA3E0FF7C007D0A122D449007
:102A7800A1AFE02FFFEC3EFE90A1A5E0FCA3E0D3C0
:102A88009FEC9E403290A1B0E0FEA3E0FF7C0012D4
:102A98002D4490A1AFE02FFFEC3EFEEF2401FFE4B0
:102AA8003EFE90A1A5E0FCA3E0C39FFFEC9E909D95
:102AB8006EF0A3EFF0803A90A1B0E0FEA3E0FF7CB7
:102AC800007D0A122D4490A1AFE02FFFEC3EFEEFEF
:102AD8002401FFE43EFE90A1A5E0FCA3E02400FD54
:102AE800EC3402FCC3ED9FFFEC9E909D6EF0A3EFCB
:102AF800F0909D6EE0FEA3E07803C333CE33CED8CA
:102B0800F92400FFEE3420FEE4FCFD909F431230D0
:102B18000C909F47E4F0A37408F07D007C307F5A46
:102B280012675A7B017A9D793A909F45E4F0A37425
:102B380010F07F007E301241597B017A9D794AC09E
:102B480003C002C001909D48E0FEA3E07805C333AE
:102B5800CE33CED8F924DAF9748E3EFA7B01909DF3
:102B680085123075909D88E4F0A37420F0D001D0D0
:102B780002D003126A9390A1AFE025E024B2F58257
:102B8800E434A1F583E0FEA3E0FF7B017A9D793A66
:102B9800909F45E4F0A37430F01243C690A1AFE0D3
:102BA80025E024B2F582E434A1F583E0FCA3E0FD3E
:102BB80090A1AFE0FF7B0E125D2490A1AFE004F07E
:102BC800022A3090A1AFE0C3940A74809480500D1B
:102BD800E0FF125AA790A1AFE004F080E690A32B83
:102BE800E0FEA3E0FF90A1ABEEF0A3EFF022E7092F
:102BF800F608DFFA8046E709F208DFFA803E8882A5
:102C08008C83E709F0A3DFFA8032E309F608DFFADC
:102C18008078E309F208DFFA807088828C83E30900
:102C2800F0A3DFFA806489828A83E0A3F608DFFADA
:102C3800805889828A83E0A3F208DFFA804C80D228
:102C480080FA80C680D4806980F28033801080A6A4
:102C580080EA809A80A880DA80E280CA80338982FC
:102C68008A83ECFAE493A3C8C582C8CCC583CCF0A8
:102C7800A3C8C582C8CCC583CCDFE9DEE7800D894F
:102C8800828A83E493A3F608DFF9ECFAA9F0EDFB56
:102C98002289828A83ECFAE0A3C8C582C8CCC5839E
:102CA800CCF0A3C8C582C8CCC583CCDFEADEE880F7
:102CB800DB89828A83E493A3F208DFF980CC88F069
:102CC800EF60010E4E60C388F0ED2402B40400509A
:102CD800B9F582EB2402B4040050AF2323458223C4
:102CE800902C4673BB010689828A83E0225002E752
:102CF80022BBFE02E32289828A83E49322BB010C71
:102D0800E58229F582E5833AF583E0225006E92534
:102D180082F8E622BBFE06E92582F8E222E582294E
:102D2800F582E5833AF583E49322BB010689828A1A
:102D380083F0225002F722BBFE01F322EF8DF0A4AC
:102D4800A8F0CF8CF0A428CE8DF0A42EFE22BC00D3
:102D58000BBE0029EF8DF084FFADF022E4CCF875AE
:102D6800F008EF2FFFEE33FEEC33FCEE9DEC9840BD
:102D780005FCEE9DFE0FD5F0E9E4CEFD22EDF8F559
:102D8800F0EE8420D21CFEADF075F008EF2FFFEDB9
:102D980033FD4007985006D5F0F222C398FD0FD5B1
:102DA800F0EA22C2D5EC30E709B2D5E4C39DFDE4D0
:102DB8009CFCEE30E715B2D5E4C39FFFE49EFE12FB
:102DC8002D56C3E49DFDE49CFC8003122D5630D59E
:102DD80007C3E49FFFE49EFE22C5F0F8A3E028F0B5
:102DE800C5F0F8E582158270021583E038F022A359
:102DF800F8E0C5F025F0F0E582158270021583E051
:102E0800C838F0E822BB010A89828A83E0F5F0A37A
:102E1800E022500687F009E71922BBFE07E3F5F028
:102E280009E3192289828A83E493F5F074019322D5
:102E3800BB0110E58229F582E5833AF583E0F5F0D8
:102E4800A3E0225009E92582F886F008E622BBFEB5
:102E58000AE92582F8E2F5F008E222E5832AF583FB
:102E6800E993F5F0A3E99322BB010A89828A83F0EA
:102E7800E5F0A3F0225006F709A7F01922BBFE06D9
:102E8800F3E5F009F31922EF2BFFEE3AFEED39FDD9
:102E9800EC38FC22E88FF0A4CC8BF0A42CFCE98E53
:102EA800F0A42CFC8AF0EDA42CFCEA8EF0A4CDA8AA
:102EB800F08BF0A42DCC3825F0FDE98FF0A42CCDB3
:102EC80035F0FCEB8EF0A4FEA9F0EB8FF0A4CFC593
:102ED800F02ECD39FEE43CFCEAA42DCE35F0FDE41D
:102EE8003CFC2275F008758200EF2FFFEE33FECD13
:102EF80033CDCC33CCC58233C5829BED9AEC99E5B2
:102F08008298400CF582EE9BFEED9AFDEC99FC0F41
:102F1800D5F0D6E4CEFBE4CDFAE4CCF9A88222B809
:102F280000C1B90059BA002DEC8BF084CFCECDFC8E
:102F3800E5F0CBF97818EF2FFFEE33FEED33FDEC1B
:102F480033FCEB33FB10D703994004EB99FB0FD804
:102F5800E5E4F9FA227818EF2FFFEE33FEED33FDA2
:102F6800EC33FCC933C910D7059BE99A4007EC9BA1
:102F7800FCE99AF90FD8E0E4C9FAE4CCFB2275F031
:102F880010EF2FFFEE33FEED33FDCC33CCC833C842
:102F980010D7079BEC9AE899400AED9BFDEC9AFC48
:102FA800E899F80FD5F0DAE4CDFBE4CCFAE4C8F9F7
:102FB80022EB9FF5F0EA9E42F0E99D42F0EC648036
:102FC800C864809845F022EB9FF5F0EA9E42F0E94C
:102FD8009D42F0E89C45F022E86010ECA2E713FC63
:102FE800ED13FDEE13FEEF13FFD8F022E0FCA3E093
:102FF800FDA3E0FEA3E0FF22E0F8A3E0F9A3E0FAD6
:10300800A3E0FB22ECF0A3EDF0A3EEF0A3EFF02297
:10301800A8828583F0D083D08212302F12302F12ED
:10302800302F12302FE473E493A3C583C5F0C58312
:10303800C8C582C8F0A3C583C5F0C583C8C582C802
:1030480022A42582F582E5F03583F58322E0FBA3EF
:10305800E0FAA3E0F922F8E0FBA3A3E0F925F0F0F9
:10306800E582158270021583E0FA38F022EBF0A3AE
:10307800EAF0A3E9F022D083D082F8E493701274C6
:103088000193700DA3A393F8740193F5828883E4E8
:10309800737402936860EFA3A3A380DFD083D08208
:1030A800F8E4937012740193700DA3A393F874015C
:1030B80093F5828883E473740293B5F006740393DE
:1030C8006860E9A3A3A3A380D8E3F5F009E208B5F3
:1030D800F06BDFF58067E3F5F009E608B5F05EDF31
:1030E800F5805A87F009E608B5F052DFF6804E877A
:1030F800F009E208B5F046DFF6804288828C8387C3
:10310800F009E0A3B5F036DFF6803288828C838739
:10311800F009E493A3B5F025DFF5802188828C833C
:10312800E3F5F009E0A3B5F014DFF5801088828C90
:1031380083E3F5F009E493A3B5F002DFF40232006B
:10314800808780E9809080D4803E8015806E807E64
:10315800809D80B7808D80A380518074803C02322E
:103168000C89828A83ECFAE493F5F0A3C8C582C877
:10317800CCC583CCE493A3C8C582C8CCC583CCB5E1
:10318800F076DFE3DEE1807089828A83E493F5F0EC
:10319800A3E208B5F062DFF4805E89828A83E0F5F5
:1031A800F0A3E608B5F051DFF5804D89828A83E007
:1031B800F5F0A3E208B5F040DFF5803C89828A8308
:1031C800E493F5F0A3E608B5F02EDFF4802A800238
:1031D800805789828A83ECFAE493F5F0A3C8C58204
:1031E800C8CCC583CCE0A3C8C582C8CCC583CCB540
:1031F800F006DFE4DEE280007FFFB5F0020F224038
:10320800027F012289828A83ECFAE0F5F0A3C8C51F
:1032180082C8CCC583CCE0A3C8C582C8CCC583CC42
:10322800B5F0D5DFE5DEE380CF89828A83ECFAE06A
:10323800F5F0A3C8C582C8CCC583CCE493A3C8C5A0
:1032480082C8CCC583CCB5F0AFDFE4DEE280A988C4
:10325800F0EF60010E4E60ABED2402B4040050980C
:10326800F582EB2402B40400508E23234582239078
:10327800314873EF4E6012EF60010EEDBB010B8910
:10328800828A83F0A3DFFCDEFA2289F05007F7096F
:10329800DFFCA9F022BBFEFCF309DFFCA9F022F851
:1032A800BB010DE58229F582E5833AF583E8F02232
:1032B8005006E92582C8F622BBFE05E92582C8F238
:1032C800227BFF7A75794B78757C9D7D017E007F26
:1032D8003E122CC67BFF7A75798978B47C9D7D0176
:1032E8007E007F24122CC67B017A9D7975909F45BC
:1032F800E4F0A3743EF07F207EAB124159E4909D28
:10330800B3F0909DB3E0C39410748094804003029E
:10331800356AE0FF7E007401A807088005C333CE34
:1033280033CED8F9FF909D7BE0FCA3E0FDEE5CFE78
:10333800EF5D4E700302354E909DB3E0FF7E007442
:1033480001A807088005C333CE33CED8F9FF909D76
:103358007FE0FCA3E0FDEE5CFEEF5D4E70030234FF
:10336800FB909DB3E0FF1313543F2407FFE4339011
:103378009DDAF0A3EFF0909DDAE0FEA3E025E0FFF0
:10338800EE33FE74752FF582749D3EF583E0FEA33F
:10339800E0FF909DB3E0540325E025E0FDEFA8058C
:1033A800088005CEC313CE13D8F9540FFF909DD8CB
:1033B800E4F0A3EFF0909DD8E0FEA3E08EF0123089
:1033C800A433ED000034050001341D00023435003B
:1033D80004344C000534630006347A000834910044
:1033E80009000034A8909DB3E025E024B4F582E4F8
:1033F800349DF583E4F0A37405F00234BD909DB3C9
:10340800E025E024B4F582E4349DF583E4F0A37468
:1034180006F00234BD909DB3E025E024B4F582E4C3
:10342800349DF583E4F0A37407F00234BD909DB396
:10343800E025E024B4F582E4349DF583E4F0A37438
:1034480008F08071909DB3E025E024B4F582E4345F
:103458009DF583E4F0A37409F0805A909DB3E025AC
:10346800E024B4F582E4349DF583E4F0A3740AF013
:103478008043909DB3E025E024B4F582E4349DF5C3
:1034880083E4F0A37403F0802C909DB3E025E0243E
:10349800B4F582E4349DF583E4F0A37404F0801558
:1034A800909DB3E025E024B4F582E4349DF583E4EF
:1034B800F0A37405F0909DB3E0FF7E007401A807A7
:1034C800088005C333CE33CED8F9FF909D77E0FC52
:1034D800A3E0FDEE5CFEEF5D4E607E909DB3E025BF
:1034E800E024B4F582E4349DF583E475F008122DE8
:1034F800E18066909DB3E0FF7E007401A807088014
:1035080005C333CE33CED8F9FF909D77E0FCA3E016
:10351800FDEE5CFEEF5D4E6017909DB3E025E02464
:10352800B4F582E4349DF583E4F0A37402F08029B5
:10353800909DB3E025E024B4F582E4349DF583E45E
:10354800F0A304F08013909DB3E025E024B4F58245
:10355800E4349DF583E4F0A3F0909DB3E004F00219
:10356800330A909DB37410F0909DB3E0C394127425
:1035780080948040030237DBE024F0FF7E00740172
:10358800A807088005C333CE33CED8F9FF909D7DB8
:10359800E0FCA3E0FDEE5CFEEF5D4E70030237BF7A
:1035A800909DB3E024F0FF7E007401A80708800511
:1035B800C333CE33CED8F9FF909D81E0FCA3E0FD64
:1035C800EE5CFEEF5D4E700302376A909DB3E0FF3C
:1035D8001313543F2407FFE433909DDAF0A3EFF070
:1035E800909DDAE0FEA3E025E0FFEE33FE74752F30
:1035F800F582749D3EF583E0FEA3E0FF909DB3E065
:10360800540325E025E0FDEFA805088005CEC31387
:10361800CE13D8F9540FFF909DD8E4F0A3EFF090A3
:103628009DD8E0FEA3E08EF01230A4365700003695
:103638006F000136870002369F000436B600053653
:10364800CD000636E4000836FB000900003712906A
:103658009DB3E025E024B4F582E4349DF583E4F0DD
:10366800A37405F0023727909DB3E025E024B4F554
:1036780082E4349DF583E4F0A37406F002372790C2
:103688009DB3E025E024B4F582E4349DF583E4F0AD
:10369800A37407F0023727909DB3E025E024B4F522
:1036A80082E4349DF583E4F0A37408F08071909D62
:1036B800B3E025E024B4F582E4349DF583E4F0A377
:1036C8007409F0805A909DB3E025E024B4F582E4B3
:1036D800349DF583E4F0A3740AF08043909DB3E031
:1036E80025E024B4F582E4349DF583E4F0A3740363
:1036F800F0802C909DB3E025E024B4F582E4349D5D
:10370800F583E4F0A37404F08015909DB3E025E000
:1037180024B4F582E4349DF583E4F0A37405F090B5
:103728009DB3E024F0FF7E007401A807088005C35C
:1037380033CE33CED8F9FF909D79E0FCA3E0FDEEBF
:103748005CFEEF5D4E70030237D2909DB3E025E03A
:1037580024B4F582E4349DF583E475F008122DE174
:103768008068909DB3E024F0FF7E007401A80708EC
:103778008005C333CE33CED8F9FF909D79E0FCA302
:10378800E0FDEE5CFEEF5D4E6017909DB3E025E036
:1037980024B4F582E4349DF583E4F0A37402F08048
:1037A80029909DB3E025E024B4F582E4349DF583A7
:1037B800E4F0A304F08013909DB3E025E024B4F571
:1037C80082E4349DF583E4F0A3F0909DB3E004F027
:1037D8000235707B017A9D79B4909F45E4F0A3741B
:1037E80024F07FA07EAB1243C622909D3F12307515
:1037F800909D42ECF0A3EDF0E4A3F0A3F0909D427D
:10380800E0FEA3E0FFA3E0FCA3E0C39FEC9E500C06
:10381800909D44E475F001122DE180E1909D42E015
:10382800FEA3E0C39405EE94005003023B6BE4A3AF
:10383800F0A3F0909D3F123055909D44E0FEA3E028
:10384800F5828E83122D0564026003023B45909D2C
:103858003F123055909D44E0A3E029F9EA3EFA90E2
:103868000001122D0512307E387D0339CC063A8EC0
:103878001000003B45909D3F123055909D44E0FE5E
:10388800A3E029F9EA3EFA900002122D05FF909D67
:1038980048E4F0A3EFF0909D44E0A3E0FF909D483A
:1038A800E0FCA3E02FFFEC3EFEEF2405FFE43EFE24
:1038B800909D42E0FCA3E0FDD3EF9DEE9C4011906B
:1038C8009D42E0FEA3E0FFA3EEF0A3EFF0023B452C
:1038D800909D3F123055909D44E0FEA3E029F9EAFF
:1038E8003EFA909D48E0FEA3E02403FDE43EFC126E
:1038F8006861909D46EEF0A3EFF0909D3F12305521
:10390800909D44E0FEA3E029F9EA3EFA909D48E044
:10391800FEA3E029F9EA3EFA900003122D05FD9076
:103928009D46E0FEA3E0EE6D7001E46003023B45B6
:10393800909D3F123055909D44E0FEA3E029F9EA9E
:103948003EFA909D48E0FEA3E029F9EA3EFA90008D
:1039580004122D05FF909D46E0A3E06F7001E4601E
:1039680003023B45908380E0FEA3E0FF909D3F1259
:103978003055909D44E0FCA3E029F9EA3CFAE9249B
:1039880003F9E43AFA909D48E0FCA3E0FD909F45D6
:10399800ECF0A3EDF01243C67E007F0E7D007B01A4
:1039A8007A83797812327B909D48E0FEA3E0240563
:1039B800FFE43E909D44F0A3EFF0908000E04402C5
:1039C800F0023B45909D44E0FEA3E02408FFE43E5E
:1039D800FE909D42E0FCA3E0FDD3EF9DEE9C4011DC
:1039E800909D42E0FEA3E0FFA3EEF0A3EFF0023BC0
:1039F80045909D3F123055909D44E0FEA3E029F983
:103A0800EA3EFA7D067C00126861909D46EEF0A3BE
:103A1800EFF0909D3F123055909D44E0FEA3E029C1
:103A2800F9EA3EFA900006122D05FD909D46E0FE4B
:103A3800A3E0EE6D7001E46003023B45909D3F12E8
:103A48003055909D44E0FEA3E029F9EA3EFA900043
:103A580007122D05FF909D46E0A3E06F7001E4601A
:103A680003023B45909D4475F008122DE17E007FCE
:103A78000E7D007B017A83797812327B908000E09A
:103A88004402F0023B45909D44E0FEA3E02408FF79
:103A9800E43EFE909D42E0FCA3E0FDD3EF9DEE9C4A
:103AA8004011909D42E0FEA3E0FFA3EEF0A3EFF0EB
:103AB800023B45909D3F123055909D44E0FEA3E0A7
:103AC80029F9EA3EFA7D067C00126861909D46EE6F
:103AD800F0A3EFF0909D3F123055909D44E0FEA377
:103AE800E029F9EA3EFA900006122D05FD909D4660
:103AF800E0FEA3E0EE6D7001E47042909D3F12304D
:103B080055909D44E0FEA3E029F9EA3EFA900007AB
:103B1800122D05FF909D46E0A3E0B50720E4909D97
:103B28004475F008122DE17E007F0E7D007B017A3E
:103B380083797812327B908000E04402F0909D44B3
:103B4800E475F001122DE1909D42E0FEA3E024FB14
:103B5800FFEE34FFFEA3E0FCA3E0C39FEC9E5003FE
:103B680002383B22E51330E0167B017AA3792B90CB
:103B78009F45E4F0A37402F07F147E00124159E5DA
:103B88001320E203023E9590A32BE0FEA3E04E70C3
:103B98002690A326E0C39406748094805005E00420
:103BA800F0801490A326E06406700C7F39FE126E34
:103BB800D090A326E004F090A32BE0FEA3E0640BD2
:103BC8004E70031232C990A32BE0FEA3E064294E85
:103BD8006003023CAF7B017A9D793D909F45F0A33D
:103BE800741CF07FB07EC9124159E4909D3AF09060
:103BF8009D3AE0C39407748094804003023C99E0A6
:103C080025E025E0243DF582E4349DF583E0FEA31C
:103C1800E0C4F8540FC868FDEEC454F048FC909D09
:103C28003AE025E025E0243FF582E4349DF583E081
:103C3800FEA3E0EEC4540F2DFFE43C909D3BF0A39F
:103C4800EFF0909D3BE0FEA3E0FF7C007D18122D75
:103C580056909D3AE025E02459F582E4349DF58399
:103C6800EEF0A3EFF0909D3BE0FEA3E0FF7C007D2B
:103C780018122D56909D3AE025E02467F582E43429
:103C88009DF583ECF0A3EDF0909D3AE004F0023B43
:103C9800F77B017A9D7959909F45E4F0A3741CF055
:103CA8007F207EC91243C690A32BE0FEA3E0642CBC
:103CB8004E6003023D577B017A9D7942909F45F003
:103CC800A37404F07FA07ECC124159909D42E0FE7F
:103CD800A3E0FFEEC4F854F0C868FEEFC4540F48E0
:103CE800EE540F909D3AF0A3E4F0909D3AE0FCA3C7
:103CF800E0FD909D42E0FEA3E07807CEC313CE130B
:103D0800D8F9541FFFECFEED4FFF909D3AEEF0A35B
:103D1800EFF0909D42E0A3E0547F909D3CF0A3E437
:103D2800F0909D44E0FEA3E0FF909D3EEEF0A3EFEF
:103D3800F0A37401F0A37422F07B017A9D793A9084
:103D48009F45E4F0A37408F07F207ECC1243C69010
:103D5800A32BE0FEA3E064274E705690A327E0C390
:103D68009405748094805042909D3AE4F0A304F046
:103D7800FB7A9D793A909F45E4F0A37402F07F277F
:103D88007EA01243C6909D3AE4F0A3745AF07B01DA
:103D98007A9D793A909F45E4F0A37402F07F877E7C
:103DA800A01243C690A327E004F0E490A328F08073
:103DB8005390A328E0C39405748094805041E49004
:103DC8009D3AF0A3F07B017A9D793A909F45F0A344
:103DD8007402F07F277EA01243C6909D3AE4F0A3B8
:103DE800745AF07B017A9D793A909F45E4F0A37468
:103DF80002F07F877EA01243C690A328E004F0E477
:103E080090A327F07B017A9D793A909F45E4F0A32F
:103E18007402F07F167E00124159909D3AE0FEA38D
:103E2800E04E6024E4909D3AF0A3F07B017A9D79FE
:103E38003A909F45F0A37402F07F167E001243C6A5
:103E4800E490A329F0A3F02290A329E0FEA3E0C305
:103E58009458EE9402500B90A329E475F001122DAA
:103E6800E12290A329E0FEA3E0B45821EEB4021D9C
:103E780090A329E475F001122DE190A32BE0FEA395
:103E8800E064394E60077F397E00126ED022909D23
:103E980049123075909D4CECF0A3EDF07BFF7A75DC
:103EA80079EF784E7C9D7D017E007F18122CC6909C
:103EB8009D4912305590000A122E38246CFFE5F007
:103EC8003407909D7AF0A3EFF0909D7AE0FEA3E08E
:103ED800FF7C007D64122DABED4C6013909D7AE061
:103EE800FEA3E0FF7C007D04122DABED4C60139027
:103EF8009D7AE0FEA3E0FF7C017D90122DABED4C96
:103F080070067E007F0180047E007F00909D76EE23
:103F1800F0A3EFF0909D4912305590000A122E3808
:103F280024BAFFE5F034FFFE3395E0FDFC909D6672
:103F380012300C909D49123055900008122E38C34B
:103F48009401E5F0648094805040909D76E0FEA353
:103F5800E064014E7034909D66122FF4EF2402FF46
:103F6800E43EFEE43DFDE43CFCE47B04FAF9F8128F
:103F78006F17EF24FFFFEE34FFFEED34FFFDEC3446
:103F8800FFFC909D6E12300C8022909D66122FF4DB
:103F9800EF2402FFE43EFEE43DFDE43CFCE47B0448
:103FA800FAF9F8126F17909D6E12300C909D6A12F4
:103FB800301800000000E4909D78F0A3F0909D492F
:103FC800123055900008122E38FF909D78E0FCA31F
:103FD800E0C39FE5F06480F8EC6480985048909DB9
:103FE8006A122FF4C006C007909D78E0FEA3E02572
:103FF800E0FFEE33FE744E2FF582749D3EF583E0AC
:10400800FEA3E0FFFBAA06EA3395E0F9F8D007D053
:1040180006122E8F909D6A12300C909D78E475F0F0
:1040280001122DE18097909D6A122FF4C006C007F7
:10403800909D49123055900006122E3824FFFFE556
:10404800F034FFFEAB07FA3395E0F9F8D007D00655
:10405800122E8F909D6A12300C909D6A122FF4C018
:1040680004C005C006C007E47F6D7E01FDFC909D7D
:1040780066123000122E9C909D6E123000122E8F08
:10408800A804A905AA06AB07D007D006D005D00416
:10409800122E8F909D6A12300C909D4912305590C7
:1040A8000004122E38FF909D4CE0FCA3E0FDC3EF06
:1040B8009DFFE5F09CFE3395E0FDFC909D7212306B
:1040C8000CE47F107E0EFDFC909D72123000122EC3
:1040D8009CC004C005C006C0077F807E517D017C5E
:1040E80000909D6A123000122E9CA804A905AA0609
:1040F800AB07D007D006D005D004122E8FC004C05D
:1041080005C006C007909D49123055900002122E36
:1041180038FFAEF07C007D3C122D44AB07AA06EABE
:104128003395E0F9F8D007D006D005D004122E8FC9
:10413800C006C007909D49123055122E0DFFAEF0F3
:10414800FBAA06EA3395E0F9F8D007D006122E8FBD
:1041580022909F40EEF0A3EFF0A31230757B007A17
:10416800007900C003C002C001909F42123055D0B0
:1041780082D083D0E06B7008E965827003EA6583BA
:1041880070030243C5909F45E0FEA3E04E70030212
:1041980043C5909F45E0A3E0FFEEC313FEEF13FF76
:1041A800909F40E0FCA3E02FFFEE3CFED3EF94FE8F
:1041B800EE94FF40030243C5C2AF909F40E0A3E0E6
:1041C8005401909F47F0909F40E0FEA3E0FFEEC3AC
:1041D80013FEEF13FF909F40EEF0A3EFF0909F4087
:1041E800E0FEA3E07810CEC313CE13D8F9F5F19012
:1041F8009F40E0FEA3E0EEF5F2909F40E0A3E0F5DB
:10420800F3E4F5F875F401D2FF30FCFDD2FD909F80
:1042180047E064017072909F45E0FEA3E064014EA0
:10422800700AC2FBC2FAD2F9C2F88008C2FBC2FA0D
:10423800D2F9D2F8D2FE20FEFD909F45E0FEA3E021
:1042480064014E701A909F4275F00112305EE5FCD1
:10425800122D32909F4574FFF5F0122DE1802990C0
:104268009F42E475F00112305EE5FC122D32909FFA
:1042780042E475F00112305EE5FD122D32909F4543
:1042880074FF75F0FE122DE1909F45E0FEA3E04E0D
:1042980070030243C0909F45E0A3E0C39404EE94EA
:1042A800004003024369909F45E0A3E08EF012307E
:1042B800A442DD000142D3000242C90003000042CB
:1042C800E5D2FBD2FAD2F9C2F88012D2FBD2FAC2F6
:1042D800F9C2F88008D2FBC2FAC2F9C2F8D2FE20AD
:1042E800FEFD909F45E0FEA3E08EF01230A44356F9
:1042F80000014336000243060003000043C0909FBC
:1043080042E475F00112305EE5FA122D32909F42B8
:10431800E475F00112305EE5FB122D32909F42E405
:1043280075F00112305EE5FC122D320243C0909FF9
:1043380042E475F00112305EE5FA122D32909F4288
:10434800E475F00112305EE5FB122D32806A909F11
:1043580042E475F00112305EE5FA122D3280598080
:1043680057D2FBD2FAD2F9D2F8D2FE20FEFD909FA6
:1043780042E475F00112305EE5FA122D32909F4248
:10438800E475F00112305EE5FB122D32909F42E495
:1043980075F00112305EE5FC122D32909F42E475F3
:1043A800F00112305EE5FD122D32909F4574FF75C5
:1043B800F0FC122DE1024290E4F5F8D2AF22909F72
:1043C80040EEF0A3EFF0A31230757B007A0079007D
:1043D800C003C002C001909F42123055D082D083E2
:1043E800D0E06B7008E965827003EA6583700302A8
:1043F8004631909F45E0FEA3E04E7003024631909F
:104408009F45E0A3E0FFEEC313FEEF13FF909F402C
:10441800E0FCA3E02FFFEE3CFED3EF94FEEE94FF0A
:104428004003024631C2AF909F40E0A3E0540190A0
:104438009F47F0909F40E0FEA3E0FFEEC313FEEF1E
:1044480013FF909F40EEF0A3EFF0909F40E0FEA393
:10445800E07810CEC313CE13D8F9F5F1909F40E061
:10446800FEA3E0EEF5F2909F40E0A3E0F5F3E4F55B
:10447800F875F401D2FF30FCFDC2FD909F47E0645F
:10448800017072909F45E0FEA3E064014E700AC27D
:10449800FBC2FAD2F9C2F88008C2FBC2FAD2F9D23A
:1044A800F8909F45E0FEA3E064014E701A909F4289
:1044B80075F00112305E122CECF5FC909F4574FFEC
:1044C800F5F0122DE18029909F42E475F001123039
:1044D8005E122CECF5FC909F42E475F00112305E00
:1044E800122CECF5FD909F4574FF75F0FE122DE13E
:1044F800D2FE20FEFD909F45E0FEA3E04E70030231
:10450800462C909F45E0A3E0C39404EE940040033A
:104518000245D5909F45E0A3E08EF01230A4454AAD
:104528000001454000024536000300004552D2FB19
:10453800D2FAD2F9C2F88012D2FBD2FAC2F9C2F882
:104548008008D2FBC2FAC2F9C2F8909F45E0FEA3E8
:10455800E08EF01230A445BD0001459D0002456E75
:104568000003000045CC909F42E475F00112305ED4
:10457800122CECF5FA909F42E475F00112305E12AD
:104588002CECF5FB909F42E475F00112305E122C82
:10459800ECF5FC802F909F42E475F00112305E121A
:1045A8002CECF5FA909F42E475F00112305E122C63
:1045B800ECF5FB800F909F42E475F00112305E121B
:1045C8002CECF5FAD2FE30FE5B80FB8057D2FBD292
:1045D800FAD2F9D2F8909F42E475F00112305E12D7
:1045E8002CECF5FA909F42E475F00112305E122C23
:1045F800ECF5FB909F42E475F00112305E122CEC52
:10460800F5FC909F42E475F00112305E122CECF537
:10461800FDD2FE20FEFD909F4574FF75F0FC122D23
:10462800E10244FDE4F5F8D2AF227BFF7A7479C742
:10463800783A7C9D7D017E007F20122CC67B017A12
:104648009D793A909D5C123075909D5F123075E4AB
:10465800909D5AF0A3F0909D5AE0FEA3E0C3EE941B
:104668000240030246FB909D5AE0A3E07803C3335F
:10467800CE33CED8F92400FFEE3420FEE4FCFD90C2
:104688009F4312300C909F47E4F0A37408F07D001C
:104698007C307F5A12675A7B017A9D793A909F4500
:1046A800E4F0A37410F07F007E30124159909D5CB5
:1046B800123055122E0D645A7004E5F064A5602678
:1046C800909D5F123055122E0DB4A527E5F0B45A0F
:1046D80022909D5F12305578A37CA17D017E007FDA
:1046E80008122CC6800D909D5AE475F001122DE138
:1046F80002465EE4909D5AF0A3F0909D5AE0FEA316
:10470800E0C3940AEE9400400302488D7BFF7A745C
:1047180079E778627C9D7D017E007F20122CC67B24
:10472800017AA1794C78627C9D7D017E007F1A1206
:104738002CC6909D5AE0FEA3E0FF7C007D1B122D45
:1047480044EF2464FFE43E909D66F0A3EFF0909D53
:104758006B7401F0909D5AE0FEA3E090A1C675F03D
:1047680006123049EE75F006A42583F583E0FEA312
:10477800E0FF7B017A9D7962909F45E4F0A3742065
:10478800F01243C67B017AA1796678627C9D7D012F
:104798007E007F1A122CC6909D5AE0FEA3E0FF7C93
:1047A800007D1B122D44EF2464FFE43E909D66F0CB
:1047B800A3EFF0909D6B7401F0909D5AE0FEA3E08A
:1047C80090A1C875F006123049EE75F006A425834D
:1047D800F583E0FEA3E0FF7B017A9D7962909F4517
:1047E800E4F0A37420F01243C67B017AA279027820
:1047F800627C9D7D017E007F1A122CC6909D5AE036
:10480800FEA3E0FF7C007D1B122D44EF2464FFE42F
:104818003E909D66F0A3EFF0909D5AE0FEA3E0FF66
:10482800122D44EF2464FFE43E909D6CF0A3EFF05A
:10483800909D5AE0FEA3E0FF122D44EF247DFFE493
:104848003E909D70F0A3EFF0909D5AE0FEA3E0909B
:10485800A1CA75F006123049EE75F006A42583F555
:1048680083E0FEA3E0FF7B017A9D7962909F45E497
:10487800F0A37420F01243C6909D5AE475F001121B
:104888002DE102470222E51330E10D90A32DE475D6
:10489800F001122DE112638A90A32DE0FEA3E0C37C
:1048A80094B0EE94045003024ADCE490A32DF0A3E4
:1048B800F0A3E0FEA3E02400FFEE3410909D3AF050
:1048C800A3EFF07B017A9D793C909F45E4F0A374B7
:1048D80002F07FA37EA0124159909D3CE475F0C878
:1048E800122DE1909D3AE0FEA3E0FF7B017A9D79CD
:1048F8003C909F45E4F0A37402F01243C690A32FA6
:10490800E0FEA3E02400FFEE3418909D3AF0A3EFF8
:10491800F07B017A9D793C909F45E4F0A37402F006
:104928007FA47EA0124159909D3AE0FEA3E0FF7B50
:10493800017A9D793C909F45E4F0A37402F01243FC
:10494800C690A32FE0FEA3E0FF909D40EEF0A3EFFA
:10495800F090A32FE475F001122DE190A32FE0FE53
:10496800A3E0C394FEEE94074007E490A32FF0A3BE
:10497800F07B017AA3792F909F45E4F0A37402F0AD
:104988007F007E031243C67B017AA3792F909F454F
:10499800E4F0A37402F0FF7E031243C6909D3E74B8
:1049A80007F0A374FEF07B017A9D793E909F45E461
:1049B800F0A37402F07F087E501243C67B017A9DF3
:1049C800793E909F45E4F0A37402F07F097E50126F
:1049D80043C6909D3E7402F0A3748AF07B017A9DD1
:1049E800793E909F45E4F0A37402F07F117E501247
:1049F80043C690A32FE0A3E030E003024ADC909D79
:104A08004074FFF5F0122DE1909D40E0FEA3E024F4
:104A180000FFEE3410FE7B017A9D793A909F45E4C1
:104A2800F0A37404F0124159909D3E74A5F0A3744C
:104A38005AF07B017A9D793A909F45E4F0A3740679
:104A4800F07F007E501243C6909D40E0FEA3E0FF39
:104A5800E4FCFD909F4312300C909F47E4F0A37450
:104A680004F07D007C507FA512675A909D40E0FEBF
:104A7800A3E02400FFEE3418FE7B017A9D793A907A
:104A88009F45E4F0A37404F0124159909D3E74A52B
:104A9800F0A3745AF07B017A9D793A909F45E4F02F
:104AA800A37406F07F007E501243C6909D40E0FE3E
:104AB800A3E02400FFEE3408FEE4FCFD909F4312BF
:104AC800300C909F47E4F0A37404F07D007C507F85
:104AD800A512675A22909D3F123075909D3F123063
:104AE80055122CEC909D42F0909D42E0C394C57401
:104AF8008094804003024D14E075F00E9083861276
:104B08003049E0645A6003024D0B909D42E075F015
:104B18000E908389123049E07003024D0B909D423C
:104B2800E075F00E90838B123049E07003024D144B
:104B3800909D42E075F00E90838B123049E064013D
:104B48007029909D42E075F00E90838C123049E0F8
:104B5800FEA3E0FF90A32BE0FCA3E06F7002EC6ED5
:104B68006003024D0B024D14024D0B909D42E075FF
:104B7800F00E90838B123049E064026003024C30DF
:104B8800909D42E075F00E90838C123049E0FEA3B0
:104B9800E0FF7B017A9D7943909F45E4F0A374027E
:104BA800F0124159909D43E0A3E0645A6003024D1E
:104BB8000B909D42E0C394C474809480503CE0758F
:104BC800F00E908399123049E06402702D909D4256
:104BD800E075F00E90839A123049E0FEA3E0FF9052
:104BE8009D42E075F00E90838C123049E0FCA3E002
:104BF8006F7002EC6E7003024D14E4909D43F0A3B5
:104C0800F0909D42E075F00E90838C123049E0FEE2
:104C1800A3E0FF7B017A9D7943909F45E4F0A3745C
:104C280002F01243C6024D14909D42E075F00E90BA
:104C3800838B123049E064036003024D0B909D4260
:104C4800E075F00E908392123049E0FEA3E0FF90E9
:104C5800A32BE0FCA3E0FDEF6D7002EE6C60030295
:104C68004D0B909D42E075F00E90838C123049E018
:104C7800FEA3E0FF7B017A9D7943909F45E4F0A372
:104C88007402F0124159909D43E0A3E0645A707396
:104C9800909D42E0C394C4748094805039E075F0CC
:104CA8000E908399123049E06403702A909D42E087
:104CB80075F00E90839A123049E0FEA3E0FF909DB4
:104CC80042E075F00E90838C123049E0FCA3E06F4F
:104CD8007002EC6E6036E4909D43F0A3F0909D4224
:104CE800E075F00E90838C123049E0FEA3E0FF7B64
:104CF800017A9D7943909F45E4F0A37402F0124332
:104D0800C68009909D42E004F0024AF0909D42E07E
:104D1800FF909D3F123055EF122D3222E4909D3ABC
:104D2800F0A3F0E51320E003024F5B7B017A9D7945
:104D38003A909F45E4F0A37402F07F147E5012412C
:104D480059909D3AE0FEA3E04E7003024F5B909DA0
:104D58003AE0A3E08EF01230A44ED9A0004EDEA0B7
:104D6800264EE3A4004EE8A4014EEDA4A04EEDA407
:104D7800A14EEDA4A24EEDA4A34EEDA4A44EEDA425
:104D8800A54EEDA4A64EEDA4A74EEDA4A84EEDA405
:104D9800A94EEDA4AA4EEDA4AB4EEDA4AC4EEDA4E5
:104DA800AD4EEDA4AE4EEDA4AF4EEDA4B04EEDA4C5
:104DB800B14EEDA4B24EEDA4B34EEDA4B44EEDA4A5
:104DC800B54EEDA4B64EEDA4B74EEDA4B84EEDA485
:104DD800B94EEDA4BA4EEDA4BB4EEDA4BC4EEDA465
:104DE800BD4EEDA4BE4EEDA4BF4EEDA4C04EEDA445
:104DF800C14EEDA4C24EEDA4C34EEDA4C44EEDA425
:104E0800C54EEDA4C64EEDA4C74EEDA4C84EEDA404
:104E1800C94EEDA4CA4EEDA4CB4EEDA4CC4EEDA4E4
:104E2800CD4EEDA4CE4EEDA4CF4EEDA4D04EEDA4C4
:104E3800D14EEDA4D24EEDA4D34EEDA4D44EEDA4A4
:104E4800D54EEDA4D64EEDA4D74EEDA4D84EEDA484
:104E5800D94EEDA4DA4EEDA4DB4EEDA4DC4EEDA464
:104E6800DD4EEDA4DE4EEDA4DF4EEDA4E04EEDA444
:104E7800E14EEDA4E24EEDA4E34EEDA4E44EEDA424
:104E8800E54EFAA4F04EFAA4F14EFAA4F24EFAA4B2
:104E9800F34F07A6004F3FA6014F0CAC004F11ACD3
:104EA800014F1BC5004F20C6004F16C7004F25C72E
:104EB800014F2AC9014F2AC9074F2AC90D4F2AC9CC
:104EC8000E4F2AC9114F37CF004F3CD60000004F74
:104ED8003F126AFB80611271AC805C1269BD805719
:104EE8001200168052909D3AE0FEA3E0FF126C7803
:104EF8008045909D3AE0FEA3E0FF126CD280381204
:104F080065FF8033126D85802E1270568029125BE2
:104F1800E6802412708C801F12716D801A12002294
:104F28008015909D3AE0FEA3E0FF126E858008127E
:104F38006F5B8003126F9AE4909D3AF0A3F07B01B7
:104F48007A9D793A909F45F0A37402F07F147E50C1
:104F58001243C6221271C97F64126E327F10126E1C
:104F6800321272451271C97F65126E32909D427479
:104F780006F0909D42E0D3940074809480401D1206
:104F88006DDD909D42E0243AF582E4349DF583EF8F
:104F9800F01271E4909D42E014F080D6126DDD901D
:104FA8009D3AEFF01271FD127245E4909D42F09027
:104FB8009D42E0C3940374809480504BE0243AF5FA
:104FC80082E4349DF583E0FFC4540F909D43F09034
:104FD8009D42E0243AF582E4349DF583E0540F9035
:104FE8009D44F0909D43E075F00AA4FFA3E02FFFD5
:104FF800909D42E0243AF582E4349DF583EFF090E9
:105008009D42E004F080A8909D427404F0909D4277
:10501800E0C3940774809480504BE0243AF582E40E
:10502800349DF583E0FFC4540F909D43F0909D425A
:10503800E0243AF582E4349DF583E0540F909D44D2
:10504800F0909D43E075F00AA4FFA3E02FFF909D28
:1050580042E0243AF582E4349DF583EFF0909D42D6
:10506800E004F080A8909D3AE0FFA3E0FDA3E0FBF8
:1050780012581D909D3DEFF07B017A9D793A909FE3
:1050880045E4F0A37408F07F107E001243C690A296
:10509800FBE0FEA3E0C39478EE9400500A90A2FBD4
:1050A800E475F001122DE1909D3FE075F00A84E56A
:1050B800F07004A3E0601220000F90A2FBE0FEA3B2
:1050C800E0646E4E600302516B909D4512301800EB
:1050D800000000909D40E0FF90A2E9E4F0A3EFF00B
:1050E800909D3FE0FF90A2EBE4F0A3EFF0909D3E8F
:1050F800E0FF90A2EDE4F0A3EFF0909D3CE0FF907C
:10510800A2EFE4F0A3EFF0909D3BE024FFFFE4342E
:10511800FF90A2F1F0A3EFF0909D3AE02464FFE441
:105128003390A2F3F0A3EFF0909D3AE4F0A3745A01
:10513800F0A3E4F0A37412F07B017AA279E97D0868
:105148007C00123E96909D3E12300C7B017A9D7930
:105158003A909F45E4F0A37408F07F157E501243FF
:10516800C6C200227BFF7A7279C7783A7C9D7D019E
:105178007E027F00122CC6909F4312301800000058
:1051880000909F477410F0A3E4F0FD7C107F5A1242
:10519800675A909F3A7410F0A3E4F0909F3AE0FEAB
:1051A800A3E0C394FEEE94175069909F3AE0A3E001
:1051B800FF7B017A9D793A909F457402F0A3E4F051
:1051C800124159E4909F3CF0A3F0909F3CE0FEA36D
:1051D800E0C3EE9401502F909F3CE0A3E025E0FF50
:1051E800EE33FE743A2FF582749D3EF583E0FEA3FC
:1051F800E0645A7003EE64A56019909F3CE475F072
:1052080001122DE180C4909F3A740175F000122DAF
:10521800E18088909F3CE0FEA3E0FF909F3AE0FC8D
:10522800A3E02FFFEC3E909F3EF0A3EFF0909F3E4F
:10523800E0FEA3E0C394FEEE94174009909F3E74ED
:1052480010F0A3E4F0909F3E74F075F000122DE189
:10525800909F3EE0FEA3E0FF90A32FEEF0A3EFF0B7
:105268007B017A9F793E909F45E4F0A37402F07F1A
:10527800007E031243C67B017A9F793E909F45E4E6
:10528800F0A37402F0FF7E031243C67B017A9F7974
:105298003E909F45E4F0A37402F07F087E501243CD
:1052A800C67B017A9F793E909F45E4F0A37402F093
:1052B8007F097E501243C6909D3A7407F0A374FE8E
:1052C800F07B017A9D793A909F45E4F0A37402F04F
:1052D8007F017E031243C67B017A9D793A909F45F0
:1052E800E4F0A37402F004FFFE1243C6909D3AE472
:1052F800F0A37406F0A3E4F0A304F0A3E4F0A3740D
:105308002EF0A37401F0A3744CF0A37401F0A374FD
:1053180071F0A37401F0A37477F0A37401F0A3747F
:105328008AF0A37402F0A3748AF0A37401F0A37442
:1053380071F0A374FFF0A3E4F07B017A9D793A90B1
:105348009F45F0A37414F07F0A7E501243C6227B57
:10535800007A007900909D3A123075908377E06466
:105368000160030253EE908372E0FF908E4CE0D30D
:105378009F4011E0908372F0908ECD12301800009B
:1053880000008062908372E0FF908E4CE06F705650
:10539800FFFEFDFC908ECD123000D3122FCF403887
:1053A800908ECD123000C3E50E9BFFE50D9AFEE509
:1053B8000C99FDE50B98FCE47B14FAF9F8C3122F5D
:1053C800CF50237B017A8E794D908E4CE0FD7C0086
:1053D8001237F2127127800EAF0EAE0DAD0CAC0B6A
:1053E800908ECD12300C908000E030E042E020E159
:1053F80029908373123000C3E50E9BFBE50D9AFAE2
:10540800E50C99F9E50B98F890837CE0FFE4FCFD46
:10541800FEC3122FCF500302553D908000E030E1CB
:1054280006A3E004F0802F908000E054FEF0229064
:105438008373123000C3E50E9BFFE50D9AFEE50C61
:1054480099FDE50B98FCE47BF47A01F9F8D3122F67
:10545800CF400302553D908001E0700312596290DD
:10546800837312301800000000E4F50EF50DF50CFA
:10547800F50B908000E054FDF0E054FEF012712727
:105488007B017A807901124ADD908001E0C394C5DE
:10549800748094804003025538E075F00EA4248689
:1054A800F9748335F0FA7B0178787C837D017E007E
:1054B8007F0E122CC612712790837AE06403701253
:1054C8007B017A837978125F77908000E04401F05D
:1054D800805490837AE064067034908380E0FEA361
:1054E800E0FF7B017A9D793D909F45E4F0A374022B
:1054F800F01241597B017A837978909D3DE0FCA3B5
:10550800E0FD126092908000E04401F080189083E2
:105518007AE0641070107B017A83797812553E9096
:105528008000E04401F0E4F50EF50DF50CF50B22D2
:10553800E4908001F022909D3F123075E4909D44E4
:10554800F0909D3F123055900001122D05FF909D5F
:1055580044E0FE04F074452EF582E4349DF583EFB3
:10556800F0909D44E0FF04F074452FF582E4349DEB
:10557800F5837410F0909D3F12305590000A122E5A
:1055880038E5F0FF909D44E0FE04F074452EF58266
:10559800E4349DF583EFF0909D3F12305590000A5A
:1055A800122E38FF909D44E0FE04F074452EF582DB
:1055B800E4349DF583EFF0909D3F12305590000341
:1055C800122D05FFE4909D44E0FE04F074452EF58D
:1055D80082E4349DF583E4F0909D3F1230559000AD
:1055E80003122D05FF909D44E0FE04F074452EF54E
:1055F80082E4349DF583EFF0909D3F123055900082
:1056080003122D0525E0FF909D44E0FE04F074454B
:105618002EF582E4349DF583EFF0908380E0FEA3BD
:10562800E0FFC006C007909D44E02445F9E4349D9E
:10563800FA7B01C003C002C001909D3F1230559013
:105648000003122D0575F002A4FF909F45E5F0F0C8
:10565800A3EFF0D001D002D003D007D006124159F1
:10566800909D3F123055900003122D0525E0FF90C4
:105678009D44E02FF07B017A9D7945E0FD7C001286
:105688006861909D42EEF0A3EFF0909D42E0FEA38A
:10569800E0EEFFA3E0FE04F074452EF582E4349DAD
:1056A800F583EFF0909D42E0A3E0FFA3E0FE04F055
:1056B80074452EF582E4349DF583EFF07B017A9DE5
:1056C8007945909D44E0FD126C1E22C0E0C0F0C0F8
:1056D80083C082C0D075D000C000C001C002C00322
:1056E800C004C005C006C007C2AF758CBC758ACDA2
:1056F80090A316E475F001122DE190A316E0FEA325
:10570800E0D394E8EE9403401890A316E4F0A3F0D5
:10571800A375F001122DE190A314E475F001122D88
:10572800E143C90190A322122FF4E47B01FAF9F8AE
:10573800122E8F90A32212300C90A31AE475F00158
:10574800122DE190A31C122FF4E4F8122E8F90A3CF
:105758001C12300C90A320E0FEA3E0FFE4FCFD7BCC
:10576800DC7AFFF8D3122FB9400A90A320E475F031
:1057780001122DE10509E50970020508AF12AE1105
:10578800AD10AC0FE47B01FAF9F8122E8F8F128E50
:10579800118D108C0FAF0EAE0DAD0CAC0BE4122EAC
:1057A8008F8F0E8E0D8D0C8C0BE47B64AF12AE11B7
:1057B800AD10AC0F122F27AC00AD01AE02AF03E461
:1057C800FBFAF9F8C3122FCF7003430A02E47BF403
:1057D8007A01F9F8AF12AE11AD10AC0F122F27AC49
:1057E80000AD01AE02AF03E4FBFAF9F8C3122FCF04
:1057F8007003430A04430A01D2AFD007D006D0058C
:10580800D004D003D002D001D000D0D0D082D08331
:10581800D0F0D0E032909D49EFF0A3EDF0A3EBF08B
:10582800E4909D56F0A3F0909D49E024D0FFE43425
:1058380007909D56F0A3EFF0909D56E0FEA3E0FF81
:105848007C007D64122D56909D4CECF0A3EDF090F9
:105858009D56E0FEA3E0FF7C007D64122D56909DCE
:105868004EEEF0A3EFF0909D4AE0FF909D50E4F0DB
:10587800A3EFF0909D4BE0FF909D52E4F0A3EFF072
:10588800909D50E0FEA3E064014E600B909D50E0B7
:10589800A3E064024E7014909D4C74FFF5F0122D35
:1058A800E1909D50E475F00C122DE1909D4CE0FEC6
:1058B800A3E07802CEC313CE13D8F9FF909D4CE035
:1058C800FCA3E02FFDEE3CFCA3E0FEA3E07802CEB3
:1058D800C313CE13D8F92DFDEC3EFC909D4EE0FE8F
:1058E800A3E025E0FFEE33FEC3ED9FFBEC9EFAA399
:1058F800E0FEA3E02401FFE43EFE7C007D0D122DB6
:10590800447D05122D56EF2BFFEE3AFEA3E0FCA3D3
:10591800E02FFFEE3CFEEF24FFFFEE34FFA3F0A3E1
:10592800EFF0909D54E0FEA3E0C3EE9400500C907D
:105938009D54E475F007122DE180E7909D54E0FE38
:10594800A3E0FF7C007D07122D56909D54ECF0A338
:10595800EDF0909D54E0A3E0FF227BFF7A7579ADCE
:10596800783F7C9D7D017E007F28122CC6E4909DA7
:1059780067F0A3F0909D67E0FEA3E0C3946EEE94F9
:10598800004003025AA6909D67E0A3E07803C33362
:10599800CE33CED8F92403F58274803EF583E0FF38
:1059A80090A32BE0FCA3E0FDEF6D7001EC60030217
:1059B8005A99909D67E0FEA3E07803C333CE33CEB7
:1059C800D8F92404F58274803EF583E0FEA3E0FF55
:1059D8007B017A9D793F909F45E4F0A37402F01211
:1059E8004159909D67E0FEA3E07803C333CE33CEE0
:1059F800D8F92406F58274803EF583E0FEA3E0FF23
:105A08007B017A9D7941909F45E4F0A37402F012DE
:105A18004159909D41E0FEA3E0FF909D3FE0FCA32B
:105A2800E06F7002EC6E6069909D67E0FEA3E0781D
:105A380003C333CE33CED8F92406F58274803EF5FD
:105A480083E0FEA3E0FF7B017A9D793F909F45E4C8
:105A5800F0A37402F01243C6909D43E4F0A3745A75
:105A6800F0909D67E0FEA3E07803C333CE33CED831
:105A7800F92408F58274803EF583E0FEA3E0FF7BFD
:105A8800017A9D7943909F45E4F0A37402F0124394
:105A9800C6909D67E475F001122DE102597C2290B1
:105AA8009D82EFF07BFF7A75792778837C9D7D0155
:105AB8007E007F20122CC67B017AA1794C78837CEA
:105AC8009D7D017E007F1A122CC6909D82E075F0A4
:105AD8001BA42464FFE435F0909D87F0A3EFF090B9
