:10000000027334020006C2AFD2AF320264B2C2AF92
:10001000D2AF3202000E90A92DE0FEA3E0FF127CC9
:0200200052226A
:07002300027846127F432220
:10002B0002809A90A7121238180000300090A71681
:10003B00E4F0A3740CF07D007C307F5A1273D57BF7
:10004B00017AA979E790A714E4F0A37418F07F0064
:10005B007E3012506BE490A509F090A509E0C39493
:10006B000774809480506EE025E025E024E7F5824C
:10007B00E434A9F5831237F4E4FBFAF9F8C3123729
:10008B00CF602290A509E025E025E024E7F582E486
:10009B0034A9F5831237F47B3F7A42790F7800C38A
:1000AB001237CF502890A509E025E025E024BFF5B5
:1000BB0082E434A9F5831237F490A509E025E025F5
:1000CB00E024E7F582E434A9F58312380C90A509F6
:1000DB00E004F080857B017AA979E790A726E4F00C
:0C00EB00A37414F07FA07EA61252D8224D
:1000F800FFFF4457494E543542AB1F000041AB182F
:100108000042AB19000041AB1B0041AB1C0042ABE5
:100118001D000042AB25000042AB23000042AB218A
:1001280000005AAA033FC900690064000086000A5B
:100138002D2D203A3A000000000000000000005A6F
:10014800AA1D3FCC01270064000086000A2D2D2F30
:100158003A3A000000000000000000005AAABA3F26
:10016800D001E50064000001E5006402AD007D00F7
:10017800100017181802000000603CAA7E400040DA
:10018800A04140401040B04150402040C041604034
:100198003040D04170404040E04180405040F04104
:1001A800904060410041A04070411041B040804102
:1001B8002041C04090413041D054AA6A41E041F802
:1001C80042104228424042584270428842A042B8F7
:1001D80048AA5B000000000000000042AA6300007B
:1001E80042AA68000042AA65000041AA670042AA24
:1001F80049000042AA3700054996A0B2E2CAD4BA1B
:10020800BAD7D6006E6096A949443030BBD8B7E754
:10021800B8DFCEC2000000000000000000000000AF
:10022800000000000000000049443031BBD8B7E7A7
:10023800B5CDCEC2000000000000000000000000A4
:10024800000000000000000049443032BBD8B7E786
:10025800B8DFCAAA0000000000000000000000008B
:10026800000000000000000049443033BBD8B7E765
:10027800B5CDCAAA00000000000000000000000080
:10028800000000000000000049443034CBCDB7E73F
:10029800B8DFCEC20000000000000000000000002F
:1002A800000000000000000049443035CBCDB7E71E
:1002B800B5CDCEC200000000000000000000000024
:1002C800000000000000000049443036CBCDB7E7FD
:1002D800B8DFCAAA0000000000000000000000000B
:1002E800000000000000000049443037CBCDB7E7DC
:1002F800B5CDCAAA00000000000000000000000000
:10030800000000000000000049443038B1A3C1F4E7
:1003180000000000000000000000000000000000D5
:10032800000000000000000049443039C4DAB2BFC0
:10033800CDA8D0C5000000000000000000000000AB
:100348000000000000000000494431304E5443D200
:10035800ECB3A30000000000000000000000000053
:10036800000000000000000049443131B7E7BBFA43
:1003780031B9CAD5CF00000000000000000000001D
:10038800000000000000000049443132B1A3C1F46C
:100398000000000000000000000000000000000055
:1003A800000000000000000049443133B1A3C1F44B
:1003B8000000000000000000000000000000000035
:1003C800000000000000000049443134B1A3C1F42A
:1003D8000000000000000000000000000000000015
:1003E800000000000000000049443135B1A3C1F409
:1003F80000000000000000000000000000000000F5
:10040800000000000000000049443136CDE2B7E7A3
:10041800BBFAB9CAD5CF00000000000000000000F8
:10042800000000000000000049443137B7E7BBFA7C
:1004380031D4CBD0D0B3ACCAB1000000000000006A
:10044800000000000000000049443138B1A3C1F4A5
:100458000000000000000000000000000000000094
:10046800000000000000000049443139B1A3C1F484
:100478000000000000000000000000000000000074
:10048800000000000000000049443230B1A3C1F46C
:100498000000000000000000000000000000000054
:1004A800000000000000000049443231B1A3C1F44B
:1004B8000000000000000000000000000000000034
:1004C800000000000000000049443232CDE2B7E7E6
:1004D800BBFAD4CBD0D0B3ACCAB100000000000046
:1004E800000000000000000049443233B8DFD1B9F1
:1004F80031BFAAB9D80000000000000000000000C9
:10050800000000000000000049443234B8DFD1B9CF
:1005180031CBF8CBC0000000000000000000000054
:10052800000000000000000049443235B5CDD1B9C3
:1005380031B8E6BEAF000000000000000000000077
:10054800000000000000000049443236B5CDD1B9A2
:1005580031CBF8CBC0000000000000000000000014
:10056800000000000000000049443237C5C5C6F845
:10057800CEC2B6C831B8E6BEAF0000000000000029
:10058800000000000000000049443238C5C5C6F824
:10059800CEC2B6C831CBF8CBC000000000000000C6
:1005A800000000000000000049443239B6CCD6DC17
:1005B800C6DA31B8E6BEAF00000000000000000057
:1005C800000000000000000049443330D1B9BBFAF4
:1005D80031D4CBD0D0B3ACCAB100000000000000C9
:1005E800000000000000000049443331B8DFD1B9F1
:1005F80032BFAAB9D80000000000000000000000C7
:10060800000000000000000049443332B8DFD1B9CF
:1006180032CBF8CBC0000000000000000000000052
:10062800000000000000000049443333B5CDD1B9C3
:10063800D1B9C1A6B8E6BEAF0000000000000000B6
:10064800000000000000000049443334B5CDD1B9A2
:1006580032CBF8CBC0000000000000000000000012
:10066800000000000000000049443335C5C5C6F845
:10067800CEC2B6C832B8E6BEAF0000000000000027
:10068800000000000000000049443336C5C5C6F824
:10069800CEC2B6C832CBF8CBC000000000000000C4
:1006A800000000000000000049443337B6CCD6DC17
:1006B800C6DA32B8E6BEAF00000000000000000055
:1006C800000000000000000049443338D1B9BBFAEB
:1006D80032D4CBD0D0B3ACCAB100000000000000C7
:1006E800000000000000000049443339BCD3CAAA06
:1006F800C6F7B5E7C1F7B9FDB4F300000000000084
:10070800000000000000000049443430BCD3CAAAED
:10071800C6F7B8DFCBAECEBB00000000000000007B
:10072800000000000000000049443431BCD3CAAACC
:10073800C6F7C8B1CBAE0000000000000000000002
:10074800000000000000000049443432BCD3CAAAAB
:10075800C6F7D4CBD0D0B3ACCAB1000000000000BB
:10076800000000000000000049443433BCD3C8C86E
:10077800C6F7B8E6BEAF00000000000000000000A9
:10078800000000000000000049443434BCD3C8C84D
:10079800C6F731B3ACCAB100000000000000000089
:1007A800000000000000000049443435BCD3C8C82C
:1007B800C6F732B3ACCAB100000000000000000068
:1007C800000000000000000049443436B6CFB5E709
:1007D800D6D8C6F4000000000000000000000000A9
:1007E800000000000000000049443437B5E7D4B4E5
:1007F800CFE0D0F2B4EDCEF300000000000000001E
:10080800000000000000000049443438B5E7D4B4C3
:10081800C6B5C2CAC6ABB8DF0000000000000000C1
:10082800000000000000000049443439B5E7D4B4A2
:10083800C6B5C2CAC6ABB5CD0000000000000000B6
:1008480000000000000000004944353041CFE0B905
:10085800FDD1B90000000000000000000000000009
:1008680000000000000000004944353142CFE0B9E3
:10087800FDD1B900000000000000000000000000E9
:1008880000000000000000004944353243CFE0B9C1
:10089800FDD1B900000000000000000000000000C9
:1008A80000000000000000004944353341CFE0C794
:1008B800B7D1B900000000000000000000000000EF
:1008C80000000000000000004944353442CFE0C772
:1008D800B7D1B900000000000000000000000000CF
:1008E80000000000000000004944353543CFE0C750
:1008F800B7D1B900000000000000000000000000AF
:1009080000000000000000004944353641CFE0C82F
:10091800B1CFE0000000000000000000000000006F
:1009280000000000000000004944353742CFE0C80D
:10093800B1CFE0000000000000000000000000004F
:1009480000000000000000004944353843CFE0C8EB
:10095800B1CFE0000000000000000000000000002F
:10096800000000000000000049443539C6F8C1F70E
:10097800B6AACAA7B8E6BEAF000000000000000093
:10098800000000000000000049443630B9FDC2CB29
:10099800CDF8D4CBD0D0B3ACCAB100000000000071
:1009A800000000000000000049443631B9FDC2CB08
:1009B800CDF8B6C2B8E6BEAF0000000000000000E7
:1009C800000000000000000049443632D4B6B3CC21
:1009D800B9D8BBFAB8E6BEAF0000000000000000BE
:1009E800000000000000000049443633D2E7CBAED7
:1009F800B8E6BEAF000000000000000000000000E4
:100A0800000000000000000049443634C8BABFD8CE
:100A1800CDA8D0C5D2ECB3A30000000000000000B0
:100A2800000000000000000049443635B1A3C1F4BD
:100A380000000000000000000000000000000000AE
:100A4800000000000000000049443636B5CDB9FD6D
:100A5800C8C8B6C831B8E6BEAF0000000000000044
:100A6800000000000000000049443637B5CDB9FD4C
:100A7800C8C8B6C832B8E6BEAF0000000000000023
:100A8800000000000000000049443638D1CCCEED0B
:100A9800B8E6BEAF00000000000000000000000043
:100AA800000000000000000049443639D3C3BBA74A
:100AB800D7D4B6A8D2E5B8E6BEAF00000000000063
:100AC800000000000000000049443730B5E7D4B406
:100AD800D2ECB3A3000000000000000000000000FA
:100AE800000000000000000049443731B1A3C1F400
:100AF80000000000000000000000000000000000EE
:100B0800000000000000000049443732B1A3C1F4DE
:100B180000000000000000000000000000000000CD
:100B2800000000000000000049443733B1A3C1F4BD
:100B380000000000000000000000000000000000AD
:100B4800000000000000000049443734B1A3C1F49C
:100B5800000000000000000000000000000000008D
:100B6800000000000000000049443735B1A3C1F47B
:100B7800000000000000000000000000000000006D
:100B8800000000000000000049443736B1A3C1F45A
:100B9800000000000000000000000000000000004D
:100BA800000000000000000049443737B1A3C1F439
:100BB800000000000000000000000000000000002D
:100BC800000000000000000049443738B1A3C1F418
:100BD800000000000000000000000000000000000D
:100BE800000000000000000049443739B1A3C1F4F7
:100BF80000000000000000000000000000000000ED
:100C0800000000000000000049443830C5C5CBAEE4
:100C1800B8DFCBAECEBB0000000000000000000033
:100C2800000000000000000049443831BCD3CAAAC3
:100C3800C6F7D2ECB3A300000000000000000000DB
:100C4800000000000000000049443832B7E7D1B97D
:100C5800B9FDB5CD00000000000000000000000054
:100C6800000000000000000049443833B1A3C1F47B
:100C7800000000000000000000000000000000006C
:100C8800000000000000000049443834B8DFD1B942
:100C980031D1B9C1A600000000000000000000002A
:100CA800000000000000000049443835B1A3C1F439
:100CB800000000000000000000000000000000002C
:100CC8000000000000000000494438364D4F503104
:100CD800B8E6BEAF00000000000000000000000001
:100CE8000000000000000000494438374D4F5032E2
:100CF800B8E6BEAF000000000000000000000000E1
:100D08000000000000000000494438384C4F5031C2
:100D1800B8E6BEAF000000000000000000000000C0
:100D28000000000000000000494438394C4F5032A0
:100D3800B8E6BEAF000000000000000000000000A0
:100D4800000000000000000049443930C9E8B1B88B
:100D5800CAB9D3C3B3ACCAB1000000000000000098
:100D6800000000000000000049443931B1A3C1F47B
:100D7800000000000000000000000000000000006B
:100D8800000000000000000049443932B1A3C1F45A
:100D9800000000000000000000000000000000004B
:100DA800000000000000000049443933B1A3C1F439
:100DB800000000000000000000000000000000002B
:100DC800000000000000000049443934B1A3C1F418
:100DD800000000000000000000000000000000000B
:100DE800000000000000000049443935B1A3C1F4F7
:100DF80000000000000000000000000000000000EB
:100E0800000000000000000049443936B1A3C1F4D5
:100E180000000000000000000000000000000000CA
:100E2800000000000000000049443937B1A3C1F4B4
:100E380000000000000000000000000000000000AA
:100E4800000000000000000049443938B1A3C1F493
:100E5800000000000000000000000000000000008A
:100E6800000000000000000049443939B1A3C1F472
:100E7800000000000000000000000000000000006A
:100E880000000000000000004944313030B1A3C127
:100E9800F400000000000000000000000000000056
:100EA80000000000000000004944313031B1A3C106
:100EB800F400000000000000000000000000000036
:100EC80000000000000000004944313032B1A3C1E5
:100ED800F400000000000000000000000000000016
:100EE80000000000000000004944313033B1A3C1C4
:100EF800F4000000000000000000000000000000F6
:100F080000000000000000004944313034B1A3C1A2
:100F1800F4000000000000000000000000000000D5
:100F280000000000000000004944313035B1A3C181
:100F3800F4000000000000000000000000000000B5
:100F480000000000000000004944313036B1A3C160
:100F5800F400000000000000000000000000000095
:100F680000000000000000004944313037B1A3C13F
:100F7800F400000000000000000000000000000075
:100F880000000000000000004944313038B1A3C11E
:100F9800F400000000000000000000000000000055
:100FA80000000000000000004944313039B1A3C1FD
:100FB800F400000000000000000000000000000035
:100FC80000000000000000004944313130B1A3C1E5
:100FD800F400000000000000000000000000000015
:100FE80000000000000000004944313131B1A3C1C4
:100FF800F4000000000000000000000000000000F5
:1010080000000000000000004944313132B1A3C1A2
:10101800F4000000000000000000000000000000D4
:1010280000000000000000004944313133B1A3C181
:10103800F4000000000000000000000000000000B4
:1010480000000000000000004944313134B1A3C160
:10105800F400000000000000000000000000000094
:10106800000000000000000041AB270047AAF7007D
:1010780000000000000047AAE8000000000000008F
:1010880048AAFE000000000000000048AAEF000087
:10109800000000000000C10042AAE6000052AAD4E5
:1010A8000000000000000000000000000000000038
:1010B800000042AB08000042AB0A000042AB060049
:1010C8000044AB140000000042AB0C000044AB0E1F
:1010D8000000000002080000040B00000000040FDC
:1010E8000000000042AB120000010A006100A72ABC
:1010F80000C1814001C0804101C0804100C18140E0
:1011080001C0804100C1814000C1814001C08041CF
:1011180001C0804100C1814000C1814001C08041BF
:1011280000C1814001C0804101C0804100C18140AF
:1011380001C0804100C1814000C1814001C080419F
:1011480000C1814001C0804101C0804100C181408F
:1011580000C1814001C0804101C0804100C181407F
:1011680001C0804100C1814000C1814001C080416F
:1011780001C0804100C1814000C1814001C080415F
:1011880000C1814001C0804101C0804100C181404F
:1011980000C1814001C0804101C0804100C181403F
:1011A80001C0804100C1814000C1814001C080412F
:1011B80000C1814001C0804101C0804100C181401F
:1011C80001C0804100C1814000C1814001C080410F
:1011D80001C0804100C1814000C1814001C08041FF
:1011E80000C1814001C0804101C0804100C18140EF
:1011F8006100A82A00C0C101C30302C2C60607C70E
:1012080005C5C404CC0C0DCD0FCFCE0E0ACACB0B2E
:10121800C90908C8D81819D91BDBDA1A1EDEDF1F5E
:10122800DD1D1CDC14D4D515D71716D6D21213D34E
:1012380011D1D010F03031F133F3F23236F6F737FE
:10124800F53534F43CFCFD3DFF3F3EFEFA3A3BFBEE
:1012580039F9F83828E8E929EB2B2AEAEE2E2FEF9E
:101268002DEDEC2CE42425E527E7E62622E2E3230E
:10127800E12120E0A06061A163A3A26266A6A7673E
:10128800A56564A46CACAD6DAF6F6EAEAA6A6BABAE
:1012980069A9A86878B8B979BB7B7ABABE7E7FBFDE
:1012A8007DBDBC7CB47475B577B7B67672B2B373CE
:1012B800B17170B05090915193535292965657977E
:1012C800559594549C5C5D9D5F9F9E5E5A9A9B5B6E
:1012D80099595898884849894B8B8A4A4E8E8F4F1E
:1012E8008D4D4C8C4484854587474686824243838E
:1012F8004181804041961B004185500044969C00E6
:1013080000000041854B0044854C0000000070BC83
:10131800855F5A021003C80250155016000000FFDE
:101328005A020303C8000000A020031C00FF5A0251
:101338000301C8010039A023031900FF5A0206015E
:10134800C803A084A024010000395A020301C8017F
:101358000039A025010400FF5A020601C802A0872F
:10136800A027010400FF5A020303C8010039A0A006
:10137800011A00FF5A020302C8000000A0A30310CC
:1013880000FF5A020302C801000AAA00032600FF50
:101398005A020308C801000AAA02034100FF5A02C0
:1013A8000301C801000AAA0A036F00FF5A020301D9
:1013B800C801000AAA0B037700FF5A020301C801FB
:1013C800000AAA0C036500FF5A020301C801000ABB
:1013D800AA0D036C00FF5A020301C801000AAA0EF5
:1013E800037100FF5A020301C801000AAA0F03692A
:1013F80000FF5A020301C801000ACF23011000FFB1
:101408005A020301C801000ACF27019700FF5A02B8
:10141800031FC801000BAB20038C00FF5A02060112
:10142800C803AC80AC20023A000C5A020306C8007C
:10143800000DAEA0032000FF5A020301C801000FEF
:10144800CF27019700FF5A020307C803B300B32050
:10145800011A00135A020601C803B380B320011A07
:1014680000135A020601C803B382B322011C0013F9
:101478005A020601C803B383B323011D00135A029D
:101488000601C803B384B324011E00135A020601DF
:10149800C803B385B325011F00135A020601C80308
:1014A800B386B326012000135A02030BC803B40005
:1014B800B420015800145A020301C803B400B42B25
:1014C800013B00145A020301C803B400B42C019E66
:1014D80000145A020301C803B400B42D02CB00144F
:1014E8005A020601C803B480B420015800145A02F5
:1014F8000601C803B481B421015900145A02060137
:10150800C803B483B423015B00145A020601C8035C
:10151800B484B424015C00145A020601C803B485DB
:10152800B425015D00145A020601C803B486B42626
:10153800015E00145A020601C803B487B427015F8C
:1015480000145A020601C803B488B42801600014C4
:101558005A020601C803B48AB42A016200145A0266
:101568000601C803B48BB42B013B00145A020601D0
:10157800C803B48CB42C019E00145A020601C80397
:10158800B48DB42D02CB00145A020306C803B70069
:10159800B720013B00175A020305C803B700B72656
:1015A800014300175A020601C803B780B720013B60
:1015B80000175A020601C803B784B724013F001771
:1015C8005A020601C803B785B725014000175A0219
:1015D8000601C803B786B726014300175A02060159
:1015E800C803B787B727014400175A020601C80382
:1015F800B788B728014500175A020601C803B789FA
:10160800B729014600175A020601C803B78AB72A44
:10161800014700175A020301C803B800B820016A3D
:1016280000185A020303C803B800B821016D001856
:101638005A020301C803B800B824017200185A02FC
:101648000301C803B800B825017400185A02030141
:10165800C803B800B826017B00185A020301C80362
:10166800B800B827022A00185A020601C803B88031
:10167800B820016A00185A020601C803B881B821C7
:10168800016D00185A020601C803B882B822016E1B
:1016980000185A020601C803B883B823016F00185E
:1016A8005A020601C803B884B824017200185A0205
:1016B8000601C803B885B825017400185A02060146
:1016C800C803B886B826017B00185A020601C80369
:1016D800B887B827022A00185A020301C803BB00BA
:1016E800BB2001B0001B5A020302C803BB00BB2188
:1016F80001B2001B5A020302C803BB00BB2301B599
:10170800001B5A020302C803BB00BB2501B8001B1B
:101718005A020301C803BB00BB2701BB001B5A02C6
:101728000302C803BB00BB2801D1001B5A020302F5
:10173800C803BB00BB2A01FB001B5A020302C803F3
:10174800BB00BB2C0276001B5A020601C803BB80F3
:10175800BB2001B0001B5A020601C803BB81BB2194
:1017680001B2001B5A020601C803BB82BB2201B3A7
:10177800001B5A020601C803BB83BB2301B5001B2B
:101788005A020601C803BB84BB2401B6001B5A02D7
:101798000601C803BB85BB2501B8001B5A02060118
:1017A800C803BB86BB2601B9001B5A020601C80341
:1017B800BB87BB2701BB001B5A020601C803BB88B5
:1017C800BB2801D1001B5A020601C803BB89BB29EB
:1017D80001D2001B5A020601C803BB8ABB2A01FBBF
:1017E800001B5A020601C803BB8BBB2B01FC001B64
:1017F8005A020601C803BB8CBB2C0276001B5A0296
:101808000601C803BB8DBB2D0277001B5A020302D9
:10181800C803BC00BC200232001C5A020301C803E2
:10182800BC00BC220252001C5A020301C803BC00BF
:10183800BC230255001C5A020301C803BC00BC2487
:101848000258001C5A020301C803BC00BC250261EF
:10185800001C5A020302C803BC00BC260271001C0B
:101868005A020301C803BC00BC280286001C5A02A5
:101878000601C803BC80BC200232001C5A020601C3
:10188800C803BC81BC210233001C5A020601C803EC
:10189800BC82BC220252001C5A020601C803BC8347
:1018A800BC230255001C5A020601C803BC84BC2490
:1018B8000258001C5A020601C803BC85BC250261F7
:1018C800001C5A020601C803BC86BC260271001C13
:1018D8005A020601C803BC87BC270272001C5A02C0
:1018E8000601C803BC88BC280286001C5A020302F1
:1018F800C803BF00BF200102001F5A020301C8032A
:10190800BF00BF220107001F5A020301C803BF001E
:10191800BF2301A5001F5A020601C803BF80BF20CC
:101928000102001F5A020601C803BF81BF2101033B
:10193800001F5A020601C803BF82BF220107001F09
:101948005A020601C803BF83BF2301A5001F5A021C
:101958000308C803C200C220018200225A02030100
:10196800C803C200C228018C00225A020301C8031E
:10197800C200C229019800225A020601C803C28087
:10198800C220018200225A020601C803C281C22174
:10199800018300225A020601C803C282C2220184BE
:1019A80000225A020601C803C284C224018600220A
:1019B8005A020601C803C285C225018700225A02BD
:1019C8000601C803C286C226018800225A020601FF
:1019D800C803C287C227018900225A020601C80328
:1019E800C288C228018C00225A020601C803C28993
:1019F800C229019800225A020601C803C580C520E1
:101A0800023B000F5A020301C8010026CF270197A5
:101A180000FF5A020301C8010026C620010600FF84
:101A28005A020601C803C681C621010600265A02C9
:101A38000301C803C700C72001A600275A020301F3
:101A4800C803C700C72101A900275A020301C80318
:101A5800C700C72501AB00275A020301C803C70006
:101A6800C72602D900275A020301C803C700C7279F
:101A780002D800275A020302C803C700C72802CEAB
:101A880000275A020301C8010027A025010400FF0E
:101A98005A020601C803C780C72001A600275A02B8
:101AA8000601C803C781C72101A900275A020601F8
:101AB800C803C782C72201A800275A020301C80128
:101AC8000027C723037500FF5A020301C801002736
:101AD800C724037700FF5A020601C803C785C72534
:101AE80001AB00275A020601C803C786C72602D9D8
:101AF80000275A020601C803C787C72702D800274C
:101B08005A020601C803C788C72802CE00275A020E
:101B18000601C803C789C72902CF00275A02030153
:101B2800C803C800C820012700285A020301C803B7
:101B3800C800C821012900285A020304C803C800A4
:101B4800C822012D00285A020301C803C800C8266C
:101B5800019000285A020301C803C800C82701944D
:101B680000285A020302C803C800C828012B00280D
:101B78005A020601C803C880C820012700285A0253
:101B88000601C803C881C821012900285A02060194
:101B9800C803C882C822012D00285A020601C803BA
:101BA800C883C823012E00285A020601C803C88426
:101BB800C824012F00285A020601C803C885C82571
:101BC800013000285A020601C803C886C8260190B9
:101BD80000285A020601C803C887C82701940028AC
:101BE8005A020601C803C888C828012B00285A02CF
:101BF8000601C803C889C829012C00285A02030E07
:101C0800C8010029C9B0037800FF5A020601C803B9
:101C1800C990C930023C00295A020303C803CC000A
:101C2800CCA00302002C5A020304C803CF00CF2023
:101C3800010D002F5A020301C803CF00CF24014130
:101C4800002F5A020301C803CF00CF25015A002FE5
:101C58005A020301C803CF00CF2602D0002F5A0230
:101C68000301C803CF00CF270197002F5A020601AE
:101C7800C803CF80CF20010D002F5A020601C803E8
:101C8800CF81CF21010E002F5A020601C803CF824F
:101C9800CF22010F002F5A020601C803CF83CF239A
:101CA8000110002F5A020601C803CF84CF24014136
:101CB800002F5A020601C803CF85CF25015A002FED
:101CC8005A020601C803CF86CF2602D0002F5A0237
:101CD8000601C803CF87CF270197002F5A020601B4
:101CE800C803CF8ACF2A023B002F5A02030AC80131
:101CF8000034D420039C00FF5A020302C8010034B8
:101D0800D42A03A800FF5A020307C803D500D52028
:101D1800011A00355A020601C803D580D520011AD8
:101D280000355A020601C803D582D522011C0035A8
:101D38005A020601C803D583D523011D00355A026E
:101D48000601C803D584D524011E00355A020601B0
:101D5800C803D585D525011F00355A020601C803D9
:101D6800D586D526012000355A020301C803D600BE
:101D7800D620010800365A020302C803D600D6212D
:101D8800010A00365A020301C803D600D62301A768
:101D980000365A020601C803D680D620010800364C
:101DA8005A020601C803D681D621010A00365A0212
:101DB8000601C803D682D622010B00365A02060154
:101DC800C803D683D62301A700365A020301C803E5
:101DD800D800D82001F500385A020301C803D800FA
:101DE800D821020700385A02030CC803D800D822A9
:101DF80001BC00385A020301C803D800D82E027D5E
:101E080000385A020301C803D800D82F027F0038CF
:101E18005A020301C803D800D830020F00385A020A
:101E28000601C803D880D82001F500385A020601F7
:101E3800C803D881D821020700385A020601C8030E
:101E4800D882D82201BC00385A020601C803D883B8
:101E5800D82301BD00385A020601C803D884D82403
:101E680001BE00385A020601C803D885D82501BF2B
:101E780000385A020601C803D886D82601C000389F
:101E88005A020601C803D887D82701C100385A0268
:101E98000601C803D888D82801C200385A020601AA
:101EA800C803D889D82901C300385A020601C803D3
:101EB800D88AD82A01C400385A020601C803D88B28
:101EC800D82B01C500385A020601C803D88CD82C73
:101ED80001C600385A020601C803D88DD82D01C79B
:101EE80000385A020601C803D88ED82E027D003861
:101EF8005A020601C803D88FD82F027F00385A0229
:101F08000601C803D890D830020F00385A020301DE
:101F1800C801003ADA2003CD00FF5A020301C801C4
:101F2800003ADA2103CF00FF5A020302C801003A3F
:101F3800DA2203D100FF5A020301C801003ADA2469
:101F480003D500FF5A020301C801003ADA2503D776
:101F580000FF5A020301C801003ADA2603D900FF3C
:101F68005A020301C801003ADA2703DB00FF5A02CC
:101F78000301C801003ADA2803DD00FF5A02030111
:101F8800C803DB00DB20019A003B5A020301C803A7
:101F9800DB00DB2102D3003B5A020302C803DB004B
:101FA800DB2202D5003B5A020302C803DB00DB2414
:101FB80002D8003B5A020305C803DB00DB2602DB1C
:101FC800003B5A020301C803DB00DB2B0106003B80
:101FD8005A020301C803DB00DB2C02E1003B5A0272
:101FE8000302C803DB00DB2D02E4003B5A020302B4
:101FF800C803DB00DB2F0178003B5A020601C80347
:10200800DB80DB20019A003B5A020601C803DB8112
:10201800DB2102D3003B5A020601C803DB82DB2224
:1020280002D5003B5A020601C803DB83DB2302D634
:10203800003B5A020601C803DB84DB2402D8003BBC
:102048005A020601C803DB85DB2502D9003B5A0288
:102058000601C803DB86DB2602DB003B5A020601C9
:10206800C803DB87DB2702DC003B5A020601C803F2
:10207800DB88DB2802DD003B5A020601C803DB8946
:10208800DB2902DE003B5A020601C803DB8ADB2A91
:1020980002DF003B5A020601C803DB8BDB2B01067B
:1020A800003B5A020601C803DB8CDB2C02E1003B33
:1020B8005A020601C803DB8DDB2D02E4003B5A02FD
:1020C8000601C803DB8EDB2E02E5003B5A0206013F
:1020D800C803DB8FDB2F0178003B5A020601C803D7
:1020E800DB90DB300179003B5A020301C803DD00B5
:1020F800DD20019B003D5A020303C803DD00DD21FA
:1021080001E8003D5A020306C803DD00DD2401EDA5
:10211800003D5A020306C803DD00DD2A0153003DD5
:102128005A020601C803DD80DD20019B003D5A02EA
:102138000601C803DD81DD2101E8003D5A020601E0
:10214800C803DD82DD2201E9003D5A020601C80309
:10215800DD83DD2301EA003D5A020601C803DD8460
:10216800DD2401ED003D5A020601C803DD85DD25A9
:1021780001EE003D5A020601C803DD86DD2601EFA7
:10218800003D5A020601C803DD87DD2701F0003D46
:102198005A020601C803DD88DD2801F1003D5A0214
:1021A8000601C803DD89DD2901F2003D5A02060156
:1021B800C803DD8ADD2A0153003D5A020301C80124
:1021C800003EDE20037500FF5A020303C803DF0048
:1021D800DF200237003F5A020306C803DF00DF236F
:1021E800029E003F5A020303C803DF00DF290201F1
:1021F800003F5A020601C803DF80DF200237003F94
:102208005A020601C803DF81DF210238003F5A0263
:102218000601C803DF82DF220239003F5A020601A5
:10222800C803DF83DF23029E003F5A020601C8036A
:10223800DF84DF24029F003F5A020601C803DF85BE
:10224800DF2502A0003F5A020601C803DF86DF2609
:1022580002A1003F5A020601C803DF87DF2702A256
:10226800003F5A020601C803DF88DF2802A3003FA7
:102278005A020601C803DF89DF290201003F5A021A
:102288000601C803DF8ADF2A0202003F5A0206015C
:10229800C803DF8BDF2B0203003F5A020301C8018A
:1022A8000040E02203BE00FF5A020301C8010040BB
:1022B800E02303C900FF5A021002C803E080E020AF
:1022C800000000405A020301C8000000E00003CCEF
:1022D80000FF5A021002C803E080E020000000411D
:1022E8005A020301C803C700C72001A600435A02C7
:1022F8000301C803C700C72101A900435A0203010B
:10230800C803C700C72501AB00435A020301C8032D
:10231800C700C72602D900435A020301C803C700F1
:10232800C72702D800435A020302C803C700C728B8
:1023380002CE00435A020301C8010043A02501044C
:1023480000FF5A020601C803C780C72001A6004340
:102358005A020601C803C781C72101A900435A02CE
:102368000601C803C782C72201A800435A02030115
:10237800C8010043C723037500FF5A020301C801BF
:102388000043C724037700FF5A020601C803C78524
:10239800C72501AB00435A020601C803C786C726F2
:1023A80002D900435A020601C803C787C72702D8C3
:1023B80000435A020601C803C788C72802CE004353
:1023C8005A020601C803C789C72902CF00434E85B0
:1023D8005100000000000000000000000000004262
:1023E80080010000654880035A13B320B350B380BE
:1023F8005A13B322B352B3825A13B323B353B383DA
:102408005A13B324B354B3845A13B325B355B385BD
:102418005A13B326B356B3865A14B420B450B480B2
:102428005A14B421B451B4815A14B423B453B483A4
:102438005A14B424B454B4845A14B425B455B48585
:102448005A14B426B456B4865A14B427B457B48769
:102458005A14B428B458B4885A14B42AB45AB48A4A
:102468005A14B42BB45BB48B5A14B42CB45CB48C2B
:102478005A14B42DB45DB48D5A17B720B750B7802D
:102488005A17B724B754B7845A17B725B755B7851D
:102498005A17B726B756B7865A17B727B757B78701
:1024A8005A17B728B758B7885A17B729B759B789E5
:1024B8005A17B72AB75AB78A5A18B820B850B880E6
:1024C8005A18B821B851B8815A18B822B852B882E7
:1024D8005A18B823B853B8835A18B824B854B884CB
:1024E8005A18B825B855B8855A18B826B856B886AF
:1024F8005A18B827B857B8875A1BBB20BB50BB809F
:102508005A1BBB21BB51BB815A1BBB22BB52BB828E
:102518005A1BBB23BB53BB835A1BBB24BB54BB8472
:102528005A1BBB25BB55BB855A1BBB26BB56BB8656
:102538005A1BBB27BB57BB875A1BBB28BB58BB883A
:102548005A1BBB29BB59BB895A1BBB2ABB5ABB8A1E
:102558005A1BBB2BBB5BBB8B5A1BBB2CBB5CBB8C02
:102568005A1BBB2DBB5DBB8D5A1CBC20BC50BC800C
:102578005A1CBC21BC51BC815A1CBC22BC52BC8216
:102588005A1CBC23BC53BC835A1CBC24BC54BC84FA
:102598005A1CBC25BC55BC855A1CBC26BC56BC86DE
:1025A8005A1CBC27BC57BC875A1CBC28BC58BC88C2
:1025B8005A1FBF20BF50BF805A1FBF21BF51BF81C4
:1025C8005A1FBF22BF52BF825A1FBF23BF53BF83A8
:1025D8005A22C220C250C2805A22C221C251C2818C
:1025E8005A22C222C252C2825A22C224C254C2846D
:1025F8005A22C225C255C2855A22C226C256C2864E
:102608005A22C227C257C2875A22C228C258C28831
:102618005A22C229C259C2895A27C720C750C7801F
:102628005A27C721C751C7815A27C725C755C78504
:102638005A27C726C756C7865A27C727C757C787DF
:102648005A27C728C758C7885A27C729C759C789C3
:102658005A28C820C850C8805A28C821C851C881DB
:102668005A28C822C852C8825A28C823C853C883BF
:102678005A28C824C854C8845A28C825C855C885A3
:102688005A28C826C856C8865A28C827C857C88787
:102698005A28C828C858C8885A28C829C859C8896B
:1026A8005A2FCF20CF50CF805A2FCF21CF51CF8153
:1026B8005A2FCF22CF52CF825A2FCF23CF53CF8337
:1026C8005A2FCF24CF54CF845A2FCF25CF55CF851B
:1026D8005A2FCF26CF56CF865A2FCF27CF57CF87FF
:1026E8005A35D520D550D5805A35D522D552D582E0
:1026F8005A35D523D553D5835A35D524D554D584C1
:102708005A35D525D555D5855A35D526D556D586A4
:102718005A36D620D650D6805A36D621D651D681AA
:102728005A36D622D652D6825A36D623D653D6838E
:102738005A38D820D850D8805A38D821D851D8817A
:102748005A38D822D852D8825A38D823D853D8835E
:102758005A38D824D854D8845A38D825D855D88542
:102768005A38D826D856D8865A38D827D857D88726
:102778005A38D828D858D8885A38D829D859D8890A
:102788005A38D82AD85AD88A5A38D82BD85BD88BEE
:102798005A38D82CD85CD88C5A38D82DD85DD88DD2
:1027A8005A38D82ED85ED88E5A38D82FD85FD88FB6
:1027B8005A38D830D860D8905A3BDB20DB50DB80C1
:1027C8005A3BDB21DB51DB815A3BDB22DB52DB82CC
:1027D8005A3BDB23DB53DB835A3BDB24DB54DB84B0
:1027E8005A3BDB25DB55DB855A3BDB26DB56DB8694
:1027F8005A3BDB27DB57DB875A3BDB28DB58DB8878
:102808005A3BDB29DB59DB895A3BDB2ADB5ADB8A5B
:102818005A3BDB2BDB5BDB8B5A3BDB2CDB5CDB8C3F
:102828005A3BDB2DDB5DDB8D5A3BDB2EDB5EDB8E23
:102838005A3BDB2FDB5FDB8F5A3BDB30DB60DB9007
:102848005A3DDD20DD50DD805A3DDD21DD51DD8141
:102858005A3DDD22DD52DD825A3DDD23DD53DD8325
:102868005A3DDD24DD54DD845A3DDD25DD55DD8509
:102878005A3DDD26DD56DD865A3DDD27DD57DD87ED
:102888005A3DDD28DD58DD885A3DDD29DD59DD89D1
:102898005A3DDD2ADD5ADD8A5A3FDF20DF50DF80CE
:1028A8005A3FDF21DF51DF815A3FDF22DF52DF82CB
:1028B8005A3FDF23DF53DF835A3FDF24DF54DF84AF
:1028C8005A3FDF25DF55DF855A3FDF26DF56DF8693
:1028D8005A3FDF27DF57DF875A3FDF28DF58DF8877
:1028E8005A3FDF29DF59DF895A3FDF2ADF5ADF8A5B
:1028F8005A3FDF2BDF5BDF8B5A43C720C750C780A7
:102908005A43C721C751C7815A43C725C755C785E9
:102918005A43C726C756C7865A43C727C757C787C4
:102928005A43C728C758C7885A43C729C759C789A8
:10293800418000005CA9E7000000000000000000E2
:10294800000000000000000000000000000000007F
:102958000000005CA9BF00000000000000010000AA
:10296800000200027360000A2D08000310CC000763
:10297800ED6541A9BBFF608CA92F00000100020092
:1029880003000400050006000700080009000A000B
:102998000B000C000D000E000F01100011001202B8
:1029A80013001400150016001700180019001A006B
:1029B8001B021C001D001E001F0020002100220019
:1029C80023002403250026022700280029002A00C6
:1029D8002B002C002D002E002F0330003100320078
:1029E80033003400350036003700380039003A002B
:1029F8003B003C003D003E003F00400541004200D6
:102A08004300440045004CA9DB0001010302030315
:102A1800060402050042A9BD000042A92D0000429B
:102A2800A92A000041A92C0000AF13EF1313543F4B
:102A38005401640160030233F57B017AA57909909A
:102A4800A714F0A3740CF07F217EA012506B90A500
:102A58000BE0FEA3E0FF90A509E0FCA3E02FFFEC4C
:102A68003EFE90AA49E0FCA3E06F7002EE6C60584D
:102A780090A50BE0FEA3E0FF90A509E0FCA3E02FE2
:102A8800FFEC3EFE90AA49E0FCA3E0C39FEC9E50F9
:102A98001D90A513E4F0A304F0FB7AA5791390A781
:102AA80026E4F0A37402F07F267EA01252D890A5E7
:102AB8000BE0FEA3E0FF90A509E0FCA3E02FFFECEC
:102AC8003E90AA49F0A3EFF090A509E0FEA3E0D359
:102AD8009400EE9400500CA3E0FEA3E09400EE9462
:102AE80000402090A513E0FEA3E04E60167B017A1B
:102AF800AA793790A726E4F0A37402F07FA07E009D
:102B08001252D890AB1FE0FEA3E0640D4E600302A2
:102B18002EB290AB1FE0A3E0FF90AA63E0FCA3E015
:102B28006F7002EC6E601EE490AA68F0A3F07B015F
:102B38007AAA796890A726F0A37402F07F017EAE86
:102B48001252D880167B017AAA796890A714E4F00B
:102B5800A37402F07F017EAE12506B7B017AA579D7
:102B68000990A714E4F0A37410F07FA07EAE125071
:102B78006BE490A517F0A3E05407F07B017AAA79DB
:102B88003978097CA57D017E007F10123A57EF70D5
:102B98002F90AA65E0FEA3E0FF90AA68E0FCA3E0FE
:102BA800B5071DECB5061990AB1FE0FEA3E0FF903A
:102BB800AA63E0FCA3E06F7002EC6E70030231A719
:102BC8007B017AA5790978397CAA7D017E007F107E
:102BD8001234C6E490AA67F090A53CF090A53CE0BA
:102BE800C39408748094804003022E5AE490A53B55
:102BF800F090A53BE0C39410748094804003022EAB
:102C080051A3E0C454F0FF90A53BE02F90A540F0FD
:102C1800E075F018A42400FFE5F03435FE7B017A56
:102C2800A5790990A714E4F0A37430F012506B7BD7
:102C3800017AA5790990A53D12387590A53BE0FF6A
:102C48007E007401A807088005C333CE33CED8F9B7
:102C5800FF90A53CE025E02439F582E434AAF58309
:102C6800E0FCA3E0FDEE5CFEEF5D4E7003022DA8D4
:102C780090A53D12385512360D645A7004E5F0647B
:102C8800A57003022D4590A53D12385574A575F021
:102C98005A1236707B017AA5791D90A714E4F0A327
:102CA8007408F07F107E0012506B7B017AA5791DA5
:102CB800780B7CA57D017E007F031234C67B017AE8
:102CC800A57921780E7CA57D017E007F031234C68C
:102CD8007E007F087D007B017AA57911123A7B90EE
:102CE800A540E0FF90A517E4F0A3EFF07B017AA5DB
:102CF8007919C002C00190A54075F020A424A9F953
:102D0800749635F0FA90A55412387590A557E4F0EA
:102D1800A37420F0D001D00212777890A540E07516
:102D2800F018A42400FFE5F03435FE7B017AA5797C
:102D38000990A726E4F0A37430F01252D890AA683C
:102D4800E0FEA3E0FF7C007D0A12354490AA67E00C
:102D5800C39FEC9E4041A3E0FEA3E0FF123544EF81
:102D6800240AFFE43EFE90AA67E0C39FEC9E50272A
:102D780090A540E075F018A42400FDE5F03435FC7A
:102D880090AA68E0A3E075F00AA4FF90AA67E0C3E0
:102D98009FFF7B0D12688690AA67E004F0022E4818
:102DA80090A53D12385512360D645A7004E5F0644A
:102DB800A56003022E487B017AA5791D90A714F01F
:102DC800A37408F07F107E0012506B7B017AA579FE
:102DD8001D78117CA57D017E007F031234C67B011E
:102DE8007AA5792178147CA57D017E007F031234B1
:102DF800C690A540E0FF90A517E4F0A3EFF07B0193
:102E08007AA5790990A726E4F0A37410F07F007ED4
:102E1800301252D8126F2EE490A509F0A3F090A5B5
:102E280040E075F018A42400FFE5F03435FE7B017E
:102E38007AA5790990A726E4F0A37402F01252D873
:102E480090A53BE004F0022BF990A53CE004F002C9
:102E58002BE490AA67E090A53BF090AA68E0FEA357
:102E6800E0FF7C007D0A123544EF240AFFE43EFEB1
:102E780090A53BE0C39FEC9E501D90AA68E0A3E09C
:102E880075F00AA4FF90A53BE0C39FFF126363900F
:102E9800A53BE004F080C390AA68E0FEA3E0FF90A1
:102EA800AA65EEF0A3EFF00231A77B017AA57909B4
:102EB80090A714E4F0A37410F07FA07EAE12506BBC
:102EC800E490A517F0A3E05407F07B017AAA7939BA
:102ED80078097CA57D017E007F10123A57EF7003B8
:102EE8000231A77B017AA57909783D7CA57D017E11
:102EF800007F101234C6E490A53CF090A53CE0C3D6
:102F08009406748094804003023194E490A53BF0C9
:102F180090A53BE0C3941074809480400302318BE9
:102F2800E0FF7E007401A807088005C333CE33CEC6
:102F3800D8F9FF90A53CE025E0243DF582E434A5CE
:102F4800F583E0FCA3E0FDEE5CFCEF5DFD90A53BA6
:102F5800E0FF7E007401A807088005C333CE33CE96
:102F6800D8F9FF90A53CE025E02439F582E434AA9D
:102F7800F583E0FAA3E0FBEE5AFEEF5B6D7002EE1C
:102F88006C700302318290A53CE0C454F0FF90A518
:102F98003BE02F90A550F0E075F018A42400FFE561
:102FA800F03435FE7B017AA5790990A714E4F0A3E3
:102FB8007430F012506B7B017AA5790990A54D12F7
:102FC800387590A53BE0FF7E007401A807088005CE
:102FD800C333CE33CED8F9FF90A53CE025E0243D9D
:102FE800F582E434A5F583E0FCA3E0FDEE5CFEEF9A
:102FF8005D4E70030230CF90A54D12385512360D34
:10300800645A7004E5F064A5700302318290A54DFE
:1030180012385574A575F05A1236707B017AA57965
:103028001D90A714E4F0A37408F07F107E001250DE
:103038006B7B017AA5791D780B7CA57D017E007FCD
:10304800031234C67B017AA57921780E7CA57D010F
:103058007E007F031234C67E007F087D007B017AE4
:10306800A57911123A7B90A550E0FF90A517E4F0DE
:10307800A3EFF07B017AA57919C002C00190A55091
:1030880075F020A424A9F9749635F0FA90A5541285
:10309800387590A557E4F0A37420F0D001D002123F
:1030A800777890A550E075F018A42400FFE5F03477
:1030B80035FE7B017AA5790990A726E4F0A3743040
:1030C800F01252D802318290A54D12385512360DA1
:1030D800645A7004E5F064A560030231827B017ACA
:1030E800A5791D90A714F0A37408F07F107E001234
:1030F800506B7B017AA5791D78117CA57D017E0036
:103108007F031234C67B017AA5792178147CA57DCA
:10311800017E007F031234C690A550E0FF90A517EA
:10312800E4F0A3EFF07B017AA5790990A726E4F0F3
:10313800A37410F07F007E301252D8126F2EE490E4
:10314800A509F0A3F090A550E075F018A42400FF9D
:10315800E5F03435FE7B017AA5790990A726E4F0DD
:10316800A37402F01252D890AA68E0FEA3E02401EA
:10317800FFE43E90AA65F0A3EFF090A53BE004F0D1
:10318800022F1890A53CE004F0022F037B017AA5DA
:10319800793D78397CAA7D017E007F101234C69073
:1031A800AB1FE0FEA3E0640E4E60030233E590AB74
:1031B8001FE0A3E0FF90AA63E0FCA3E06F7002ECBD
:1031C8006E601EE490AA68F0A3F07B017AAA796881
:1031D80090A726F0A37402F07F017EAE1252D88029
:1031E800347B017AAA796890A714E4F0A37402F0FA
:1031F8007F017EAE12506B90AA65E0FEA3E0FF90BF
:10320800AA68E0FCA3E06F7002EC6E70030233E57D
:1032180080030233E590AA68E0FEA3E0FF90AA6568
:10322800EEF0A3EFF0E4A3F090AA67E0C3940A7469
:1032380080948040030233CBA3E0FEA3E0FF7C0030
:103248007D0A12354490AA67E02FFFEC3EFE90AA53
:1032580061E0FCA3E0FDC3EF9DEE9C40030233CB8D
:1032680090AA68E0FEA3E0FF7C007D0A1235449036
:10327800AA67E02FFFEC3EFE90AA5DE0FCA3E0D336
:103288009FEC9E403290AA68E0FEA3E0FF7C00120B
:10329800354490AA67E02FFFEC3EFEEF2401FFE4DF
:1032A8003EFE90AA5DE0FCA3E0C39FFFEC9E90A5C4
:1032B8003DF0A3EFF0803A90AA68E0FEA3E0FF7C1F
:1032C800007D0A12354490AA67E02FFFEC3EFEEF1E
:1032D8002401FFE43EFE90AA5DE0FCA3E02400FD8B
:1032E800EC3402FCC3ED9FFFEC9E90A53DF0A3EFEC
:1032F800F090A53DE0FEA3E07803C333CE33CED8EB
:10330800F92400FFEE3420FEE4FCFD90A7121238E9
:103318000C90A716E4F0A37408F07D007C307F5A67
:103328001273D57B017AA5790990A714E4F0A374E8
:1033380010F07F007E3012506B7B017AA57919C09E
:1033480003C002C00190A517E0FEA3E07805C333CF
:10335800CE33CED8F924A9F974963EFA7B0190A50C
:103368005412387590A557E4F0A37420F0D001D01A
:1033780002D00312777890AA67E025E0246AF582E4
:10338800E434AAF583E0FEA3E0FF7B017AA579097E
:1033980090A726E4F0A37430F01252D890AA67E000
:1033A80025E0246AF582E434AAF583E0FCA3E0FD75
:1033B80090AA67E0FF7B0E12688690AA67E004F087
:1033C80002323090AA67E0C3940A74809480500D4A
:1033D800E0FF12636390AA67E004F080E690AB1FF9
:1033E800E0FEA3E0FF90AA63EEF0A3EFF022E70966
:1033F800F608DFFA8046E709F208DFFA803E88829D
:103408008C83E709F0A3DFFA8032E309F608DFFAD4
:103418008078E309F208DFFA807088828C83E309F8
:10342800F0A3DFFA806489828A83E0A3F608DFFAD2
:10343800805889828A83E0A3F208DFFA804C80D220
:1034480080FA80C680D4806980F28033801080A69C
:1034580080EA809A80A880DA80E280CA80338982F4
:103468008A83ECFAE493A3C8C582C8CCC583CCF0A0
:10347800A3C8C582C8CCC583CCDFE9DEE7800D8947
:10348800828A83E493A3F608DFF9ECFAA9F0EDFB4E
:103498002289828A83ECFAE0A3C8C582C8CCC58396
:1034A800CCF0A3C8C582C8CCC583CCDFEADEE880EF
:1034B800DB89828A83E493A3F208DFF980CC88F061
:1034C800EF60010E4E60C388F0ED2402B404005092
:1034D800B9F582EB2402B4040050AF2323458223BC
:1034E80090344673BB010689828A83E0225002E742
:1034F80022BBFE02E32289828A83E49322BB010C69
:10350800E58229F582E5833AF583E0225006E9252C
:1035180082F8E622BBFE06E92582F8E222E5822946
:10352800F582E5833AF583E49322BB010689828A12
:1035380083F0225002F722BBFE01F322EF8DF0A4A4
:10354800A8F0CF8CF0A428CE8DF0A42EFE22BC00CB
:103558000BBE0029EF8DF084FFADF022E4CCF875A6
:10356800F008EF2FFFEE33FEEC33FCEE9DEC9840B5
:1035780005FCEE9DFE0FD5F0E9E4CEFD22EDF8F551
:10358800F0EE8420D21CFEADF075F008EF2FFFEDB1
:1035980033FD4007985006D5F0F222C398FD0FD5A9
:1035A800F0EA22C2D5EC30E709B2D5E4C39DFDE4C8
:1035B8009CFCEE30E715B2D5E4C39FFFE49EFE12F3
:1035C8003556C3E49DFDE49CFC800312355630D586
:1035D80007C3E49FFFE49EFE22C5F0F8A3E028F0AD
:1035E800C5F0F8E582158270021583E038F022A351
:1035F800F8E0C5F025F0F0E582158270021583E049
:10360800C838F0E822BB010A89828A83E0F5F0A372
:10361800E022500687F009E71922BBFE07E3F5F020
:1036280009E3192289828A83E493F5F074019322CD
:10363800BB0110E58229F582E5833AF583E0F5F0D0
:10364800A3E0225009E92582F886F008E622BBFEAD
:103658000AE92582F8E2F5F008E222E5832AF583F3
:10366800E993F5F0A3E99322BB010A89828A83F0E2
:10367800E5F0A3F0225006F709A7F01922BBFE06D1
:10368800F3E5F009F31922EF2BFFEE3AFEED39FDD1
:10369800EC38FC22E88FF0A4CC8BF0A42CFCE98E4B
:1036A800F0A42CFC8AF0EDA42CFCEA8EF0A4CDA8A2
:1036B800F08BF0A42DCC3825F0FDE98FF0A42CCDAB
:1036C80035F0FCEB8EF0A4FEA9F0EB8FF0A4CFC58B
:1036D800F02ECD39FEE43CFCEAA42DCE35F0FDE415
:1036E8003CFC2275F008758200EF2FFFEE33FECD0B
:1036F80033CDCC33CCC58233C5829BED9AEC99E5AA
:103708008298400CF582EE9BFEED9AFDEC99FC0F39
:10371800D5F0D6E4CEFBE4CDFAE4CCF9A88222B801
:1037280000C1B90059BA002DEC8BF084CFCECDFC86
:10373800E5F0CBF97818EF2FFFEE33FEED33FDEC13
:1037480033FCEB33FB10D703994004EB99FB0FD8FC
:10375800E5E4F9FA227818EF2FFFEE33FEED33FD9A
:10376800EC33FCC933C910D7059BE99A4007EC9B99
:10377800FCE99AF90FD8E0E4C9FAE4CCFB2275F029
:1037880010EF2FFFEE33FEED33FDCC33CCC833C83A
:1037980010D7079BEC9AE899400AED9BFDEC9AFC40
:1037A800E899F80FD5F0DAE4CDFBE4CCFAE4C8F9EF
:1037B80022EB9FF5F0EA9E42F0E99D42F0EC64802E
:1037C800C864809845F022EB9FF5F0EA9E42F0E944
:1037D8009D42F0E89C45F022E86010ECA2E713FC5B
:1037E800ED13FDEE13FEEF13FFD8F022E0FCA3E08B
:1037F800FDA3E0FEA3E0FF22E0F8A3E0F9A3E0FACE
:10380800A3E0FB22ECF0A3EDF0A3EEF0A3EFF0228F
:10381800A8828583F0D083D08212382F12382F12D5
:10382800382F12382FE473E493A3C583C5F0C583FA
:10383800C8C582C8F0A3C583C5F0C583C8C582C8FA
:1038480022A42582F582E5F03583F58322E0FBA3E7
:10385800E0FAA3E0F922F8E0FBA3A3E0F925F0F0F1
:10386800E582158270021583E0FA38F022EBF0A3A6
:10387800EAF0A3E9F022D083D082F8E493701274BE
:103888000193700DA3A393F8740193F5828883E4E0
:10389800737402936860EFA3A3A380DFD083D08200
:1038A800F8E4937012740193700DA3A393F8740154
:1038B80093F5828883E473740293B5F006740393D6
:1038C8006860E9A3A3A3A380D8E3F5F009E208B5EB
:1038D800F06BDFF58067E3F5F009E608B5F05EDF29
:1038E800F5805A87F009E608B5F052DFF6804E8772
:1038F800F009E208B5F046DFF6804288828C8387BB
:10390800F009E0A3B5F036DFF6803288828C838731
:10391800F009E493A3B5F025DFF5802188828C8334
:10392800E3F5F009E0A3B5F014DFF5801088828C88
:1039380083E3F5F009E493A3B5F002DFF4023A005B
:10394800808780E9809080D4803E8015806E807E5C
:10395800809D80B7808D80A380518074803C023A1E
:103968000C89828A83ECFAE493F5F0A3C8C582C86F
:10397800CCC583CCE493A3C8C582C8CCC583CCB5D9
:10398800F076DFE3DEE1807089828A83E493F5F0E4
:10399800A3E208B5F062DFF4805E89828A83E0F5ED
:1039A800F0A3E608B5F051DFF5804D89828A83E0FF
:1039B800F5F0A3E208B5F040DFF5803C89828A8300
:1039C800E493F5F0A3E608B5F02EDFF4802A800230
:1039D800805789828A83ECFAE493F5F0A3C8C582FC
:1039E800C8CCC583CCE0A3C8C582C8CCC583CCB538
:1039F800F006DFE4DEE280007FFFB5F0020F224030
:103A0800027F012289828A83ECFAE0F5F0A3C8C517
:103A180082C8CCC583CCE0A3C8C582C8CCC583CC3A
:103A2800B5F0D5DFE5DEE380CF89828A83ECFAE062
:103A3800F5F0A3C8C582C8CCC583CCE493A3C8C598
:103A480082C8CCC583CCB5F0AFDFE4DEE280A988BC
:103A5800F0EF60010E4E60ABED2402B40400509804
:103A6800F582EB2402B40400508E23234582239070
:103A7800394873EF4E6012EF60010EEDBB010B8900
:103A8800828A83F0A3DFFCDEFA2289F05007F70967
:103A9800DFFCA9F022BBFEFCF309DFFCA9F022F849
:103AA800BB010DE58229F582E5833AF583E8F0222A
:103AB8005006E92582C8F622BBFE05E92582C8F230
:103AC800227BFF7A83792178447CA57D017E007F63
:103AD8003E1234C67BFF7A83795F78837CA57D01AB
:103AE8007E007F241234C67B017AA5794490A714FE
:103AF800E4F0A3743EF07F207EAB12506BE490A5F7
:103B080082F090A582E0C3941074809480400302F0
:103B18003D6AE0FF7E007401A807088005C333CE24
:103B280033CED8F9FF90A54AE0FCA3E0FDEE5CFE99
:103B3800EF5D4E7003023D4E90A582E0FF7E00745B
:103B480001A807088005C333CE33CED8F9FF90A566
:103B58004EE0FCA3E0FDEE5CFEEF5D4E7003023C20
:103B6800FB90A582E0FF1313543F2407FFE4339032
:103B7800A5A9F0A3EFF090A5A9E0FEA3E025E0FF3A
:103B8800EE33FE74442FF58274A53EF583E0FEA360
:103B9800E0FF90A582E0540325E025E0FDEFA805AD
:103BA800088005CEC313CE13D8F9540FFF90A5A7EC
:103BB800E4F0A3EFF090A5A7E0FEA3E08EF01238A2
:103BC800A43BED00003C0500013C1D00023C350013
:103BD800043C4C00053C6300063C7A00083C91001C
:103BE8000900003CA890A582E025E02483F582E442
:103BF80034A5F583E4F0A37405F0023CBD90A582DA
:103C0800E025E02483F582E434A5F583E4F0A37489
:103C180006F0023CBD90A582E025E02483F582E40D
:103C280034A5F583E4F0A37407F0023CBD90A582A7
:103C3800E025E02483F582E434A5F583E4F0A37459
:103C480008F0807190A582E025E02483F582E434B1
:103C5800A5F583E4F0A37409F0805A90A582E025C5
:103C6800E02483F582E434A5F583E4F0A3740AF034
:103C7800804390A582E025E02483F582E434A5F50D
:103C880083E4F0A37403F0802C90A582E025E0245F
:103C980083F582E434A5F583E4F0A37404F0801579
:103CA80090A582E025E02483F582E434A5F583E439
:103CB800F0A37405F090A582E0FF7E007401A807C8
:103CC800088005C333CE33CED8F9FF90A546E0FC73
:103CD800A3E0FDEE5CFEEF5D4E607E90A582E025E0
:103CE800E02483F582E434A5F583E475F008123501
:103CF800E1806690A582E0FF7E007401A807088035
:103D080005C333CE33CED8F9FF90A546E0FCA3E037
:103D1800FDEE5CFEEF5D4E601790A582E025E02485
:103D280083F582E434A5F583E4F0A37402F08029D6
:103D380090A582E025E02483F582E434A5F583E4A8
:103D4800F0A304F0801390A582E025E02483F58297
:103D5800E434A5F583E4F0A3F090A582E004F00232
:103D68003B0A90A5827410F090A582E0C394127467
:103D78008094804003023FDBE024F0FF7E00740162
:103D8800A807088005C333CE33CED8F9FF90A54CD9
:103D9800E0FCA3E0FDEE5CFEEF5D4E7003023FBF6A
:103DA80090A582E024F0FF7E007401A80708800532
:103DB800C333CE33CED8F9FF90A550E0FCA3E0FD85
:103DC800EE5CFEEF5D4E7003023F6A90A582E0FF55
:103DD8001313543F2407FFE43390A5A9F0A3EFF091
:103DE80090A5A9E0FEA3E025E0FFEE33FE74442F82
:103DF800F58274A53EF583E0FEA3E0FF90A582E07E
:103E0800540325E025E0FDEFA805088005CEC3137F
:103E1800CE13D8F9540FFF90A5A7E4F0A3EFF090C4
:103E2800A5A7E0FEA3E08EF01238A43E5700003E9E
:103E38006F00013E8700023E9F00043EB600053E2B
:103E4800CD00063EE400083EFB000900003F12904A
:103E5800A582E025E02483F582E434A5F583E4F027
:103E6800A37405F0023F2790A582E025E02483F59E
:103E780082E434A5F583E4F0A37406F0023F2790AA
:103E8800A582E025E02483F582E434A5F583E4F0F7
:103E9800A37407F0023F2790A582E025E02483F56C
:103EA80082E434A5F583E4F0A37408F0807190A54A
:103EB80082E025E02483F582E434A5F583E4F0A3C9
:103EC8007409F0805A90A582E025E02483F582E405
:103ED80034A5F583E4F0A3740AF0804390A582E04A
:103EE80025E02483F582E434A5F583E4F0A3740384
:103EF800F0802C90A582E025E02483F582E434A5A7
:103F0800F583E4F0A37404F0801590A582E025E021
:103F18002483F582E434A5F583E4F0A37405F090D6
:103F2800A582E024F0FF7E007401A807088005C37D
:103F380033CE33CED8F9FF90A548E0FCA3E0FDEEE0
:103F48005CFEEF5D4E7003023FD290A582E025E053
:103F58002483F582E434A5F583E475F0081235E18D
:103F6800806890A582E024F0FF7E007401A807080D
:103F78008005C333CE33CED8F9FF90A548E0FCA323
:103F8800E0FDEE5CFEEF5D4E601790A582E025E057
:103F98002483F582E434A5F583E4F0A37402F08069
:103FA8002990A582E025E02483F582E434A5F583F1
:103FB800E4F0A304F0801390A582E025E02483F5C3
:103FC80082E434A5F583E4F0A3F090A582E004F040
:103FD800023D707B017AA5798390A726E4F0A3744B
:103FE80024F07FA07EAB1252D822E51330E0167B76
:103FF800017AAB791F90A714E4F0A37402F07F1440
:104008007E0012506BE51320E2030244A790AB1F19
:10401800E0FEA3E04E702690AB18E0C394067480CF
:1040280094805005E004F0801490AB18E0640670AA
:104038000C7F39FE127C5290AB18E004F090AB1F55
:10404800E0FEA3E0640B4E7003123AC990AB1FE088
:10405800FEA3E064294E60030241357B017AA5790D
:104068000C90A714F0A3741CF07FB07EC912506B9B
:10407800E490A509F090A509E0C3940774809480A2
:10408800400302411FE025E025E0240CF582E434DA
:10409800A5F583E0FEA3E0C4F8540FC868FDEEC49C
:1040A80054F048FC90A509E025E025E0240EF582AF
:1040B800E434A5F583E0FEA3E0EEC4540F2DFFE43D
:1040C8003C90A50AF0A3EFF090A50AE0FEA3E0FF5C
:1040D8007C007D1812355690A509E025E02428F5C6
:1040E80082E434A5F583EEF0A3EFF090A50AE0FE94
:1040F800A3E0FF7C007D1812355690A509E025E065
:104108002436F582E434A5F583ECF0A3EDF090A510
:1041180009E004F002407D7B017AA5792890A72662
:10412800E4F0A3741CF07F207EC91252D890AB1F14
:10413800E0FEA3E0642C4E60030242157B017AA5E1
:10414800791990A714F0A37406F07FA07ECC1250C2
:104158006B90A519E0FEA3E0FFEEC4F854F0C86820
:10416800FEEFC4540F4890A509EEF0A3E4F090A523
:1041780009E0FCA3E0FD90A519E0FEA3E07807CED6
:10418800C313CE13D8F9541FFFECFEED4FFF90A5D3
:1041980009EEF0A3EFF090A519E0A3E0547F90A5F5
:1041A8000BF0A3E4F090A50BE0FCA3E0FD90A51DA7
:1041B800E0FEA3E0EEFFECFEED4FFF90A50BEEF066
:1041C800A3EFF090A51DE0A3E090A50DF0A3E4F007
:1041D80090A51BE0FEA3E0FF90A50FEEF0A3EFF083
:1041E800A37402F0A314F0A37404F0A37420F0E401
:1041F800A3F0A3F0A3F0A3F07B017AA5790990A717
:1042080026F0A37410F07F207ECC1252D890AB1FFA
:10421800E0FEA3E0642F4E60030242F67B017AA51C
:10422800790990A714F0A37402F07F107ECF125082
:104238006B7B017AA5790D90A714E4F0A37402F0C2
:104248007F227ECF12506B90A509E0FEA3E0FF907D
:10425800AB19E0FCA3E06F7002EC6E606090A509FA
:10426800E0A3E090AB19EEF0A3EFF090A50DE0FE0F
:10427800A3E0543FFF90A50DEEF0A3EFF090A50D3D
:10428800E0FCA3E0FD90A509E0A3E07E00540378DC
:1042980006C333CE33CED8F9FFEC4EFEED4FFF9078
:1042A800A50DEEF0A3EFF07B017AA5790D90A72676
:1042B800E4F0A37402F07F227ECF1252D890A50DAD
:1042C800E0FEA3E07806CEC313CE13D8F95403FF5B
:1042D80090A50FE4F0A3EFF07B017AA5790F90A7E2
:1042E80026E4F0A37402F07F117ECF1252D890AB6F
:1042F8001FE0FEA3E064274E600B90AB1FE0A3E035
:1043080064434E705690AB1BE0C394057480948050
:10431800504290A509E4F0A304F0FB7AA57909902E
:10432800A726E4F0A37402F07F277EA01252D8904B
:10433800A509E4F0A3745AF07B017AA5790990A73E
:1043480026E4F0A37402F07F877EA01252D890ABC7
:104358001BE004F0E490AB1CF0807290AB1CE0C34F
:104368009405748094805060E490A509F0A3F07BD4
:10437800017AA5790990A714F0A37402F07F297E29
:10438800C712506B90A509E0FEA3E04E70347B0184
:104398007AA5790990A726F0A37402F07F277EA05A
:1043A8001252D890A509E4F0A3745AF07B017AA5BB
:1043B800790990A726E4F0A37402F07F877EA01203
:1043C80052D890AB1CE004F0E490AB1BF07B017A70
:1043D800A5790990A714E4F0A37402F07F167E0073
:1043E80012506B90A509E0FEA3E04E6025E490A56D
:1043F80009F0A3F07B017AA5790990A726F0A374A8
:1044080002F07F167E001252D8E490AB1DF0A3F0A4
:10441800804690AB1DE0FEA3E0C39458EE94025092
:104428000C90AB1DE475F0011235E1802B90AB1DAB
:10443800E0FEA3E0B45821EEB4021D90AB1DE47574
:10444800F0011235E190AB1FE0FEA3E064394E6045
:10445800077F397E00127C527B017AA5790990A7E3
:1044680014E4F0A37402F07F007EE012506B90A574
:1044780009E0FEA3E0EE30E01490AB1FE0FEA3E0FD
:1044880064414E601A7F417E00127C522290AB1F1D
:10449800E0FEA3E064414E70067F39FE127C522292
:1044A80090A50E12387590A511ECF0A3EDF090A52B
:1044B80011E0FEA3E0C39405EE940050030247FD0B
:1044C800E4A3F0A3F090A50E12385590A513E0FED2
:1044D800A3E0F5828E83123505640260030247D794
:1044E80090A50E12385590A513E0A3E029F9EA3EED
:1044F800FA90000112350512387E450F03465E0614
:10450800472010000047D790A50E12385590A513E4
:10451800E0FEA3E029F9EA3EFA900002123505FF11
:1045280090A517E4F0A3EFF090A513E0A3E0FF90A7
:10453800A517E0FCA3E02FFFEC3EFEEF2405FFE407
:104548003EFE90A511E0FCA3E0FDD3EF9DEE9C405C
:104558001190A511E0FEA3E0FFA3EEF0A3EFF00297
:1045680047D790A50E12385590A513E0FEA3E02971
:10457800F9EA3EFA90A517E0FEA3E02403FDE43E25
:10458800FC1274D990A515EEF0A3EFF090A50E12C9
:10459800385590A513E0FEA3E029F9EA3EFA90A564
:1045A80017E0FEA3E029F9EA3EFA90000312350568
:1045B800FD90A515E0FEA3E0EE6D7001E460030236
:1045C80047D790A50E12385590A513E0FEA3E02911
:1045D800F9EA3EFA90A517E0FEA3E029F9EA3EFAC7
:1045E800900004123505FF90A515E0A3E06F700157
:1045F800E460030247D7908559E0FEA3E0FF90A549
:104608000E12385590A513E0FCA3E029F9EA3CFA0C
:10461800E92403F9E43AFA90A517E0FCA3E0FD9039
:10462800A726ECF0A3EDF01252D87E007F0E7D0095
:104638007B017A857951123A7B90A517E0FEA3E0B9
:104648002405FFE43E90A513F0A3EFF0908000E06E
:104658004402F00247D790A513E0FEA3E02408FF28
:10466800E43EFE90A511E0FCA3E0FDD3EF9DEE9C97
:10467800401190A511E0FEA3E0FFA3EEF0A3EFF038
:104688000247D790A50E12385590A513E0FEA3E077
:1046980029F9EA3EFA7D067C001274D990A515EE38
:1046A800F0A3EFF090A50E12385590A513E0FEA3E5
:1046B800E029F9EA3EFA900006123505FD90A515A5
:1046C800E0FEA3E0EE6D7001E460030247D790A519
:1046D8000E12385590A513E0FEA3E029F9EA3EFA38
:1046E800900007123505FF90A515E0A3E06F700153
:1046F800E460030247D790A51375F0081235E17EF0
:10470800007F0E7D007B017A857951123A7B90807B
:1047180000E04402F00247D790A513E0FEA3E0248E
:1047280008FFE43EFE90A511E0FCA3E0FDD3EF9D59
:10473800EE9C401190A511E0FEA3E0FFA3EEF0A3CC
:10474800EFF00247D790A50E12385590A513E0FE5A
:10475800A3E029F9EA3EFA7D067C001274D990A5F7
:1047680015EEF0A3EFF090A50E12385590A513E0C2
:10477800FEA3E029F9EA3EFA900006123505FD90FD
:10478800A515E0FEA3E0EE6D7001E4704290A50E61
:1047980012385590A513E0FEA3E029F9EA3EFA90F5
:1047A8000007123505FF90A515E0A3E0B50720E442
:1047B80090A51375F0081235E17E007F0E7D007B11
:1047C800017A857951123A7B908000E04402F0909A
:1047D800A513E475F0011235E190A511E0FEA3E000
:1047E80024FBFFEE34FFFEA3E0FCA3E0C39FEC9E96
:1047F80050030244CD2290A50E12387590A50E12D2
:10480800385512360DFF90A511E5F0F0A3EFF090A2
:10481800A511E0FEA3E0C39432EE94014003024BDD
:104828001E90A511E0A3E090855F75F00E1238493F
:10483800EE75F00EA42583F583E0645A6003024BFD
:104848001190A511E0A3E090856275F00E12384929
:10485800EE75F00EA42583F583E07003024B1190EA
:10486800A511E0A3E090856475F00E123849EE7545
:10487800F00EA42583F583E07003024B1E90A5116A
:10488800E0A3E090856475F00E123849EE75F00EDD
:10489800A42583F583E06401703490A511E0A3E0BA
:1048A80090856575F00E123849EE75F00EA42583D3
:1048B800F583E0FEA3E0FF90AB1FE0FCA3E06F7080
:1048C80002EC6E6003024B11024B1E024B1190A5C5
:1048D80011E0FEA3E090856475F00E123849EE757C
:1048E800F00EA42583F583E0640260030249DD909D
:1048F800A511E0A3E090856575F00E123849EE75B4
:10490800F00EA42583F583E0FEA3E0FF7B017AA5E2
:10491800791390A714E4F0A37402F012506B90A5D9
:1049280013E0A3E0645A6003024B1190A511E0FE66
:10493800A3E0C39431EE9401506190A511E0A3E087
:1049480090857275F00E123849EE75F00EA4258325
:10495800F583E06402704490A511E0A3E0908573AC
:1049680075F00E123849EE75F00EA42583F583E034
:10497800FEA3E0FF90A511E0FCA3E090856575F02B
:104988000E123849EC75F00EA42583F583E0FCA3DC
:10499800E06F7002EC6E7003024B1EE490A513F0FA
:1049A800A3F090A511E0FEA3E090856575F00E12C6
:1049B8003849EE75F00EA42583F583E0FEA3E0FFE9
:1049C8007B017AA5791390A726E4F0A37402F0126C
:1049D80052D8024B1E90A511E0FEA3E090856475A5
:1049E800F00E123849EE75F00EA42583F583E064C5
:1049F800036003024B1190A511E0A3E090856B754D
:104A0800F00E123849EE75F00EA42583F583E0FE0A
:104A1800A3E0FF90AB1FE0FCA3E0FDEF6D7002EE9A
:104A28006C6003024B1190A511E0FEA3E090856530
:104A380075F00E123849EE75F00EA42583F583E063
:104A4800FEA3E0FF7B017AA5791390A714E4F0A3F5
:104A58007402F012506B90A513E0A3E0645A60034F
:104A6800024B1190A511E0FEA3E0C39431EE94012E
:104A7800505E90A511E0A3E090857275F00E123893
:104A880049EE75F00EA42583F583E0640370419028
:104A9800A511E0A3E090857375F00E123849EE7504
:104AA800F00EA42583F583E0FEA3E0FF90A511E0B6
:104AB800FCA3E090856575F00E123849EC75F00E90
:104AC800A42583F583E0FCA3E06F7002EC6E6046DA
:104AD800E490A513F0A3F090A511E0FEA3E0908563
:104AE8006575F00E123849EE75F00EA42583F5832E
:104AF800E0FEA3E0FF7B017AA5791390A726E4F0F6
:104B0800A37402F01252D8800D90A511E475F0013B
:104B18001235E102481790A511E0FEA3E0FF90A529
:104B28000E123855EE8FF01236702290A5191238F1
:104B38007590A51CECF0A3EDF07BFF7A8379B7782C
:104B48001E7CA57D017E007F181234C690A519121F
:104B5800385590000A123638246CFFE5F034079077
:104B6800A54AF0A3EFF090A54AE0FEA3E0FF7C0081
:104B78007D641235ABED4C601390A54AE0FEA3E0CE
:104B8800FF7C007D041235ABED4C601390A54AE024
:104B9800FEA3E0FF7C017D901235ABED4C70067EE4
:104BA800007F0180047E007F0090A546EEF0A3EF11
:104BB800F090A51912385590000A12363824BAFF19
:104BC800E5F034FFFE3395E0FDFC90A53612380C75
:104BD80090A519123855900008123638C39401E58B
:104BE800F064809480504090A546E0FEA3E0640104
:104BF8004E703490A5361237F4EF2402FFE43EFEDF
:104C0800E43DFDE43CFCE47B04FAF9F8127C99EFFE
:104C180024FFFFEE34FFFEED34FFFDEC34FFFC9083
:104C2800A53E12380C802290A5361237F4EF2402E4
:104C3800FFE43EFEE43DFDE43CFCE47B04FAF9F8C5
:104C4800127C9990A53E12380C90A53A123818009B
:104C5800000000E490A548F0A3F090A5191238557B
:104C6800900008123638FF90A548E0FCA3E0C39FE7
:104C7800E5F06480F8EC648098504890A53A1237C3
:104C8800F4C006C00790A548E0FEA3E025E0FFEECB
:104C980033FE741E2FF58274A53EF583E0FEA3E073
:104CA800FFFBAA06EA3395E0F9F8D007D0061236DA
:104CB8008F90A53A12380C90A548E475F00112358A
:104CC800E1809790A53A1237F4C006C00790A5195D
:104CD80012385590000612363824FFFFE5F034FFED
:104CE800FEAB07FA3395E0F9F8D007D00612368FF5
:104CF80090A53A12380C90A53A1237F4C004C005B2
:104D0800C006C007E47F6D7E01FDFC90A536123811
:104D18000012369C90A53E12380012368FA804A9BE
:104D280005AA06AB07D007D006D005D00412368FE7
:104D380090A53A12380C90A5191238559000041213
:104D48003638FF90A51CE0FCA3E0FDC3EF9DFFE50E
:104D5800F09CFE3395E0FDFC90A54212380CE47FF0
:104D6800107E0EFDFC90A54212380012369CC0043D
:104D7800C005C006C0077F807E517D017C0090A5DC
:104D88003A12380012369CA804A905AA06AB07D027
:104D980007D006D005D00412368FC004C005C0065F
:104DA800C00790A519123855900002123638FFAE88
:104DB800F07C007D3C123544AB07AA06EA3395E047
:104DC800F9F8D007D006D005D00412368FC006C037
:104DD8000790A51912385512360DFFAEF0FBAA063A
:104DE800EA3395E0F9F8D007D00612368F22E5139A
:104DF80030E10D90AB21E475F0011235E11269BB89
:104E080090AB21E0FEA3E0C394B8EE940B500302EC
:104E1800506AE490AB21F0A3F090AB25E0FEA3E04C
:104E28002400FFEE341090A509F0A3EFF07B017A7F
:104E3800A5790B90A714E4F0A37402F07FA37EA0D9
:104E480012506B90A50BE475F0C81235E190A509D6
:104E5800E0FEA3E0FF7B017AA5790B90A726E4F09A
:104E6800A37402F01252D890AB25E0FEA3E0240010
:104E7800FFEE341890A509F0A3EFF07B017AA5792D
:104E88000B90A714E4F0A37402F07FA47EA0125044
:104E98006B90A509E0FEA3E0FF7B017AA5790B9052
:104EA800A726E4F0A37402F01252D890AB25E0FED6
:104EB800A3E0FF90A50FEEF0A3EFF090AB25E4750B
:104EC800F0011235E190AB25E0FEA3E0C394FEEEBD
:104ED80094074007E490AB25F0A3F07B017AAB7907
:104EE8002590A726E4F0A37402F07F007E031252F7
:104EF800D87B017AAB792590A726E4F0A37402F059
:104F0800FF7E031252D890A50D7407F0A374FEF02B
:104F18007B017AA5790D90A726E4F0A37402F07FAF
:104F2800087E501252D87B017AA5790D90A726E405
:104F3800F0A37402F07F097E501252D890A50D7428
:104F480002F0A3748AF07B017AA5790D90A726E474
:104F5800F0A37402F07F117E501252D890AAECE0B0
:104F680075F03CA4FFA3E07C002FFFEC35F090AB7C
:104F780023F0A3EFF090AB23E0FEA3E0FF1261E57E
:104F880090AB25E0A3E030E00302506A90A50F74CF
:104F9800FFF5F01235E190A50FE0FEA3E02400FF35
:104FA800EE3410FE7B017AA5790990A714E4F0A3EA
:104FB8007404F012506B90A50D74A5F0A3745AF008
:104FC8007B017AA5790990A726E4F0A37406F07FFF
:104FD800007E501252D890A50FE0FEA3E0FFE4FC3B
:104FE800FD90A71212380C90A716E4F0A37404F0F1
:104FF8007D007C507FA51273D590A50FE0FEA3E03D
:105008002400FFEE3418FE7B017AA5790990A714D5
:10501800E4F0A37404F012506B90A50D74A5F0A3EE
:10502800745AF07B017AA5790990A726E4F0A37455
:1050380006F07F007E501252D890A50FE0FEA3E044
:105048002400FFEE3408FEE4FCFD90A71212380C91
:1050580090A716E4F0A37404F07D007C507FA5129D
:1050680073D52290A70FEEF0A3EFF0A31238757B4B
:10507800007A007900C003C002C00190A71112385D
:1050880055D082D083D0E06B7008E965827003EA5E
:10509800658370030252D790A714E0FEA3E04E7018
:1050A800030252D790A714E0A3E0FFEEC313FEEF6C
:1050B80013FF90A70FE0FCA3E02FFFEE3CFED3EF19
:1050C80094FEEE94FF40030252D7C2AF90A70FE0C0
:1050D800A3E0540190A716F090A70FE0FEA3E0FF0D
:1050E800EEC313FEEF13FF90A70FEEF0A3EFF090BF
:1050F800A70FE0FEA3E07810CEC313CE13D8F9F5BE
:10510800F190A70FE0FEA3E0EEF5F290A70FE0A361
:10511800E0F5F3E4F5F875F401D2FF30FCFDD2FDBB
:1051280090A716E06401707290A714E0FEA3E064F3
:10513800014E700AC2FBC2FAD2F9C2F88008C2FB5B
:10514800C2FAD2F9D2F8D2FE20FEFD90A714E0FEF2
:10515800A3E064014E701A90A71175F00112385E31
:10516800E5FC12353290A71474FFF5F01235E18092
:105178002990A711E475F00112385EE5FC1235326A
:1051880090A711E475F00112385EE5FD12353290F2
:10519800A71474FF75F0FE1235E190A714E0FEA382
:1051A800E04E70030252D290A714E0A3E0C3940427
:1051B800EE9400400302527B90A714E0A3E08EF027
:1051C8001238A451EF000151E5000251DB00030041
:1051D8000051F7D2FBD2FAD2F9C2F88012D2FBD230
:1051E800FAC2F9C2F88008D2FBC2FAC2F9C2F8D2F0
:1051F800FE20FEFD90A714E0FEA3E08EF01238A476
:10520800526800015248000252180003000052D2AE
:1052180090A711E475F00112385EE5FA1235329064
:10522800A711E475F00112385EE5FB12353290A73C
:1052380011E475F00112385EE5FC1235320252D2E3
:1052480090A711E475F00112385EE5FA1235329034
:10525800A711E475F00112385EE5FB123532806A59
:1052680090A711E475F00112385EE5FA1235328024
:10527800598057D2FBD2FAD2F9D2F8D2FE20FEFDDD
:1052880090A711E475F00112385EE5FA12353290F4
:10529800A711E475F00112385EE5FB12353290A7CC
:1052A80011E475F00112385EE5FC12353290A71151
:1052B800E475F00112385EE5FD12353290A71474DA
:1052C800FF75F0FC1235E10251A2E4F5F8D2AF22E5
:1052D80090A721EEF0A3EFF0A31238757B007A00B7
:1052E8007900C003C002C00190A723123855D082AC
:1052F800D083D0E06B7008E965827003EA6583703B
:105308000302554390A726E0FEA3E04E7003025522
:105318004390A726E0A3E0FFEEC313FEEF13FF9030
:10532800A721E0FCA3E02FFFEE3CFED3EF94FEEEB6
:1053380094FF4003025543C2AF90A721E0A3E05475
:105348000190A728F090A721E0FEA3E0FFEEC31389
:10535800FEEF13FF90A721EEF0A3EFF090A721E056
:10536800FEA3E07810CEC313CE13D8F9F5F190A7B9
:1053780021E0FEA3E0EEF5F290A721E0A3E0F5F32B
:10538800E4F5F875F401D2FF30FCFDC2FD90A728C2
:10539800E06401707290A726E0FEA3E064014E70FD
:1053A8000AC2FBC2FAD2F9C2F88008C2FBC2FAD21A
:1053B800F9D2F890A726E0FEA3E064014E701A9097
:1053C800A72375F00112385E1234ECF5FC90A7267D
:1053D80074FFF5F01235E1802990A723E475F001F8
:1053E80012385E1234ECF5FC90A723E475F0011234
:1053F800385E1234ECF5FD90A72674FF75F0FE12A6
:1054080035E1D2FE20FEFD90A726E0FEA3E04E7017
:105418000302553E90A726E0A3E0C39404EE94004F
:1054280040030254E790A726E0A3E08EF01238A4C8
:10543800545C0001545200025448000300005464B4
:10544800D2FBD2FAD2F9C2F88012D2FBD2FAC2F950
:10545800C2F88008D2FBC2FAC2F9C2F890A726E0C7
:10546800FEA3E08EF01238A454CF000154AF00021E
:1054780054800003000054DE90A723E475F0011265
:10548800385E1234ECF5FA90A723E475F00112386F
:105498005E1234ECF5FB90A723E475F00112385E38
:1054A8001234ECF5FC802F90A723E475F001123834
:1054B8005E1234ECF5FA90A723E475F00112385E19
:1054C8001234ECF5FB800F90A723E475F001123835
:1054D8005E1234ECF5FAD2FE30FE5B80FB8057D2C8
:1054E800FBD2FAD2F9D2F890A723E475F00112386A
:1054F8005E1234ECF5FA90A723E475F00112385ED9
:105508001234ECF5FB90A723E475F00112385E1213
:1055180034ECF5FC90A723E475F00112385E1234E0
:10552800ECF5FDD2FE20FEFD90A72674FF75F0FC79
:105538001235E102540FE4F5F8D2AF227BFF7A82EC
:10554800799D78097CA57D017E007F201234C67B79
:10555800017AA5790990A52B12387590A52E1238D5
:1055680075E490A529F0A3F090A529E0FEA3E0C377
:10557800EE9402400302560D90A529E0A3E07803BB
:10558800C333CE33CED8F92400FFEE3420FEE4FC3A
:10559800FD90A71212380C90A716E4F0A37408F037
:1055A8007D007C307F5A1273D57B017AA5790990EA
:1055B800A714E4F0A37410F07F007E3012506B90B3
:1055C800A52B12385512360D645A7004E5F064A5FF
:1055D800602690A52E12385512360DB4A527E5F091
:1055E800B45A2290A52E123855785B7CAA7D017E8C
:1055F800007F081234C6800D90A529E475F00112C9
:1056080035E1025570E490A529F0A3F090A529E0B2
:10561800FEA3E0C3940AEE9400400302579F7BFF69
:105628007A8279BD78317CA57D017E007F20123495
:10563800C67B017AAA790378317CA57D017E007F3B
:105648001A1234C690A529E0FEA3E0FF7C007D1B5A
:10565800123544EF2464FFE43E90A535F0A3EFF043
:1056680090A53A7401F090A529E0FEA3E090AA7EE7
:1056780075F006123849EE75F006A42583F583E027
:10568800FEA3E0FF7B017AA5793190A726E4F0A379
:105698007420F01252D87B017AAA791D78317CA542
:1056A8007D017E007F1A1234C690A529E0FEA3E092
:1056B800FF7C007D1B123544EF2464FFE43E90A577
:1056C80035F0A3EFF090A53A7401F090A529E0FE1B
:1056D800A3E090AA8075F006123849EE75F006A48A
:1056E8002583F583E0FEA3E0FF7B017AA57931905D
:1056F800A726E4F0A37420F01252D87B017AAA7985
:10570800BA78317CA57D017E007F1A1234C690A537
:1057180029E0FEA3E0FF7C007D1B123544EF2464E2
:10572800FFE43E90A535F0A3EFF090A529E0FEA395
:10573800E0FF123544EF2464FFE43E90A53BF0A35C
:10574800EFF090A529E0FEA3E0FF123544EF247D99
:10575800FFE43E90A53FF0A3EFF090A529E0FEA35B
:10576800E090AA8275F006123849EE75F006A42575
:1057780083F583E0FEA3E0FF7B017AA5793190A74A
:1057880026E4F0A37420F01252D890A529E475F00D
:10579800011235E102561422E490A509F0A3F0E5C0
:1057A8001320E0030259F47B017AA5790990A71424
:1057B800E4F0A37402F07F147E5012506B90A50998
:1057C800E0FEA3E04E70030259F490A509E0A3E0BF
:1057D8008EF01238A45965A000596AA026596FA402
:1057E800005974A4015979A4A05979A4A15979A49C
:1057F800A25979A4A35979A4A45979A4A55979A43B
:10580800A65979A4A75979A4A85979A4A95979A41A
:10581800AA5979A4AB5979A4AC5979A4AD5979A4FA
:10582800AE5979A4AF5979A4B05979A4B15979A4DA
:10583800B25979A4B35979A4B45979A4B55979A4BA
:10584800B65979A4B75979A4B85979A4B95979A49A
:10585800BA5979A4BB5979A4BC5979A4BD5979A47A
:10586800BE5979A4BF5979A4C05979A4C15979A45A
:10587800C25979A4C35979A4C45979A4C55979A43A
:10588800C65979A4C75979A4C85979A4C95979A41A
:10589800CA5979A4CB5979A4CC5979A4CD5979A4FA
:1058A800CE5979A4CF5979A4D05979A4D15979A4DA
:1058B800D25979A4D35979A4D45979A4D55979A4BA
:1058C800D65979A4D75979A4D85979A4D95979A49A
:1058D800DA5979A4DB5979A4DC5979A4DD5979A47A
:1058E800DE5979A4DF5979A4E05979A4E15979A45A
:1058F800E25979A4E35979A4E45979A4E55986A42D
:10590800F05986A4F15986A4F25986A4F35986A4BD
:10591800F45986A4F55993A60059D8A6015998AC0C
:1059280000599DAC0159A2C50059A7C60059ACC77A
:105938000059B1C70159B6C90159B6C90659B6C9FE
:105948000C59B6C90E59B6C91159C3CF3C59C3CF62
:105958006959D0D60059D5E000000059D81277E02F
:10596800806E127F8280691276A28064120016808F
:105978005F90A509E0FEA3E0FF12795D805290A533
:1059880009E0FEA3E0FF1279B7804512727A8040E1
:10599800127A6A803B127E4C8036127E82803112E7
:1059A80078A8802C127B6A8027127D99802290A586
:1059B80009E0FEA3E0FF127BBC801590A509E0FE7C
:1059C800A3E0FF127C078008127CDD8003127D1C97
:1059D800E490A509F0A3F07B017AA5790990A726A0
:1059E800F0A37402F07F147E501252D822127F9FC7
:1059F8007F64127B177F10127B1712801B127F9F08
:105A08007F65127B1790A5127406F090A512E0D35B
:105A1800940074809480401D127AC290A512E024EC
:105A28000AF582E434A5F583EFF0127FBA90A51247
:105A3800E014F080D6127AC290A50AEFF0127FD354
:105A480012801B7B017AA5790A78F77CAA7D017EF2
:105A5800007F071234C6E490A512F090A512E0C3A7
:105A6800940374809480504BE0240AF582E434A5B2
:105A7800F583E0FFC4540F90A513F090A512E0241D
:105A88000AF582E434A5F583E0540F90A514F0904C
:105A9800A513E075F00AA4FFA3E02FFF90A512E07C
:105AA800240AF582E434A5F583EFF090A512E0040A
:105AB800F080A890A5127404F090A512E0C3940792
:105AC80074809480504BE0240AF582E434A5F58371
