:100000000270C0020006C2AFD2AF3202634BC2AF71
:10001000D2AF3202000E90A8ADE0FEA3E0FF12794D
:0A002000C52222027614127C4A2247
:10002B00027DC190A6A112378F0000300090A6A5CB
:10003B00E4F0A3740CF07D007C307F5A1271F87BD6
:10004B00017AA9796390A6A3E4F0A37418F07F005A
:10005B007E30125264E490A498F090A498E0C3947C
:10006B000774809480506EE025E025E02463F582D0
:10007B00E434A9F58312376BE4FBFAF9F8C31237B2
:10008B0046602290A498E025E025E02463F582E405
:10009B0034A9F58312376B7B3F7A42790F7800C313
:1000AB00123746502890A498E025E025E0243FF530
:1000BB0082E434A9F58312376B90A498E025E025F0
:1000CB00E02463F582E434A9F58312378390A49876
:1000DB00E004F080857B017AA9796390A6A3E4F014
:0C00EB00A37414F07FA07EA61254D12252
:1000F800FFFF4457494E543542AA92000041AA8D49
:100108000042AA8E000042AA90000042AA9600006F
:1001180042AA9400005AA97F3FC9002D006400003C
:1001280086000A2D2D203A3A000000000000000049
:1001380000005AA9993FCC00E60064000086000A36
:100148002D2D2F3A3A000000000000000000005A50
:10015800AA363FD0019F00640000019F006402F4AA
:10016800007D00200017181802000000603CA9FA62
:10017800400040A04140401040B04150402040C0A5
:100188004160403040D04170404040E041804050A4
:1001980040F041904060410041A04070411041B0A2
:1001A8004080412041C04090413041D054A9E641AF
:1001B800E041F84210422842404258427042884288
:1001C800A042B848A9D7000000000000000042A9DA
:1001D800DF000042A9E4000042A9E1000041A9E3D0
:1001E8000042A9C5000042A9B300054995AFB2E293
:1001F800CAD4BABAD7D6006EE095B849443030BBF5
:10020800D8B7E7B8DFCEC200000000000000000049
:10021800000000000000000000000049443031BB2D
:10022800D8B7E7B5CDCEC20000000000000000003E
:10023800000000000000000000000049443032BB0C
:10024800D8B7E7B8DFCAAA00000000000000000025
:10025800000000000000000000000049443033BBEB
:10026800D8B7E7B5CDCAAA0000000000000000001A
:10027800000000000000000000000049443034CBBA
:10028800CDB7E7B8DFCEC2000000000000000000D4
:10029800000000000000000000000049443035CB99
:1002A800CDB7E7B5CDCEC2000000000000000000C9
:1002B800000000000000000000000049443036CB78
:1002C800CDB7E7B8DFCAAA000000000000000000B0
:1002D800000000000000000000000049443037CB57
:1002E800CDB7E7B5CDCAAA000000000000000000A5
:1002F800000000000000000000000049443038B150
:10030800A3C1F4000000000000000000000000008D
:10031800000000000000000000000049443039C41B
:10032800DAB2BFCDA8D0C500000000000000000070
:100338000000000000000000000000494431304E79
:100348005443D2ECB3A300000000000000000000FA
:10035800000000000000000000000049443131B7EF
:10036800E7BBFA31B9CAD5CF000000000000000091
:10037800000000000000000000000049443132B7CE
:10038800E7BBFA32B9CAD5CF000000000000000070
:10039800000000000000000000000049443133B1B3
:1003A800A3C1F400000000000000000000000000ED
:1003B800000000000000000000000049443134B192
:1003C800A3C1F400000000000000000000000000CD
:1003D800000000000000000000000049443135B171
:1003E800A3C1F400000000000000000000000000AD
:1003F800000000000000000000000049443136CD34
:10040800E2B7E7BBFAB9CAD5CF0000000000000088
:10041800000000000000000000000049443137B728
:10042800E7BBFA31D4CBD0D0B3ACCAB100000000DE
:10043800000000000000000000000049443138B10D
:10044800A3C1F4000000000000000000000000004C
:10045800000000000000000000000049443139B1EC
:10046800A3C1F4000000000000000000000000002C
:10047800000000000000000000000049443230B1D4
:10048800A3C1F4000000000000000000000000000C
:10049800000000000000000000000049443231B1B3
:1004A800A3C1F400000000000000000000000000EC
:1004B800000000000000000000000049443232CD76
:1004C800E2B7E7BBFAD4CBD0D0B3ACCAB1000000D6
:1004D800000000000000000000000049443233B86A
:1004E800DFD1B931BFAAB9D8000000000000000070
:1004F800000000000000000000000049443234B849
:10050800DFD1B931CBF8CBC00000000000000000FB
:10051800000000000000000000000049443235B52A
:10052800CDD1B931BFAAB9D8000000000000000041
:10053800000000000000000000000049443236B509
:10054800CDD1B931CBF8CBC00000000000000000CD
:10055800000000000000000000000049443237C5D8
:10056800C5C6F8CEC2B6C831B8E6BEAF00000000B6
:10057800000000000000000000000049443238C5B7
:10058800C5C6F8CEC2B6C831CBF8CBC00000000053
:10059800000000000000000000000049443239B6A5
:1005A800CCD6DCC6DA31B8E6BEAF000000000000E9
:1005B800000000000000000000000049443330D172
:1005C800B9BBFA31D4CBD0D0B3ACCAB1000000006B
:1005D800000000000000000000000049443331B86A
:1005E800DFD1B932BFAAB9D800000000000000006E
:1005F800000000000000000000000049443332B849
:10060800DFD1B932CBF8CBC00000000000000000F9
:10061800000000000000000000000049443333B52A
:10062800CDD1B9D1B9C1A6B8E6BEAF00000000006F
:10063800000000000000000000000049443334B509
:10064800CDD1B932CBF8CBC00000000000000000CB
:10065800000000000000000000000049443335C5D8
:10066800C5C6F8CEC2B6C832B8E6BEAF00000000B4
:10067800000000000000000000000049443336C5B7
:10068800C5C6F8CEC2B6C832CBF8CBC00000000051
:10069800000000000000000000000049443337B6A5
:1006A800CCD6DCC6DA32B8E6BEAF000000000000E7
:1006B800000000000000000000000049443338D169
:1006C800B9BBFA32D4CBD0D0B3ACCAB10000000069
:1006D800000000000000000000000049443339BC5D
:1006E800D3CAAAC6F7B5E7C1F7B9FDB4F30000004D
:1006F800000000000000000000000049443430BC45
:10070800D3CAAAC6F7B8DFCBAECEBB000000000044
:10071800000000000000000000000049443431BC23
:10072800D3CAAAC6F7C8B1CBAE00000000000000CB
:10073800000000000000000000000049443432BC02
:10074800D3CAAAC6F7D4CBD0D0B3ACCAB100000084
:10075800000000000000000000000049443433BCE1
:10076800D3C8C8C6F7B8E6BEAF0000000000000056
:10077800000000000000000000000049443434BCC0
:10078800D3C8C8C6F731B3ACCAB100000000000036
:10079800000000000000000000000049443435BC9F
:1007A800D3C8C8C6F732B3ACCAB100000000000015
:1007B800000000000000000000000049443436B684
:1007C800CFB5E7D6D8C6F40000000000000000004E
:1007D800000000000000000000000049443437B564
:1007E800E7D4B4CFE0D0F2B4EDCEF30000000000BF
:1007F800000000000000000000000049443438B543
:10080800E7D4B4C6B5C2CAC6ABB8DF000000000062
:10081800000000000000000000000049443439B521
:10082800E7D4B4C6B5C2CAC6ABB5CD000000000057
:10083800000000000000000000000049443530417D
:10084800CFE0B9FDD1B900000000000000000000B1
:10085800000000000000000000000049443531425B
:10086800CFE0B9FDD1B90000000000000000000091
:100878000000000000000000000000494435324339
:10088800CFE0B9FDD1B90000000000000000000071
:10089800000000000000000000000049443533411A
:1008A800CFE0C7B7D1B90000000000000000000089
:1008B80000000000000000000000004944353442F8
:1008C800CFE0C7B7D1B90000000000000000000069
:1008D80000000000000000000000004944353543D6
:1008E800CFE0C7B7D1B90000000000000000000049
:1008F80000000000000000000000004944353641B7
:10090800CFE0C8B1CFE00000000000000000000008
:100918000000000000000000000000494435374294
:10092800CFE0C8B1CFE000000000000000000000E8
:100938000000000000000000000000494435384372
:10094800CFE0C8B1CFE000000000000000000000C8
:10095800000000000000000000000049443539C6CE
:10096800F8C1F7B6AACAA7B8E6BEAF0000000000F3
:10097800000000000000000000000049443630B9C3
:10098800FDC2CBCDF8D4CBD0D0B3ACCAB1000000F7
:10099800000000000000000000000049443631B9A2
:1009A800FDC2CBCDF8B6C2B8E6BEAF00000000006D
:1009B800000000000000000000000049443632D466
:1009C800B6B3CCB9D8BBFAB8E6BEAF000000000099
:1009D800000000000000000000000049443633D247
:1009E800E7CBAEB8E6BEAF00000000000000000094
:1009F800000000000000000000000049443634C830
:100A0800BABFD8CDA8D0C5D2ECB3A300000000006F
:100A1800000000000000000000000049443635B125
:100A2800A3C1F40000000000000000000000000066
:100A3800000000000000000000000049443636B500
:100A4800CDB9FDC8C8B6C831B8E6BEAF00000000D1
:100A5800000000000000000000000049443637B5DF
:100A6800CDB9FDC8C8B6C832B8E6BEAF00000000B0
:100A7800000000000000000000000049443638D1A2
:100A8800CCCEEDB8E6BEAF000000000000000000CC
:100A9800000000000000000000000049443639D37F
:100AA800C3BBA7D7D4B6A8D2E5B8E6BEAF0000004E
:100AB800000000000000000000000049443730B585
:100AC800E7D4B4D2ECB3A30000000000000000009B
:100AD800000000000000000000000049443731B168
:100AE800A3C1F400000000000000000000000000A6
:100AF800000000000000000000000049443732B147
:100B0800A3C1F40000000000000000000000000085
:100B1800000000000000000000000049443733B125
:100B2800A3C1F40000000000000000000000000065
:100B3800000000000000000000000049443734B104
:100B4800A3C1F40000000000000000000000000045
:100B5800000000000000000000000049443735B1E3
:100B6800A3C1F40000000000000000000000000025
:100B7800000000000000000000000049443736B5BE
:100B8800CDD1B9D1B9C1A600000000000000000015
:100B9800000000000000000000000049443737B1A1
:100BA800A3C1F400000000000000000000000000E5
:100BB800000000000000000000000049443738B57C
:100BC800CDD1B9B4ABB8D0C6F7D2ECB3A30000000E
:100BD800000000000000000000000049443739B858
:100BE800DFD1B9B4ABB8D0C6F7D2ECB3A3000000DC
:100BF800000000000000000000000049443830C533
:100C0800C5CBAEB8DFCBAECEBB0000000000000005
:100C1800000000000000000000000049443831BC1A
:100C2800D3CAAAC6F7D2ECB3A300000000000000A4
:100C3800000000000000000000000049443832B7FE
:100C4800E7D1B9B9FDB5CD000000000000000000F3
:100C5800000000000000000000000049443833B1E3
:100C6800A3C1F40000000000000000000000000024
:100C7800000000000000000000000049443834B8BB
:100C8800DFD1B931D1B9C1A60000000000000000D1
:100C9800000000000000000000000049443835B1A1
:100CA800A3C1F400000000000000000000000000E4
:100CB8000000000000000000000000494438364DE4
:100CC8004F5031B8E6BEAF00000000000000000041
:100CD8000000000000000000000000494438374DC3
:100CE8004F5032B8E6BEAF00000000000000000020
:100CF8000000000000000000000000494438384CA3
:100D08004F5031B8E6BEAF00000000000000000000
:100D18000000000000000000000000494438394C81
:100D28004F5032B8E6BEAF000000000000000000DF
:100D3800000000000000000000000049443930C9EC
:100D4800E8B1B8CAB9D3C3B3ACCAB1000000000057
:100D5800000000000000000000000049443931B1E3
:100D6800A3C1F40000000000000000000000000023
:100D7800000000000000000000000049443932B1C2
:100D8800A3C1F40000000000000000000000000003
:100D9800000000000000000000000049443933B1A1
:100DA800A3C1F400000000000000000000000000E3
:100DB8000000000000000000000000D2BCB7A1C87D
:100DC800FECBC1CEE9C2BDC6E2B0C6BEC1CAB0D272
:100DD800BCB7A1C8FECBC1CEE9C2BD303132333475
:100DE8003536373839616263646566303132333499
:100DF800353637383961626364656649443936B1D6
:100E0800A3C1F40000000000000000000000000082
:100E1800000000000000000000000049443937B11C
:100E2800A3C1F40000000000000000000000000062
:100E3800000000000000000000000049443938B1FB
:100E4800A3C1F40000000000000000000000000042
:100E5800000000000000000000000049443939B1DA
:100E6800A3C1F40000000000000000000000000022
:100E7800000000000000000000000049443130304C
:100E8800B1A3C1F400000000000000000000000051
:100E9800000000000000000000000049443130312B
:100EA800B1A3C1F400000000000000000000000031
:100EB800000000000000000000000049443130320A
:100EC800B1A3C1F400000000000000000000000011
:100ED80000000000000000000000004944313033E9
:100EE800B1A3C1F4000000000000000000000000F1
:100EF80000000000000000000000004944313034C8
:100F0800B1A3C1F4000000000000000000000000D0
:100F180000000000000000000000004944313035A6
:100F2800B1A3C1F4000000000000000000000000B0
:100F38000000000000000000000000494431303685
:100F4800B1A3C1F400000000000000000000000090
:100F58000000000000000000000000494431303764
:100F6800B1A3C1F400000000000000000000000070
:100F78000000000000000000000000494431303843
:100F8800B1A3C1F400000000000000000000000050
:100F98000000000000000000000000494431303922
:100FA800B1A3C1F400000000000000000000000030
:100FB800000000000000000000000049443131300A
:100FC800B1A3C1F400000000000000000000000010
:100FD80000000000000000000000004944313131E9
:100FE800B1A3C1F4000000000000000000000000F0
:100FF80000000000000000000000004944313132C8
:10100800B1A3C1F4000000000000000000000000CF
:1010180000000000000000000000004944313133A6
:10102800B1A3C1F4000000000000000000000000AF
:101038000000000000000000000000494431313485
:10104800B1A3C1F40000000000000000000000008F
:101058000000000000000000000000D2BCB7A1C8DA
:10106800FECBC1CEE9C2BDC6E2B0C6BEC1CAB0D2CF
:10107800BCB7A1C8FECBC1CEE9C2BD3031323334D2
:1010880035363738396162636465663031323334F6
:1010980035363738396162636465660000000000E0
:1010A8000000000000000000000000000000000038
:1010B8000000000000000000000000000000000028
:1010C8000000000000000000000000000000000018
:1010D800000000000000000000000041AA9800473E
:1010E800AA640000000000000048AA730000000085
:1010F8000000000048AA6B0000000000000000C1CA
:101108000042AA62034252AA5000000000000000F8
:10111800000000000000000000000042AA7D00005E
:1011280042AA7F000042AA7B000044AA890000006E
:101138000042AA81000044AA8300000000020800BF
:1011480000040B00000000040F0000000042AA8702
:101158000000010A006100A6AA00C1814001C08008
:101168004101C0804100C1814001C0804100C1816E
:101178004000C1814001C0804101C0804100C1815F
:101188004000C1814001C0804100C1814001C08050
:101198004101C0804100C1814001C0804100C1813E
:1011A8004000C1814001C0804100C1814001C08030
:1011B8004101C0804100C1814000C1814001C0801F
:1011C8004101C0804100C1814001C0804100C1810E
:1011D8004000C1814001C0804101C0804100C181FF
:1011E8004000C1814001C0804100C1814001C080F0
:1011F8004101C0804100C1814000C1814001C080DF
:101208004101C0804100C1814001C0804100C181CD
:101218004000C1814001C0804100C1814001C080BF
:101228004101C0804100C1814001C0804100C181AD
:101238004000C1814001C0804101C0804100C1819E
:101248004000C1814001C0804100C1814001C0808F
:101258004101C0804100C181406100A7AA00C0C10E
:1012680001C30302C2C60607C705C5C404CC0C0DDA
:10127800CD0FCFCE0E0ACACB0BC90908C8D818198A
:10128800D91BDBDA1A1EDEDF1FDD1D1CDC14D4D5EA
:1012980015D71716D6D21213D311D1D010F030317A
:1012A800F133F3F23236F6F737F53534F43CFCFD1A
:1012B8003DFF3F3EFEFA3A3BFB39F9F83828E8E9AA
:1012C80029EB2B2AEAEE2E2FEF2DEDEC2CE424252A
:1012D800E527E7E62622E2E323E12120E0A060619A
:1012E800A163A3A26266A6A767A56564A46CACAD5A
:1012F8006DAF6F6EAEAA6A6BAB69A9A86878B8B90A
:1013080079BB7B7ABABE7E7FBF7DBDBC7CB4747569
:10131800B577B7B67672B2B373B17170B0509091B9
:10132800519353529296565797559594549C5C5D99
:101338009D5F9F9E5E5A9A9B5B9959589888484929
:10134800894B8B8A4A4E8E8F4F8D4D4C8C448485A9
:101358004587474686824243834181804041952A9A
:1013680000418531004495AB0000000041852C0008
:1013780044852D000000006FEA85405A021003C81A
:101388000250155016000000FF5A020303C800005F
:1013980000A020031C00FF5A020301C8010039A065
:1013A80023031900FF5A020601C803A084A02401E0
:1013B8000000395A020301C8010039A025010400C0
:1013C800FF5A020601C802A087A027010400FF5A9D
:1013D800020301C8010039A02801CC00FF5A02030A
:1013E80001C8010039A029018400FF5A020303C87B
:1013F800010039A0A0011A00FF5A020302C8000028
:1014080000A0A3031000FF5A020302C801000AAAA1
:1014180000032600FF5A020308C801000AAA0203B3
:101428004100FF5A020301C801000AAA0A036F001B
:10143800FF5A020301C801000AAA0B037700FF5AEA
:10144800020301C801000AAA0C036500FF5A02033F
:1014580001C801000AAA0D036C00FF5A020301C863
:1014680001000AAA0E034F00FF5A020301C8010037
:101478000AAA0F036900FF5A02031FC801000BAB39
:1014880020038C00FF5A020601C803AC80AC20027E
:101498003A000C5A020306C800000DAEA003200053
:1014A800FF5A020307C803B300B320011A00135AF6
:1014B800020601C803B380B320011A00135A0206BA
:1014C80001C803B382B322011C00135A020601C8E3
:1014D80003B383B323011D00135A020601C803B3E3
:1014E80084B324011E00135A020601C803B385B34E
:1014F80025011F00135A020601C803B386B326014B
:101508002000135A02030BC803B400B4200158008A
:10151800145A020301C803B400B42B013B00145A47
:10152800020301C803B400B42C019E00145A020639
:1015380001C803B480B420015800145A020601C837
:1015480003B481B421015900145A020601C803B436
:1015580083B423015B00145A020601C803B484B49F
:1015680024015C00145A020601C803B485B425019D
:101578005D00145A020601C803B486B426015E0051
:10158800145A020601C803B487B427015F00145A2D
:10159800020601C803B488B428016000145A020680
:1015A80001C803B48AB42A016200145A020601C8A9
:1015B80003B48BB42B013B00145A020601C803B4D0
:1015C8008CB42C019E00145A020301C803B600B65D
:1015D8002001A100165A020304C803B600B621016F
:1015E800CD00165A020601C803B680B62001A10034
:1015F800165A020604C803B681B62101CD00165A50
:10160800020604C803B682B62201CE00165A0206A4
:1016180004C803B683B62301CF00165A020604C8CD
:1016280003B684B62401D000165A020306C803B7CD
:1016380000B720013B00175A020305C803B700B7DB
:1016480026014300175A020601C803B780B72001D4
:101658003B00175A020601C803B784B724013F00AC
:10166800175A020601C803B785B725014000175A63
:10167800020601C803B786B726014300175A0206B7
:1016880001C803B787B727014400175A020601C8E3
:1016980003B788B728014500175A020601C803B7DF
:1016A80089B729014600175A020601C803B78AB745
:1016B8002A014700175A020305C803B800B82001D9
:1016C8006900185A020304C803B800B8250171005C
:1016D800185A020301C803B800B829017B00185A38
:1016E800020301C803B800B82A023000185A0203DE
:1016F80003C803B800B82B017E00185A020601C8B7
:1017080003B880B820016900185A020601C803B856
:1017180081B821016A00185A020601C803B882B8C4
:1017280022016B00185A020601C803B883B82301C6
:101738006C00185A020601C803B884B824016D0069
:10174800185A020601C803B885B825017100185A4D
:10175800020601C803B886B826017200185A0206A4
:1017680001C803B887B827017300185A020601C8D0
:1017780003B888B828017400185A020601C803B8CB
:1017880089B829017B00185A020601C803B88AB82B
:101798002A023000185A020601C803B88BB82B0178
:1017A8007E00185A020601C803B88CB82C017F00C5
:1017B800185A020601C803B88DB82D018000185ABE
:1017C800020301C803BB00BB2001B0001B5A02037F
:1017D80002C803BB00BB2101B2001B5A020302C8A6
:1017E80003BB00BB2301B5001B5A020302C803BB9D
:1017F80000BB2501B8001B5A020301C803BB00BB8C
:101808002701BB001B5A020302C803BB00BB280107
:10181800D1001B5A020302C803BB00BB2A01FB000C
:101828001B5A020302C803BB00BB2C0276001B5ADA
:10183800020301C803BB00BB2E01DC001B5A0206D1
:1018480001C803BB80BB2001B0001B5A020601C8B7
:1018580003BB81BB2101B2001B5A020601C803BBAE
:1018680082BB2201B3001B5A020601C803BB83BB1B
:101878002301B5001B5A020601C803BB84BB24011F
:10188800B6001B5A020601C803BB85BB2501B80078
:101898001B5A020601C803BB86BB2601B9001B5AA6
:1018A800020601C803BB87BB2701BB001B5A0206FF
:1018B80001C803BB88BB2801D1001B5A020601C816
:1018C80003BB89BB2901D2001B5A020601C803BB0E
:1018D8008ABB2A01FB001B5A020601C803BB8BBB4B
:1018E8002B01FC001B5A020601C803BB8CBB2C024F
:1018F80076001B5A020601C803BB8DBB2D02770078
:101908001B5A020601C803BB8EBB2E01DC001B5A02
:10191800020302C803BC00BC200232001C5A0203A6
:1019280001C803BC00BC220252001C5A020301C8B1
:1019380003BC00BC230255001C5A020301C803BCA7
:1019480000BC240258001C5A020301C803BC00BC96
:10195800250261001C5A020302C803BC00BC26020F
:1019680071001C5A020301C803BC00BC280286008F
:101978001C5A020601C803BC80BC200232001C5A53
:10198800020601C803BC81BC210233001C5A0206AE
:1019980001C803BC82BC220252001C5A020601C8BC
:1019A80003BC83BC230255001C5A020601C803BCB1
:1019B80084BC240258001C5A020601C803BC85BC1A
:1019C800250261001C5A020601C803BC86BC260217
:1019D80071001C5A020601C803BC87BC27027200AA
:1019E8001C5A020601C803BC88BC280286001C5A7F
:1019F800020302C803BF00BF200102001F5A0203EE
:101A080001C803BF00BF220107001F5A020301C813
:101A180003BF00BF2301A5001F5A020601C803BF68
:101A280080BF200102001F5A020601C803BF81BF00
:101A3800210103001F5A020601C803BF82BF220109
:101A480007001F5A020601C803BF83BF2301A50070
:101A58001F5A020308C803C200C220018200225A8A
:101A6800020301C803C200C228018C00225A0203E3
:101A780001C803C200C229019800225A020601C8FF
:101A880003C280C220018200225A020601C803C292
:101A980081C221018300225A020601C803C282C200
:101AA80022018400225A020601C803C284C224010A
:101AB8008600225A020601C803C285C22501870092
:101AC800225A020601C803C286C226018800225A89
:101AD800020601C803C287C227018900225A0206EA
:101AE80001C803C288C228018C00225A020601C814
:101AF80003C289C229019800225A020601C803C5F7
:101B080080C520023B000F5A020301C8010026CFFE
:101B180027019700FF5A020301C8010026C62001C9
:101B28000600FF5A020601C803C681C62101060045
:101B3800265A020301C803C700C720010400275A18
:101B4800020302C803C700C72101A800275A0203DD
:101B580001C803C700C72301AB00275A020302C804
:101B680003C700C72402D800275A020301C801008E
:101B780027C726031600FF5A020301C8010027C71A
:101B880027031800FF5A020301C8010027C72803CA
:101B98007700FF5A020301C8010027C72903D700AD
:101BA800FF5A020301C8010027A025010400FF5ABB
:101BB800020601C803C780C720010400275A02068D
:101BC80001C803C781C72101A800275A020601C816
:101BD80003C782C72201A900275A020601C803C702
:101BE80083C72301AB00275A020601C803C784C76D
:101BF8002402D800275A020601C803C785C7250250
:101C0800D900275A020301C803C800C820012700C9
:101C1800285A020301C803C800C821012900285A0C
:101C2800020304C803C800C822012D00285A020371
:101C380001C803C800C826019000285A020301C839
:101C480003C800C827019400285A020601C803C81F
:101C580080C820012700285A020601C803C881C885
:101C680021012900285A020601C803C882C8220196
:101C78002D00285A020601C803C883C823012E0074
:101C8800285A020601C803C884C824012F00285A0C
:101C9800020601C803C885C825013000285A020673
:101CA80001C803C886C826019000285A020601C840
:101CB80003C887C827019400285A02030EC80100E8
:101CC80029C9B0037800FF5A020601C803C990C9A0
:101CD80030023C00295A020303C803CC00CCA003FD
:101CE80002002C5A020304C803CF00CF20010D00C4
:101CF8002F5A020301C803CF00CF240141002F5AF5
:101D0800020301C803CF00CF25015A002F5A02034E
:101D180001C803CF00CF2602D0002F5A020301C802
:101D280003CF00CF27019D002F5A020301C803CF1C
:101D380000CF2B02C1002F5A020601C803CF80CF63
:101D480020010D002F5A020601C803CF81CF2101BF
:101D58000E002F5A020601C803CF82CF22010F00BE
:101D68002F5A020601C803CF83CF230110002F5A30
:101D7800020601C803CF84CF240141002F5A02066E
:101D880001C803CF85CF25015A002F5A020601C882
:101D980003CF86CF2602D0002F5A020601C803CFF0
:101DA80087CF27019D002F5A020601C803CF8ACF8B
:101DB8002A023B002F5A020601C803CF8BCF2B0201
:101DC800C1002F5A02030AC8010034D420039C0022
:101DD800FF5A020302C8010034D42A03A800FF5A9C
:101DE800020307C803D500D520011A00355A020698
:101DF80001C803D580D520011A00355A020601C84A
:101E080003D582D522011C00355A020601C803D524
:101E180083D523011D00355A020601C803D584D590
:101E280024011E00355A020601C803D585D52501AF
:101E38001F00355A020601C803D586D526012000A1
:101E4800355A020301C803D600D620010800365AC5
:101E5800020302C803D600D621010A00365A02033B
:101E680001C803D600D62301A700365A020601C8C6
:101E780003D680D620010800365A020601C803D6C8
:101E880081D621010A00365A020601C803D682D635
:101E980022010B00365A020601C803D683D6230155
:101EA800A700365A020301C803D700D72002F4005E
:101EB800375A020301C803D700D72101CC00375A8B
:101EC800020601C803D780D72002F400375A020659
:101ED80001C803D781D72101CC00375A020301C8B2
:101EE80003D800D82001F500385A020301C803D8E6
:101EF80000D821020700385A02030CC803D800D8BA
:101F08002201BC00385A020301C803D800D82E02A7
:101F18007D00385A020301C803D800D82F027F0079
:101F2800385A020301C803D800D830020F00385AC3
:101F3800020601C803D880D82001F500385A0206E5
:101F480001C803D881D821020700385A020601C8FF
:101F580003D882D82201BC00385A020601C803D827
:101F680083D82301BD00385A020601C803D884D893
:101F78002401BE00385A020601C803D885D82501B5
:101F8800BF00385A020601C803D886D82601C00007
:101F9800385A020601C803D887D82701C100385A21
:101FA800020601C803D888D82801C200385A020698
:101FB80001C803D889D82901C300385A020601C8C4
:101FC80003D88AD82A01C400385A020601C803D89F
:101FD8008BD82B01C500385A020601C803D88CD803
:101FE8002C01C600385A020601C803D88DD82D0125
:101FF800C700385A020601C803D88ED82E027D00C1
:10200800385A020601C803D88FD82F027F00385AE1
:10201800020601C803D890D830020F00385A0203CC
:1020280001C801003ADA2003CD00FF5A020301C8B3
:1020380001003ADA2103CF00FF5A020302C8010067
:102048003ADA2203D100FF5A020301C801003ADA42
:102058002403D500FF5A020301C801003ADA250318
:10206800D700FF5A020301C801003ADA2603D90053
:10207800FF5A020301C801003ADA2703DB00FF5ABE
:10208800020301C801003ADA2803DD00FF5A0203FF
:1020980001C803DB00DB20019A003B5A020301C898
:1020A80003DB00DB2102D3003B5A020302C803DB37
:1020B80000DB2202D5003B5A020302C803DB00DB27
:1020C8002402D8003B5A020305C803DB00DB2602C2
:1020D800DB003B5A020301C803DB00DB2B010600CF
:1020E8003B5A020301C803DB00DB2C02E1003B5A28
:1020F800020302C803DB00DB2D02E4003B5A0206A0
:1021080001C803DB80DB20019A003B5A020601C8A4
:1021180003DB81DB2102D3003B5A020601C803DB43
:1021280082DB2202D5003B5A020601C803DB83DBAF
:102138002302D6003B5A020601C803DB84DB2402D3
:10214800D8003B5A020601C803DB85DB2502D9000B
:102158003B5A020601C803DB86DB2602DB003B5A3A
:10216800020601C803DB87DB2702DC003B5A0206B4
:1021780001C803DB88DB2802DD003B5A020601C8E0
:1021880003DB89DB2902DE003B5A020601C803DBB8
:102198008ADB2A02DF003B5A020601C803DB8BDB1D
:1021A8002B0106003B5A020601C803DB8CDB2C021C
:1021B800E1003B5A020601C803DB8DDB2D02E40077
:1021C8003B5A020601C803DB8EDB2E02E5003B5AB0
:1021D800020301C803DD00DD20019B003D5A020314
:1021E80004C803DD00DD2101E7003D5A020302C8EF
:1021F80003DD00DD2501ED003D5A020601C803DDBF
:1022080080DD20019B003D5A020601C803DD81DD07
:102218002101E7003D5A020601C803DD82DD2201E3
:10222800E8003D5A020601C803DD83DD2301E90009
:102238003D5A020601C803DD84DD2401EA003D5A47
:10224800020601C803DD85DD2501ED003D5A0206C1
:1022580001C803DD86DD2601EE003D5A020301C8F0
:1022680001003EDE20037500FF5A020301C8010089
:102278003EDE21037700FF5A020303C803DF00DFB5
:10228800200237003F5A020306C803DF00DF23029B
:102298009E003F5A020601C803DF80DF2002370094
:1022A8003F5A020601C803DF81DF210238003F5A86
:1022B800020601C803DF82DF220239003F5A020604
:1022C80006C803DF83DF23029E003F5A020606C8C2
:1022D80003DF84DF24029F003F5A020606C803DF9B
:1022E80085DF2502A0003F5A020606C803DF86DF05
:1022F8002602A1003F5A020606C803DF87DF27022D
:10230800A2003F5A020606C803DF88DF2802A3009E
:102318003F5A020301C8010039E12002F500FF5AC3
:10232800020301C8010041E12002F500FF5A02033F
:1023380002C8010041E12102F600FF5A020601C865
:1023480003E183E12302F800415A020601C803E1D0
:1023580083E12402F900415A020601C803D780D755
:102368002002F400414E8532000000000000000009
:102378000000000000004280020000652880045A26
:1023880013B320B350B3805A13B322B352B3825A53
:1023980013B323B353B3835A13B324B354B3845A34
:1023A80013B325B355B3855A13B326B356B3865A18
:1023B80014B420B450B4805A14B421B451B4815A1E
:1023C80014B423B453B4835A14B424B454B4845AFC
:1023D80014B425B455B4855A14B426B456B4865AE0
:1023E80014B427B457B4875A14B428B458B4885AC4
:1023F80014B42AB45AB48A5A14B42BB45BB48B5AA2
:1024080014B42CB45CB48C5A16B620B650B6805AA4
:1024180016B621B651B6815A16B622B652B6825AA7
:1024280016B623B653B6835A16B624B654B6845A8B
:1024380017B720B750B7805A17B724B754B7845A7C
:1024480017B725B755B7855A17B726B756B7865A57
:1024580017B727B757B7875A17B728B758B7885A3B
:1024680017B729B759B7895A17B72AB75AB78A5A1F
:1024780018B820B850B8805A18B821B851B8815A3D
:1024880018B822B852B8825A18B823B853B8835A21
:1024980018B824B854B8845A18B825B855B8855A05
:1024A80018B826B856B8865A18B827B857B8875AE9
:1024B80018B828B858B8885A18B829B859B8895ACD
:1024C80018B82AB85AB88A5A18B82BB85BB88B5AB1
:1024D80018B82CB85CB88C5A18B82DB85DB88D5A95
:1024E8001BBB20BB50BB805A1BBB21BB51BB815AB5
:1024F8001BBB22BB52BB825A1BBB23BB53BB835A99
:102508001BBB24BB54BB845A1BBB25BB55BB855A7C
:102518001BBB26BB56BB865A1BBB27BB57BB875A60
:102528001BBB28BB58BB885A1BBB29BB59BB895A44
:102538001BBB2ABB5ABB8A5A1BBB2BBB5BBB8B5A28
:102548001BBB2CBB5CBB8C5A1BBB2DBB5DBB8D5A0C
:102558001BBB2EBB5EBB8E5A1CBC20BC50BC805A19
:102568001CBC21BC51BC815A1CBC22BC52BC825A26
:102578001CBC23BC53BC835A1CBC24BC54BC845A0A
:102588001CBC25BC55BC855A1CBC26BC56BC865AEE
:102598001CBC27BC57BC875A1CBC28BC58BC885AD2
:1025A8001FBF20BF50BF805A1FBF21BF51BF815AD4
:1025B8001FBF22BF52BF825A1FBF23BF53BF835AB8
:1025C80022C220C250C2805A22C221C251C2815A9C
:1025D80022C222C252C2825A22C224C254C2845A7D
:1025E80022C225C255C2855A22C226C256C2865A5E
:1025F80022C227C257C2875A22C228C258C2885A42
:1026080022C229C259C2895A27C720C750C7805A2F
:1026180027C721C751C7815A27C722C752C7825A1D
:1026280027C723C753C7835A27C724C754C7845A01
:1026380027C725C755C7855A28C820C850C8805AF3
:1026480028C821C851C8815A28C822C852C8825AE5
:1026580028C823C853C8835A28C824C854C8845AC9
:1026680028C825C855C8855A28C826C856C8865AAD
:1026780028C827C857C8875A2FCF20CF50CF805A8D
:102688002FCF21CF51CF815A2FCF22CF52CF825A6D
:102698002FCF23CF53CF835A2FCF24CF54CF845A51
:1026A8002FCF25CF55CF855A2FCF26CF56CF865A35
:1026B8002FCF27CF57CF875A2FCF2BCF5BCF8B5A10
:1026C80035D520D550D5805A35D522D552D5825A00
:1026D80035D523D553D5835A35D524D554D5845AE1
:1026E80035D525D555D5855A35D526D556D5865AC5
:1026F80036D620D650D6805A36D621D651D6815ACB
:1027080036D622D652D6825A36D623D653D6835AAE
:1027180037D720D750D7805A37D721D751D7815AA2
:1027280038D820D850D8805A38D821D851D8815A8A
:1027380038D822D852D8825A38D823D853D8835A6E
:1027480038D824D854D8845A38D825D855D8855A52
:1027580038D826D856D8865A38D827D857D8875A36
:1027680038D828D858D8885A38D829D859D8895A1A
:1027780038D82AD85AD88A5A38D82BD85BD88B5AFE
:1027880038D82CD85CD88C5A38D82DD85DD88D5AE2
:1027980038D82ED85ED88E5A38D82FD85FD88F5AC6
:1027A80038D830D860D8905A3BDB20DB50DB805AD1
:1027B8003BDB21DB51DB815A3BDB22DB52DB825ADC
:1027C8003BDB23DB53DB835A3BDB24DB54DB845AC0
:1027D8003BDB25DB55DB855A3BDB26DB56DB865AA4
:1027E8003BDB27DB57DB875A3BDB28DB58DB885A88
:1027F8003BDB29DB59DB895A3BDB2ADB5ADB8A5A6C
:102808003BDB2BDB5BDB8B5A3BDB2CDB5CDB8C5A4F
:102818003BDB2DDB5DDB8D5A3BDB2EDB5EDB8E5A33
:102828003DDD20DD50DD805A3DDD21DD51DD815A61
:102838003DDD22DD52DD825A3DDD23DD53DD835A45
:102848003DDD24DD54DD845A3DDD25DD55DD855A29
:102858003DDD26DD56DD865A3FDF20DF50DF805A1A
:102868003FDF21DF51DF815A3FDF22DF52DF825A0B
:102878003FDF23DF53DF835A3FDF24DF54DF845AEF
:102888003FDF25DF55DF855A3FDF26DF56DF865AD3
:102898003FDF27DF57DF875A3FDF28DF58DF885AB7
:1028A80041D720D750D78041800100418000005C8B
:1028B800A963000000000000000000000000000004
:1028C80000000000000000000000000000005CA9FB
:1028D8003F00000000000000010000000200027339
:1028E80060000A2D080002EA800007ED6541A93B57
:1028F800FF608CA8AF00000100020003000400057F
:102908000006000700080009000A000B000C000D73
:10291800000E000F01100011001202130014001520
:102928000016001700180019001A001B021C001DD1
:10293800001E001F00200021002200230024002583
:102948000026022700280029002A002B002C002D31
:10295800002E002F033000310032003300340035E0
:102968000036003705380039003A003B003C003D8E
:10297800003E003F00400041004200430044004543
:102988000048A95B000101030203030642A93D00B8
:102998000042A8AD000042A8AA000041A8AC00006F
:1029A800AF13EF1313543F54016401600302336CF7
:1029B8007B017AA4799890A6A3F0A3740CF07F21E8
:1029C8007EA012526490A49AE0FEA3E0FF90A4981F
:1029D800E0FCA3E02FFFEC3EFE90A9C5E0FCA3E0DD
:1029E8006F7002EE6C605890A49AE0FEA3E0FF902E
:1029F800A498E0FCA3E02FFFEC3EFE90A9C5E0FC04
:102A0800A3E0C39FEC9E501D90A4A2E4F0A304F0A1
:102A1800FB7AA479A290A6A3E4F0A37402F07F261F
:102A28007EA01254D190A49AE0FEA3E0FF90A4984F
:102A3800E0FCA3E02FFFEC3E90A9C5F0A3EFF090D7
:102A4800A498E0FEA3E0D39400EE9400500CA3E019
:102A5800FEA3E09400EE9400402090A4A2E0FEA320
:102A6800E04E60167B017AA979B390A6A3E4F0A39F
:102A78007402F07FA07E001254D190AA92E0FEA3C7
:102A8800E0640D4E6003022E2990AA92E0A3E0FFB5
:102A980090A9DFE0FCA3E06F7002EC6E601EE4908A
:102AA800A9E4F0A3F07B017AA979E490A6A3F0A3A6
:102AB8007402F07F017EAE1254D180167B017AA990
:102AC80079E490A6A3E4F0A37402F07F017EAE122D
:102AD80052647B017AA4799890A6A3E4F0A37410B9
:102AE800F07FA07EAE125264E490A4A6F0A3E05456
:102AF80007F07B017AA979B578987CA47D017E00DE
:102B08007F101239CEEF702F90A9E1E0FEA3E0FF0D
:102B180090A9E4E0FCA3E0B5071DECB5061990AA5E
:102B280092E0FEA3E0FF90A9DFE0FCA3E06F700253
:102B3800EC6E700302311E7B017AA4799878B57C1B
:102B4800A97D017E007F1012343DE490A9E3F09046
:102B5800A4CBF090A4CBE0C3940874809480400385
:102B6800022DD1E490A4CAF090A4CAE0C3941074D2
:102B78008094804003022DC8A3E0C454F0FF90A4C1
:102B8800CAE02F90A4CFF0E075F018A42400FFE568
:102B9800F03435FE7B017AA4799890A6A3E4F0A3DB
:102BA8007430F01252647B017AA4799890A4CC1204
:102BB80037EC90A4CAE0FF7E007401A807088005DE
:102BC800C333CE33CED8F9FF90A4CBE025E024B5AB
:102BD800F582E434A9F583E0FCA3E0FDEE5CFEEFAA
:102BE8005D4E7003022D1F90A4CC1237CC12358491
:102BF800645A7004E5F064A57003022CBC90A4CC60
:102C08001237CC74A575F05A1235E77B017AA4798E
:102C1800AC90A6A3E4F0A37408F07F107E001252D3
:102C2800647B017AA479AC789A7CA47D017E007FCC
:102C38000312343D7B017AA479B0789D7CA47D0190
:102C48007E007F0312343D7E007F087D007B017A81
:102C5800A479A01239F290A4CFE0FF90A4A6E4F0E2
:102C6800A3EFF07B017AA479A8C002C00190A4CF99
:102C780075F020A424B8F9749535F0FA90A4E312FD
:102C880037EC90A4E6E4F0A37420F0D001D002124F
:102C9800754690A4CFE075F018A42400FFE5F03441
:102CA80035FE7B017AA4799890A6A3E4F0A374304A
:102CB800F01254D190A9E4E0FEA3E0FF7C007D0A65
:102CC8001234BB90A9E3E0C39FEC9E4041A3E0FE11
:102CD800A3E0FF1234BBEF240AFFE43EFE90A9E311
:102CE800E0C39FEC9E502790A4CFE075F018A42471
:102CF80000FDE5F03435FC90A9E4E0A3E075F00AA6
:102D0800A4FF90A9E3E0C39FFF7B0D12649590A9EF
:102D1800E3E004F0022DBF90A4CC1237CC12358426
:102D2800645A7004E5F064A56003022DBF7B017A44
:102D3800A479AC90A6A3F0A37408F07F107E0012CB
:102D480052647B017AA479AC78A07CA47D017E00D2
:102D58007F0312343D7B017AA479B078A37CA47DEB
:102D6800017E007F0312343D90A4CFE0FF90A4A61B
:102D7800E4F0A3EFF07B017AA4799890A6A3E4F09D
:102D8800A37410F07F007E301254D1126CB1E4901D
:102D9800A498F0A3F090A4CFE075F018A42400FF45
:102DA800E5F03435FE7B017AA4799890A6A3E4F087
:102DB800A37402F01254D190A4CAE004F0022B705C
:102DC80090A4CBE004F0022B5B90A9E3E090A4CAA6
:102DD800F090A9E4E0FEA3E0FF7C007D0A1234BB7A
:102DE800EF240AFFE43EFE90A4CAE0C39FEC9E5085
:102DF8001D90A9E4E0A3E075F00AA4FF90A4CAE03E
:102E0800C39FFF1261FC90A4CAE004F080C390A99C
:102E1800E4E0FEA3E0FF90A9E1EEF0A3EFF00231B9
:102E28001E7B017AA4799890A6A3E4F0A37410F00D
:102E38007FA07EAE125264E490A4A6F0A3E05407EB
:102E4800F07B017AA979B578987CA47D017E007F12
:102E5800101239CEEF700302311E7B017AA47998E3
:102E680078CC7CA47D017E007F1012343DE490A4D0
:102E7800CBF090A4CBE0C394067480948040030206
:102E8800310BE490A4CAF090A4CAE0C394107480F3
:102E980094804003023102E0FF7E007401A8070815
:102EA8008005C333CE33CED8F9FF90A4CBE025E01C
:102EB80024CCF582E434A4F583E0FCA3E0FDEE5CC9
:102EC800FCEF5DFD90A4CAE0FF7E007401A807082E
:102ED8008005C333CE33CED8F9FF90A4CBE025E0EC
:102EE80024B5F582E434A9F583E0FAA3E0FBEE5AB1
:102EF800FEEF5B6D7002EE6C70030230F990A4CBAC
:102F0800E0C454F0FF90A4CAE02F90A4DFF0E0756D
:102F1800F018A42400FFE5F03435FE7B017AA4798B
:102F28009890A6A3E4F0A37430F01252647B017A5F
:102F3800A4799890A4DC1237EC90A4CAE0FF7E0034
:102F48007401A807088005C333CE33CED8F9FF90A3
:102F5800A4CBE025E024CCF582E434A4F583E0FC9E
:102F6800A3E0FDEE5CFEEF5D4E700302304690A4D8
:102F7800DC1237CC123584645A7004E5F064A5700D
:102F8800030230F990A4DC1237CC74A575F05A12FC
:102F980035E77B017AA479AC90A6A3E4F0A3740882
:102FA800F07F107E001252647B017AA479AC789A83
:102FB8007CA47D017E007F0312343D7B017AA479D5
:102FC800B0789D7CA47D017E007F0312343D7E0095
:102FD8007F087D007B017AA479A01239F290A4DFE2
:102FE800E0FF90A4A6E4F0A3EFF07B017AA479A80F
:102FF800C002C00190A4DF75F020A424B8F974952C
:1030080035F0FA90A4E31237EC90A4E6E4F0A37448
:1030180020F0D001D00212754690A4DFE075F018B8
:10302800A42400FFE5F03435FE7B017AA47998905A
:10303800A6A3E4F0A37430F01254D10230F990A49E
:10304800DC1237CC123584645A7004E5F064A5604C
:10305800030230F97B017AA479AC90A6A3F0A3749B
:1030680008F07F107E001252647B017AA479AC7854
:10307800A07CA47D017E007F0312343D7B017AA4ED
:1030880079B078A37CA47D017E007F0312343D9043
:10309800A4DFE0FF90A4A6E4F0A3EFF07B017AA4FC
:1030A800799890A6A3E4F0A37410F07F007E301204
:1030B80054D1126CB1E490A498F0A3F090A4DFE08E
:1030C80075F018A42400FFE5F03435FE7B017AA4DE
:1030D800799890A6A3E4F0A37402F01254D190A9B1
:1030E800E4E0FEA3E02401FFE43E90A9E1F0A3EFB1
:1030F800F090A4CAE004F0022E8F90A4CBE004F074
:10310800022E7A7B017AA479CC78B57CA97D017EE0
:10311800007F1012343D90AA92E0FEA3E0640E4EA8
:10312800600302335C90AA92E0A3E0FF90A9DFE07D
:10313800FCA3E06F7002EC6E601EE490A9E4F0A3BB
:10314800F07B017AA979E490A6A3F0A37402F07F3A
:10315800017EAE1254D180347B017AA979E490A61D
:10316800A3E4F0A37402F07F017EAE12526490A92A
:10317800E1E0FEA3E0FF90A9E4E0FCA3E06F7002A9
:10318800EC6E700302335C800302335C90A9E4E0C8
:10319800FEA3E0FF90A9E1EEF0A3EFF0E4A3F09026
:1031A800A9E3E0C3940A748094804003023342A3E5
:1031B800E0FEA3E0FF7C007D0A1234BB90A9E3E0A7
:1031C8002FFFEC3EFE90A9DDE0FCA3E0FDC3EF9DE0
:1031D800EE9C400302334290A9E4E0FEA3E0FF7CAA
:1031E800007D0A1234BB90A9E3E02FFFEC3EFE906D
:1031F800A9D9E0FCA3E0D39FEC9E403290A9E4E07B
:10320800FEA3E0FF7C001234BB90A9E3E02FFFECA3
:103218003EFEEF2401FFE43EFE90A9D9E0FCA3E0C6
:10322800C39FFFEC9E90A4CCF0A3EFF0803A90A946
:10323800E4E0FEA3E0FF7C007D0A1234BB90A9E322
:10324800E02FFFEC3EFEEF2401FFE43EFE90A9D9FB
:10325800E0FCA3E02400FDEC3402FCC3ED9FFFEC8E
:103268009E90A4CCF0A3EFF090A4CCE0FEA3E0786D
:1032780003C333CE33CED8F92400FFEE3420FEE466
:10328800FCFD90A6A112378390A6A5E4F0A37408CC
:10329800F07D007C307F5A1271F87B017AA479980E
:1032A80090A6A3E4F0A37410F07F007E301252645D
:1032B8007B017AA479A8C003C002C00190A4A6E04B
:1032C800FEA3E07805C333CE33CED8F924B8F97419
:1032D800953EFA7B0190A4E31237EC90A4E6E4F063
:1032E800A37420F0D001D002D00312754690A9E350
:1032F800E025E024E6F582E434A9F583E0FEA3E0C6
:10330800FF7B017AA4799890A6A3E4F0A37430F027
:103318001254D190A9E3E025E024E6F582E434A92B
:10332800F583E0FCA3E0FD90A9E3E0FF7B0E1264C7
:103338009590A9E3E004F00231A790A9E3E0C394D3
:103348000A74809480500DE0FF1261FC90A9E3E0BC
:1033580004F080E690AA92E0FEA3E0FF90A9DFEED9
:10336800F0A3EFF022E709F608DFFA8046E709F252
:1033780008DFFA803E88828C83E709F0A3DFFA80B1
:1033880032E309F608DFFA8078E309F208DFFA8009
:103398007088828C83E309F0A3DFFA806489828ACB
:1033A80083E0A3F608DFFA805889828A83E0A3F2D3
:1033B80008DFFA804C80D280FA80C680D480698089
:1033C800F28033801080A680EA809A80A880DA8014
:1033D800E280CA803389828A83ECFAE493A3C8C561
:1033E80082C8CCC583CCF0A3C8C582C8CCC583CC61
:1033F800DFE9DEE7800D89828A83E493A3F608DF9C
:10340800F9ECFAA9F0EDFB2289828A83ECFAE0A3B1
:10341800C8C582C8CCC583CCF0A3C8C582C8CCC5F2
:1034280083CCDFEADEE880DB89828A83E493A3F237
:1034380008DFF980CC88F0EF60010E4E60C388F099
:10344800ED2402B4040050B9F582EB2402B4040060
:1034580050AF23234582239033BD73BB0106898275
:103468008A83E0225002E722BBFE02E32289828A95
:1034780083E49322BB010CE58229F582E5833AF5C2
:1034880083E0225006E92582F8E622BBFE06E925FC
:1034980082F8E222E58229F582E5833AF583E4930E
:1034A80022BB010689828A83F0225002F722BBFEE2
:1034B80001F322EF8DF0A4A8F0CF8CF0A428CE8DD4
:1034C800F0A42EFE22BC000BBE0029EF8DF084FF75
:1034D800ADF022E4CCF875F008EF2FFFEE33FEECE8
:1034E80033FCEE9DEC984005FCEE9DFE0FD5F0E90F
:1034F800E4CEFD22EDF8F5F0EE8420D21CFEADF00E
:1035080075F008EF2FFFED33FD4007985006D5F012
:10351800F222C398FD0FD5F0EA22C2D5EC30E709B4
:10352800B2D5E4C39DFDE49CFCEE30E715B2D5E4CA
:10353800C39FFFE49EFE1234CDC3E49DFDE49CFCD2
:1035480080031234CD30D507C3E49FFFE49EFE22EA
:10355800C5F0F8A3E028F0C5F0F8E58215827002FE
:103568001583E038F022A3F8E0C5F025F0F0E582F5
:10357800158270021583E0C838F0E822BB010A8979
:10358800828A83E0F5F0A3E022500687F009E71964
:1035980022BBFE07E3F5F009E3192289828A83E456
:1035A80093F5F074019322BB0110E58229F582E5B9
:1035B800833AF583E0F5F0A3E0225009E92582F883
:1035C80086F008E622BBFE0AE92582F8E2F5F00853
:1035D800E222E5832AF583E993F5F0A3E99322BB78
:1035E800010A89828A83F0E5F0A3F0225006F709E0
:1035F800A7F01922BBFE06F3E5F009F31922EF2B19
:10360800FFEE3AFEED39FDEC38FC22E88FF0A4CC51
:103618008BF0A42CFCE98EF0A42CFC8AF0EDA42CF1
:10362800FCEA8EF0A4CDA8F08BF0A42DCC3825F0C0
:10363800FDE98FF0A42CCD35F0FCEB8EF0A4FEA9AB
:10364800F0EB8FF0A4CFC5F02ECD39FEE43CFCEAB8
:10365800A42DCE35F0FDE43CFC2275F008758200FF
:10366800EF2FFFEE33FECD33CDCC33CCC58233C53F
:10367800829BED9AEC99E58298400CF582EE9BFED0
:10368800ED9AFDEC99FC0FD5F0D6E4CEFBE4CDFA2B
:10369800E4CCF9A88222B800C1B90059BA002DECCF
:1036A8008BF084CFCECDFCE5F0CBF97818EF2FFF67
:1036B800EE33FEED33FDEC33FCEB33FB10D703990F
:1036C8004004EB99FB0FD8E5E4F9FA227818EF2FBC
:1036D800FFEE33FEED33FDEC33FCC933C910D705DB
:1036E8009BE99A4007EC9BFCE99AF90FD8E0E4C9FA
:1036F800FAE4CCFB2275F010EF2FFFEE33FEED332A
:10370800FDCC33CCC833C810D7079BEC9AE8994056
:103718000AED9BFDEC9AFCE899F80FD5F0DAE4CDB8
:10372800FBE4CCFAE4C8F922EB9FF5F0EA9E42F0FC
:10373800E99D42F0EC6480C864809845F022EB9FD4
:10374800F5F0EA9E42F0E99D42F0E89C45F022E857
:103758006010ECA2E713FCED13FDEE13FEEF13FF70
:10376800D8F022E0FCA3E0FDA3E0FEA3E0FF22E006
:10377800F8A3E0F9A3E0FAA3E0FB22ECF0A3EDF054
:10378800A3EEF0A3EFF022A8828583F0D083D08245
:103798001237A61237A61237A61237A6E473E49397
:1037A800A3C583C5F0C583C8C582C8F0A3C583C5B2
:1037B800F0C583C8C582C822A42582F582E5F03504
:1037C80083F58322E0FBA3E0FAA3E0F922F8E0FB0B
:1037D800A3A3E0F925F0F0E582158270021583E0D5
:1037E800FA38F022EBF0A3EAF0A3E9F022D083D074
:1037F80082F8E4937012740193700DA3A393F87484
:103808000193F5828883E4737402936860EFA3A33D
:10381800A380DFD083D082F8E49370127401937090
:103828000DA3A393F8740193F5828883E47374025B
:1038380093B5F0067403936860E9A3A3A3A380D8A3
:10384800E3F5F009E208B5F06BDFF58067E3F5F022
:1038580009E608B5F05EDFF5805A87F009E608B595
:10386800F052DFF6804E87F009E208B5F046DFF641
:10387800804288828C8387F009E0A3B5F036DFF6B2
:10388800803288828C8387F009E493A3B5F025DF22
:10389800F5802188828C83E3F5F009E0A3B5F01464
:1038A800DFF5801088828C83E3F5F009E493A3B5F3
:1038B800F002DFF4023977808780E9809080D48035
:1038C8003E8015806E807E809D80B7808D80A3802D
:1038D800518074803C02398389828A83ECFAE493AC
:1038E800F5F0A3C8C582C8CCC583CCE493A3C8C5EA
:1038F80082C8CCC583CCB5F076DFE3DEE180708981
:10390800828A83E493F5F0A3E208B5F062DFF480DD
:103918005E89828A83E0F5F0A3E608B5F051DFF509
:10392800804D89828A83E0F5F0A3E208B5F040DF94
:10393800F5803C89828A83E493F5F0A3E608B5F024
:103948002EDFF4802A8002805789828A83ECFAE489
:1039580093F5F0A3C8C582C8CCC583CCE0A3C8C57D
:1039680082C8CCC583CCB5F006DFE4DEE280007FF8
:10397800FFB5F0020F2240027F012289828A83EC80
:10398800FAE0F5F0A3C8C582C8CCC583CCE0A3C8CB
:10399800C582C8CCC583CCB5F0D5DFE5DEE380CFE2
:1039A80089828A83ECFAE0F5F0A3C8C582C8CCC541
:1039B80083CCE493A3C8C582C8CCC583CCB5F0AF8B
:1039C800DFE4DEE280A988F0EF60010E4E60ABED27
:1039D8002402B404005098F582EB2402B404005089
:1039E8008E23234582239038BF73EF4E6012EF6019
:1039F800010EEDBB010B89828A83F0A3DFFCDEFA9E
:103A08002289F05007F709DFFCA9F022BBFEFCF37E
:103A180009DFFCA9F022F8BB010DE58229F582E552
:103A2800833AF583E8F0225006E92582C8F622BBDE
:103A3800FE05E92582C8F2227BFF7A80794878D38F
:103A48007CA47D017E007F3E12343D7BFF7A807925
:103A58008678127CA57D017E007F2412343D7B018F
:103A68007AA479D390A6A3E4F0A3743EF07F207ED5
:103A7800AB125264E490A511F090A511E0C3941024
:103A8800748094804003023CE1E0FF7E007401A84A
:103A980007088005C333CE33CED8F9FF90A4D9E008
:103AA800FCA3E0FDEE5CFEEF5D4E7003023CC590AA
:103AB800A511E0FF7E007401A807088005C333CE76
:103AC80033CED8F9FF90A4DDE0FCA3E0FDEE5CFE68
:103AD800EF5D4E7003023C7290A511E0FF13135482
:103AE8003F2407FFE43390A538F0A3EFF090A53802
:103AF800E0FEA3E025E0FFEE33FE74D32FF58274D9
:103B0800A43EF583E0FEA3E0FF90A511E054032551
:103B1800E025E0FDEFA805088005CEC313CE13D835
:103B2800F9540FFF90A536E4F0A3EFF090A536E026
:103B3800FEA3E08EF012381B3B6400003B7C0001C2
:103B48003B9400023BAC00043BC300053BDA000693
:103B58003BF100083C08000900003C1F90A511E05B
:103B680025E02412F582E434A5F583E4F0A3740576
:103B7800F0023C3490A511E025E02412F582E434EB
:103B8800A5F583E4F0A37406F0023C3490A511E097
:103B980025E02412F582E434A5F583E4F0A3740744
:103BA800F0023C3490A511E025E02412F582E434BB
:103BB800A5F583E4F0A37408F0807190A511E025C1
:103BC800E02412F582E434A5F583E4F0A37409F047
:103BD800805A90A511E025E02412F582E434A5F579
:103BE80083E4F0A3740AF0804390A511E025E02453
:103BF80012F582E434A5F583E4F0A37403F0802C75
:103C080090A511E025E02412F582E434A5F583E4BB
:103C1800F0A37404F0801590A511E025E02412F5B6
:103C280082E434A5F583E4F0A37405F090A511E0CF
:103C3800FF7E007401A807088005C333CE33CED8B1
:103C4800F9FF90A4D5E0FCA3E0FDEE5CFEEF5D4E2D
:103C5800607E90A511E025E02412F582E434A5F5F4
:103C680083E475F008123558806690A511E0FF7E50
:103C7800007401A807088005C333CE33CED8F9FFF6
:103C880090A4D5E0FCA3E0FDEE5CFEEF5D4E60176E
:103C980090A511E025E02412F582E434A5F583E42B
:103CA800F0A37402F0802990A511E025E02412F514
:103CB80082E434A5F583E4F0A304F0801390A51101
:103CC800E025E02412F582E434A5F583E4F0A3F0BE
:103CD80090A511E004F0023A8190A5117410F090BB
:103CE800A511E0C39412748094804003023F52E00F
:103CF80024F0FF7E007401A807088005C333CE3383
:103D0800CED8F9FF90A4DBE0FCA3E0FDEE5CFEEF6B
:103D18005D4E7003023F3690A511E024F0FF7E004F
:103D28007401A807088005C333CE33CED8F9FF90B5
:103D3800A4DFE0FCA3E0FDEE5CFEEF5D4E70030245
:103D48003EE190A511E0FF1313543F2407FFE4332D
:103D580090A538F0A3EFF090A538E0FEA3E025E0A9
:103D6800FFEE33FE74D32FF58274A43EF583E0FE94
:103D7800A3E0FF90A511E0540325E025E0FDEFA89E
:103D880005088005CEC313CE13D8F9540FFF90A5AC
:103D980036E4F0A3EFF090A536E0FEA3E08EF01233
:103DA800381B3DCE00003DE600013DFE00023E16F8
:103DB80000043E2D00053E4400063E5B00083E72AE
:103DC800000900003E8990A511E025E02412F58243
:103DD800E434A5F583E4F0A37405F0023E9E90A5B3
:103DE80011E025E02412F582E434A5F583E4F0A37C
:103DF8007406F0023E9E90A511E025E02412F5829B
:103E0800E434A5F583E4F0A37407F0023E9E90A580
:103E180011E025E02412F582E434A5F583E4F0A34B
:103E28007408F0807190A511E025E02412F582E471
:103E380034A5F583E4F0A37409F0805A90A511E045
:103E480025E02412F582E434A5F583E4F0A3740A8E
:103E5800F0804390A511E025E02412F582E434A512
:103E6800F583E4F0A37403F0802C90A511E025E01D
:103E78002412F582E434A5F583E4F0A37404F080F9
:103E88001590A511E025E02412F582E434A5F58308
:103E9800E4F0A37405F090A511E024F0FF7E00740F
:103EA80001A807088005C333CE33CED8F9FF90A404
:103EB800D7E0FCA3E0FDEE5CFEEF5D4E7003023F31
:103EC8004990A511E025E02412F582E434A5F58394
:103ED800E475F008123558806890A511E024F0FFC9
:103EE8007E007401A807088005C333CE33CED8F905
:103EF800FF90A4D7E0FCA3E0FDEE5CFEEF5D4E6012
:103F08001790A511E025E02412F582E434A5F58385
:103F1800E4F0A37402F0802990A511E025E02412B2
:103F2800F582E434A5F583E4F0A304F0801390A5AA
:103F380011E025E02412F582E434A5F583E4F0A32A
:103F4800F090A511E004F0023CE77B017AA5791214
:103F580090A6A3E4F0A37424F07FA07EAB1254D102
:103F680022E51330E0167B017AAA799290A6A3E4A1
:103F7800F0A37402F07F147E00125264E51320E26D
:103F88000302433C90AA92E0FEA3E04E702690AA5A
:103F98008DE0C39406748094805005E004F080148A
:103FA80090AA8DE06406700C7F39FE1279C590AA3C
:103FB8008DE004F090AA92E0FEA3E0640B4E70033B
:103FC800123A4090AA92E0FEA3E064294E600302F0
:103FD80040AC7B017AA4799B90A6A3F0A3741CF053
:103FE8007FB07EC9125264E490A498F090A498E03F
:103FF800C39407748094804003024096E025E0252E
:10400800E0249BF582E434A4F583E0FEA3E0C4F841
:10401800540FC868FDEEC454F048FC90A498E025FD
:10402800E025E0249DF582E434A4F583E0FEA3E0D6
:10403800EEC4540F2DFFE43C90A499F0A3EFF09048
:10404800A499E0FEA3E0FF7C007D181234CD90A473
:1040580098E025E024B7F582E434A4F583EEF0A3D4
:10406800EFF090A499E0FEA3E0FF7C007D181234E5
:10407800CD90A498E025E024C5F582E434A4F58326
:10408800ECF0A3EDF090A498E004F0023FF47B017B
:104098007AA479B790A6A3E4F0A3741CF07F207EDD
:1040A800C91254D190AA92E0FEA3E0642C4E60039A
:1040B80002418E7B017AA479A890A6A3F0A3740686
:1040C800F07FA07ECC12526490A4A8E0FEA3E0FF8B
:1040D800EEC4F854F0C868FEEFC4540F4890A49892
:1040E800EEF0A3E4F090A498E0FCA3E0FD90A4A86F
:1040F800E0FEA3E07807CEC313CE13D8F9541FFF10
:10410800ECFEED4FFF90A498EEF0A3EFF090A4A87A
:10411800E0A3E0547F90A49AF0A3E4F090A49AE07E
:10412800FCA3E0FD90A4ACE0FEA3E0EEFFECFEED06
:104138004FFF90A49AEEF0A3EFF090A4ACE0A3E0B8
:1041480090A49CF0A3E4F090A4AAE0FEA3E0FF9062
:10415800A49EEEF0A3EFF0A37402F0A304F0A374FE
:1041680007F0A37402F0A37404F0A3E4F0A3F0A38F
:10417800F07B017AA4799890A6A3F0A37410F07F3D
:10418800207ECC1254D190AA92E0FEA3E0642F4E78
:10419800600302426F7B017AA4799890A6A3F0A3EA
:1041A8007402F07F107ECF1252647B017AA4799C4E
:1041B80090A6A3E4F0A37402F07F227ECF1252648B
:1041C80090A498E0FEA3E0FF90AA8EE0FCA3E06F25
:1041D8007002EC6E606090A498E0A3E090AA8EEE66
:1041E800F0A3EFF090A49CE0FEA3E0543FFF90A45E
:1041F8009CEEF0A3EFF090A49CE0FCA3E0FD90A45B
:1042080098E0A3E07E0054037806C333CE33CED8BB
:10421800F9FFEC4EFEED4FFF90A49CEEF0A3EFF0FB
:104228007B017AA4799C90A6A3E4F0A37402F07FA2
:10423800227ECF1254D190A49CE0FEA3E07806CE53
:10424800C313CE13D8F95403FF90A49EE4F0A3EF50
:10425800F07B017AA4799E90A6A3E4F0A37402F0FF
:104268007F117ECF1254D190AA92E0FEA3E0644160
:104278004E70287B017AA4799890A6A3F0A37402C3
:10428800F07F207EE112526490A498E0FEA3E064DF
:10429800A54E60077F397E001279C57B017AA47923
:1042A8009890A6A3E4F0A37402F07F167E00125241
:1042B8006490A498E0FEA3E04E6024E490A498F0F3
:1042C800A3F07B017AA4799890A6A3F0A37402F0D6
:1042D8007F167E001254D1E490AA90F0A3F02290A9
:1042E800AA90E0FEA3E0C39458EE9402501BA3E00A
:1042F800FEA3E064404E70067F39FE1279C590AA8D
:1043080090E475F0011235582290AA90E0FEA3E0DF
:10431800B45821EEB4021D90AA90E475F00112354C
:104328005890AA92E0FEA3E064404E60077F407E6A
:10433800001279C522E51330E10D90AA94E475F0D6
:1043480001123558126D9390AA94E0FEA3E0C3942D
:10435800B0EE940450030246A3E490AA94F0A3F0AC
:10436800A3E0FEA3E02400FFEE341090A498F0A38D
:10437800EFF07B017AA4799A90A6A3E4F0A37402E3
:10438800F07FA37EA012526490A49AE475F0C8123C
:10439800355890A498E0FEA3E0FF7B017AA4799AAF
:1043A80090A6A3E4F0A37402F01254D190AA96E068
:1043B800FEA3E02400FFEE341890A498F0A3EFF0D9
:1043C8007B017AA4799A90A6A3E4F0A37402F07F03
:1043D800A47EA012526490A498E0FEA3E0FF7B01A3
:1043E8007AA4799A90A6A3E4F0A37402F01254D1A7
:1043F80090AA96E0FEA3E0FF90A49EEEF0A3EFF053
:1044080090AA96E475F00112355890AA96E0FEA39A
:10441800E0C3EE94084007E490AA96F0A3F07B016D
:104428007AAA799690A6A3E4F0A37402F07F007E9E
:10443800031254D17B017AAA799690A6A3E4F0A33B
:104448007402F0FF7E031254D190A49C7408F0A368
:10445800E4F07B017AA4799C90A6A3F0A37402F0FF
:104468007F087E501254D17B017AA4799C90A6A330
:10447800E4F0A37402F07F097E501254D190A49CFA
:104488007402F0A3748AF07B017AA4799C90A6A3A5
:10449800E4F0A37402F07F117E501254D190AA96D2
:1044A800E0A3E030E0030246A390AA96E0FEA3E072
:1044B8004E700302459590A49E74FFF5F01235588E
:1044C80090A49EE0FEA3E02400FFEE3410FE7B01E2
:1044D8007AA4799890A6A3E4F0A37404F012526425
:1044E80090A49C74A5F0A3745AF07B017AA47998DF
:1044F80090A6A3E4F0A37406F07F007E501254D176
:1045080090A49EE0FEA3E0FFE4FCFD90A6A1123774
:104518008390A6A5E4F0A37404F07D007C507FA5E9
:104528001271F890A49EE0FEA3E02400FFEE341878
:10453800FE7B017AA4799890A6A3E4F0A37404F012
:1045480012526490A49C74A5F0A3745AF07B017A6B
:10455800A4799890A6A3E4F0A37406F07F007E5097
:104568001254D190A49EE0FEA3E02400FFEE34088C
:10457800FEE4FCFD90A6A112378390A6A5E4F0A363
:104588007404F07D007C507FA51271F82290A49EDF
:1045980074FFF5F012355890A49EE0FEA3E02400C5
:1045A800FFEE3410FE7B017AA4799890A6A3E4F07C
:1045B800A37404F012526490A49C74A5F0A3745AD6
:1045C800F07B017AA4799890A6A3E4F0A37406F08E
:1045D8007F007E501254D190A49EE0FEA3E0FFE439
:1045E800FCFD90A6A112378390A6A5E4F0A374025F
:1045F800F07D007C507FA51271F890A6A112378F2C
:104608000000000090A6A5E4F0A37402F07D007CF1
:10461800507FA51271F890A49EE0FEA3E02400FF4D
:10462800EE3418FE7B017AA4799890A6A3E4F0A34F
:104638007404F012526490A49C74A5F0A3745AF008
:104648007B017AA4799890A6A3E4F0A37406F07F7E
:10465800007E501254D190A49EE0FEA3E02400FFF7
:10466800EE3408FEE4FCFD90A6A112378390A6A5BF
:10467800E4F0A37402F07D007C507FA51271F890DD
:10468800A6A112378F0000080090A6A5E4F0A37435
:1046980002F07D007C507FA51271F82290A49D1233
:1046A80037EC90A4A0ECF0A3EDF090A4A0E0FEA35A
:1046B800E0C39405EE940050030249F9E4A3F0A383
:1046C800F090A49D1237CC90A4A2E0FEA3E0F5825E
:1046D8008E8312347C640260030249D390A49D1235
:1046E80037CC90A4A2E0A3E029F9EA3EFA900001B1
:1046F80012347C1237F5470B03485A06491C100040
:104708000049D390A49D1237CC90A4A2E0FEA3E068
:1047180029F9EA3EFA90000212347CFF90A4A6E43C
:10472800F0A3EFF090A4A2E0A3E0FF90A4A6E0FC21
:10473800A3E02FFFEC3EFEEF2405FFE43EFE90A42D
:10474800A0E0FCA3E0FDD3EF9DEE9C401190A4A057
:10475800E0FEA3E0FFA3EEF0A3EFF00249D390A49C
:104768009D1237CC90A4A2E0FEA3E029F9EA3EFA14
:1047780090A4A6E0FEA3E02403FDE43EFC12737EB1
:1047880090A4A4EEF0A3EFF090A49D1237CC90A4CF
:10479800A2E0FEA3E029F9EA3EFA90A4A6E0FEA36F
:1047A800E029F9EA3EFA90000312347CFD90A4A4B3
:1047B800E0FEA3E0EE6D7001E460030249D390A42B
:1047C8009D1237CC90A4A2E0FEA3E029F9EA3EFAB4
:1047D80090A4A6E0FEA3E029F9EA3EFA90000412AC
:1047E800347CFF90A4A4E0A3E06F7001E4600302AE
:1047F80049D390853AE0FEA3E0FF90A49D1237CC00
:1048080090A4A2E0FCA3E029F9EA3CFAE92403F920
:10481800E43AFA90A4A6E0FCA3E0FD90A6A3ECF08D
:10482800A3EDF01254D17E007F0E7D007B017A85C6
:1048380079321239F290A4A6E0FEA3E02405FFE441
:104848003E90A4A2F0A3EFF0908001E04402F002B1
:1048580049D390A4A2E0FEA3E02408FFE43EFE9022
:10486800A4A0E0FCA3E0FDD3EF9DEE9C401190A432
:10487800A0E0FEA3E0FFA3EEF0A3EFF00249D3907F
:10488800A49D1237CC90A4A2E0FEA3E029F9EA3E49
:10489800FA7D067C0012737E90A4A4EEF0A3EFF0DC
:1048A80090A49D1237CC90A4A2E0FEA3E029F9EAD7
:1048B8003EFA90000612347CFD90A4A4E0FEA3E02A
:1048C800EE6D7001E460030249D390A49D1237CCC9
:1048D80090A4A2E0FEA3E029F9EA3EFA90000712AC
:1048E800347CFF90A4A4E0A3E06F7001E4600302AD
:1048F80049D390A4A275F0081235587E007F0E7D2A
:10490800007B017A8579321239F2908001E0440205
:10491800F00249D390A4A2E0FEA3E02408FFE43EFD
:10492800FE90A4A0E0FCA3E0FDD3EF9DEE9C401117
:1049380090A4A0E0FEA3E0FFA3EEF0A3EFF00249ED
:10494800D390A49D1237CC90A4A2E0FEA3E029F94D
:10495800EA3EFA7D067C0012737E90A4A4EEF0A3D2
:10496800EFF090A49D1237CC90A4A2E0FEA3E0291A
:10497800F9EA3EFA90000612347CFD90A4A4E0FE09
:10498800A3E0EE6D7001E4704290A49D1237CC90C4
:10499800A4A2E0FEA3E029F9EA3EFA900007123447
:1049A8007CFF90A4A4E0A3E0B50720E490A4A2753E
:1049B800F0081235587E007F0E7D007B017A8579DC
:1049C800321239F2908001E04402F090A4A2E4751A
:1049D800F00112355890A4A0E0FEA3E024FBFFEEFE
:1049E80034FFFEA3E0FCA3E0C39FEC9E5003024605
:1049F800C92290A49D1237EC90A49D1237CC123591
:104A080084FF90A4A0E5F0F0A3EFF090A4A0E0FE4E
:104A1800A3E0C39423EE94014003024D1A90A4A08E
:104A2800E0A3E090854075F00E1237C0EE75F00EE9
:104A3800A42583F583E0645A6003024D0D90A4A079
:104A4800E0A3E090854375F00E1237C0EE75F00EC6
:104A5800A42583F583E07003024D0D90A4A0E0A384
:104A6800E090854575F00E1237C0EE75F00EA4255E
:104A780083F583E07003024D1A90A4A0E0A3E090B0
:104A8800854575F00E1237C0EE75F00EA42583F536
:104A980083E06401703490A4A0E0A3E0908546759B
:104AA800F00E1237C0EE75F00EA42583F583E0FEF4
:104AB800A3E0FF90AA92E0FCA3E06F7002EC6E60A6
:104AC80003024D0D024D1A024D0D90A4A0E0FEA365
:104AD800E090854575F00E1237C0EE75F00EA425EE
:104AE80083F583E064026003024BD990A4A0E0A39D
:104AF800E090854675F00E1237C0EE75F00EA425CD
:104B080083F583E0FEA3E0FF7B017AA479A290A657
:104B1800A3E4F0A37402F012526490A4A2E0A3E00C
:104B2800645A6003024D0D90A4A0E0FEA3E0C39474
:104B380022EE9401506190A4A0E0A3E09085537503
:104B4800F00E1237C0EE75F00EA42583F583E064ED
:104B580002704490A4A0E0A3E090855475F00E1272
:104B680037C0EE75F00EA42583F583E0FEA3E0FFC1
:104B780090A4A0E0FCA3E090854675F00E1237C023
:104B8800EC75F00EA42583F583E0FCA3E06F7002BA
:104B9800EC6E7003024D1AE490A4A2F0A3F090A466
:104BA800A0E0FEA3E090854675F00E1237C0EE75C2
:104BB800F00EA42583F583E0FEA3E0FF7B017AA431
:104BC80079A290A6A3E4F0A37402F01254D1024D86
:104BD8001A90A4A0E0FEA3E090854575F00E123768
:104BE800C0EE75F00EA42583F583E064036003022C
:104BF8004D0D90A4A0E0A3E090854C75F00E1237FF
:104C0800C0EE75F00EA42583F583E0FEA3E0FF90C7
:104C1800AA92E0FCA3E0FDEF6D7002EE6C60030267
:104C28004D0D90A4A0E0FEA3E090854675F00E120D
:104C380037C0EE75F00EA42583F583E0FEA3E0FFF0
:104C48007B017AA479A290A6A3E4F0A37402F012DF
:104C5800526490A4A2E0A3E0645A6003024D0D9050
:104C6800A4A0E0FEA3E0C39422EE9401505E90A4B9
:104C7800A0E0A3E090855375F00E1237C0EE75F0F2
:104C88000EA42583F583E06403704190A4A0E0A3FB
:104C9800E090855475F00E1237C0EE75F00EA4251D
:104CA80083F583E0FEA3E0FF90A4A0E0FCA3E090DE
:104CB800854675F00E1237C0EC75F00EA42583F505
:104CC80083E0FCA3E06F7002EC6E6046E490A4A25F
:104CD800F0A3F090A4A0E0FEA3E090854675F00E46
:104CE8001237C0EE75F00EA42583F583E0FEA3E02D
:104CF800FF7B017AA479A290A6A3E4F0A37402F042
:104D08001254D1800D90A4A0E475F0011235580218
:104D18004A1390A4A0E0FEA3E0FF90A49D1237CC14
:104D2800EE8FF01235E72290A4A71237EC90A4AAD0
:104D3800ECF0A3EDF07BFF7A8079B678AC7CA47DAB
:104D4800017E007F1812343D90A4A71237CC900042
:104D58000A1235AF246CFFE5F0340790A4D8F0A30D
:104D6800EFF090A4D8E0FEA3E0FF7C007D6412354C
:104D780022ED4C601390A4D8E0FEA3E0FF7C007DF8
:104D880004123522ED4C601390A4D8E0FEA3E0FF96
:104D98007C017D90123522ED4C70067E007F0180EB
:104DA800047E007F0090A4D4EEF0A3EFF090A4A7B7
:104DB8001237CC90000A1235AF24BAFFE5F034FF61
:104DC800FE3395E0FDFC90A4C412378390A4A7128B
:104DD80037CC9000081235AFC39401E5F064809495
:104DE80080504090A4D4E0FEA3E064014E7034905B
:104DF800A4C412376BEF2402FFE43EFEE43DFDE459
:104E08003CFCE47B04FAF9F8127A53EF24FFFFEE36
:104E180034FFFEED34FFFDEC34FFFC90A4CC1237D8
:104E280083802290A4C412376BEF2402FFE43EFE75
:104E3800E43DFDE43CFCE47B04FAF9F8127A539073
:104E4800A4CC12378390A4C812378F00000000E466
:104E580090A4D6F0A3F090A4A71237CC9000081223
:104E680035AFFF90A4D6E0FCA3E0C39FE5F06480D3
:104E7800F8EC648098504890A4C812376BC006C0FC
:104E88000790A4D6E0FEA3E025E0FFEE33FE74AC65
:104E98002FF58274A43EF583E0FEA3E0FFFBAA068B
:104EA800EA3395E0F9F8D007D00612360690A4C880
:104EB80012378390A4D6E475F00112355880979084
:104EC800A4C812376BC006C00790A4A71237CC90AD
:104ED80000061235AF24FFFFE5F034FFFEAB07FAFA
:104EE8003395E0F9F8D007D00612360690A4C81218
:104EF800378390A4C812376BC004C005C006C0072A
:104F0800E47F6D7E01FDFC90A4C41237771236133E
:104F180090A4CC123777123606A804A905AA06ABC6
:104F280007D007D006D005D00412360690A4C812C0
:104F3800378390A4A71237CC9000041235AFFF90A6
:104F4800A4AAE0FCA3E0FDC3EF9DFFE5F09CFE33BF
:104F580095E0FDFC90A4D0123783E47F107E0EFD0F
:104F6800FC90A4D0123777123613C004C005C006CF
:104F7800C0077F807E517D017C0090A4C8123777DE
:104F8800123613A804A905AA06AB07D007D006D085
:104F980005D004123606C004C005C006C00790A498
:104FA800A71237CC9000021235AFFFAEF07C007D1F
:104FB8003C1234BBAB07AA06EA3395E0F9F8D007F0
:104FC800D006D005D004123606C006C00790A4A7A4
:104FD8001237CC123584FFAEF0FBAA06EA3395E00F
:104FE800F9F8D007D006123606227B007A0079003D
:104FF80090A4981237ECE51330E26C908000E0C37F
:105008009403748094805023E490A49BF0A3F00B45
:105018007AA4799B90A6A3F0A37402F07FB07EA037
:105028001254D1908000E004F0803C908000E0C3EE
:105038009414748094805005E004F0802A908000D5
:10504800E06414702290A49BF0A304F0FB7AA47986
:105058009B90A6A3E4F0A37402F07FB07EA0125444
:10506800D1908000E004F0908531E0640160030293
:1050780050FA90852CE0FF90952AE0D39F4011E0EC
:1050880090852CF09095AB12378F0000000080625D
:1050980090852CE0FF90952AE06F7056FFFEFDFC8E
:1050A8009095AB123777D312374640389095AB12AC
:1050B8003777C3E50E9BFFE50D9AFEE50C99FDE5F4
:1050C8000B98FCE47B14FAF9F8C312374650237B9B
:1050D800017A95792B90952AE0FD7C001246A4125E
:1050E8007C24800EAF0EAE0DAD0CAC0B9095AB12C0
:1050F8003783908001E030E04BE020E12990852D56
:10510800123777C3E50E9BFBE50D9AFAE50C99F982
:10511800E50B98F8908536E0FFE4FCFDFEC31237F6
:10512800465003025263908001E030E10FA3E4751A
:10513800F001123558E4908000F0802F908001E053
:1051480054FEF02290852D123777C3E50E9BFFE5BC
:105158000D9AFEE50C99FDE50B98FCE47BF47A01C9
:10516800F9F8D31237464003025263908002E0FEFA
:10517800A3E04E700312671F90852D12378F000031
:105188000000E4F50EF50DF50CF50B908001E054E8
:10519800FDF0E054FEF0127C247B017A8079021243
:1051A80049FA908002E0FEA3E0C39423EE94014004
:1051B8000302525C908002E0A3E0FF7C007D0E12A7
:1051C80034BB74402FF974853EFA7B0178327C85B4
:1051D8007D017E007F0E12343D127C24908534E0E0
:1051E800640370127B017A8579321269829080019A
:1051F800E04401F08054908534E064067034908572
:105208003AE0FEA3E0FF7B017AA4799B90A6A3E491
:10521800F0A37402F01252647B017A85793290A46B
:105228009BE0FCA3E0FD126A9D908001E04401F040
:105238008018908534E0641070107B017A8579328B
:10524800126067908001E04401F0E4F50EF50DF579
:105258000CF50B22E4908002F0A3F02290A69EEEBB
:10526800F0A3EFF0A31237EC7B007A007900C003BB
:10527800C002C00190A6A01237CCD082D083D0E063
:105288006B7008E965827003EA658370030254D085
:1052980090A6A3E0FEA3E04E70030254D090A6A30C
:1052A800E0A3E0FFEEC313FEEF13FF90A69EE0FC21
:1052B800A3E02FFFEE3CFED3EF94FEEE94FF4003F5
:1052C8000254D0C2AF90A69EE0A3E0540190A6A5D8
:1052D800F090A69EE0FEA3E0FFEEC313FEEF13FFDF
:1052E80090A69EEEF0A3EFF090A69EE0FEA3E078D5
:1052F80010CEC313CE13D8F9F5F190A69EE0FEA305
:10530800E0EEF5F290A69EE0A3E0F5F3E4F5F8757B
:10531800F401D2FF30FCFDD2FD90A6A5E064017037
:105328007290A6A3E0FEA3E064014E700AC2FBC21D
:10533800FAD2F9C2F88008C2FBC2FAD2F9D2F8D27E
:10534800FE20FEFD90A6A3E0FEA3E064014E701AC5
:1053580090A6A075F0011237D5E5FC1234A990A6E5
:10536800A374FFF5F0123558802990A6A0E475F0D3
:10537800011237D5E5FC1234A990A6A0E475F00116
:105388001237D5E5FD1234A990A6A374FF75F0FE77
:1053980012355890A6A3E0FEA3E04E70030254CB4A
:1053A80090A6A3E0A3E0C39404EE94004003025443
:1053B8007490A6A3E0A3E08EF012381B53E8000116
:1053C80053DE000253D40003000053F0D2FBD2FA9C
:1053D800D2F9C2F88012D2FBD2FAC2F9C2F8800818
:1053E800D2FBC2FAC2F9C2F8D2FE20FEFD90A6A3F3
:1053F800E0FEA3E08EF012381B5461000154410016
:105408000254110003000054CB90A6A0E475F001EB
:105418001237D5E5FA1234A990A6A0E475F0011266
:1054280037D5E5FB1234A990A6A0E475F001123730
:10543800D5E5FC1234A90254CB90A6A0E475F0017E
:105448001237D5E5FA1234A990A6A0E475F0011236
:1054580037D5E5FB1234A9806A90A6A0E475F0015F
:105468001237D5E5FA1234A980598057D2FBD2FAFF
:10547800D2F9D2F8D2FE20FEFD90A6A0E475F00184
:105488001237D5E5FA1234A990A6A0E475F00112F6
:1054980037D5E5FB1234A990A6A0E475F0011237C0
:1054A800D5E5FC1234A990A6A0E475F0011237D511
:1054B800E5FD1234A990A6A374FF75F0FC123558C7
:1054C80002539BE4F5F8D2AF2290A69EEEF0A3EF2C
:1054D800F0A31237EC7B007A007900C003C002C049
:1054E8000190A6A01237CCD082D083D0E06B700890
:1054F800E965827003EA6583700302573C90A6A3AE
:10550800E0FEA3E04E700302573C90A6A3E0A3E0A0
:10551800FFEEC313FEEF13FF90A69EE0FCA3E02F5F
:10552800FFEE3CFED3EF94FEEE94FF400302573C9F
:10553800C2AF90A69EE0A3E0540190A6A5F090A665
:105548009EE0FEA3E0FFEEC313FEEF13FF90A69EBE
:10555800EEF0A3EFF090A69EE0FEA3E07810CEC395
:1055680013CE13D8F9F5F190A69EE0FEA3E0EEF570
:10557800F290A69EE0A3E0F5F3E4F5F875F401D205
:10558800FF30FCFDC2FD90A6A5E06401707290A6F4
:10559800A3E0FEA3E064014E700AC2FBC2FAD2F98E
:1055A800C2F88008C2FBC2FAD2F9D2F890A6A3E0EA
:1055B800FEA3E064014E701A90A6A075F0011237A0
:1055C800D5123463F5FC90A6A374FFF5F012355894
:1055D800802990A6A0E475F0011237D5123463F53E
:1055E800FC90A6A0E475F0011237D5123463F5FDDE
:1055F80090A6A374FF75F0FE123558D2FE20FEFD6A
:1056080090A6A3E0FEA3E04E700302573790A6A32E
:10561800E0A3E0C39404EE940040030256E090A691
:10562800A3E0A3E08EF012381B56550001564B003C
:1056380002564100030000565DD2FBD2FAD2F9C2ED
:10564800F88012D2FBD2FAC2F9C2F88008D2FBC2A3
:10565800FAC2F9C2F890A6A3E0FEA3E08EF01238D1
:105668001B56C8000156A8000256790003000056D0
:10567800D790A6A0E475F0011237D5123463F5FA75
:1056880090A6A0E475F0011237D5123463F5FB90AB
:10569800A6A0E475F0011237D5123463F5FC802F0B
:1056A80090A6A0E475F0011237D5123463F5FA908C
:1056B800A6A0E475F0011237D5123463F5FB800F0C
:1056C80090A6A0E475F0011237D5123463F5FAD22A
:1056D800FE30FE5B80FB8057D2FBD2FAD2F9D2F8BB
:1056E80090A6A0E475F0011237D5123463F5FA904C
:1056F800A6A0E475F0011237D5123463F5FB90A625
:10570800A0E475F0011237D5123463F5FC90A6A019
:10571800E475F0011237D5123463F5FDD2FE20FE90
:10572800FD90A6A374FF75F0FC123558025608E4E4
:10573800F5F8D2AF227BFF7A7D79C478987CA47D76
:10574800017E027F0012343D90A6A112378F00001F
:10575800000090A6A57410F0A3E4F0FD7C107F5A19
:105768001271F890A6987410F0A3E4F090A698E04F
:10577800FEA3E0C3EE9418506990A698E0A3E0FF5A
:105788007B017AA4799890A6A37402F0A3E4F0129E
:105798005264E490A69AF0A3F090A69AE0FEA3E0E3
:1057A800C3EE9401502F90A69AE0A3E025E0FFEE07
:1057B80033FE74982FF58274A43EF583E0FEA3E0CF
:1057C800645A7003EE64A5601990A69AE475F00116
:1057D80012355880C490A698740175F00012355897
:1057E800808A90A69AE0FEA3E0FF90A698E0FCA32A
:1057F800E02FFFEC3E90A69CF0A3EFF090A69CE073
:10580800FEA3E0C3EE9418400990A69C7410F0A380
:10581800E4F090A69C74F075F00012355890A69CA0
:10582800E0FEA3E0FF90AA96EEF0A3EFF090AA9610
:10583800E0FEA3E02400FFEE341090A498F0A3EF5C
:10584800F0A37401F0A374B2F0A37401F0A374B2CE
:10585800F090A498E0FEA3E0FF7B017AA4799A90E7
:10586800A6A3E4F0A37404F01254D190AA96E0FE23
:10587800A3E02400FFEE341890A498F0A3EFF0A35F
:105888007402F0A37437F0A37402F0A37437F09095
:10589800A498E0FEA3E0FF7B017AA4799A90A6A3DE
:1058A800E4F0A37404F01254D17B017AA6799C9099
:1058B800A6A3E4F0A37402F07F007E031254D17B08
:1058C800017AA6799C90A6A3E4F0A37402F0FF7E67
:1058D800031254D17B017AA6799C90A6A3E4F0A385
:1058E8007402F07F087E501254D17B017AA6799C0D
:1058F80090A6A3E4F0A37402F07F097E501254D15D
:1059080090A4987408F0A3E4F07B017AA4799890A5
:10591800A6A3F0A37402F07F017E031254D17B0189
:105928007AA4799890A6A3E4F0A37402F004FFFE89
:105938001254D190A498E4F0A37406F0A3E4F0A361
:1059480004F0A3E4F0A3742EF0A37401F0A3744C44
:10595800F0A37401F0A37471F0A37401F0A3747739
:10596800F0A37401F0A3748AF0A37402F0A3748AFC
:10597800F0A37401F0A37471F0A374FFF0A3E4F032
:105988007B017AA4799890A6A3F0A37414F07F0AF7
:105998007E501254D1227BFF7A7F79C478987CA4F8
:1059A8007D017E007F2012343D7B017AA479989096
:1059B800A4BA1237EC90A4BD1237ECE490A4B8F066
:1059C800A3F090A4B8E0FEA3E0C3EE940240030263
:1059D8005A6790A4B8E0A3E07803C333CE33CED897
:1059E800F92400FFEE3420FEE4FCFD90A6A1123756
:1059F8008390A6A5E4F0A37408F07D007C307F5A5C
:105A08001271F87B017AA4799890A6A3E4F0A374A4
:105A180010F07F007E3012526490A4BA1237CC1274
:105A28003584645A7004E5F064A5602690A4BD121C
:105A380037CC123584B4A527E5F0B45A2290A4BD1A
:105A48001237CC78D77CA97D017E007F0812343DBF
:105A5800800D90A4B8E475F0011235580259CAE4D3
:105A680090A4B8F0A3F090A4B8E0FEA3E0C3940A11
:105A7800EE94004003025BF97BFF7A7F79E478C0FB
:105A88007CA47D017E007F2012343D7B017AA979B8
:105A98007F78C07CA47D017E007F1A12343D90A4DB
:105AA800B8E0FEA3E0FF7C007D1B1234BBEF24644A
:105AB800FFE43E90A4C4F0A3EFF090A4C97401F0F1
:105AC80090A4B8E0FEA3E090A9FA75F0061237C0DA
:105AD800EE75F006A42583F583E0FEA3E0FF7B01C5
