:10000000026C56020006C2AFD2AF32025DAEC2AF82
:10001000D2AF3202000E90A6ACE0FEA3E0FF127455
:0A002000BF22220270FE12776E224A
:10002B000278E590A3D01234AA0000300090A3D43C
:10003B00E4F0A3740AF07D007C307F5A126CF77BDE
:10004B00017AA7795E90A3D2E4F0A37414F07F0039
:10005B007E30124A59E490A1C7F090A1C7E0C39437
:10006B000674809480506EE025E025E0245EF582D6
:10007B00E434A7F583123486E4FBFAF9F8C312349F
:10008B0061602290A1C7E025E025E0245EF582E4C3
:10009B0034A7F5831234867B3F7A42790F7800C3FD
:1000AB00123461502890A1C7E025E025E0243EF5ED
:1000BB0082E434A7F58312348690A1C7E025E025AE
:1000CB00E0245EF582E434A7F58312349E90A1C739
:1000DB00E004F080857B017AA7795E90A3D2E4F0EF
:0C00EB00A37414F07FA07EA6124CC62265
:1000F800FFFF4457494E543542A7BA000041A7B301
:100108000042A7B4000041A7B60041A7B70042A724
:10011800B8000042A7BE000042A7BC00005AA5D9FB
:100128003FC900690064000086000A2D2D203A3A74
:10013800000000000000000000005AA5F33FCC01B9
:10014800270064000086000A2D2D2F3A3A0000008F
:10015800000000000000005AA68F3FD001E50064AF
:10016800000001E5006402AD007D001000171818BA
:1001780002000000603CA653400040A041404010EF
:1001880040B04150402040C04160403040D04170B4
:10019800404040E04180405040F041904060410084
:1001A80041A04070411041B04080412041C0409082
:1001B800413041D054A63F41E041F8421042284224
:1001C8004042584270428842A042B848A6300000D7
:1001D80000000000000042A638000042A63D0000D2
:1001E80042A63A000041A63C0041A61F0042A60DC7
:1001F800000549935EB2E2CAD4BABAD7D6006E6097
:10020800936749443030BBD8B7E7B8DFCEC20000A7
:1002180000000000000000000000000000000000D6
:10022800000049443031BBD8B7E7B5CDCEC2000095
:1002380000000000000000000000000000000000B6
:10024800000049443032BBD8B7E7B8DFCAAA00007B
:100258000000000000000000000000000000000096
:10026800000049443033BBD8B7E7B5CDCAAA00006F
:100278000000000000000000000000000000000076
:10028800000049443034CBCDB7E7B8DFCEC2000018
:100298000000000000000000000000000000000056
:1002A800000049443035CBCDB7E7B5CDCEC200000C
:1002B8000000000000000000000000000000000036
:1002C800000049443036CBCDB7E7B8DFCAAA0000F2
:1002D8000000000000000000000000000000000016
:1002E800000049443037CBCDB7E7B5CDCAAA0000E6
:1002F80000000000000000000000000000000000F6
:10030800000049443038B1A3C1F4000000000000E7
:1003180000000000000000000000000000000000D5
:10032800000049443039C4DAB2BFCDA8D0C50000B6
:1003380000000000000000000000000000000000B5
:100348000000494431304E5443D2ECB3A3000000BE
:100358000000000000000000000000000000000095
:10036800000049443131B7E7BBFA31B9CAD5CF00EB
:100378000000000000000000000000000000000075
:10038800000049443132B1A3C1F40000000000006C
:100398000000000000000000000000000000000055
:1003A800000049443133B1A3C1F40000000000004B
:1003B8000000000000000000000000000000000035
:1003C800000049443134B1A3C1F40000000000002A
:1003D8000000000000000000000000000000000015
:1003E800000049443135B1A3C1F400000000000009
:1003F80000000000000000000000000000000000F5
:10040800000049443136CDE2B7E7BBFAB9CAD5CFC7
:1004180000000000000000000000000000000000D4
:10042800000049443137B7E7BBFA31D4CBD0D0B359
:10043800ACCAB1000000000000000000000000008D
:10044800000049443138B1A3C1F4000000000000A5
:100458000000000000000000000000000000000094
:10046800000049443139B1A3C1F400000000000084
:100478000000000000000000000000000000000074
:10048800000049443230B1A3C1F40000000000006C
:100498000000000000000000000000000000000054
:1004A800000049443231B1A3C1F40000000000004B
:1004B8000000000000000000000000000000000034
:1004C800000049443232CDE2B7E7BBFAD4CBD0D0F2
:1004D800B3ACCAB10000000000000000000000003A
:1004E800000049443233B8DFD1B931BFAAB9D800C6
:1004F80000000000000000000000000000000000F4
:10050800000049443234B8DFD1B931CBF8CBC00050
:1005180000000000000000000000000000000000D3
:10052800000049443235B5CDD1B931B8E6BEAF0087
:1005380000000000000000000000000000000000B3
:10054800000049443236B5CDD1B931CBF8CBC00023
:100558000000000000000000000000000000000093
:10056800000049443237C5C5C6F8CEC2B6C831B84E
:10057800E6BEAF0000000000000000000000000020
:10058800000049443238C5C5C6F8CEC2B6C831CB1A
:10059800F8CBC000000000000000000000000000D0
:1005A800000049443239B6CCD6DCC6DA31B8E6BEEA
:1005B800AF00000000000000000000000000000084
:1005C800000049443330D1B9BBFA31D4CBD0D0B3D1
:1005D800ACCAB100000000000000000000000000EC
:1005E800000049443331B8DFD1B932BFAAB9D800C5
:1005F80000000000000000000000000000000000F3
:10060800000049443332B8DFD1B932CBF8CBC0004F
:1006180000000000000000000000000000000000D2
:10062800000049443333B5CDD1B9D1B9C1A6B8E634
:10063800BEAF000000000000000000000000000045
:10064800000049443334B5CDD1B932CBF8CBC00022
:100658000000000000000000000000000000000092
:10066800000049443335C5C5C6F8CEC2B6C832B84D
:10067800E6BEAF000000000000000000000000001F
:10068800000049443336C5C5C6F8CEC2B6C832CB19
:10069800F8CBC000000000000000000000000000CF
:1006A800000049443337B6CCD6DCC6DA32B8E6BEE9
:1006B800AF00000000000000000000000000000083
:1006C800000049443338D1B9BBFA32D4CBD0D0B3C7
:1006D800ACCAB100000000000000000000000000EB
:1006E800000049443339BCD3CAAAC6F7B5E7C1F7F5
:1006F800B9FDB4F300000000000000000000000095
:10070800000049443430BCD3CAAAC6F7B8DFCBAE20
:10071800CEBB000000000000000000000000000048
:10072800000049443431BCD3CAAAC6F7C8B1CBAE1D
:1007380000000000000000000000000000000000B1
:10074800000049443432BCD3CAAAC6F7D4CBD0D0AF
:10075800B3ACCAB1000000000000000000000000B7
:10076800000049443433BCD3C8C8C6F7B8E6BEAFA6
:100778000000000000000000000000000000000071
:10078800000049443434BCD3C8C8C6F731B3ACCA36
:10079800B1000000000000000000000000000000A0
:1007A800000049443435BCD3C8C8C6F732B3ACCA14
:1007B800B100000000000000000000000000000080
:1007C800000049443436B6CFB5E7D6D8C6F40000A1
:1007D8000000000000000000000000000000000011
:1007E800000049443437B5E7D4B4CFE0D0F2B4EDD3
:1007F800CEF3000000000000000000000000000030
:10080800000049443438B5E7D4B4C6B5C2CAC6AB4B
:10081800B8DF000000000000000000000000000039
:10082800000049443439B5E7D4B4C6B5C2CAC6AB2A
:10083800B5CD00000000000000000000000000002E
:1008480000004944353041CFE0B9FDD1B90000007E
:100858000000000000000000000000000000000090
:1008680000004944353142CFE0B9FDD1B90000005C
:100878000000000000000000000000000000000070
:1008880000004944353243CFE0B9FDD1B90000003A
:100898000000000000000000000000000000000050
:1008A80000004944353341CFE0C7B7D1B900000053
:1008B8000000000000000000000000000000000030
:1008C80000004944353442CFE0C7B7D1B900000031
:1008D8000000000000000000000000000000000010
:1008E80000004944353543CFE0C7B7D1B90000000F
:1008F80000000000000000000000000000000000F0
:1009080000004944353641CFE0C8B1CFE0000000CF
:1009180000000000000000000000000000000000CF
:1009280000004944353742CFE0C8B1CFE0000000AD
:1009380000000000000000000000000000000000AF
:1009480000004944353843CFE0C8B1CFE00000008B
:10095800000000000000000000000000000000008F
:10096800000049443539C6F8C1F7B6AACAA7B8E69F
:10097800BEAF000000000000000000000000000002
:10098800000049443630B9FDC2CBCDF8D4CBD0D025
:10099800B3ACCAB100000000000000000000000075
:1009A800000049443631B9FDC2CBCDF8B6C2B8E62D
:1009B800BEAF0000000000000000000000000000C2
:1009C800000049443632D4B6B3CCB9D8BBFAB8E63D
:1009D800BEAF0000000000000000000000000000A2
:1009E800000049443633D2E7CBAEB8E6BEAF0000CC
:1009F80000000000000000000000000000000000EF
:100A0800000049443634C8BABFD8CDA8D0C5D2EC06
:100A1800B3A3000000000000000000000000000078
:100A2800000049443635B1A3C1F4000000000000BD
:100A380000000000000000000000000000000000AE
:100A4800000049443636B5CDB9FDC8C8B6C831B876
:100A5800E6BEAF000000000000000000000000003B
:100A6800000049443637B5CDB9FDC8C8B6C832B854
:100A7800E6BEAF000000000000000000000000001B
:100A8800000049443638D1CCCEEDB8E6BEAF000000
:100A9800000000000000000000000000000000004E
:100AA800000049443639D3C3BBA7D7D4B6A8D2E58A
:100AB800B8E6BEAF00000000000000000000000023
:100AC800000049443730B5E7D4B4D2ECB3A30000F2
:100AD800000000000000000000000000000000000E
:100AE800000049443731B1A3C1F400000000000000
:100AF80000000000000000000000000000000000EE
:100B0800000049443732B1A3C1F4000000000000DE
:100B180000000000000000000000000000000000CD
:100B2800000049443733B1A3C1F4000000000000BD
:100B380000000000000000000000000000000000AD
:100B4800000049443734B1A3C1F40000000000009C
:100B5800000000000000000000000000000000008D
:100B6800000049443735B1A3C1F40000000000007B
:100B7800000000000000000000000000000000006D
:100B8800000049443736B1A3C1F40000000000005A
:100B9800000000000000000000000000000000004D
:100BA800000049443737B1A3C1F400000000000039
:100BB800000000000000000000000000000000002D
:100BC800000049443738B1A3C1F400000000000018
:100BD800000000000000000000000000000000000D
:100BE800000049443739B1A3C1F4000000000000F7
:100BF80000000000000000000000000000000000ED
:100C0800000049443830C5C5CBAEB8DFCBAECEBB4B
:100C180000000000000000000000000000000000CC
:100C2800000049443831BCD3CAAAC6F7D2ECB3A3F2
:100C380000000000000000000000000000000000AC
:100C4800000049443832B7E7D1B9B9FDB5CD000045
:100C5800000000000000000000000000000000008C
:100C6800000049443833B1A3C1F40000000000007B
:100C7800000000000000000000000000000000006C
:100C8800000049443834B8DFD1B931D1B9C1A60020
:100C9800000000000000000000000000000000004C
:100CA800000049443835B1A3C1F400000000000039
:100CB800000000000000000000000000000000002C
:100CC8000000494438364D4F5031B8E6BEAF0000F9
:100CD800000000000000000000000000000000000C
:100CE8000000494438374D4F5032B8E6BEAF0000D7
:100CF80000000000000000000000000000000000EC
:100D08000000494438384C4F5031B8E6BEAF0000B7
:100D180000000000000000000000000000000000CB
:100D28000000494438394C4F5032B8E6BEAF000095
:100D380000000000000000000000000000000000AB
:100D4800000049443930C9E8B1B8CAB9D3C3B3AC13
:100D5800CAB1000000000000000000000000000010
:100D6800000049443931B1A3C1F40000000000007B
:100D7800000000000000000000000000000000006B
:100D8800000049443932B1A3C1F40000000000005A
:100D9800000000000000000000000000000000004B
:100DA800000049443933B1A3C1F400000000000039
:100DB800000000000000000000000000000000002B
:100DC800000049443934B1A3C1F400000000000018
:100DD800000000000000000000000000000000000B
:100DE800000049443935B1A3C1F4000000000000F7
:100DF80000000000000000000000000000000000EB
:100E0800000049443936B1A3C1F4000000000000D5
:100E180000000000000000000000000000000000CA
:100E2800000049443937B1A3C1F4000000000000B4
:100E380000000000000000000000000000000000AA
:100E4800000049443938B1A3C1F400000000000093
:100E5800000000000000000000000000000000008A
:100E6800000049443939B1A3C1F400000000000072
:100E7800000000000000000000000000000000006A
:100E880000004944313030B1A3C1F4000000000033
:100E9800000000000000000000000000000000004A
:100EA80000004944313031B1A3C1F4000000000012
:100EB800000000000000000000000000000000002A
:100EC80000004944313032B1A3C1F40000000000F1
:100ED800000000000000000000000000000000000A
:100EE80000004944313033B1A3C1F40000000000D0
:100EF80000000000000000000000000000000000EA
:100F080000004944313034B1A3C1F40000000000AE
:100F180000000000000000000000000000000000C9
:100F280000004944313035B1A3C1F400000000008D
:100F380000000000000000000000000000000000A9
:100F480000004944313036B1A3C1F400000000006C
:100F58000000000000000000000000000000000089
:100F680000004944313037B1A3C1F400000000004B
:100F78000000000000000000000000000000000069
:100F880000004944313038B1A3C1F400000000002A
:100F98000000000000000000000000000000000049
:100FA80000004944313039B1A3C1F4000000000009
:100FB8000000000000000000000000000000000029
:100FC80000004944313130B1A3C1F40000000000F1
:100FD8000000000000000000000000000000000009
:100FE80000004944313131B1A3C1F40000000000D0
:100FF80000000000000000000000000000000000E9
:1010080000004944313132B1A3C1F40000000000AE
:1010180000000000000000000000000000000000C8
:1010280000004944313133B1A3C1F400000000008D
:1010380000000000000000000000000000000000A8
:1010480000004944313134B1A3C1F400000000006C
:101058000000000000000000000000000000000088
:10106800000041A7C00047A78A0000000000000058
:1010780048A799000000000000000048A791000060
:10108800000000000000C10042A788000052A776B7
:101098000000000000000000000000000000000048
:1010A800000042A7A3000042A7A5000042A7A10094
:1010B8000044A7AF0000000042A7A7000044A7A96A
:1010C8000000000002080000040B00000000040FEC
:1010D8000000000042A7AD0000010A006100A3D98A
:1010E80000C1814001C0804101C0804100C18140F0
:1010F80001C0804100C1814000C1814001C08041E0
:1011080001C0804100C1814000C1814001C08041CF
:1011180000C1814001C0804101C0804100C18140BF
:1011280001C0804100C1814000C1814001C08041AF
:1011380000C1814001C0804101C0804100C181409F
:1011480000C1814001C0804101C0804100C181408F
:1011580001C0804100C1814000C1814001C080417F
:1011680001C0804100C1814000C1814001C080416F
:1011780000C1814001C0804101C0804100C181405F
:1011880000C1814001C0804101C0804100C181404F
:1011980001C0804100C1814000C1814001C080413F
:1011A80000C1814001C0804101C0804100C181402F
:1011B80001C0804100C1814000C1814001C080411F
:1011C80001C0804100C1814000C1814001C080410F
:1011D80000C1814001C0804101C0804100C18140FF
:1011E8006100A4D900C0C101C30302C2C60607C773
:1011F80005C5C404CC0C0DCD0FCFCE0E0ACACB0B3F
:10120800C90908C8D81819D91BDBDA1A1EDEDF1F6E
:10121800DD1D1CDC14D4D515D71716D6D21213D35E
:1012280011D1D010F03031F133F3F23236F6F7370E
:10123800F53534F43CFCFD3DFF3F3EFEFA3A3BFBFE
:1012480039F9F83828E8E929EB2B2AEAEE2E2FEFAE
:101258002DEDEC2CE42425E527E7E62622E2E3231E
:10126800E12120E0A06061A163A3A26266A6A7674E
:10127800A56564A46CACAD6DAF6F6EAEAA6A6BABBE
:1012880069A9A86878B8B979BB7B7ABABE7E7FBFEE
:101298007DBDBC7CB47475B577B7B67672B2B373DE
:1012A800B17170B05090915193535292965657978E
:1012B800559594549C5C5D9D5F9F9E5E5A9A9B5B7E
:1012C80099595898884849894B8B8A4A4E8E8F4F2E
:1012D8008D4D4C8C4484854587474686824243839E
:1012E800418180404192D9004184A00044935A0032
:1012F80000000041849B0044849C000000006E2A8A
:1013080084AF5A021003C80250155016000000FF9F
:101318005A020303C8000000A020031C00FF5A0261
:101328000301C8010039A023031900FF5A0206016E
:10133800C803A084A024010000395A020301C8018F
:101348000039A025010400FF5A020601C802A0873F
:10135800A027010400FF5A020303C8010039A0A016
:10136800011A00FF5A020302C8000000A0A30310DC
:1013780000FF5A020302C801000AAA00032600FF60
:101388005A020308C801000AAA02034100FF5A02D0
:101398000301C801000AAA0A036F00FF5A020301E9
:1013A800C801000AAA0B037700FF5A020301C8010B
:1013B800000AAA0C036500FF5A020301C801000ACB
:1013C800AA0D036C00FF5A020301C801000AAA0E05
:1013D800034F00FF5A020301C801000AAA0F03695C
:1013E80000FF5A02031FC801000BAB20038C00FF4B
:1013F8005A020601C803AC80AC20023A000C5A021B
:101408000306C800000DAEA0032000FF5A02030720
:10141800C803B300B320011A00135A020601C80317
:10142800B380B320011A00135A020601C803B3821D
:10143800B322011C00135A020601C803B383B32365
:10144800011D00135A020601C803B384B324011E08
:1014580000135A020601C803B385B325011F001300
:101468005A020601C803B386B326012000135A02A4
:10147800030BC803B400B420015800145A02030136
:10148800C803B400B42B013B00145A020301C8037B
:10149800B400B42C019E00145A020601C803B4809B
:1014A800B420015800145A020601C803B481B421BB
:1014B800015900145A020601C803B483B423015B1E
:1014C80000145A020601C803B484B424015C001451
:1014D8005A020601C803B485B425015D00145A02F6
:1014E8000601C803B486B426015E00145A02060138
:1014F800C803B487B427015F00145A020601C80361
:10150800B488B428016000145A020601C803B48ADA
:10151800B42A016200145A020601C803B48BB42B22
:10152800013B00145A020601C803B48CB42C019E76
:1015380000145A020306C803B700B720013B00177E
:101548005A020305C803B700B726014300175A0219
:101558000601C803B780B720013B00175A020601ED
:10156800C803B784B724013F00175A020601C8030D
:10157800B785B725014000175A020601C803B78688
:10158800B726014300175A020601C803B787B727D1
:10159800014400175A020601C803B788B728014555
:1015A80000175A020601C803B789B7290146001770
:1015B8005A020601C803B78AB72A014700175A0218
:1015C8000301C803B800B820016A00185A020303CF
:1015D800C803B800B821016D00185A020301C803F6
:1015E800B800B824017200185A020301C803B800F1
:1015F800B825017400185A020301C803B800B826B8
:10160800017B00185A020301C803B800B827022A50
:1016180000185A020601C803B880B820016A0018E9
:101628005A020601C803B881B821016D00185A0290
:101638000601C803B882B822016E00185A020601D2
:10164800C803B883B823016F00185A020601C803FB
:10165800B884B824017200185A020601C803B88574
:10166800B825017400185A020601C803B886B826BE
:10167800017B00185A020601C803B887B827022A56
:1016880000185A020301C803BB00BB2001B0001BAD
:101698005A020302C803BB00BB2101B2001B5A0255
:1016A8000302C803BB00BB2301B5001B5A02030297
:1016B800C803BB00BB2501B8001B5A020301C803BD
:1016C800BB00BB2701BB001B5A020302C803BB00B7
:1016D800BB2801D1001B5A020302C803BB00BB2A66
:1016E80001FB001B5A020302C803BB00BB2C027695
:1016F800001B5A020601C803BB80BB2001B0001BB7
:101708005A020601C803BB81BB2101B2001B5A0261
:101718000601C803BB82BB2201B3001B5A020601A3
:10172800C803BB83BB2301B5001B5A020601C803CB
:10173800BB84BB2401B6001B5A020601C803BB8543
:10174800BB2501B8001B5A020601C803BB86BB268D
:1017580001B9001B5A020601C803BB87BB2701BB9E
:10176800001B5A020601C803BB88BB2801D1001B15
:101778005A020601C803BB89BB2901D2001B5A02C1
:101788000601C803BB8ABB2A01FB001B5A020601DB
:10179800C803BB8BBB2B01FC001B5A020601C80304
:1017A800BB8CBB2C0276001B5A020601C803BB8DFA
:1017B800BB2D0277001B5A020302C803BC00BC20E1
:1017C8000232001C5A020301C803BC00BC220252A8
:1017D800001C5A020301C803BC00BC230255001CAC
:1017E8005A020301C803BC00BC240258001C5A0258
:1017F8000301C803BC00BC250261001C5A02030295
:10180800C803BC00BC260271001C5A020301C803AD
:10181800BC00BC280286001C5A020601C803BC8012
:10182800BC200232001C5A020601C803BC81BC213C
:101838000233001C5A020601C803BC82BC220252B1
:10184800001C5A020601C803BC83BC230255001CB5
:101858005A020601C803BC84BC240258001C5A0260
:101868000601C803BC85BC250261001C5A0206019A
:10187800C803BC86BC260271001C5A020601C803B4
:10188800BC87BC270272001C5A020601C803BC8828
:10189800BC280286001C5A020302C803BF00BF20EE
:1018A8000102001F5A020301C803BF00BF2201073B
:1018B800001F5A020301C803BF00BF2301A5001F70
:1018C8005A020601C803BF80BF200102001F5A0246
:1018D8000601C803BF81BF210103001F5A02060188
:1018E800C803BF82BF220107001F5A020601C803AE
:1018F800BF83BF2301A5001F5A020308C803C20003
:10190800C220018200225A020301C803C200C22871
:10191800018C00225A020301C803C200C22901989F
:1019280000225A020601C803C280C2200182002296
:101938005A020601C803C281C221018300225A0249
:101948000601C803C282C222018400225A0206018B
:10195800C803C284C224018600225A020601C803B1
:10196800C285C225018700225A020601C803C28621
:10197800C226018800225A020601C803C287C2276C
:10198800018900225A020601C803C288C228018CB4
:1019980000225A020601C803C289C22901980022FE
:1019A8005A020601C803C580C520023B000F5A022F
:1019B8000301C803C700C72001A600275A02030174
:1019C800C803C700C72101A900275A020301C80399
:1019D800C700C72501AB00275A020601C803C78004
:1019E800C72001A600275A020601C803C781C721DC
:1019F80001A900275A020601C803C782C72201A805
:101A080000275A020301C8010027C723037500FFF6
:101A18005A020301C8010027C724037700FF5A02AE
:101A28000601C803C785C72501AB00275A02030171
:101A3800C803C800C820012700285A020301C803A8
:101A4800C800C821012900285A020304C803C80095
:101A5800C822012D00285A020301C803C800C8265D
:101A6800019000285A020301C803C800C82701943E
:101A780000285A020601C803C880C8200127002888
:101A88005A020601C803C881C821012900285A0240
:101A98000601C803C882C822012D00285A0206017F
:101AA800C803C883C823012E00285A020601C803A8
:101AB800C884C824012F00285A020601C803C88513
:101AC800C825013000285A020601C803C886C8265E
:101AD800019000285A020601C803C887C827019444
:101AE80000285A02030EC8010029C9B0037800FF74
:101AF8005A020601C803C990C930023C00295A029B
:101B08000303C803CC00CCA00302002C5A02030430
:101B1800C803CF00CF20010D002F5A020301C803CC
:101B2800CF00CF240141002F5A020301C803CF0080
:101B3800CF25015A002F5A020301C803CF00CF2630
:101B480002D0002F5A020601C803CF80CF20010D12
:101B5800002F5A020601C803CF81CF21010E002FA2
:101B68005A020601C803CF82CF22010F002F5A0262
:101B78000601C803CF83CF230110002F5A020601A4
:101B8800C803CF84CF240141002F5A020601C8039D
:101B9800CF85CF25015A002F5A020601C803CF86E8
:101BA800CF2602D0002F5A020601C803CF8ACF2AB7
:101BB800023B002F5A02030AC8010034D420039CB8
:101BC80000FF5A020302C8010034D42A03A800FF08
:101BD8005A020307C803D500D520011A00355A0256
:101BE8000601C803D580D520011A00355A0206011E
:101BF800C803D582D522011C00355A020601C80344
:101C0800D583D523011D00355A020601C803D584A2
:101C1800D524011E00355A020601C803D585D525ED
:101C2800011F00355A020601C803D586D5260120B2
:101C380000355A020301C803D600D6200108003631
:101C48005A020302C803D600D621010A00365A02F6
:101C58000301C803D600D62301A700365A0206019D
:101C6800C803D680D620010800365A020601C803E8
:101C7800D681D621010A00365A020601C803D68247
:101C8800D622010B00365A020601C803D683D62392
:101C980001A700365A020301C803D700D72002EA79
:101CA80000375A020601C803D780D72002EA003756
:101CB8005A020301C803D800D82001F500385A0297
:101CC8000301C803D800D821020700385A02030CC0
:101CD800C803D800D82201BC00385A020301C8033F
:101CE800D800D82E027D00385A020301C803D80054
:101CF800D82F027F00385A020301C803D800D83011
:101D0800020F00385A020601C803D880D82001F50E
:101D180000385A020601C803D881D82102070038C2
:101D28005A020601C803D882D82201BC00385A02D8
:101D38000601C803D883D82301BD00385A0206011A
:101D4800C803D884D82401BE00385A020601C80343
:101D5800D885D82501BF00385A020601C803D8869D
:101D6800D82601C000385A020601C803D887D827E8
:101D780001C100385A020601C803D888D82801C210
:101D880000385A020601C803D889D82901C3003887
:101D98005A020601C803D88AD82A01C400385A0250
:101DA8000601C803D88BD82B01C500385A02060192
:101DB800C803D88CD82C01C600385A020601C803BB
:101DC800D88DD82D01C700385A020601C803D88E0D
:101DD800D82E027D00385A020601C803D88FD82FA2
:101DE800027F00385A020601C803D890D830020F83
:101DF80000385A020301C801003ADA2003CD00FF77
:101E08005A020301C801003ADA2103CF00FF5A023F
:101E18000302C801003ADA2203D100FF5A02030183
:101E2800C801003ADA2403D500FF5A020301C801A9
:101E3800003ADA2503D700FF5A020301C801003A25
:101E4800DA2603D900FF5A020301C801003ADA274B
:101E580003DB00FF5A020301C801003ADA2803DD58
:101E680000FF5A020301C803DB00DB20019B003B93
:101E78005A020301C803DB00DB2102D3003B5A02EC
:101E88000302C803DB00DB2202D5003B5A0203022F
:101E9800C803DB00DB2402D8003B5A020305C80351
:101EA800DB00DB2602DB003B5A020301C803DB0030
:101EB800DB2B0106003B5A020301C803DB00DB2CC5
:101EC80002E1003B5A020302C803DB00DB2D02E4F7
:101ED800003B5A020601C803DB80DB20019B003B64
:101EE8005A020601C803DB81DB2102D3003B5A02F8
:101EF8000601C803DB82DB2202D5003B5A02060139
:101F0800C803DB83DB2302D6003B5A020601C80361
:101F1800DB84DB2402D8003B5A020601C803DB85B8
:101F2800DB2502D9003B5A020601C803DB86DB2603
:101F380002DB003B5A020601C803DB87DB2702DC11
:101F4800003B5A020601C803DB88DB2802DD003BA0
:101F58005A020601C803DB89DB2902DE003B5A026C
:101F68000601C803DB8ADB2A02DF003B5A020601AE
:101F7800C803DB8BDB2B0106003B5A020601C803B2
:101F8800DB8CDB2C02E1003B5A020601C803DB8D27
:101F9800DB2D02E4003B5A020601C803DB8EDB2E70
:101FA80002E5003B5A020301C803DD00DD20019B66
:101FB800003D5A020304C803DD00DD2101E7003DAE
:101FC8005A020302C803DD00DD2501ED003D5A0277
:101FD8000601C803DD80DD20019B003D5A02060191
:101FE800C803DD81DD2101E7003D5A020601C8036F
:101FF800DD82DD2201E8003D5A020601C803DD83C7
:10200800DD2301E9003D5A020601C803DD84DD2411
:1020180001EA003D5A020601C803DD85DD2501ED10
:10202800003D5A020601C803DD86DD2601EE003DAB
:102038005A020301C801003EDE20037500FF5A0260
:102048000303C803DF00DF200237003F5A020306FC
:10205800C803DF00DF23029E003F5A020601C803BF
:10206800DF80DF200237003F5A020601C803DF8104
:10207800DF210238003F5A020601C803DF82DF224F
:102088000239003F5A020606C803DF83DF23029E97
:10209800003F5A020606C803DF84DF24029F003F80
:1020A8005A020606C803DF85DF2502A0003F5A0250
:1020B8000606C803DF86DF2602A1003F5A0206068D
:1020C800C803DF87DF2702A2003F5A020606C803BB
:1020D800DF88DF2802A3003F5A020301C801003944
:1020E800E12002EB00FF5A020301C8010041E12090
:1020F80002EB00FF5A020302C8010041E12102EC91
:1021080000FF5A020601C803E183E12302EE004101
:102118005A020601C803E183E12402EF00415A0292
:102128000601C803D780D72002EA00414E84A100E7
:1021380000000000000000000000000000428001D4
:102148000000649880035A13B320B350B3805A1325
:10215800B322B352B3825A13B323B353B3835A137C
:10216800B324B354B3845A13B325B355B3855A1360
:10217800B326B356B3865A14B420B450B4805A1454
:10218800B421B451B4815A14B423B453B4835A1447
:10219800B424B454B4845A14B425B455B4855A1428
:1021A800B426B456B4865A14B427B457B4875A140C
:1021B800B428B458B4885A14B42AB45AB48A5A14ED
:1021C800B42BB45BB48B5A14B42CB45CB48C5A17CB
:1021D800B720B750B7805A17B724B754B7845A17DF
:1021E800B725B755B7855A17B726B756B7865A17BA
:1021F800B727B757B7875A17B728B758B7885A179E
:10220800B729B759B7895A17B72AB75AB78A5A1880
:10221800B820B850B8805A18B821B851B8815A189F
:10222800B822B852B8825A18B823B853B8835A1883
:10223800B824B854B8845A18B825B855B8855A1867
:10224800B826B856B8865A18B827B857B8875A1B48
:10225800BB20BB50BB805A1BBB21BB51BB815A1B47
:10226800BB22BB52BB825A1BBB23BB53BB835A1B2B
:10227800BB24BB54BB845A1BBB25BB55BB855A1B0F
:10228800BB26BB56BB865A1BBB27BB57BB875A1BF3
:10229800BB28BB58BB885A1BBB29BB59BB895A1BD7
:1022A800BB2ABB5ABB8A5A1BBB2BBB5BBB8B5A1BBB
:1022B800BB2CBB5CBB8C5A1BBB2DBB5DBB8D5A1C9E
:1022C800BC20BC50BC805A1CBC21BC51BC815A1CCF
:1022D800BC22BC52BC825A1CBC23BC53BC835A1CB3
:1022E800BC24BC54BC845A1CBC25BC55BC855A1C97
:1022F800BC26BC56BC865A1CBC27BC57BC875A1C7B
:10230800BC28BC58BC885A1FBF20BF50BF805A1F6A
:10231800BF21BF51BF815A1FBF22BF52BF825A1F60
:10232800BF23BF53BF835A22C220C250C2805A2241
:10233800C221C251C2815A22C222C252C2825A2228
:10234800C224C254C2845A22C225C255C2855A2206
:10235800C226C256C2865A22C227C257C2875A22EA
:10236800C228C258C2885A22C229C259C2895A27C9
:10237800C720C750C7805A27C721C751C7815A27C6
:10238800C725C755C7855A28C820C850C8805A28A5
:10239800C821C851C8815A28C822C852C8825A2898
:1023A800C823C853C8835A28C824C854C8845A287C
:1023B800C825C855C8855A28C826C856C8865A2860
:1023C800C827C857C8875A2FCF20CF50CF805A2F39
:1023D800CF21CF51CF815A2FCF22CF52CF825A2F20
:1023E800CF23CF53CF835A2FCF24CF54CF845A2F04
:1023F800CF25CF55CF855A2FCF26CF56CF865A35E2
:10240800D520D550D5805A35D522D552D5825A35C2
:10241800D523D553D5835A35D524D554D5845A35A3
:10242800D525D555D5855A35D526D556D5865A3686
:10243800D620D650D6805A36D621D651D6815A368D
:10244800D622D652D6825A36D623D653D6835A3770
:10245800D720D750D7805A38D820D850D8805A3863
:10246800D821D851D8815A38D822D852D8825A3847
:10247800D823D853D8835A38D824D854D8845A382B
:10248800D825D855D8855A38D826D856D8865A380F
:10249800D827D857D8875A38D828D858D8885A38F3
:1024A800D829D859D8895A38D82AD85AD88A5A38D7
:1024B800D82BD85BD88B5A38D82CD85CD88C5A38BB
:1024C800D82DD85DD88D5A38D82ED85ED88E5A389F
:1024D800D82FD85FD88F5A38D830D860D8905A3B80
:1024E800DB20DB50DB805A3BDB21DB51DB815A3BB5
:1024F800DB22DB52DB825A3BDB23DB53DB835A3B99
:10250800DB24DB54DB845A3BDB25DB55DB855A3B7C
:10251800DB26DB56DB865A3BDB27DB57DB875A3B60
:10252800DB28DB58DB885A3BDB29DB59DB895A3B44
:10253800DB2ADB5ADB8A5A3BDB2BDB5BDB8B5A3B28
:10254800DB2CDB5CDB8C5A3BDB2DDB5DDB8D5A3B0C
:10255800DB2EDB5EDB8E5A3DDD20DD50DD805A3D13
:10256800DD21DD51DD815A3DDD22DD52DD825A3D1E
:10257800DD23DD53DD835A3DDD24DD54DD845A3D02
:10258800DD25DD55DD855A3DDD26DD56DD865A3FE4
:10259800DF20DF50DF805A3FDF21DF51DF815A3FE4
:1025A800DF22DF52DF825A3FDF23DF53DF835A3FC8
:1025B800DF24DF54DF845A3FDF25DF55DF855A3FAC
:1025C800DF26DF56DF865A3FDF27DF57DF875A3F90
:1025D800DF28DF58DF885A41D720D750D78041807D
:1025E800000058A75E000000000000000000000086
:1025F8000000000000000000000000000058A73E96
:1026080000000000000000010000000200027360EA
:10261800000A2D080007ED6541A73AFF608CA6AEB9
:102628000000010002000300040005000600070086
:10263800080009000A000B000C000D000E000F0135
:1026480010001100120213001400150016001700E4
:10265800180019001A001B021C001D001E001F0094
:102668002000210022002300240025002602270044
:10267800280029002A002B002C002D002E002F03F3
:1026880030003100320033003400350036003700A6
:10269800380039003A003B003C003D003E003F0056
:1026A80040004100420043004400450048A756004E
:1026B8000101030203030542A73C000042A6AC0047
:1026C8000042A6A9000041A6AB0000AF13EF131308
:1026D800543F5401640160030230877B017AA17979
:1026E800C790A3D2F0A3740CF07F217EA0124A59A0
:1026F80090A1C9E0FEA3E0FF90A1C7E0FCA3E02FF2
:10270800FFEC3EFE90A61FE06F7001EE604C90A1BA
:10271800C9E0FEA3E0FF90A1C7E0A3E02FFFEC3ED5
:10272800FE90A61FE0C39FE49E501D90A1D1E4F047
:10273800A304F0FB7AA179D190A3D2E4F0A37402A8
:10274800F07F267EA0124CC690A1C9E0A3E0FF90BE
:10275800A1C7E0A3E02F90A61FF090A1C7E0FEA3B9
:10276800E0D39400EE9400500CA3E0FEA3E09400A4
:10277800EE9400402090A1D1E0FEA3E04E60167BCD
:10278800017AA6790D90A3D2E4F0A37402F07FA099
:102798007E00124CC690A7BAE0FEA3E0640D4E601E
:1027A80003022B4490A7BAE0A3E0FF90A638E0FC10
:1027B800A3E06F7002EC6E601EE490A63DF0A3F0FB
:1027C8007B017AA6793D90A3D2F0A37402F07F0131
:1027D8007EAE124CC680167B017AA6793D90A3D2B4
:1027E800E4F0A37402F07F017EAE124A597B017AAD
:1027F800A179C790A3D2E4F0A37410F07FA07EAEB5
:10280800124A59E490A1D5F0A3E05407F07B017A6D
:10281800A6790F78C77CA17D017E007F101236E96A
:10282800EF702F90A63AE0FEA3E0FF90A63DE0FCF3
:10283800A3E0B5071DECB5061990A7BAE0FEA3E022
:10284800FF90A638E0FCA3E06F7002EC6E70030204
:102858002E397B017AA179C7780F7CA67D017E008D
:102868007F10123158E490A63CF090A1FAF090A1A4
:10287800FAE0C39408748094804003022AECE49040
:10288800A1F9F090A1F9E0C39410748094804003FA
:10289800022AE3A3E0C454F0FF90A1F9E02F90A12D
:1028A800FEF0E075F018A42400FFE5F03435FE7B57
:1028B800017AA179C790A3D2E4F0A37430F0124A48
:1028C800597B017AA179C790A1FB12350790A1F92C
:1028D800E0FF7E007401A807088005C333CE33CE1D
:1028E800D8F9FF90A1FAE025E0240FF582E434A698
:1028F800F583E0FCA3E0FDEE5CFEEF5D4E700302A5
:102908002A3A90A1FB1234E712329F645A7004E508
:10291800F064A570030229D790A1FB1234E774A5CF
:1029280075F05A1233027B017AA179DB90A3D2E4C5
:10293800F0A37408F07F107E00124A597B017AA137
:1029480079DB78C97CA17D017E007F031231587B39
:10295800017AA179DF78CC7CA17D017E007F03120A
:1029680031587E007F087D007B017AA179CF12372C
:102978000D90A1FEE0FF90A1D5E4F0A3EFF07B015C
:102988007AA179D7C002C00190A1FE75F020A424D5
:1029980067F9749335F0FA90A21212350790A215D0
:1029A800E4F0A37420F0D001D00212703090A1FEA0
:1029B800E075F018A42400FFE5F03435FE7B017AB9
:1029C800A179C790A3D2E4F0A37430F0124CC6905A
:1029D800A63DE0FEA3E0FF7C007D0A1231D690A65A
:1029E8003CE0C39FEC9E4041A3E0FEA3E0FF123110
:1029F800D6EF240AFFE43EFE90A63CE0C39FEC9E7F
:102A0800502790A1FEE075F018A42400FDE5F034ED
:102A180035FC90A63DE0A3E075F00AA4FF90A63C23
:102A2800E0C39FFF7B0D1262C190A63CE004F00258
:102A38002ADA90A1FB1234E712329F645A7004E537
:102A4800F064A56003022ADA7B017AA179DB90A3FE
:102A5800D2F0A37408F07F107E00124A597B017AE5
:102A6800A179DB78CF7CA17D017E007F03123158EC
:102A78007B017AA179DF78D27CA17D017E007F037A
:102A880012315890A1FEE0FF90A1D5E4F0A3EFF039
:102A98007B017AA179C790A3D2E4F0A37410F07FE8
:102AA800007E30124CC6126845E490A1C7F0A3F02E
:102AB80090A1FEE075F018A42400FFE5F03435FE7F
:102AC8007B017AA179C790A3D2E4F0A37402F01233
:102AD8004CC690A1F9E004F002288B90A1FAE0041A
:102AE800F002287690A63CE090A1F9F090A63DE08F
:102AF800FEA3E0FF7C007D0A1231D6EF240AFFE432
:102B08003EFE90A1F9E0C39FEC9E501D90A63DE0CB
:102B1800A3E075F00AA4FF90A1F9E0C39FFF12613A
:102B28008290A1F9E004F080C390A63DE0FEA3E006
:102B3800FF90A63AEEF0A3EFF0022E397B017AA1BE
:102B480079C790A3D2E4F0A37410F07FA07EAE12F0
:102B58004A59E490A1D5F0A3E05407F07B017AA686
:102B6800790F78C77CA17D017E007F101236E9EFCE
:102B78007003022E397B017AA179C778FB7CA17D8D
:102B8800017E007F10123158E490A1FAF090A1FA6A
:102B9800E0C39406748094804003022E26E490A13A
:102BA800F9F090A1F9E0C394107480948040030276
:102BB8002E1DE0FF7E007401A807088005C333CEF0
:102BC80033CED8F9FF90A1FAE025E024FBF582E4A2
:102BD80034A1F583E0FCA3E0FDEE5CFCEF5DFD9025
:102BE800A1F9E0FF7E007401A807088005C333CE71
:102BF80033CED8F9FF90A1FAE025E0240FF582E45E
:102C080034A6F583E0FAA3E0FBEE5AFEEF5B6D70A5
:102C180002EE6C7003022E1490A1FAE0C454F0FF87
:102C280090A1F9E02F90A20EF0E075F018A424000E
:102C3800FFE5F03435FE7B017AA179C790A3D2E491
:102C4800F0A37430F0124A597B017AA179C790A297
:102C58000B12350790A1F9E0FF7E007401A8070860
:102C68008005C333CE33CED8F9FF90A1FAE025E032
:102C780024FBF582E434A1F583E0FCA3E0FDEE5CDF
:102C8800FEEF5D4E7003022D6190A20B1234E71225
:102C9800329F645A7004E5F064A57003022E149004
:102CA800A20B1234E774A575F05A1233027B017A2D
:102CB800A179DB90A3D2E4F0A37408F07F107E0022
:102CC800124A597B017AA179DB78C97CA17D017E02
:102CD800007F031231587B017AA179DF78CC7CA17F
:102CE8007D017E007F031231587E007F087D007BC6
:102CF800017AA179CF12370D90A20EE0FF90A1D5ED
:102D0800E4F0A3EFF07B017AA179D7C002C001906B
:102D1800A20E75F020A42467F9749335F0FA90A2F6
:102D28001212350790A215E4F0A37420F0D001D058
:102D38000212703090A20EE075F018A42400FFE58E
:102D4800F03435FE7B017AA179C790A3D2E4F0A3D1
:102D58007430F0124CC6022E1490A20B1234E712F3
:102D6800329F645A7004E5F064A56003022E147B58
:102D7800017AA179DB90A3D2F0A37408F07F107ECA
:102D880000124A597B017AA179DB78CF7CA17D01B9
:102D98007E007F031231587B017AA179DF78D27CDB
:102DA800A17D017E007F0312315890A20EE0FF90B2
:102DB800A1D5E4F0A3EFF07B017AA179C790A3D263
:102DC800E4F0A37410F07F007E30124CC612684500
:102DD800E490A1C7F0A3F090A20EE075F018A42427
:102DE80000FFE5F03435FE7B017AA179C790A3D2C4
:102DF800E4F0A37402F0124CC690A63DE0FEA3E0F6
:102E08002401FFE43E90A63AF0A3EFF090A1F9E088
:102E180004F0022BAA90A1FAE004F0022B957B01A2
:102E28007AA179FB780F7CA67D017E007F10123194
:102E38005890A7BAE0FEA3E0640E4E600302307714
:102E480090A7BAE0A3E0FF90A638E0FCA3E06F707B
:102E580002EC6E601EE490A63DF0A3F07B017AA61A
:102E6800793D90A3D2F0A37402F07F017EAE124C9C
:102E7800C680347B017AA6793D90A3D2E4F0A3748E
:102E880002F07F017EAE124A5990A63AE0FEA3E016
:102E9800FF90A63DE0FCA3E06F7002EC6E700302A9
:102EA8003077800302307790A63DE0FEA3E0FF90E4
:102EB800A63AEEF0A3EFF0E4A3F090A63CE0C394AA
:102EC8000A74809480400302305DA3E0FEA3E0FF13
:102ED8007C007D0A1231D690A63CE02FFFEC3EFE26
:102EE80090A636E0FCA3E0FDC3EF9DEE9C400302F4
:102EF800305D90A63DE0FEA3E0FF7C007D0A123124
:102F0800D690A63CE02FFFEC3EFE90A632E0FCA354
:102F1800E0D39FEC9E403290A63DE0FEA3E0FF7C0C
:102F2800001231D690A63CE02FFFEC3EFEEF2401C4
:102F3800FFE43EFE90A632E0FCA3E0C39FFFEC9EB8
:102F480090A1FBF0A3EFF0803A90A63DE0FEA3E04D
:102F5800FF7C007D0A1231D690A63CE02FFFEC3EA4
:102F6800FEEF2401FFE43EFE90A632E0FCA3E0243D
:102F780000FDEC3402FCC3ED9FFFEC9E90A1FBF03A
:102F8800A3EFF090A1FBE0FEA3E07803C333CE33B8
:102F9800CED8F92400FFEE3420FEE4FCFD90A3D047
:102FA80012349E90A3D4E4F0A37408F07D007C3022
:102FB8007F5A126CF77B017AA179C790A3D2E4F00B
:102FC800A37410F07F007E30124A597B017AA179F0
:102FD800D7C003C002C00190A1D5E0FEA3E07805E8
:102FE800C333CE33CED8F92467F974933EFA7B0104
:102FF80090A21212350790A215E4F0A37420F0D025
:1030080001D002D00312703090A63CE025E0243FA6
:10301800F582E434A6F583E0FEA3E0FF7B017AA104
:1030280079C790A3D2E4F0A37430F0124CC690A6EE
:103038003CE025E0243FF582E434A6F583E0FCA3D8
:10304800E0FD90A63CE0FF7B0E1262C190A63CE03A
:1030580004F0022EC290A63CE0C3940A74809480C7
:10306800500DE0FF12618290A63CE004F080E690EB
:10307800A7BAE0FEA3E0FF90A638EEF0A3EFF02297
:10308800E709F608DFFA8046E709F208DFFA803E2A
:1030980088828C83E709F0A3DFFA8032E309F60817
:1030A800DFFA8078E309F208DFFA807088828C837F
:1030B800E309F0A3DFFA806489828A83E0A3F60833
:1030C800DFFA805889828A83E0A3F208DFFA804C0D
:1030D80080D280FA80C680D4806980F280338010E4
:1030E80080A680EA809A80A880DA80E280CA80334D
:1030F80089828A83ECFAE493A3C8C582C8CCC583C5
:10310800CCF0A3C8C582C8CCC583CCDFE9DEE78094
:103118000D89828A83E493A3F608DFF9ECFAA9F013
:10312800EDFB2289828A83ECFAE0A3C8C582C8CC69
:10313800C583CCF0A3C8C582C8CCC583CCDFEADE82
:10314800E880DB89828A83E493A3F208DFF980CCE4
:1031580088F0EF60010E4E60C388F0ED2402B404DD
:103168000050B9F582EB2402B4040050AF23234584
:1031780082239030D873BB010689828A83E022506B
:1031880002E722BBFE02E32289828A83E49322BB00
:10319800010CE58229F582E5833AF583E0225006A1
:1031A800E92582F8E622BBFE06E92582F8E222E557
:1031B8008229F582E5833AF583E49322BB010689E7
:1031C800828A83F0225002F722BBFE01F322EF8DA0
:1031D800F0A4A8F0CF8CF0A428CE8DF0A42EFE2267
:1031E800BC000BBE0029EF8DF084FFADF022E4CCCB
:1031F800F875F008EF2FFFEE33FEEC33FCEE9DEC94
:10320800984005FCEE9DFE0FD5F0E9E4CEFD22EDD9
:10321800F8F5F0EE8420D21CFEADF075F008EF2F23
:10322800FFED33FD4007985006D5F0F222C398FD14
:103238000FD5F0EA22C2D5EC30E709B2D5E4C39D38
:10324800FDE49CFCEE30E715B2D5E4C39FFFE49E95
:10325800FE1231E8C3E49DFDE49CFC80031231E8D2
:1032680030D507C3E49FFFE49EFE22C5F0F8A3E033
:1032780028F0C5F0F8E582158270021583E038F071
:1032880022A3F8E0C5F025F0F0E58215827002155A
:1032980083E0C838F0E822BB010A89828A83E0F516
:1032A800F0A3E022500687F009E71922BBFE07E3E6
:1032B800F5F009E3192289828A83E493F5F0740111
:1032C8009322BB0110E58229F582E5833AF583E074
:1032D800F5F0A3E0225009E92582F886F008E622F5
:1032E800BBFE0AE92582F8E2F5F008E222E5832A26
:1032F800F583E993F5F0A3E99322BB010A89828A51
:1033080083F0E5F0A3F0225006F709A7F01922BBD5
:10331800FE06F3E5F009F31922EF2BFFEE3AFEED76
:1033280039FDEC38FC22E88FF0A4CC8BF0A42CFCFF
:10333800E98EF0A42CFC8AF0EDA42CFCEA8EF0A413
:10334800CDA8F08BF0A42DCC3825F0FDE98FF0A4A2
:103358002CCD35F0FCEB8EF0A4FEA9F0EB8FF0A499
:10336800CFC5F02ECD39FEE43CFCEAA42DCE35F0D5
:10337800FDE43CFC2275F008758200EF2FFFEE3368
:10338800FECD33CDCC33CCC58233C5829BED9AECD0
:1033980099E58298400CF582EE9BFEED9AFDEC993A
:1033A800FC0FD5F0D6E4CEFBE4CDFAE4CCF9A88244
:1033B80022B800C1B90059BA002DEC8BF084CFCEE9
:1033C800CDFCE5F0CBF97818EF2FFFEE33FEED33A7
:1033D800FDEC33FCEB33FB10D703994004EB99FB6E
:1033E8000FD8E5E4F9FA227818EF2FFFEE33FEED57
:1033F80033FDEC33FCC933C910D7059BE99A400764
:10340800EC9BFCE99AF90FD8E0E4C9FAE4CCFB227A
:1034180075F010EF2FFFEE33FEED33FDCC33CCC843
:1034280033C810D7079BEC9AE899400AED9BFDEC4E
:103438009AFCE899F80FD5F0DAE4CDFBE4CCFAE48D
:10344800C8F922EB9FF5F0EA9E42F0E99D42F0ECC4
:103458006480C864809845F022EB9FF5F0EA9E42AC
:10346800F0E99D42F0E89C45F022E86010ECA2E704
:1034780013FCED13FDEE13FEEF13FFD8F022E0FC72
:10348800A3E0FDA3E0FEA3E0FF22E0F8A3E0F9A398
:10349800E0FAA3E0FB22ECF0A3EDF0A3EEF0A3EF3B
:1034A800F022A8828583F0D083D0821234C11234EE
:1034B800C11234C11234C1E473E493A3C583C5F0C7
:1034C800C583C8C582C8F0A3C583C5F0C583C8C570
:1034D80082C822A42582F582E5F03583F58322E0AF
:1034E800FBA3E0FAA3E0F922F8E0FBA3A3E0F925A7
:1034F800F0F0E582158270021583E0FA38F022EBCD
:10350800F0A3EAF0A3E9F022D083D082F8E4937024
:1035180012740193700DA3A393F8740193F5828834
:1035280083E4737402936860EFA3A3A380DFD0835E
:10353800D082F8E4937012740193700DA3A393F8EA
:10354800740193F5828883E473740293B5F006746A
:1035580003936860E9A3A3A3A380D8E3F5F009E285
:1035680008B5F06BDFF58067E3F5F009E608B5F01C
:103578005EDFF5805A87F009E608B5F052DFF6807D
:103588004E87F009E208B5F046DFF6804288828C63
:103598008387F009E0A3B5F036DFF6803288828CA5
:1035A8008387F009E493A3B5F025DFF580218882AD
:1035B8008C83E3F5F009E0A3B5F014DFF5801088FB
:1035C800828C83E3F5F009E493A3B5F002DFF402FB
:1035D8003692808780E9809080D4803E8015806E06
:1035E800807E809D80B7808D80A380518074803CD0
:1035F80002369E89828A83ECFAE493F5F0A3C8C563
:1036080082C8CCC583CCE493A3C8C582C8CCC58383
:10361800CCB5F076DFE3DEE1807089828A83E493BB
:10362800F5F0A3E208B5F062DFF4805E89828A8350
:10363800E0F5F0A3E608B5F051DFF5804D89828A00
:1036480083E0F5F0A3E208B5F040DFF5803C89821D
:103658008A83E493F5F0A3E608B5F02EDFF4802A18
:103668008002805789828A83ECFAE493F5F0A3C834
:10367800C582C8CCC583CCE0A3C8C582C8CCC583E5
:10368800CCB5F006DFE4DEE280007FFFB5F0020F84
:103698002240027F012289828A83ECFAE0F5F0A3B6
:1036A800C8C582C8CCC583CCE0A3C8C582C8CCC570
:1036B80083CCB5F0D5DFE5DEE380CF89828A83EC61
:1036C800FAE0F5F0A3C8C582C8CCC583CCE493A3BF
:1036D800C8C582C8CCC583CCB5F0AFDFE4DEE280D4
:1036E800A988F0EF60010E4E60ABED2402B404002F
:1036F8005098F582EB2402B40400508E23234582AF
:10370800239035DA73EF4E6012EF60010EEDBB01C6
:103718000B89828A83F0A3DFFCDEFA2289F0500746
:10372800F709DFFCA9F022BBFEFCF309DFFCA9F0D6
:1037380022F8BB010DE58229F582E5833AF583E895
:10374800F0225006E92582C8F622BBFE05E925824B
:10375800C8F2227BFF7A7B796C78027CA27D017E9D
:10376800007F3E1231587BFF7A7B79AA78417CA290
:103778007D017E007F241231587B017AA279029064
:10378800A3D2E4F0A3743EF07F207EAB124A59E442
:1037980090A240F090A240E0C394107480948040BE
:1037A800030239FCE0FF7E007401A807088005C306
:1037B80033CE33CED8F9FF90A208E0FCA3E0FDEEAB
:1037C8005CFEEF5D4E70030239E090A240E0FF7EA0
:1037D800007401A807088005C333CE33CED8F9FF9B
:1037E80090A20CE0FCA3E0FDEE5CFEEF5D4E7003E2
:1037F80002398D90A240E0FF1313543F2407FFE4E1
:103808003390A267F0A3EFF090A267E0FEA3E02553
:10381800E0FFEE33FE74022FF58274A23EF583E0DA
:10382800FEA3E0FF90A240E0540325E025E0FDEF71
:10383800A805088005CEC313CE13D8F9540FFF90FE
:10384800A265E4F0A3EFF090A265E0FEA3E08EF09D
:10385800123536387F00003897000138AF0002383B
:10386800C7000438DE000538F50006390C000839B1
:103878002300090000393A90A240E025E02441F5F0
:1038880082E434A2F583E4F0A37405F002394F9082
:10389800A240E025E02441F582E434A2F583E4F077
:1038A800A37406F002394F90A240E025E02441F5C8
:1038B80082E434A2F583E4F0A37407F002394F9050
:1038C800A240E025E02441F582E434A2F583E4F047
:1038D800A37408F0807190A240E025E02441F582AD
:1038E800E434A2F583E4F0A37409F0805A90A2406E
:1038F800E025E02441F582E434A2F583E4F0A374E2
:103908000AF0804390A240E025E02441F582E434A7
:10391800A2F583E4F0A37403F0802C90A240E02584
:10392800E02441F582E434A2F583E4F0A37404F0C2
:10393800801590A240E025E02441F582E434A2F508
:1039480083E4F0A37405F090A240E0FF7E007401C8
:10395800A807088005C333CE33CED8F9FF90A20458
:10396800E0FCA3E0FDEE5CFEEF5D4E607E90A240C1
:10397800E025E02441F582E434A2F583E475F008FB
:10398800123273806690A240E0FF7E007401A8079F
:10399800088005C333CE33CED8F9FF90A204E0FCEB
:1039A800A3E0FDEE5CFEEF5D4E601790A240E025BF
:1039B800E02441F582E434A2F583E4F0A37402F034
:1039C800802990A240E025E02441F582E434A2F564
:1039D80083E4F0A304F0801390A240E025E02441A2
:1039E800F582E434A2F583E4F0A3F090A240E00469
:1039F800F002379C90A2407410F090A240E0C3946B
:103A080012748094804003023C6DE024F0FF7E0035
:103A18007401A807088005C333CE33CED8F9FF90C8
:103A2800A20AE0FCA3E0FDEE5CFEEF5D4E7003022F
:103A38003C5190A240E024F0FF7E007401A80708E2
:103A48008005C333CE33CED8F9FF90A20EE0FCA395
:103A5800E0FDEE5CFEEF5D4E7003023BFC90A24081
:103A6800E0FF1313543F2407FFE43390A267F0A349
:103A7800EFF090A267E0FEA3E025E0FFEE33FE74CE
:103A8800022FF58274A23EF583E0FEA3E0FF90A228
:103A980040E0540325E025E0FDEFA805088005CEA9
:103AA800C313CE13D8F9540FFF90A265E4F0A3EF27
:103AB800F090A265E0FEA3E08EF01235363AE900F8
:103AC800003B0100013B1900023B3100043B480068
:103AD800053B5F00063B7600083B8D000900003B74
:103AE800A490A240E025E02441F582E434A2F583C5
:103AF800E4F0A37405F0023BB990A240E025E0246D
:103B080041F582E434A2F583E4F0A37406F0023BA5
:103B1800B990A240E025E02441F582E434A2F5837F
:103B2800E4F0A37407F0023BB990A240E025E0243A
:103B380041F582E434A2F583E4F0A37408F08071BF
:103B480090A240E025E02441F582E434A2F583E424
:103B5800F0A37409F0805A90A240E025E02441F5D2
:103B680082E434A2F583E4F0A3740AF0804390A2BF
:103B780040E025E02441F582E434A2F583E4F0A393
:103B88007403F0802C90A240E025E02441F582E403
:103B980034A2F583E4F0A37404F0801590A240E009
:103BA80025E02441F582E434A2F583E4F0A374050A
:103BB800F090A240E024F0FF7E007401A80708807E
:103BC80005C333CE33CED8F9FF90A206E0FCA3E0BC
:103BD800FDEE5CFEEF5D4E7003023C6490A240E097
:103BE80025E02441F582E434A2F583E475F0081257
:103BF8003273806890A240E024F0FF7E007401A830
:103C080007088005C333CE33CED8F9FF90A206E06B
:103C1800FCA3E0FDEE5CFEEF5D4E601790A240E075
:103C280025E02441F582E434A2F583E4F0A374028C
:103C3800F0802990A240E025E02441F582E434A2F6
:103C4800F583E4F0A304F0801390A240E025E0247B
:103C580041F582E434A2F583E4F0A3F090A240E0B9
:103C680004F0023A027B017AA2794190A3D2E4F0EF
:103C7800A37424F07FA07EAB124CC622E51330E07B
:103C8800167B017AA779BA90A3D2E4F0A37402F064
:103C98007F147E00124A59E51320E20302410A907C
:103CA800A7BAE0FEA3E04E702690A7B3E0C394063F
:103CB800748094805005E004F0801490A7B3E06409
:103CC80006700C7F39FE1274BF90A7B3E004F09021
:103CD800A7BAE0FEA3E0640B4E700312375B90A70F
:103CE800BAE0FEA3E064294E6003023DC77B017A77
:103CF800A179CA90A3D2F0A3741CF07FB07EC91238
:103D08004A59E490A1C7F090A1C7E0C39407748012
:103D180094804003023DB1E025E025E024CAF58205
:103D2800E434A1F583E0FEA3E0C4F8540FC868FDAD
:103D3800EEC454F048FC90A1C7E025E025E024CC6F
:103D4800F582E434A1F583E0FEA3E0EEC4540F2D20
:103D5800FFE43C90A1C8F0A3EFF090A1C8E0FEA357
:103D6800E0FF7C007D181231E890A1C7E025E0242F
:103D7800E6F582E434A1F583EEF0A3EFF090A1C854
:103D8800E0FEA3E0FF7C007D181231E890A1C7E0B7
:103D980025E024F4F582E434A1F583ECF0A3EDF0FA
:103DA80090A1C7E004F0023D0F7B017AA179E6906B
:103DB800A3D2E4F0A3741CF07F207EC9124CC690F5
:103DC800A7BAE0FEA3E0642C4E6003023EA87B0184
:103DD8007AA179D790A3D2F0A37406F07FA07ECC05
:103DE800124A5990A1D7E0FEA3E0FFEEC4F854F0C0
:103DF800C868FEEFC4540F4890A1C7EEF0A3E4F0E2
:103E080090A1C7E0FCA3E0FD90A1D7E0FEA3E07875
:103E180007CEC313CE13D8F9541FFFECFEED4FFFA6
:103E280090A1C7EEF0A3EFF090A1D7E0A3E0547FF4
:103E380090A1C9F0A3E4F090A1C9E0FCA3E0FD9033
:103E4800A1DBE0FEA3E0EEFFECFEED4FFF90A1C981
:103E5800EEF0A3EFF090A1DBE0A3E090A1CBF0A3FC
:103E6800E4F090A1D9E0FEA3E0FF90A1CDEEF0A38D
:103E7800EFF0A37402F0A314F0A37407F0A3E4F026
:103E8800A37412F0A3E4F0A3F0A3F07B017AA17964
:103E9800C790A3D2F0A37410F07F207ECC124CC63A
:103EA80090A7BAE0FEA3E0642F4E6003023F897B2F
:103EB800017AA179C790A3D2F0A37402F07F107E93
:103EC800CF124A597B017AA179CB90A3D2E4F0A30F
:103ED8007402F07F227ECF124A5990A1C7E0FEA358
:103EE800E0FF90A7B4E0FCA3E06F7002EC6E6060A6
:103EF80090A1C7E0A3E090A7B4EEF0A3EFF090A1E3
:103F0800CBE0FEA3E0543FFF90A1CBEEF0A3EFF08F
:103F180090A1CBE0FCA3E0FD90A1C7E0A3E07E0068
:103F280054037806C333CE33CED8F9FFEC4EFEEDFA
:103F38004FFF90A1CBEEF0A3EFF07B017AA179CBF4
:103F480090A3D2E4F0A37402F07F227ECF124CC675
:103F580090A1CBE0FEA3E07806CEC313CE13D8F928
:103F68005403FF90A1CDE4F0A3EFF07B017AA1798F
:103F7800CD90A3D2E4F0A37402F07F117ECF124C4F
:103F8800C690A7BAE0FEA3E064414E70277B017A91
:103F9800A179C790A3D2F0A37402F07F207EE1122A
:103FA8004A5990A1C7E0FEA3E064A54E70067F3988
:103FB800FE1274BF90A7BAE0FEA3E064274E7056C5
:103FC80090A7B6E0C3940574809480504290A1C72E
:103FD800E4F0A304F0FB7AA179C790A3D2E4F0A39C
:103FE8007402F07F277EA0124CC690A1C7E4F0A30C
:103FF800745AF07B017AA179C790A3D2E4F0A37434
:1040080002F07F877EA0124CC690A7B6E004F0E4C9
:1040180090A7B7F0805390A7B7E0C3940574809435
:10402800805041E490A1C7F0A3F07B017AA179C741
:1040380090A3D2F0A37402F07F277EA0124CC69002
:10404800A1C7E4F0A3745AF07B017AA179C790A3C1
:10405800D2E4F0A37402F07F877EA0124CC690A72A
:10406800B7E004F0E490A7B6F07B017AA179C79095
:10407800A3D2E4F0A37402F07F167E00124A59908E
:10408800A1C7E0FEA3E04E6024E490A1C7F0A3F02E
:104098007B017AA179C790A3D2F0A37402F07F16AE
:1040A8007E00124CC6E490A7B8F0A3F02290A7B8FF
:1040B800E0FEA3E0C39458EE9402501BA3E0FEA3D5
:1040C800E064404E70067F39FE1274BF90A7B8E4D2
:1040D80075F0011232732290A7B8E0FEA3E0B4583D
:1040E80021EEB4021D90A7B8E475F0011232739066
:1040F800A7BAE0FEA3E064404E60077F407E00124E
:1041080074BF2290A1CC12350790A1CFECF0A3ED9B
:10411800F090A1CFE0FEA3E0C39405EE9400500315
:10412800024460E4A3F0A3F090A1CC1234E790A17C
:10413800D1E0FEA3E0F5828E83123197640260031A
:1041480002443A90A1CC1234E790A1D1E0A3E0292F
:10415800F9EA3EFA900001123197123510417203C4
:1041680042C1064383100000443A90A1CC1234E7C0
:1041780090A1D1E0FEA3E029F9EA3EFA90000212EC
:104188003197FF90A1D5E4F0A3EFF090A1D1E0A37F
:10419800E0FF90A1D5E0FCA3E02FFFEC3EFEEF246A
:1041A80005FFE43EFE90A1CFE0FCA3E0FDD3EF9D28
:1041B800EE9C401190A1CFE0FEA3E0FFA3EEF0A398
:1041C800EFF002443A90A1CC1234E790A1D1E0FE7E
:1041D800A3E029F9EA3EFA90A1D5E0FEA3E0240382
:1041E800FDE43EFC126DFE90A1D3EEF0A3EFF0903B
:1041F800A1CC1234E790A1D1E0FEA3E029F9EA3E70
:10420800FA90A1D5E0FEA3E029F9EA3EFA9000036E
:10421800123197FD90A1D3E0FEA3E0EE6D7001E4AA
:10422800600302443A90A1CC1234E790A1D1E0FE99
:10423800A3E029F9EA3EFA90A1D5E0FEA3E029F926
:10424800EA3EFA900004123197FF90A1D3E0A3E070
:104258006F7001E4600302443A9084A9E0FEA3E091
:10426800FF90A1CC1234E790A1D1E0FCA3E029F99A
:10427800EA3CFAE92403F9E43AFA90A1D5E0FCA370
:10428800E0FD90A3D2ECF0A3EDF0124CC67E007FC7
:104298000E7D007B017A8479A112370D90A1D5E0BB
:1042A800FEA3E02405FFE43E90A1D1F0A3EFF09037
:1042B8008000E04402F002443A90A1D1E0FEA3E07D
:1042C8002408FFE43EFE90A1CFE0FCA3E0FDD3EF7D
:1042D8009DEE9C401190A1CFE0FEA3E0FFA3EEF07D
:1042E800A3EFF002443A90A1CC1234E790A1D1E0B8
:1042F800FEA3E029F9EA3EFA7D067C00126DFE90E5
:10430800A1D3EEF0A3EFF090A1CC1234E790A1D1A5
:10431800E0FEA3E029F9EA3EFA900006123197FD83
:1043280090A1D3E0FEA3E0EE6D7001E460030244C7
:104338003A90A1CC1234E790A1D1E0FEA3E029F98C
:10434800EA3EFA900007123197FF90A1D3E0A3E06C
:104358006F7001E4600302443A90A1D175F008122D
:1043680032737E007F0E7D007B017A8479A112373B
:104378000D908000E04402F002443A90A1D1E0FEA2
:10438800A3E02408FFE43EFE90A1CFE0FCA3E0FDFB
:10439800D3EF9DEE9C401190A1CFE0FEA3E0FFA3D8
:1043A800EEF0A3EFF002443A90A1CC1234E790A1CA
:1043B800D1E0FEA3E029F9EA3EFA7D067C00126D01
:1043C800FE90A1D3EEF0A3EFF090A1CC1234E790C9
:1043D800A1D1E0FEA3E029F9EA3EFA9000061231E5
:1043E80097FD90A1D3E0FEA3E0EE6D7001E470426A
:1043F80090A1CC1234E790A1D1E0FEA3E029F9EA1C
:104408003EFA900007123197FF90A1D3E0A3E0B5E0
:104418000720E490A1D175F0081232737E007F0E58
:104428007D007B017A8479A112370D908000E044E9
:1044380002F090A1D1E475F00112327390A1CFE09F
:10444800FEA3E024FBFFEE34FFFEA3E0FCA3E0C3E1
:104458009FEC9E50030241302290A1CC1235079068
:10446800A1CC1234E712329FFF90A1CFE5F0F0A360
:10447800EFF090A1CFE0FEA3E0C39403EE940140D7
:104488000302478190A1CFE0A3E09084AF75F00EBE
:104498001234DBEE75F00EA42583F583E0645A60D0
:1044A8000302477490A1CFE0A3E09084B275F00EA8
:1044B8001234DBEE75F00EA42583F583E070030259
:1044C800477490A1CFE0A3E09084B475F00E123445
:1044D800DBEE75F00EA42583F583E07003024781B7
:1044E80090A1CFE0A3E09084B475F00E1234DBEE17
:1044F80075F00EA42583F583E06401703490A1CF94
:10450800E0A3E09084B575F00E1234DBEE75F00E82
:10451800A42583F583E0FEA3E0FF90A7BAE0FCA3FF
:10452800E06F7002EC6E6003024774024781024735
:104538007490A1CFE0FEA3E09084B475F00E12341D
:10454800DBEE75F00EA42583F583E06402600302B8
:10455800464090A1CFE0A3E09084B575F00E1234E8
:10456800DBEE75F00EA42583F583E0FEA3E0FF7B68
:10457800017AA179D190A3D2E4F0A37402F0124A8F
:104588005990A1D1E0A3E0645A600302477490A156
:10459800CFE0FEA3E0C39402EE9401506190A1CF56
:1045A800E0A3E09084C275F00E1234DBEE75F00ED5
:1045B800A42583F583E06402704490A1CFE0A3E0D2
:1045C8009084C375F00E1234DBEE75F00EA42583CB
:1045D800F583E0FEA3E0FF90A1CFE0FCA3E0908488
:1045E800B575F00E1234DBEC75F00EA42583F58357
:1045F800E0FCA3E06F7002EC6E7003024781E49068
:10460800A1D1F0A3F090A1CFE0FEA3E09084B5750E
:10461800F00E1234DBEE75F00EA42583F583E0FE70
:10462800A3E0FF7B017AA179D190A3D2E4F0A3742F
:1046380002F0124CC602478190A1CFE0FEA3E090A1
:1046480084B475F00E1234DBEE75F00EA42583F5F4
:1046580083E06403600302477490A1CFE0A3E09075
:1046680084BB75F00E1234DBEE75F00EA42583F5CD
:1046780083E0FEA3E0FF90A7BAE0FCA3E0FDEF6DA6
:104688007002EE6C600302477490A1CFE0FEA3E0D5
:104698009084B575F00E1234DBEE75F00EA4258308
:1046A800F583E0FEA3E0FF7B017AA179D190A3D244
:1046B800E4F0A37402F0124A5990A1D1E0A3E06497
:1046C8005A600302477490A1CFE0FEA3E0C39402AE
:1046D800EE9401505E90A1CFE0A3E09084C275F003
:1046E8000E1234DBEE75F00EA42583F583E0640327
:1046F800704190A1CFE0A3E09084C375F00E12340E
:10470800DBEE75F00EA42583F583E0FEA3E0FF90B1
:10471800A1CFE0FCA3E09084B575F00E1234DBEC79
:1047280075F00EA42583F583E0FCA3E06F7002EC1E
:104738006E6046E490A1D1F0A3F090A1CFE0FEA373
:10474800E09084B575F00E1234DBEE75F00EA425FA
:1047580083F583E0FEA3E0FF7B017AA179D190A3E2
:10476800D2E4F0A37402F0124CC6800D90A1CFE4FD
:1047780075F00112327302447A90A1CFE0FEA3E0F3
:10478800FF90A1CC1234E7EE8FF01233022290A1F1
:10479800D612350790A1D9ECF0A3EDF07BFF7A7B18
:1047A80079DA78DB7CA17D017E007F181231589080
:1047B800A1D61234E790000A1232CA246CFFE5F041
:1047C800340790A207F0A3EFF090A207E0FEA3E061
:1047D800FF7C007D6412323DED4C601390A207E02F
:1047E800FEA3E0FF7C007D0412323DED4C60139087
:1047F800A207E0FEA3E0FF7C017D9012323DED4C64
:1048080070067E007F0180047E007F0090A203EE88
:10481800F0A3EFF090A1D61234E790000A1232CA42
:1048280024BAFFE5F034FFFE3395E0FDFC90A1F3D8
:1048380012349E90A1D61234E79000081232CAC3EF
:104848009401E5F064809480504090A203E0FEA3B8
:10485800E064014E703490A1F3123486EF2402FF15
:10486800E43EFEE43DFDE43CFCE47B04FAF9F81286
:104878007506EF24FFFFEE34FFFEED34FFFDEC3448
:10488800FFFC90A1FB12349E802290A1F312348683
:10489800EF2402FFE43EFEE43DFDE43CFCE47B043F
:1048A800FAF9F812750690A1FB12349E90A1F7123E
:1048B80034AA00000000E490A205F0A3F090A1D66D
:1048C8001234E79000081232CAFF90A205E0FCA358
:1048D800E0C39FE5F06480F8EC648098504890A1AC
:1048E800F7123486C006C00790A205E0FEA3E025B3
:1048F800E0FFEE33FE74DB2FF58274A13EF583E012
:10490800FEA3E0FFFBAA06EA3395E0F9F8D007D04A
:104918000612332190A1F712349E90A205E475F097
:1049280001123273809790A1F7123486C006C0072F
:1049380090A1D61234E79000061232CA24FFFFE590
:10494800F034FFFEAB07FA3395E0F9F8D007D0064C
:1049580012332190A1F712349E90A1F7123486C029
:1049680004C005C006C007E47F6D7E01FDFC90A170
:10497800F312349212332E90A1FB12349212332187
:10498800A804A905AA06AB07D007D006D005D0040D
:1049980012332190A1F712349E90A1D61234E790D9
:1049A80000041232CAFF90A1D9E0FCA3E0FDC3EFD6
:1049B8009DFFE5F09CFE3395E0FDFC90A1FF1234CD
:1049C8009EE47F107E0EFDFC90A1FF1234921233FC
:1049D8002EC004C005C006C0077F807E517D017CC3
:1049E8000090A1F712349212332EA804A905AA0642
:1049F800AB07D007D006D005D004123321C004C0BD
:104A080005C006C00790A1D61234E7900002123202
:104A1800CAFFAEF07C007D3C1231D6AB07AA06EA8D
:104A28003395E0F9F8D007D006D005D00412332129
:104A3800C006C00790A1D61234E712329FFFAEF02D
:104A4800FBAA06EA3395E0F9F8D007D0061233211D
:104A58002290A3CDEEF0A3EFF0A31235077B007AE6
:104A6800007900C003C002C00190A3CF1234E7D080
:104A780082D083D0E06B7008E965827003EA6583B1
:104A88007003024CC590A3D2E0FEA3E04E7003026F
:104A98004CC590A3D2E0A3E0FFEEC313FEEF13FFD3
:104AA80090A3CDE0FCA3E02FFFEE3CFED3EF94FEF5
:104AB800EE94FF4003024CC5C2AF90A3CDE0A3E043
:104AC800540190A3D4F090A3CDE0FEA3E0FFEEC381
:104AD80013FEEF13FF90A3CDEEF0A3EFF090A3CD5C
:104AE800E0FEA3E07810CEC313CE13D8F9F5F19009
:104AF800A3CDE0FEA3E0EEF5F290A3CDE0A3E0F5B0
:104B0800F3E4F5F875F401D2FF30FCFDD2FD90A373
:104B1800D4E06401707290A3D2E0FEA3E064014E79
:104B2800700AC2FBC2FAD2F9C2F88008C2FBC2FA04
:104B3800D2F9D2F8D2FE20FEFD90A3D2E0FEA3E087
:104B480064014E701A90A3CF75F0011234F0E5FCA1
:104B58001231C490A3D274FFF5F0123273802990F9
:104B6800A3CFE475F0011234F0E5FC1231C490A330
:104B7800CFE475F0011234F0E5FD1231C490A3D2F0
:104B880074FF75F0FE12327390A3D2E0FEA3E04EDC
:104B98007003024CC090A3D2E0A3E0C39404EE9447
:104BA800004003024C6990A3D2E0A3E08EF01235D6
:104BB800364BDD00014BD300024BC9000300004B0C
:104BC800E5D2FBD2FAD2F9C2F88012D2FBD2FAC2ED
:104BD800F9C2F88008D2FBC2FAC2F9C2F8D2FE20A4
:104BE800FEFD90A3D2E0FEA3E08EF01235364C56BF
:104BF80000014C3600024C06000300004CC090A394
:104C0800CFE475F0011234F0E5FA1231C490A3CF65
:104C1800E475F0011234F0E5FB1231C490A3CFE43F
:104C280075F0011234F0E5FC1231C4024CC090A3B7
:104C3800CFE475F0011234F0E5FA1231C490A3CF35
:104C4800E475F0011234F0E5FB1231C4806A90A3D8
:104C5800CFE475F0011234F0E5FA1231C4805980BE
:104C680057D2FBD2FAD2F9D2F8D2FE20FEFD90A399
:104C7800CFE475F0011234F0E5FA1231C490A3CFF5
:104C8800E475F0011234F0E5FB1231C490A3CFE4CF
:104C980075F0011234F0E5FC1231C490A3CFE4752D
:104CA800F0011234F0E5FD1231C490A3D274FF75FF
:104CB800F0FC123273024B90E4F5F8D2AF2290A3C5
:104CC800CDEEF0A3EFF0A31235077B007A00790050
:104CD800C003C002C00190A3CF1234E7D082D083B2
:104CE800D0E06B7008E965827003EA65837003029F
:104CF8004F3190A3D2E0FEA3E04E7003024F3190F3
:104D0800A3D2E0A3E0FFEEC313FEEF13FF90A3CD01
:104D1800E0FCA3E02FFFEE3CFED3EF94FEEE94FF01
:104D28004003024F31C2AF90A3CDE0A3E0540190FD
:104D3800A3D4F090A3CDE0FEA3E0FFEEC313FEEFF3
:104D480013FF90A3CDEEF0A3EFF090A3CDE0FEA368
:104D5800E07810CEC313CE13D8F9F5F190A3CDE0C7
:104D6800FEA3E0EEF5F290A3CDE0A3E0F5F3E4F5C1
:104D7800F875F401D2FF30FCFDC2FD90A3D4E064C5
:104D880001707290A3D2E0FEA3E064014E700AC2E3
:104D9800FBC2FAD2F9C2F88008C2FBC2FAD2F9D231
:104DA800F890A3D2E0FEA3E064014E701A90A3CF5E
:104DB80075F0011234F012317EF5FC90A3D274FF25
:104DC800F5F0123273802990A3CFE475F001123404
:104DD800F012317EF5FC90A3CFE475F0011234F0A7
:104DE80012317EF5FD90A3D274FF75F0FE12327376
:104DF800D2FE20FEFD90A3D2E0FEA3E04E70030297
:104E08004F2C90A3D2E0A3E0C39404EE9400400397
:104E1800024ED590A3D2E0A3E08EF01235364E4A6A
:104E280000014E4000024E36000300004E52D2FBF5
:104E3800D2FAD2F9C2F88012D2FBD2FAC2F9C2F879
:104E48008008D2FBC2FAC2F9C2F890A3D2E0FEA34E
:104E5800E08EF01235364EBD00014E9D00024E6EBA
:104E6800000300004ECC90A3CFE475F0011234F09B
:104E780012317EF5FA90A3CFE475F0011234F012E6
:104E8800317EF5FB90A3CFE475F0011234F01231B6
:104E98007EF5FC802F90A3CFE475F0011234F01258
:104EA800317EF5FA90A3CFE475F0011234F0123197
:104EB8007EF5FB800F90A3CFE475F0011234F01259
:104EC800317EF5FAD2FE30FE5B80FB8057D2FBD2F2
:104ED800FAD2F9D2F890A3CFE475F0011234F012A7
:104EE800317EF5FA90A3CFE475F0011234F0123157
:104EF8007EF5FB90A3CFE475F0011234F012317EF9
:104F0800F5FC90A3CFE475F0011234F012317EF570
:104F1800FDD2FE20FEFD90A3D274FF75F0FC123284
:104F280073024DFDE4F5F8D2AF227BFF7A7A79E877
:104F380078C77CA17D017E007F201231587B017AE1
:104F4800A179C790A1E912350790A1EC123507E4C1
:104F580090A1E7F0A3F090A1E7E0FEA3E0C3EE94F0
:104F6800024003024FFB90A1E7E0A3E07803C333BC
:104F7800CE33CED8F92400FFEE3420FEE4FCFD90B9
:104F8800A3D012349E90A3D4E4F0A37408F07D005B
:104F98007C307F5A126CF77B017AA179C790A3D233
:104FA800E4F0A37410F07F007E30124A5990A1E912
:104FB8001234E712329F645A7004E5F064A5602643
:104FC80090A1EC1234E712329FB4A527E5F0B45A49
:104FD8002290A1EC1234E778307CA67D017E007F18
:104FE80008123158800D90A1E7E475F00112327370
:104FF800024F5EE490A1E7F0A3F090A1E7E0FEA3E2
:10500800E0C3940AEE9400400302518D7BFF7A7B43
:10501800790878EF7CA17D017E007F201231587BD2
:10502800017AA579D978EF7CA17D017E007F1A12DB
:10503800315890A1E7E0FEA3E0FF7C007D1B123110
:10504800D6EF2464FFE43E90A1F3F0A3EFF090A123
:10505800F87401F090A1E7E0FEA3E090A65375F084
:10506800061234DBEE75F006A42583F583E0FEA373
:10507800E0FF7B017AA179EF90A3D2E4F0A374203A
:10508800F0124CC67B017AA579F378EF7CA17D01FB
:105098007E007F1A12315890A1E7E0FEA3E0FF7C62
:1050A800007D1B1231D6EF2464FFE43E90A1F3F09B
:1050B800A3EFF090A1F87401F090A1E7E0FEA3E05F
:1050C80090A65575F0061234DBEE75F006A425831C
:1050D800F583E0FEA3E0FF7B017AA179EF90A3D2EC
:1050E800E4F0A37420F0124CC67B017AA6798F787D
:1050F800EF7CA17D017E007F1A12315890A1E7E074
:10510800FEA3E0FF7C007D1B1231D6EF2464FFE490
:105118003E90A1F3F0A3EFF090A1E7E0FEA3E0FF3B
:105128001231D6EF2464FFE43E90A1F9F0A3EFF02A
:1051380090A1E7E0FEA3E0FF1231D6EF247DFFE463
:105148003E90A1FDF0A3EFF090A1E7E0FEA3E09070
:10515800A65775F0061234DBEE75F006A42583F524
:1051680083E0FEA3E0FF7B017AA179EF90A3D2E46C
:10517800F0A37420F0124CC690A1E7E475F0011278
:10518800327302500222E51330E10D90A7BCE4759A
:10519800F00112327312692790A7BCE0FEA3E0C3A6
:1051A80094B0EE940450030253DCE490A7BCF0A33F
:1051B800F0A3E0FEA3E02400FFEE341090A1C7F0B6
:1051C800A3EFF07B017AA179C990A3D2E4F0A3748C
:1051D80002F07FA37EA0124A5990A1C9E475F0C8D5
:1051E80012327390A1C7E0FEA3E0FF7B017AA17998
:1051F800C990A3D2E4F0A37402F0124CC690A7BEE3
:10520800E0FEA3E02400FFEE341890A1C7F0A3EF5E
:10521800F07B017AA179C990A3D2E4F0A37402F0DB
:105228007FA47EA0124A5990A1C7E0FEA3E0FF7BAD
:10523800017AA179C990A3D2E4F0A37402F0124CC8
:10524800C690A7BEE0FEA3E0FF90A1CDEEF0A3EFCD
:10525800F090A7BEE475F00112327390A7BEE0FE8D
:10526800A3E0C394FEEE94074007E490A7BEF0A322
:10527800F07B017AA779BE90A3D2E4F0A37402F080
:105288007F007E03124CC67B017AA779BE90A3D219
:10529800E4F0A37402F0FF7E03124CC690A1CB7415
:1052A80007F0A374FEF07B017AA179CB90A3D2E436
:1052B800F0A37402F07F087E50124CC67B017AA1DD
:1052C80079CB90A3D2E4F0A37402F07F097E501248
:1052D8004CC690A1CB7402F0A3748AF07B017AA12A
:1052E80079CB90A3D2E4F0A37402F07F117E501220
:1052F8004CC690A7BEE0A3E030E0030253DC90A1C7
:10530800CD74FFF5F012327390A1CDE0FEA3E02436
:1053180000FFEE3410FE7B017AA179C790A3D2E496
:10532800F0A37404F0124A5990A1CB74A5F0A374A9
:105338005AF07B017AA179C790A3D2E4F0A374064E
:10534800F07F007E50124CC690A1CDE0FEA3E0FF96
:10535800E4FCFD90A3D012349E90A3D4E4F0A3748F
:1053680004F07D007C507FA5126CF790A1CDE0FE83
:10537800A3E02400FFEE3418FE7B017AA179C790E0
:10538800A3D2E4F0A37404F0124A5990A1CB74A5F7
:10539800F0A3745AF07B017AA179C790A3D2E4F004
:1053A800A37406F07F007E50124CC690A1CDE0FE9B
:1053B800A3E02400FFEE3408FEE4FCFD90A3D01225
:1053C800349E90A3D4E4F0A37404F07D007C507F55
:1053D800A5126CF722E490A1C7F0A3F0E51320E032
:1053E8000302561D7B017AA179C790A3D2E4F0A3EA
:1053F8007402F07F147E50124A5990A1C7E0FEA3B0
:10540800E04E700302561D90A1C7E0A3E08EF01293
:1054180035365596A000559BA02655A0A02755A522
:10542800A40055AAA40155AFA4A055AFA4A155AF97
:10543800A4A255AFA4A355AFA4A455AFA4A555AF36
:10544800A4A655AFA4A755AFA4A855AFA4A955AF16
:10545800A4AA55AFA4AB55AFA4AC55AFA4AD55AFF6
:10546800A4AE55AFA4AF55AFA4B055AFA4B155AFD6
:10547800A4B255AFA4B355AFA4B455AFA4B555AFB6
:10548800A4B655AFA4B755AFA4B855AFA4B955AF96
:10549800A4BA55AFA4BB55AFA4BC55AFA4BD55AF76
:1054A800A4BE55AFA4BF55AFA4C055AFA4C155AF56
:1054B800A4C255AFA4C355AFA4C455AFA4C555AF36
:1054C800A4C655AFA4C755AFA4C855AFA4C955AF16
:1054D800A4CA55AFA4CB55AFA4CC55AFA4CD55AFF6
:1054E800A4CE55AFA4CF55AFA4D055AFA4D155AFD6
:1054F800A4D255AFA4D355AFA4D455AFA4D555AFB6
:10550800A4D655AFA4D755AFA4D855AFA4D955AF95
:10551800A4DA55AFA4DB55AFA4DC55AFA4DD55AF75
:10552800A4DE55AFA4DF55AFA4E055AFA4E155AF55
:10553800A4E255AFA4E355AFA4E455AFA4E555BC28
:10554800A4F055BCA4F155BCA4F255BCA4F355C9AC
:10555800A6005601A60155CEAC0055D3AC0155DDC9
:10556800C50055E2C60055D8C70055E7C70155EC38
:10557800C90155ECC90655ECC90C55ECC90E55ECDA
:10558800C91155F9CF0055FED6000000560112701A
:105598009880661277CD8061127716805C126F5AF8
:1055A8008057120016805290A1C7E0FEA3E0FF12B8
:1055B8007215804590A1C7E0FEA3E0FF12726F80CC
:1055C80038126B9C8033127322802E127645802904
:1055D800127422802412767B801F12778E801A1212
:1055E8000022801590A1C7E0FEA3E0FF127474802A
:1055F8000812754A8003127589E490A1C7F0A3F0D8
:105608007B017AA179C790A3D2F0A37402F07F142A
:105618007E50124CC6221277EA7F641273CF7F1035
:105628001273CF1278661277EA7F651273CF90A152
:10563800CF7406F090A1CFE0D3940074809480409A
:105648001D12737A90A1CFE024C7F582E434A1F546
:1056580083EFF012780590A1CFE014F080D6127392
:105668007A90A1C7EFF012781E127866E490A1CF65
:10567800F090A1CFE0C3940374809480504BE02451
:10568800C7F582E434A1F583E0FFC4540F90A1D09C
:10569800F090A1CFE024C7F582E434A1F583E0546B
:1056A8000F90A1D1F090A1D0E075F00AA4FFA3E07B
:1056B8002FFF90A1CFE024C7F582E434A1F583EF52
:1056C800F090A1CFE004F080A890A1CF7404F090EE
:1056D800A1CFE0C3940774809480504BE024C7F5B1
:1056E80082E434A1F583E0FFC4540F90A1D0F09078
:1056F800A1CFE024C7F582E434A1F583E0540F90EC
:10570800A1D1F090A1D0E075F00AA4FFA3E02FFF8B
:1057180090A1CFE024C7F582E434A1F583EFF0909F
:10572800A1CFE004F080A890A1C7E0FFA3E0FDA30B
:10573800E0FB125EF890A1CAEFF07B017AA179C76D
:1057480090A3D2E4F0A37408F07F107E00124CC638
:1057580090A788E0FEA3E0C39448EE9403500A9013
:10576800A788E475F00112327390A1CCE06013A30E
:10577800E0600F90A788E0FEA3E0C39447EE94038F
:10578800500620000302583190A1D21234AA00001A
:10579800000090A1CDE0FF90A776E4F0A3EFF09091
:1057A800A1CCE0FF90A778E4F0A3EFF090A1CBE0C4
:1057B800FF90A77AE4F0A3EFF090A1C9E0FF90A7CB
:1057C8007CE4F0A3EFF090A1C8E024FFFFE434FFED
:1057D80090A77EF0A3EFF090A1C7E02464FFE43324
:1057E80090A780F0A3EFF090A1C7E4F0A3745AF05B
:1057F800A3E4F0A37412F07B017AA779767D087C84
:105808000012479690A1CB12349E7B017AA179C7EA
:1058180090A3D2E4F0A37408F07F157E50124CC612
:10582800E490A788F0A3F0C200227B007A007900F8
:1058380090A1C71235079084A0E064016003025864
:10584800C990849BE0FF9092D9E0D39F4011E090EB
:10585800849BF090935A1234AA0000000080629052
:10586800849BE0FF9092D9E06F7056FFFEFDFC909C
:10587800935A123492D3123461403890935A1234A6
:1058880092C3E50E9BFFE50D9AFEE50C99FDE50B2D
:1058980098FCE47B14FAF9F8C312346150237B01B5
:1058A8007A9279DA9092D9E0FD7C0012410B127756
:1058B80048800EAF0EAE0DAD0CAC0B90935A12345F
:1058C8009E908000E030E046E020E12990849C1220
:1058D8003492C3E50E9BFBE50D9AFAE50C99F9E5C0
:1058E8000B98F89084A5E0FFE4FCFDFEC312346138
:1058F8005003025A2D908000E030E10AA3E475F0CD
:1059080001123273802F908000E054FEF0229084C0
:105918009C123492C3E50E9BFFE50D9AFEE50C99A7
:10592800FDE50B98FCE47BF47A01F9F8D3123461B5
:105938004003025A2D908001E0FEA3E04E7003124E
:10594800603D90849C1234AA00000000E4F50EF536
:105958000DF50CF50B908000E054FDF0E054FEF0DE
:105968001277487B017A807901124461908001E0C6
:10597800FEA3E0C39403EE94014003025A269080EC
:1059880001E0A3E0FF7C007D0E1231D674AF2FF941
:1059980074843EFA7B0178A17C847D017E007F0EB1
:1059A8001231581277489084A3E0640370127B0187
:1059B8007A8479A1126514908000E04401F0805443
:1059C8009084A3E0640670349084A9E0FEA3E0FF0D
:1059D8007B017AA179CA90A3D2E4F0A37402F012F1
:1059E8004A597B017A8479A190A1CAE0FCA3E0FD21
:1059F80012662F908000E04401F080189084A3E0A4
:105A0800641070107B017A8479A1125C199080006F
:105A1800E04401F0E4F50EF50DF50CF50B22E490E9
:105A28008001F0A3F0227BFF7A7879E878C77CA11F
:105A38007D017E027F0012315890A3D01234AA0053
:105A480000000090A3D47410F0A3E4F0FD7C107F54
:105A58005A126CF790A3C77410F0A3E4F090A3C790
:105A6800E0FEA3E0C394FEEE9417506990A3C7E04C
:105A7800A3E0FF7B017AA179C790A3D27402F0A3B7
:105A8800E4F0124A59E490A3C9F0A3F090A3C9E046
:105A9800FEA3E0C3EE9401502F90A3C9E0A3E02534
:105AA800E0FFEE33FE74C72FF58274A13EF583E064
:105AB800FEA3E0645A7003EE64A5601990A3C9E4DC
:105AC80075F00112327380C490A3C7740175F00099
:105AD800123273808890A3C9E0FEA3E0FF90A3C7A9
