:100000000270BC020006C2AFD2AF32026347C2AF79
:10001000D2AF3202000E90A848E0FEA3E0FF1279B2
:0A002000C12222027610127C462253
:10002B00027DBD90A63C12372F0000300090A640F9
:10003B00E4F0A3740CF07D007C307F5A1271F47BDA
:10004B00017AA879FE90A63EE4F0A37418F07F0025
:10005B007E30125064E490A433F090A433E0C39448
:10006B000774809480506EE025E025E024FEF58235
:10007B00E434A8F58312370BE4FBFAF9F8C3123614
:10008B00E6602290A433E025E025E024FEF582E42F
:10009B0034A8F58312370B7B3F7A42790F7800C374
:1000AB001236E6502890A433E025E025E024DAF55B
:1000BB0082E434A8F58312370B90A433E025E025B6
:1000CB00E024FEF582E434A8F58312372390A433A1
:1000DB00E004F080857B017AA879FE90A63EE4F0DF
:0C00EB00A37414F07FA07EA61252D12254
:1000F800FFFF4457494E543542AA2F000041AA2811
:100108000042AA29000041AA2B0041AA2C0042AAB9
:100118002D000042AA33000042AA3100005AA91A51
:100128003FC9002D0064000086000A2D2D203A3AB0
:10013800000000000000000000005AA9343FCC0075
:10014800E60064000086000A2D2D2F3A3A000000D0
:10015800000000000000005AA9D13FD0019F0064B0
:100168000000019F006402F4007D002000171818A9
:1001780002000000603CA995400040A041404010AA
:1001880040B04150402040C04160403040D04170B4
:10019800404040E04180405040F041904060410084
:1001A80041A04070411041B04080412041C0409082
:1001B800413041D054A98141E041F84210422842DF
:1001C8004042584270428842A042B848A972000092
:1001D80000000000000042A97A000042A97F000048
:1001E80042A97C000041A97E0042A960000042A902
:1001F8004E000549954AB2E2CAD4BABAD7D6006EBB
:10020800E0955349443030BBD8B7E7B8DFCEC200D9
:1002180000000000000000000000000000000000D6
:1002280000000049443031BBD8B7E7B5CDCEC20095
:1002380000000000000000000000000000000000B6
:1002480000000049443032BBD8B7E7B8DFCAAA007B
:100258000000000000000000000000000000000096
:1002680000000049443033BBD8B7E7B5CDCAAA006F
:100278000000000000000000000000000000000076
:1002880000000049443034CBCDB7E7B8DFCEC20018
:100298000000000000000000000000000000000056
:1002A80000000049443035CBCDB7E7B5CDCEC2000C
:1002B8000000000000000000000000000000000036
:1002C80000000049443036CBCDB7E7B8DFCAAA00F2
:1002D8000000000000000000000000000000000016
:1002E80000000049443037CBCDB7E7B5CDCAAA00E6
:1002F80000000000000000000000000000000000F6
:1003080000000049443038B1A3C1F40000000000E7
:1003180000000000000000000000000000000000D5
:1003280000000049443039C4DAB2BFCDA8D0C500B6
:1003380000000000000000000000000000000000B5
:10034800000000494431304E5443D2ECB3A30000BE
:100358000000000000000000000000000000000095
:1003680000000049443131B7E7BBFA31B9CAD5CFEB
:100378000000000000000000000000000000000075
:1003880000000049443132B7E7BBFA32B9CAD5CFC9
:100398000000000000000000000000000000000055
:1003A80000000049443133B1A3C1F400000000004B
:1003B8000000000000000000000000000000000035
:1003C80000000049443134B1A3C1F400000000002A
:1003D8000000000000000000000000000000000015
:1003E80000000049443135B1A3C1F4000000000009
:1003F80000000000000000000000000000000000F5
:1004080000000049443136CDE2B7E7BBFAB9CAD596
:10041800CF00000000000000000000000000000005
:1004280000000049443137B7E7BBFA31D4CBD0D00C
:10043800B3ACCAB1000000000000000000000000DA
:1004480000000049443138B1A3C1F40000000000A5
:100458000000000000000000000000000000000094
:1004680000000049443139B1A3C1F4000000000084
:100478000000000000000000000000000000000074
:1004880000000049443230B1A3C1F400000000006C
:100498000000000000000000000000000000000054
:1004A80000000049443231B1A3C1F400000000004B
:1004B8000000000000000000000000000000000034
:1004C80000000049443232CDE2B7E7BBFAD4CBD0C2
:1004D800D0B3ACCAB100000000000000000000006A
:1004E80000000049443233B8DFD1B931BFAAB9D8C6
:1004F80000000000000000000000000000000000F4
:1005080000000049443234B8DFD1B931CBF8CBC050
:1005180000000000000000000000000000000000D3
:1005280000000049443235B5CDD1B931BFAAB9D898
:1005380000000000000000000000000000000000B3
:1005480000000049443236B5CDD1B931CBF8CBC023
:100558000000000000000000000000000000000093
:1005680000000049443237C5C5C6F8CEC2B6C83106
:10057800B8E6BEAF00000000000000000000000068
:1005880000000049443238C5C5C6F8CEC2B6C831E5
:10059800CBF8CBC000000000000000000000000005
:1005A80000000049443239B6CCD6DCC6DA31B8E6A8
:1005B800BEAF0000000000000000000000000000C6
:1005C80000000049443330D1B9BBFA31D4CBD0D084
:1005D800B3ACCAB100000000000000000000000039
:1005E80000000049443331B8DFD1B932BFAAB9D8C5
:1005F80000000000000000000000000000000000F3
:1006080000000049443332B8DFD1B932CBF8CBC04F
:1006180000000000000000000000000000000000D2
:1006280000000049443333B5CDD1B9D1B9C1A6B81A
:10063800E6BEAF000000000000000000000000005F
:1006480000000049443334B5CDD1B932CBF8CBC022
:100658000000000000000000000000000000000092
:1006680000000049443335C5C5C6F8CEC2B6C83205
:10067800B8E6BEAF00000000000000000000000067
:1006880000000049443336C5C5C6F8CEC2B6C832E4
:10069800CBF8CBC000000000000000000000000004
:1006A80000000049443337B6CCD6DCC6DA32B8E6A7
:1006B800BEAF0000000000000000000000000000C5
:1006C80000000049443338D1B9BBFA32D4CBD0D07A
:1006D800B3ACCAB100000000000000000000000038
:1006E80000000049443339BCD3CAAAC6F7B5E7C1EC
:1006F800F7B9FDB4F300000000000000000000009E
:1007080000000049443430BCD3CAAAC6F7B8DFCBCE
:10071800AECEBB000000000000000000000000009A
:1007280000000049443431BCD3CAAAC6F7C8B1CBCB
:10073800AE00000000000000000000000000000003
:1007480000000049443432BCD3CAAAC6F7D4CBD07F
:10075800D0B3ACCAB10000000000000000000000E7
:1007680000000049443433BCD3C8C8C6F7B8E6BE55
:10077800AF000000000000000000000000000000C2
:1007880000000049443434BCD3C8C8C6F731B3AC00
:10079800CAB10000000000000000000000000000D6
:1007A80000000049443435BCD3C8C8C6F732B3ACDE
:1007B800CAB10000000000000000000000000000B6
:1007C80000000049443436B6CFB5E7D6D8C6F400A1
:1007D8000000000000000000000000000000000011
:1007E80000000049443437B5E7D4B4CFE0D0F2B4C0
:1007F800EDCEF30000000000000000000000000043
:1008080000000049443438B5E7D4B4C6B5C2CAC6F6
:10081800ABB8DF000000000000000000000000008E
:1008280000000049443439B5E7D4B4C6B5C2CAC6D5
:10083800ABB5CD0000000000000000000000000083
:100848000000004944353041CFE0B9FDD1B900007E
:100858000000000000000000000000000000000090
:100868000000004944353142CFE0B9FDD1B900005C
:100878000000000000000000000000000000000070
:100888000000004944353243CFE0B9FDD1B900003A
:100898000000000000000000000000000000000050
:1008A8000000004944353341CFE0C7B7D1B9000053
:1008B8000000000000000000000000000000000030
:1008C8000000004944353442CFE0C7B7D1B9000031
:1008D8000000000000000000000000000000000010
:1008E8000000004944353543CFE0C7B7D1B900000F
:1008F80000000000000000000000000000000000F0
:100908000000004944353641CFE0C8B1CFE00000CF
:1009180000000000000000000000000000000000CF
:100928000000004944353742CFE0C8B1CFE00000AD
:1009380000000000000000000000000000000000AF
:100948000000004944353843CFE0C8B1CFE000008B
:10095800000000000000000000000000000000008F
:1009680000000049443539C6F8C1F7B6AACAA7B885
:10097800E6BEAF000000000000000000000000001C
:1009880000000049443630B9FDC2CBCDF8D4CBD0F5
:10099800D0B3ACCAB10000000000000000000000A5
:1009A80000000049443631B9FDC2CBCDF8B6C2B813
:1009B800E6BEAF00000000000000000000000000DC
:1009C80000000049443632D4B6B3CCB9D8BBFAB823
:1009D800E6BEAF00000000000000000000000000BC
:1009E80000000049443633D2E7CBAEB8E6BEAF00CC
:1009F80000000000000000000000000000000000EF
:100A080000000049443634C8BABFD8CDA8D0C5D2F2
:100A1800ECB3A3000000000000000000000000008C
:100A280000000049443635B1A3C1F40000000000BD
:100A380000000000000000000000000000000000AE
:100A480000000049443636B5CDB9FDC8C8B6C8312E
:100A5800B8E6BEAF00000000000000000000000083
:100A680000000049443637B5CDB9FDC8C8B6C8320C
:100A7800B8E6BEAF00000000000000000000000063
:100A880000000049443638D1CCCEEDB8E6BEAF0000
:100A9800000000000000000000000000000000004E
:100AA80000000049443639D3C3BBA7D7D4B6A8D26F
:100AB800E5B8E6BEAF00000000000000000000003E
:100AC80000000049443730B5E7D4B4D2ECB3A300F2
:100AD800000000000000000000000000000000000E
:100AE80000000049443731B1A3C1F4000000000000
:100AF80000000000000000000000000000000000EE
:100B080000000049443732B1A3C1F40000000000DE
:100B180000000000000000000000000000000000CD
:100B280000000049443733B1A3C1F40000000000BD
:100B380000000000000000000000000000000000AD
:100B480000000049443734B1A3C1F400000000009C
:100B5800000000000000000000000000000000008D
:100B680000000049443735B1A3C1F400000000007B
:100B7800000000000000000000000000000000006D
:100B880000000049443736B5CDD1B9D1B9C1A60066
:100B9800000000000000000000000000000000004D
:100BA80000000049443737B1A3C1F4000000000039
:100BB800000000000000000000000000000000002D
:100BC80000000049443738B5CDD1B9B4A5B8D0C66E
:100BD800F7D2ECB3A3000000000000000000000002
:100BE80000000049443739B8DFD1B9B4A5B8D0C638
:100BF800F7D2ECB3A30000000000000000000000E2
:100C080000000049443830C5C5CBAEB8DFCBAECE06
:100C1800BB00000000000000000000000000000011
:100C280000000049443831BCD3CAAAC6F7D2ECB395
:100C3800A300000000000000000000000000000009
:100C480000000049443832B7E7D1B9B9FDB5CD0045
:100C5800000000000000000000000000000000008C
:100C680000000049443833B1A3C1F400000000007B
:100C7800000000000000000000000000000000006C
:100C880000000049443834B8DFD1B931D1B9C1A620
:100C9800000000000000000000000000000000004C
:100CA80000000049443835B1A3C1F4000000000039
:100CB800000000000000000000000000000000002C
:100CC800000000494438364D4F5031B8E6BEAF00F9
:100CD800000000000000000000000000000000000C
:100CE800000000494438374D4F5032B8E6BEAF00D7
:100CF80000000000000000000000000000000000EC
:100D0800000000494438384C4F5031B8E6BEAF00B7
:100D180000000000000000000000000000000000CB
:100D2800000000494438394C4F5032B8E6BEAF0095
:100D380000000000000000000000000000000000AB
:100D480000000049443930C9E8B1B8CAB9D3C3B3BF
:100D5800ACCAB10000000000000000000000000064
:100D680000000049443931B1A3C1F400000000007B
:100D7800000000000000000000000000000000006B
:100D880000000049443932B1A3C1F400000000005A
:100D9800000000000000000000000000000000004B
:100DA80000000049443933B1A3C1F4000000000039
:100DB800000000000000000000000000000000002B
:100DC800000000D2BCB7A1C8FECBC1CEE9C2BDC6E7
:100DD800E2B0C6BEC1CAB0D2BCB7A1C8FECBC1CEB4
:100DE800E9C2BD3031323334353637383961626360
:100DF8006465663031323334353637383961626389
:100E080064656649443936B1A3C1F40000000000A6
:100E180000000000000000000000000000000000CA
:100E280000000049443937B1A3C1F40000000000B4
:100E380000000000000000000000000000000000AA
:100E480000000049443938B1A3C1F4000000000093
:100E5800000000000000000000000000000000008A
:100E680000000049443939B1A3C1F4000000000072
:100E7800000000000000000000000000000000006A
:100E88000000004944313030B1A3C1F40000000033
:100E9800000000000000000000000000000000004A
:100EA8000000004944313031B1A3C1F40000000012
:100EB800000000000000000000000000000000002A
:100EC8000000004944313032B1A3C1F400000000F1
:100ED800000000000000000000000000000000000A
:100EE8000000004944313033B1A3C1F400000000D0
:100EF80000000000000000000000000000000000EA
:100F08000000004944313034B1A3C1F400000000AE
:100F180000000000000000000000000000000000C9
:100F28000000004944313035B1A3C1F4000000008D
:100F380000000000000000000000000000000000A9
:100F48000000004944313036B1A3C1F4000000006C
:100F58000000000000000000000000000000000089
:100F68000000004944313037B1A3C1F4000000004B
:100F78000000000000000000000000000000000069
:100F88000000004944313038B1A3C1F4000000002A
:100F98000000000000000000000000000000000049
:100FA8000000004944313039B1A3C1F40000000009
:100FB8000000000000000000000000000000000029
:100FC8000000004944313130B1A3C1F400000000F1
:100FD8000000000000000000000000000000000009
:100FE8000000004944313131B1A3C1F400000000D0
:100FF80000000000000000000000000000000000E9
:101008000000004944313132B1A3C1F400000000AE
:1010180000000000000000000000000000000000C8
:101028000000004944313133B1A3C1F4000000008D
:1010380000000000000000000000000000000000A8
:101048000000004944313134B1A3C1F4000000006C
:101058000000000000000000000000000000000088
:10106800000000D2BCB7A1C8FECBC1CEE9C2BDC644
:10107800E2B0C6BEC1CAB0D2BCB7A1C8FECBC1CE11
:10108800E9C2BD30313233343536373839616263BD
:1010980064656630313233343536373839616263E6
:1010A8006465660000000000000000000000000009
:1010B8000000000000000000000000000000000028
:1010C8000000000000000000000000000000000018
:1010D8000000000000000000000000000000000008
:1010E80000000041AA350047A9FF000000000000E9
:1010F8000048AA0E000000000000000048AA0600F0
:1011080000000000000000C10042A9FD034252A9EE
:10111800EB000000000000000000000000000000DC
:1011280000000042AA18000042AA1A000042AA16AB
:10113800000044AA240000000042AA1C000044AA9F
:101148001E0000000002080000040B00000000045C
:101158000F0000000042AA220000010A006100A658
:101168004500C1814001C0804101C0804100C1816A
:101178004001C0804100C1814000C1814001C08060
:101188004101C0804100C1814000C1814001C0804F
:101198004100C1814001C0804101C0804100C1813E
:1011A8004001C0804100C1814000C1814001C08030
:1011B8004100C1814001C0804101C0804100C1811E
:1011C8004000C1814001C0804101C0804100C1810F
:1011D8004001C0804100C1814000C1814001C08000
:1011E8004101C0804100C1814000C1814001C080EF
:1011F8004100C1814001C0804101C0804100C181DE
:101208004000C1814001C0804101C0804100C181CE
:101218004001C0804100C1814000C1814001C080BF
:101228004100C1814001C0804101C0804100C181AD
:101238004001C0804100C1814000C1814001C0809F
:101248004101C0804100C1814000C1814001C0808E
:101258004100C1814001C0804101C0804100C1817D
:10126800406100A74500C0C101C30302C2C606070A
:10127800C705C5C404CC0C0DCD0FCFCE0E0ACACB02
:101288000BC90908C8D81819D91BDBDA1A1EDEDF02
:101298001FDD1D1CDC14D4D515D71716D6D2121392
:1012A800D311D1D010F03031F133F3F23236F6F7F2
:1012B80037F53534F43CFCFD3DFF3F3EFEFA3A3B42
:1012C800FB39F9F83828E8E929EB2B2AEAEE2E2F22
:1012D800EF2DEDEC2CE42425E527E7E62622E2E3D2
:1012E80023E12120E0A06061A163A3A26266A6A712
:1012F80067A56564A46CACAD6DAF6F6EAEAA6A6B82
:10130800AB69A9A86878B8B979BB7B7ABABE7E7F81
:10131800BF7DBDBC7CB47475B577B7B67672B2B311
:1013280073B17170B0509091519353529296565731
:1013380097559594549C5C5D9D5F9F9E5E5A9A9BC1
:101348005B99595898884849894B8B8A4A4E8E8FA1
:101358004F8D4D4C8C448485458747468682424351
:1013680083418180404194C50041852000449546D1
:101378000000000041851B0044851C000000006F30
:1013880096852F5A021003C8025015501600000007
:10139800FF5A020303C8000000A020031C00FF5AE4
:1013A800020301C8010039A023031900FF5A0206ED
:1013B80001C803A084A024010000395A020301C80F
:1013C800010039A025010400FF5A020601C802A045
:1013D80087A027010400FF5A020301C8010039A0B1
:1013E8002801CC00FF5A020303C8010039A0A0015C
:1013F8001A00FF5A020302C8000000A0A30310004D
:10140800FF5A020302C801000AAA00032600FF5A75
:10141800020308C801000AAA02034100FF5A020396
:1014280001C801000AAA0A036F00FF5A020301C893
:1014380001000AAA0B037700FF5A020301C8010042
:101448000AAA0C036500FF5A020301C801000AAA90
:101458000D036C00FF5A020301C801000AAA0E031B
:101468004F00FF5A020301C801000AAA0F036900CE
:10147800FF5A02031FC801000BAB20038C00FF5A60
:10148800020601C803AC80AC20023A000C5A0203E1
:1014980006C800000DAEA0032000FF5A020307C8CB
:1014A80003B300B320011A00135A020601C803B39C
:1014B80080B320011A00135A020601C803B382B38D
:1014C80022011C00135A020601C803B383B3230187
:1014D8001D00135A020601C803B384B324011E0079
:1014E800135A020601C803B385B325011F00135A16
:1014F800020601C803B386B326012000135A02036B
:101508000BC803B400B420015800145A020301C8E0
:1015180003B400B42B013B00145A020301C803B4FE
:1015280000B42C019E00145A020601C803B480B40A
:1015380020015800145A020601C803B481B42101DD
:101548005900145A020601C803B483B423015B008E
:10155800145A020601C803B484B424015C00145A66
:10156800020601C803B485B425015D00145A0206B9
:1015780001C803B486B426015E00145A020601C8E5
:1015880003B487B427015F00145A020601C803B4E4
:1015980088B428016000145A020601C803B48AB44A
:1015A8002A016200145A020601C803B48BB42B0145
:1015B8003B00145A020601C803B48CB42C019E00E7
:1015C800145A020301C803B600B62001A100165A36
:1015D800020304C803B600B62101CD00165A02065C
:1015E80001C803B680B62001A100165A020604C835
:1015F80003B681B62101CD00165A020604C803B607
:1016080082B62201CE00165A020604C803B683B673
:101618002301CF00165A020604C803B684B6240173
:10162800D000165A020306C803B700B720013B00D2
:10163800175A020305C803B700B726014300175A13
:10164800020601C803B780B720013B00175A0206FB
:1016580001C803B784B724013F00175A020601C81E
:1016680003B785B725014000175A020601C803B71A
:1016780086B726014300175A020601C803B787B781
:1016880027014400175A020601C803B788B7280182
:101698004500175A020601C803B789B72901460051
:1016A800175A020601C803B78AB72A014700175A12
:1016B800020305C803B800B820016900185A0203DC
:1016C80004C803B800B825017100185A020301C8FC
:1016D80003B800B829017B00185A020301C803B8EF
:1016E80000B82A023000185A020301C803B800B82B
:1016F8002B02C100185A020601C803B880B820019D
:101708006900185A020601C803B881B821016A00A5
:10171800185A020601C803B882B822016B00185A89
:10172800020601C803B883B823016C00185A0206E0
:1017380001C803B884B824016D00185A020601C80C
:1017480003B885B825017100185A020601C803B804
:1017580086B826017200185A020601C803B887B86D
:1017680027017300185A020601C803B888B828016F
:101778007400185A020601C803B889B829017B0009
:10178800185A020601C803B88AB82A023000185A43
:10179800020601C803B88BB82B02C100185A02030D
:1017A80001C803BB00BB2001B0001B5A020302C8DA
:1017B80003BB00BB2101B2001B5A020302C803BBD2
:1017C80000BB2301B5001B5A020302C803BB00BBC0
:1017D8002501B8001B5A020301C803BB00BB27013F
:1017E800BB001B5A020302C803BB00BB2801D1007F
:1017F8001B5A020302C803BB00BB2A01FB001B5A89
:10180800020302C803BB00BB2C0276001B5A02036A
:1018180001C803BB00BB2E01DC001B5A020601C82D
:1018280003BB80BB2001B0001B5A020601C803BBE2
:1018380081BB2101B2001B5A020601C803BB82BB4F
:101848002201B3001B5A020601C803BB83BB230154
:10185800B5001B5A020601C803BB84BB2401B600AD
:101868001B5A020601C803BB85BB2501B8001B5AD9
:10187800020601C803BB86BB2601B9001B5A020633
:1018880001C803BB87BB2701BB001B5A020601C85E
:1018980003BB88BB2801D1001B5A020601C803BB41
:1018A80089BB2901D2001B5A020601C803BB8ABBA7
:1018B8002A01FB001B5A020601C803BB8BBB2B0184
:1018C800FC001B5A020601C803BB8CBB2C02760025
:1018D8001B5A020601C803BB8DBB2D0277001B5A99
:1018E800020601C803BB8EBB2E01DC001B5A020393
:1018F80002C803BC00BC200232001C5A020301C803
:1019080003BC00BC220252001C5A020301C803BCDB
:1019180000BC230255001C5A020301C803BC00BCCA
:10192800240258001C5A020301C803BC00BC25024B
:1019380061001C5A020302C803BC00BC26027100E5
:101948001C5A020301C803BC00BC280286001C5AAA
:10195800020601C803BC80BC200232001C5A0206E1
:1019680001C803BC81BC210233001C5A020601C80D
:1019780003BC82BC220252001C5A020601C803BCE6
:1019880083BC230255001C5A020601C803BC84BC50
:10199800240258001C5A020601C803BC85BC250253
:1019A80061001C5A020601C803BC86BC26027100ED
:1019B8001C5A020601C803BC87BC270272001C5AC5
:1019C800020601C803BC88BC280286001C5A020310
:1019D80002C803BF00BF200102001F5A020301C84A
:1019E80003BF00BF220107001F5A020301C803BF3B
:1019F80000BF2301A5001F5A020601C803BF80BF0C
:101A0800200102001F5A020601C803BF81BF21013D
:101A180003001F5A020601C803BF82BF2201070044
:101A28001F5A020601C803BF83BF2301A5001F5A1E
:101A3800020308C803C200C220018200225A02031E
:101A480001C803C200C228018C00225A020301C83F
:101A580003C200C229019800225A020601C803C223
:101A680080C220018200225A020601C803C281C234
:101A780021018300225A020601C803C282C2220140
:101A88008400225A020601C803C284C224018600C7
:101A9800225A020601C803C285C225018700225ABC
:101AA800020601C803C286C226018800225A02061D
:101AB80001C803C287C227018900225A020601C849
:101AC80003C288C228018C00225A020601C803C238
:101AD80089C229019800225A020601C803C580C597
:101AE80020023B000F5A020301C803C700C72001A8
:101AF800A600275A020301C803C700C72101A9008D
:101B0800275A020301C803C700C72501AB00275A9B
:101B1800020301C803C700C72602D900275A0203D7
:101B280001C803C700C72702D800275A020302C802
:101B380003C700C72802CE00275A020301C80100C4
:101B480027A025010400FF5A020601C803C780C761
:101B58002001A600275A020601C803C781C7210130
:101B6800A900275A020601C803C782C72201A80094
:101B7800275A020301C8010027C723037500FF5A2B
:101B8800020301C8010027C724037700FF5A020691
:101B980001C803C785C72501AB00275A020601C83B
:101BA80003C786C72602D900275A020601C803C7F9
:101BB80087C72702D800275A020601C803C788C763
:101BC8002802CE00275A020601C803C789C729027E
:101BD800CF00275A020301C803C800C82001270004
:101BE800285A020301C803C800C821012900285A3D
:101BF800020304C803C800C822012D00285A0203A2
:101C080001C803C800C826019000285A020301C869
:101C180003C800C827019400285A020601C803C84F
:101C280080C820012700285A020601C803C881C8B5
:101C380021012900285A020601C803C882C82201C6
:101C48002D00285A020601C803C883C823012E00A4
:101C5800285A020601C803C884C824012F00285A3C
:101C6800020601C803C885C825013000285A0206A3
:101C780001C803C886C826019000285A020601C870
:101C880003C887C827019400285A02030EC8010018
:101C980029C9B0037800FF5A020601C803C990C9D0
:101CA80030023C00295A020303C803CC00CCA0032D
:101CB80002002C5A020304C803CF00CF20010D00F4
:101CC8002F5A020301C803CF00CF240141002F5A25
:101CD800020301C803CF00CF25015A002F5A02037F
:101CE80001C803CF00CF2602D0002F5A020301C833
:101CF80003CF00CF27019D002F5A020601C803CF4A
:101D080080CF20010D002F5A020601C803CF81CFD2
:101D180021010E002F5A020601C803CF82CF2201EB
:101D28000F002F5A020601C803CF83CF23011000EA
:101D38002F5A020601C803CF84CF240141002F5A2D
:101D4800020601C803CF85CF25015A002F5A020683
:101D580001C803CF86CF2602D0002F5A020601C839
:101D680003CF87CF27019D002F5A020601C803CF52
:101D78008ACF2A023B002F5A02030AC8010034D432
:101D880020039C00FF5A020302C8010034D42A032E
:101D9800A800FF5A020307C803D500D520011A007E
:101DA800355A020601C803D580D520011A00355AD4
:101DB800020601C803D582D522011C00355A020645
:101DC80001C803D583D523011D00355A020601C871
:101DD80003D584D524011E00355A020601C803D54F
:101DE80085D525011F00355A020601C803D586D5B9
:101DF80026012000355A020301C803D600D6200167
:101E08000800365A020302C803D600D621010A0088
:101E1800365A020301C803D600D62301A700365A52
:101E2800020601C803D680D620010800365A0206E9
:101E380001C803D681D621010A00365A020601C814
:101E480003D682D622010B00365A020601C803D6F1
:101E580083D62301A700365A020301C803D700D747
:101E68002002F400375A020301C803D700D7210122
:101E7800CC00375A020601C803D780D72002F400E5
:101E8800375A020601C803D781D72101CC00375A37
:101E9800020301C803D800D82001F500385A02030C
:101EA80001C803D800D821020700385A02030CC819
:101EB80003D800D82201BC00385A020301C803D84D
:101EC80000D82E027D00385A020301C803D800D872
:101ED8002F027F00385A020301C803D800D8300205
:101EE8000F00385A020601C803D880D82001F5002F
:101EF800385A020601C803D881D821020700385A87
:101F0800020601C803D882D82201BC00385A02064A
:101F180001C803D883D82301BD00385A020601C876
:101F280003D884D82401BE00385A020601C803D851
:101F380085D82501BF00385A020601C803D886D8BB
:101F48002601C000385A020601C803D887D82701DD
:101F5800C100385A020601C803D888D82801C2002F
:101F6800385A020601C803D889D82901C300385A4B
:101F7800020601C803D88AD82A01C400385A0206C2
:101F880001C803D88BD82B01C500385A020601C8EE
:101F980003D88CD82C01C600385A020601C803D8C9
:101FA8008DD82D01C700385A020601C803D88ED82B
:101FB8002E027D00385A020601C803D88FD82F0296
:101FC8007F00385A020601C803D890D830020F00A3
:101FD800385A020301C801003ADA2003CD00FF5A3B
:101FE800020301C801003ADA2103CF00FF5A0203B5
:101FF80002C801003ADA2203D100FF5A020301C8DD
:1020080001003ADA2403D500FF5A020301C801008F
:102018003ADA2503D700FF5A020301C801003ADA69
:102028002603D900FF5A020301C801003ADA270340
:10203800DB00FF5A020301C801003ADA2803DD0079
:10204800FF5A020301C803DB00DB20019A003B5A58
:10205800020301C803DB00DB2102D3003B5A020361
:1020680002C803DB00DB2202D5003B5A020302C888
:1020780003DB00DB2402D8003B5A020305C803DB5C
:1020880000DB2602DB003B5A020301C803DB00DB4E
:102098002B0106003B5A020301C803DB00DB2C02BC
:1020A800E1003B5A020302C803DB00DB2D02E40017
:1020B8003B5A020601C803DB80DB20019A003B5A29
:1020C800020601C803DB81DB2102D3003B5A02066A
:1020D80001C803DB82DB2202D5003B5A020601C895
:1020E80003DB83DB2302D6003B5A020601C803DB6D
:1020F80084DB2402D8003B5A020601C803DB85DBD7
:102108002502D9003B5A020601C803DB86DB2602FA
:10211800DB003B5A020601C803DB87DB2702DC0031
:102128003B5A020601C803DB88DB2802DD003B5A64
:10213800020601C803DB89DB2902DE003B5A0206DE
:1021480001C803DB8ADB2A02DF003B5A020601C80A
:1021580003DB8BDB2B0106003B5A020601C803DBBD
:102168008CDB2C02E1003B5A020601C803DB8DDB45
:102178002D02E4003B5A020601C803DB8EDB2E0267
:10218800E5003B5A020301C803DD00DD20019B0086
:102198003D5A020304C803DD00DD2101E7003D5A72
:1021A800020302C803DD00DD2501ED003D5A0206E9
:1021B80001C803DD80DD20019B003D5A020601C8ED
:1021C80003DD81DD2101E7003D5A020601C803DD78
:1021D80082DD2201E8003D5A020601C803DD83DDE5
:1021E8002301E9003D5A020601C803DD84DD24010C
:1021F800EA003D5A020601C803DD85DD2501ED0030
:102208003D5A020601C803DD86DD2601EE003D5A6F
:10221800020301C801003EDE20037500FF5A0203D5
:1022280001C801003EDE21037700FF5A020303C8FC
:1022380003DF00DF200237003F5A020306C803DF2E
:1022480000DF23029E003F5A020601C803DF80DF39
:10225800200237003F5A020601C803DF81DF21024E
:1022680038003F5A020601C803DF82DF2202390024
:102278003F5A020606C803DF83DF23029E003F5A47
:10228800020606C803DF84DF24029F003F5A0206C5
:1022980006C803DF85DF2502A0003F5A020606C8EC
:1022A80003DF86DF2602A1003F5A020606C803DFC5
:1022B80087DF2702A2003F5A020606C803DF88DF2D
:1022C8002802A3003F5A020301C8010039E1200295
:1022D800F500FF5A020301C8010041E12002F500A0
:1022E800FF5A020302C8010041E12102F600FF5A29
:1022F800020601C803E183E12302F800415A0206FD
:1023080001C803E183E12402F900415A020601C829
:1023180003D780D72002F400414E85210000000039
:10232800000000000000000000004280010000657D
:102338001880035A13B320B350B3805A13B322B38F
:1023480052B3825A13B323B353B3835A13B324B388
:1023580054B3845A13B325B355B3855A13B326B36C
:1023680056B3865A14B420B450B4805A14B421B465
:1023780051B4815A14B423B453B4835A14B424B452
:1023880054B4845A14B425B455B4855A14B426B434
:1023980056B4865A14B427B457B4875A14B428B418
:1023A80058B4885A14B42AB45AB48A5A14B42BB4F8
:1023B8005BB48B5A14B42CB45CB48C5A16B620B6E1
:1023C80050B6805A16B621B651B6815A16B622B6FC
:1023D80052B6825A16B623B653B6835A16B624B6E0
:1023E80054B6845A17B720B750B7805A17B724B7CE
:1023F80054B7845A17B725B755B7855A17B726B7AC
:1024080056B7865A17B727B757B7875A17B728B78F
:1024180058B7885A17B729B759B7895A17B72AB773
:102428005AB78A5A18B820B850B8805A18B821B87C
:1024380051B8815A18B822B852B8825A18B823B875
:1024480053B8835A18B824B854B8845A18B825B859
:1024580055B8855A18B826B856B8865A18B827B83D
:1024680057B8875A18B828B858B8885A18B829B821
:1024780059B8895A18B82AB85AB88A5A18B82BB805
:102488005BB88B5A1BBB20BB50BB805A1BBB21BB04
:1024980051BB815A1BBB22BB52BB825A1BBB23BBFD
:1024A80053BB835A1BBB24BB54BB845A1BBB25BBE1
:1024B80055BB855A1BBB26BB56BB865A1BBB27BBC5
:1024C80057BB875A1BBB28BB58BB885A1BBB29BBA9
:1024D80059BB895A1BBB2ABB5ABB8A5A1BBB2BBB8D
:1024E8005BBB8B5A1BBB2CBB5CBB8C5A1BBB2DBB71
:1024F8005DBB8D5A1BBB2EBB5EBB8E5A1CBC20BC61
:1025080050BC805A1CBC21BC51BC815A1CBC22BC8A
:1025180052BC825A1CBC23BC53BC835A1CBC24BC6E
:1025280054BC845A1CBC25BC55BC855A1CBC26BC52
:1025380056BC865A1CBC27BC57BC875A1CBC28BC36
:1025480058BC885A1FBF20BF50BF805A1FBF21BF29
:1025580051BF815A1FBF22BF52BF825A1FBF23BF1C
:1025680053BF835A22C220C250C2805A22C221C2FB
:1025780051C2815A22C222C252C2825A22C224C2E3
:1025880054C2845A22C225C255C2855A22C226C2C2
:1025980056C2865A22C227C257C2875A22C228C2A6
:1025A80058C2885A22C229C259C2895A27C720C785
:1025B80050C7805A27C721C751C7815A27C725C77F
:1025C80055C7855A27C726C756C7865A27C727C754
:1025D80057C7875A27C728C758C7885A27C729C738
:1025E80059C7895A28C820C850C8805A28C821C83D
:1025F80051C8815A28C822C852C8825A28C823C834
:1026080053C8835A28C824C854C8845A28C825C817
:1026180055C8855A28C826C856C8865A28C827C8FB
:1026280057C8875A2FCF20CF50CF805A2FCF21CFCE
:1026380051CF815A2FCF22CF52CF825A2FCF23CFBB
:1026480053CF835A2FCF24CF54CF845A2FCF25CF9F
:1026580055CF855A2FCF26CF56CF865A2FCF27CF83
:1026680057CF875A35D520D550D5805A35D522D55C
:1026780052D5825A35D523D553D5835A35D524D545
:1026880054D5845A35D525D555D5855A35D526D529
:1026980056D5865A36D620D650D6805A36D621D622
:1026A80051D6815A36D622D652D6825A36D623D613
:1026B80053D6835A37D720D750D7805A37D721D700
:1026C80051D7815A38D820D850D8805A38D821D8EC
:1026D80051D8815A38D822D852D8825A38D823D8D3
:1026E80053D8835A38D824D854D8845A38D825D8B7
:1026F80055D8855A38D826D856D8865A38D827D89B
:1027080057D8875A38D828D858D8885A38D829D87E
:1027180059D8895A38D82AD85AD88A5A38D82BD862
:102728005BD88B5A38D82CD85CD88C5A38D82DD846
:102738005DD88D5A38D82ED85ED88E5A38D82FD82A
:102748005FD88F5A38D830D860D8905A3BDB20DB16
:1027580050DB805A3BDB21DB51DB815A3BDB22DB40
:1027680052DB825A3BDB23DB53DB835A3BDB24DB24
:1027780054DB845A3BDB25DB55DB855A3BDB26DB08
:1027880056DB865A3BDB27DB57DB875A3BDB28DBEC
:1027980058DB885A3BDB29DB59DB895A3BDB2ADBD0
:1027A8005ADB8A5A3BDB2BDB5BDB8B5A3BDB2CDBB4
:1027B8005CDB8C5A3BDB2DDB5DDB8D5A3BDB2EDB98
:1027C8005EDB8E5A3DDD20DD50DD805A3DDD21DDAA
:1027D80051DD815A3DDD22DD52DD825A3DDD23DDAA
:1027E80053DD835A3DDD24DD54DD845A3DDD25DD8E
:1027F80055DD855A3DDD26DD56DD865A3FDF20DF73
:1028080050DF805A3FDF21DF51DF815A3FDF22DF6F
:1028180052DF825A3FDF23DF53DF835A3FDF24DF53
:1028280054DF845A3FDF25DF55DF855A3FDF26DF37
:1028380056DF865A3FDF27DF57DF875A3FDF28DF1B
:1028480058DF885A41D720D750D780418000005C94
:10285800A8FE0000000000000000000000000000CA
:1028680000000000000000000000000000005CA85C
:10287800DA000000000000000100000002000273FE
:1028880060000A2D080002EA800007ED6541A8D61D
:10289800FF608CA84A000001000200030004000544
:1028A8000006000700080009000A000B000C000DD4
:1028B800000E000F01100011001202130014001581
:1028C8000016001700180019001A001B021C001D32
:1028D800001E001F002000210022002300240025E4
:1028E8000026022700280029002A002B002C002D92
:1028F800002E002F03300031003200330034003541
:102908000036003705380039003A003B003C003DEE
:10291800003E003F004000410042004300440045A3
:102928000048A8F6000101030203030642A8D800E4
:102938000042A848000042A845000041A8470000FE
:10294800AF13EF1313543F54016401600302330CB7
:102958007B017AA4793390A63EF0A3740CF07F2112
:102968007EA012506490A435E0FEA3E0FF90A4334B
:10297800E0FCA3E02FFFEC3EFE90A960E0FCA3E0A2
:102988006F7002EE6C605890A435E0FEA3E0FF90F3
:10299800A433E0FCA3E02FFFEC3EFE90A960E0FC2E
:1029A800A3E0C39FEC9E501D90A43DE4F0A304F067
:1029B800FB7AA4793D90A63EE4F0A37402F07F264A
:1029C8007EA01252D190A435E0FEA3E0FF90A4337C
:1029D800E0FCA3E02FFFEC3E90A960F0A3EFF0909D
:1029E800A433E0FEA3E0D39400EE9400500CA3E0DF
:1029F800FEA3E09400EE9400402090A43DE0FEA3E6
:102A0800E04E60167B017AA9794E90A63EE4F0A3C9
:102A18007402F07FA07E001252D190AA2FE0FEA38C
:102A2800E0640D4E6003022DC990AA2FE0A3E0FFD9
:102A380090A97AE0FCA3E06F7002EC6E601EE4904F
:102A4800A97FF0A3F07B017AA9797F90A63EF0A335
:102A58007402F07F017EAE1252D180167B017AA9F2
:102A6800797F90A63EE4F0A37402F07F017EAE1257
:102A780050647B017AA4793390A63EE4F0A37410E5
:102A8800F07FA07EAE125064E490A441F0A3E0541D
:102A980007F07B017AA9795078337CA47D017E0008
:102AA8007F1012396EEF702F90A97CE0FEA3E0FF33
:102AB80090A97FE0FCA3E0B5071DECB5061990AA24
:102AC8002FE0FEA3E0FF90A97AE0FCA3E06F70027C
:102AD800EC6E70030230BE7B017AA4793378507CA7
:102AE800A97D017E007F101233DDE490A97EF0906D
:102AF800A466F090A466E0C39408748094804003B0
:102B0800022D71E490A465F090A465E0C39410745C
:102B18008094804003022D68A3E0C454F0FF90A481
:102B280065E02F90A46AF0E075F018A42400FFE592
:102B3800F03435FE7B017AA4793390A63EE4F0A305
:102B48007430F01250647B017AA4793390A4671230
:102B5800378C90A465E0FF7E007401A80708800503
:102B6800C333CE33CED8F9FF90A466E025E02450D5
:102B7800F582E434A9F583E0FCA3E0FDEE5CFEEF0A
:102B88005D4E7003022CBF90A46712376C12352477
:102B9800645A7004E5F064A57003022C5C90A46785
:102BA80012376C74A575F05A1235877B017AA479AF
:102BB8004790A63EE4F0A37408F07F107E00125000
:102BC800647B017AA4794778357CA47D017E007FF7
:102BD800031233DD7B017AA4794B78387CA47D011C
:102BE8007E007F031233DD7E007F087D007B017A43
:102BF800A4793B12399290A46AE0FF90A441E4F0D2
:102C0800A3EFF07B017AA47943C002C00190A46AC3
:102C180075F020A42453F9749535F0FA90A47E1227
:102C2800378C90A481E4F0A37420F0D001D0021274
:102C3800754290A46AE075F018A42400FFE5F0340A
:102C480035FE7B017AA4793390A63EE4F0A3743074
:102C5800F01252D190A97FE0FEA3E0FF7C007D0A2C
:102C680012345B90A97EE0C39FEC9E4041A3E0FE36
:102C7800A3E0FF12345BEF240AFFE43EFE90A97E36
:102C8800E0C39FEC9E502790A46AE075F018A42436
:102C980000FDE5F03435FC90A97FE0A3E075F00A6B
:102CA800A4FF90A97EE0C39FFF7B0D12649190A9B9
:102CB8007EE004F0022D5F90A46712376C12352471
:102CC800645A7004E5F064A56003022D5F7B017A05
:102CD800A4794790A63EF0A37408F07F107E0012F6
:102CE80050647B017AA47947783B7CA47D017E00FF
:102CF8007F031233DD7B017AA4794B783E7CA47D77
:102D0800017E007F031233DD90A46AE0FF90A441A6
:102D1800E4F0A3EFF07B017AA4793390A63EE4F0C7
:102D2800A37410F07F007E301252D1126CADE49083
:102D3800A433F0A3F090A46AE075F018A42400FF6F
:102D4800E5F03435FE7B017AA4793390A63EE4F0B1
:102D5800A37402F01252D190A465E004F0022B1083
:102D680090A466E004F0022AFB90A97EE090A46596
:102D7800F090A97FE0FEA3E0FF7C007D0A12345B9F
:102D8800EF240AFFE43EFE90A465E0C39FEC9E504A
:102D98001D90A97FE0A3E075F00AA4FF90A465E068
:102DA800C39FFF1261F890A465E004F080C390A966
:102DB8007FE0FEA3E0FF90A97CEEF0A3EFF00230E5
:102DC800BE7B017AA4793390A63EE4F0A37410F098
:102DD8007FA07EAE125064E490A441F0A3E05407B3
:102DE800F07B017AA9795078337CA47D017E007F3D
:102DF8001012396EEF70030230BE7B017AA479336A
:102E080078677CA47D017E007F101233DDE490A4F6
:102E180066F090A466E0C394067480948040030230
:102E280030ABE490A465F090A465E0C3941074807E
:102E3800948040030230A2E0FF7E007401A80708D6
:102E48008005C333CE33CED8F9FF90A466E025E0E1
:102E58002467F582E434A4F583E0FCA3E0FDEE5C8E
:102E6800FCEF5DFD90A465E0FF7E007401A80708F3
:102E78008005C333CE33CED8F9FF90A466E025E0B1
:102E88002450F582E434A9F583E0FAA3E0FBEE5A76
:102E9800FEEF5B6D7002EE6C700302309990A466D1
:102EA800E0C454F0FF90A465E02F90A47AF0E07598
:102EB800F018A42400FFE5F03435FE7B017AA479EC
:102EC8003390A63EE4F0A37430F01250647B017A8C
:102ED800A4793390A47712378C90A465E0FF7E0024
:102EE8007401A807088005C333CE33CED8F9FF9004
:102EF800A466E025E02467F582E434A4F583E0FCC9
:102F0800A3E0FDEE5CFEEF5D4E7003022FE690A499
:102F18007712376C123524645A7004E5F064A57092
:102F28000302309990A47712376C74A575F05A1281
:102F380035877B017AA4794790A63EE4F0A374080C
:102F4800F07F107E001250647B017AA479477835AF
:102F58007CA47D017E007F031233DD7B017AA47996
:102F68004B78387CA47D017E007F031233DD7E0020
:102F78007F087D007B017AA4793B12399290A47A6C
:102F8800E0FF90A441E4F0A3EFF07B017AA4794339
:102F9800C002C00190A47A75F020A42453F9749556
:102FA80035F0FA90A47E12378C90A481E4F0A374D3
:102FB80020F0D001D00212754290A47AE075F01882
:102FC800A42400FFE5F03435FE7B017AA479339020
:102FD800A63EE4F0A37430F01252D102309990A4C6
:102FE8007712376C123524645A7004E5F064A560D2
:102FF800030230997B017AA4794790A63EF0A37426
:1030080008F07F107E001250647B017AA47947781B
:103018003B7CA47D017E007F031233DD7B017AA413
:10302800794B783E7CA47D017E007F031233DD90CE
:10303800A47AE0FF90A441E4F0A3EFF07B017AA426
:10304800793390A63EE4F0A37410F07F007E30122E
:1030580052D1126CADE490A433F0A3F090A47AE0BE
:1030680075F018A42400FFE5F03435FE7B017AA43E
:10307800793390A63EE4F0A37402F01252D190A9DD
:103088007FE0FEA3E02401FFE43E90A97CF0A3EFDB
:10309800F090A465E004F0022E2F90A466E004F0FE
:1030A800022E1A7B017AA4796778507CA97D017E6B
:1030B800007F101233DD90AA2FE0FEA3E0640E4ECD
:1030C80060030232FC90AA2FE0A3E0FF90A97AE007
:1030D800FCA3E06F7002EC6E601EE490A97FF0A381
:1030E800F07B017AA9797F90A63EF0A37402F07F65
:1030F800017EAE1252D180347B017AA9797F90A6E5
:103108003EE4F0A37402F07F017EAE12506490A9F1
:103118007CE0FEA3E0FF90A97FE0FCA3E06F7002D3
:10312800EC6E70030232FC80030232FC90A97FE04F
:10313800FEA3E0FF90A97CEEF0A3EFF0E4A3F090EB
:10314800A97EE0C3940A7480948040030232E2A30B
:10315800E0FEA3E0FF7C007D0A12345B90A97EE0CC
:103168002FFFEC3EFE90A978E0FCA3E0FDC3EF9DA5
:10317800EE9C40030232E290A97FE0FEA3E0FF7CD0
:10318800007D0A12345B90A97EE02FFFEC3EFE9092
:10319800A974E0FCA3E0D39FEC9E403290A97FE0A5
:1031A800FEA3E0FF7C0012345B90A97EE02FFFECC9
:1031B8003EFEEF2401FFE43EFE90A974E0FCA3E08C
:1031C800C39FFFEC9E90A467F0A3EFF0803A90A90C
:1031D8007FE0FEA3E0FF7C007D0A12345B90A97EAD
:1031E800E02FFFEC3EFEEF2401FFE43EFE90A974C1
:1031F800E0FCA3E02400FDEC3402FCC3ED9FFFECEF
:103208009E90A467F0A3EFF090A467E0FEA3E07897
:1032180003C333CE33CED8F92400FFEE3420FEE4C6
:10322800FCFD90A63C12372390A640E4F0A3740856
:10323800F07D007C307F5A1271F47B017AA47933D7
:1032480090A63EE4F0A37410F07F007E3012506424
:103258007B017AA47943C003C002C00190A441E075
:10326800FEA3E07805C333CE33CED8F92453F974DE
:10327800953EFA7B0190A47E12378C90A481E4F0ED
:10328800A37420F0D001D002D00312754290A97E19
:10329800E025E02481F582E434A9F583E0FEA3E08B
:1032A800FF7B017AA4793390A63EE4F0A37430F052
:1032B8001252D190A97EE025E02481F582E434A958
:1032C800F583E0FCA3E0FD90A97EE0FF7B0E12648D
:1032D8009190A97EE004F002314790A97EE0C39462
:1032E8000A74809480500DE0FF1261F890A97EE086
:1032F80004F080E690AA2FE0FEA3E0FF90A97AEE02
:10330800F0A3EFF022E709F608DFFA8046E709F2B2
:1033180008DFFA803E88828C83E709F0A3DFFA8011
:1033280032E309F608DFFA8078E309F208DFFA8069
:103338007088828C83E309F0A3DFFA806489828A2B
:1033480083E0A3F608DFFA805889828A83E0A3F233
:1033580008DFFA804C80D280FA80C680D4806980E9
:10336800F28033801080A680EA809A80A880DA8074
:10337800E280CA803389828A83ECFAE493A3C8C5C1
:1033880082C8CCC583CCF0A3C8C582C8CCC583CCC1
:10339800DFE9DEE7800D89828A83E493A3F608DFFC
:1033A800F9ECFAA9F0EDFB2289828A83ECFAE0A312
:1033B800C8C582C8CCC583CCF0A3C8C582C8CCC553
:1033C80083CCDFEADEE880DB89828A83E493A3F298
:1033D80008DFF980CC88F0EF60010E4E60C388F0FA
:1033E800ED2402B4040050B9F582EB2402B40400C1
:1033F80050AF232345822390335D73BB0106898236
:103408008A83E0225002E722BBFE02E32289828AF5
:1034180083E49322BB010CE58229F582E5833AF522
:1034280083E0225006E92582F8E622BBFE06E9255C
:1034380082F8E222E58229F582E5833AF583E4936E
:1034480022BB010689828A83F0225002F722BBFE42
:1034580001F322EF8DF0A4A8F0CF8CF0A428CE8D34
:10346800F0A42EFE22BC000BBE0029EF8DF084FFD5
:10347800ADF022E4CCF875F008EF2FFFEE33FEEC48
:1034880033FCEE9DEC984005FCEE9DFE0FD5F0E96F
:10349800E4CEFD22EDF8F5F0EE8420D21CFEADF06E
:1034A80075F008EF2FFFED33FD4007985006D5F073
:1034B800F222C398FD0FD5F0EA22C2D5EC30E70915
:1034C800B2D5E4C39DFDE49CFCEE30E715B2D5E42B
:1034D800C39FFFE49EFE12346DC3E49DFDE49CFC93
:1034E800800312346D30D507C3E49FFFE49EFE22AB
:1034F800C5F0F8A3E028F0C5F0F8E582158270025F
:103508001583E038F022A3F8E0C5F025F0F0E58255
:10351800158270021583E0C838F0E822BB010A89D9
:10352800828A83E0F5F0A3E022500687F009E719C4
:1035380022BBFE07E3F5F009E3192289828A83E4B6
:1035480093F5F074019322BB0110E58229F582E519
:10355800833AF583E0F5F0A3E0225009E92582F8E3
:1035680086F008E622BBFE0AE92582F8E2F5F008B3
:10357800E222E5832AF583E993F5F0A3E99322BBD8
:10358800010A89828A83F0E5F0A3F0225006F70940
:10359800A7F01922BBFE06F3E5F009F31922EF2B79
:1035A800FFEE3AFEED39FDEC38FC22E88FF0A4CCB2
:1035B8008BF0A42CFCE98EF0A42CFC8AF0EDA42C52
:1035C800FCEA8EF0A4CDA8F08BF0A42DCC3825F021
:1035D800FDE98FF0A42CCD35F0FCEB8EF0A4FEA90C
:1035E800F0EB8FF0A4CFC5F02ECD39FEE43CFCEA19
:1035F800A42DCE35F0FDE43CFC2275F00875820060
:10360800EF2FFFEE33FECD33CDCC33CCC58233C59F
:10361800829BED9AEC99E58298400CF582EE9BFE30
:10362800ED9AFDEC99FC0FD5F0D6E4CEFBE4CDFA8B
:10363800E4CCF9A88222B800C1B90059BA002DEC2F
:103648008BF084CFCECDFCE5F0CBF97818EF2FFFC7
:10365800EE33FEED33FDEC33FCEB33FB10D703996F
:103668004004EB99FB0FD8E5E4F9FA227818EF2F1C
:10367800FFEE33FEED33FDEC33FCC933C910D7053B
:103688009BE99A4007EC9BFCE99AF90FD8E0E4C95A
:10369800FAE4CCFB2275F010EF2FFFEE33FEED338A
:1036A800FDCC33CCC833C810D7079BEC9AE89940B7
:1036B8000AED9BFDEC9AFCE899F80FD5F0DAE4CD19
:1036C800FBE4CCFAE4C8F922EB9FF5F0EA9E42F05D
:1036D800E99D42F0EC6480C864809845F022EB9F35
:1036E800F5F0EA9E42F0E99D42F0E89C45F022E8B8
:1036F8006010ECA2E713FCED13FDEE13FEEF13FFD1
:10370800D8F022E0FCA3E0FDA3E0FEA3E0FF22E066
:10371800F8A3E0F9A3E0FAA3E0FB22ECF0A3EDF0B4
:10372800A3EEF0A3EFF022A8828583F0D083D082A5
:10373800123746123746123746123746E473E49377
:10374800A3C583C5F0C583C8C582C8F0A3C583C512
:10375800F0C583C8C582C822A42582F582E5F03564
:1037680083F58322E0FBA3E0FAA3E0F922F8E0FB6B
:10377800A3A3E0F925F0F0E582158270021583E035
:10378800FA38F022EBF0A3EAF0A3E9F022D083D0D4
:1037980082F8E4937012740193700DA3A393F874E4
:1037A8000193F5828883E4737402936860EFA3A39E
:1037B800A380DFD083D082F8E493701274019370F1
:1037C8000DA3A393F8740193F5828883E4737402BC
:1037D80093B5F0067403936860E9A3A3A3A380D804
:1037E800E3F5F009E208B5F06BDFF58067E3F5F083
:1037F80009E608B5F05EDFF5805A87F009E608B5F6
:10380800F052DFF6804E87F009E208B5F046DFF6A1
:10381800804288828C8387F009E0A3B5F036DFF612
:10382800803288828C8387F009E493A3B5F025DF82
:10383800F5802188828C83E3F5F009E0A3B5F014C4
:10384800DFF5801088828C83E3F5F009E493A3B553
:10385800F002DFF4023917808780E9809080D480F5
:103868003E8015806E807E809D80B7808D80A3808D
:10387800518074803C02392389828A83ECFAE4936C
:10388800F5F0A3C8C582C8CCC583CCE493A3C8C54A
:1038980082C8CCC583CCB5F076DFE3DEE1807089E1
:1038A800828A83E493F5F0A3E208B5F062DFF4803E
:1038B8005E89828A83E0F5F0A3E608B5F051DFF56A
:1038C800804D89828A83E0F5F0A3E208B5F040DFF5
:1038D800F5803C89828A83E493F5F0A3E608B5F085
:1038E8002EDFF4802A8002805789828A83ECFAE4EA
:1038F80093F5F0A3C8C582C8CCC583CCE0A3C8C5DE
:1039080082C8CCC583CCB5F006DFE4DEE280007F58
:10391800FFB5F0020F2240027F012289828A83ECE0
:10392800FAE0F5F0A3C8C582C8CCC583CCE0A3C82B
:10393800C582C8CCC583CCB5F0D5DFE5DEE380CF42
:1039480089828A83ECFAE0F5F0A3C8C582C8CCC5A1
:1039580083CCE493A3C8C582C8CCC583CCB5F0AFEB
:10396800DFE4DEE280A988F0EF60010E4E60ABED87
:103978002402B404005098F582EB2402B4040050E9
:103988008E232345822390385F73EF4E6012EF60D9
:10399800010EEDBB010B89828A83F0A3DFFCDEFAFE
:1039A8002289F05007F709DFFCA9F022BBFEFCF3DF
:1039B80009DFFCA9F022F8BB010DE58229F582E5B3
:1039C800833AF583E8F0225006E92582C8F622BB3F
:1039D800FE05E92582C8F2227BFF7A807944786E59
:1039E8007CA47D017E007F3E1233DD7BFF7A8079E7
:1039F8008278AD7CA47D017E007F241233DD7B01BB
:103A08007AA4796E90A63EE4F0A3743EF07F207EFF
:103A1800AB125064E490A4ACF090A4ACE0C3941052
:103A2800748094804003023C81E0FF7E007401A80A
:103A380007088005C333CE33CED8F9FF90A474E0CD
:103A4800FCA3E0FDEE5CFEEF5D4E7003023C65906A
:103A5800A4ACE0FF7E007401A807088005C333CE3C
:103A680033CED8F9FF90A478E0FCA3E0FDEE5CFE2D
:103A7800EF5D4E7003023C1290A4ACE0FF131354A8
:103A88003F2407FFE43390A4D3F0A3EFF090A4D32E
:103A9800E0FEA3E025E0FFEE33FE746E2FF582749E
:103AA800A43EF583E0FEA3E0FF90A4ACE054032518
:103AB800E025E0FDEFA805088005CEC313CE13D896
:103AC800F9540FFF90A4D1E4F0A3EFF090A4D1E053
:103AD800FEA3E08EF01237BB3B0400003B1C000144
:103AE8003B3400023B4C00043B6300053B7A000674
:103AF8003B9100083BA8000900003BBF90A4ACE044
:103B080025E024ADF582E434A4F583E4F0A374053C
:103B1800F0023BD490A4ACE025E024ADF582E43477
:103B2800A4F583E4F0A37406F0023BD490A4ACE0BF
:103B380025E024ADF582E434A4F583E4F0A374070A
:103B4800F0023BD490A4ACE025E024ADF582E43447
:103B5800A4F583E4F0A37408F0807190A4ACE02588
:103B6800E024ADF582E434A4F583E4F0A37409F00D
:103B7800805A90A4ACE025E024ADF582E434A4F5A5
:103B880083E4F0A3740AF0804390A4ACE025E02419
:103B9800ADF582E434A4F583E4F0A37403F0802C3B
:103BA80090A4ACE025E024ADF582E434A4F583E4E8
:103BB800F0A37404F0801590A4ACE025E024ADF5E2
:103BC80082E434A4F583E4F0A37405F090A4ACE097
:103BD800FF7E007401A807088005C333CE33CED812
:103BE800F9FF90A470E0FCA3E0FDEE5CFEEF5D4EF3
:103BF800607E90A4ACE025E024ADF582E434A4F521
:103C080083E475F0081234F8806690A4ACE0FF7E77
:103C1800007401A807088005C333CE33CED8F9FF56
:103C280090A470E0FCA3E0FDEE5CFEEF5D4E601733
:103C380090A4ACE025E024ADF582E434A4F583E457
:103C4800F0A37402F0802990A4ACE025E024ADF53F
:103C580082E434A4F583E4F0A304F0801390A4ACC8
:103C6800E025E024ADF582E434A4F583E4F0A3F084
:103C780090A4ACE004F0023A2190A4AC7410F09047
:103C8800A4ACE0C39412748094804003023EF2E036
:103C980024F0FF7E007401A807088005C333CE33E3
:103CA800CED8F9FF90A476E0FCA3E0FDEE5CFEEF31
:103CB8005D4E7003023ED690A4ACE024F0FF7E0077
:103CC8007401A807088005C333CE33CED8F9FF9016
:103CD800A47AE0FCA3E0FDEE5CFEEF5D4E7003020B
:103CE8003E8190A4ACE0FF1313543F2407FFE43354
:103CF80090A4D3F0A3EFF090A4D3E0FEA3E025E0D6
:103D0800FFEE33FE746E2FF58274A43EF583E0FE59
:103D1800A3E0FF90A4ACE0540325E025E0FDEFA864
:103D280005088005CEC313CE13D8F9540FFF90A40D
:103D3800D1E4F0A3EFF090A4D1E0FEA3E08EF0125E
:103D480037BB3D6E00003D8600013D9E00023DB63A
:103D580000043DCD00053DE400063DFB00083E1291
:103D6800000900003E2990A4ACE025E024ADF582CE
:103D7800E434A4F583E4F0A37405F0023E3E90A475
:103D8800ACE025E024ADF582E434A4F583E4F0A3A7
:103D98007406F0023E3E90A4ACE025E024ADF58226
:103DA800E434A4F583E4F0A37407F0023E3E90A443
:103DB800ACE025E024ADF582E434A4F583E4F0A377
:103DC8007408F0807190A4ACE025E024ADF582E49D
:103DD80034A4F583E4F0A37409F0805A90A4ACE00D
:103DE80025E024ADF582E434A4F583E4F0A3740A55
:103DF800F0804390A4ACE025E024ADF582E434A43F
:103E0800F583E4F0A37403F0802C90A4ACE025E0E3
:103E180024ADF582E434A4F583E4F0A37404F080BF
:103E28001590A4ACE025E024ADF582E434A4F58334
:103E3800E4F0A37405F090A4ACE024F0FF7E0074D5
:103E480001A807088005C333CE33CED8F9FF90A464
:103E580072E0FCA3E0FDEE5CFEEF5D4E7003023EF7
:103E6800E990A4ACE025E024ADF582E434A4F58320
:103E7800E475F0081234F8806890A4ACE024F0FFF0
:103E88007E007401A807088005C333CE33CED8F965
:103E9800FF90A472E0FCA3E0FDEE5CFEEF5D4E60D7
:103EA8001790A4ACE025E024ADF582E434A4F583B2
:103EB800E4F0A37402F0802990A4ACE025E024ADDE
:103EC800F582E434A4F583E4F0A304F0801390A40D
:103ED800ACE025E024ADF582E434A4F583E4F0A356
:103EE800F090A4ACE004F0023C877B017AA479ADA1
:103EF80090A63EE4F0A37424F07FA07EAB1252D1CA
:103F080022E51330E0167B017AAA792F90A63EE4C9
:103F1800F0A37402F07F147E00125064E51320E2CF
:103F2800030243AE90AA2FE0FEA3E04E702690AAAB
:103F380028E0C39406748094805005E004F080144F
:103F480090AA28E06406700C7F39FE1279C190AA05
:103F580028E004F090AA2FE0FEA3E0640B4E700363
:103F68001239E090AA2FE0FEA3E064294E60030214
:103F7800404C7B017AA4793690A63EF0A3741CF0DD
:103F88007FB07EC9125064E490A433F090A433E06B
:103F9800C39407748094804003024036E025E025EE
:103FA800E02436F582E434A4F583E0FEA3E0C4F807
:103FB800540FC868FDEEC454F048FC90A433E025C3
:103FC800E025E02438F582E434A4F583E0FEA3E09C
:103FD800EEC4540F2DFFE43C90A434F0A3EFF0900E
:103FE800A434E0FEA3E0FF7C007D1812346D90A499
:103FF80033E025E02452F582E434A4F583EEF0A3FF
:10400800EFF090A434E0FEA3E0FF7C007D181234AA
:104018006D90A433E025E02460F582E434A4F583B0
:10402800ECF0A3EDF090A433E004F0023F947B01A0
:104038007AA4795290A63EE4F0A3741CF07F207E07
:10404800C91252D190AA2FE0FEA3E0642C4E60035F
:1040580002412C7B017AA4794390A63EF0A3740612
:10406800F07FA07ECC12506490A443E0FEA3E0FF52
:10407800EEC4F854F0C868FEEFC4540F4890A43357
:10408800EEF0A3E4F090A433E0FCA3E0FD90A44399
:10409800E0FEA3E07807CEC313CE13D8F9541FFF70
:1040A800ECFEED4FFF90A433EEF0A3EFF090A443A5
:1040B800E0A3E0547F90A435F0A3E4F090A435E0A9
:1040C800FCA3E0FD90A447E0FEA3E0EEFFECFEEDCC
:1040D8004FFF90A435EEF0A3EFF090A447E0A3E0E3
:1040E80090A437F0A3E4F090A445E0FEA3E0FF908D
:1040F800A439EEF0A3EFF0A37402F0A304F0A374C4
:1041080007F0A37402F0A3F0A3E4F0A3F0A3F07BFC
:10411800017AA4793390A63EF0A37410F07F207E34
:10412800CC1252D190AA2FE0FEA3E0642F4E600378
:1041380002420D7B017AA4793390A63EF0A3740263
:10414800F07F107ECF1250647B017AA4793790A655
:104158003EE4F0A37402F07F227ECF12506490A454
:1041680033E0FEA3E0FF90AA29E0FCA3E06F700211
:10417800EC6E606090A433E0A3E090AA29EEF0A36F
:10418800EFF090A437E0FEA3E0543FFF90A437EE91
:10419800F0A3EFF090A437E0FCA3E0FD90A433E097
:1041A800A3E07E0054037806C333CE33CED8F9FF9C
:1041B800EC4EFEED4FFF90A437EEF0A3EFF07B013D
:1041C8007AA4793790A63EE4F0A37402F07F227EA9
:1041D800CF1252D190A437E0FEA3E07806CEC313E5
:1041E800CE13D8F95403FF90A439E4F0A3EFF07B81
:1041F800017AA4793990A63EE4F0A37402F07F1105
:104208007ECF1252D190AA2FE0FEA3E064414E70F7
:10421800287B017AA4793390A63EF0A37402F07F3C
:10422800207EE112506490A433E0FEA3E064A54E22
:1042380060077F397E001279C190AA2FE0FEA3E0C3
:1042480064274E705690AA2BE0C39405748094801E
:10425800504290A433E4F0A304F0FB7AA47933909D
:10426800A63EE4F0A37402F07F277EA01252D190FC
:10427800A433E4F0A3745AF07B017AA4793390A6AE
:104288003EE4F0A37402F07F877EA01252D190AA78
:104298002BE004F0E490AA2CF0807290AA2CE0C3E2
:1042A8009405748094805060E490A433F0A3F07B6C
:1042B800017AA4793390A63EF0A37402F07F297E98
:1042C800C712506490A433E0FEA3E04E70347B0123
:1042D8007AA4793390A63EF0A37402F07F277EA0DB
:1042E8001252D190A433E4F0A3745AF07B017AA45B
:1042F800793390A63EE4F0A37402F07F877EA01283
:1043080052D190AA2CE004F0E490AA2BF07B017A19
:10431800A4793390A63EE4F0A37402F07F167E00E1
:1043280012506490A433E0FEA3E04E6024E490A40D
:1043380033F0A3F07B017AA4793390A63EF0A374FE
:1043480002F07F167E001252D1E490AA2DF0A3F05D
:104358002290AA2DE0FEA3E0C39458EE9402501BCD
:10436800A3E0FEA3E064404E70067F39FE1279C1D7
:1043780090AA2DE475F0011234F82290AA2DE0FEDF
:10438800A3E0B45821EEB4021D90AA2DE475F00103
:104398001234F890AA2FE0FEA3E064404E60077F35
:1043A800407E001279C122E51330E10D90AA31E474
:1043B80075F0011234F8126D8F90AA31E0FEA3E077
:1043C800C394B0EE94045003024715E490AA31F068
:1043D800A3F0A3E0FEA3E02400FFEE341090A43382
:1043E800F0A3EFF07B017AA4793590A63EE4F0A320
:1043F8007402F07FA37EA012506490A435E475F097
:10440800C81234F890A433E0FEA3E0FF7B017AA43D
:10441800793590A63EE4F0A37402F01252D190AA26
:1044280033E0FEA3E02400FFEE341890A433F0A399
:10443800EFF07B017AA4793590A63EE4F0A37402EC
:10444800F07FA47EA012506490A433E0FEA3E0FFA6
:104458007B017AA4793590A63EE4F0A37402F012A9
:1044680052D190AA33E0FEA3E0FF90A439EEF0A366
:10447800EFF090AA33E475F0011234F890AA33E013
:10448800FEA3E0C3EE94084007E490AA33F0A3F03B
:104498007B017AAA793390A63EE4F0A37402F07FF8
:1044A800007E031252D17B017AAA793390A63EE4AA
:1044B800F0A37402F0FF7E031252D190A43774085F
:1044C800F0A3E4F07B017AA4793790A63EF0A374B8
:1044D80002F07F087E501252D17B017AA47937907E
:1044E800A63EE4F0A37402F07F097E501252D190E8
:1044F800A4377402F0A3748AF07B017AA479379008
:10450800A63EE4F0A37402F07F117E501252D190BF
:10451800AA33E0A3E030E00302471590AA33E0FE97
:10452800A3E04E700302460790A43974FFF5F01219
:1045380034F890A439E0FEA3E02400FFEE3410FE26
:104548007B017AA4793390A63EE4F0A37404F012B8
:10455800506490A43774A5F0A3745AF07B017AA430
:10456800793390A63EE4F0A37406F07F007E5012E3
:1045780052D190A439E0FEA3E0FFE4FCFD90A63CF4
:1045880012372390A640E4F0A37404F07D007C5019
:104598007FA51271F490A439E0FEA3E02400FFEE99
:1045A8003418FE7B017AA4793390A63EE4F0A37414
:1045B80004F012506490A43774A5F0A3745AF07BE9
:1045C800017AA4793390A63EE4F0A37406F07F0044
:1045D8007E501252D190A439E0FEA3E02400FFEEF1
:1045E8003408FEE4FCFD90A63C12372390A640E474
:1045F800F0A37404F07D007C507FA51271F4229022
:10460800A43974FFF5F01234F890A439E0FEA3E061
:104618002400FFEE3410FE7B017AA4793390A63E85
:10462800E4F0A37404F012506490A43774A5F0A3C6
:10463800745AF07B017AA4793390A63EE4F0A3740F
:1046480006F07F007E501252D190A439E0FEA3E01C
:10465800FFE4FCFD90A63C12372390A640E4F0A3AB
:104668007402F07D007C507FA51271F490A63C1274
:10467800372F0000000090A640E4F0A37402F07DFC
:10468800007C507FA51271F490A439E0FEA3E024C9
:1046980000FFEE3418FE7B017AA4793390A63EE43D
:1046A800F0A37404F012506490A43774A5F0A374B6
:1046B8005AF07B017AA4793390A63EE4F0A37406FD
:1046C800F07F007E501252D190A439E0FEA3E0247E
:1046D80000FFEE3408FEE4FCFD90A63C1237239060
:1046E800A640E4F0A37402F07D007C507FA512710F
:1046F800F490A63C12372F0000080090A640E4F082
:10470800A37402F07D007C507FA51271F42290A45E
:104718003812378C90A43BECF0A3EDF090A43BE06A
:10472800FEA3E0C39405EE94005003024A6BE4A391
:10473800F0A3F090A43812376C90A43DE0FEA3E0FB
:10474800F5828E8312341C64026003024A4590A4E9
:104758003812376C90A43DE0A3E029F9EA3EFA90BC
:10476800000112341C123795477D0348CC06498E48
:104778001000004A4590A43812376C90A43DE0FE22
:10478800A3E029F9EA3EFA90000212341CFF90A433
:1047980041E4F0A3EFF090A43DE0A3E0FF90A44132
:1047A800E0FCA3E02FFFEC3EFEEF2405FFE43EFE15
:1047B80090A43BE0FCA3E0FDD3EF9DEE9C4011905C
:1047C800A43BE0FEA3E0FFA3EEF0A3EFF0024A450E
:1047D80090A43812376C90A43DE0FEA3E029F9EAD2
:1047E8003EFA90A441E0FEA3E02403FDE43EFC125F
:1047F800737A90A43FEEF0A3EFF090A43812376CD0
:1048080090A43DE0FEA3E029F9EA3EFA90A441E035
:10481800FEA3E029F9EA3EFA90000312341CFD9049
:10482800A43FE0FEA3E0EE6D7001E46003024A4598
:1048380090A43812376C90A43DE0FEA3E029F9EA71
:104848003EFA90A441E0FEA3E029F9EA3EFA90007E
:104858000412341CFF90A43FE0A3E06F7001E460F1
:1048680003024A45908529E0FEA3E0FF90A4381290
:10487800376C90A43DE0FCA3E029F9EA3CFAE9246E
:1048880003F9E43AFA90A441E0FCA3E0FD90A63EC7
:10489800ECF0A3EDF01252D17E007F0E7D007B017B
:1048A8007A85792112399290A441E0FEA3E024058B
:1048B800FFE43E90A43DF0A3EFF0908000E04402B6
:1048C800F0024A4590A43DE0FEA3E02408FFE43E40
:1048D800FE90A43BE0FCA3E0FDD3EF9DEE9C4011CD
:1048E80090A43BE0FEA3E0FFA3EEF0A3EFF0024AA2
:1048F8004590A43812376C90A43DE0FEA3E029F956
:10490800EA3EFA7D067C0012737A90A43FEEF0A38B
:10491800EFF090A43812376C90A43DE0FEA3E02994
:10492800F9EA3EFA90000612341CFD90A43FE0FE1E
:10493800A3E0EE6D7001E46003024A4590A43812CA
:10494800376C90A43DE0FEA3E029F9EA3EFA900016
:104958000712341CFF90A43FE0A3E06F7001E460ED
:1049680003024A4590A43D75F0081234F87E007F92
:104978000E7D007B017A857921123992908000E0C2
:104988004402F0024A4590A43DE0FEA3E02408FF5B
:10499800E43EFE90A43BE0FCA3E0FDD3EF9DEE9C3B
:1049A800401190A43BE0FEA3E0FFA3EEF0A3EFF0DC
:1049B800024A4590A43812376C90A43DE0FEA3E06B
:1049C80029F9EA3EFA7D067C0012737A90A43FEE3C
:1049D800F0A3EFF090A43812376C90A43DE0FEA34A
:1049E800E029F9EA3EFA90000612341CFD90A43F33
:1049F800E0FEA3E0EE6D7001E4704290A438123737
:104A08006C90A43DE0FEA3E029F9EA3EFA90000785
:104A180012341CFF90A43FE0A3E0B50720E490A463
:104A28003D75F0081234F87E007F0E7D007B017A18
:104A3800857921123992908000E04402F090A43DDB
:104A4800E475F0011234F890A43BE0FEA3E024FBE7
:104A5800FFEE34FFFEA3E0FCA3E0C39FEC9E5003EF
:104A680002473B2290A43812378C90A43812376C36
:104A7800123524FF90A43BE5F0F0A3EFF090A43B9F
:104A8800E0FEA3E0C3941DEE94014003024D8C9018
:104A9800A43BE0A3E090852F75F00E123760EE7509
:104AA800F00EA42583F583E0645A6003024D7F90DD
:104AB800A43BE0A3E090853275F00E123760EE75E6
:104AC800F00EA42583F583E07003024D7F90A43B8C
:104AD800E0A3E090853475F00E123760EE75F00EA5
:104AE800A42583F583E07003024D8C90A43BE0A3DA
:104AF800E090853475F00E123760EE75F00EA4253F
:104B080083F583E06401703490A43BE0A3E09085D2
:104B18003575F00E123760EE75F00EA42583F58317
:104B2800E0FEA3E0FF90AA2FE0FCA3E06F7002EC88
:104B38006E6003024D7F024D8C024D7F90A43BE0D6
:104B4800FEA3E090853475F00E123760EE75F00E16
:104B5800A42583F583E064026003024C4B90A43BD8
:104B6800E0A3E090853575F00E123760EE75F00E13
:104B7800A42583F583E0FEA3E0FF7B017AA4793DB9
:104B880090A63EE4F0A37402F012506490A43DE0B5
:104B9800A3E0645A6003024D7F90A43BE0FEA3E0CB
:104BA800C3941CEE9401506190A43BE0A3E090856F
:104BB8004275F00E123760EE75F00EA42583F5836A
:104BC800E06402704490A43BE0A3E090854375F054
:104BD8000E123760EE75F00EA42583F583E0FEA370
:104BE800E0FF90A43BE0FCA3E090853575F00E1241
:104BF8003760EC75F00EA42583F583E0FCA3E06F25
:104C08007002EC6E7003024D8CE490A43DF0A3F0AA
:104C180090A43BE0FEA3E090853575F00E12376056
:104C2800EE75F00EA42583F583E0FEA3E0FF7B017B
:104C38007AA4793D90A63EE4F0A37402F01252D112
:104C4800024D8C90A43BE0FEA3E090853475F00EF5
:104C5800123760EE75F00EA42583F583E0640360D7
:104C680003024D7F90A43BE0A3E090853B75F00ED6
:104C7800123760EE75F00EA42583F583E0FEA3E0FD
:104C8800FF90AA2FE0FCA3E0FDEF6D7002EE6C60D0
:104C980003024D7F90A43BE0FEA3E090853575F0BC
:104CA8000E123760EE75F00EA42583F583E0FEA39F
:104CB800E0FF7B017AA4793D90A63EE4F0A374025C
:104CC800F012506490A43DE0A3E0645A6003024DE2
:104CD8007F90A43BE0FEA3E0C3941CEE9401505ED9
:104CE80090A43BE0A3E090854275F00E123760EE89
:104CF80075F00EA42583F583E06403704190A43B0E
:104D0800E0A3E090854375F00E123760EE75F00E63
:104D1800A42583F583E0FEA3E0FF90A43BE0FCA379
:104D2800E090853575F00E123760EC75F00EA4250D
:104D380083F583E0FCA3E06F7002EC6E6046E490BC
:104D4800A43DF0A3F090A43BE0FEA3E09085357568
:104D5800F00E123760EE75F00EA42583F583E0FEA1
:104D6800A3E0FF7B017AA4793D90A63EE4F0A3740A
:104D780002F01252D1800D90A43BE475F001123478
:104D8800F8024A8590A43BE0FEA3E0FF90A4381205
:104D9800376CEE8FF01235872290A44212378C9030
:104DA800A445ECF0A3EDF07BFF7A8079B278477CDC
:104DB800A47D017E007F181233DD90A44212376C67
:104DC80090000A12354F246CFFE5F0340790A47365
:104DD800F0A3EFF090A473E0FEA3E0FF7C007D64F5
:104DE8001234C2ED4C601390A473E0FEA3E0FF7C84
:104DF800007D041234C2ED4C601390A473E0FEA34E
:104E0800E0FF7C017D901234C2ED4C70067E007F7D
:104E18000180047E007F0090A46FEEF0A3EFF09075
:104E2800A44212376C90000A12354F24BAFFE5F0FD
:104E380034FFFE3395E0FDFC90A45F12372390A465
:104E48004212376C90000812354FC39401E5F064A4
:104E5800809480504090A46FE0FEA3E064014E70FF
:104E68003490A45F12370BEF2402FFE43EFEE43DCA
:104E7800FDE43CFCE47B04FAF9F8127A4FEF24FFD6
:104E8800FFEE34FFFEED34FFFDEC34FFFC90A46729
:104E9800123723802290A45F12370BEF2402FFE41D
:104EA8003EFEE43DFDE43CFCE47B04FAF9F8127AAA
:104EB8004F90A46712372390A46312372F00000085
:104EC80000E490A471F0A3F090A44212376C900013
:104ED8000812354FFF90A471E0FCA3E0C39FE5F0F2
:104EE8006480F8EC648098504890A46312370BC033
:104EF80006C00790A471E0FEA3E025E0FFEE33FEB4
:104F080074472FF58274A43EF583E0FEA3E0FFFB0F
:104F1800AA06EA3395E0F9F8D007D0061235A6902C
:104F2800A46312372390A471E475F0011234F88059
:104F38009790A46312370BC006C00790A44212379B
:104F48006C90000612354F24FFFFE5F034FFFEABEE
:104F580007FA3395E0F9F8D007D0061235A690A4E1
:104F68006312372390A46312370BC004C005C00630
:104F7800C007E47F6D7E01FDFC90A45F1237171215
:104F880035B390A4671237171235A6A804A905AA45
:104F980006AB07D007D006D005D0041235A690A4DA
:104FA8006312372390A44212376C90000412354FD5
:104FB800FF90A445E0FCA3E0FDC3EF9DFFE5F09C56
:104FC800FE3395E0FDFC90A46B123723E47F107E3E
:104FD8000EFDFC90A46B1237171235B3C004C00540
:104FE800C006C0077F807E517D017C0090A46312BB
:104FF80037171235B3A804A905AA06AB07D007D0FE
:1050080006D005D0041235A6C004C005C006C007E6
:1050180090A44212376C90000212354FFFAEF07C1C
:10502800007D3C12345BAB07AA06EA3395E0F9F839
:10503800D007D006D005D0041235A6C006C0079008
:10504800A44212376C123524FFAEF0FBAA06EA33ED
:1050580095E0F9F8D007D0061235A62290A639EEC9
:10506800F0A3EFF0A312378C7B007A007900C0031D
:10507800C002C00190A63B12376CD082D083D0E02A
:105088006B7008E965827003EA658370030252D089
:1050980090A63EE0FEA3E04E70030252D090A63EDA
:1050A800E0A3E0FFEEC313FEEF13FF90A639E0FC88
:1050B800A3E02FFFEE3CFED3EF94FEEE94FF4003F7
:1050C8000252D0C2AF90A639E0A3E0540190A640A6
:1050D800F090A639E0FEA3E0FFEEC313FEEF13FF46
:1050E80090A639EEF0A3EFF090A639E0FEA3E078A1
:1050F80010CEC313CE13D8F9F5F190A639E0FEA36C
:10510800E0EEF5F290A639E0A3E0F5F3E4F5F875E2
:10511800F401D2FF30FCFDD2FD90A640E06401709E
:105128007290A63EE0FEA3E064014E700AC2FBC284
:10513800FAD2F9C2F88008C2FBC2FAD2F9D2F8D280
:10514800FE20FEFD90A63EE0FEA3E064014E701A2C
:1051580090A63B75F001123775E5FC12344990A60C
:105168003E74FFF5F01234F8802990A63BE475F000
:1051780001123775E5FC12344990A63BE475F0013D
:10518800123775E5FD12344990A63E74FF75F0FE9E
:105198001234F890A63EE0FEA3E04E70030252CB14
:1051A80090A63EE0A3E0C39404EE940040030252AC
:1051B8007490A63EE0A3E08EF01237BB51E80001E0
:1051C80051DE000251D40003000051F0D2FBD2FAA4
:1051D800D2F9C2F88012D2FBD2FAC2F9C2F880081A
:1051E800D2FBC2FAC2F9C2F8D2FE20FEFD90A63E5A
:1051F800E0FEA3E08EF01237BB526100015241007D
:105208000252110003000052CB90A63BE475F00156
:10521800123775E5FA12344990A63BE475F001128D
:105228003775E5FB12344990A63BE475F001123757
:1052380075E5FC1234490252CB90A63BE475F001A7
:10524800123775E5FA12344990A63BE475F001125D
:105258003775E5FB123449806A90A63BE475F00186
:10526800123775E5FA12344980598057D2FBD2FAC1
:10527800D2F9D2F8D2FE20FEFD90A63BE475F001EB
:10528800123775E5FA12344990A63BE475F001121D
:105298003775E5FB12344990A63BE475F0011237E7
:1052A80075E5FC12344990A63BE475F00112377598
:1052B800E5FD12344990A63E74FF75F0FC1234F8EF
:1052C80002519BE4F5F8D2AF2290A639EEF0A3EF95
:1052D800F0A312378C7B007A007900C003C002C0AB
:1052E8000190A63B12376CD082D083D0E06B700857
:1052F800E965827003EA6583700302553C90A63E17
:10530800E0FEA3E04E700302553C90A63EE0A3E009
:10531800FFEEC313FEEF13FF90A639E0FCA3E02FC6
:10532800FFEE3CFED3EF94FEEE94FF400302553CA3
:10533800C2AF90A639E0A3E0540190A640F090A631
:1053480039E0FEA3E0FFEEC313FEEF13FF90A6398A
:10535800EEF0A3EFF090A639E0FEA3E07810CEC3FC
:1053680013CE13D8F9F5F190A639E0FEA3E0EEF5D7
:10537800F290A639E0A3E0F5F3E4F5F875F401D26C
:10538800FF30FCFDC2FD90A640E06401707290A65B
:105398003EE0FEA3E064014E700AC2FBC2FAD2F9F5
:1053A800C2F88008C2FBC2FAD2F9D2F890A63EE051
:1053B800FEA3E064014E701A90A63B75F001123707
:1053C80075123403F5FC90A63E74FFF5F01234F81C
:1053D800802990A63BE475F001123775123403F565
:1053E800FC90A63BE475F001123775123403F5FD05
:1053F80090A63E74FF75F0FE1234F8D2FE20FEFD32
:1054080090A63EE0FEA3E04E700302553790A63EFC
:10541800E0A3E0C39404EE940040030254E090A695
:105428003EE0A3E08EF01237BB54550001544B0008
:1054380002544100030000545DD2FBD2FAD2F9C2F3
:10544800F88012D2FBD2FAC2F9C2F88008D2FBC2A5
:10545800FAC2F9C2F890A63EE0FEA3E08EF0123739
:10546800BB54C8000154A80002547900030000543A
:10547800D790A63BE475F001123775123403F5FA9C
:1054880090A63BE475F001123775123403F5FB90D2
:10549800A63BE475F001123775123403F5FC802F32
:1054A80090A63BE475F001123775123403F5FA90B3
:1054B800A63BE475F001123775123403F5FB800F33
:1054C80090A63BE475F001123775123403F5FAD251
:1054D800FE30FE5B80FB8057D2FBD2FAD2F9D2F8BD
:1054E80090A63BE475F001123775123403F5FA9073
:1054F800A63BE475F001123775123403F5FB90A64C
:105508003BE475F001123775123403F5FC90A63BA5
:10551800E475F001123775123403F5FDD2FE20FE52
:10552800FD90A63E74FF75F0FC1234F8025408E4AE
:10553800F5F8D2AF227BFF7A7D79C078337CA47DE1
:10554800017E027F001233DD90A63C12372F000047
:10555800000090A6407410F0A3E4F0FD7C107F5A80
:105568001271F490A6337410F0A3E4F090A633E01F
:10557800FEA3E0C3EE9418506990A633E0A3E0FFC1
:105588007B017AA4793390A63E7402F0A3E4F0126A
:105598005064E490A635F0A3F090A635E0FEA3E0B1
:1055A800C3EE9401502F90A635E0A3E025E0FFEE6E
:1055B80033FE74332FF58274A43EF583E0FEA3E036
:1055C800645A7003EE64A5601990A635E475F0017D
:1055D8001234F880C490A633740175F0001234F8C0
:1055E800808A90A635E0FEA3E0FF90A633E0FCA3F6
:1055F800E02FFFEC3E90A637F0A3EFF090A637E03F
:10560800FEA3E0C3EE9418400990A6377410F0A3E7
:10561800E4F090A63774F075F0001234F890A637CD
:10562800E0FEA3E0FF90AA33EEF0A3EFF090AA33D8
:10563800E0FEA3E02400FFEE341090A433F0A3EFC3
:10564800F0A37401F0A374B2F0A37401F0A374B2D0
:10565800F090A433E0FEA3E0FF7B017AA4793590B3
:10566800A63EE4F0A37404F01252D190AA33E0FEEF
:10567800A3E02400FFEE341890A433F0A3EFF0A3C6
:105688007402F0A37437F0A37402F0A37437F09097
:10569800A433E0FEA3E0FF7B017AA4793590A63E0F
:1056A800E4F0A37404F01252D17B017AA679379002
:1056B800A63EE4F0A37402F07F007E031252D17B71
:1056C800017AA6793790A63EE4F0A37402F0FF7E33
:1056D800031252D17B017AA6793790A63EE4F0A353
:1056E8007402F07F087E501252D17B017AA6793776
:1056F80090A63EE4F0A37402F07F097E501252D1C6
:1057080090A4337408F0A3E4F07B017AA479339071
:10571800A63EF0A37402F07F017E031252D17B01F2
:105728007AA4793390A63EE4F0A37402F004FFFE55
:105738001252D190A433E4F0A37406F0A3E4F0A3CA
:1057480004F0A3E4F0A3742EF0A37401F0A3744C46
:10575800F0A37401F0A37471F0A37401F0A374773B
:10576800F0A37401F0A3748AF0A37402F0A3748AFE
:10577800F0A37401F0A37471F0A374FFF0A3E4F034
:105788007B017AA4793390A63EF0A37414F07F0AC3
:105798007E501252D1227BFF7A7F79C078337CA465
:1057A8007D017E007F201233DD7B017AA47933905E
:1057B800A45512378C90A45812378CE490A453F057
:1057C800A3F090A453E0FEA3E0C3EE9402400302CA
:1057D800586790A453E0A3E07803C333CE33CED800
:1057E800F92400FFEE3420FEE4FCFD90A63C1237BD
:1057F8002390A640E4F0A37408F07D007C307F5A23
:105808001271F47B017AA4793390A63EE4F0A37474
:1058180010F07F007E3012506490A45512376C123D
:105828003524645A7004E5F064A5602690A45812E3
:10583800376C123524B4A527E5F0B45A2290A45841
:1058480012376C78727CA97D017E007F081233DDE7
:10585800800D90A453E475F0011234F80257CAE49D
:1058680090A453F0A3F090A453E0FEA3E0C3940ADD
:10587800EE940040030259F97BFF7A7F79E0785B68
:105888007CA47D017E007F201233DD7B017AA9791B
:105898001A785B7CA47D017E007F1A1233DD90A408
:1058A80053E0FEA3E0FF7C007D1B12345BEF246411
:1058B800FFE43E90A45FF0A3EFF090A4647401F0BD
:1058C80090A453E0FEA3E090A99575F00612376006
:1058D800EE75F006A42583F583E0FEA3E0FF7B01C7
:1058E8007AA4795B90A63EE4F0A37420F01252D11A
:1058F8007B017AA97934785B7CA47D017E007F1ACC
:105908001233DD90A453E0FEA3E0FF7C007D1B1260
:10591800345BEF2464FFE43E90A45FF0A3EFF090C3
:10592800A4647401F090A453E0FEA3E090A99775D5
:10593800F006123760EE75F006A42583F583E0FEC5
:10594800A3E0FF7B017AA4795B90A63EE4F0A37400
:1059580020F01252D17B017AA979D1785B7CA47DA1
:10596800017E007F1A1233DD90A453E0FEA3E0FF0E
:105978007C007D1B12345BEF2464FFE43E90A45F3F
:10598800F0A3EFF090A453E0FEA3E0FF12345BEF26
:105998002464FFE43E90A465F0A3EFF090A453E0E4
:1059A800FEA3E0FF12345BEF247DFFE43E90A46980
:1059B800F0A3EFF090A453E0FEA3E090A99975F04E
:1059C80006123760EE75F006A42583F583E0FEA382
:1059D800E0FF7B017AA4795B90A63EE4F0A37420F3
:1059E800F01252D190A453E475F0011234F8025821
:1059F8006E22E490A433F0A3F0E51320E003025CE8
:105A0800527B017AA4793390A63EE4F0A37402F0A5
:105A18007F147E5012506490A433E0FEA3E04E70D1
:105A280003025C5290A433E0A3E08EF01237BB5B14
:105A3800BBA0005BC0A0265BC5A0275BC5A0285BF8
:105A4800D2A4005BD7A4015BDCA4A05BDCA4A15BAF
:105A5800DCA4A25BDCA4A35BDCA4A45BDCA4A55B44
:105A6800DCA4A65BDCA4A75BDCA4A85BDCA4A95B24
:105A7800DCA4AA5BDCA4AB5BDCA4AC5BDCA4AD5B04
:105A8800DCA4AE5BDCA4AF5BDCA4B05BDCA4B15BE4
:105A9800DCA4B25BDCA4B35BDCA4B45BDCA4B55BC4
:105AA800DCA4B65BDCA4B75BDCA4B85BDCA4B95BA4
:105AB800DCA4BA5BDCA4BB5BDCA4BC5BDCA4BD5B84
:105AC800DCA4BE5BDCA4BF5BDCA4C05BDCA4C15B64
:105AD800DCA4C25BDCA4C35BDCA4C45BDCA4C55B44
