:100000000256F7020006C2AFD2AF32024CA2C2AF14
:10001000D2AF3202000E909F6EE0FEA3E0FF125FAF
:10002000872232025BB612002E223202006675F978
:1000300001E4F5A8F5B8F59AF5A9F5B9F580F590BC
:10004000F5A0F5B075B750F5BCF5BDF5BE2212624E
:0A00500016222202002253BEF722FE
:07005B0002591E43BE0822FA
:0600630002002AC2C632B1
:10006B00025994C2AF12002612629F12004E126305
:07007B002443C902D2AF22A9
:1000830002579812006E12557D126316123FAF127B
:1000930038BD1254B4E50A30E01C430F01E50A30C1
:1000A300E103430F02E50A30E203430F04530AFE60
:1000B300530AFD530AFB43C901C3E50994F4E50858
:1000C3009401400B124A32E4F508F509124DD0129F
:1000D300437E122E51123B19121DD812419A1262FD
:1000E300F9E50F30E0AF530FFE530FFD530FFB80C5
:0200F300A42245
:1000F800FFFF4457494E543542A03B000041A0370A
:100108000041A0380042A039000042A03F00004250
:10011800A03D00005A9EAB3FC900690064000086FC
:10012800000A2D2D203A3A000000000000000000CF
:10013800005A9EC53FCC01270064000086000A2DA6
:100148002D2F3A3A000000000000000000005A9FDE
:10015800513FD001E50064000001E5006402AD00F4
:100168007D00100017181802000000603C9F154021
:100178000040A04140401040B04150402040C041A4
:1001880060403040D04170404040E04180405040A5
:10019800F041904060410041A04070411041B040A2
:1001A80080412041C04090413041D0549F0141E0FE
:1001B80041F842104228424042584270428842A0C8
:1001C80042B8489EF20000000000000000429EFA7B
:1001D8000000429EFF0000429EFC0000419EFE007F
:1001E800419EF100429EDF0005498000B2E2CAD478
:1001F800BABAD7D6006E60800949443030BBD8B748
:10020800E7B8DFCEC20000000000000000000000D8
:1002180000000000000000000049443031BBD8B79E
:10022800E7B5CDCEC20000000000000000000000CD
:1002380000000000000000000049443032BBD8B77D
:10024800E7B8DFCAAA0000000000000000000000B4
:1002580000000000000000000049443033BBD8B75C
:10026800E7B8DFCAAA000000000000000000000094
:1002780000000000000000000049443034CBCDB736
:10028800E7B8DFCEC2000000000000000000000058
:1002980000000000000000000049443035CBCDB715
:1002A800E7B5CDCEC200000000000000000000004D
:1002B80000000000000000000049443036CBCDB7F4
:1002C800E7B8DFCAAA000000000000000000000034
:1002D80000000000000000000049443037CBCDB7D3
:1002E800E7B5CDCAAA000000000000000000000029
:1002F80000000000000000000049443038B1A3C1EC
:10030800F4000000000000000000000000000000F1
:1003180000000000000000000049443039C4DAB28F
:10032800BFCDA8D0C50000000000000000000000FC
:10033800000000000000000000494431304E5443E2
:10034800D2ECB3A300000000000000000000000091
:1003580000000000000000000049443131B7E7BB4D
:10036800FA31B9CAD5CF0000000000000000000033
:1003780000000000000000000049443132B7E7BB2C
:10038800FA32B9CAD5CF0000000000000000000012
:1003980000000000000000000049443133B7E7BB0B
:1003A800FA33B9CAD5CF00000000000000000000F1
:1003B80000000000000000000049443134B7E7BBEA
:1003C800FA34B9CAD5CF00000000000000000000D0
:1003D80000000000000000000049443135B7E7BBC9
:1003E800FA35B9CAD5CF00000000000000000000AF
:1003F80000000000000000000049443136CDE2B79B
:10040800E7BBFAB9CAD5CF00000000000000000021
:1004180000000000000000000049443137B7E7BB86
:10042800FA31D4CBD0D0B3ACCAB100000000000080
:1004380000000000000000000049443138B7E7BB65
:10044800FA32D4CBD0D0B3ACCAB10000000000005F
:1004580000000000000000000049443139B7E7BB44
:10046800FA33D4CBD0D0B3ACCAB10000000000003E
:1004780000000000000000000049443230B7E7BB2C
:10048800FA34D4CBD0D0B3ACCAB10000000000001D
:1004980000000000000000000049443231B7E7BB0B
:1004A800FA35D4CBD0D0B3ACCAB1000000000000FC
:1004B80000000000000000000049443232CDE2B7DD
:1004C800E7BBFAD4CBD0D0B3ACCAB100000000006F
:1004D80000000000000000000049443233B8DFD1BA
:1004E800B931B8E6BEAF000000000000000000000F
:1004F80000000000000000000049443234B8DFD199
:10050800B931CBF8CBC000000000000000000000AB
:1005180000000000000000000049443235B5CDD18C
:10052800B931B8E6BEAF00000000000000000000CE
:1005380000000000000000000049443236B5CDD16B
:10054800B931CBF8CBC0000000000000000000006B
:1005580000000000000000000049443237C5C5C64D
:10056800F8CEC2B6C831B8E6BEAF00000000000041
:1005780000000000000000000049443238C5C5C62C
:10058800F8CEC2B6C831CBF8CBC0000000000000DE
:1005980000000000000000000049443239B6CCD603
:1005A800DCC6DA31B8E6BEAF00000000000000008B
:1005B80000000000000000000049443330D1B9BBFE
:1005C800FA31D4CBD0D0B3ACCAB1000000000000DF
:1005D80000000000000000000049443331B8DFD1BA
:1005E800B932B8E6BEAF000000000000000000000D
:1005F80000000000000000000049443332B8DFD199
:10060800B932CBF8CBC000000000000000000000A9
:1006180000000000000000000049443333B5CDD18C
:10062800B9D1B9C1A6B8E6BEAF000000000000000D
:1006380000000000000000000049443334B5CDD16B
:10064800B932CBF8CBC00000000000000000000069
:1006580000000000000000000049443335C5C5C64D
:10066800F8CEC2B6C832B8E6BEAF0000000000003F
:1006780000000000000000000049443336C5C5C62C
:10068800F8CEC2B6C832CBF8CBC0000000000000DC
:1006980000000000000000000049443337B6CCD603
:1006A800DCC6DA32B8E6BEAF000000000000000089
:1006B80000000000000000000049443338D1B9BBF5
:1006C800FA32D4CBD0D0B3ACCAB1000000000000DD
:1006D80000000000000000000049443339BCD3CAC0
:1006E800AAC6F7B5E7C1F7B9B4F3000000000000E7
:1006F80000000000000000000049443430BCD3CAA8
:10070800AAC6F7B8DFCBAECEBB00000000000000E1
:1007180000000000000000000049443431BCD3CA86
:10072800AAC6F7C8B1CBAE00000000000000000068
:1007380000000000000000000049443432BCD3CA65
:10074800AAC6F7D4CBD0D0B3ACCAB1000000000021
:1007580000000000000000000049443433BCD3C846
:10076800C8C6F7B8E6BEAF000000000000000000F1
:1007780000000000000000000049443434BCD3C825
:10078800C8C6F731B3ACCAB10000000000000000D1
:1007980000000000000000000049443435BCD3C804
:1007A800C8C6F732B3ACCAB10000000000000000B0
:1007B80000000000000000000049443436B6CFB500
:1007C800E7D6D8C6F40000000000000000000000D2
:1007D80000000000000000000049443437B5E7D4A9
:1007E800B4CFE0D0F2B4EDCEF3000000000000007A
:1007F80000000000000000000049443438B5E7D488
:10080800B4C6B5C2CAC6ABB8DF000000000000001D
:1008180000000000000000000049443439B5E7D466
:10082800B4C6B5C2CAC6ABB5CD0000000000000012
:100838000000000000000000004944353041CFE0CE
:10084800B9D1B9000000000000000000000000005D
:100858000000000000000000004944353142CFE0AC
:10086800B9D1B9000000000000000000000000003D
:100878000000000000000000004944353243CFE08A
:10088800B9D1B9000000000000000000000000001D
:100898000000000000000000004944353341CFE06B
:1008A800C7B7D1B900000000000000000000000038
:1008B8000000000000000000004944353442CFE049
:1008C800C7B7D1B900000000000000000000000018
:1008D8000000000000000000004944353543CFE027
:1008E800C7B7D1B9000000000000000000000000F8
:1008F8000000000000000000004944353641CFE008
:10090800C8B1CFE0000000000000000000000000B7
:100918000000000000000000004944353742CFE0E5
:10092800C8B1CFE000000000000000000000000097
:100938000000000000000000004944353843CFE0C3
:10094800C8B1CFE000000000000000000000000077
:1009580000000000000000000049443539C6F8C115
:10096800F7B6AACAA7B8E6BEAF00000000000000AC
:1009780000000000000000000049443630B9C2CB36
:10098800CDF8D4CBD0D0B3ACCAB100000000000081
:1009980000000000000000000049443631B9C2CB15
:1009A800CDF8B6C2B8E6BEAF0000000000000000F7
:1009B80000000000000000000049443632D4B6B3FD
:1009C800CCB9D8BBFAB8E6BEAF0000000000000002
:1009D80000000000000000000049443633D2E7CB95
:1009E800AEB8E6BEAF000000000000000000000046
:1009F80000000000000000000049443634C8BABFB7
:100A0800D8CDA8D0C5D2ECB3A300000000000000E8
:100A180000000000000000000049443635B1E4C67B
:100A2800B5C6F7B9CAD5CF00000000000000000025
:100A380000000000000000000049443636D7A2CB71
:100A4800AEB5E7B5BCC2CAB8DF00000000000000C0
:100A580000000000000000000049443637D7A2CB50
:100A6800AEB5E7B5BCC2CAB5CD00000000000000B5
:100A780000000000000000000049443638D1CCCE08
:100A8800EDB8E6BEAF000000000000000000000066
:100A980000000000000000000049443639D3C3BB01
:100AA800A7D7D4B6A8D2E5B8E6BEAF0000000000CC
:100AB80000000000000000000049443730B5E7D4CA
:100AC800B4D2ECB3A3000000000000000000000056
:100AD80000000000000000000049443731C8EBCB9B
:100AE800AEB8DFCEC2000000000000000000000029
:100AF80000000000000000000049443732CBAEB7C8
:100B0800A7B9CAD5CF00000000000000000000000F
:100B180000000000000000000049443733C5CCB98C
:100B2800DCB6CFC1F7B8E6BEAF0000000000000099
:100B380000000000000000000049443734B7E7BB5C
:100B4800FA36B9CAD5CF0000000000000000000046
:100B580000000000000000000049443735B7E7BB3B
:100B6800FA37B9CAD5CF0000000000000000000025
:100B780000000000000000000049443736B7E7BB1A
:100B8800FA38B9CAD5CF0000000000000000000004
:100B980000000000000000000049443737B7E7BBF9
:100BA800FA36B3ACCAB10000000000000000000033
:100BB80000000000000000000049443738B7E7BBD8
:100BC800FA37B3ACCAB10000000000000000000012
:100BD80000000000000000000049443739B7E7BBB7
:100BE800FA38B3ACCAB100000000000000000000F1
:100BF80000000000000000000049443830C5C5CBA3
:100C0800AEB8DFCBAECEBB00000000000000000095
:100C180000000000000000000049443831BCD3CA7D
:100C2800AAC6F7D2ECB3A300000000000000000041
:100C380000000000000000000049443832B7E7D146
:100C4800B9B9B5CD000000000000000000000000A8
:100C580000000000000000000049443833BAECCD21
:100C6800E2BCD3CAAAB9C8C800000000000000004E
:100C780000000000000000000049443834D1B9BB2E
:100C8800FA31B8DFD1B90000000000000000000010
:100C980000000000000000000049443835B7E7BBF9
:100CA800FAB5E7C1F7B9B4F300000000000000008E
:100CB80000000000000000000049443836B8A8C20F
:100CC800B7C8EBCBAEB8DFCEC20000000000000012
:100CD8000000000000000000004944383745455630
:100CE800B8E6BEAF000000000000000000000000F1
:100CF80000000000000000000049443838BDD3CB94
:100D0800AEC5CCD2E7CBAE0000000000000000006A
:100D180000000000000000000049443839C5C5C67D
:100D2800F8B8DFCEC200000000000000000000009C
:100D380000000000000000000049443930C9E8B153
:100D4800B8CAB9D3C3B3ACCAB100000000000000F0
:100D580000000000000000000049443931B1A3C17F
:100D6800F400000000000000000000000000000087
:100D780000000000000000000049443932B1A3C15E
:100D8800F400000000000000000000000000000067
:100D980000000000000000000049443933B1A3C13D
:100DA800F400000000000000000000000000000047
:100DB80000000000000000000049443934B1A3C11C
:100DC800F400000000000000000000000000000027
:100DD80000000000000000000049443935B1A3C1FB
:100DE800F400000000000000000000000000000007
:100DF80000000000000000000049443936B1A3C1DA
:100E0800F4000000000000000000000000000000E6
:100E180000000000000000000049443937BBD8B783
:100E2800E7CEC2CAAAB6C8B4ABB8D0C6F7000000AD
:100E380000000000000000000049443938CBCDB75D
:100E4800E7CEC2CAAAB6C8B4ABB8D0C6F70000008D
:100E580000000000000000000049443939BCD3CA32
:100E6800AAB0E5D2ECB3A300000000000000000027
:100E78000000000000000000004944313030C6C1C5
:100E8800C4BBD2D1CBF8B6A8000000000000000017
:100E98000000000000000000004944313031D2BB9E
:100EA800CCECBDABCBF8B6A80000000000000000F9
:100EB8000000000000000000004944313032C8CC76
:100EC800ECBDABCBF8B6A8000000000000000000A5
:100ED8000000000000000000004944313033C6DF44
:100EE800CCECBDABCBF8B6A80000000000000000B9
:100EF8000000000000000000004944313034CAAE50
:100F0800CEE5CCECBDABCBF8B6A8000000000000E5
:100F18000000000000000000004944313035C8CA14
:100F2800AECCECBDABCBF8B6A800000000000000CA
:100F38000000000000000000004944313036B5E7E9
:100F4800D4B432CFE0D0F2B4ED00000000000000CD
:100F58000000000000000000004944313037B5E7C8
:100F6800D4B432C6B5C2CAB8DF0000000000000021
:100F78000000000000000000004944313038B5E7A7
:100F8800D4B432C6B5C2CAB5CD0000000000000016
:100F98000000000000000000004944313039B5E786
:100FA800D4B43241CFE0B9D1B9000000000000004C
:100FB8000000000000000000004944313130B5E76E
:100FC800D4B43242CFE0B9D1B9000000000000002B
:100FD8000000000000000000004944313131B5E74D
:100FE800D4B43243CFE0B9D1B9000000000000000A
:100FF8000000000000000000004944313132B5E72C
:10100800D4B43241CFE0C7B7D1B900000000000026
:101018000000000000000000004944313133B5E70A
:10102800D4B43242CFE0C7B7D1B900000000000005
:101038000000000000000000004944313134B5E7E9
:10104800D4B43243CFE0C7B7D1B9000000000000E4
:10105800000000000000000000419DA300419DA485
:1010680000429DA50000429DA70000429DA90000E6
:1010780047A00E0000000000000048A01D0000006E
:10108800000000000048A01500000000000000005B
:1010980042A027000042A029000042A025000044E9
:1010A800A0330000000042A02B000044A02D000047
:1010B800000002080000040B0000000042A03100FC
:1010C80000010A0061009B2300C1814001C08041EA
:1010D80001C0804100C1814001C0804100C1814000
:1010E80000C1814001C0804101C0804100C18140F0
:1010F80000C1814001C0804100C1814001C08041E0
:1011080001C0804100C1814001C0804100C18140CF
:1011180000C1814001C0804100C1814001C08041BF
:1011280001C0804100C1814000C1814001C08041AF
:1011380001C0804100C1814001C0804100C181409F
:1011480000C1814001C0804101C0804100C181408F
:1011580000C1814001C0804100C1814001C080417F
:1011680001C0804100C1814000C1814001C080416F
:1011780001C0804100C1814001C0804100C181405F
:1011880000C1814001C0804100C1814001C080414F
:1011980001C0804100C1814001C0804100C181403F
:1011A80000C1814001C0804101C0804100C181402F
:1011B80000C1814001C0804100C1814001C080411F
:1011C80001C0804100C1814061009C2300C0C10171
:1011D800C30302C2C60607C705C5C404CC0C0DCD9F
:1011E8000FCFCE0E0ACACB0BC90908C8D81819D90F
:1011F8001BDBDA1A1EDEDF1FDD1D1CDC14D4D5153F
:10120800D71716D6D21213D311D1D010F03031F12E
:1012180033F3F23236F6F737F53534F43CFCFD3D5E
:10122800FF3F3EFEFA3A3BFB39F9F83828E8E9294E
:10123800EB2B2AEAEE2E2FEF2DEDEC2CE42425E5FE
:1012480027E7E62622E2E323E12120E0A06061A16E
:1012580063A3A26266A6A767A56564A46CACAD6D1E
:10126800AF6F6EAEAA6A6BAB69A9A86878B8B9798E
:10127800BB7B7ABABE7E7FBF7DBDBC7CB47475B5BE
:1012880077B7B67672B2B373B17170B050909151AE
:101298009353529296565797559594549C5C5D9DDE
:1012A8005F9F9E5E5A9A9B5B9959589888484989CE
:1012B8004B8B8A4A4E8E8F4F8D4D4C8C448485457E
:1012C800874746868242438341818040419889000E
:1012D8004190E00044990A000000004190DB00447E
:1012E80090DC00000000679A90EF5A020303C800E0
:1012F8000000A020031C00FF5A020301C8010000DF
:10130800A023031900FF5A020601C803A084A024E1
:10131800010000005A020301C8010000A0250104D1
:1013280000FF5A020601C802A085A025010400FF9B
:101338005A020303C8010000A0A0011A00FF5A02C4
:101348000302C8000000A0A3031000FF5A02030212
:10135800C801000AAA00032600FF5A020308C801B0
:10136800000AAA02034100FF5A020301C801000A49
:10137800AA0A036F00FF5A020301C801000AAA0B58
:10138800037700FF5A02031FC801000BAB20039329
:1013980000FF5A020601C803AC80AC20023A000CD8
:1013A8005A020306C800000DAEA0032000FF5A022F
:1013B8000307C803B300B320011A00135A02060139
:1013C800C803B380B320011A00135A020601C803E8
:1013D800B382B322011C00135A020601C803B38367
:1013E800B323011D00135A020601C803B384B324B2
:1013F800011E00135A020601C803B385B325011F55
:1014080000135A020601C803B386B326012000134D
:101418005A02030BC803B400B420015800145A023E
:101428000601C803B480B420015800145A0206010A
:10143800C803B481B421015900145A020601C80333
:10144800B483B423015B00145A020601C803B484B0
:10145800B424015C00145A020601C803B485B425FB
:10146800015D00145A020601C803B486B426015E61
:1014780000145A020601C803B487B427015F001498
:101488005A020601C803B488B428016000145A023D
:101498000601C803B48AB42A016200145A0203067A
:1014A800C803B700B720013B00175A020305C80359
:1014B800B700B726014300175A020601C803B780D0
:1014C800B720013B00175A020601C803B784B724A6
:1014D800013F00175A020601C803B785B725014026
:1014E80000175A020601C803B786B726014300173A
:1014F8005A020601C803B787B727014400175A02E2
:101508000601C803B788B728014500175A02060123
:10151800C803B789B729014600175A020601C8034C
:10152800B78AB72A014700175A020301C803B8004F
:10153800B820016A00185A020303C803B800B8218A
:10154800016D00185A020301C803B800B8240172DB
:1015580000185A020301C803B800B825017400181E
:101568005A020301C803B800B826017B00185A02C2
:101578000301C803B800B827022A00185A02060156
:10158800C803B880B820016A00185A020601C803C7
:10159800B881B821016D00185A020601C803B88243
:1015A800B822016E00185A020601C803B883B8238E
:1015B800016F00185A020601C803B884B8240172E2
:1015C80000185A020601C803B885B8250174001826
:1015D8005A020601C803B886B826017B00185A02C9
:1015E8000601C803B887B827022A00185A0203015F
:1015F800C803BB00BB2001B0001B5A020302C8038A
:10160800BB00BB2101B2001B5A020301C803BB0087
:10161800BB2301B5001B5A020302C803BB00BB244D
:1016280001D1001B5A020302C803BB00BB2602718A
:10163800001B5A020302C803BB00BB280276001B2A
:101648005A020301C803BB00BB2A0286001B5A02C8
:101658000601C803BB80BB2001B0001B5A0206016B
:10166800C803BB81BB2101B2001B5A020601C80393
:10167800BB82BB2201B3001B5A020601C803BB830D
:10168800BB2301B5001B5A020601C803BB84BB2457
:1016980001D1001B5A020601C803BB85BB2501D234
:1016A800001B5A020601C803BB86BB260271001B39
:1016B8005A020601C803BB87BB270272001B5A02E5
:1016C8000601C803BB88BB280276001B5A02060124
:1016D800C803BB89BB290277001B5A020601C8034D
:1016E800BB8ABB2A0286001B5A020302C803BC003D
:1016F800BC200232001C5A020301C803BC00BC22F1
:101708000252001C5A020301C803BC00BC23025544
:10171800001C5A020301C803BC00BC240258001C68
:101728005A020301C803BC00BC250261001C5A020E
:101738000601C803BC80BC200232001C5A02060104
:10174800C803BC81BC210233001C5A020601C8032D
:10175800BC82BC220252001C5A020601C803BC8388
:10176800BC230255001C5A020601C803BC84BC24D1
:101778000258001C5A020601C803BC85BC25026138
:10178800001C5A020302C803BF00BF200102001F49
:101798005A020301C803BF00BF220107001F5A02F3
:1017A8000301C803BF00BF2301A5001F5A02060199
:1017B800C803BF80BF200102001F5A020601C803E8
:1017C800BF81BF210103001F5A020601C803BF825F
:1017D800BF220107001F5A020601C803BF83BF23A7
:1017E80001A5001F5A020308C803C200C2200182D3
:1017F80000225A020301C803C200C228018C002239
:101808005A020601C803C280C220018200225A027D
:101818000601C803C281C221018300225A020601BF
:10182800C803C282C222018400225A020601C803E8
:10183800C284C224018600225A020601C803C28556
:10184800C225018700225A020601C803C286C226A1
:10185800018800225A020601C803C287C2270189EB
:1018680000225A020601C803C288C228018C00223D
:101878005A020601C803C580C520023B000F5A0260
:101888000301C803C700C72001A600275A020301A5
:10189800C803C700C72101A900275A020601C803C7
:1018A800C780C72001A600275A020601C803C781BE
:1018B800C72101A900275A020601C803C782C72207
:1018C80001A800275A020301C8010027C72303758E
:1018D80000FF5A020301C8010027C724037700FF4D
:1018E8005A020301C803C800C820012700285A0269
:1018F8000301C803C800C821012900285A020304AB
:10190800C803C800C822012D00285A020601C803CE
:10191800C880C820012700285A020601C803C881C8
:10192800C821012900285A020601C803C882C82212
:10193800012D00285A020601C803C883C823012EB6
:1019480000285A020601C803C884C824012F0028A9
:101958005A020601C803C885C825013000285A0262
:10196800030EC8010029C9B0037800295A020601EC
:10197800C803C990C930023C00295A020301C803B0
:10198800CC00CCA00303002C5A020301C803CF00EB
:10199800CF200108002F5A020302C803CF00CF212D
:1019A800010A002F5A020304C803CF00CF23010DF8
:1019B800002F5A020301C803CF00CF270141002F8F
:1019C8005A020301C803CF00CF28015A002F5A0238
:1019D8000301C803CF00CF2901A7002F5A0206012F
:1019E800C803CF80CF200108002F5A020601C80380
:1019F800CF81CF21010A002F5A020601C803CF82E6
:101A0800CF22010B002F5A020601C803CF83CF2330
:101A1800010D002F5A020601C803CF84CF24010EFE
:101A2800002F5A020601C803CF85CF25010F002FCA
:101A38005A020601C803CF86CF260110002F5A028A
:101A48000601C803CF87CF270141002F5A0206019C
:101A5800C803CF88CF28015A002F5A020601C803AD
:101A6800CF89CF2901A7002F5A020601C803CF8AC0
:101A7800CF2A023B002F5A020601C803CF8BCF2B77
:101A8800023B002F4E90E100000000000000000023
:101A98000000000000418E6A0062708E6B5A13B31A
:101AA80020B350B3805A13B322B352B3825A13B33C
:101AB80023B353B3835A13B324B354B3845A13B31D
:101AC80025B355B3855A13B326B356B3865A14B4FF
:101AD80020B450B4805A14B421B451B4815A14B407
:101AE80023B453B4835A14B424B454B4845A14B4E5
:101AF80025B455B4855A14B426B456B4865A14B4C9
:101B080027B457B4875A14B428B458B4885A14B4AC
:101B18002AB45AB48A5A17B720B750B7805A17B799
:101B280024B754B7845A17B725B755B7855A17B786
:101B380026B756B7865A17B727B757B7875A17B76A
:101B480028B758B7885A17B729B759B7895A17B74E
:101B58002AB75AB78A5A18B820B850B8805A18B84D
:101B680021B851B8815A18B822B852B8825A18B850
:101B780023B853B8835A18B824B854B8845A18B834
:101B880025B855B8855A18B826B856B8865A18B818
:101B980027B857B8875A1BBB20BB50BB805A1BBB02
:101BA80021BB51BB815A1BBB22BB52BB825A1BBBF8
:101BB80023BB53BB835A1BBB24BB54BB845A1BBBDC
:101BC80025BB55BB855A1BBB26BB56BB865A1BBBC0
:101BD80027BB57BB875A1BBB28BB58BB885A1BBBA4
:101BE80029BB59BB895A1BBB2ABB5ABB8A5A1CBC86
:101BF80020BC50BC805A1CBC21BC51BC815A1CBCA6
:101C080022BC52BC825A1CBC23BC53BC835A1CBC89
:101C180024BC54BC845A1CBC25BC55BC855A1FBF67
:101C280020BF50BF805A1FBF21BF51BF815A1FBF5D
:101C380022BF52BF825A1FBF23BF53BF835A22C23B
:101C480020C250C2805A22C221C251C2815A22C225
:101C580022C252C2825A22C224C254C2845A22C206
:101C680025C255C2855A22C226C256C2865A22C2E7
:101C780027C257C2875A22C228C258C2885A27C7C1
:101C880020C750C7805A27C721C751C7815A28C8BB
:101C980020C850C8805A28C821C851C8815A28C8A5
:101CA80022C852C8825A28C823C853C8835A28C889
:101CB80024C854C8845A28C825C855C8855A2FCF5F
:101CC80020CF50CF805A2FCF21CF51CF815A2FCF3D
:101CD80022CF52CF825A2FCF23CF53CF835A2FCF21
:101CE80024CF54CF845A2FCF25CF55CF855A2FCF05
:101CF80026CF56CF865A2FCF27CF57CF875A2FCFE9
:101D080028CF58CF885A2FCF29CF59CF89418E69EC
:101D180000589FF6000000000000000000000000CE
:101D2800000000000000000000000000589FD800DC
:101D380000000000000001000000020002736000C3
:101D48000A2D080007ED65419FD4FF60649F70006D
:101D58000001000200030004000500060007000857
:101D68000009000A000B000C020D000E000F011004
:101D780000110012001300140015001600170018B7
:101D88000019001A001B021C001D001E001F002065
:101D98000021002200230024002500260227002815
:101DA8000029002A002B002C002D002E002F0330C4
:101DB800003100469FF0000101030203429FD60054
:101DC80000429F6E0000429F6B0000419F6D000023
:101DD800AF0FEF1313543F54016401600302249AB8
:101DE8007B017A99790E909B19F0A3740CF07F21EE
:101DF8007EA01233E490990EE0FEA3E0D39400EEA7
:101E08009400500FA3E0FEA3E09400EE940050036A
:101E1800021EA5909910E0FEA3E0FF90990EE0FC49
:101E2800A3E02FFFEC3EFE909EF1E06F7001EE60A4
:101E38004C909910E0FEA3E0FF90990EE0A3E02FEC
:101E4800FFEC3EFE909EF1E0C39FE49E501D9099EA
:101E580018E4F0A304F0FB7A997918909B19E4F040
:101E6800A37402F07F267EA0123651909910E0A349
:101E7800E0FF90990EE0A3E02F909EF1F090991862
:101E8800E0FEA3E04E60167B017A9E79DF909B19F5
:101E9800E4F0A37402F07FA07E0012365190A03BBC
:101EA800E0FEA3E0640D4E600302224C90A03BE0EC
:101EB800A3E0FF909EFAE0FCA3E06F7002EC6E6076
:101EC8001EE4909EFFF0A3F07B017A9E79FF909B21
:101ED80019F0A37402F07F017EAE12365180167B92
:101EE800017A9E79FF909B19E4F0A37402F07F01B8
:101EF8007EAE1233E47B017A99790E909B19E4F057
:101F0800A37410F07FA07EAE1233E4E490991CF025
:101F1800A3E05407F07B017A9E79E1780E7C997DE5
:101F2800017E007F10122A84EF702F909EFCE0FE45
:101F3800A3E0FF909EFFE0FCA3E0B5071DECB5060B
:101F48001990A03BE0FEA3E0FF909EFAE0FCA3E01E
:101F58006F7002EC6E700302248A7B017A99790E05
:101F680078E17C9E7D017E007F1012256BE4909EB7
:101F7800FEF0909941F0909941E0C39408748094E0
:101F88008040030221F4E4909940F0909940E0C326
:101F980094107480948040030221EBA3E0C454F0B1
:101FA800FF909940E02F909945F0E075F018A4242F
:101FB80000FFE5F03435FE7B017A99790E909B1984
:101FC800E4F0A37430F01233E47B017A99790E902F
:101FD80099421228A2909940E0FF7E007401A80758
:101FE800088005C333CE33CED8F9FF909941E02558
:101FF800E024E1F582E4349EF583E0FCA3E0FDEE05
:102008005CFEEF5D4E7003022142909942122882D5
:1020180012267C645A7004E5F064A570030220DF80
:1020280090994212288274A575F05A1226DF7B0116
:102038007A997922909B19E4F0A37408F07F107EB6
:10204800001233E47B017A99792278107C997D011A
:102058007E007F0312256B7B017A99792678137CA1
:10206800997D017E007F0312256B7E007F087D002D
:102078007B017A997916122AA8909945E0FF9099E0
:102088001CE4F0A3EFF07B017A99791EC002C0012D
:1020980090994575F020A42409F9748035F0FA90D8
:1020A80099491228A290994CE4F0A37420F0D00129
:1020B800D002125AE8909945E075F018A42400FF60
:1020C800E5F03435FE7B017A99790E909B19E4F09E
:1020D800A37430F0123651909EFFE0FEA3E0FF7C1F
:1020E800007D0A1225E9909EFEE0C39FEC9E4041C8
:1020F800A3E0FEA3E0FF1225E9EF240AFFE43EFE79
:10210800909EFEE0C39FEC9E5027909945E075F0A5
:1021180018A42400FDE5F03435FC909EFFE0A3E010
:1021280075F00AA4FF909EFEE0C39FFF7B0D124B43
:102138006D909EFEE004F00221E2909942122882FE
:1021480012267C645A7004E5F064A560030221E25B
:102158007B017A997922909B19F0A37408F07F107B
:102168007E001233E47B017A99792278167C997D76
:10217800017E007F0312256B7B017A9979267819F5
:102188007C997D017E007F0312256B909945E0FFC5
:1021980090991CE4F0A3EFF07B017A99790E909B5B
:1021A80019E4F0A37410F07F007E301236511252F9
:1021B8001DE490990EF0A3F0909945E075F018A4ED
:1021C8002400FFE5F03435FE7B017A99790E909B67
:1021D80019E4F0A37402F0123651909940E004F02B
:1021E800021F93909941E004F0021F7E909EFEE04A
:1021F800909940F0909EFFE0FEA3E0FF7C007D0AEE
:102208001225E9EF240AFFE43EFE909940E0C39FBF
:10221800EC9E501D909EFFE0A3E075F00AA4FF908D
:102228009940E0C39FFF1247B5909940E004F080C1
:10223800C3909EFFE0FEA3E0FF909EFCEEF0A3EFAC
:10224800F002248A90A03BE0FEA3E0640E4E6003F7
:1022580002248A90A03BE0A3E0FF909EFAE0FCA352
:10226800E06F7002EC6E601EE4909EFFF0A3F07BBE
:10227800017A9E79FF909B19F0A37402F07F017E8A
:10228800AE12365180347B017A9E79FF909B19E417
:10229800F0A37402F07F017EAE1233E4909EFCE05E
:1022A800FEA3E0FF909EFFE0FCA3E06F7002EC6EDF
:1022B800700302248A800302248A909EFFE0FEA312
:1022C800E0FF909EFCEEF0A3EFF0E4A3F0909EFEFA
:1022D800E0C3940A748094804003022470A3E0FE53
:1022E800A3E0FF7C007D0A1225E9909EFEE02FFF07
:1022F800EC3EFE909EF8E0FCA3E0FDC3EF9DEE9C53
:102308004003022470909EFFE0FEA3E0FF7C007D66
:102318000A1225E9909EFEE02FFFEC3EFE909EF407
:10232800E0FCA3E0D39FEC9E4032909EFFE0FEA32A
:10233800E0FF7C001225E9909EFEE02FFFEC3EFEB8
:10234800EF2401FFE43EFE909EF4E0FCA3E0C39F6F
:10235800FFEC9E909942F0A3EFF0803A909EFFE048
:10236800FEA3E0FF7C007D0A1225E9909EFEE02F87
:10237800FFEC3EFEEF2401FFE43EFE909EF4E0FCFD
:10238800A3E02400FDEC3402FCC3ED9FFFEC9E901B
:102398009942F0A3EFF0909942E0FEA3E07803C3DE
:1023A80033CE33CED8F92400FFEE3420FEE4FCFD12
:1023B800909B17122839909B1BE4F0A37408F07DBA
:1023C800007C307F5A12581E7B017A99790E909BB7
:1023D80019E4F0A37410F07F007E301233E47B011F
:1023E8007A99791EC003C002C00190991CE0FEA32F
:1023F800E07805C333CE33CED8F92409F974803E8A
:10240800FA7B019099491228A290994CE4F0A374A0
:1024180020F0D001D002D003125AE8909EFEE025A9
:10242800E02401F582E4349FF583E0FEA3E0FF7B1E
:10243800017A99790E909B19E4F0A37430F0123662
:1024480051909EFEE025E02401F582E4349FF58357
:10245800E0FCA3E0FD909EFEE0FF7B0E124B6D902A
:102468009EFEE004F00222D5909EFEE0C3940A741A
:10247800809480500DE0FF1247B5909EFEE004F076
:1024880080E690A03BE0FEA3E0FF909EFAEEF0A36A
:10249800EFF022E709F608DFFA8046E709F208DFDD
:1024A800FA803E88828C83E709F0A3DFFA8032E362
:1024B80009F608DFFA8078E309F208DFFA80708805
:1024C800828C83E309F0A3DFFA806489828A83E03F
:1024D800A3F608DFFA805889828A83E0A3F208DF2E
:1024E800FA804C80D280FA80C680D4806980F280DD
:1024F80033801080A680EA809A80A880DA80E28003
:10250800CA803389828A83ECFAE493A3C8C582C857
:10251800CCC583CCF0A3C8C582C8CCC583CCDFE9C1
:10252800DEE7800D89828A83E493A3F608DFF9EC5D
:10253800FAA9F0EDFB2289828A83ECFAE0A3C8C5E8
:1025480082C8CCC583CCF0A3C8C582C8CCC583CC0F
:10255800DFEADEE880DB89828A83E493A3F208DF7E
:10256800F980CC88F0EF60010E4E60C388F0ED244E
:1025780002B4040050B9F582EB2402B4040050AF51
:1025880023234582239024EB73BB010689828A8327
:10259800E0225002E722BBFE02E32289828A83E41A
:1025A8009322BB010CE58229F582E5833AF583E0A5
:1025B800225006E92582F8E622BBFE06E92582F8C4
:1025C800E222E58229F582E5833AF583E49322BB8A
:1025D800010689828A83F0225002F722BBFE01F3AA
:1025E80022EF8DF0A4A8F0CF8CF0A428CE8DF0A413
:1025F8002EFE22BC000BBE0029EF8DF084FFADF04B
:1026080022E4CCF875F008EF2FFFEE33FEEC33FC34
:10261800EE9DEC984005FCEE9DFE0FD5F0E9E4CE6A
:10262800FD22EDF8F5F0EE8420D21CFEADF075F039
:1026380008EF2FFFED33FD4007985006D5F0F22242
:10264800C398FD0FD5F0EA22C5F0F8A3E028F0C53D
:10265800F0F8E582158270021583E038F022A3F8BD
:10266800E0C5F025F0F0E582158270021583E0C818
:1026780038F0E822BB010A89828A83E0F5F0A3E0FA
:1026880022500687F009E71922BBFE07E3F5F00997
:10269800E3192289828A83E493F5F074019322BBBB
:1026A8000110E58229F582E5833AF583E0F5F0A388
:1026B800E0225009E92582F886F008E622BBFE0AE6
:1026C800E92582F8E2F5F008E222E5832AF583E9B4
:1026D80093F5F0A3E99322BB010A89828A83F0E586
:1026E800F0A3F0225006F709A7F01922BBFE06F363
:1026F800E5F009F31922EF2BFFEE3AFEED39FDEC78
:1027080038FC2275F008758200EF2FFFEE33FECDFE
:1027180033CDCC33CCC58233C5829BED9AEC99E599
:102728008298400CF582EE9BFEED9AFDEC99FC0F29
:10273800D5F0D6E4CEFBE4CDFAE4CCF9A88222B8F1
:1027480000C1B90059BA002DEC8BF084CFCECDFC76
:10275800E5F0CBF97818EF2FFFEE33FEED33FDEC03
:1027680033FCEB33FB10D703994004EB99FB0FD8EC
:10277800E5E4F9FA227818EF2FFFEE33FEED33FD8A
:10278800EC33FCC933C910D7059BE99A4007EC9B89
:10279800FCE99AF90FD8E0E4C9FAE4CCFB2275F019
:1027A80010EF2FFFEE33FEED33FDCC33CCC833C82A
:1027B80010D7079BEC9AE899400AED9BFDEC9AFC30
:1027C800E899F80FD5F0DAE4CDFBE4CCFAE4C8F9DF
:1027D80022EF5BFFEE5AFEED59FDEC58FC22EB9F11
:1027E800F5F0EA9E42F0E99D42F0EC6480C864800E
:1027F8009845F022EB9FF5F0EA9E42F0E99D42F001
:10280800E89C45F022E86010ECA2E713FCED13FD0C
:10281800EE13FEEF13FFD8F022E0FCA3E0FDA3E0E7
:10282800FEA3E0FF22E0F8A3E0F9A3E0FAA3E0FBAF
:1028380022ECF0A3EDF0A3EEF0A3EFF022A882853E
:1028480083F0D083D08212285C12285C12285C1294
:10285800285CE473E493A3C583C5F0C583C8C58227
:10286800C8F0A3C583C5F0C583C8C582C822A425FE
:1028780082F582E5F03583F58322E0FBA3E0FAA335
:10288800E0F922F8E0FBA3A3E0F925F0F0E58215D2
:102898008270021583E0FA38F022EBF0A3EAF0A385
:1028A800E9F022D083D082F8E49370127401937017
:1028B8000DA3A393F8740193F5828883E4737402DB
:1028C800936860EFA3A3A380DFD083D082F8E4935A
:1028D8007012740193700DA3A393F8740193F58299
:1028E8008883E473740293B5F0067403936860E90F
:1028F800A3A3A3A380D8E3F5F009E208B5F06BDF42
:10290800F58067E3F5F009E608B5F05EDFF5805A73
:1029180087F009E608B5F052DFF6804E87F009E245
:1029280008B5F046DFF6804288828C8387F009E09C
:10293800A3B5F036DFF6803288828C8387F009E40D
:1029480093A3B5F025DFF5802188828C83E3F5F029
:1029580009E0A3B5F014DFF5801088828C83E3F5D5
:10296800F009E493A3B5F002DFF4022A2D808780F2
:10297800E9809080D4803E8015806E807E809D8026
:10298800B7808D80A380518074803C022A39898267
:102998008A83ECFAE493F5F0A3C8C582C8CCC58352
:1029A800CCE493A3C8C582C8CCC583CCB5F076DF88
:1029B800E3DEE1807089828A83E493F5F0A3E2087C
:1029C800B5F062DFF4805E89828A83E0F5F0A3E6E1
:1029D80008B5F051DFF5804D89828A83E0F5F0A3D0
:1029E800E208B5F040DFF5803C89828A83E493F5FC
:1029F800F0A3E608B5F02EDFF4802A80028057891C
:102A0800828A83ECFAE493F5F0A3C8C582C8CCC5E2
:102A180083CCE0A3C8C582C8CCC583CCB5F006DF9B
:102A2800E4DEE280007FFFB5F0020F2240027F0162
:102A38002289828A83ECFAE0F5F0A3C8C582C8CC63
:102A4800C583CCE0A3C8C582C8CCC583CCB5F0D5B6
:102A5800DFE5DEE380CF89828A83ECFAE0F5F0A334
:102A6800C8C582C8CCC583CCE493A3C8C582C8CCEA
:102A7800C583CCB5F0AFDFE4DEE280A988F0EF6073
:102A8800010E4E60ABED2402B404005098F582EBC1
:102A98002402B40400508E232345822390297573A1
:102AA800EF4E6012EF60010EEDBB010B89828A8345
:102AB800F0A3DFFCDEFA2289F05007F709DFFCA952
:102AC800F022BBFEFCF309DFFCA9F022F8BB010DE4
:102AD800E58229F582E5833AF583E8F0225006E994
:102AE8002582C8F622BBFE05E92582C8F2227BFFB3
:102AF8007A6579AF78497C997D017E007F3E122501
:102B08006B7BFF7A6579ED78947C997D017E007FF7
:102B18002412256B7B017A997949909B19E4F0A3DB
:102B2800743EF07F207EAB1233E490994DE0FEA313
:102B3800E07810C333CE33CED8F9FF90994BE0FC40
:102B4800A3E0FDEE4CFEEF4DFFE4FCFD90998712EB
:102B58002839909951E0FEA3E07810C333CE33CEE4
:102B6800D8F9FF90994FE0FCA3E0FDEE4CFEEF4D45
:102B7800FFE4FCFD90998B122839909955E0FEA34B
:102B8800E07810C333CE33CED8F9FF909953E0FCE8
:102B9800A3E0FDEE4CFEEF4DFFE4FCFD90998F1293
:102BA8002839E4909993F0909993E0C39412748033
:102BB80094804003022E3AE0FF7E007401A80708C3
:102BC8008005C333CE33CED8F9FFEE3395E0FDFC54
:102BD80090998B12282D1227D9E4FBFAF9F8C31221
:102BE80027FC7003022E1E909993E0FF7E0074016B
:102BF800A807088005C333CE33CED8F9FFEE339546
:102C0800E0FDFC90998F12282D1227D9E4FBFAF9E0
:102C1800F8C31227FC7003022DC1909993E0FF13AB
:102C280013543F2407FFE4339099BAF0A3EFF090D0
:102C380099BAE0FEA3E025E0FFEE33FE74492FF5D4
:102C48008274993EF583E0FEA3E0FF909993E054E7
:102C58000325E025E0FDEFA805088005CEC313CEC7
:102C680013D8F9540FFF9099B8E4F0A3EFF09099B6
:102C7800B8E0FEA3E08EF01228D12CA600002CBEEE
:102C880000012CD600022CEE00042D0500052D1C99
:102C980000062D3300082D4A000900002D61909987
:102CA80093E025E02494F582E43499F583E4F0A3D5
:102CB8007405F0022D76909993E025E02494F5822E
:102CC800E43499F583E4F0A37406F0022D76909924
:102CD80093E025E02494F582E43499F583E4F0A3A5
:102CE8007407F0022D76909993E025E02494F582FC
:102CF800E43499F583E4F0A37408F0807190999313
:102D0800E025E02494F582E43499F583E4F0A37493
:102D180009F0805A909993E025E02494F582E434F0
:102D280099F583E4F0A3740AF08043909993E02521
:102D3800E02494F582E43499F583E4F0A37403F075
:102D4800802C909993E025E02494F582E43499F559
:102D580083E4F0A37404F08015909993E025E024AF
:102D680094F582E43499F583E4F0A37405F090991E
:102D780093E0FF7E007401A807088005C333CE33B3
:102D8800CED8F9FFEE3395E0FDFC90998712282DF7
:102D98001227D9E4FBFAF9F8C31227FC7003022EB4
:102DA80031909993E025E02494F582E43499F583F1
:102DB800E475F0081226508070909993E0FF7E0029
:102DC8007401A807088005C333CE33CED8F9FFEEC7
:102DD8003395E0FDFC90998712282D1227D9E4FB42
:102DE800FAF9F8C31227FC6017909993E025E024BC
:102DF80094F582E43499F583E4F0A37402F0802911
:102E0800909993E025E02494F582E43499F583E4DD
:102E1800F0A304F08013909993E025E02494F582C0
:102E2800E43499F583E4F0A3F0909993E004F00278
:102E38002BAF7B017A997994909B19E4F0A37424C1
:102E4800F07FA07EAB12365122E50F30E0167B01F1
:102E58007AA0793B909B19E4F0A37402F07F147E6A
:102E6800001233E4E50F20E20302312990A03BE091
:102E7800FEA3E0640B4E7003122AF690A03BE0FE1E
:102E8800A3E064294E6003022F647B017A997911CB
:102E9800909B19F0A3741CF07FB07EC91233E4E450
:102EA80090990EF090990EE0C39407748094804036
:102EB80003022F4EE025E025E02411F582E4349941
:102EC800F583E0FEA3E0C4F8540FC868FDEEC454CF
:102ED800F048FC90990EE025E025E02413F582E403
:102EE8003499F583E0FEA3E0EEC4540F2DFFE43CD3
:102EF80090990FF0A3EFF090990FE0FEA3E0FF7C0C
:102F0800007D181225FB90990EE025E0242DF5820E
:102F1800E43499F583EEF0A3EFF090990FE0FEA367
:102F2800E0FF7C007D181225FB90990EE025E02437
:102F38003BF582E43499F583ECF0A3EDF090990E1B
:102F4800E004F0022EAC7B017A99792D909B19E46C
:102F5800F0A3741CF07F207EC912365190A03BE08C
:102F6800FEA3E0642C4E6003022FF87B017A997966
:102F780014909B19F0A37402F07FA07ECC1233E466
:102F8800909914E0FEA3E0FFEEC4F854F0C868FE80
:102F9800EFC4540F48EE540F90990EF0A3E4F0904C
:102FA800990EE0FCA3E0FD909914E0FEA3E07807F9
:102FB800CEC313CE13D8F9541FFFECFEED4FFF908C
:102FC800990EEEF0A3EFF0909914E0A3E0547F90EF
:102FD8009910F0A3E4F004A3F0A3F0FB7A99790E1A
:102FE800909B19E4F0A37406F07F207ECC12365132
:102FF80090A03BE0FEA3E064274E705690A037E017
:10300800C3940574809480504290990EE4F0A30410
:10301800F0FB7A99790E909B19E4F0A37402F07F83
:10302800257EA012365190990EE4F0A3745AF07BD5
:10303800017A99790E909B19E4F0A37402F07F85C8
:103048007EA012365190A037E004F0E490A038F04A
:10305800805390A038E0C39405748094805041E474
:1030680090990EF0A3F07B017A99790E909B19F054
:10307800A37402F07F257EA012365190990EE4F0D9
:10308800A3745AF07B017A99790E909B19E4F0A306
:103098007402F07F857EA012365190A038E004F0CB
:1030A800E490A037F07B017A99790E909B19E4F0AF
:1030B800A37402F07F167E001233E490990EE0FEAE
:1030C800A3E04E6024E490990EF0A3F07B017A9976
:1030D800790E909B19F0A37402F07F167E001236C9
:1030E80051E490A039F0A3F02290A039E0FEA3E0CB
:1030F800C39458EE9402500B90A039E475F0011275
:1031080026502290A039E0FEA3E0B45814EEB40291
:103118001090A039E475F001122650E4FFFE125F0A
:1031280087229099131228A2909916ECF0A3EDF03B
:10313800E4A3F0A3F0909916E0FEA3E0FFA3E0FC5F
:10314800A3E0C39FEC9E500C909918E475F001120F
:10315800265080E1909916E0FEA3E0C39405EE9412
:103168000050030233E3E4A3F0A3F090991312286C
:1031780082909918E0FEA3E0F5828E831225AA6456
:103188000260030233BD909913122882909918E0C7
:10319800A3E029F9EA3EFA9000011225AA1228AB09
:1031A80031B203330606000033BD9099131228820A
:1031B800909918E0FEA3E029F9EA3EFA900002127D
:1031C80025AAFF90991CE4F0A3EFF0909918E0A3CA
:1031D800E0FF90991CE0FCA3E02FFFEC3EFEEF24FB
:1031E80005FFE43EFE909916E0FCA3E0FDD3EF9DB9
:1031F800EE9C4011909916E0FEA3E0FFA3EEF0A329
:10320800EFF00233BD909913122882909918E0FECE
:10321800A3E029F9EA3EFA90991CE0FEA3E0240312
:10322800FDE43EFC1258A390991AEEF0A3EFF0903B
:103238009913122882909918E0FEA3E029F9EA3E32
:10324800FA90991CE0FEA3E029F9EA3EFA900003FF
:103258001225AAFD90991AE0FEA3E0EE6D7001E434
:1032680060030233BD909913122882909918E0FEEA
:10327800A3E029F9EA3EFA90991CE0FEA3E029F9B7
:10328800EA3EFA9000041225AAFF90991AE0A3E0FA
:103298006F7001E460030233BD9090E9E0FEA3E0A3
:1032A800FF909913122882E92403F9E43AFAC0033B
:1032B800C002C0019099131228829000021225AA18
:1032C800FD909B19E4F0A3EDF0D001D002D00312D9
:1032D80036517E007F0E7D007B017A9079E1122ABB
:1032E800A890991CE0FEA3E02405FFE43E909918FD
:1032F800F0A3EFF0908E69E04402F00233BD90999C
:1033080018E0FEA3E02408FFE43EFE909916E0FCD6
:10331800A3E0FDD3EF9DEE9C4011909916E0FEA32B
:10332800E0FFA3EEF0A3EFF00233BD90991312284B
:1033380082909918E0FEA3E029F9EA3EFA7D067C1E
:10334800001258A390991AEEF0A3EFF09099131277
:103358002882909918E0FEA3E029F9EA3EFA900045
:10336800061225AAFD90991AE0FEA3E0EE6D700101
:10337800E47042909913122882909918E0FEA3E015
:1033880029F9EA3EFA9000071225AAFF90991AE057
:10339800A3E0B50720E490991875F0081226507E2E
:1033A800007F0E7D007B017A9079E1122AA8908E29
:1033B80069E04402F0909918E475F00112265090E3
:1033C8009916E0FEA3E024FBFFEE34FFFEA3E0FC29
:1033D800A3E0C39FEC9E500302317322909B14EE2E
:1033E800F0A3EFF0A31228A27B007A007900C003B3
:1033F800C002C001909B16122882D082D083D0E0F0
:103408006B7008E965827003EA65837003023650C1
:10341800909B19E0FEA3E04E7003023650909B1972
:10342800E0A3E0FFEEC313FEEF13FF909B14E0FC54
:10343800A3E02FFFEE3CFED3EF94FEEE94FF400393
:10344800023650C2AF909B14E0A3E05401909B1B3E
:10345800F0909B14E0FEA3E0FFEEC313FEEF13FF12
:10346800909B14EEF0A3EFF0909B14E0FEA3E0789D
:1034780010CEC313CE13D8F9F5F1909B14E0FEA338
:10348800E0EEF5F2909B14E0A3E0F5F3E4F5F875AF
:10349800F401D2FF30FCFDD2FD909B1BE06401706B
:1034A80072909B19E0FEA3E064014E700AC2FBC251
:1034B800FAD2F9C2F88008C2FBC2FAD2F9D2F8D21D
:1034C800FE20FEFD909B19E0FEA3E064014E701AF9
:1034D800909B1675F00112288BE5FC1225D7909B5E
:1034E8001974FFF5F01226508029909B16E475F0A8
:1034F8000112288BE5FC1225D7909B16E475F00184
:1035080012288BE5FD1225D7909B1974FF75F0FEE4
:10351800122650909B19E0FEA3E04E700302364B32
:10352800909B19E0A3E0C39404EE94004003023595
:10353800F4909B19E0A3E08EF01228D135680001C1
:10354800355E00023554000300003570D2FBD2FA14
:10355800D2F9C2F88012D2FBD2FAC2F9C2F88008B6
:10356800D2FBC2FAC2F9C2F8D2FE20FEFD909B1926
:10357800E0FEA3E08EF01228D135E1000135C1004C
:1035880002359100030000364B909B16E475F0015C
:1035980012288BE5FA1225D7909B16E475F00112D4
:1035A800288BE5FB1225D7909B16E475F0011228AD
:1035B8008BE5FC1225D702364B909B16E475F0017B
:1035C80012288BE5FA1225D7909B16E475F00112A4
:1035D800288BE5FB1225D7806A909B16E475F001CD
:1035E80012288BE5FA1225D780598057D2FBD2FAD8
:1035F800D2F9D2F8D2FE20FEFD909B16E475F001B8
:1036080012288BE5FA1225D7909B16E475F0011263
:10361800288BE5FB1225D7909B16E475F00112283C
:103628008BE5FC1225D7909B16E475F00112288BC8
:10363800E5FD1225D7909B1974FF75F0FC122650F2
:1036480002351BE4F5F8D2AF22909B14EEF0A3EFFD
:10365800F0A31228A27B007A007900C003C002C040
:1036680001909B16122882D082D083D0E06B70081C
:10367800E965827003EA658370030238BC909B1980
:10368800E0FEA3E04E70030238BC909B19E0A3E073
:10369800FFEEC313FEEF13FF909B14E0FCA3E02F93
:1036A800FFEE3CFED3EF94FEEE94FF40030238BCDD
:1036B800C2AF909B14E0A3E05401909B1BF0909B39
:1036C80014E0FEA3E0FFEEC313FEEF13FF909B147C
:1036D800EEF0A3EFF0909B14E0FEA3E07810CEC3C9
:1036E80013CE13D8F9F5F1909B14E0FEA3E0EEF5A4
:1036F800F2909B14E0A3E0F5F3E4F5F875F401D239
:10370800FF30FCFDC2FD909B1BE064017072909B32
:1037180019E0FEA3E064014E700AC2FBC2FAD2F9B6
:10372800C2F88008C2FBC2FAD2F9D2F8909B19E01D
:10373800FEA3E064014E701A909B1675F0011228E2
:103748008B122591F5FC909B1974FFF5F012265009
:103758008029909B16E475F00112288B122591F5AB
:10376800FC909B16E475F00112288B122591F5FD4B
:10377800909B1974FF75F0FE122650D2FE20FEFDB4
:10378800909B19E0FEA3E04E70030238B7909B1996
:10379800E0A3E0C39404EE94004003023860909BD9
:1037A80019E0A3E08EF01228D137D5000137CB00FD
:1037B8000237C10003000037DDD2FBD2FAD2F9C2CA
:1037C800F88012D2FBD2FAC2F9C2F88008D2FBC242
:1037D800FAC2F9C2F8909B19E0FEA3E08EF0122815
:1037E800D1384800013828000237F90003000038B2
:1037F80057909B16E475F00112288B122591F5FA63
:10380800909B16E475F00112288B122591F5FB9018
:103818009B16E475F00112288B122591F5FC802F78
:10382800909B16E475F00112288B122591F5FA90F9
:103838009B16E475F00112288B122591F5FB800F79
:10384800909B16E475F00112288B122591F5FAD297
:10385800FE30FE5B80FB8057D2FBD2FAD2F9D2F859
:10386800909B16E475F00112288B122591F5FA90B9
:103878009B16E475F00112288B122591F5FB909B9D
:1038880016E475F00112288B122591F5FC909B1611
:10389800E475F00112288B122591F5FDD2FE20FE69
:1038A800FD909B1974FF75F0FC122650023788E4CE
:1038B800F5F8D2AF227BFF7A65792B780E7C997D5B
:1038C800017E007F2012256B7B017A99790E9099F1
:1038D800301228A29099331228A2E490992EF0A3CE
:1038E800F090992EE0FEA3E0C3EE94024003023963
:1038F8008690992EE0A3E07803C333CE33CED8F96F
:103908002400FFEE3420FEE4FCFD909B17122839BA
:10391800909B1BE4F0A37408F07D007C307F5A1262
:10392800581E7B017A99790E909B19E4F0A37410C4
:10393800F07F007E301233E49099301228821226EC
:103948007C645A7004E5F064A560269099331228C7
:103958008212267CB4A527E5F0B45A229099331236
:10396800288278F27C9E7D017E007F0812256B807C
:103978000D90992EE475F0011226500238E9E49072
:10398800992EF0A3F090992EE0FEA3E0C3940AEEDE
:1039980094004003023B187BFF7A65794B78367CAC
:1039A800997D017E007F2012256B7B017A9E79AB81
:1039B80078367C997D017E007F1A12256B90992EAE
:1039C800E0FEA3E0FF7C007D1B1225E9EF2464FFE5
:1039D800E43E90993AF0A3EFF090993F7401F0908B
:1039E800992EE0FEA3E0909F1575F006122876EE5A
:1039F80075F006A42583F583E0FEA3E0FF7B017A3A
:103A0800997936909B19E4F0A37420F01236517B13
:103A1800017A9E79C578367C997D017E007F1A12DD
:103A2800256B90992EE0FEA3E0FF7C007D1B1225FC
:103A3800E9EF2464FFE43E90993AF0A3EFF09099FF
:103A48003F7401F090992EE0FEA3E0909F1775F067
:103A580006122876EE75F006A42583F583E0FEA30A
:103A6800E0FF7B017A997936909B19E4F0A37420E2
:103A7800F01236517B017A9F795178367C997D0115
:103A88007E007F1A12256B90992EE0FEA3E0FF7C42
:103A9800007D1B1225E9EF2464FFE43E90993AF07B
:103AA800A3EFF090992EE0FEA3E0FF1225E9EF24A2
:103AB80064FFE43E909940F0A3EFF090992EE0FE69
:103AC800A3E0FF1225E9EF247DFFE43E909944F03E
:103AD800A3EFF090992EE0FEA3E0909F1975F006F1
:103AE800122876EE75F006A42583F583E0FEA3E0A0
:103AF800FF7B017A997936909B19E4F0A37420F042
:103B080012365190992EE475F00112265002398D23
:103B180022E50F30E10D90A03DE475F0011226502A
:103B28001252FF90A03DE0FEA3E0C394B0EE9404CF
:103B38005003023D67E490A03DF0A3F0A3E0FEA38C
:103B4800E02400FFEE341090990EF0A3EFF07B0113
:103B58007A997910909B19E4F0A37402F07FA37E00
:103B6800A01233E4909910E475F0C8122650909989
:103B78000EE0FEA3E0FF7B017A997910909B19E48F
:103B8800F0A37402F012365190A03FE0FEA3E024A7
:103B980000FFEE341890990EF0A3EFF07B017A99AC
:103BA8007910909B19E4F0A37402F07FA47EA01210
:103BB80033E490990EE0FEA3E0FF7B017A99791037
:103BC800909B19E4F0A37402F012365190A03FE0E4
:103BD800FEA3E0FF909914EEF0A3EFF090A03FE46D
:103BE80075F00112265090A03FE0FEA3E0C394FEBA
:103BF800EE94074007E490A03FF0A3F07B017AA081
:103C0800793F909B19E4F0A37402F07F007E0312C1
:103C180036517B017AA0793F909B19E4F0A3740296
:103C2800F0FF7E031236519099127407F0A374FEC8
:103C3800F07B017A997912909B19E4F0A37402F051
:103C48007F087E501236517B017A997912909B1920
:103C5800E4F0A37402F07F097E5012365190991255
:103C68007402F0A3748AF07B017A997912909B19F7
:103C7800E4F0A37402F07F117E5012365190A03FF9
:103C8800E0A3E030E003023D6790991474FFF5F07B
:103C9800122650909914E0FEA3E02400FFEE3410A1
:103CA800FE7B017A99790E909B19E4F0A37404F0D5
:103CB8001233E490991274A5F0A3745AF07B017A38
:103CC80099790E909B19E4F0A37406F07F007E505A
:103CD800123651909914E0FEA3E0FFE4FCFD909B9E
:103CE80017122839909B1BE4F0A37404F07D007C24
:103CF800507FA512581E909914E0FEA3E02400FFFF
:103D0800EE3418FE7B017A99790E909B19E4F0A3A2
:103D18007404F01233E490991274A5F0A3745AF065
:103D28007B017A99790E909B19E4F0A37406F07FD1
:103D3800007E50123651909914E0FEA3E02400FF53
:103D4800EE3408FEE4FCFD909B17122839909B1B6B
:103D5800E4F0A37404F07D007C507FA512581E2265
:103D68009099131228A290991312288212259190E3
:103D78009916F0909916E0C3948B74809480400350
:103D8800023F9FE075F00E9090EF122876E0645A9B
:103D98006003023F96909916E075F00E9090F2122B
:103DA8002876E07003023F96909916E075F00E9021
:103DB80090F4122876E07003023F9F909916E07500
:103DC800F00E9090F4122876E0640170299099160C
:103DD800E075F00E9090F5122876E0FEA3E0FF90D3
:103DE800A03BE0FCA3E06F7002EC6E6003023F961C
:103DF800023F9F023F96909916E075F00E9090F45E
:103E0800122876E064026003023EBB909916E075C2
:103E1800F00E9090F5122876E0FEA3E0FF7B017A81
:103E2800997917909B19E4F0A37402F01233E49087
:103E38009917E0A3E0645A6003023F96909916E050
:103E4800C3948A74809480503CE075F00E9091027F
:103E5800122876E06402702D909916E075F00E90A5
:103E68009103122876E0FEA3E0FF909916E075F022
:103E78000E9090F5122876E0FCA3E06F7002EC6ECD
:103E88007003023F9FE4909917F0A3F0909916E011
:103E980075F00E9090F5122876E0FEA3E0FF7B0106
:103EA8007A997917909B19E4F0A37402F0123651AD
:103EB800023F9F909916E075F00E9090F4122876C4
:103EC800E064036003023F96909916E075F00E9047
:103ED80090FB122876E0FEA3E0FF90A03BE0FCA355
:103EE800E0FDEF6D7002EE6C6003023F969099164C
:103EF800E075F00E9090F5122876E0FEA3E0FF7BC7
:103F0800017A997917909B19E4F0A37402F012339F
:103F1800E4909917E0A3E0645A7073909916E0C38F
:103F2800948A748094805039E075F00E9091021252
:103F38002876E06403702A909916E075F00E909147
:103F480003122876E0FEA3E0FF909916E075F00EC4
:103F58009090F5122876E0FCA3E06F7002EC6E609A
:103F680036E4909917F0A3F0909916E075F00E904A
:103F780090F5122876E0FEA3E0FF7B017A99791785
:103F8800909B19E4F0A37402F012365180099099BD
:103F980016E004F0023D7B909916E0FF9099131209
:103FA8002882EF1225D7227BFF7A63792B780E7C43
:103FB800997D017E027F0012256B909B1712284580
:103FC80000000000909B1B7410F0A3E4F0FD7C102F
:103FD8007F5A12581E909B0E7410F0A3E4F0909B29
:103FE8000EE0FEA3E0C394FEEE94175069909B0E7A
:103FF800E0A3E0FF7B017A99790E909B197402F097
:10400800A3E4F01233E4E4909B10F0A3F0909B102B
:10401800E0FEA3E0C3EE9401502F909B10E0A3E0D4
:1040280025E0FFEE33FE740E2FF58274993EF5837A
:10403800E0FEA3E0645A7003EE64A56019909B103B
:10404800E475F00112265080C4909B0E740175F03F
:10405800001226508088909B10E0FEA3E0FF909B02
:104068000EE0FCA3E02FFFEC3E909B12F0A3EFF0D4
:10407800909B12E0FEA3E0C394FEEE9417400990D3
:104088009B127410F0A3E4F0909B1274F075F0008A
:10409800122650909B12E0FEA3E0FF90A03FEEF0A6
:1040A800A3EFF07B017A9B7912909B19E4F0A3743B
:1040B80002F07F007E031236517B017A9B791290C1
:1040C8009B19E4F0A37402F0FF7E031236517B01C2
:1040D8007A9B7912909B19E4F0A37402F07F087E12
:1040E800501236517B017A9B7912909B19E4F0A308
:1040F8007402F07F097E5012365190990E7407F0C1
:10410800A374FEF07B017A99790E909B19E4F0A3D1
:104118007402F07F017E031236517B017A99790E81
:10412800909B19E4F0A37402F004FFFE123651903C
:10413800990EE4F0A37406F0A3E4F0A304F0A3E45A
:10414800F0A3742EF0A37401F0A3744CF0A37401CF
:10415800F0A37471F0A37401F0A37477F0A3740151
:10416800F0A3748AF0A37402F0A3748AF0A3740114
:10417800F0A37471F0A374FFF0A3E4F07B017A99C3
:10418800790E909B19F0A37414F07F0A7E501236B2
:104198005122E490990EF0A3F0E50F20E0030243CA
:1041A8007D7B017A99790E909B19E4F0A37402F053
:1041B8007F147E501233E490990EE0FEA3E04E7017
:1041C8000302437D90990EE0A3E08EF01228D142BD
:1041D800FBA0004300A0264305A400430AA4014312
:1041E8000FA4A0430FA4A1430FA4A2430FA4A34369
:1041F8000FA4A4430FA4A5430FA4A6430FA4A74349
:104208000FA4A8430FA4A9430FA4AA430FA4AB4328
:104218000FA4AC430FA4AD430FA4AE430FA4AF4308
:104228000FA4B0430FA4B1430FA4B2430FA4B343E8
:104238000FA4B4430FA4B5430FA4B6430FA4B743C8
:104248000FA4B8430FA4B9430FA4BA430FA4BB43A8
:104258000FA4BC430FA4BD430FA4BE430FA4BF4388
:104268000FA4C0430FA4C1430FA4C2430FA4C34368
:104278000FA4C4430FA4C5430FA4C6430FA4C74348
:104288000FA4C8430FA4C9430FA4CA430FA4CB4328
:104298000FA4CC430FA4CD430FA4CE430FA4CF4308
:1042A8000FA4D0430FA4D1431CA4F0431CA4F14392
:1042B8001CA4F24329A6004361A601432EAC004387
:1042C80033AC01433DC5004342C6004338C70043F1
:1042D80047C701434CC901434CC907434CC90D4367
:1042E8004CC90E434CC9114359CF00435ECF01005E
:1042F800004361125B508061126235805C125A0A79
:104308008057120016805290990EE0FEA3E0FF122B
:104318005D2F804590990EE0FEA3E0FF125D898035
:104328003812563D8033125E3C802E1260C98029B7
:104338001248F480241260FF801F1261F6801A125E
:104348000052801590990EE0FEA3E0FF125F3C80BA
:1043580008125FCE800312600DE490990EF0A3F06E
:104368007B017A99790E909B19F0A37402F07F145F
:104378007E50123651227B007A00790090990E12F5
:1043880028A29090E0E0640160030244159090DB5D
:10439800E0FF909889E0D39F4011E09090DBF09087
:1043A800990A1228450000000080629090DBE0FF27
:1043B800909889E06F7056FFFEFDFC90990A1228CC
:1043C8002DD31227FC403890990A12282DC3E50EE8
:1043D8009BFFE50D9AFEE50C99FDE50B98FCE47B47
:1043E8000AFAF9F8C31227FC50237B017A98798AD4
:1043F800909889E0FD7C0012312A1261D0800EAFBE
:104408000EAE0DAD0CAC0B90990A122839908E693E
:10441800E030E03AE020E1299090DC12282DC3E555
:104428000E9BFBE50D9AFAE50C99F9E50B98F890C7
:1044380090E5E0FFE4FCFDFEC31227FC50030245B3
:104448002A908E69E030E12DA3E004F08027909057
:10445800DC12282DC3E50E9BFFE50D9AFEE50C99AD
:10446800FDE50B98FCE47BF47A01F9F8D31227FCFC
:10447800400302452A908E6AE07003124670AF0E20
:10448800AE0DAD0CAC0B9090DC122839908E69E023
:1044980054FDF0E054FEF07B017A8E796A123D6893
:1044A800908E6AE0C3948B748094805070E075F0AD
:1044B8000EA424EFF9749035F0FA7B0178E17C9032
:1044C8007D017E007F0E12256B9090E3E0640370FF
:1044D800117B017A9079E1124EEC908E69E04401EB
:1044E800F0229090E3E0640670389090E9E0FEA333
:1044F800E0FF7B017A997911909B19E4F0A374028B
:10450800F01233E47B017A9079E1909911E0FCA3F1
:10451800E0FD125007908E69E04401F022E4908E8D
:104528006AF02290991CEFF0A3EDF0A3EBF0E49071
:104538009929F0A3F090991CE024D0FFE434079067
:104548009929F0A3EFF0909929E0FEA3E0FF7C0001
:104558007D641225FB90991FECF0A3EDF09099294A
:10456800E0FEA3E0FF7C007D641225FB909921EE1C
:10457800F0A3EFF090991DE0FF909923E4F0A3EFEA
:10458800F090991EE0FF909925E4F0A3EFF0909940
:1045980023E0FEA3E064014E600B909923E0A3E0C2
:1045A80064024E701490991F74FFF5F01226509013
:1045B8009923E475F00C12265090991FE0FEA3E0B1
:1045C8007802CEC313CE13D8F9FF90991FE0FCA34D
:1045D800E02FFDEE3CFCA3E0FEA3E07802CEC3137F
:1045E800CE13D8F92DFDEC3EFC909921E0FEA3E016
:1045F80025E0FFEE33FEC3ED9FFBEC9EFAA3E0FE41
:10460800A3E02401FFE43EFE7C007D0D1225E97D38
:10461800051225FBEF2BFFEE3AFEA3E0FCA3E02FEB
:10462800FFEE3CFEEF24FFFFEE34FFA3F0A3EFF014
:10463800909927E0FEA3E0C3EE9400500C909927D0
:10464800E475F00712265080E7909927E0FEA3E072
:10465800FF7C007D071225FB909927ECF0A3EDF075
:10466800909927E0A3E0FF227BFF7A6679117813FF
:104678007C997D017E007F2812256BE490993BF0A0
:10468800A3F090993BE0FEA3E0C3944EEE94004063
:10469800030247B490993BE0A3E07803C333CE33D9
:1046A800CED8F9246CF582748E3EF583E0FF90A095
:1046B8003BE0FCA3E0FDEF6D7001EC60030247A74F
:1046C80090993BE0FEA3E07803C333CE33CED8F90C
:1046D800246DF582748E3EF583E0FEA3E0FF7B0136
:1046E8007A997913909B19E4F0A37402F01233E4D9
:1046F80090993BE0FEA3E07803C333CE33CED8F9DC
:10470800246FF582748E3EF583E0FEA3E0FF7B0103
:104718007A997915909B19E4F0A37402F01233E4A6
:10472800909915E0FEA3E0FF909913E0FCA3E06FD9
:104738007002EC6E606990993BE0FEA3E07803C3D9
:1047480033CE33CED8F9246FF582748E3EF583E0EC
:10475800FEA3E0FF7B017A997913909B19E4F0A3FB
:104768007402F0123651909917E4F0A3745AF0903D
:10477800993BE0FEA3E07803C333CE33CED8F924C7
:1047880071F582748E3EF583E0FEA3E0FF7B017A2B
:10479800997917909B19E4F0A37402F0123651909E
:1047A800993BE475F00112265002468A22909946F8
:1047B800EFF07BFF7A65798B78477C997D017E00E5
:1047C8007F2012256B7B017A9E79AB78477C997D97
:1047D800017E007F1A12256B909946E075F01BA4A4
:1047E8002464FFE435F090994BF0A3EFF0909950D2
:1047F8007401F0909946E075F006A42415F582E45A
:10480800349FF583E0FEA3E0FF7B017A9979479016
:104818009B19E4F0A37420F01236517B017A9E793B
:10482800C578477C997D017E007F1A12256B909987
:1048380046E075F01BA42464FFE435F090994BF032
:10484800A3EFF09099507401F0909946E075F00646
:10485800A42417F582E4349FF583E0FEA3E0FF7BF0
:10486800017A997947909B19E4F0A37420F01236E5
:10487800517B017A9F795178477C997D017E007F31
:104888001A12256B909946E075F01BA42464FFE486
:1048980035F090994BF0A3EFF0909946E075F01B36
:1048A800A42464FFE435F0909951F0A3EFF09099B7
:1048B80046E075F01BA4247DFFE435F0909955F08F
:1048C800A3EFF0909946E075F006A42419F582E468
:1048D800349FF583E0FEA3E0FF7B017A9979479046
:1048E8009B19E4F0A37420F0123651227BFF7A66FC
:1048F800793978107C997D017E007F0E12256B7BBB
:10490800017A997910909B19E4F0A3740CF07FA0B8
:104918007EC71233E4E490991EF0A3F090991EE04C
:10492800FEA3E0FF909910E0A3E05401FDEEEF4DE7
:10493800FF90991EEEF0A3EFF090991EE0FCA3E023
:10494800FD909912E0A3E0540125E0FFE433FEEC6A
:104958004EFEED4FFF90991EEEF0A3EFF090991EDA
:10496800E0FCA3E0FD909914E0A3E07E00540178F8
:1049780002C333CE33CED8F9FFEC4EFEED4FFF9095
:10498800991EEEF0A3EFF090991EE0FCA3E0FD90D5
:104998009916E0A3E07E0054017806C333CE33CEE7
:1049A800D8F9FFEC4EFEED4FFF90991EEEF0A3EF05
:1049B800F090991EE0FCA3E0FD909918E0A3E05464
:1049C80001C454F0FEEC4EFEEDFF90991EEEF0A3EC
:1049D800EFF090991EE0FCA3E0FD90991AE0A3E0A7
:1049E8005401C43354E0FEEC4EFEEDFF90991EEEE8
:1049F800F0A3EFF07B017A99791E909B19E4F0A35C
:104A08007402F07F227EC712365190991EE4F0A3FB
:104A1800745AF07B017A99791E909B19E4F0A3747B
:104A280002F07F827EC7123651221262527F6412D0
:104A38005EE97F10125EE91262CE1262527F651241
:104A48005EE99099167406F0909916E0D394007474
:104A5800809480401D125E94909916E0240EF58291
:104A6800E43499F583EFF012626D909916E014F032
:104A780080D6125E9490990EEFF01262861262CE82
:104A8800E4909916F0909916E0C39403748094808A
:104A9800504BE0240EF582E43499F583E0FFC454CA
:104AA8000F909917F0909916E0240EF582E4349946
:104AB800F583E0540F909918F0909917E075F00A73
:104AC800A4FFA3E02FFF909916E0240EF582E434AA
:104AD80099F583EFF0909916E004F080A890991664
:104AE8007404F0909916E0C3940774809480504B36
:104AF800E0240EF582E43499F583E0FFC4540F9066
:104B08009917F0909916E0240EF582E43499F5830C
:104B1800E0540F909918F0909917E075F00AA4FFE7
:104B2800A3E02FFF909916E0240EF582E43499F55E
:104B380083EFF0909916E004F080A890990EE0FFBA
:104B4800A3E0FDA3E0FB12452B909911EFF07B0148
:104B58007A99790E909B19E4F0A37408F07F107E7F
:104B68000012365122909946EFF0A3ECF0A3EDF035
:104B7800A3EBF07BFF7A65796B784A7C997D017E9F
:104B8800007F2012256B7B017A9E79AB784A7C994D
:104B98007D017E007F1A12256B909946E075F01B07
:104BA800A42464FFE435F090994EF0A3EFF0E4906C
:104BB8009953F0909947E0FEA3E02401FFE43E906A
:104BC800994AF0A3EFF0909946E075F006A42415F1
:104BD800F582E4349FF583E0FEA3E0FF7B017A9938
:104BE800794A909B19E4F0A37420F01236517B01A6
:104BF8007A9E79C5784A7C997D017E007F1A1225B4
:104C08006B909946E075F01BA42464FFE435F0909E
:104C1800994EF0A3EFF0909949E0FFC3740E9F906E
:104C28009953F0909947E0FEA3E02404FFE43E90F6
:104C3800994AF0A3EFF0909946E075F006A424177E
:104C4800F582E4349FF583E0FEA3E0FF7B017A99C7
:104C5800794A909B19E4F0A37420F0123651909988
:104C680047E0FEA3E02408FFE43E90994AF0A3EF52
:104C7800F0909946E075F006A42419F582E4349F73
:104C8800F583E0FEA3E0FF7B017A99794A909B19AE
:104C9800E4F0A37402F012365122C0E0C0F0C083E1
:104CA800C082C0D075D000C000C001C002C003C01F
:104CB80004C005C006C007C2AF758CBC758ACD900C
:104CC800A027E475F00112265090A027E0FEA3E08B
:104CD800D394E8EE9403401890A027E4F0A3F0A33F
:104CE80075F00112265090A025E475F001122650A7
:104CF80043C90190A033122821E47B01FAF9F81284
:104D080026FE90A03312283990A02BE475F00112EA
:104D1800265090A02D122821E4F81226FE90A02DEE
:104D280012283990A031E0FEA3E0FFE4FCFD7BDC13
:104D38007AFFF8D31227E6400A90A031E475F00113
:104D48001226500509E50970020508AF0EAE0DAD33
:104D58000CAC0BE47B01FAF9F81226FE8F0E8E0DCF
:104D68008D0C8C0BE47B64122747AC00AD01AE02BE
:104D7800AF03E4FBFAF9F8C31227FC7003430A02F5
:104D8800E47BF47A01F9F8AF0EAE0DAD0CAC0B1262
:104D98002747AC00AD01AE02AF03E4FBFAF9F8C354
:104DA8001227FC7003430A04430A01D2AFD007D08C
:104DB80006D005D004D003D002D001D000D0D0D086
:104DC80082D083D0F0D0E032E490991BF07B017A56
:104DD800A0791D909B19F0A37408F07F9C7E0012A7
:104DE80033E490A01DE0645A6003024EEBA3E06434
:104DF800A56003024EEB9099167402F0909916E0A4
:104E0800C3940874809480504EE0241DF582E434E5
:104E1800A0F583E075F00A84909917F0909916E050
:104E2800241DF582E434A0F583E075F00A84909996
:104E380018E5F0F0909917E0C454F0FFA3E02FFFB5
:104E4800909916E0240EF582E43499F583EFF090FA
:104E58009916E004F080A5909910E090A015F090C4
:104E68009911E090A016F0909912E090A017F09098
:104E78009913E090A019F0909914E090A01AF0907E
:104E88009915E090A01BF090A01FE0FFA3E0FDA300
:104E9800E0FB12452B90991AEFF0E4909919F0A3D2
:104EA800E090A018F090991A75F00A84909917F07C
:104EB80090991AE075F00A84909918E5F0F07B0152
:104EC8007AA079151253DDE490A01DF0A3F07B01C0
:104ED8007AA0791D909B19F0A37408F07F9C7E003E
:104EE800123651229099131228A2E4909918F09042
:104EF80099131228829000011225AAFF909918E0B0
:104F0800FE04F074192EF582E43499F583EFF090DD
:104F18009918E0FF04F074192FF582E43499F583A9
:104F28007403F090991312288290000A1226A7E5BC
:104F3800F0FF909918E0FE04F074192EF582E4341D
:104F480099F583EFF090991312288290000A12269F
:104F5800A7FF909918E0FE04F074192EF582E43446
:104F680099F583EFF0909913122882900003122587
:104F7800AAFFE4909918E0FE04F074192EF582E473
:104F88003499F583E4F09099131228829000031263
:104F980025AAFF909918E0FE04F074192EF582E412
:104FA8003499F583EFF07B017A997919909918E093
:104FB800FD7C001258A3909916EEF0A3EFF090999B
:104FC80016E0FEA3E0EEFFA3E0FE04F074192EF550
:104FD80082E43499F583EFF0909916E0A3E0FFA3FB
:104FE800E0FE04F074192EF582E43499F583EFF0AD
:104FF8007B017A997919909918E0FD125CD5229075
:1050080099131228A2909916ECF0A3EDF0E4909968
:105018001AF09099131228829000011225AAFF9085
:10502800991AE0FE04F0741B2EF582E43499F58396
:10503800EFF090991AE0FF04F0741B2FF582E43426
:1050480099F5837406F090991312288290000A1239
:1050580026A7E5F0FF90991AE0FE04F0741B2EF5E0
:1050680082E43499F583EFF0909913122882900026
:105078000A1226A7FF90991AE0FE04F0741B2EF579
:1050880082E43499F583EFF0909916E0FEA3E0EE00
:10509800FF90991AE0FE04F0741B2EF582E434990F
:1050A800F583EFF0909916E0A3E0FF90991AE0FEDF
:1050B80004F0741B2EF582E43499F583EFF07B013C
:1050C8007A99791B90991AE0FD7C001258A390995F
:1050D80018EEF0A3EFF0909918E0FEA3E0EEFFA31E
:1050E800E0FE04F0741B2EF582E43499F583EFF0AA
:1050F800909918E0A3E0FFA3E0FE04F0741B2EF5DE
:1051080082E43499F583EFF07B017A99791B9099C1
:105118001AE0FD125CD5227E007F207D007B017A9B
:10512800997916122AA8E4909936F0A3F090993646
:10513800E0FEA3E0C3EE94015038909936E0A3E076
:10514800C4F8540FC868FFEEC454F048FEE42FFFBB
:10515800EE3410FE7B017A997916909B19E4F0A33E
:105168007420F0123651909936E475F001122650E9
:1051780080BB909B1712284500000000909B1B7471
:1051880010F0A3E4F0FD7C107FA512581EE490A057
:105198003FF0A3F07B017AA0793F909B19F0A374AC
:1051A80002F07F007E031236517B017AA0793F908E
:1051B8009B19E4F0A37402F0FF7E03123651909914
:1051C8001A7407F0A374FEF07B017A99791A909B00
:1051D80019E4F0A37402F07F087E501236517B0167
:1051E8007A99791A909B19E4F0A37402F07F097EEA
:1051F8005012365190991A7402F0A3748AF07B0108
:105208007A99791A909B19E4F0A37402F07F117EC1
:105218005012365122909EF4E0FEA3E07803C33387
:10522800CE33CED8F92400FFEE3420FEE4FCFD9006
:105238009B17122839909B1BE4F0A37408F07D009B
:105248007C307FA512581E909EF4E475F00112265A
:1052580050909EF4E0FEA3E0C3EE94024007E49071
:105268009EF4F0A3F0909EF8E0FEA3E0C3EE940253
:105278004028909EF87402F0A3E4F0909EF675F032
:1052880001122650909EF6E0FEA3E0C3EE94024081
:1052980013E4909EF6F0A3F0800A909EF8E475F06F
:1052A80001122650909EF2745AF0A374A5F07B0167
:1052B8007A9E79F2909B19E4F0A37408F07F007E3F
:1052C80030123651909EF4E0FEA3E07803C333CE4B
:1052D80033CED8F92400FFEE3420FEE4FCFD909B89
:1052E80017122839909B1BE4F0A37404F07D007C0E
:1052F800307FA512581E227B017A997916909B1946
:10530800E4F0A37404F07F087E501233E4909918F7
:10531800E0FEA3E0FF909916E0FCA3E06F7002ECBA
:105328006E70030253DC7B017A997918909B19E41B
:10533800F0A37402F07F097E50123651909916E05E
:10534800FEA3E0FF90A03FE0FCA3E02FFFEC3E901F
:10535800991AF0A3EFF090991AE0FEA3E0C394FE27
:10536800EE9407400B90991A74F875F002122650C3
:105378007B017A99791A909B19E4F0A37402F07F63
:10538800007E031236517B017A99791A909B19E4B1
:10539800F0A37402F0FF7E03123651909916E0FED6
:1053A800A3E07802CEC313CE13D8F9FF909916EE76
:1053B800F0A3EFF0909916E475F08F1226507B0158
:1053C8007A997916909B19E4F0A37402F07F117E04
:1053D800501236512290991C1228A21262527F64F0
:1053E800125EE97F30125EE9E4FF125EE91262CED6
:1053F8001262527F64125EE97F1C125EE97F4812D6
:105408005EE9E4FF125EE97F40125EE97F10125EFA
:10541800E91262CE1262527F64125EE97F10125E58
:10542800E990991C1228829000061225AAFF125EA4
:10543800E990991C1228829000051225AAFF125E95
:10544800E990991C1228829000041225AAFF125E86
:10545800E990991C1228829000031225AAFF125E77
:10546800E990991C1228829000021225AAFF125E68
:10547800E990991C1228829000011225AAFF125E59
:10548800E990991C122882122591FF125EE9126296
:10549800CE1262527F64125EE97F1E125EE9E4FF5B
:1054A800125EE97F10125EE91262CE22909B1712FB
:1054B800284500003000909B1BE4F0A3740AF07D9F
:1054C800007C307F5A12581E7B017A9F79F6909B98
:1054D80019E4F0A37414F07F007E301233E4E490F2
:1054E800990EF090990EE0C3940674809480506EE3
:1054F800E025E025E024F6F582E4349FF5831228C0
:1055080021E4FBFAF9F8C31227FC602290990EE017
:1055180025E025E024F6F582E4349FF5831228215E
:105528007B3F7A42790F7800C31227FC5028909964
:105538000EE025E025E024D8F582E4349FF58312B7
:10554800282190990EE025E025E024F6F582E43440
:105558009FF58312283990990EE004F080857B012D
:105568007A9F79F6909B19E4F0A37414F07FA07EDB
:10557800A6123651221262527F64125EE97F1D1212
:105588005EE91262CE1262527F65125EE9125E9483
:1055980090990EEFF012626D125E9412628612629A
:1055A800CE90990EE054026402600302563C1262E7
:1055B800527F64125EE97F30125EE9E4FF125EE911
:1055C8001262CE1262527F64125EE97F1C125EE99B
:1055D8007F48125EE9E4FF125EE97F40125EE97FD0
:1055E80010125EE91262CE1262527F64125EE97F87
:1055F80010125EE9E4FF125EE9E4FF125EE9E4FFDF
:10560800125EE97F01125EE97F01125EE97F0112F5
:105618005EE97F17125EE91262CE1262527F64124F
:105628005EE97F1E125EE9E4FF125EE97F10125EFA
:10563800E91262CE227B017A997910909B19E4F0E5
:10564800A37410F07F207EA61233E4909910E0A393
:10565800E025E025E024F6F582E4349FF58312285E
:105668002190991412282DC31227FC60087F077E09
:1056780000125F872290991C1228219099181228ED
:105688002DC31227FC60087F087E00125F872290D6
:105698009918122821909910E0A3E025E025E0242C
:1056A800F6F582E4349FF58312283912616BE49091
:1056B8009924F0909924E0C3940A74809480501837
:1056C800E025E02410F582E43499F583E4F0A3F0B2
:1056D800909924E004F080DB7B017A997910909B03
:1056E80019E4F0A3740CF07F227EA61236512275BD
:1056F8009401759502758E0075930075C87075C90B
:105708006075F800787FE4F6D8FD7581100257536C
:10571800020086E493A3F8E493A34003F68001F221
:1057280008DFF48029E493A3F85407240CC8C33392
:10573800C4540F4420C8834004F456800146F6DF61
:10574800E4800B0102040810204080900100E47EF0
:10575800019360BCA3FF543F30E509541FFEE49356
:10576800A360010ECF54C025E060A840B8E493A31D
:10577800FAE493A3F8E493A3C8C582C8CAC583CA48
:10578800F0A3C8C582C8CAC583CADFE9DEE780BE00
:10579800C0E0C0F0C083C082C0D075D000C000C0D7
:1057A80004C006C007909B20E4F0C2AFE59B30E040
:1057B8003DE59CF0E0FF909DA5E0FCA3E024ABF55F
:1057C80082749D3CF583EFF0909DA5E475F001127D
:1057D8002650539BFE539BFE909DA5E0FEA3E0C37D
:1057E8009480EE94004007909DA5E4F0A3F0E59B1B
:1057F80030E10B539BFD539BFD909DA4E4F043C9FE
:1058080001D2AFD007D006D004D000D0D0D082D0FB
:1058180083D0F0D0E032909B14EFF0A3ECF0A3ED2E
:10582800F0E4F5F1F5F275F30475F40175F88F30CD
:10583800FCFD909B14E0F5FA909B17122821781034
:1058480012280D8FFB909B17122821780812280D1B
:105858008FFC909B17122821EF54FEFFE48FFDD296
:10586800FE20FEFD909B15E0FEA3E0EEF5FA909B6E
:1058780015E0A3E054FEF5FB909B1BE0FEA3E0EED1
:10588800F5FC909B1BE0A3E054FEF5FDD2FE20FE44
:10589800FDE4F5F87F04FE125DE32290992F1228AB
:1058A800A2909932ECF0A3EDF0A374FFF0A3F0906E
:1058B800993274FFF5F012266645F0604D90992FE5
:1058C800E475F00112288B122591FF909934E06F4E
:1058D800FF909936E4F0A3EFF0909936E0FEA3E04C
:1058E8002423F582749B3EF583E0FF909935E06FA1
:1058F800909934F0909936E0A3E02423F582749CC3
:105908003EF583E0909935F080A5909934E0FEA3A8
:10591800E0FDEEEDFF22C0E0C0F0C083C082C0D041
:1059280075D000C000C004C006C007909B21E4F0F9
:10593800C2AFE59754016401703AE59FF0E0FF902B
:105948009DA7E0FCA3E0242BF582749E3CF583EF31
:10595800F0909DA7E475F0011226505397FE909D94
:10596800A7E0FEA3E0C39480EE94004007909DA7B3
:10597800E4F0A3F043C901D2AFD007D006D004D0D9
:1059880000D0D0D082D083D0F0D0E032C0E0C0F0D8
:10599800C083C082C0D075D000C000C004C006C09B
:1059A80007909B22E4F0C2AFE5AB54016401703A62
:1059B800E5ADF0E0FF909DA9E0FCA3E02423F5828B
:1059C800749D3CF583EFF0909DA9E475F0011226D3
:1059D8005053ABFE909DA9E0FEA3E0C39480EE94E3
:1059E800004007909DA9E4F0A3F043C901D2AFD0CD
:1059F80007D006D004D000D0D0D082D083D0F0D049
:105A0800E0327BFF7A66794778107C997D017E00C9
:105A18007F0412256B7B017A997910909B19E4F029
:105A2800A37404F07F207EA41233E4909F6DE0FFFE
:105A38007B017A997910125A7EEF600D12604C90B2
:105A48009F6DE0909FD4F080077F057E00125F87EE
:105A58007E007F047D007B017A997910122AA87B49
:105A6800017A997910909B19E4F0A37404F07F20CF
:105A78007EA412365122909914EFF0A31228A29016
:105A88009914E070037F0122909914E0909918F01E
:105A9800909918E0C39406748094805040E075F0A3
:105AA80004A424F6F9749F35F0FA7B01C003C00200
:105AB800C001909915122882A801AC02AD03D0014B
:105AC800D002D0037E007F04122A84EF3395E04F82
