:10000000026850020006C2AFD2AF32025DA3C2AF97
:10001000D2AF3202000EC2AF1200661272E21200BC
:10002000F312737543C902D2AF223202738A7B0185
:100030007AA2794F909EFBE4F0A37414F07F007EC7
:10004000301246E3909EF9122F9100003000909EEE
:10005000FDE4F0A3740AF07D007C307FA512006EF1
:0A00600022222202002A1272382226
:10006B00026C73909EF6EFF0A3ECF0A3EDF0E4F5C9
:10007B00F1F5F275F30475F40175F88F30FCFD9012
:10008B009EF6E0F5FA909EF9122F6D7810122F590B
:10009B008FFB909EF9122F6D7808122F598FFC90C1
:1000AB009EF9122F6DEF54FEFFE48FFDD2FE20FE62
:1000BB00FD909EF7E0FEA3E0EEF5FA909EF7E0A32D
:1000CB00E054FEF5FB909EFDE0FEA3E0EEF5FC9008
:1000DB009EFDE0A3E054FEF5FDD2FE20FEFDE4F50F
:0C00EB00F87F04FE126E412212731122F5
:1000F800FFFF4457494E543542A2A6000041A2A230
:100108000041A2A30042A2A4000042A2AA00004209
:10011800A2A800005AA1023FC90069006400008635
:10012800000A2D2D203A3A000000000000000000CF
:10013800005AA11C3FCC01270064000086000A2D4C
:100148002D2F3A3A000000000000000000005AA1DC
:10015800A83FD001E50064000001E5006402AD009D
:100168007D00100017181802000000603CA16C40C8
:100178000040A04140401040B04150402040C041A4
:1001880060403040D04170404040E04180405040A5
:10019800F041904060410041A04070411041B040A2
:1001A80080412041C04090413041D054A15841E0A5
:1001B80041F842104228424042584270428842A0C8
:1001C80042B848A149000000000000000042A151C7
:1001D800000042A156000042A153000041A1550071
:1001E80041A1480042A1360005498E87B2E2CAD42F
:1001F800BABAD7D6006E608E9049443030BBD8B7B3
:10020800E7B8DFCEC20000000000000000000000D8
:1002180000000000000000000049443031BBD8B79E
:10022800E7B5CDCEC20000000000000000000000CD
:1002380000000000000000000049443032BBD8B77D
:10024800E7B8DFCAAA0000000000000000000000B4
:1002580000000000000000000049443033BBD8B75C
:10026800E7B5CDCAAA0000000000000000000000A9
:1002780000000000000000000049443034CBCDB736
:10028800E7B8DFCEC2000000000000000000000058
:1002980000000000000000000049443035CBCDB715
:1002A800E7B5CDCEC200000000000000000000004D
:1002B80000000000000000000049443036CBCDB7F4
:1002C800E7B8DFCAAA000000000000000000000034
:1002D80000000000000000000049443037CBCDB7D3
:1002E800E7B5CDCAAA000000000000000000000029
:1002F80000000000000000000049443038B1A3C1EC
:10030800F4000000000000000000000000000000F1
:1003180000000000000000000049443039C4DAB28F
:10032800BFCDA8D0C50000000000000000000000FC
:10033800000000000000000000494431304E5443E2
:10034800D2ECB3A300000000000000000000000091
:1003580000000000000000000049443131B7E7BB4D
:10036800FA31B9CAD5CF0000000000000000000033
:1003780000000000000000000049443132B7E7BB2C
:10038800FA32B9CAD5CF0000000000000000000012
:1003980000000000000000000049443133B7E7BB0B
:1003A800FA33B9CAD5CF00000000000000000000F1
:1003B80000000000000000000049443134B7E7BBEA
:1003C800FA34B9CAD5CF00000000000000000000D0
:1003D80000000000000000000049443135B7E7BBC9
:1003E800FA35B9CAD5CF00000000000000000000AF
:1003F80000000000000000000049443136CDE2B79B
:10040800E7BBFAB9CAD5CF00000000000000000021
:1004180000000000000000000049443137B7E7BB86
:10042800FA31D4CBD0D0B3ACCAB100000000000080
:1004380000000000000000000049443138B7E7BB65
:10044800FA32D4CBD0D0B3ACCAB10000000000005F
:1004580000000000000000000049443139B7E7BB44
:10046800FA33D4CBD0D0B3ACCAB10000000000003E
:1004780000000000000000000049443230B7E7BB2C
:10048800FA34D4CBD0D0B3ACCAB10000000000001D
:1004980000000000000000000049443231B7E7BB0B
:1004A800FA35D4CBD0D0B3ACCAB1000000000000FC
:1004B80000000000000000000049443232CDE2B7DD
:1004C800E7BBFAD4CBD0D0B3ACCAB100000000006F
:1004D80000000000000000000049443233B8DFD1BA
:1004E800B931B8E6BEAF000000000000000000000F
:1004F80000000000000000000049443234B8DFD199
:10050800B931CBF8CBC000000000000000000000AB
:1005180000000000000000000049443235B5CDD18C
:10052800B931B8E6BEAF00000000000000000000CE
:1005380000000000000000000049443236B5CDD16B
:10054800B931CBF8CBC0000000000000000000006B
:1005580000000000000000000049443237C5C5C64D
:10056800F8CEC2B6C831B8E6BEAF00000000000041
:1005780000000000000000000049443238C5C5C62C
:10058800F8CEC2B6C831CBF8CBC0000000000000DE
:1005980000000000000000000049443239B6CCD603
:1005A800DCC6DA31B8E6BEAF00000000000000008B
:1005B80000000000000000000049443330D1B9BBFE
:1005C800FA31D4CBD0D0B3ACCAB1000000000000DF
:1005D80000000000000000000049443331B8DFD1BA
:1005E800B932B8E6BEAF000000000000000000000D
:1005F80000000000000000000049443332B8DFD199
:10060800B932CBF8CBC000000000000000000000A9
:1006180000000000000000000049443333B5CDD18C
:10062800B9D1B9C1A6B8E6BEAF000000000000000D
:1006380000000000000000000049443334B5CDD16B
:10064800B932CBF8CBC00000000000000000000069
:1006580000000000000000000049443335C5C5C64D
:10066800F8CEC2B6C832B8E6BEAF0000000000003F
:1006780000000000000000000049443336C5C5C62C
:10068800F8CEC2B6C832CBF8CBC0000000000000DC
:1006980000000000000000000049443337B6CCD603
:1006A800DCC6DA32B8E6BEAF000000000000000089
:1006B80000000000000000000049443338D1B9BBF5
:1006C800FA32D4CBD0D0B3ACCAB1000000000000DD
:1006D80000000000000000000049443339BCD3CAC0
:1006E800AAC6F7B5E7C1F7B9FDB4F30000000000EA
:1006F80000000000000000000049443430BCD3CAA8
:10070800AAC6F7B8DFCBAECEBB00000000000000E1
:1007180000000000000000000049443431BCD3CA86
:10072800AAC6F7C8B1CBAE00000000000000000068
:1007380000000000000000000049443432BCD3CA65
:10074800AAC6F7D4CBD0D0B3ACCAB1000000000021
:1007580000000000000000000049443433BCD3C846
:10076800C8C6F7B8E6BEAF000000000000000000F1
:1007780000000000000000000049443434BCD3C825
:10078800C8C6F731B3ACCAB10000000000000000D1
:1007980000000000000000000049443435BCD3C804
:1007A800C8C6F732B3ACCAB10000000000000000B0
:1007B80000000000000000000049443436B6CFB500
:1007C800E7D6D8C6F40000000000000000000000D2
:1007D80000000000000000000049443437B5E7D4A9
:1007E800B4CFE0D0F2B4EDCEF3000000000000007A
:1007F80000000000000000000049443438B5E7D488
:10080800B4C6B5C2CAC6ABB8DF000000000000001D
:1008180000000000000000000049443439B5E7D466
:10082800B4C6B5C2CAC6ABB5CD0000000000000012
:100838000000000000000000004944353041CFE0CE
:10084800B9FDD1B900000000000000000000000060
:100858000000000000000000004944353142CFE0AC
:10086800B9FDD1B900000000000000000000000040
:100878000000000000000000004944353243CFE08A
:10088800B9FDD1B920000000000000000000000000
:100898000000000000000000004944353341CFE06B
:1008A800C7B7D1B900000000000000000000000038
:1008B8000000000000000000004944353442CFE049
:1008C800C7B7D1B900000000000000000000000018
:1008D8000000000000000000004944353543CFE027
:1008E800C7B7D1B9000000000000000000000000F8
:1008F8000000000000000000004944353641CFE008
:10090800C8B1CFE0000000000000000000000000B7
:100918000000000000000000004944353742CFE0E5
:10092800C8B1CFE000000000000000000000000097
:100938000000000000000000004944353843CFE0C3
:10094800C8B1CFE000000000000000000000000077
:1009580000000000000000000049443539C6F8C115
:10096800F7B6AACAA7B8E6BEAF00000000000000AC
:1009780000000000000000000049443630B9FDC204
:10098800CBCDF8D4CBD0D0B3ACCAB10000000000B6
:1009980000000000000000000049443631B9FDC2E3
:1009A800CBCDF8B6C2B8E6BEAF000000000000002C
:1009B80000000000000000000049443632D4B6B3FD
:1009C800CCB9D8BBFAB8E6BEAF0000000000000002
:1009D80000000000000000000049443633D2E7CB95
:1009E800AEB8E6BEAF000000000000000000000046
:1009F80000000000000000000049443634C8BABFB7
:100A0800D8CDA8D0C5D2ECB3A300000000000000E8
:100A180000000000000000000049443635B1E4C67B
:100A2800B5C6F7B9CAD5CF00000000000000000025
:100A380000000000000000000049443636D7A2CB71
:100A4800AEB5E7B5BCC2CAB8DF00000000000000C0
:100A580000000000000000000049443637D7A2CB50
:100A6800AEB5E7B5BCC2CAB5CD00000000000000B5
:100A780000000000000000000049443638D1CCCE08
:100A8800EDB8E6BEAF000000000000000000000066
:100A980000000000000000000049443639D3C3BB01
:100AA800A7D7D4B6A8D2E5B8E6BEAF0000000000CC
:100AB80000000000000000000049443730B5E7D4CA
:100AC800B4D2ECB3A3000000000000000000000056
:100AD80000000000000000000049443731C8EBCB9B
:100AE800AEB8DFCEC2000000000000000000000029
:100AF80000000000000000000049443732CBAEB7C8
:100B0800A7B9CAD5CF00000000000000000000000F
:100B180000000000000000000049443733C5CCB98C
:100B2800DCB6CFC1F7B8E6BEAF0000000000000099
:100B380000000000000000000049443734B7E7BB5C
:100B4800FA36B9CAD5CF0000000000000000000046
:100B580000000000000000000049443735B7E7BB3B
:100B6800FA37B9CAD5CF0000000000000000000025
:100B780000000000000000000049443736B7E7BB1A
:100B8800FA38B9CAD5CF0000000000000000000004
:100B980000000000000000000049443737B7E7BBF9
:100BA800FA36B3ACCAB10000000000000000000033
:100BB80000000000000000000049443738B7E7BBD8
:100BC800FA37B3ACCAB10000000000000000000012
:100BD80000000000000000000049443739B7E7BBB7
:100BE800FA38B3ACCAB100000000000000000000F1
:100BF80000000000000000000049443830C5C5CBA3
:100C0800AEB8DFCBAECEBB00000000000000000095
:100C180000000000000000000049443831BCD3CA7D
:100C2800AAC6F7D2ECB3A300000000000000000041
:100C380000000000000000000049443832B7E7D146
:100C4800B9B9FDB5CD0000000000000000000000AB
:100C580000000000000000000049443833BAECCD21
:100C6800E2BCD3CAAAB9FDC8C80000000000000051
:100C780000000000000000000049443834D1B9BB2E
:100C8800FA31B8DFD1B90000000000000000000010
:100C980000000000000000000049443835B7E7BBF9
:100CA800FAB5E7C1F7B9FDB4F30000000000000091
:100CB80000000000000000000049443836B8A8C20F
:100CC800B7C8EBCBAEB8DFCEC20000000000000012
:100CD8000000000000000000004944383745455630
:100CE800B8E6BEAF000000000000000000000000F1
:100CF80000000000000000000049443838BDD3CB94
:100D0800AEC5CCD2E7CBAE0000000000000000006A
:100D180000000000000000000049443839C5C5C67D
:100D2800F8B8DFCEC200000000000000000000009C
:100D380000000000000000000049443930C9E8B153
:100D4800B8CAB9D3C3B3ACCAB100000000000000F0
:100D580000000000000000000049443931B1A3C17F
:100D6800F400000000000000000000000000000087
:100D780000000000000000000049443932B1A3C15E
:100D8800F400000000000000000000000000000067
:100D980000000000000000000049443933B1A3C13D
:100DA800F400000000000000000000000000000047
:100DB80000000000000000000049443934B1A3C11C
:100DC800F400000000000000000000000000000027
:100DD80000000000000000000049443935B1A3C1FB
:100DE800F400000000000000000000000000000007
:100DF80000000000000000000049443936B1A3C1DA
:100E0800F4000000000000000000000000000000E6
:100E180000000000000000000049443937BBD8B783
:100E2800E7CEC2CAAAB6C8B4ABB8D0C6F7000000AD
:100E380000000000000000000049443938CBCDB75D
:100E4800E7CEC2CAAAB6C8B4ABB8D0C6F70000008D
:100E580000000000000000000049443939BCD3CA32
:100E6800AAB0E5D2ECB3A300000000000000000027
:100E78000000000000000000004944313030C6C1C5
:100E8800C4BBD2D1CBF8B6A8000000000000000017
:100E98000000000000000000004944313031D2BB9E
:100EA800CCECBDABCBF8B6A80000000000000000F9
:100EB8000000000000000000004944313032C8FD45
:100EC800CCECBDABCBF8B6A80000000000000000D9
:100ED8000000000000000000004944313033C6DF44
:100EE800CCECBDABCBF8B6A80000000000000000B9
:100EF8000000000000000000004944313034CAAE50
:100F0800CEE5CCECBDABCBF8B6A8000000000000E5
:100F18000000000000000000004944313035C8FDE1
:100F2800CAAECCECBDABCBF8B6A800000000000000
:100F38000000000000000000004944313036B5E7E9
:100F4800D4B432CFE0D0F2B4ED00000000000000CD
:100F58000000000000000000004944313037B5E7C8
:100F6800D4B432C6B5C2CAB8DF0000000000000021
:100F78000000000000000000004944313038B5E7A7
:100F8800D4B432C6B5C2CAB5CD0000000000000016
:100F98000000000000000000004944313039B5E786
:100FA800D4B43241CFE0B9FDD1B90000000000004F
:100FB8000000000000000000004944313130B5E76E
:100FC800D4B43242CFE0B9FDD1B90000000000002E
:100FD8000000000000000000004944313131B5E74D
:100FE800D4B43243CFE0B9FDD1B90000000000000D
:100FF8000000000000000000004944313132B5E72C
:10100800D4B43241CFE0C7B7D1B900000000000026
:101018000000000000000000004944313133B5E70A
:10102800D4B43242CFE0C7B7D1B900000000000005
:101038000000000000000000004944313134B5E7E9
:10104800D4B43243CFE0C7B7D1B9000000000000E4
:1010580000000000000000000047A2790000000026
:1010680000000048A288000000000000000048A21C
:1010780080000000000000000052A267000000008D
:10108800000000000000000000000000000042A274
:1010980092000042A294000042A290000044A29E46
:1010A8000000000042A296000044A2980000000040
:1010B80002080000040B0000000042A29C0000018E
:1010C8000A0061009F0200C1814001C0804101C047
:1010D800804100C1814001C0804100C1814000C100
:1010E800814001C0804101C0804100C1814000C1F0
:1010F800814001C0804100C1814001C0804101C0E0
:10110800804100C1814001C0804100C1814000C1CF
:10111800814001C0804100C1814001C0804101C0BF
:10112800804100C1814000C1814001C0804101C0AF
:10113800804100C1814001C0804100C1814000C19F
:10114800814001C0804101C0804100C1814000C18F
:10115800814001C0804100C1814001C0804101C07F
:10116800804100C1814000C1814001C0804101C06F
:10117800804100C1814001C0804100C1814000C15F
:10118800814001C0804100C1814001C0804101C04F
:10119800804100C1814001C0804100C1814000C13F
:1011A800814001C0804101C0804100C1814000C12F
:1011B800814001C0804100C1814001C0804101C01F
:1011C800804100C181406100A00200C0C101C30389
:1011D80002C2C60607C705C5C404CC0C0DCD0FCF87
:1011E800CE0E0ACACB0BC90908C8D81819D91BDBF7
:1011F800DA1A1EDEDF1FDD1D1CDC14D4D515D71747
:1012080016D6D21213D311D1D010F03031F133F3F6
:10121800F23236F6F737F53534F43CFCFD3DFF3F46
:101228003EFEFA3A3BFB39F9F83828E8E929EB2B76
:101238002AEAEE2E2FEF2DEDEC2CE42425E527E706
:10124800E62622E2E323E12120E0A06061A163A376
:10125800A26266A6A767A56564A46CACAD6DAF6F06
:101268006EAEAA6A6BAB69A9A86878B8B979BB7B76
:101278007ABABE7E7FBF7DBDBC7CB47475B577B7C6
:10128800B67672B2B373B17170B0509091519353F6
:10129800529296565797559594549C5C5D9D5F9FC6
:1012A8009E5E5A9A9B5B99595898884849894B8BF6
:1012B8008A4A4E8E8F4F8D4D4C8C44848545874786
:1012C80046868242438341818040418E02004183A9
:1012D8008F00448E830000000041838A0044838B82
:1012E800000000006A64839E5A020303C8000000DD
:1012F800A020031C00FF5A020301C8010000A0231C
:10130800031900FF5A020601C803A084A0240100A3
:1013180000005A020301C8010000A025010400FFD3
:101328005A020601C802A085A025010400FF5A023E
:101338000303C8010000A0A0011A00FF5A02030419
:10134800C8000000A0A3033B00FF5A020302C80123
:10135800000AAA00032600FF5A020308C801000A6F
:10136800AA02034100FF5A020301C801000AAA0A9F
:10137800036F00FF5A020301C801000AAA0B037792
:1013880000FF5A02031FC801000BAB20038C00FFAB
:101398005A020601C803AC80AC200000000C5A02B7
:1013A8000306C800000DAEA0032000FF5A02030484
:1013B800C803B300B320011700135A020305C8037A
:1013C800B300B324011C00135A020601C803B380FA
:1013D800B320011700135A020601C803B381B321D1
:1013E800011800135A020601C803B382B322011977
:1013F80000135A020601C803B383B323011A00136A
:101408005A020601C803B384B324011C00135A020C
:101418000601C803B385B325011D00135A0206014E
:10142800C803B386B326011E00135A020601C80377
:10143800B387B327011F00135A020601C803B388F4
:10144800B328012000135A020301C803B400B420D2
:10145800013B00145A020301C803B400B421015827
:1014680000145A020306C803B400B422015B001436
:101478005A020301C803B400B428016200145A02D6
:101488000301C803B400B429019E00145A020301E1
:10149800C803B400B42A01A000145A020301C80307
:1014A800B400B42B01D300145A020301C803B400DA
:1014B800B42C01D600145A020601C803B480B42023
:1014C800013B00145A020601C803B481B421015833
:1014D80000145A020601C803B482B422015B001446
:1014E8005A020601C803B483B423015C00145A02EB
:1014F8000601C803B484B424015D00145A0206012D
:10150800C803B485B425015E00145A020601C80355
:10151800B486B426015F00145A020601C803B487D2
:10152800B427016000145A020601C803B488B4281D
:10153800016200145A020601C803B489B429019E45
:1015480000145A020601C803B48AB42A01A0001480
:101558005A020601C803B48BB42B01D300145A02F3
:101568000601C803B48CB42C01D600145A02030136
:10157800C803B500B520015900155A020601C80371
:10158800B580B520015900155A020303C803B700F6
:10159800B720013E00175A020305C803B700B72356
:1015A800014300175A020601C803B780B720013E5D
:1015B80000175A020601C803B781B721013F001777
:1015C8005A020601C803B782B722014000175A021F
:1015D8000601C803B783B723014300175A0206015F
:1015E800C803B784B724014400175A020601C80388
:1015F800B785B725014500175A020601C803B78603
:10160800B726014600175A020601C803B787B7274D
:10161800014700175A020307C803B800B820016938
:1016280000185A020302C803B800B827017100184D
:101638005A020301C803B800B829017400185A02F5
:101648000301C803B800B82A017B00185A02030135
:10165800C803B800B82B022A00185A020601C803AA
:10166800B880B820016900185A020601C803B88179
:10167800B821016A00185A020601C803B882B822C4
:10168800016B00185A020601C803B883B823016C1D
:1016980000185A020601C803B884B824016D00185E
:1016A8005A020601C803B885B825016E00185A0207
:1016B8000601C803B886B826016F00185A02060149
:1016C800C803B887B827017100185A020601C80371
:1016D800B888B828017200185A020601C803B889E8
:1016E800B829017400185A020601C803B88AB82A32
:1016F800017B00185A020601C803B88BB82B022ACE
:1017080000185A020315C803BC00BC2001B0001C15
:101718005A020601C803BC80BC2001B0001C5A0252
:101728000601C803BC81BC2101B1001C5A02060194
:10173800C803BC82BC2201B2001C5A020601C803BD
:10174800BC83BC2301B3001C5A020601C803BC8435
:10175800BC2401B4001C5A020601C803BC85BC2580
:1017680001B5001C5A020601C803BC86BC2601B696
:10177800001C5A020601C803BC87BC2701B7001C1D
:101788005A020601C803BC88BC2801B8001C5A02CA
:101798000601C803BC89BC2901B9001C5A0206010C
:1017A800C803BC8ABC2A01BA001C5A020601C80335
:1017B800BC8BBC2B01BB001C5A020601C803BC8CA5
:1017C800BC2C01BC001C5A020601C803BC8DBC2DF0
:1017D80001BD001C5A020601C803BC8EBC2E01BE06
:1017E800001C5A020601C803BC8FBC2F01BF001C95
:1017F8005A020601C803BC90BC3001C0001C5A0242
:101808000601C803BC91BC3101C1001C5A02060183
:10181800C803BC92BC3201C2001C5A020601C803AC
:10182800BC93BC3301C3001C5A020601C803BC9414
:10183800BC3401C4001C5A020301C803BD00BD200A
:1018480001C5001D5A020601C803BD80BD2001C59F
:10185800001D5A020601C803BD81BD2101C6001D35
:101868005A020601C803BD82BD2201C7001D5A02E3
:101878000303C803BE00BE200232001E5A02030141
:10188800C803BE00BE230236001E5A020301C80365
:10189800BE00BE240274001E5A020303C803BE0021
:1018A800BE250276001E5A020301C803BE00BE28E8
:1018B8000280001E5A020301C803BE00BE29028628
:1018C800001E5A020302C803BE00BE2A0289001E77
:1018D8005A020601C803BE80BE200232001E5A0208
:1018E8000601C803BE81BE210233001E5A0206014A
:1018F800C803BE82BE220234001E5A020601C80373
:10190800BE83BE230236001E5A020601C803BE84E7
:10191800BE240274001E5A020601C803BE85BE25F5
:101928000276001E5A020601C803BE86BE2602774A
:10193800001E5A020601C803BE87BE270278001E91
:101948005A020601C803BE88BE280280001E5A0239
:101958000601C803BE89BE290286001E5A02060176
:10196800C803BE8ABE2A0289001E5A020601C8039D
:10197800BE8BBE2B028A001E5A020302C803BF0098
:10198800BF200102001F5A020301C803BF00BF2283
:101998000107001F5A020301C803BF00BF2301A5A6
:1019A800001F5A020601C803BF80BF200102001FA2
:1019B8005A020601C803BF81BF210103001F5A0252
:1019C8000601C803BF82BF220107001F5A02060191
:1019D800C803BF83BF2301A5001F5A020301C80320
:1019E800C700C72001AA00275A020301C803C7007D
:1019F800C72101AC00275A020601C803C780C720C7
:101A080001AA00275A020601C803C781C72101ACF1
:101A180000275A020601C803C782C722020D002701
:101A28005A020301C8010027C723037500FF5A02A1
:101A38000301C8010027C724037700FF5A020301E6
:101A4800C803CF00CF200108002F5A020302C803A1
:101A5800CF00CF21010A002F5A020304C803CF0088
:101A6800CF23010D002F5A020301C803CF00CF274F
:101A78000141002F5A020301C803CF00CF28015AA1
:101A8800002F5A020301C803CF00CF2901A7002F56
:101A98005A020601C803CF80CF200108002F5A023E
:101AA8000601C803CF81CF21010A002F5A0206017F
:101AB800C803CF82CF22010B002F5A020601C803A8
:101AC800CF83CF23010D002F5A020601C803CF840C
:101AD800CF24010E002F5A020601C803CF85CF2557
:101AE800010F002F5A020601C803CF86CF26011026
:101AF800002F5A020601C803CF87CF270141002FC4
:101B08005A020601C803CF88CF28015A002F5A026B
:101B18000601C803CF89CF2901A7002F5A02060161
:101B2800C803CF8ACF2A023B002F5A020301C803F9
:101B3800D500D52001D200355A020301C803D500CB
:101B4800D52101DD00355A020301C803D500D5228D
:101B580001DF00355A020302C803D500D5230271FC
:101B680000355A020601C803D580D52001D20035B8
:101B78005A020601C803D581D52101DD00355A0274
:101B88000601C803D582D52201DF00355A020601B5
:101B9800C803D583D523027100355A020601C8034C
:101BA800D584D524027200355A020302C8010036D2
:101BB800D520034100FF5A020301C8010036D5228F
:101BC800036F00FF5A020301C8010036D5230377CB
:101BD80000FF5A020301C803D900D92001130039B4
:101BE8005A020301C803D900D921011600395A0243
:101BF8000305C803D900D922012100395A02060178
:101C0800C803D980D920011300395A020601C80334
:101C1800D981D921011600395A020601C803D9828F
:101C2800D922012100395A020601C803D983D923D0
:101C3800012200395A020601C803D984D924012394
:101C480000395A020601C803D985D925012400396B
:101C58005A020601C803D986D926012500395A0235
:101C68000302C803DA00DA2001DF003A5A0203014E
:101C7800C803DA00DA220207003A5A020302C8034C
:101C8800DA00DA230216003A5A020301C803DA001E
:101C9800DA250222003A5A020601C803DA80DA205D
:101CA80001DF003A5A020601C803DA81DA2101E0AD
:101CB800003A5A020601C803DA82DA220207003A19
:101CC8005A020601C803DA83DA230216003A5A02D6
:101CD8000601C803DA84DA240217003A5A02060118
:101CE800C803DA85DA250222003A5A020301C8033A
:101CF800C700C72001AA003E5A020301C803C70053
:101D0800C72101AC003E5A020601C803C780C7209C
:101D180001AA003E5A020601C803C781C72101ACC7
:101D2800003E5A020601C803C782C722020D003EC0
:101D38005A020301C801003EC723037500FF5A0277
:101D48000301C801003EC724037700FF4E839000BB
:101D580000000000000000000000000000418001B9
:101D680000638880025A13B320B350B3805A13B368
:101D780021B351B3815A13B322B352B3825A13B366
:101D880023B353B3835A13B324B354B3845A13B34A
:101D980025B355B3855A13B326B356B3865A13B32E
:101DA80027B357B3875A13B328B358B3885A14B410
:101DB80020B450B4805A14B421B451B4815A14B424
:101DC80022B452B4825A14B423B453B4835A14B408
:101DD80024B454B4845A14B425B455B4855A14B4EC
:101DE80026B456B4865A14B427B457B4875A14B4D0
:101DF80028B458B4885A14B429B459B4895A14B4B4
:101E08002AB45AB48A5A14B42BB45BB48B5A14B497
:101E18002CB45CB48C5A15B520B550B5805A17B798
:101E280020B750B7805A17B721B751B7815A17B79B
:101E380022B752B7825A17B723B753B7835A17B77F
:101E480024B754B7845A17B725B755B7855A17B763
:101E580026B756B7865A17B727B757B7875A18B845
:101E680020B850B8805A18B821B851B8815A18B853
:101E780022B852B8825A18B823B853B8835A18B837
:101E880024B854B8845A18B825B855B8855A18B81B
:101E980026B856B8865A18B827B857B8875A18B8FF
:101EA80028B858B8885A18B829B859B8895A18B8E3
:101EB8002AB85AB88A5A18B82BB85BB88B5A1CBCBF
:101EC80020BC50BC805A1CBC21BC51BC815A1CBCD3
:101ED80022BC52BC825A1CBC23BC53BC835A1CBCB7
:101EE80024BC54BC845A1CBC25BC55BC855A1CBC9B
:101EF80026BC56BC865A1CBC27BC57BC875A1CBC7F
:101F080028BC58BC885A1CBC29BC59BC895A1CBC62
:101F18002ABC5ABC8A5A1CBC2BBC5BBC8B5A1CBC46
:101F28002CBC5CBC8C5A1CBC2DBC5DBC8D5A1CBC2A
:101F38002EBC5EBC8E5A1CBC2FBC5FBC8F5A1CBC0E
:101F480030BC60BC905A1CBC31BC61BC915A1CBCF2
:101F580032BC62BC925A1CBC33BC63BC935A1CBCD6
:101F680034BC64BC945A1DBD20BD50BD805A1DBDF3
:101F780021BD51BD815A1DBD22BD52BD825A1EBE12
:101F880020BE50BE805A1EBE21BE51BE815A1EBE02
:101F980022BE52BE825A1EBE23BE53BE835A1EBEE6
:101FA80024BE54BE845A1EBE25BE55BE855A1EBECA
:101FB80026BE56BE865A1EBE27BE57BE875A1EBEAE
:101FC80028BE58BE885A1EBE29BE59BE895A1EBE92
:101FD8002ABE5ABE8A5A1EBE2BBE5BBE8B5A1FBF74
:101FE80020BF50BF805A1FBF21BF51BF815A1FBF9A
:101FF80022BF52BF825A1FBF23BF53BF835A27C76E
:1020080020C750C7805A27C721C751C7815A2FCF29
:1020180020CF50CF805A2FCF21CF51CF815A2FCFE9
:1020280022CF52CF825A2FCF23CF53CF835A2FCFCD
:1020380024CF54CF845A2FCF25CF55CF855A2FCFB1
:1020480026CF56CF865A2FCF27CF57CF875A2FCF95
:1020580028CF58CF885A2FCF29CF59CF895A35D56D
:1020680020D550D5805A35D521D551D5815A35D569
:1020780022D552D5825A35D523D553D5835A35D54D
:1020880024D554D5845A39D920D950D9805A39D928
:1020980021D951D9815A39D922D952D9825A39D913
:1020A80023D953D9835A39D924D954D9845A39D9F7
:1020B80025D955D9855A39D926D956D9865A3ADAD9
:1020C80020DA50DA805A3ADA21DA51DA815A3ADAE1
:1020D80022DA52DA825A3ADA23DA53DA835A3ADAC5
:1020E80024DA54DA845A3ADA25DA55DA8541800056
:1020F8000058A24F0000000000000000000000008F
:1021080000000000000000000000000058A22F009E
:1021180000000000000001000000020002736000DF
:102128000A2D080007ED6541A22B006064A1C700D5
:102138000001000200030004000500060007000873
:102148000009000A000B000C000D000E000F011022
:1021580000110012021300140015001600170018D1
:102168000019001A001B021C001D001E001F002081
:102178000021002200230024002500260227002831
:102188000029002A002B002C002D002E002F0330E0
:1021980000310048A247000101030203030542A2DF
:1021A8002D000042A1C5000042A1C2000041A1C407
:1021B8000000AF0FEF1313543F5401640160030292
:1021C8002B6E7B017A9C79F0909EFBF0A3740CF047
:1021D8007F217EA0124476909CF2E0FEA3E0FF905F
:1021E8009CF0E0FCA3E02FFFEC3EFE90A148E06FDE
:1021F8007001EE604C909CF2E0FEA3E0FF909CF032
:10220800E0A3E02FFFEC3EFE90A148E0C39FE49ED0
:10221800501D909CFAE4F0A304F0FB7A9C79FA90A4
:102228009EFBE4F0A37402F07F267EA01246E390A2
:102238009CF2E0A3E0FF909CF0E0A3E02F90A1487F
:10224800F0909CF0E0FEA3E0D39400EE9400500CD4
:10225800A3E0FEA3E09400EE94004020909CFAE0F6
:10226800FEA3E04E60167B017AA17936909EFBE4CE
:10227800F0A37402F07FA07E001246E390A2A6E0CD
:10228800FEA3E0640D4E600302262B90A2A6E0A3F5
:10229800E0FF90A151E0FCA3E06F7002EC6E601EBD
:1022A800E490A156F0A3F07B017AA17956909EFBA9
:1022B800F0A37402F07F017EAE1246E380167B0124
:1022C8007AA17956909EFBE4F0A37402F07F017E18
:1022D800AE1244767B017A9C79F0909EFBE4F0A3E1
:1022E8007410F07FA07EAE124476E4909CFEF0A3BA
:1022F800E05407F07B017AA1793878F07C9C7D0165
:102308007E007F101231D0EF702F90A153E0FEA312
:10231800E0FF90A156E0FCA3E0B5071DECB5061957
:1023280090A2A6E0FEA3E0FF90A151E0FCA3E06F1D
:102338007002EC6E70030229207B017A9C79F07898
:10234800387CA17D017E007F10122C3FE490A155BE
:10235800F0909D23F0909D23E0C3940874809480AE
:1023680040030225D3E4909D22F0909D22E0C3947F
:10237800107480948040030225CAA3E0C454F0FF7F
:10238800909D22E02F909D27F0E075F018A424007E
:10239800FFE5F03435FE7B017A9C79F0909EFBE4F2
:1023A800F0A37430F01244767B017A9C79F0909D0A
:1023B80024122FEE909D22E0FF7E007401A80708EA
:1023C8008005C333CE33CED8F9FF909D23E025E0B6
:1023D8002438F582E434A1F583E0FCA3E0FDEE5C4B
:1023E800FEEF5D4E7003022521909D24122FCE1220
:1023F8002D86645A7004E5F064A570030224BE902B
:102408009D24122FCE74A575F05A122DE97B017AFE
:102418009D7904909EFBE4F0A37408F07F107E0081
:102428001244767B017A9D790478F27C9C7D017E4A
:10243800007F03122C3F7B017A9D790878F57C9CFC
:102448007D017E007F03122C3F7E007F087D007B8C
:10245800017A9C79F81231F4909D27E0FF909CFE58
:10246800E4F0A3EFF07B017A9D7900C002C00190EF
:102478009D2775F020A42490F9748E35F0FA909D6C
:102488003B122FEE909D3EE4F0A37420F0D001D0D3
:1024980002126BA5909D27E075F018A42400FFE5B3
:1024A800F03435FE7B017A9C79F0909EFBE4F0A332
:1024B8007430F01246E390A156E0FEA3E0FF7C00E2
:1024C8007D0A122CBD90A155E0C39FEC9E4041A30C
:1024D800E0FEA3E0FF122CBDEF240AFFE43EFE90CD
:1024E800A155E0C39FEC9E5027909D27E075F018FA
:1024F800A42400FDE5F03435FC90A156E0A3E07576
:10250800F00AA4FF90A155E0C39FFF7B0D125C6EFB
:1025180090A155E004F00225C1909D24122FCE12FF
:102528002D86645A7004E5F064A560030225C17B1A
:10253800017A9D7904909EFBF0A37408F07F107EC9
:10254800001244767B017A9D790478F87C9C7D01A1
:102558007E007F03122C3F7B017A9D790878FB7CF3
:102568009C7D017E007F03122C3F909D27E0FF9009
:102578009CFEE4F0A3EFF07B017A9C79F0909EFB3F
:10258800E4F0A37410F07F007E301246E312645426
:10259800E4909CF0F0A3F0909D27E075F018A42437
:1025A80000FFE5F03435FE7B017A9C79F0909EFBC4
:1025B800E4F0A37402F01246E3909D22E004F002D6
:1025C8002372909D23E004F002235D90A155E090D2
:1025D8009D22F090A156E0FEA3E0FF7C007D0A1248
:1025E8002CBDEF240AFFE43EFE909D22E0C39FEC41
:1025F8009E501D90A156E0A3E075F00AA4FF909D9F
:1026080022E0C39FFF1259F1909D22E004F080C39D
:1026180090A156E0FEA3E0FF90A153EEF0A3EFF0E7
:102628000229207B017A9C79F0909EFBE4F0A37448
:1026380010F07FA07EAE124476E4909CFEF0A3E0FA
:102648005407F07B017AA1793878F07C9C7D017E73
:10265800007F101231D0EF70030229207B017A9C91
:1026680079F078247C9D7D017E007F10122C3FE458
:10267800909D23F0909D23E0C3940874809480403B
:102688000302290DE4909D22F0909D22E0C394104E
:10269800748094804003022904E0FF7E007401A83E
:1026A80007088005C333CE33CED8F9FF909D23E0C9
:1026B80025E02424F582E4349DF583E0FCA3E0FDC5
:1026C800EE5CFCEF5DFD909D22E0FF7E007401A8AA
:1026D80007088005C333CE33CED8F9FF909D23E099
:1026E80025E02438F582E434A1F583E0FAA3E0FB81
:1026F800EE5AFEEF5B6D7002EE6C70030228FB90E1
:102708009D23E0C454F0FF909D22E02F909D37F068
:10271800E075F018A42400FFE5F03435FE7B017A5B
:102728009C79F0909EFBE4F0A37430F01244767B21
:10273800017A9C79F0909D34122FEE909D22E0FF53
:102748007E007401A807088005C333CE33CED8F9BC
:10275800FF909D23E025E02424F582E4349DF58351
:10276800E0FCA3E0FDEE5CFEEF5D4E70030228483E
:10277800909D34122FCE122D86645A7004E5F064B1
:10278800A570030228FB909D34122FCE74A575F016
:102798005A122DE97B017A9D7904909EFBE4F0A3FF
:1027A8007408F07F107E001244767B017A9D7904CC
:1027B80078F27C9C7D017E007F03122C3F7B017A9E
:1027C8009D790878F57C9C7D017E007F03122C3F63
:1027D8007E007F087D007B017A9C79F81231F490A5
:1027E8009D37E0FF909CFEE4F0A3EFF07B017A9D1B
:1027F8007900C002C001909D3775F020A42490F99B
:10280800748E35F0FA909D3B122FEE909D3EE4F0C9
:10281800A37420F0D001D002126BA5909D37E0750B
:10282800F018A42400FFE5F03435FE7B017A9C798A
:10283800F0909EFBE4F0A37430F01246E30228FB0C
:10284800909D34122FCE122D86645A7004E5F064E0
:10285800A560030228FB7B017A9D7904909EFBF01A
:10286800A37408F07F107E001244767B017A9D796C
:102878000478F87C9C7D017E007F03122C3F7B014D
:102888007A9D790878FB7C9C7D017E007F03122C61
:102898003F909D37E0FF909CFEE4F0A3EFF07B01B2
:1028A8007A9C79F0909EFBE4F0A37410F07F007E90
:1028B800301246E3126454E4909CF0F0A3F0909D2B
:1028C80037E075F018A42400FFE5F03435FE7B01ED
:1028D8007A9C79F0909EFBE4F0A37402F01246E330
:1028E80090A156E0FEA3E02401FFE43E90A153F03E
:1028F800A3EFF0909D22E004F0022691909D23E042
:1029080004F002267C7B017A9D792478387CA17DAD
:10291800017E007F10122C3F90A2A6E0FEA3E06487
:102928000E4E6003022B5E90A2A6E0A3E0FF90A1EA
:1029380051E0FCA3E06F7002EC6E601EE490A156BB
:10294800F0A3F07B017AA17956909EFBF0A3740264
:10295800F07F017EAE1246E380347B017AA179567E
:10296800909EFBE4F0A37402F07F017EAE124476E1
:1029780090A153E0FEA3E0FF90A156E0FCA3E06F16
:102988007002EC6E7003022B5E8003022B5E90A136
:1029980056E0FEA3E0FF90A153EEF0A3EFF0E4A30E
:1029A800F090A155E0C3940A748094804003022BF0
:1029B80044A3E0FEA3E0FF7C007D0A122CBD90A199
:1029C80055E02FFFEC3EFE90A14FE0FCA3E0FDC3D5
:1029D800EF9DEE9C4003022B4490A156E0FEA3E03D
:1029E800FF7C007D0A122CBD90A155E02FFFEC3E24
:1029F800FE90A14BE0FCA3E0D39FEC9E403290A157
:102A080056E0FEA3E0FF7C00122CBD90A155E02FFC
:102A1800FFEC3EFEEF2401FFE43EFE90A14BE0FCFC
:102A2800A3E0C39FFFEC9E909D24F0A3EFF0803AB3
:102A380090A156E0FEA3E0FF7C007D0A122CBD9019
:102A4800A155E02FFFEC3EFEEF2401FFE43EFE908F
:102A5800A14BE0FCA3E02400FDEC3402FCC3ED9F95
:102A6800FFEC9E909D24F0A3EFF0909D24E0FEA340
:102A7800E07803C333CE33CED8F92400FFEE3420F8
:102A8800FEE4FCFD909EF9122F85909EFDE4F0A3D4
:102A98007408F07D007C307F5A12006E7B017A9CAE
:102AA80079F0909EFBE4F0A37410F07F007E301262
:102AB80044767B017A9D7900C003C002C001909CD6
:102AC800FEE0FEA3E07805C333CE33CED8F92490D8
:102AD800F9748E3EFA7B01909D3B122FEE909D3E3D
:102AE800E4F0A37420F0D001D002D003126BA590BB
:102AF800A155E025E02458F582E434A1F583E0FEF1
:102B0800A3E0FF7B017A9C79F0909EFBE4F0A3742C
:102B180030F01246E390A155E025E02458F582E410
:102B280034A1F583E0FCA3E0FD90A155E0FF7B0E06
:102B3800125C6E90A155E004F00229A990A155E01D
:102B4800C3940A74809480500DE0FF1259F190A14B
:102B580055E004F080E690A2A6E0FEA3E0FF90A175
:102B680051EEF0A3EFF022E709F608DFFA8046E716
:102B780009F208DFFA803E88828C83E709F0A3DF38
:102B8800FA8032E309F608DFFA8078E309F208DF11
:102B9800FA807088828C83E309F0A3DFFA80648965
:102BA800828A83E0A3F608DFFA805889828A83E064
:102BB800A3F208DFFA804C80D280FA80C680D480E5
:102BC8006980F28033801080A680EA809A80A8808D
:102BD800DA80E280CA803389828A83ECFAE493A39C
:102BE800C8C582C8CCC583CCF0A3C8C582C8CCC52B
:102BF80083CCDFE9DEE7800D89828A83E493A3F63C
:102C080008DFF9ECFAA9F0EDFB2289828A83ECFA55
:102C1800E0A3C8C582C8CCC583CCF0A3C8C582C808
:102C2800CCC583CCDFEADEE880DB89828A83E49343
:102C3800A3F208DFF980CC88F0EF60010E4E60C384
:102C480088F0ED2402B4040050B9F582EB2402B4F4
:102C5800040050AF2323458223902BBF73BB01068A
:102C680089828A83E0225002E722BBFE02E322899E
:102C7800828A83E49322BB010CE58229F582E583ED
:102C88003AF583E0225006E92582F8E622BBFE06E3
:102C9800E92582F8E222E58229F582E5833AF5837F
:102CA800E49322BB010689828A83F0225002F7222C
:102CB800BBFE01F322EF8DF0A4A8F0CF8CF0A4287E
:102CC800CE8DF0A42EFE22BC000BBE0029EF8DF0A5
:102CD80084FFADF022E4CCF875F008EF2FFFEE3357
:102CE800FEEC33FCEE9DEC984005FCEE9DFE0FD506
:102CF800F0E9E4CEFD22EDF8F5F0EE8420D21CFEDA
:102D0800ADF075F008EF2FFFED33FD400798500642
:102D1800D5F0F222C398FD0FD5F0EA22C2D5EC30E7
:102D2800E709B2D5E4C39DFDE49CFCEE30E715B29B
:102D3800D5E4C39FFFE49EFE122CCFC3E49DFDE4BF
:102D48009CFC8003122CCF30D507C3E49FFFE49E80
:102D5800FE22C5F0F8A3E028F0C5F0F8E582158258
:102D680070021583E038F022A3F8E0C5F025F0F0F2
:102D7800E582158270021583E0C838F0E822BB01AD
:102D88000A89828A83E0F5F0A3E022500687F009D9
:102D9800E71922BBFE07E3F5F009E3192289828AC5
:102DA80083E493F5F074019322BB0110E58229F5C1
:102DB80082E5833AF583E0F5F0A3E0225009E9259E
:102DC80082F886F008E622BBFE0AE92582F8E2F5D9
:102DD800F008E222E5832AF583E993F5F0A3E99365
:102DE80022BB010A89828A83F0E5F0A3F02250060B
:102DF800F709A7F01922BBFE06F3E5F009F319223B
:102E0800EF2BFFEE3AFEED39FDEC38FC22E88FF0AF
:102E1800A4CC8BF0A42CFCE98EF0A42CFC8AF0ED59
:102E2800A42CFCEA8EF0A4CDA8F08BF0A42DCC380D
:102E380025F0FDE98FF0A42CCD35F0FCEB8EF0A445
:102E4800FEA9F0EB8FF0A4CFC5F02ECD39FEE43CFF
:102E5800FCEAA42DCE35F0FDE43CFC2275F00875A3
:102E68008200EF2FFFEE33FECD33CDCC33CCC582BD
:102E780033C5829BED9AEC99E58298400CF582EE79
:102E88009BFEED9AFDEC99FC0FD5F0D6E4CEFBE461
:102E9800CDFAE4CCF9A88222B800C1B90059BA0029
:102EA8002DEC8BF084CFCECDFCE5F0CBF97818EF84
:102EB8002FFFEE33FEED33FDEC33FCEB33FB10D785
:102EC80003994004EB99FB0FD8E5E4F9FA22781846
:102ED800EF2FFFEE33FEED33FDEC33FCC933C910A1
:102EE800D7059BE99A4007EC9BFCE99AF90FD8E0D3
:102EF800E4C9FAE4CCFB2275F010EF2FFFEE33FEA5
:102F0800ED33FDCC33CCC833C810D7079BEC9AE817
:102F180099400AED9BFDEC9AFCE899F80FD5F0DA98
:102F2800E4CDFBE4CCFAE4C8F922EB9FF5F0EA9E85
:102F380042F0E99D42F0EC6480C864809845F02234
:102F4800EB9FF5F0EA9E42F0E99D42F0E89C45F0DF
:102F580022E86010ECA2E713FCED13FDEE13FEEF80
:102F680013FFD8F022E0FCA3E0FDA3E0FEA3E0FFFE
:102F780022E0F8A3E0F9A3E0FAA3E0FB22ECF0A337
:102F8800EDF0A3EEF0A3EFF022A8828583F0D083C2
:102F9800D082122FA8122FA8122FA8122FA8E473DC
:102FA800E493A3C583C5F0C583C8C582C8F0A3C58B
:102FB80083C5F0C583C8C582C822A42582F582E5E9
:102FC800F03583F58322E0FBA3E0FAA3E0F922F8C9
:102FD800E0FBA3A3E0F925F0F0E582158270021565
:102FE80083E0FA38F022EBF0A3EAF0A3E9F022D06C
:102FF80083D082F8E4937012740193700DA3A393A5
:10300800F8740193F5828883E4737402936860EF1F
:10301800A3A3A380DFD083D082F8E4937012740155
:1030280093700DA3A393F8740193F5828883E473D6
:10303800740293B5F0067403936860E9A3A3A3A38D
:1030480080D8E3F5F009E208B5F06BDFF58067E3B7
:10305800F5F009E608B5F05EDFF5805A87F009E675
:1030680008B5F052DFF6804E87F009E208B5F04661
:10307800DFF6804288828C8387F009E0A3B5F036BA
:10308800DFF6803288828C8387F009E493A3B5F059
:1030980025DFF5802188828C83E3F5F009E0A3B56C
:1030A800F014DFF5801088828C83E3F5F009E4934F
:1030B800A3B5F002DFF4023179808780E98090803F
:1030C800D4803E8015806E807E809D80B7808D8004
:1030D800A380518074803C02318589828A83ECFA0E
:1030E800E493F5F0A3C8C582C8CCC583CCE493A308
:1030F800C8C582C8CCC583CCB5F076DFE3DEE180F5
:103108007089828A83E493F5F0A3E208B5F062DF60
:10311800F4805E89828A83E0F5F0A3E608B5F05171
:10312800DFF5804D89828A83E0F5F0A3E208B5F0E7
:1031380040DFF5803C89828A83E493F5F0A3E608B2
:10314800B5F02EDFF4802A8002805789828A83ECCA
:10315800FAE493F5F0A3C8C582C8CCC583CCE0A334
:10316800C8C582C8CCC583CCB5F006DFE4DEE280F2
:10317800007FFFB5F0020F2240027F012289828A78
:1031880083ECFAE0F5F0A3C8C582C8CCC583CCE0CF
:10319800A3C8C582C8CCC583CCB5F0D5DFE5DEE3CE
:1031A80080CF89828A83ECFAE0F5F0A3C8C582C88B
:1031B800CCC583CCE493A3C8C582C8CCC583CCB5A1
:1031C800F0AFDFE4DEE280A988F0EF60010E4E6028
:1031D800ABED2402B404005098F582EB2402B40449
:1031E80000508E23234582239030C173EF4E601226
:1031F800EF60010EEDBB010B89828A83F0A3DFFC2F
:10320800DEFA2289F05007F709DFFCA9F022BBFE9D
:10321800FCF309DFFCA9F022F8BB010DE58229F5D2
:1032280082E5833AF583E8F0225006E92582C8F65C
:1032380022BBFE05E92582C8F2227BFF7A76791146
:10324800782B7C9D7D017E007F3E122C3F7BFF7A90
:1032580076794F786A7C9D7D017E007F24122C3F11
:103268007B017A9D792B909EFBE4F0A3743EF07F5E
:10327800207EAB124476E4909D69F0909D69E0C38E
:1032880094107480948040030234E3E0FF7E00745D
:1032980001A807088005C333CE33CED8F9FF909D27
:1032A80031E0FCA3E0FDEE5CFEEF5D4E70030234FE
:1032B800C7909D69E0FF7E007401A807088005C3D8
:1032C80033CE33CED8F9FF909D35E0FCA3E0FDEE78
:1032D8005CFEEF5D4E7003023474909D69E0FF134D
:1032E80013543F2407FFE433909D90F0A3EFF09030
:1032F8009D90E0FEA3E025E0FFEE33FE742B2FF552
:1033080082749D3EF583E0FEA3E0FF909D69E05442
:103318000325E025E0FDEFA805088005CEC313CE00
:1033280013D8F9540FFF909D8EE4F0A3EFF0909D11
:103338008EE0FEA3E08EF012301D33660000337E6F
:1033480000013396000233AE000433C5000533DCB8
:10335800000633F30008340A000900003421909D68
:1033680069E025E0246AF582E4349DF583E4F0A35E
:103378007405F0023436909D69E025E0246AF582F0
:10338800E4349DF583E4F0A37406F0023436909D8E
:1033980069E025E0246AF582E4349DF583E4F0A32E
:1033A8007407F0023436909D69E025E0246AF582BE
:1033B800E4349DF583E4F0A37408F08071909D696E
:1033C800E025E0246AF582E4349DF583E4F0A374F3
:1033D80009F0805A909D69E025E0246AF582E4347A
:1033E8009DF583E4F0A3740AF08043909D69E0257D
:1033F800E0246AF582E4349DF583E4F0A37403F0D5
:10340800802C909D69E025E0246AF582E4349DF5DE
:1034180083E4F0A37404F08015909D69E025E0240E
:103428006AF582E4349DF583E4F0A37405F0909D79
:1034380069E0FF7E007401A807088005C333CE3316
:10344800CED8F9FF909D2DE0FCA3E0FDEE5CFEEFE9
:103458005D4E607E909D69E025E0246AF582E43443
:103468009DF583E475F008122D5A8066909D69E0F9
:10347800FF7E007401A807088005C333CE33CED879
:10348800F9FF909D2DE0FCA3E0FDEE5CFEEF5D4EA4
:103498006017909D69E025E0246AF582E4349DF583
:1034A80083E4F0A37402F08029909D69E025E0246C
:1034B8006AF582E4349DF583E4F0A304F080139068
:1034C8009D69E025E0246AF582E4349DF583E4F003
:1034D800A3F0909D69E004F0023283909D69741016
:1034E800F0909D69E0C39412748094804003023781
:1034F80054E024F0FF7E007401A807088005C33358
:10350800CE33CED8F9FF909D33E0FCA3E0FDEE5C0E
:10351800FEEF5D4E7003023738909D69E024F0FF9E
:103528007E007401A807088005C333CE33CED8F9CE
:10353800FF909D37E0FCA3E0FDEE5CFEEF5D4E7072
:10354800030236E3909D69E0FF1313543F2407FFFD
:10355800E433909D90F0A3EFF0909D90E0FEA3E0FF
:1035680025E0FFEE33FE742B2FF582749D3EF58324
:10357800E0FEA3E0FF909D69E0540325E025E0FD0F
:10358800EFA805088005CEC313CE13D8F9540FFF52
:10359800909D8EE4F0A3EFF0909D8EE0FEA3E08E68
:1035A800F012301D35D0000035E800013600000269
:1035B80036180004362F000536460006365D00082A
:1035C800367400090000368B909D69E025E0246A76
:1035D800F582E4349DF583E4F0A37405F00236A087
:1035E800909D69E025E0246AF582E4349DF583E442
:1035F800F0A37406F00236A0909D69E025E0246AE5
:10360800F582E4349DF583E4F0A37407F00236A054
:10361800909D69E025E0246AF582E4349DF583E411
:10362800F0A37408F08071909D69E025E0246AF5A4
:1036380082E4349DF583E4F0A37409F0805A909DE8
:1036480069E025E0246AF582E4349DF583E4F0A37B
:10365800740AF08043909D69E025E0246AF582E4CD
:10366800349DF583E4F0A37403F0802C909D69E009
:1036780025E0246AF582E4349DF583E4F0A374041C
:10368800F08015909D69E025E0246AF582E4349D78
:10369800F583E4F0A37405F0909D69E024F0FF7EC3
:1036A800007401A807088005C333CE33CED8F9FFCC
:1036B800909D2FE0FCA3E0FDEE5CFEEF5D4E7003F5
:1036C80002374B909D69E025E0246AF582E4349D39
:1036D800F583E475F008122D5A8068909D69E024FE
:1036E800F0FF7E007401A807088005C333CE33CEEF
:1036F800D8F9FF909D2FE0FCA3E0FDEE5CFEEF5DA6
:103708004E6017909D69E025E0246AF582E4349DB7
:10371800F583E4F0A37402F08029909D69E025E028
:10372800246AF582E4349DF583E4F0A304F0801361
:10373800909D69E025E0246AF582E4349DF583E4F0
:10374800F0A3F0909D69E004F00234E97B017A9DD2
:10375800796A909EFBE4F0A37424F07FA07EAB12FC
:1037680046E322E50F30E10D90A2A8E475F00112BE
:103778002D5A12634A90A2A8E0FEA3E0C394B0EECB
:1037880094045003023B49E490A2A8F0A3F0A3E0FC
:10379800FEA3E02400FFEE3410909CF0F0A3EFF0BD
:1037A8007B017A9C79F2909EFBE4F0A37402F07F8F
:1037B800A37EA0124476909CF2E475F0C8122D5AAC
:1037C800909CF0E0FEA3E0FF7B017A9C79F2909E4A
:1037D800FBE4F0A37402F01246E390A2AAE0FEA371
:1037E800E02400FFEE3418909CF0F0A3EFF07B018A
:1037F8007A9C79F2909EFBE4F0A37402F07FA47E99
:10380800A0124476909CF0E0FEA3E0FF7B017A9C36
:1038180079F2909EFBE4F0A37402F01246E390A2C2
:10382800AAE0FEA3E02400FFEE3420909CF0F0A371
:10383800EFF07B017A9C79F2909EFBE4F0A374028E
:10384800F07FA57EA0124476909CF2E475F0C81231
:103858002D5A909CF0E0FEA3E0FF7B017A9C79F260
:10386800909EFBE4F0A37402F01246E390A2AAE053
:10387800FEA3E02400FFEE3428909CF0F0A3EFF0C4
:103888007B017A9C79F2909EFBE4F0A37402F07FAE
:10389800A67EA0124476909CF0E0FEA3E0FF7B0198
:1038A8007A9C79F2909EFBE4F0A37402F01246E34E
:1038B80090A2AAE0FEA3E0FF909CF6EEF0A3EFF042
:1038C80090A2AAE475F001122D5A90A2AAE0FEA3D4
:1038D800E0C394FEEE94074007E490A2AAF0A3F098
:1038E8007B017AA279AA909EFBE4F0A37402F07F90
:1038F800007E031246E37B017AA279AA909EFBE43C
:10390800F0A37402F0FF7E031246E37B017AA279EA
:10391800AA909EFBE4F0A37402F07F047E03124693
:10392800E37B017AA279AA909EFBE4F0A37402F0EB
:103938007F067E031246E3909CF47407F0A374FE9E
:10394800F07B017A9C79F4909EFBE4F0A37402F07A
:103958007F087E501246E37B017A9C79F4909EFBA7
:10396800E4F0A37402F07F097E501246E3909CF4C1
:103978007402F0A3748AF07B017A9C79F4909EFB20
:10398800E4F0A37402F07F117E501246E390A2AADD
:10399800E0A3E030E003023B49909CF674FFF5F0A9
:1039A800122D5A909CF6E0FEA3E02400FFEE34109E
:1039B800FE7B017A9C79F0909EFBE4F0A37404F0FE
:1039C800124476909CF474A5F0A3745AF07B017AA3
:1039D8009C79F0909EFBE4F0A37406F07F007E5083
:1039E8001246E3909CF6E0FEA3E0FFE4FCFD909E07
:1039F800F9122F85909EFDE4F0A37404F07D007CFD
:103A0800507FA512006E909CF6E0FEA3E02400FF14
:103A1800EE3418FE7B017A9C79F0909EFBE4F0A3CB
:103A28007404F0124476909CF474A5F0A3745AF0D0
:103A38007B017A9C79F0909EFBE4F0A37406F07FFA
:103A4800007E501246E3909CF6E0FEA3E02400FFBF
:103A5800EE3408FEE4FCFD909EF9122F85909EFD41
:103A6800E4F0A37404F07D007C507FA512006E90F2
:103A78009CF6E0FEA3E02400FFEE3420FE7B017AF2
:103A88009C79F0909EFBE4F0A37404F012447690C5
:103A98009CF474A5F0A3745AF07B017A9C79F09099
:103AA8009EFBE4F0A37406F07F007E501246E3907C
:103AB8009CF6E0FEA3E02400FFEE3410FEE4FCFDDB
:103AC800909EF9122F85909EFDE4F0A37404F07D7A
:103AD800007C507FA512006E909CF6E0FEA3E024C7
:103AE80000FFEE3428FE7B017A9C79F0909EFBE47F
:103AF800F0A37404F0124476909CF474A5F0A374B7
:103B08005AF07B017A9C79F0909EFBE4F0A374064E
:103B1800F07F007E501246E3909CF6E0FEA3E0247E
:103B280000FFEE3418FEE4FCFD909EF9122F8590FC
:103B38009EFDE4F0A37404F07D007C507FA5120084
:103B48006E22909CF5122FEE909CF8ECF0A3EDF00D
:103B5800E4A3F0A3F0909CF8E0FEA3E0FFA3E0FC50
:103B6800A3E0C39FEC9E500C909CFAE475F0011200
:103B78002D5A80E1909CF8E0FEA3E0C39405EE94F2
:103B8800005003023EC8E4A3F0A3F0909CF5122F66
:103B9800CE909CFAE0FEA3E0F5828E83122C7E6420
:103BA800026003023EA2909CF5122FCE909CFAE090
:103BB800A3E029F9EA3EFA900001122C7E122FF7B1
:103BC8003BD5033D29063DEB1000003EA2909CF535
:103BD800122FCE909CFAE0FEA3E029F9EA3EFA9073
:103BE8000002122C7EFF909CFEE4F0A3EFF0909C64
:103BF800FAE0A3E0FF909CFEE0FCA3E02FFFEC3E80
:103C0800FEEF2405FFE43EFE909CF8E0FCA3E0FDF7
:103C1800D3EF9DEE9C4011909CF8E0FEA3E0FFA33B
:103C2800EEF0A3EFF0023EA2909CF5122FCE909CEE
:103C3800FAE0FEA3E029F9EA3EFA909CFEE0FEA332
:103C4800E02403FDE43EFC126973909CFCEEF0A3B3
:103C5800EFF0909CF5122FCE909CFAE0FEA3E0299D
:103C6800F9EA3EFA909CFEE0FEA3E029F9EA3EFA62
:103C7800900003122C7EFD909CFCE0FEA3E0EE6D0C
:103C88007001E46003023EA2909CF5122FCE909C36
:103C9800FAE0FEA3E029F9EA3EFA909CFEE0FEA3D2
:103CA800E029F9EA3EFA900004122C7EFF909CFC71
:103CB800E0A3E06F7001E46003023EA2908398E005
:103CC800FEA3E0FF909CF5122FCEE92403F9E43A15
:103CD800FAC003C002C001909CF5122FCE900002DA
:103CE800122C7EFD909EFBE4F0A3EDF0D001D002F3
:103CF800D0031246E37E007F0E7D007B017A837934
:103D0800901231F4909CFEE0FEA3E02405FFE43E0F
:103D1800909CFAF0A3EFF0908000E04402F0023E9D
:103D2800A2909CFAE0FEA3E02408FFE43EFE909CEB
:103D3800F8E0FCA3E0FDD3EF9DEE9C4011909CF8C9
:103D4800E0FEA3E0FFA3EEF0A3EFF0023EA2909CFA
:103D5800F5122FCE909CFAE0FEA3E029F9EA3EFA8C
:103D68007D067C00126973909CFCEEF0A3EFF09046
:103D78009CF5122FCE909CFAE0FEA3E029F9EA3ECA
:103D8800FA900006122C7EFD909CFCE0FEA3E0EE6B
:103D98006D7001E46003023EA2909CF5122FCE9054
:103DA8009CFAE0FEA3E029F9EA3EFA900007122CFB
:103DB8007EFF909CFCE0A3E06F7001E46003023E8C
:103DC800A2909CFA75F008122D5A7E007F0E7D0095
:103DD8007B017A8379901231F4908000E04402F0FC
:103DE800023EA2909CFAE0FEA3E02408FFE43EFE17
:103DF800909CF8E0FCA3E0FDD3EF9DEE9C40119071
:103E08009CF8E0FEA3E0FFA3EEF0A3EFF0023EA2D1
:103E1800909CF5122FCE909CFAE0FEA3E029F9EAD7
:103E28003EFA7D067C00126973909CFCEEF0A3EFCD
:103E3800F0909CF5122FCE909CFAE0FEA3E029F9B1
:103E4800EA3EFA900006122C7EFD909CFCE0FEA350
:103E5800E0EE6D7001E47042909CF5122FCE909CBC
:103E6800FAE0FEA3E029F9EA3EFA900007122C7E58
:103E7800FF909CFCE0A3E0B50720E4909CFA75F065
:103E880008122D5A7E007F0E7D007B017A8379907F
:103E98001231F4908000E04402F0909CFAE475F04E
:103EA80001122D5A909CF8E0FEA3E024FBFFEE34AB
:103EB800FFFEA3E0FCA3E0C39FEC9E5003023B93EC
:103EC80022E50F30E0167B017AA279A6909EFBE4EA
:103ED800F0A37402F07F147E00124476E50F20E20E
:103EE800030241B290A2A6E0FEA3E0640B4E700369
:103EF80012324290A2A6E0FEA3E064294E600302BB
:103F08003FDC7B017A9C79F3909EFBF0A3741CF054
:103F18007FB07EC9124476E4909CF0F0909CF0E06B
:103F2800C39407748094804003023FC6E025E025CF
:103F3800E024F3F582E4349CF583E0FEA3E0C4F8C2
:103F4800540FC868FDEEC454F048FC909CF0E0257E
:103F5800E025E024F5F582E4349CF583E0FEA3E057
:103F6800EEC4540F2DFFE43C909CF1F0A3EFF090C9
:103F78009CF1E0FEA3E0FF7C007D18122CCF909C02
:103F8800F0E025E0240FF582E4349DF583EEF0A3FC
:103F9800EFF0909CF1E0FEA3E0FF7C007D18122C6E
:103FA800CF909CF0E025E0241DF582E4349DF58354
:103FB800ECF0A3EDF0909CF0E004F0023F247B01CC
:103FC8007A9D790F909EFBE4F0A3741CF07F207E0D
:103FD800C91246E390A2A6E0FEA3E0642C4E60035B
:103FE8000240737B017A9C79F6909EFBF0A37402E1
:103FF800F07FA07ECC124476909CF6E0FEA3E0FF12
:10400800EEC4F854F0C868FEEFC4540F48EE540FDD
:10401800909CF0F0A3E4F0909CF0E0FCA3E0FD900D
:104028009CF6E0FEA3E07807CEC313CE13D8F9546C
:104038001FFFECFEED4FFF909CF0EEF0A3EFF09029
:104048009CF6E0A3E0547F909CF2F0A3E4F0A30474
:10405800F0A37405F07B017A9C79F0909EFBE4F064
:10406800A37406F07F207ECC1246E390A2A6E0FE61
:10407800A3E064274E705690A2A2E0C39405748012
:1040880094805042909CF0E4F0A304F0FB7A9C7971
:10409800F0909EFBE4F0A37402F07F257EA0124608
:1040A800E3909CF0E4F0A3745AF07B017A9C79F0D9
:1040B800909EFBE4F0A37402F07F857EA01246E395
:1040C80090A2A2E004F0E490A2A3F0805390A2A3EF
:1040D800E0C39405748094805041E4909CF0F0A370
:1040E800F07B017A9C79F0909EFBF0A37402F07F3C
:1040F800257EA01246E3909CF0E4F0A3745AF07B6E
:10410800017A9C79F0909EFBE4F0A37402F07F851D
:104118007EA01246E390A2A3E004F0E490A2A2F0ED
:104128007B017A9C79F0909EFBE4F0A37402F07F07
:10413800167E00124476909CF0E0FEA3E04E6024C8
:10414800E4909CF0F0A3F07B017A9C79F0909EFBC0
:10415800F0A37402F07F167E001246E3E490A2A456
:10416800F0A3F02290A2A4E0FEA3E0C394FFEE9493
:10417800FF500A90A2A4E475F001122D5A90A2A44F
:10418800E0FEA3E0B45812EEB4020EA3E0FEA3E0F2
:104198004E6006E4FFFE126FE590A2A4E0FEA3E0E5
:1041A800B45807EEB4020312737C22909CFF122FBE
:1041B800EE909D02ECF0A3EDF07BFF7A7679B5786E
:1041C800047C9D7D017E007F18122C3F909CFF127D
:1041D8002FCE90000A122DB1246CFFE5F034079021
:1041E8009D30F0A3EFF0909D30E0FEA3E0FF7C004F
:1041F8007D64122D24ED4C6013909D30E0FEA3E009
:10420800FF7C007D04122D24ED4C6013909D30E05E
:10421800FEA3E0FF7C017D90122D24ED4C70067EFC
:10422800007F0180047E007F00909D2CEEF0A3EFBC
:10423800F0909CFF122FCE90000A122DB124BAFFE5
:10424800E5F034FFFE3395E0FDFC909D1C122F85B0
:10425800909CFF122FCE900008122DB1C39401E557
:10426800F0648094805040909D2CE0FEA3E06401AF
:104278004E7034909D1C122F6DEF2402FFE43EFE19
:10428800E43DFDE43CFCE47B04FAF9F812702CEF01
:1042980024FFFFEE34FFFEED34FFFDEC34FFFC900D
:1042A8009D24122F858022909D1C122F6DEF2402D1
:1042B800FFE43EFEE43DFDE43CFCE47B04FAF9F84F
:1042C80012702C909D24122F85909D20122F910002
:1042D800000000E4909D2EF0A3F0909CFF122FCEDA
:1042E800900008122DB1FF909D2EE0FCA3E0C39F23
:1042F800E5F06480F8EC6480985048909D20122F77
:104308006DC006C007909D2EE0FEA3E025E0FFEEFD
:1043180033FE74042FF582749D3EF583E0FEA3E01E
:10432800FFFBAA06EA3395E0F9F8D007D006122E6B
:1043380008909D20122F85909D2EE475F001122D76
:104348005A8097909D20122F6DC006C007909CFF41
:10435800122FCE900006122DB124FFFFE5F034FF96
:10436800FEAB07FA3395E0F9F8D007D006122E080D
:10437800909D20122F85909D20122F6DC004C0059E
:10438800C006C007E47F6D7E01FDFC909D1C122FC6
:1043980079122E15909D24122F79122E08A804A99F
:1043A80005AA06AB07D007D006D005D004122E0800
:1043B800909D20122F85909CFF122FCE9000041202
:1043C8002DB1FF909D02E0FCA3E0FDC3EF9DFFE54A
:1043D800F09CFE3395E0FDFC909D28122F85E47F2C
:1043E800107E0EFDFC909D28122F79122E15C00408
:1043F800C005C006C0077F807E517D017C00909D6E
:1044080020122F79122E15A804A905AA06AB07D0E9
:1044180007D006D005D004122E08C004C005C00677
:10442800C007909CFF122FCE900002122DB1FFAE54
:10443800F07C007D3C122CBDAB07AA06EA3395E060
:10444800F9F8D007D006D005D004122E08C006C04F
:1044580007909CFF122FCE122D86FFAEF0FBAA0606
:10446800EA3395E0F9F8D007D006122E0822909E7C
:10447800F6EEF0A3EFF0A3122FEE7B007A0079009E
:10448800C003C002C001909EF8122FCED082D08304
:10449800D0E06B7008E965827003EA6583700302F7
:1044A80046E2909EFBE0FEA3E04E70030246E290D7
:1044B8009EFBE0A3E0FFEEC313FEEF13FF909EF612
:1044C800E0FCA3E02FFFEE3CFED3EF94FEEE94FF5A
:1044D80040030246E2C2AF909EF6E0A3E05401908A
:1044E8009EFDF0909EF6E0FEA3E0FFEEC313FEEF04
:1044F80013FF909EF6EEF0A3EFF0909EF6E0FEA379
:10450800E07810CEC313CE13D8F9F5F1909EF6E0FB
:10451800FEA3E0EEF5F2909EF6E0A3E0F5F3E4F5F5
:10452800F875F401D2FF30FCFDD2FD909EFDE064E9
:10453800017072909EFBE0FEA3E064014E700AC217
:10454800FBC2FAD2F9C2F88008C2FBC2FAD2F9D289
:10455800F8D2FE20FEFD909EFBE0FEA3E064014E33
:10456800701A909EF875F001122FD7E5FC122CAB4B
:10457800909EFB74FFF5F0122D5A8029909EF8E466
:1045880075F001122FD7E5FC122CAB909EF8E4755C
:10459800F001122FD7E5FD122CAB909EFB74FF752E
:1045A800F0FE122D5A909EFBE0FEA3E04E7003022F
:1045B80046DD909EFBE0A3E0C39404EE9400400324
:1045C800024686909EFBE0A3E08EF012301D45FA6D
:1045D800000145F0000245E6000300004602D2FB58
:1045E800D2FAD2F9C2F88012D2FBD2FAC2F9C2F8D2
:1045F8008008D2FBC2FAC2F9C2F8D2FE20FEFD90B2
:104608009EFBE0FEA3E08EF012301D4673000146CB
:1046180053000246230003000046DD909EF8E4752F
:10462800F001122FD7E5FA122CAB909EF8E475F042
:1046380001122FD7E5FB122CAB909EF8E475F00120
:10464800122FD7E5FC122CAB0246DD909EF8E475DC
:10465800F001122FD7E5FA122CAB909EF8E475F012
:1046680001122FD7E5FB122CAB806A909EF8E475F7
:10467800F001122FD7E5FA122CAB80598057D2FBE4
:10468800D2FAD2F9D2F8D2FE20FEFD909EF8E47557
:10469800F001122FD7E5FA122CAB909EF8E475F0D2
:1046A80001122FD7E5FB122CAB909EF8E475F001B0
:1046B800122FD7E5FC122CAB909EF8E475F001128E
:1046C8002FD7E5FD122CAB909EFB74FF75F0FC1202
:1046D8002D5A0245ADE4F5F8D2AF22909EF6EEF0E1
:1046E800A3EFF0A3122FEE7B007A007900C003C07D
:1046F80002C001909EF8122FCED082D083D0E06BFA
:104708007008E965827003EA6583700302494E9078
:104718009EFBE0FEA3E04E700302494E909EFBE034
:10472800A3E0FFEEC313FEEF13FF909EF6E0FCA399
:10473800E02FFFEE3CFED3EF94FEEE94FF40030221
:10474800494EC2AF909EF6E0A3E05401909EFDF062
:10475800909EF6E0FEA3E0FFEEC313FEEF13FF907A
:104768009EF6EEF0A3EFF0909EF6E0FEA3E0781040
:10477800CEC313CE13D8F9F5F1909EF6E0FEA3E070
:10478800EEF5F2909EF6E0A3E0F5F3E4F5F875F4A3
:1047980001D2FF30FCFDC2FD909EFDE06401707205
:1047A800909EFBE0FEA3E064014E700AC2FBC2FAD1
:1047B800D2F9C2F88008C2FBC2FAD2F9D2F8909EA8
:1047C800FBE0FEA3E064014E701A909EF875F001BC
:1047D800122FD7122C65F5FC909EFB74FFF5F01292
:1047E8002D5A8029909EF8E475F001122FD7122CCB
:1047F80065F5FC909EF8E475F001122FD7122C6530
:10480800F5FD909EFB74FF75F0FE122D5AD2FE2026
:10481800FEFD909EFBE0FEA3E04E70030249499026
:104828009EFBE0A3E0C39404EE940040030248F228
:10483800909EFBE0A3E08EF012301D48670001480F
:104848005D0002485300030000486FD2FBD2FAD241
:10485800F9C2F88012D2FBD2FAC2F9C2F88008D2A3
:10486800FBC2FAC2F9C2F8909EFBE0FEA3E08EF00C
:1048780012301D48DA000148BA0002488B000300D4
:104888000048E9909EF8E475F001122FD7122C65C4
:10489800F5FA909EF8E475F001122FD7122C65F501
:1048A800FB909EF8E475F001122FD7122C65F5FCE9
:1048B800802F909EF8E475F001122FD7122C65F521
:1048C800FA909EF8E475F001122FD7122C65F5FBCB
:1048D800800F909EF8E475F001122FD7122C65F521
:1048E800FAD2FE30FE5B80FB8057D2FBD2FAD2F9B7
:1048F800D2F8909EF8E475F001122FD7122C65F5C6
:10490800FA909EF8E475F001122FD7122C65F5FB8A
:10491800909EF8E475F001122FD7122C65F5FC90E3
:104928009EF8E475F001122FD7122C65F5FDD2FE22
:1049380020FEFD909EFB74FF75F0FC122D5A024874
:104948001AE4F5F8D2AF227BFF7A75798D78F07C7E
:104958009C7D017E007F20122C3F7B017A9C79F0A0
:10496800909D12122FEE909D15122FEEE4909D103F
:10497800F0A3F0909D10E0FEA3E0C3EE9402400384
:10498800024A18909D10E0A3E07803C333CE33CEDB
:10499800D8F92400FFEE3420FEE4FCFD909EF912C5
:1049A8002F85909EFDE4F0A37408F07D007C307F95
:1049B8005A12006E7B017A9C79F0909EFBE4F0A37A
:1049C8007410F07F007E30124476909D12122FCE24
:1049D800122D86645A7004E5F064A56026909D1532
:1049E800122FCE122D86B4A527E5F0B45A22909D39
:1049F80015122FCE78497CA17D017E007F08122CEC
:104A08003F800D909D10E475F001122D5A02497BEC
:104A1800E4909D10F0A3F0909D10E0FEA3E0C394F5
:104A28000AEE94004003024BAA7BFF7A7579AD78B1
:104A3800187C9D7D017E007F20122C3F7B017AA18E
:104A4800790278187C9D7D017E007F1A122C3F9098
:104A58009D10E0FEA3E0FF7C007D1B122CBDEF241F
:104A680064FFE43E909D1CF0A3EFF0909D2174013B
:104A7800F0909D10E0FEA3E090A16C75F006122F57
:104A8800C2EE75F006A42583F583E0FEA3E0FF7B64
:104A9800017A9D7918909EFBE4F0A37420F01246E9
:104AA800E37B017AA1791C78187C9D7D017E007FCB
:104AB8001A122C3F909D10E0FEA3E0FF7C007D1BA6
:104AC800122CBDEF2464FFE43E909D1CF0A3EFF090
:104AD800909D217401F0909D10E0FEA3E090A16EDE
:104AE80075F006122FC2EE75F006A42583F583E053
:104AF800FEA3E0FF7B017A9D7918909EFBE4F0A36A
:104B08007420F01246E37B017AA179A878187C9D7D
:104B18007D017E007F1A122C3F909D10E0FEA3E0DD
:104B2800FF7C007D1B122CBDEF2464FFE43E909DAA
:104B38001CF0A3EFF0909D10E0FEA3E0FF122CBD47
:104B4800EF2464FFE43E909D22F0A3EFF0909D10C7
:104B5800E0FEA3E0FF122CBDEF247DFFE43E909D14
:104B680026F0A3EFF0909D10E0FEA3E090A17075F1
:104B7800F006122FC2EE75F006A42583F583E0FE39
:104B8800A3E0FF7B017A9D7918909EFBE4F0A37463
:104B980020F01246E3909D10E475F001122D5A02A0
:104BA8004A1F22909CF5122FEE909CF5122FCE12E0
:104BB8002C65909CF8F0909CF8E0C394BE748094A7
:104BC800804003024DE2E075F00E90839E122FC2E2
:104BD800E0645A6003024DD9909CF8E075F00E909D
:104BE80083A1122FC2E07003024DD9909CF8E075A2
:104BF800F00E9083A3122FC2E07003024DE2909C46
:104C0800F8E075F00E9083A3122FC2E064017029BA
:104C1800909CF8E075F00E9083A4122FC2E0FEA3DA
:104C2800E0FF90A2A6E0FCA3E06F7002EC6E6003C8
:104C3800024DD9024DE2024DD9909CF8E075F00E74
:104C48009083A3122FC2E064026003024CFE909C82
:104C5800F8E075F00E9083A4122FC2E0FEA3E0FFE7
:104C68007B017A9C79F9909EFBE4F0A37402F01220
:104C78004476909CF9E0A3E0645A6003024DD99011
:104C88009CF8E0C394BD74809480503CE075F00EAD
:104C98009083B1122FC2E06402702D909CF8E075E9
:104CA800F00E9083B2122FC2E0FEA3E0FF909CF8B2
:104CB800E075F00E9083A4122FC2E0FCA3E06F70A1
:104CC80002EC6E7003024DE2E4909CF9F0A3F090C0
:104CD8009CF8E075F00E9083A4122FC2E0FEA3E0CA
:104CE800FF7B017A9C79F9909EFBE4F0A37402F0B3
:104CF8001246E3024DE2909CF8E075F00E9083A313
:104D0800122FC2E064036003024DD9909CF8E0754D
:104D1800F00E9083AA122FC2E0FEA3E0FF90A2A695
:104D2800E0FCA3E0FDEF6D7002EE6C6003024DD96C
:104D3800909CF8E075F00E9083A4122FC2E0FEA3B9
:104D4800E0FF7B017A9C79F9909EFBE4F0A3740262
:104D5800F0124476909CF9E0A3E0645A7073909C3A
:104D6800F8E0C394BD748094805039E075F00E90DB
:104D780083B1122FC2E06403702A909CF8E075F0AA
:104D88000E9083B2122FC2E0FEA3E0FF909CF8E0E1
:104D980075F00E9083A4122FC2E0FCA3E06F70029E
:104DA800EC6E6036E4909CF9F0A3F0909CF8E07506
:104DB800F00E9083A4122FC2E0FEA3E0FF7B017ADD
:104DC8009C79F9909EFBE4F0A37402F01246E3800C
:104DD80009909CF8E004F0024BBE909CF8E0FF902C
:104DE8009CF5122FCEEF122CAB227BFF7A73798DB4
:104DF80078F07C9C7D017E027F00122C3F909EF90A
:104E0800122F9100000000909EFD7420F0A3E4F0A2
:104E1800FD7C107F5A12006E909EF07410F0A3E48F
:104E2800F0909EF0E0FEA3E0C394FEEE9417506964
:104E3800909EF0E0A3E0FF7B017A9C79F0909EFBC6
:104E48007402F0A3E4F0124476E4909EF2F0A3F02A
:104E5800909EF2E0FEA3E0C3EE9401502F909EF2E4
:104E6800E0A3E025E0FFEE33FE74F02FF582749C9A
:104E78003EF583E0FEA3E0645A7003EE64A5601972
:104E8800909EF2E475F001122D5A80C4909EF07441
:104E98000175F000122D5A8088909EF2E0FEA3E082
:104EA800FF909EF0E0FCA3E02FFFEC3E909EF4F014
:104EB800A3EFF0909EF4E0FEA3E0C394FEEE9417F7
:104EC8004009909EF47410F0A3E4F0909EF474F0FE
:104ED80075F000122D5A909EF4E0FEA3E0FF90A218
:104EE800AAEEF0A3EFF07B017A9E79F4909EFBE4A2
:104EF800F0A37402F07F007E031246E37B017A9EE2
:104F080079F4909EFBE4F0A37402F0FF7E0312464E
:104F1800E37B017A9E79F4909EFBE4F0A37402F09F
:104F28007F047E031246E37B017A9E79F4909EFB10
:104F3800E4F0A37402F07F067E031246E37B017A55
:104F48009E79F4909EFBE4F0A37402F07F087E50F3
:104F58001246E37B017A9E79F4909EFBE4F0A374F9
:104F680002F07F097E501246E3909CF07407F0A38C
:104F780074FEF07B017A9C79F0909EFBE4F0A374B8
:104F880002F07F017E031246E37B017A9C79F09060
:104F98009EFBE4F0A37402F004FFFE1246E37B01DB
:104FA8007A9C79F0909EFBE4F0A37402F07F057E72
:104FB800031246E37B017A9C79F0909EFBE4F0A310
:104FC8007402F07F077E031246E3909CF0E4F0A39E
:104FD8007406F0A3E4F0A304F0A3E4F0A3742EF0A5
:104FE800A37401F0A3744CF0A37401F0A37471F0DE
:104FF800A37401F0A37477F0A37401F0A3748AF08A
:10500800A37402F0A3748AF0A37401F0A37471F07E
:10501800A374FFF0A3E4F07B017A9C79F0909EFBE7
:10502800F0A37414F07F0A7E501246E322E4909CA9
:10503800F0F0A3F0E50F20E0030252257B017A9CF3
:1050480079F0909EFBE4F0A37402F07F147E501276
:105058004476909CF0E0FEA3E04E70030252259047
:105068009CF0E0A3E08EF012301D519EA00051A3E9
:10507800A00151A8A02651ADA40051B2A40151B776
:10508800A4A051B7A4A151B7A4A251B7A4A351B7E2
:10509800A4A451B7A4A551B7A4A651B7A4A751B7C2
:1050A800A4A851B7A4A951B7A4AA51B7A4AB51B7A2
:1050B800A4AC51B7A4AD51B7A4AE51B7A4AF51B782
:1050C800A4B051B7A4B151B7A4B251B7A4B351B762
:1050D800A4B451B7A4B551B7A4B651B7A4B751B742
:1050E800A4B851B7A4B951B7A4BA51B7A4BB51B722
:1050F800A4BC51B7A4BD51B7A4BE51B7A4BF51B702
:10510800A4C051B7A4C151B7A4C251B7A4C351B7E1
:10511800A4C451B7A4C551B7A4C651B7A4C751B7C1
:10512800A4C851B7A4C951B7A4CA51B7A4CB51B7A1
:10513800A4CC51B7A4CD51B7A4CE51B7A4CF51B781
:10514800A4D051B7A4D151C4A4F051C4A4F151C4FE
:10515800A4F251C4A4F351D1A6005209A60151D614
:10516800AC0051DBAC0151E5C50051EAC60051E085
:10517800C70051EFC70151F4C90151F4C90751F4EF
:10518800C90D51F4C90E51F4C9115201CF0052068C
:10519800CF0100005209126C0D806612737C806189
:1051A800127278805C126ACF8057127369805290AD
:1051B8009CF0E0FEA3E0FF126D8D8045909CF0E02E
:1051C800FEA3E0FF126DE780381267968033126EF7
:1051D8009A802E1270708029125B3080241271AA76
:1051E800801F127258801A1200618015909CF0E09E
:1051F800FEA3E0FF126F9A80081270AF800312704E
:10520800EEE4909CF0F0A3F07B017A9C79F0909EFC
:10521800FBF0A37402F07F147E501246E322127250
:10522800957F64126F477F10126F471272FA1272DD
:10523800957F65126F47909CF87406F0909CF8E093
:10524800D3940074809480401D126EF2909CF8E014
:1052580024F0F582E4349CF583EFF01272B0909C50
:10526800F8E014F080D6126EF2909CF0EFF0127213
:10527800C91272FAE4909CF8F0909CF8E0C3940389
:1052880074809480504BE024F0F582E4349CF583DC
:10529800E0FFC4540F909CF9F0909CF8E024F0F5DE
:1052A80082E4349CF583E0540F909CFAF0909CF9CA
:1052B800E075F00AA4FFA3E02FFF909CF8E024F02B
:1052C800F582E4349CF583EFF0909CF8E004F080DC
:1052D800A8909CF87404F0909CF8E0C3940774803C
:1052E8009480504BE024F0F582E4349CF583E0FF91
:1052F800C4540F909CF9F0909CF8E024F0F582E4F7
:10530800349CF583E0540F909CFAF0909CF9E0757A
:10531800F00AA4FFA3E02FFF909CF8E024F0F582A8
:10532800E4349CF583EFF0909CF8E004F080A890BA
:105338009CF0E0FFA3E0FDA3E0FB125767909CF30D
:10534800EFF07B017A9C79F0909EFBE4F0A374085F
:10535800F07F107E001246E3909CF5E06003025453
:1053680008A3E06003025408909CFB122F910000F0
:105378000000909CF6E0FF90A267E4F0A3EFF090A5
:105388009CF5E0FF90A269E4F0A3EFF0909CF4E0B4
:10539800FF90A26BE4F0A3EFF0909CF2E0FF90A2E4
:1053A8006DE4F0A3EFF0909CF1E024FFFFE434FFFC
:1053B80090A26FF0A3EFF0909CF0E02464FFE43338
:1053C80090A271F0A3EFF0909CF0E4F0A3745AF06F
:1053D800A3E4F0A37412F07B017AA279677D087CBC
:1053E800001241B3909CF4122F857B017A9C79F0CE
:1053F800909EFBE4F0A37408F07F157E501246E3FC
:10540800227B007A007900909CF0122FEE90838F17
:10541800E0640160030254A090838AE0FF908E024A
:10542800E0D39F4011E090838AF0908E83122F91F1
:1054380000000000806290838AE0FF908E02E06F97
:105448007056FFFEFDFC908E83122F79D3122F48E1
:105458004038908E83122F79C3E50E9BFFE50D9A95
:10546800FEE50C99FDE50B98FCE47B0AFAF9F8C314
:10547800122F4850237B017A8E7903908E02E0FD2B
:105488007C00123B4A127212800EAF0EAE0DAD0CAC
:10549800AC0B908E83122F85908000E030E03AE0CC
:1054A80020E12990838B122F79C3E50E9BFBE50D34
:1054B8009AFAE50C99F9E50B98F8908394E0FFE4E3
:1054C800FCFDFEC3122F4850030255D1908000E026
:1054D80030E12DA3E004F0802790838B122F79C34D
:1054E800E50E9BFFE50D9AFEE50C99FDE50B98FC92
:1054F800E47BF47A01F9F8D3122F4840030255D11E
:10550800908001E070031258ACAF0EAE0DAD0CAC3C
:105518000B90838B122F85908000E054FDF0E054AF
:10552800FEF07B017A807901124BAB908001E0C3D9
:1055380094BE7480948040030255CCE075F00EA4AC
:10554800249EF9748335F0FA7B0178907C837D0181
:105558007E007F0E122C3F908392E0640370117BD3
:10556800017A837990126117908000E04401F0225B
:10557800908392E064067033908398E0FEA3E0FF86
:105588007B017A9C79F3909EFBE4F0A37402F012FD
:1055980044767B017A837990909CF3E0FCA3E0FD4C
:1055A800126232908000E04401F022908392E0641D
:1055B8001070167B017A8379901255D2908000E0A2
:1055C8004401F022E4908001F022909CF5122FEE25
:1055D800E4909CFAF0909CF5122FCE900001122CCA
:1055E8007EFF909CFAE0FE04F074FB2EF582E43412
:1055F8009CF583EFF0909CFAE0FF04F074FB2FF524
:1056080082E4349CF5837410F0909CF5122FCE90B0
:10561800000A122DB1E5F0FF909CFAE0FE04F07448
:10562800FB2EF582E4349CF583EFF0909CF5122F65
:10563800CE90000A122DB1FF909CFAE0FE04F0749F
:10564800FB2EF582E4349CF583EFF0909CF5122F45
:10565800CE900003122C7EFFE4909CFAE0FE04F04A
:1056680074FB2EF582E4349CF583E4F0909CF512EB
:105678002FCE900003122C7EFF909CFAE0FE04F0DF
:1056880074FB2EF582E4349CF583EFF0909CF512C0
:105698002FCE900003122C7E25E0FF909CFAE0FEAE
:1056A80004F074FB2EF582E4349CF583EFF09083CC
:1056B80098E0FEA3E0FFC006C007909CFAE024FB38
:1056C800F9E4349CFA7B01C003C002C001909CF548
:1056D800122FCE900003122C7E75F002A4FF909E2C
:1056E800FBE5F0F0A3EFF0D001D002D003D007D053
:1056F80006124476909CF5122FCE900003122C7E51
:1057080025E0FF909CFAE02FF07B017A9C79FBE082
:10571800FD7C00126973909CF8EEF0A3EFF0909C6A
:10572800F8E0FEA3E0EEFFA3E0FE04F074FB2EF524
:1057380082E4349CF583EFF0909CF8E0A3E0FFA3AB
:10574800E0FE04F074FB2EF582E4349CF583EFF060
:105758007B017A9C79FB909CFAE0FD126CD4229034
:105768009CFFEFF0A3EDF0A3EBF0E4909D0CF0A309
:10577800F0909CFFE024D0FFE43407909D0CF0A348
:10578800EFF0909D0CE0FEA3E0FF7C007D64122CFE
:10579800CF909D02ECF0A3EDF0909D0CE0FEA3E00D
:1057A800FF7C007D64122CCF909D04EEF0A3EFF0F7
:1057B800909D00E0FF909D06E4F0A3EFF0909D011E
:1057C800E0FF909D08E4F0A3EFF0909D06E0FEA3B3
:1057D800E064014E600B909D06E0A3E064024E7009
:1057E80014909D0274FFF5F0122D5A909D06E475F1
:1057F800F00C122D5A909D02E0FEA3E07802CEC371
:1058080013CE13D8F9FF909D02E0FCA3E02FFDEE24
:105818003CFCA3E0FEA3E07802CEC313CE13D8F974
:105828002DFDEC3EFC909D04E0FEA3E025E0FFEE9C
:1058380033FEC3ED9FFBEC9EFAA3E0FEA3E0240138
:10584800FFE43EFE7C007D0D122CBD7D05122CCFA1
:10585800EF2BFFEE3AFEA3E0FCA3E02FFFEE3CFEA9
:10586800EF24FFFFEE34FFA3F0A3EFF0909D0AE0D2
:10587800FEA3E0C3EE9400500C909D0AE475F00777
:10588800122D5A80E7909D0AE0FEA3E0FF7C007D80
:1058980007122CCF909D0AECF0A3EDF0909D0AE042
:1058A800A3E0FF227BFF7A76797378F57C9C7D01F3
:1058B8007E007F28122C3FE4909D1DF0A3F0909D60
:1058C8001DE0FEA3E0C39471EE940040030259F07A
:1058D800909D1DE0A3E07803C333CE33CED8F924DE
:1058E80003F58274803EF583E0FF90A2A6E0FCA356
:1058F800E0FDEF6D7001EC60030259E3909D1DE03F
:10590800FEA3E07803C333CE33CED8F92404F5825E
:1059180074803EF583E0FEA3E0FF7B017A9C79F575
:10592800909EFBE4F0A37402F0124476909D1DE073
:10593800FEA3E07803C333CE33CED8F92406F5822C
:1059480074803EF583E0FEA3E0FF7B017A9C79F743
:10595800909EFBE4F0A37402F0124476909CF7E06A
:10596800FEA3E0FF909CF5E0FCA3E06F7002EC6EF4
:105978006069909D1DE0FEA3E07803C333CE33CE6B
:10598800D8F92406F58274803EF583E0FEA3E0FF93
:105998007B017A9C79F5909EFBE4F0A37402F012E7
:1059A80046E3909CF9E4F0A3745AF0909D1DE0FE44
:1059B800A3E07803C333CE33CED8F92408F5827434
:1059C800803EF583E0FEA3E0FF7B017A9C79F990A5
:1059D8009EFBE4F0A37402F01246E3909D1DE4756B
:1059E800F001122D5A0258C622909D38EFF07BFF25
:1059F8007A7579ED78397C9D7D017E007F20122CA7
:105A08003F7B017AA1790278397C9D7D017E007FF8
:105A18001A122C3F909D38E075F01BA42464FFE413
:105A280035F0909D3DF0A3EFF0909D427401F09009
:105A38009D38E075F006A4246CF582E434A1F58362
:105A4800E0FEA3E0FF7B017A9D7939909EFBE4F0AC
:105A5800A37420F01246E37B017AA1791C78397C83
:105A68009D7D017E007F1A122C3F909D38E075F0D5
:105A78001BA42464FFE435F0909D3DF0A3EFF09063
:105A88009D427401F0909D38E075F006A4246EF5EF
:105A980082E434A1F583E0FEA3E0FF7B017A9D79DF
:105AA80039909EFBE4F0A37420F01246E37B017A60
:105AB800A179A878397C9D7D017E007F1A122C3F40
:105AC800909D38E075F01BA42464FFE435F0909DA8
:105AD8003DF0A3EFF0909D38E075F01BA42464FF1F
