:1000000002643B020006C2AFD2AF32025455C2AF07
:10001000D2AF3202000E90A019E0FEA3E0FF126CF6
:0A0020005222220268E3126ECF2282
:10002B00027046909D3D122DEA00003000909D41DC
:10003B00E4F0A3740AF07D007C307F5A1264DC7B01
:10004B00017AA079A3909D3FE4F0A37414F07F0094
:10005B007E30123F2BE4909B34F0909B34E0C394A2
:10006B000674809480506EE025E025E024A3F58291
:10007B00E434A0F583122DC6E4FBFAF9F8C3122D74
:10008B00A16022909B34E025E025E024A3F582E4D7
:10009B0034A0F583122DC67B3F7A42790F7800C3CB
:1000AB00122DA15028909B34E025E025E02483F508
:1000BB0082E434A0F583122DC6909B34E025E02515
:1000CB00E024A3F582E434A0F583122DDE909B345B
:1000DB00E004F080857B017AA079A3909D3FE4F04A
:0C00EB00A37414F07FA07EA6124198229E
:1000F800FFFF4457494E543542A0FD000041A0F887
:100108000041A0F90041A0FA0042A0FB000042A172
:1001180001000042A0FF00005A9F463FC900690045
:1001280064000086000A2D2D203A3A0000000000E5
:1001380000000000005A9F603FCC012700640000C7
:1001480086000A2D2D2F3A3A00000000000000001A
:1001580000005A9FFC3FD001E50064000001E50063
:100168006402AD007D00100017181802000000603E
:100178003C9FC0400040A04140401040B04150402A
:100188002040C04160403040D04170404040E04194
:1001980080405040F041904060410041A040704193
:1001A8001041B04080412041C04090413041D0547E
:1001B8009FAC41E041F84210422842404258427008
:1001C800428842A042B8489F9D00000000000000FD
:1001D80000429FA50000429FAA0000429FA700007E
:1001E800419FA900419F8C00429F7A0005498000E9
:1001F800B2E2CAD4BABAD7D6006E60800949443090
:1002080030BBD8B7E7B8DFCEC2000000000000005E
:100218000000000000000000000000000049443019
:1002280031BBD8B7E7B5CDCEC20000000000000052
:1002380000000000000000000000000000494430F9
:1002480032BBD8B7E7B8DFCAAA0000000000000038
:1002580000000000000000000000000000494430D9
:1002680033BBD8B7E7B5CDCAAA000000000000002C
:1002780000000000000000000000000000494430B9
:1002880034CBCDB7E7B8DFCEC200000000000000D5
:100298000000000000000000000000000049443099
:1002A80035CBCDB7E7B5CDCEC200000000000000C9
:1002B8000000000000000000000000000049443079
:1002C80036CBCDB7E7B8DFCAAA00000000000000AF
:1002D8000000000000000000000000000049443059
:1002E80037CBCDB7E7B5CDCAAA00000000000000A3
:1002F8000000000000000000000000000049443039
:1003080038B1A3C1F40000000000000000000000A4
:100318000000000000000000000000000049443018
:1003280039C4DAB2BFCDA8D0C50000000000000073
:1003380000000000000000000000000000494431F7
:10034800304E5443D2ECB3A300000000000000007C
:1003580000000000000000000000000000494431D7
:1003680031B7E7BBFA31B9CAD5CF000000000000A9
:1003780000000000000000000000000000494431B7
:1003880032B7E7BBFA32B9CAD5CF00000000000087
:100398000000000000000000000000000049443197
:1003A80033B7E7BBFA33B9CAD5CF00000000000065
:1003B8000000000000000000000000000049443177
:1003C80034B7E7BBFA34B9CAD5CF00000000000043
:1003D8000000000000000000000000000049443157
:1003E80035B7E7BBFA35B9CAD5CF00000000000021
:1003F8000000000000000000000000000049443137
:1004080036CDE2B7E7BBFAB9CAD5CF000000000085
:100418000000000000000000000000000049443116
:1004280037B7E7BBFA31D4CBD0D0B3ACCAB10000F0
:1004380000000000000000000000000000494431F6
:1004480038B7E7BBFA32D4CBD0D0B3ACCAB10000CE
:1004580000000000000000000000000000494431D6
:1004680039B7E7BBFA33D4CBD0D0B3ACCAB10000AC
:1004780000000000000000000000000000494432B5
:1004880030B7E7BBFA34D4CBD0D0B3ACCAB1000094
:100498000000000000000000000000000049443295
:1004A80031B7E7BBFA35D4CBD0D0B3ACCAB1000072
:1004B8000000000000000000000000000049443275
:1004C80032CDE2B7E7BBFAD4CBD0D0B3ACCAB100D7
:1004D8000000000000000000000000000049443255
:1004E80033B8DFD1B931B8E6BEAF00000000000074
:1004F8000000000000000000000000000049443235
:1005080034B8DFD1B931CBF8CBC00000000000000F
:100518000000000000000000000000000049443214
:1005280035B5CDD1B931B8E6BEAF00000000000046
:1005380000000000000000000000000000494432F4
:1005480036B5CDD1B931CBF8CBC0000000000000E2
:1005580000000000000000000000000000494432D4
:1005680037C5C5C6F8CEC2B6C831B8E6BEAF0000BA
:1005780000000000000000000000000000494432B4
:1005880038C5C5C6F8CEC2B6C831CBF8CBC0000056
:100598000000000000000000000000000049443294
:1005A80039B6CCD6DCC6DA31B8E6BEAF00000000FA
:1005B8000000000000000000000000000049443373
:1005C80030D1B9BBFA31D4CBD0D0B3ACCAB100006A
:1005D8000000000000000000000000000049443353
:1005E80031B8DFD1B932B8E6BEAF00000000000074
:1005F8000000000000000000000000000049443333
:1006080032B8DFD1B932CBF8CBC00000000000000F
:100618000000000000000000000000000049443312
:1006280033B5CDD1B9D1B9C1A6B8E6BEAF00000087
:1006380000000000000000000000000000494433F2
:1006480034B5CDD1B932CBF8CBC0000000000000E2
:1006580000000000000000000000000000494433D2
:1006680035C5C5C6F8CEC2B6C832B8E6BEAF0000BA
:1006780000000000000000000000000000494433B2
:1006880036C5C5C6F8CEC2B6C832CBF8CBC0000056
:100698000000000000000000000000000049443392
:1006A80037B6CCD6DCC6DA32B8E6BEAF00000000FA
:1006B8000000000000000000000000000049443372
:1006C80038D1B9BBFA32D4CBD0D0B3ACCAB1000060
:1006D8000000000000000000000000000049443352
:1006E80039BCD3CAAAC6F7B5E7C1F7B9FDB4F30058
:1006F8000000000000000000000000000049443431
:1007080030BCD3CAAAC6F7B8DFCBAECEBB00000058
:100718000000000000000000000000000049443410
:1007280031BCD3CAAAC6F7C8B1CBAE0000000000DE
:1007380000000000000000000000000000494434F0
:1007480032BCD3CAAAC6F7D4CBD0D0B3ACCAB10096
:1007580000000000000000000000000000494434D0
:1007680033BCD3C8C8C6F7B8E6BEAF000000000067
:1007780000000000000000000000000000494434B0
:1007880034BCD3C8C8C6F731B3ACCAB10000000046
:100798000000000000000000000000000049443490
:1007A80035BCD3C8C8C6F732B3ACCAB10000000024
:1007B8000000000000000000000000000049443470
:1007C80036B6CFB5E7D6D8C6F40000000000000062
:1007D8000000000000000000000000000049443450
:1007E80037B5E7D4B4CFE0D0F2B4EDCEF3000000D3
:1007F8000000000000000000000000000049443430
:1008080038B5E7D4B4C6B5C2CAC6ABB8DF00000075
:10081800000000000000000000000000004944340F
:1008280039B5E7D4B4C6B5C2CAC6ABB5CD00000069
:1008380000000000000000000000000000494435EE
:100848003041CFE0B9FDD1B9000000000000000040
:1008580000000000000000000000000000494435CE
:100868003142CFE0B9FDD1B900000000000000001E
:1008780000000000000000000000000000494435AE
:100888003243CFE0B9FDD1B92000000000000000DC
:10089800000000000000000000000000004944358E
:1008A8003341CFE0C7B7D1B9000000000000000015
:1008B800000000000000000000000000004944356E
:1008C8003442CFE0C7B7D1B90000000000000000F3
:1008D800000000000000000000000000004944354E
:1008E8003543CFE0C7B7D1B90000000000000000D1
:1008F800000000000000000000000000004944352E
:100908003641CFE0C8B1CFE0000000000000000091
:10091800000000000000000000000000004944350D
:100928003742CFE0C8B1CFE000000000000000006F
:1009380000000000000000000000000000494435ED
:100948003843CFE0C8B1CFE000000000000000004D
:1009580000000000000000000000000000494435CD
:1009680039C6F8C1F7B6AACAA7B8E6BEAF000000F4
:1009780000000000000000000000000000494436AC
:1009880030B9FDC2CBCDF8D4CBD0D0B3ACCAB1000E
:10099800000000000000000000000000004944368C
:1009A80031B9FDC2CBCDF8B6C2B8E6BEAF00000083
:1009B800000000000000000000000000004944366C
:1009C80032D4B6B3CCB9D8BBFAB8E6BEAF00000093
:1009D800000000000000000000000000004944364C
:1009E80033D2E7CBAEB8E6BEAF000000000000008F
:1009F800000000000000000000000000004944362C
:100A080034C8BABFD8CDA8D0C5D2ECB3A300000073
:100A1800000000000000000000000000004944360B
:100A280035B1E4C6B5C6F7B9CAD5CF000000000095
:100A380000000000000000000000000000494436EB
:100A480036D7A2CBAEB5E7B5BCC2CAB8DF00000046
:100A580000000000000000000000000000494436CB
:100A680037D7A2CBAEB5E7B5BCC2CAB5CD0000003A
:100A780000000000000000000000000000494436AB
:100A880038D1CCCEEDB8E6BEAF00000000000000C3
:100A9800000000000000000000000000004944368B
:100AA80039D3C3BBA7D7D4B6A8D2E5B8E6BEAF0042
:100AB800000000000000000000000000004944376A
:100AC80030B5E7D4B4D2ECB3A300000000000000B6
:100AD800000000000000000000000000004944374A
:100AE80031C8EBCBAEB8DFCEC2000000000000007A
:100AF800000000000000000000000000004944372A
:100B080032CBAEB7A7B9CAD5CF00000000000000AD
:100B18000000000000000000000000000049443709
:100B280033C5CCB9DCB6CFC1F7B8E6BEAF0000001C
:100B380000000000000000000000000000494437E9
:100B480034B7E7BBFA36B9CAD5CF000000000000B9
:100B580000000000000000000000000000494437C9
:100B680035B7E7BBFA37B9CAD5CF00000000000097
:100B780000000000000000000000000000494437A9
:100B880036B7E7BBFA38B9CAD5CF00000000000075
:100B98000000000000000000000000000049443789
:100BA80037B7E7BBFA36B3ACCAB1000000000000A3
:100BB8000000000000000000000000000049443769
:100BC80038B7E7BBFA37B3ACCAB100000000000081
:100BD8000000000000000000000000000049443749
:100BE80039B7E7BBFA38B3ACCAB10000000000005F
:100BF8000000000000000000000000000049443828
:100C080030C5C5CBAEB8DFCBAECEBB000000000010
:100C18000000000000000000000000000049443807
:100C280031BCD3CAAAC6F7D2ECB3A30000000000B7
:100C380000000000000000000000000000494438E7
:100C480032B7E7D1B9B9FDB5CD000000000000000A
:100C580000000000000000000000000000494438C7
:100C680033BAECCDE2BCD3CAAAB9FDC8C8000000AB
:100C780000000000000000000000000000494438A7
:100C880034D1B9BBFA31B8DFD1B900000000000097
:100C98000000000000000000000000000049443887
:100CA80035B7E7BBFAB5E7C1F7B9FDB4F300000003
:100CB8000000000000000000000000000049443867
:100CC80036B8A8C2B7C8EBCBAEB8DFCEC2000000BA
:100CD8000000000000000000000000000049443847
:100CE80037454556B8E6BEAF0000000000000000DA
:100CF8000000000000000000000000000049443827
:100D080038BDD3CBAEC5CCD2E7CBAE0000000000D7
:100D18000000000000000000000000000049443806
:100D280039C5C5C6F8B8DFCEC20000000000000013
:100D380000000000000000000000000000494439E5
:100D480030C9E8B1B8CAB9D3C3B3ACCAB10000005E
:100D580000000000000000000000000000494439C5
:100D680031B1A3C1F4000000000000000000000041
:100D780000000000000000000000000000494439A5
:100D880032B1A3C1F4000000000000000000000020
:100D98000000000000000000000000000049443985
:100DA80033B1A3C1F40000000000000000000000FF
:100DB8000000000000000000000000000049443965
:100DC80034B1A3C1F40000000000000000000000DE
:100DD8000000000000000000000000000049443945
:100DE80035B1A3C1F40000000000000000000000BD
:100DF8000000000000000000000000000049443925
:100E080036B1A3C1F400000000000000000000009B
:100E18000000000000000000000000000049443904
:100E280037BBD8B7E7CEC2CAAAB6C8B4ABB8D0C623
:100E3800F7000000000000000000000000494439ED
:100E480038CBCDB7E7CEC2CAAAB6C8B4ABB8D0C6FD
:100E5800F7000000000000000000000000494439CD
:100E680039BCD3CAAAB0E5D2ECB3A3000000000095
:100E780000000000000000000000000000494431AC
:100E88003030C6C1C4BBD2D1CBF8B6A80000000030
:100E9800000000000000000000000000004944318C
:100EA8003031D2BBCCECBDABCBF8B6A8000000000B
:100EB800000000000000000000000000004944316C
:100EC8003032C8FDCCECBDABCBF8B6A800000000B2
:100ED800000000000000000000000000004944314C
:100EE8003033C6DFCCECBDABCBF8B6A800000000B1
:100EF800000000000000000000000000004944312C
:100F08003034CAAECEE5CCECBDABCBF8B6A8000009
:100F1800000000000000000000000000004944310B
:100F28003035C8FDCAAECCECBDABCBF8B6A80000D6
:100F380000000000000000000000000000494431EB
:100F48003036B5E7D4B432CFE0D0F2B4ED000000CB
:100F580000000000000000000000000000494431CB
:100F68003037B5E7D4B432C6B5C2CAB8DF0000001E
:100F780000000000000000000000000000494431AB
:100F88003038B5E7D4B432C6B5C2CAB5CD00000012
:100F9800000000000000000000000000004944318B
:100FA8003039B5E7D4B43241CFE0B9FDD1B900004A
:100FB800000000000000000000000000004944316B
:100FC8003130B5E7D4B43242CFE0B9FDD1B9000031
:100FD800000000000000000000000000004944314B
:100FE8003131B5E7D4B43243CFE0B9FDD1B900000F
:100FF800000000000000000000000000004944312B
:101008003132B5E7D4B43241CFE0C7B7D1B9000027
:10101800000000000000000000000000004944310A
:101028003133B5E7D4B43242CFE0C7B7D1B9000005
:1010380000000000000000000000000000494431EA
:101048003134B5E7D4B43243CFE0C7B7D1B90000E3
:101058000000000000000000000000000041A103A3
:101068000047A0CF0000000000000048A0DE0000FC
:1010780000000000000048A0D600000000000000AA
:1010880000C10042A0CD000052A0BB00000000003B
:101098000000000000000000000000000042A0E87E
:1010A800000042A0EA000042A0E6000044A0F400CC
:1010B80000000042A0EC000044A0EE000000000286
:1010C800080000040B00000000040F0000000042AC
:1010D800A0F20000010A0061009D4600C1814001A4
:1010E800C0804101C0804100C1814001C0804100F1
:1010F800C1814000C1814001C0804101C0804100E0
:10110800C1814000C1814001C0804100C1814001CE
:10111800C0804101C0804100C1814001C0804100C0
:10112800C1814000C1814001C0804100C1814001AE
:10113800C0804101C0804100C1814000C18140019F
:10114800C0804101C0804100C1814001C080410090
:10115800C1814000C1814001C0804101C08041007F
:10116800C1814000C1814001C0804100C18140016E
:10117800C0804101C0804100C1814000C18140015F
:10118800C0804101C0804100C1814001C080410050
:10119800C1814000C1814001C0804100C18140013E
:1011A800C0804101C0804100C1814001C080410030
:1011B800C1814000C1814001C0804101C08041001F
:1011C800C1814000C1814001C0804100C18140010E
:1011D800C0804101C0804100C1814061009E46003D
:1011E800C0C101C30302C2C60607C705C5C404CCF3
:1011F8000C0DCD0FCFCE0E0ACACB0BC90908C8D823
:101208001819D91BDBDA1A1EDEDF1FDD1D1CDC14E2
:10121800D4D515D71716D6D21213D311D1D010F0B2
:101228003031F133F3F23236F6F737F53534F43C32
:10123800FCFD3DFF3F3EFEFA3A3BFB39F9F8382802
:10124800E8E929EB2B2AEAEE2E2FEF2DEDEC2CE422
:101258002425E527E7E62622E2E323E12120E0A092
:101268006061A163A3A26266A6A767A56564A46C72
:10127800ACAD6DAF6F6EAEAA6A6BAB69A9A86878A2
:10128800B8B979BB7B7ABABE7E7FBF7DBDBC7CB462
:101298007475B577B7B67672B2B373B17170B05072
:1012A8009091519353529296565797559594549CB2
:1012B8005C5D9D5F9F9E5E5A9A9B5B995958988882
:1012C8004849894B8B8A4A4E8E8F4F8D4D4C8C44A2
:1012D80084854587474686824243834181804041D1
:1012E8009AAF0041917000449B300000000041918A
:1012F8006B0044916C000000006930917F5A021025
:1013080003C80250155016000000FF5A020303C814
:10131800000000A020031C00FF5A020301C80100BE
:1013280039A023031900FF5A020601C803A084A0AC
:1013380024010000395A020301C8010039A025011F
:101348000400FF5A020601C802A087A02701040072
:10135800FF5A020303C8010039A0A0011A00FF5A6E
:10136800020302C8000000A0A3031000FF5A0203F2
:1013780002C801000AAA00032600FF5A020308C88F
:1013880001000AAA02034100FF5A020301C8010032
:101398000AAA0A036F00FF5A020301C801000AAA39
:1013A8000B037700FF5A02031FC801000BAB200391
:1013B8008C00FF5A020601C803AC80AC20023A0038
:1013C8000C5A020306C800000DAEA0032000FF5A05
:1013D800020307C803B300B320011A00135A020618
:1013E80001C803B380B320011A00135A020601C8CA
:1013F80003B382B322011C00135A020601C803B3C7
:1014080083B323011D00135A020601C803B384B332
:1014180024011E00135A020601C803B385B325012F
:101428001F00135A020601C803B386B32601200021
:10143800135A02030BC803B400B420015800145A0D
:10144800020301C803B400B42B013B00145A020381
:1014580001C803B400B42C019E00145A020601C846
:1014680003B480B420015800145A020601C803B41A
:1014780081B421015900145A020601C803B483B487
:1014880023015B00145A020601C803B484B4240182
:101498005C00145A020601C803B485B425015D0036
:1014A800145A020601C803B486B426015E00145A11
:1014B800020601C803B487B427015F00145A020664
:1014C80001C803B488B428016000145A020601C890
:1014D80003B48AB42A016200145A020601C803B48C
:1014E8008BB42B013B00145A020601C803B48CB418
:1014F8002C019E00145A020306C803B700B7200146
:101508003B00175A020305C803B700B7260143007A
:10151800175A020601C803B780B720013B00175AC3
:10152800020601C803B784B724013F00175A020610
:1015380001C803B785B725014000175A020601C83C
:1015480003B786B726014300175A020601C803B736
:1015580087B727014400175A020601C803B788B79E
:1015680028014500175A020601C803B789B729019F
:101578004600175A020601C803B78AB72A0147006E
:10158800175A020301C803B800B820016A00185AA4
:10159800020303C803B800B821016D00185A0203FA
:1015A80001C803B800B824017200185A020301C820
:1015B80003B800B825017400185A020301C803B81B
:1015C80000B826017B00185A020301C803B800B806
:1015D80027022A00185A020601C803B880B8200159
:1015E8006A00185A020601C803B881B821016D00C3
:1015F800185A020601C803B882B822016E00185AA8
:10160800020601C803B883B823016F00185A0206FE
:1016180001C803B884B824017200185A020601C828
:1016280003B885B825017400185A020601C803B822
:1016380086B826017B00185A020601C803B887B885
:1016480027022A00185A020301C803BB00BB200165
:10165800B0001B5A020302C803BB00BB2101B20041
:101668001B5A020302C803BB00BB2301B5001B5A67
:10167800020302C803BB00BB2501B8001B5A0203C2
:1016880001C803BB00BB2701BB001B5A020302C8E9
:1016980003BB00BB2801D1001B5A020302C803BBCD
:1016A80000BB2A01FB001B5A020302C803BB00BB94
:1016B8002C0276001B5A020601C803BB80BB20011E
:1016C800B0001B5A020601C803BB81BB2101B2004E
:1016D8001B5A020601C803BB82BB2201B3001B5A76
:1016E800020601C803BB83BB2301B5001B5A0206CF
:1016F80001C803BB84BB2401B6001B5A020601C8FB
:1017080003BB85BB2501B8001B5A020601C803BBF1
:1017180086BB2601B9001B5A020601C803BB87BB5A
:101728002701BB001B5A020601C803BB88BB28015E
:10173800D1001B5A020601C803BB89BB2901D2008C
:101748001B5A020601C803BB8ABB2A01FB001B5AAD
:10175800020601C803BB8BBB2B01FC001B5A020607
:1017680001C803BB8CBB2C0276001B5A020601C8B9
:1017780003BB8DBB2D0277001B5A020302C803BCB2
:1017880000BC200232001C5A020301C803BC00BC82
:10179800220252001C5A020301C803BC00BC2302E7
:1017A80055001C5A020301C803BC00BC240258009F
:1017B8001C5A020301C803BC00BC250261001C5A64
:1017C800020302C803BC00BC260271001C5A0203B3
:1017D80001C803BC00BC280286001C5A020601C8C6
:1017E80003BC80BC200232001C5A020601C803BC9C
:1017F80081BC210233001C5A020601C803BC82BC0A
:10180800220252001C5A020601C803BC83BC2302F0
:1018180055001C5A020601C803BC84BC24025800A7
:101828001C5A020601C803BC85BC250261001C5A6B
:10183800020601C803BC86BC260271001C5A0206B7
:1018480001C803BC87BC270272001C5A020601C8E3
:1018580003BC88BC280286001C5A020302C803BFC6
:1018680000BF200102001F5A020301C803BF00BFC6
:10187800220107001F5A020301C803BF00BF23014A
:10188800A5001F5A020601C803BF80BF200102003D
:101898001F5A020601C803BF81BF210103001F5A56
:1018A800020601C803BF82BF220107001F5A0206B1
:1018B80001C803BF83BF2301A5001F5A020308C83C
:1018C80003C200C220018200225A020301C803C2D7
:1018D80000C228018C00225A020601C803C280C235
:1018E80020018200225A020601C803C281C22101D6
:1018F8008300225A020601C803C282C22201840060
:10190800225A020601C803C284C224018600225A50
:10191800020601C803C285C225018700225A0206B1
:1019280001C803C286C226018800225A020601C8DD
:1019380003C287C227018900225A020601C803C2CE
:1019480088C228018C00225A020601C803C580C536
:1019580020023B000F5A020301C803C700C7200139
:10196800A600275A020301C803C700C72101A9001E
:10197800275A020601C803C780C72001A600275AB4
:10198800020601C803C781C72101A900275A020618
:1019980001C803C782C72201A800275A020301C849
:1019A800010027C723037500FF5A020301C801007D
:1019B80027C724037700FF5A020301C803C800C8D9
:1019C80020012700285A020301C803C800C82101C2
:1019D8002900285A020304C803C800C822012D00A0
:1019E800285A020601C803C880C820012700285ABF
:1019F800020601C803C881C821012900285A020625
:101A080001C803C882C822012D00285A020601C84D
:101A180003C883C823012E00285A020601C803C838
:101A280084C824012F00285A020601C803C885C8A3
:101A380025013000285A02030EC8010029C9B00345
:101A48007800FF5A020601C803C990C930023C0059
:101A5800295A020302C803CC00CCA00302002C5A66
:101A6800020301C803CF00CF200108002F5A020348
:101A780002C803CF00CF21010A002F5A020304C86D
:101A880003CF00CF23010D002F5A020301C803CF53
:101A980000CF270141002F5A020301C803CF00CF0E
:101AA80028015A002F5A020301C803CF00CF290189
:101AB800A7002F5A020601C803CF81CF21010A00CF
:101AC8002F5A020601C803CF83CF23010D002F5AD6
:101AD800020601C803CF84CF24010E002F5A020644
:101AE80001C803CF85CF25010F002F5A020601C870
:101AF80003CF86CF260110002F5A020601C803CF54
:101B080087CF270141002F5A020601C803CF88CF8B
:101B180028015A002F5A020601C803CF89CF29018C
:101B2800A7002F5A020601C803CF8ACF2A023B001A
:101B38002F5A02030AC8010034D420039C00FF5A1C
:101B4800020302C8010034D42A03A800FF5A020382
:101B580007C803D500D520011A00355A020601C866
:101B680003D580D520011A00355A020601C803D5CD
:101B780082D522011C00355A020601C803D583D537
:101B880023011D00355A020601C803D584D5240156
:101B98001E00355A020601C803D585D525011F0048
:101BA800355A020601C803D586D526012000355AC4
:101BB800020301C803D600D620010800365A0203E2
:101BC80001C803D600D622010B00365A020601C806
:101BD80003D680D620010800365A020601C803D66B
:101BE80082D622010B00365A020601C803D68BD6CC
:101BF8002B023B00365A020301C803D800D8200143
:101C0800F500385A020301C803D800D8210207009A
:101C1800385A020601C803D880D82001F500385A7E
:101C2800020601C803D881D821020700384E9171F5
:101C38000000000000000000000000000000418ECD
:101C48006A0063008E6B5A13B320B350B3805A13E3
:101C5800B322B352B3825A13B323B353B3835A1381
:101C6800B324B354B3845A13B325B355B3855A1365
:101C7800B326B356B3865A14B420B450B4805A1459
:101C8800B421B451B4815A14B423B453B4835A144C
:101C9800B424B454B4845A14B425B455B4855A142D
:101CA800B426B456B4865A14B427B457B4875A1411
:101CB800B428B458B4885A14B42AB45AB48A5A14F2
:101CC800B42BB45BB48B5A14B42CB45CB48C5A17D0
:101CD800B720B750B7805A17B724B754B7845A17E4
:101CE800B725B755B7855A17B726B756B7865A17BF
:101CF800B727B757B7875A17B728B758B7885A17A3
:101D0800B729B759B7895A17B72AB75AB78A5A1885
:101D1800B820B850B8805A18B821B851B8815A18A4
:101D2800B822B852B8825A18B823B853B8835A1888
:101D3800B824B854B8845A18B825B855B8855A186C
:101D4800B826B856B8865A18B827B857B8875A1B4D
:101D5800BB20BB50BB805A1BBB21BB51BB815A1B4C
:101D6800BB22BB52BB825A1BBB23BB53BB835A1B30
:101D7800BB24BB54BB845A1BBB25BB55BB855A1B14
:101D8800BB26BB56BB865A1BBB27BB57BB875A1BF8
:101D9800BB28BB58BB885A1BBB29BB59BB895A1BDC
:101DA800BB2ABB5ABB8A5A1BBB2BBB5BBB8B5A1BC0
:101DB800BB2CBB5CBB8C5A1BBB2DBB5DBB8D5A1CA3
:101DC800BC20BC50BC805A1CBC21BC51BC815A1CD4
:101DD800BC22BC52BC825A1CBC23BC53BC835A1CB8
:101DE800BC24BC54BC845A1CBC25BC55BC855A1C9C
:101DF800BC26BC56BC865A1CBC27BC57BC875A1C80
:101E0800BC28BC58BC885A1FBF20BF50BF805A1F6F
:101E1800BF21BF51BF815A1FBF22BF52BF825A1F65
:101E2800BF23BF53BF835A22C220C250C2805A2246
:101E3800C221C251C2815A22C222C252C2825A222D
:101E4800C224C254C2845A22C225C255C2855A220B
:101E5800C226C256C2865A22C227C257C2875A22EF
:101E6800C228C258C2885A27C720C750C7805A27D5
:101E7800C721C751C7815A28C820C850C8805A28C6
:101E8800C821C851C8815A28C822C852C8825A28AD
:101E9800C823C853C8835A28C824C854C8845A2891
:101EA800C825C855C8855A2FCF20CF50CF805A2F64
:101EB800CF21CF51CF815A2FCF22CF52CF825A2F45
:101EC800CF23CF53CF835A2FCF24CF54CF845A2F29
:101ED800CF25CF55CF855A2FCF26CF56CF865A2F0D
:101EE800CF27CF57CF875A2FCF28CF58CF885A2FF1
:101EF800CF29CF59CF895A35D520D550D5805A35D5
:101F0800D522D552D5825A35D523D553D5835A35BE
:101F1800D524D554D5845A35D525D555D5855A35A2
:101F2800D526D556D5865A36D620D650D6805A3696
:101F3800D622D652D6825A38D820D850D8805A3885
:101F4800D821D851D881418E690058A0A30000003B
:101F58000000000000000000000000000000000079
:101F6800000000000058A0830000000000000001ED
:101F78000000000200027360000A2D080007ED65EA
:101F880041A07FFF6064A01B000001000200030065
:101F98000400050006000700080009000A000B00FD
:101FA8000C000D000E000F011000110012021300AA
:101FB8001400150016001700180019001A001B025B
:101FC8001C001D001E001F0020002100220023000D
:101FD8002400250026022700280029002A002B00BB
:101FE8002C002D002E002F033000310048A09B004C
:101FF8000101030203030542A081000042A0190069
:102008000042A016000041A0180000AF13EF131300
:10201800543F5401640160030229C77B017A9B790C
:1020280034909D3FF0A3740CF07F217EA0123F2BCB
:10203800909B36E0FEA3E0FF909B34E0FCA3E02FEA
:10204800FFEC3EFE909F8CE06F7001EE604C909B21
:1020580036E0FEA3E0FF909B34E0A3E02FFFEC3EC8
:10206800FE909F8CE0C39FE49E501D909B3EE4F041
:10207800A304F0FB7A9B793E909D3FE4F0A37402A1
:10208800F07F267EA0124198909B36E0A3E0FF9057
:102098009B34E0A3E02F909F8CF0909B34E0FEA34C
:1020A800E0D39400EE9400500CA3E0FEA3E094006B
:1020B800EE94004020909B3EE0FEA3E04E60167B2D
:1020C800017A9F797A909D3FE4F0A37402F07FA093
:1020D8007E0012419890A0FDE0FEA3E0640D4E60E2
:1020E8000302248490A0FDE0A3E0FF909FA5E0FCFC
:1020F800A3E06F7002EC6E601EE4909FAAF0A3F05C
:102108007B017A9F79AA909D3FF0A37402F07F012A
:102118007EAE12419880167B017A9F79AA909D3FE6
:10212800E4F0A37402F07F017EAE123F2B7B017AAC
:102138009B7934909D3FE4F0A37410F07FA07EAEAD
:10214800123F2BE4909B42F0A3E05407F07B017A06
:102158009F797C78347C9B7D017E007F101230292A
:10216800EF702F909FA7E0FEA3E0FF909FAAE0FCEE
:10217800A3E0B5071DECB5061990A0FDE0FEA3E0AD
:10218800FF909FA5E0FCA3E06F7002EC6E70030265
:1021980027797B017A9B7934787C7C9F7D017E004E
:1021A8007F10122A98E4909FA9F0909B67F0909B6B
:1021B80067E0C3940674809480400302242CE49062
:1021C8009B66F0909B66E0C39410748094804003F3
:1021D800022423A3E0C454F0FF909B66E02F909B59
:1021E8006BF0E075F018A42400FFE5F03435FE7BB1
:1021F800017A9B7934909D3FE4F0A37430F0123F4C
:102208002B7B017A9B7934909B68122E47909B66B2
:10221800E0FF7E007401A807088005C333CE33CEE3
:10222800D8F9FF909B67E025E0247CF582E4349F91
:10223800F583E0FCA3E0FDEE5CFEEF5D4E7003026B
:10224800237A909B68122E27122BDF645A7004E5BC
:10225800F064A57003022317909B68122E2774A5BB
:1022680075F05A122C427B017A9B7948909D3FE485
:10227800F0A37408F07F107E00123F2B7B017A9B3D
:10228800794878367C9B7D017E007F03122A987BF3
:10229800017A9B794C78397C9B7D017E007F031203
:1022A8002A987E007F087D007B017A9B793C12305A
:1022B8004D909B6BE0FF909B42E4F0A3EFF07B0115
:1022C8007A9B7944C002C001909B6B75F020A424CE
:1022D80009F9748035F0FA909B7F122E47909B8203
:1022E800E4F0A37420F0D001D002126815909B6B23
:1022F800E075F018A42400FFE5F03435FE7B017A80
:102308009B7934909D3FE4F0A37430F0124198908B
:102318009FAAE0FEA3E0FF7C007D0A122B16909F87
:10232800A9E0C39FEC9E4041A3E0FEA3E0FF122B6F
:1023380016EF240AFFE43EFE909FA9E0C39FEC9E9F
:102348005027909B6BE075F018A42400FDE5F0344D
:1023580035FC909FAAE0A3E075F00AA4FF909FA91E
:10236800E0C39FFF7B0D125AA6909FA9E004F002DC
:10237800241A909B68122E27122BDF645A7004E5EA
:10238800F064A5600302241A7B017A9B7948909D2A
:102398003FF0A37408F07F107E00123F2B7B017A78
:1023A8009B7948783C7C9B7D017E007F03122A98AC
:1023B8007B017A9B794C783F7C9B7D017E007F0373
:1023C800122A98909B6BE0FF909B42E4F0A3EFF0F9
:1023D8007B017A9B7934909D3FE4F0A37410F07FE1
:1023E800007E3012419812602AE4909B34F0A3F0EA
:1023F800909B6BE075F018A42400FFE5F03435FEDF
:102408007B017A9B7934909D3FE4F0A37402F0122B
:102418004198909B66E004F00221CB909B67E00412
:10242800F00221B6909FA9E0909B66F0909FAAE0E9
:10243800FEA3E0FF7C007D0A122B16EF240AFFE4BE
:102448003EFE909B66E0C39FEC9E501D909FAAE0C5
:10245800A3E075F00AA4FF909B66E0C39FFF1258A3
:1024680029909B66E004F080C3909FAAE0FEA3E059
:10247800FF909FA7EEF0A3EFF00227797B017A9BEC
:102488007934909D3FE4F0A37410F07FA07EAE12E3
:102498003F2BE4909B42F0A3E05407F07B017A9F26
:1024A800797C78347C9B7D017E007F10123029EF87
:1024B80070030227797B017A9B793478687C9B7D4D
:1024C800017E007F10122A98E4909B67F0909B672A
:1024D800E0C39408748094804003022766E4909BCC
:1024E80066F0909B66E0C394107480948040030269
:1024F800275DE0FF7E007401A807088005C333CE7E
:1025080033CED8F9FF909B67E025E02468F582E494
:10251800349BF583E0FCA3E0FDEE5CFCEF5DFD90F1
:102528009B66E0FF7E007401A807088005C333CED0
:1025380033CED8F9FF909B67E025E0247CF582E450
:10254800349FF583E0FAA3E0FBEE5AFEEF5B6D7073
:1025580002EE6C7003022754909B67E0C454F0FFAE
:10256800909B66E02F909B7BF0E075F018A4240008
:10257800FFE5F03435FE7B017A9B7934909D3FE48A
:10258800F0A37430F0123F2B7B017A9B7934909B37
:1025980078122E47909B66E0FF7E007401A807081A
:1025A8008005C333CE33CED8F9FF909B67E025E092
:1025B8002468F582E4349BF583E0FCA3E0FDEE5C3F
:1025C800FEEF5D4E70030226A1909B78122E271213
:1025D8002BDF645A7004E5F064A570030227549059
:1025E8009B78122E2774A575F05A122C427B017A1B
:1025F8009B7948909D3FE4F0A37408F07F107E001B
:10260800123F2B7B017A9B794878367C9B7D017E33
:10261800007F03122A987B017A9B794C78397C9B3E
:102628007D017E007F03122A987E007F087D007B53
:10263800017A9B793C12304D909B7BE0FF909B4246
:10264800E4F0A3EFF07B017A9B7944C002C00190CB
:102658009B7B75F020A42409F9748035F0FA909BCF
:102668007F122E47909B82E4F0A37420F0D001D013
:1026780002126815909B7BE075F018A42400FFE512
:10268800F03435FE7B017A9B7934909D3FE4F0A3CA
:102698007430F0124198022754909B78122E27121A
:1026A8002BDF645A7004E5F064A560030227547BAD
:1026B800017A9B7948909D3FF0A37408F07F107EC3
:1026C80000123F2B7B017A9B7948783C7C9B7D01EB
:1026D8007E007F03122A987B017A9B794C783F7C95
:1026E8009B7D017E007F03122A98909B7BE0FF90E0
:1026F8009B42E4F0A3EFF07B017A9B7934909D3FF5
:10270800E4F0A37410F07F007E3012419812602A22
:10271800E4909B34F0A3F0909B7BE075F018A42420
:1027280000FFE5F03435FE7B017A9B7934909D3FBC
:10273800E4F0A37402F0124198909FAAE0FEA3E08F
:102748002401FFE43E909FA7F0A3EFF0909B66E082
:1027580004F00224EA909B67E004F00224D57B0190
:102768007A9B7968787C7C9F7D017E007F10122A95
:102778009890A0FDE0FEA3E0640E4E60030229B726
:1027880090A0FDE0A3E0FF909FA5E0FCA3E06F70A0
:1027980002EC6E601EE4909FAAF0A3F07B017A9F82
:1027A80079AA909D3FF0A37402F07F017EAE12419A
:1027B8009880347B017A9F79AA909D3FE4F0A374B6
:1027C80002F07F017EAE123F2B909FA7E0FEA3E0B0
:1027D800FF909FAAE0FCA3E06F7002EC6E7003020A
:1027E80029B780030229B7909FAAE0FEA3E0FF90D3
:1027F8009FA7EEF0A3EFF0E4A3F0909FA9E0C394A5
:102808000A74809480400302299DA3E0FEA3E0FFA0
:102818007C007D0A122B16909FA9E02FFFEC3EFE4C
:10282800909FA3E0FCA3E0FDC3EF9DEE9C40030254
:10283800299D909FAAE0FEA3E0FF7C007D0A122B51
:1028480016909FA9E02FFFEC3EFE909F9FE0FCA30F
:10285800E0D39FEC9E4032909FAAE0FEA3E0FF7C6D
:1028680000122B16909FA9E02FFFEC3EFEEF2401EB
:10287800FFE43EFE909F9FE0FCA3E0C39FFFEC9E19
:10288800909B68F0A3EFF0803A909FAAE0FEA3E047
:10289800FF7C007D0A122B16909FA9E02FFFEC3ECB
:1028A800FEEF2401FFE43EFE909F9FE0FCA3E0249E
:1028B80000FDEC3402FCC3ED9FFFEC9E909B68F09A
:1028C800A3EFF0909B68E0FEA3E07803C333CE3318
:1028D800CED8F92400FFEE3420FEE4FCFD909D3DA7
:1028E800122DDE909D41E4F0A37408F07D007C3049
:1028F8007F5A1264DC7B017A9B7934909D3FE4F027
:10290800A37410F07F007E30123F2B7B017A9B79F5
:1029180044C003C002C001909B42E0FEA3E07805DA
:10292800C333CE33CED8F92409F974803EFA7B013B
:10293800909B7F122E47909B82E4F0A37420F0D0E6
:1029480001D002D003126815909FA9E025E024ACBD
:10295800F582E4349FF583E0FEA3E0FF7B017A9BD8
:102968007934909D3FE4F0A37430F0124198909F21
:10297800A9E025E024ACF582E4349FF583E0FCA3CC
:10298800E0FD909FA9E0FF7B0E125AA6909FA9E058
:1029980004F0022802909FA9E0C3940A74809480EE
:1029A800500DE0FF125829909FA9E004F080E690AE
:1029B800A0FDE0FEA3E0FF909FA5EEF0A3EFF022BC
:1029C800E709F608DFFA8046E709F208DFFA803EF1
:1029D80088828C83E709F0A3DFFA8032E309F608DE
:1029E800DFFA8078E309F208DFFA807088828C8346
:1029F800E309F0A3DFFA806489828A83E0A3F608FA
:102A0800DFFA805889828A83E0A3F208DFFA804CD3
:102A180080D280FA80C680D4806980F280338010AA
:102A280080A680EA809A80A880DA80E280CA803313
:102A380089828A83ECFAE493A3C8C582C8CCC5838B
:102A4800CCF0A3C8C582C8CCC583CCDFE9DEE7805B
:102A58000D89828A83E493A3F608DFF9ECFAA9F0DA
:102A6800EDFB2289828A83ECFAE0A3C8C582C8CC30
:102A7800C583CCF0A3C8C582C8CCC583CCDFEADE49
:102A8800E880DB89828A83E493A3F208DFF980CCAB
:102A980088F0EF60010E4E60C388F0ED2402B404A4
:102AA8000050B9F582EB2402B4040050AF2323454B
:102AB8008223902A1873BB010689828A83E02250F8
:102AC80002E722BBFE02E32289828A83E49322BBC7
:102AD800010CE58229F582E5833AF583E022500668
:102AE800E92582F8E622BBFE06E92582F8E222E51E
:102AF8008229F582E5833AF583E49322BB010689AE
:102B0800828A83F0225002F722BBFE01F322EF8D66
:102B1800F0A4A8F0CF8CF0A428CE8DF0A42EFE222D
:102B2800BC000BBE0029EF8DF084FFADF022E4CC91
:102B3800F875F008EF2FFFEE33FEEC33FCEE9DEC5A
:102B4800984005FCEE9DFE0FD5F0E9E4CEFD22EDA0
:102B5800F8F5F0EE8420D21CFEADF075F008EF2FEA
:102B6800FFED33FD4007985006D5F0F222C398FDDB
:102B78000FD5F0EA22C2D5EC30E709B2D5E4C39DFF
:102B8800FDE49CFCEE30E715B2D5E4C39FFFE49E5C
:102B9800FE122B28C3E49DFDE49CFC8003122B2825
:102BA80030D507C3E49FFFE49EFE22C5F0F8A3E0FA
:102BB80028F0C5F0F8E582158270021583E038F038
:102BC80022A3F8E0C5F025F0F0E582158270021521
:102BD80083E0C838F0E822BB010A89828A83E0F5DD
:102BE800F0A3E022500687F009E71922BBFE07E3AD
:102BF800F5F009E3192289828A83E493F5F07401D8
:102C08009322BB0110E58229F582E5833AF583E03A
:102C1800F5F0A3E0225009E92582F886F008E622BB
:102C2800BBFE0AE92582F8E2F5F008E222E5832AEC
:102C3800F583E993F5F0A3E99322BB010A89828A17
:102C480083F0E5F0A3F0225006F709A7F01922BB9C
:102C5800FE06F3E5F009F31922EF2BFFEE3AFEED3D
:102C680039FDEC38FC22E88FF0A4CC8BF0A42CFCC6
:102C7800E98EF0A42CFC8AF0EDA42CFCEA8EF0A4DA
:102C8800CDA8F08BF0A42DCC3825F0FDE98FF0A469
:102C98002CCD35F0FCEB8EF0A4FEA9F0EB8FF0A460
:102CA800CFC5F02ECD39FEE43CFCEAA42DCE35F09C
:102CB800FDE43CFC2275F008758200EF2FFFEE332F
:102CC800FECD33CDCC33CCC58233C5829BED9AEC97
:102CD80099E58298400CF582EE9BFEED9AFDEC9901
:102CE800FC0FD5F0D6E4CEFBE4CDFAE4CCF9A8820B
:102CF80022B800C1B90059BA002DEC8BF084CFCEB0
:102D0800CDFCE5F0CBF97818EF2FFFEE33FEED336D
:102D1800FDEC33FCEB33FB10D703994004EB99FB34
:102D28000FD8E5E4F9FA227818EF2FFFEE33FEED1D
:102D380033FDEC33FCC933C910D7059BE99A40072A
:102D4800EC9BFCE99AF90FD8E0E4C9FAE4CCFB2241
:102D580075F010EF2FFFEE33FEED33FDCC33CCC80A
:102D680033C810D7079BEC9AE899400AED9BFDEC15
:102D78009AFCE899F80FD5F0DAE4CDFBE4CCFAE454
:102D8800C8F922EB9FF5F0EA9E42F0E99D42F0EC8B
:102D98006480C864809845F022EB9FF5F0EA9E4273
:102DA800F0E99D42F0E89C45F022E86010ECA2E7CB
:102DB80013FCED13FDEE13FEEF13FFD8F022E0FC39
:102DC800A3E0FDA3E0FEA3E0FF22E0F8A3E0F9A35F
:102DD800E0FAA3E0FB22ECF0A3EDF0A3EEF0A3EF02
:102DE800F022A8828583F0D083D082122E01122E81
:102DF80001122E01122E01E473E493A3C583C5F0DA
:102E0800C583C8C582C8F0A3C583C5F0C583C8C536
:102E180082C822A42582F582E5F03583F58322E075
:102E2800FBA3E0FAA3E0F922F8E0FBA3A3E0F9256D
:102E3800F0F0E582158270021583E0FA38F022EB93
:102E4800F0A3EAF0A3E9F022D083D082F8E49370EB
:102E580012740193700DA3A393F8740193F58288FB
:102E680083E4737402936860EFA3A3A380DFD08325
:102E7800D082F8E4937012740193700DA3A393F8B1
:102E8800740193F5828883E473740293B5F0067431
:102E980003936860E9A3A3A3A380D8E3F5F009E24C
:102EA80008B5F06BDFF58067E3F5F009E608B5F0E3
:102EB8005EDFF5805A87F009E608B5F052DFF68044
:102EC8004E87F009E208B5F046DFF6804288828C2A
:102ED8008387F009E0A3B5F036DFF6803288828C6C
:102EE8008387F009E493A3B5F025DFF58021888274
:102EF8008C83E3F5F009E0A3B5F014DFF5801088C2
:102F0800828C83E3F5F009E493A3B5F002DFF402C1
:102F18002FD2808780E9809080D4803E8015806E93
:102F2800807E809D80B7808D80A380518074803C96
:102F3800022FDE89828A83ECFAE493F5F0A3C8C5F0
:102F480082C8CCC583CCE493A3C8C582C8CCC5834A
:102F5800CCB5F076DFE3DEE1807089828A83E49382
:102F6800F5F0A3E208B5F062DFF4805E89828A8317
:102F7800E0F5F0A3E608B5F051DFF5804D89828AC7
:102F880083E0F5F0A3E208B5F040DFF5803C8982E4
:102F98008A83E493F5F0A3E608B5F02EDFF4802ADF
:102FA8008002805789828A83ECFAE493F5F0A3C8FB
:102FB800C582C8CCC583CCE0A3C8C582C8CCC583AC
:102FC800CCB5F006DFE4DEE280007FFFB5F0020F4B
:102FD8002240027F012289828A83ECFAE0F5F0A37D
:102FE800C8C582C8CCC583CCE0A3C8C582C8CCC537
:102FF80083CCB5F0D5DFE5DEE380CF89828A83EC28
:10300800FAE0F5F0A3C8C582C8CCC583CCE493A385
:10301800C8C582C8CCC583CCB5F0AFDFE4DEE2809A
:10302800A988F0EF60010E4E60ABED2402B40400F5
:103038005098F582EB2402B40400508E2323458275
:1030480023902F1A73EF4E6012EF60010EEDBB0153
:103058000B89828A83F0A3DFFCDEFA2289F050070D
:10306800F709DFFCA9F022BBFEFCF309DFFCA9F09D
:1030780022F8BB010DE58229F582E5833AF583E85C
:10308800F0225006E92582C8F622BBFE05E9258212
:10309800C8F2227BFF7A7279CD786F7C9B7D017EA6
:1030A800007F3E122A987BFF7A73790B78AE7C9B5F
:1030B8007D017E007F24122A987B017A9B796F908C
:1030C8009D3FE4F0A3743EF07F207EAB123F2BE4DB
:1030D800909BADF0909BADE0C394107480948040B9
:1030E8000302333CE0FF7E007401A807088005C393
:1030F80033CE33CED8F9FF909B75E0FCA3E0FDEE0C
:103108005CFEEF5D4E7003023320909BADE0FF7EC6
:10311800007401A807088005C333CE33CED8F9FF61
:10312800909B79E0FCA3E0FDEE5CFEEF5D4E700342
:103138000232CD909BADE0FF1313543F2407FFE408
:1031480033909BD4F0A3EFF0909BD4E0FEA3E0254E
:10315800E0FFEE33FE746F2FF582749B3EF583E03B
:10316800FEA3E0FF909BADE0540325E025E0FDEFD2
:10317800A805088005CEC313CE13D8F9540FFF90C5
:103188009BD2E4F0A3EFF0909BD2E0FEA3E08EF098
:10319800122E7631BF000031D7000131EF00023224
:1031A800070004321E000532350006324C00083292
:1031B8006300090000327A909BADE025E024AEF56B
:1031C80082E4349BF583E4F0A37405F002328F9017
:1031D8009BADE025E024AEF582E4349BF583E4F072
:1031E800A37406F002328F909BADE025E024AEF583
:1031F80082E4349BF583E4F0A37407F002328F90E5
:103208009BADE025E024AEF582E4349BF583E4F041
:10321800A37408F08071909BADE025E024AEF582A0
:10322800E4349BF583E4F0A37409F0805A909BADD5
:10323800E025E024AEF582E4349BF583E4F0A37442
:103248000AF08043909BADE025E024AEF582E4349B
:103258009BF583E4F0A37403F0802C909BADE025EC
:10326800E024AEF582E4349BF583E4F0A37404F023
:103278008015909BADE025E024AEF582E4349BF503
:1032880083E4F0A37405F0909BADE0FF7E00740129
:10329800A807088005C333CE33CED8F9FF909B71B9
:1032A800E0FCA3E0FDEE5CFEEF5D4E607E909BAD22
:1032B800E025E024AEF582E4349BF583E475F0085C
:1032C800122BB38066909BADE0FF7E007401A807C7
:1032D800088005C333CE33CED8F9FF909B71E0FC4C
:1032E800A3E0FDEE5CFEEF5D4E6017909BADE02520
:1032F800E024AEF582E4349BF583E4F0A37402F095
:103308008029909BADE025E024AEF582E4349BF55E
:1033180083E4F0A304F08013909BADE025E024AE95
:10332800F582E4349BF583E4F0A3F0909BADE004D0
:10333800F00230DC909BAD7410F0909BADE0C3942C
:10334800127480948040030235ADE024F0FF7E00C3
:103358007401A807088005C333CE33CED8F9FF908F
:103368009B77E0FCA3E0FDEE5CFEEF5D4E70030290
:103378003591909BADE024F0FF7E007401A807080A
:103388008005C333CE33CED8F9FF909B7BE0FCA3F6
:10339800E0FDEE5CFEEF5D4E700302353C909BADA8
:1033A800E0FF1313543F2407FFE433909BD4F0A3AA
:1033B800EFF0909BD4E0FEA3E025E0FFEE33FE742F
:1033C8006F2FF582749B3EF583E0FEA3E0FF909B90
:1033D800ADE0540325E025E0FDEFA805088005CE03
:1033E800C313CE13D8F9540FFF909BD2E4F0A3EF88
:1033F800F0909BD2E0FEA3E08EF0122E76342900E6
:10340800003441000134590002347100043488004A
:1034180005349F000634B6000834CD000900003496
:10342800E4909BADE025E024AEF582E4349BF5837F
:10343800E4F0A37405F00234F9909BADE025E02494
:10344800AEF582E4349BF583E4F0A37406F002340D
:10345800F9909BADE025E024AEF582E4349BF5833A
:10346800E4F0A37407F00234F9909BADE025E02462
:10347800AEF582E4349BF583E4F0A37408F0807120
:10348800909BADE025E024AEF582E4349BF583E41F
:10349800F0A37409F0805A909BADE025E024AEF5C6
:1034A80082E4349BF583E4F0A3740AF08043909B94
:1034B800ADE025E024AEF582E4349BF583E4F0A387
:1034C8007403F0802C909BADE025E024AEF582E4F7
:1034D800349BF583E4F0A37404F08015909BADE071
:1034E80025E024AEF582E4349BF583E4F0A374056B
:1034F800F0909BADE024F0FF7E007401A8070880DF
:1035080005C333CE33CED8F9FF909B73E0FCA3E01C
:10351800FDEE5CFEEF5D4E70030235A4909BADE0BE
:1035280025E024AEF582E4349BF583E475F00812B7
:103538002BB38068909BADE024F0FF7E007401A857
:1035480007088005C333CE33CED8F9FF909B73E0CC
:10355800FCA3E0FDEE5CFEEF5D4E6017909BADE0D6
:1035680025E024AEF582E4349BF583E4F0A37402ED
:10357800F08029909BADE025E024AEF582E4349BF1
:10358800F583E4F0A304F08013909BADE025E024DC
:10359800AEF582E4349BF583E4F0A3F0909BADE0B4
:1035A80004F00233427B017A9B79AE909D3FE4F0B0
:1035B800A37424F07FA07EAB12419822909B39120D
:1035C8002E47909B3CECF0A3EDF0E4A3F0A3F09021
:1035D8009B3CE0FEA3E0FFA3E0FCA3E0C39FEC9EBE
:1035E800500C909B3EE475F001122BB380E1909B48
:1035F8003CE0FEA3E0C39405EE9400500302393D7D
:10360800E4A3F0A3F0909B39122E27909B3EE0FE96
:10361800A3E0F5828E83122AD76402600302391769
:10362800909B39122E27909B3EE0A3E029F9EA3EB1
:10363800FA900001122AD7122E50364F03379E06F1
:1036480038601000003917909B39122E27909B3E46
:10365800E0FEA3E029F9EA3EFA900002122AD7FF19
:10366800909B42E4F0A3EFF0909B3EE0A3E0FF9034
:103678009B42E0FCA3E02FFFEC3EFEEF2405FFE4B5
:103688003EFE909B3CE0FCA3E0FDD3EF9DEE9C400A
:1036980011909B3CE0FEA3E0FFA3EEF0A3EFF00245
:1036A8003917909B39122E27909B3EE0FEA3E02904
:1036B800F9EA3EFA909B42E0FEA3E02403FDE43ED3
:1036C800FC1265E3909B40EEF0A3EFF0909B39125B
:1036D8002E27909B3EE0FEA3E029F9EA3EFA909B54
:1036E80042E0FEA3E029F9EA3EFA900003122AD745
:1036F800FD909B40E0FEA3E0EE6D7001E4600302E4
:103708003917909B39122E27909B3EE0FEA3E029A3
:10371800F9EA3EFA909B42E0FEA3E029F9EA3EFA74
:10372800900004122AD7FF909B40E0A3E06F70013D
:10373800E46003023917909179E0FEA3E0FF909BC3
:1037480039122E27909B3EE0FCA3E029F9EA3CFAC7
:10375800E92403F9E43AFA909B42E0FCA3E0FD90E7
:103768009D3FECF0A3EDF01241987E007F0E7D00A6
:103778007B017A91797112304D909B42E0FEA3E073
:103788002405FFE43E909B3EF0A3EFF0908E69E0A5
:103798004402F0023917909B3EE0FEA3E02408FFA4
:1037A800E43EFE909B3CE0FCA3E0FDD3EF9DEE9C45
:1037B8004011909B3CE0FEA3E0FFA3EEF0A3EFF0E6
:1037C800023917909B39122E27909B3EE0FEA3E00A
:1037D80029F9EA3EFA7D067C001265E3909B40EEEB
:1037E800F0A3EFF0909B39122E27909B3EE0FEA3AA
:1037F800E029F9EA3EFA900006122AD7FD909B408C
:10380800E0FEA3E0EE6D7001E46003023917909BBF
:1038180039122E27909B3EE0FEA3E029F9EA3EFAF2
:10382800900007122AD7FF909B40E0A3E06F700139
:10383800E46003023917909B3E75F008122BB37EA3
:10384800007F0E7D007B017A91797112304D908E48
:1038580069E04402F0023917909B3EE0FEA3E024A1
:1038680008FFE43EFE909B3CE0FCA3E0FDD3EF9D07
:10387800EE9C4011909B3CE0FEA3E0FFA3EEF0A37A
:10388800EFF0023917909B39122E27909B3EE0FEED
:10389800A3E029F9EA3EFA7D067C001265E3909BD5
:1038A80040EEF0A3EFF0909B39122E27909B3EE05C
:1038B800FEA3E029F9EA3EFA900006122AD7FD9005
:1038C8009B40E0FEA3E0EE6D7001E47042909B39EE
:1038D800122E27909B3EE0FEA3E029F9EA3EFA90DB
:1038E8000007122AD7FF909B40E0A3E0B50720E429
:1038F800909B3E75F008122BB37E007F0E7D007BF7
:10390800017A91797112304D908E69E04402F090FD
:103918009B3EE475F001122BB3909B3CE0FEA3E0C4
:1039280024FBFFEE34FFFEA3E0FCA3E0C39FEC9E64
:10393800500302360D22E51330E0167B017AA07998
:10394800FD909D3FE4F0A37402F07F147E00123FC7
:103958002BE51320E203023C6790A0FDE0FEA3E004
:103968004E702690A0F8E0C39406748094805005A9
:10397800E004F0801490A0F8E06406700C7F39FE33
:10398800126C5290A0F8E004F090A0FDE0FEA3E0D5
:10399800640B4E700312309B90A0FDE0FEA3E06420
:1039A800294E6003023A817B017A9B7937909D3FCB
:1039B800F0A3741CF07FB07EC9123F2BE4909B34B7
:1039C800F0909B34E0C39407748094804003023ADB
:1039D8006BE025E025E02437F582E4349BF583E0AD
:1039E800FEA3E0C4F8540FC868FDEEC454F048FCC8
:1039F800909B34E025E025E02439F582E4349BF5FA
:103A080083E0FEA3E0EEC4540F2DFFE43C909B3509
:103A1800F0A3EFF0909B35E0FEA3E0FF7C007D185B
:103A2800122B28909B34E025E02453F582E4349B44
:103A3800F583EEF0A3EFF0909B35E0FEA3E0FF7C6A
:103A4800007D18122B28909B34E025E02461F58234
:103A5800E4349BF583ECF0A3EDF0909B34E004F0A4
:103A68000239C97B017A9B7953909D3FE4F0A37496
:103A78001CF07F207EC912419890A0FDE0FEA3E0D3
:103A8800642C4E6003023B297B017A9B793C909D14
:103A98003FF0A37404F07FA07ECC123F2B909B3C98
:103AA800E0FEA3E0FFEEC4F854F0C868FEEFC4548B
:103AB8000F48EE540F909B34F0A3E4F0909B34E051
:103AC800FCA3E0FD909B3CE0FEA3E07807CEC31387
:103AD800CE13D8F9541FFFECFEED4FFF909B34EE48
:103AE800F0A3EFF0909B3CE0A3E0547F909B36F06E
:103AF800A3E4F0909B3EE0FEA3E0FF909B38EEF03D
:103B0800A3EFF0A37401F0A37419F07B017A9B79F9
:103B180034909D3FE4F0A37408F07F207ECC1241DE
:103B28009890A0FDE0FEA3E064274E705690A0F99F
:103B3800E0C39405748094805042909B34E4F0A3D1
:103B480004F0FB7A9B7934909D3FE4F0A37402F073
:103B58007F277EA0124198909B34E4F0A3745AF01A
:103B68007B017A9B7934909D3FE4F0A37402F07F47
:103B7800877EA012419890A0F9E004F0E490A0FAA2
:103B8800F0805390A0FAE0C394057480948050416B
:103B9800E4909B34F0A3F07B017A9B7934909D3FAD
:103BA800F0A37402F07F277EA0124198909B34E422
:103BB800F0A3745AF07B017A9B7934909D3FE4F02E
:103BC800A37402F07F877EA012419890A0FAE004C7
:103BD800F0E490A0F9F07B017A9B7934909D3FE462
:103BE800F0A37402F07F167E00123F2B909B34E006
:103BF800FEA3E04E6024E4909B34F0A3F07B017AAE
:103C08009B7934909D3FF0A37402F07F167E0012DA
:103C18004198E490A0FBF0A3F02290A0FBE0FEA363
:103C2800E0C39458EE9402500B90A0FBE475F001A9
:103C3800122BB32290A0FBE0FEA3E0B45821EEB40F
:103C4800021D90A0FBE475F001122BB390A0FDE0DB
:103C5800FEA3E064394E60077F397E00126C522261
:103C6800909B43122E47909B46ECF0A3EDF07BFF10
:103C78007A73797178487C9B7D017E007F18122ABF
:103C880098909B43122E2790000A122C0A246CFF4E
:103C9800E5F03407909B74F0A3EFF0909B74E0FE7E
:103CA800A3E0FF7C007D64122B7DED4C6013909B9C
:103CB80074E0FEA3E0FF7C007D04122B7DED4C60D8
:103CC80013909B74E0FEA3E0FF7C017D90122B7D96
:103CD800ED4C70067E007F0180047E007F00909B83
:103CE80070EEF0A3EFF0909B43122E2790000A127B
:103CF8002C0A24BAFFE5F034FFFE3395E0FDFC9072
:103D08009B60122DDE909B43122E27900008122CE8
:103D18000AC39401E5F0648094805040909B70E061
:103D2800FEA3E064014E7034909B60122DC6EF2410
:103D380002FFE43EFEE43DFDE43CFCE47B04FAF9CA
:103D4800F8126C99EF24FFFFEE34FFFEED34FFFD0F
:103D5800EC34FFFC909B68122DDE8022909B601251
:103D68002DC6EF2402FFE43EFEE43DFDE43CFCE406
:103D78007B04FAF9F8126C99909B68122DDE909BDF
:103D880064122DEA00000000E4909B72F0A3F0900A
:103D98009B43122E27900008122C0AFF909B72E07A
:103DA800FCA3E0C39FE5F06480F8EC648098504879
:103DB800909B64122DC6C006C007909B72E0FEA3BC
:103DC800E025E0FFEE33FE74482FF582749B3EF544
:103DD80083E0FEA3E0FFFBAA06EA3395E0F9F8D0FA
:103DE80007D006122C61909B64122DDE909B72E422
:103DF80075F001122BB38097909B64122DC6C006F4
:103E0800C007909B43122E27900006122C0A24FF0D
:103E1800FFE5F034FFFEAB07FA3395E0F9F8D00779
:103E2800D006122C61909B64122DDE909B64122D9B
:103E3800C6C004C005C006C007E47F6D7E01FDFC56
:103E4800909B60122DD2122C6E909B68122DD2126C
:103E58002C61A804A905AA06AB07D007D006D0058F
:103E6800D004122C61909B64122DDE909B43122E7D
:103E780027900004122C0AFF909B46E0FCA3E0FD6B
:103E8800C3EF9DFFE5F09CFE3395E0FDFC909B6C35
:103E9800122DDEE47F107E0EFDFC909B6C122DD25D
:103EA800122C6EC004C005C006C0077F807E517DFD
:103EB800017C00909B64122DD2122C6EA804A905D7
:103EC800AA06AB07D007D006D005D004122C61C0D3
:103ED80004C005C006C007909B43122E279000021D
:103EE800122C0AFFAEF07C007D3C122B16AB07AA01
:103EF80006EA3395E0F9F8D007D006D005D00412C9
:103F08002C61C006C007909B43122E27122BDFFF9F
:103F1800AEF0FBAA06EA3395E0F9F8D007D006120E
:103F28002C6122909D3AEEF0A3EFF0A3122E477B6E
:103F3800007A007900C003C002C001909D3C122E97
:103F480027D082D083D0E06B7008E965827003EADD
:103F580065837003024197909D3FE0FEA3E04E7099
:103F680003024197909D3FE0A3E0FFEEC313FEEFED
:103F780013FF909D3AE0FCA3E02FFFEE3CFED3EF49
:103F880094FEEE94FF4003024197C2AF909D3AE041
:103F9800A3E05401909D41F0909D3AE0FEA3E0FF1C
:103FA800EEC313FEEF13FF909D3AEEF0A3EFF090EF
:103FB8009D3AE0FEA3E07810CEC313CE13D8F9F5EE
:103FC800F1909D3AE0FEA3E0EEF5F2909D3AE0A371
:103FD800E0F5F3E4F5F875F401D2FF30FCFDD2FD0D
:103FE800909D41E064017072909D3FE0FEA3E06403
:103FF800014E700AC2FBC2FAD2F9C2F88008C2FBAD
:10400800C2FAD2F9D2F8D2FE20FEFD909D3FE0FE22
:10401800A3E064014E701A909D3C75F001122E3099
:10402800E5FC122B04909D3F74FFF5F0122BB38032
:1040380029909D3CE475F001122E30E5FC122B040A
:10404800909D3CE475F001122E30E5FD122B049092
:104058009D3F74FF75F0FE122BB3909D3FE0FEA3C9
:10406800E04E7003024192909D3FE0A3E0C39404A8
:10407800EE9400400302413B909D3FE0A3E08EF0A8
:10408800122E7640AF000140A50002409B000300BD
:104098000040B7D2FBD2FAD2F9C2F88012D2FBD2D2
:1040A800FAC2F9C2F88008D2FBC2FAC2F9C2F8D241
:1040B800FE20FEFD909D3FE0FEA3E08EF0122E76DE
:1040C800412800014108000240D800030000419245
:1040D800909D3CE475F001122E30E5FA122B049005
:1040E8009D3CE475F001122E30E5FB122B04909DE7
:1040F8003CE475F001122E30E5FC122B04024192CB
:10410800909D3CE475F001122E30E5FA122B0490D4
:104118009D3CE475F001122E30E5FB122B04806AF9
:10412800909D3CE475F001122E30E5FA122B0480C4
:10413800598057D2FBD2FAD2F9D2F8D2FE20FEFD2E
:10414800909D3CE475F001122E30E5FA122B049094
:104158009D3CE475F001122E30E5FB122B04909D76
:104168003CE475F001122E30E5FC122B04909D3CC6
:10417800E475F001122E30E5FD122B04909D3F747A
:10418800FF75F0FC122BB3024062E4F5F8D2AF22BF
:10419800909D3AEEF0A3EFF0A3122E477B007A0031
:1041A8007900C003C002C001909D3C122E27D08226
:1041B800D083D0E06B7008E965827003EA6583708C
:1041C80003024403909D3FE0FEA3E04E70030244C7
:1041D80003909D3FE0A3E0FFEEC313FEEF13FF90B3
:1041E8009D3AE0FCA3E02FFFEE3CFED3EF94FEEEF9
:1041F80094FF4003024403C2AF909D3AE0A3E05409
:1042080001909D41F0909D3AE0FEA3E0FFEEC313BC
:10421800FEEF13FF909D3AEEF0A3EFF0909D3AE089
:10422800FEA3E07810CEC313CE13D8F9F5F1909D14
:104238003AE0FEA3E0EEF5F2909D3AE0A3E0F5F354
:10424800E4F5F875F401D2FF30FCFDC2FD909D4104
:10425800E064017072909D3FE0FEA3E064014E703F
:104268000AC2FBC2FAD2F9C2F88008C2FBC2FAD26B
:10427800F9D2F8909D3FE0FEA3E064014E701A90D9
:104288009D3C75F001122E30122ABEF5FC909D3F20
:1042980074FFF5F0122BB38029909D3CE475F00172
:1042A800122E30122ABEF5FC909D3CE475F00112E6
:1042B8002E30122ABEF5FD909D3F74FF75F0FE1258
:1042C8002BB3D2FE20FEFD909D3FE0FEA3E04E7092
:1042D800030243FE909D3FE0A3E0C39404EE9400E4
:1042E80040030243A7909D3FE0A3E08EF0122E7694
:1042F800431C00014312000243080003000043244A
:10430800D2FBD2FAD2F9C2F88012D2FBD2FAC2F9A1
:10431800C2F88008D2FBC2FAC2F9C2F8909D3FE009
:10432800FEA3E08EF0122E76438F0001436F000249
:10433800434000030000439E909D3CE475F0011249
:104348002E30122ABEF5FA909D3CE475F001122E2B
:1043580030122ABEF5FB909D3CE475F001122E3018
:10436800122ABEF5FC802F909D3CE475F001122EB8
:1043780030122ABEF5FA909D3CE475F001122E30F9
:10438800122ABEF5FB800F909D3CE475F001122EB9
:1043980030122ABEF5FAD2FE30FE5B80FB8057D27F
:1043A800FBD2FAD2F9D2F8909D3CE475F001122EB6
:1043B80030122ABEF5FA909D3CE475F001122E30B9
:1043C800122ABEF5FB909D3CE475F001122E3012C6
:1043D8002ABEF5FC909D3CE475F001122E30122A9D
:1043E800BEF5FDD2FE20FEFD909D3F74FF75F0FCEA
:1043F800122BB30242CFE4F5F8D2AF227BFF7A72D8
:10440800794978347C9B7D017E007F20122A987B35
:10441800017A9B7934909B56122E47909B59122E05
:1044280047E4909B54F0A3F0909B54E0FEA3E0C3B4
:10443800EE940240030244CD909B54E0A3E078033D
:10444800C333CE33CED8F92400FFEE3420FEE4FC8B
:10445800FD909D3D122DDE909D41E4F0A37408F07F
:104468007D007C307F5A1264DC7B017A9B79349022
:104478009D3FE4F0A37410F07F007E30123F2B9034
:104488009B56122E27122BDF645A7004E5F064A5A0
:104498006026909B59122E27122BDFB4A527E5F032
:1044A800B45A22909B59122E27789D7C9F7D017EBD
:1044B800007F08122A98800D909B54E475F0011231
:1044C8002BB3024430E4909B54F0A3F0909B54E04B
:1044D800FEA3E0C3940AEE9400400302465F7BFF0C
:1044E8007A727969785C7C9B7D017E007F20122A34
:1044F800987B017A9F7946785C7C9B7D017E007F62
:104508001A122A98909B54E0FEA3E0FF7C007D1BC2
:10451800122B16EF2464FFE43E909B60F0A3EFF0AB
:10452800909B657401F0909B54E0FEA3E0909FC0BF
:1045380075F006122E1BEE75F006A42583F583E0B0
:10454800FEA3E0FF7B017A9B795C909D3FE4F0A39A
:104558007420F01241987B017A9F7960785C7C9B8B
:104568007D017E007F1A122A98909B54E0FEA3E0FA
:10457800FF7C007D1B122B16EF2464FFE43E909B0A
:1045880060F0A3EFF0909B657401F0909B54E0FEFF
:10459800A3E0909FC275F006122E1BEE75F006A4DC
:1045A8002583F583E0FEA3E0FF7B017A9B795C908D
:1045B8009D3FE4F0A37420F01241987B017A9F7923
:1045C800FC785C7C9B7D017E007F1A122A98909B68
:1045D80054E0FEA3E0FF7C007D1B122B16EF246441
:1045E800FFE43E909B60F0A3EFF0909B54E0FEA3A5
:1045F800E0FF122B16EF2464FFE43E909B66F0A3C5
:10460800EFF0909B54E0FEA3E0FF122B16EF247D01
:10461800FFE43E909B6AF0A3EFF0909B54E0FEA36A
:10462800E0909FC475F006122E1BEE75F006A425C7
:1046380083F583E0FEA3E0FF7B017A9B795C909D84
:104648003FE4F0A37420F0124198909B54E475F075
:1046580001122BB30244D422E51330E10D90A0FFE0
:10466800E475F001122BB312610C90A0FFE0FEA3D9
:10467800E0C394B0EE940450030248AEE490A0FF67
:10468800F0A3F0A3E0FEA3E02400FFEE3410909B1B
:1046980034F0A3EFF07B017A9B7936909D3FE4F0EC
:1046A800A37402F07FA37EA0123F2B909B36E47583
:1046B800F0C8122BB3909B34E0FEA3E0FF7B017A95
:1046C8009B7936909D3FE4F0A37402F012419890D4
:1046D800A101E0FEA3E02400FFEE3418909B34F023
:1046E800A3EFF07B017A9B7936909D3FE4F0A374A9
:1046F80002F07FA47EA0123F2B909B34E0FEA3E043
:10470800FF7B017A9B7936909D3FE4F0A37402F019
:1047180012419890A101E0FEA3E0FF909B3AEEF0D1
:10472800A3EFF090A101E475F001122BB390A10161
:10473800E0FEA3E0C394FEEE94074007E490A101D5
:10474800F0A3F07B017AA17901909D3FE4F0A37476
:1047580002F07F007E031241987B017AA1790190D3
:104768009D3FE4F0A37402F0FF7E03124198909BF2
:10477800387407F0A374FEF07B017A9B7938909D1A
:104788003FE4F0A37402F07F087E501241987B0149
:104798007A9B7938909D3FE4F0A37402F07F097EFC
:1047A80050124198909B387402F0A3748AF07B01F0
:1047B8007A9B7938909D3FE4F0A37402F07F117ED4
:1047C8005012419890A101E0A3E030E0030248AE06
:1047D800909B3A74FFF5F0122BB3909B3AE0FEA33E
:1047E800E02400FFEE3410FE7B017A9B7934909D23
:1047F8003FE4F0A37404F0123F2B909B3874A5F0AB
:10480800A3745AF07B017A9B7934909D3FE4F0A31E
:104818007406F07F007E50124198909B3AE0FEA308
:10482800E0FFE4FCFD909D3D122DDE909D41E4F0FB
:10483800A37404F07D007C507FA51264DC909B3A41
:10484800E0FEA3E02400FFEE3418FE7B017A9B799A
:1048580034909D3FE4F0A37404F0123F2B909B38F2
:1048680074A5F0A3745AF07B017A9B7934909D3F2C
:10487800E4F0A37406F07F007E50124198909B3AB2
:10488800E0FEA3E02400FFEE3408FEE4FCFD909D6A
:104898003D122DDE909D41E4F0A37404F07D007C70
:1048A800507FA51264DC22909B39122E47909B39C9
:1048B800122E27122ABE909B3CF0909B3CE0C3949A
:1048C800A8748094804003024AE6E075F00E909147
:1048D8007F122E1BE0645A6003024ADD909B3CE085
:1048E80075F00E909182122E1BE07003024ADD9043
:1048F8009B3CE075F00E909184122E1BE070030231
:104908004AE6909B3CE075F00E909184122E1BE0D5
:1049180064017029909B3CE075F00E909185122EF1
:104928001BE0FEA3E0FF90A0FDE0FCA3E06F700297
:10493800EC6E6003024ADD024AE6024ADD909B3CC7
:10494800E075F00E909184122E1BE0640260030261
:104958004A02909B3CE075F00E909185122E1BE068
:10496800FEA3E0FF7B017A9B793D909D3FE4F0A395
:104978007402F0123F2B909B3DE0A3E0645A600361
:10498800024ADD909B3CE0C394A774809480503C1D
:10499800E075F00E909192122E1BE06402702D903B
:1049A8009B3CE075F00E909193122E1BE0FEA3E065
:1049B800FF909B3CE075F00E909185122E1BE0FC59
:1049C800A3E06F7002EC6E7003024AE6E4909B3D30
:1049D800F0A3F0909B3CE075F00E909185122E1B91
:1049E800E0FEA3E0FF7B017A9B793D909D3FE4F0D8
:1049F800A37402F0124198024AE6909B3CE075F0DD
:104A08000E909184122E1BE064036003024ADD902D
:104A18009B3CE075F00E90918B122E1BE0FEA3E0FC
:104A2800FF90A0FDE0FCA3E0FDEF6D7002EE6C606E
:104A380003024ADD909B3CE075F00E909185122EA2
:104A48001BE0FEA3E0FF7B017A9B793D909D3FE44C
:104A5800F0A37402F0123F2B909B3DE0A3E0645A50
:104A68007073909B3CE0C394A7748094805039E0A5
:104A780075F00E909192122E1BE06403702A909BA1
:104A88003CE075F00E909193122E1BE0FEA3E0FF20
:104A9800909B3CE075F00E909185122E1BE0FCA3D4
:104AA800E06F7002EC6E6036E4909B3DF0A3F090EE
:104AB8009B3CE075F00E909185122E1BE0FEA3E062
:104AC800FF7B017A9B793D909D3FE4F0A37402F04F
:104AD8001241988009909B3CE004F00248C2909BE8
:104AE8003CE0FF909B39122E27EF122B0422126F05
:104AF8004B7F64126BB47F10126BB4126FC7126FC6
:104B08004B7F65126BB4909B3C7406F0909B3CE025
:104B1800D3940074809480401D126B5F909B3CE09E
:104B28002434F582E4349BF583EFF0126F66909B92
:104B38003CE014F080D6126B5F909B34EFF0126F5C
:104B48007F126FC7E4909B3CF0909B3CE0C39403BA
:104B580074809480504BE02434F582E4349BF583D0
:104B6800E0FFC4540F909B3DF0909B3CE02434F54B
:104B780082E4349BF583E0540F909B3EF0909B3D7C
:104B8800E075F00AA4FFA3E02FFF909B3CE02434DB
:104B9800F582E4349BF583EFF0909B3CE004F080D1
:104BA800A8909B3C7404F0909B3CE0C394077480ED
:104BB8009480504BE02434F582E4349BF583E0FF85
:104BC800C4540F909B3DF0909B3CE02434F582E464
:104BD800349BF583E0540F909B3EF0909B3DE0752D
:104BE800F00AA4FFA3E02FFF909B3CE02434F58259
:104BF800E4349BF583EFF0909B3CE004F080A890B0
:104C08009B34E0FFA3E0FDA3E0FB12559F909B3788
:104C1800EFF07B017A9B7934909D3FE4F0A3740810
:104C2800F07F107E0012419890A0CDE0FEA3E0C373
:104C38009478EE9400500A90A0CDE475F001122B00
:104C4800B3909B39E075F00A84E5F07004A3E06046
:104C58001220000F90A0CDE0FEA3E0646E4E60032A
:104C6800024D05909B3F122DEA00000000909B3AF0
:104C7800E0FF90A0BBE4F0A3EFF0909B39E0FF9039
:104C8800A0BDE4F0A3EFF0909B38E0FF90A0BFE454
:104C9800F0A3EFF0909B36E0FF90A0C1E4F0A3EF03
:104CA800F0909B35E024FFFFE434FF90A0C3F0A30D
:104CB800EFF0909B34E02464FFE43390A0C5F0A3A8
:104CC800EFF0909B34E4F0A3745AF0A3E4F0A374DB
:104CD80012F07B017AA079BB7D087C00123C6890B9
:104CE8009B38122DDE7B017A9B7934909D3FE4F04E
:104CF800A37408F07F157E50124198C200227BFFF2
:104D08007A70794978347C9B7D017E027F00122A73
:104D180098909D3D122DEA00000000909D4174106E
:104D2800F0A3E4F0FD7C107F5A1264DC909D34748B
:104D380010F0A3E4F0909D34E0FEA3E0C394FEEEEF
:104D480094175069909D34E0A3E0FF7B017A9B792A
:104D580034909D3F7402F0A3E4F0123F2BE4909D41
:104D680036F0A3F0909D36E0FEA3E0C3EE94015028
:104D78002F909D36E0A3E025E0FFEE33FE74342F3C
:104D8800F582749B3EF583E0FEA3E0645A7003EE5F
:104D980064A56019909D36E475F001122BB380C4A8
:104DA800909D34740175F000122BB38088909D3665
:104DB800E0FEA3E0FF909D34E0FCA3E02FFFEC3E73
:104DC800909D38F0A3EFF0909D38E0FEA3E0C394E7
:104DD800FEEE94174009909D387410F0A3E4F0900B
:104DE8009D3874F075F000122BB3909D38E0FEA347
:104DF800E0FF90A101EEF0A3EFF07B017A9D7938F6
:104E0800909D3FE4F0A37402F07F007E0312419866
:104E18007B017A9D7938909D3FE4F0A37402F0FFFE
:104E28007E031241987B017A9D7938909D3FE4F08A
:104E3800A37402F07F087E501241987B017A9D7915
:104E480038909D3FE4F0A37402F07F097E50124130
:104E580098909B347407F0A374FEF07B017A9B79D9
:104E680034909D3FE4F0A37402F07F017E03124169
:104E7800987B017A9B7934909D3FE4F0A37402F00B
:104E880004FFFE124198909B34E4F0A37406F0A34B
:104E9800E4F0A304F0A3E4F0A3742EF0A37401F0EB
:104EA800A3744CF0A37401F0A37471F0A37401F01F
:104EB800A37477F0A37401F0A3748AF0A37402F0CA
:104EC800A3748AF0A37401F0A37471F0A374FFF0C3
:104ED800A3E4F07B017A9B7934909D3FF0A374148E
:104EE800F07F0A7E5012419822E4909B34F0A3F0A0
:104EF800E51320E0030250D87B017A9B7934909D1A
:104F08003FE4F0A37402F07F147E50123F2B909B75
:104F180034E0FEA3E04E70030250D8909B34E0A327
:104F2800E08EF0122E765056A000505BA0265060FE
:104F3800A4005065A401506AA4A0506AA4A1506AB4
:104F4800A4A2506AA4A3506AA4A4506AA4A5506A53
:104F5800A4A6506AA4A7506AA4A8506AA4A9506A33
:104F6800A4AA506AA4AB506AA4AC506AA4AD506A13
:104F7800A4AE506AA4AF506AA4B0506AA4B1506AF3
:104F8800A4B2506AA4B3506AA4B4506AA4B5506AD3
:104F9800A4B6506AA4B7506AA4B8506AA4B9506AB3
:104FA800A4BA506AA4BB506AA4BC506AA4BD506A93
:104FB800A4BE506AA4BF506AA4C0506AA4C1506A73
:104FC800A4C2506AA4C3506AA4C4506AA4C5506A53
:104FD800A4C6506AA4C7506AA4C8506AA4C9506A33
:104FE800A4CA506AA4CB506AA4CC506AA4CD506A13
:104FF800A4CE506AA4CF506AA4D0506AA4D15077E6
:10500800A4F05077A4F15077A4F25077A4F3508419
:10501800A60050BCA6015089AC00508EAC01509837
:10502800C500509DC6005093C70050A2C70150A7A5
:10503800C90150A7C90750A7C90D50A7C90E50A745
:10504800C91150B4CF0050B9D600000050BC126846
:105058007D8061126F2E805C12673F8057120016A8
:105068008052909B34E0FEA3E0FF1269FA804590DD
:105078009B34E0FEA3E0FF126A54803812638180FB
:1050880033126B07802E126DD8802912596880243C
:10509800126E0E801F126EEF801A12002280159079
:1050A8009B34E0FEA3E0FF126C078008126CDD80E1
:1050B80003126D1CE4909B34F0A3F07B017A9B797A
:1050C80034909D3FF0A37402F07F147E50124198F3
:1050D800227B007A007900909B34122E47909170C1
:1050E800E06401600302517090916BE0FF909AAF09
:1050F800E0D39F4011E090916BF0909B30122DEA25
:1051080000000000806290916BE0FF909AAFE06F22
:105118007056FFFEFDFC909B30122DD2D3122DA1AC
:105128004038909B30122DD2C3E50E9BFFE50D9AB7
:10513800FEE50C99FDE50B98FCE47B14FAF9F8C33D
:10514800122DA150237B017A9A79B0909AAFE0FD95
:105158007C001235C4126EA9800EAF0EAE0DAD0CD8
:10516800AC0B909B30122DDE908E69E030E042E06F
:1051780020E12990916C122DD2C3E50E9BFBE50D21
:105188009AFAE50C99F9E50B98F8909175E0FFE427
:10519800FCFDFEC3122DA150030252BF908E69E0A0
:1051A80030E106A3E004F0802F908E69E054FEF011
:1051B8002290916C122DD2C3E50E9BFFE50D9AFE4D
:1051C800E50C99FDE50B98FCE47BF47A01F9F8D33A
:1051D800122DA140030252BF908E6AE0700312564E
:1051E800E490916C122DEA00000000E4F50EF50D34
:1051F800F50CF50B908E69E054FDF0E054FEF012CA
:105208006EA97B017A8E796A1248AF908E6AE0C3E4
:1052180094A87480948040030252BAE075F00EA4FA
:10522800247FF9749135F0FA7B0178717C917D01C6
:105238007E007F0E122A98126EA9909173E0640383
:1052480070127B017A917971125CF9908E69E04451
:1052580001F08054909173E064067034909179E085
:10526800FEA3E0FF7B017A9B7937909D3FE4F0A392
:105278007402F0123F2B7B017A917971909B37E091
:10528800FCA3E0FD125E14908E69E04401F08018E2
:10529800909173E0641070107B017A9179711252C9
:1052A800C0908E69E04401F0E4F50EF50DF50CF5BB
:1052B8000B22E4908E6AF022909B39122E47E490DC
:1052C8009B3EF0909B39122E27900001122AD7FF9F
:1052D800909B3EE0FE04F0743F2EF582E4349BF58B
:1052E80083EFF0909B3EE0FF04F0743F2FF582E4DB
:1052F800349BF5837410F0909B39122E2790000A86
:10530800122C0AE5F0FF909B3EE0FE04F0743F2E5D
:10531800F582E4349BF583EFF0909B39122E2790A9
:10532800000A122C0AFF909B3EE0FE04F0743F2E08
:10533800F582E4349BF583EFF0909B39122E279089
:105348000003122AD7FFE4909B3EE0FE04F0743F6E
:105358002EF582E4349BF583E4F0909B39122E27D6
:10536800900003122AD7FF909B3EE0FE04F0743FA2
:105378002EF582E4349BF583EFF0909B39122E27AB
:10538800900003122AD725E0FF909B3EE0FE04F030
:10539800743F2EF582E4349BF583EFF0909179E029
:1053A800FEA3E0FFC006C007909B3EE0243FF9E45F
:1053B800349BFA7B01C003C002C001909B39122EB6
:1053C80027900003122AD775F002A4FF909D3FE5AD
:1053D800F0F0A3EFF0D001D002D003D007D006122E
:1053E8003F2B909B39122E27900003122AD725E0D5
:1053F800FF909B3EE02FF07B017A9B793FE0FD7C9C
:10540800001265E3909B3CEEF0A3EFF0909B3CE02C
:10541800FEA3E0EEFFA3E0FE04F0743F2EF582E465
:10542800349BF583EFF0909B3CE0A3E0FFA3E0FE04
:1054380004F0743F2EF582E4349BF583EFF07B0192
:105448007A9B793F909B3EE0FD1269A022C0E0C0A4
:10545800F0C083C082C0D075D000C000C001C002B7
:10546800C003C004C005C006C007C2AF758CBC75B8
:105478008ACD90A0E8E475F001122BB390A0E8E083
:10548800FEA3E0D394E8EE9403401890A0E8E4F07B
:10549800A3F0A375F001122BB390A0E6E475F00118
:1054A800122BB343C90190A0F4122DC6E47B01FA74
:1054B800F9F8122C6190A0F4122DDE90A0ECE4759E
:1054C800F001122BB390A0EE122DC6E4F8122C6155
:1054D80090A0EE122DDE90A0F2E0FEA3E0FFE4FC27
:1054E800FD7BDC7AFFF8D3122D8B400A90A0F2E402
:1054F80075F001122BB30509E50970020508AF1212
:10550800AE11AD10AC0FE47B01FAF9F8122C618FE3
:10551800128E118D108C0FAF0EAE0DAD0CAC0BE4CE
:10552800122C618F0E8E0D8D0C8C0BE47B64AF12E8
:10553800AE11AD10AC0F122CF9AC00AD01AE02AF3C
:1055480003E4FBFAF9F8C3122DA17003430A02E43D
:105558007BF47A01F9F8AF12AE11AD10AC0F122C32
:10556800F9AC00AD01AE02AF03E4FBFAF9F8C312DF
:105578002DA17003430A04430A01D2AFD007D00615
:10558800D005D004D003D002D001D000D0D0D08232
:10559800D083D0F0D0E032909B43EFF0A3EDF0A39E
:1055A800EBF0E4909B50F0A3F0909B43E024D0FFF5
:1055B800E43407909B50F0A3EFF0909B50E0FEA3DB
:1055C800E0FF7C007D64122B28909B46ECF0A3ED55
:1055D800F0909B50E0FEA3E0FF7C007D64122B2836
:1055E800909B48EEF0A3EFF0909B44E0FF909B4A1D
:1055F800E4F0A3EFF0909B45E0FF909B4CE4F0A310
:10560800EFF0909B4AE0FEA3E064014E600B909B94
:105618004AE0A3E064024E7014909B4674FFF5F0D4
:10562800122BB3909B4AE475F00C122BB3909B4657
:10563800E0FEA3E07802CEC313CE13D8F9FF909B07
:1056480046E0FCA3E02FFDEE3CFCA3E0FEA3E078DF
:1056580002CEC313CE13D8F92DFDEC3EFC909B4827
:10566800E0FEA3E025E0FFEE33FEC3ED9FFBEC9EDA
:10567800FAA3E0FEA3E02401FFE43EFE7C007D0DDA
:10568800122B167D05122B28EF2BFFEE3AFEA3E016
:10569800FCA3E02FFFEE3CFEEF24FFFFEE34FFA358
:1056A800F0A3EFF0909B4EE0FEA3E0C3EE94005011
:1056B8000C909B4EE475F007122BB380E7909B4E3D
:1056C800E0FEA3E0FF7C007D07122B28909B4EECA8
:1056D800F0A3EDF0909B4EE0A3E0FF227BFF7A73EE
:1056E800792F78397C9B7D017E007F28122A98E4E7
:1056F800909B61F0A3F0909B61E0FEA3E0C39460EF
:10570800EE94004003025828909B61E0A3E07803E0
:10571800C333CE33CED8F9246CF582748E3EF5832C
:10572800E0FF90A0FDE0FCA3E0FDEF6D7001EC60F0
:105738000302581B909B61E0FEA3E07803C333CEBD
:1057480033CED8F9246DF582748E3EF583E0FEA33E
:10575800E0FF7B017A9B7939909D3FE4F0A37402C6
:10576800F0123F2B909B61E0FEA3E07803C333CE99
:1057780033CED8F9246FF582748E3EF583E0FEA30C
:10578800E0FF7B017A9B793B909D3FE4F0A3740294
:10579800F0123F2B909B3BE0FEA3E0FF909B39E08B
:1057A800FCA3E06F7002EC6E6069909B61E0FEA361
:1057B800E07803C333CE33CED8F9246FF582748EE4
:1057C8003EF583E0FEA3E0FF7B017A9B7939909D4B
:1057D8003FE4F0A37402F0124198909B3DE4F0A3DB
:1057E800745AF0909B61E0FEA3E07803C333CE3394
:1057F800CED8F92471F582748E3EF583E0FEA3E0DD
:10580800FF7B017A9B793D909D3FE4F0A37402F001
:10581800124198909B61E475F001122BB30256FE79
:1058280022909B7CEFF07BFF7A7279A9787D7C9B34
:105838007D017E007F20122A987B017A9F79467825
:105848007D7C9B7D017E007F1A122A98909B7CE0CC
:1058580075F01BA42464FFE435F0909B81F0A3EF5E
:10586800F0909B867401F0909B7CE075F006A42470
:10587800C0F582E4349FF583E0FEA3E0FF7B017A64
:105888009B797D909D3FE4F0A37420F01241987BB2
:10589800017A9F7960787D7C9B7D017E007F1A125A
:1058A8002A98909B7CE075F01BA42464FFE435F0F3
:1058B800909B81F0A3EFF0909B867401F0909B7C05
:1058C800E075F006A424C2F582E4349FF583E0FE77
:1058D800A3E0FF7B017A9B797D909D3FE4F0A37460
:1058E80020F01241987B017A9F79FC787D7C9B7D22
:1058F800017E007F1A122A98909B7CE075F01BA409
:105908002464FFE435F0909B81F0A3EFF0909B7C3A
:10591800E075F01BA42464FFE435F0909B87F0A3A6
:10592800EFF0909B7CE075F01BA4247DFFE435F03C
:10593800909B8BF0A3EFF0909B7CE075F006A4247D
:10594800C4F582E4349FF583E0FEA3E0FF7B017A8F
:105958009B797D909D3FE4F0A37420F0124198223A
:105968007BFF7A73795778367C9B7D017E007F0EAA
:10597800122A987B017A9B7936909D3FE4F0A374B4
:105988000CF07FA07EC7123F2BE4909B44F0A3F05D
:10599800909B44E0FEA3E0FF909B36E0A3E0540117
:1059A800FDEEEF4DFF909B44EEF0A3EFF0909B448B
:1059B800E0FCA3E0FD909B38E0A3E0540125E0FF64
:1059C800E433FEEC4EFEED4FFF909B44EEF0A3EF68
:1059D800F0909B44E0FCA3E0FD909B3AE0A3E07EBE
:1059E8000054017802C333CE33CED8F9FFEC4EFE13
:1059F800ED4FFF909B44EEF0A3EFF0909B44E0FC4A
:105A0800A3E0FD909B3CE0A3E07E0054017806C330
:105A180033CE33CED8F9FFEC4EFEED4FFF909B44CA
:105A2800EEF0A3EFF0909B44E0FCA3E0FD909B3EDA
:105A3800E0A3E05401C454F0FEEC4EFEEDFF909B51
:105A480044EEF0A3EFF0909B44E0FCA3E0FD909BB4
:105A580040E0A3E05401C43354E0FEEC4EFEEDFFF9
:105A6800909B44EEF0A3EFF07B017A9B7944909DE4
:105A78003FE4F0A37402F07F227EC7124198909B06
:105A880044E4F0A3745AF07B017A9B7944909D3FDB
:105A9800E4F0A37402F07F827EC712419822909BA3
:105AA8007CEFF0A3ECF0A3EDF0A3EBF07BFF7A72B0
:105AB800798978807C9B7D017E007F20122A987BE3
:105AC800017A9F794678807C9B7D017E007F1A123F
:105AD8002A98909B7CE075F01BA42464FFE435F0C1
