:100000000228AF020006C2AFD2AF32022208C2AF4E
:10001000D2AF3202000E122D45EF600312280C12EF
:100020000B1222022A50122EAB223202006643B774
:100030001043C940E4908080F0908082F0A3F07576
:10004000D88075985053877F75BA0375AAE4D29CFF
:10005000D2AC2202002A53BEF72232022C9F43BEAA
:02006000082274
:0600630002005AC2C63281
:10006B00022AC7C2AF120026122F36122FCD122F23
:07007B00D443C902D2AF22F9
:10008300020086C0E0C0F0C083C082C0D075D0003B
:10009300C000C004C00790A5D6E4F0C2AFE59B3012
:1000A300E027E59CF0E0FF908084E0FCA3E02428B7
:1000B300F58274A03CF583EFF0908084E475F00141
:1000C30012087C539BFE539BFEE59B30E10B539B35
:1000D300FD539BFD908081E4F043C901D2AFD0076B
:0F00E300D004D000D0D0D082D083D0F0D0E03283
:1000F800FFFF4457494E54354EA8FD75617274345C
:100108002073656E642E2E2E0042A90F000042A9AE
:100118000D000042A90B000041808000428082004F
:1001280000418081004280840000428086000047B0
:10013800A8D00000000000000048A8E1000000006E
:100148000000000048A8D70000000000000000429E
:10015800A8DF000041A8E90041A8CF0042A8EC00B0
:100168000042A8EE000042A8EA000044A8F90000F6
:10017800000042A8F0000044A8F2000000000208B5
:100188000000040A0000000042A8F7000041A8F699
:100198000044A3C00000000041A3BF0041A3BE006B
:1001A80041A0A80042A1B9000042A1B7000042A0A6
:1001B800A9000044A2BB000046504DA1AA5AA50AB6
:1001C800832001030000000000006100A1BB0000C3
:1001D8000000000000000000000000000000000017
:1001E8000000000000000000000000000000000007
:1001F80000000000000000000000000000000000F7
:1002080000000000000000000000000000000000E6
:1002180000000000000000000000000000000000D6
:1002280000000000000000000000000000000000C6
:1002380000000000000000000000000000000000B6
:1002480000000000000000000000000000000000A6
:100258000000000000000000000000000000000096
:100268000000000000000000000000000000000086
:100278000000000000000000000000000000000076
:100288000000000000000000000000000000000066
:100298000000000000000000000000000000000056
:1002A8000000000000000000000000000000000046
:1002B8000000000000000000000000000000000036
:1002C800000000000000000000000000000060FFC7
:1002D800A2BF0000000000000000000000000000B5
:1002E8000000000000000000000000000000000006
:1002F80000000000000000000000000000000000F6
:1003080000000000000000000000000000000000E5
:1003180000000000000000000000000000000000D5
:1003280000000000000000000000000000000000C5
:1003380000000000000000000000000000000000B5
:1003480000000000000000000000000000000000A5
:100358000000000000000000000000000000000095
:100368000000000000000000000000000000000085
:100378000000000000000000000000000000000075
:100388000000000000000000000000000000000065
:100398000000000000000000000000000000000055
:1003A8000000000000000000000000000000000045
:1003B8000000000000000000000000000000000035
:1003C8000000000000000000000000000000000025
:1003D800006100A5D900C1814001C0804101C080F1
:1003E8004100C1814001C0804100C1814000C181FC
:1003F8004001C0804101C0804100C1814000C181ED
:100408004001C0804100C1814001C0804101C080DD
:100418004100C1814001C0804100C1814000C181CB
:100428004001C0804100C1814001C0804101C080BD
:100438004100C1814000C1814001C0804101C080AC
:100448004100C1814001C0804100C1814000C1819B
:100458004001C0804101C0804100C1814000C1818C
:100468004001C0804100C1814001C0804101C0807D
:100478004100C1814000C1814001C0804101C0806C
:100488004100C1814001C0804100C1814000C1815B
:100498004001C0804100C1814001C0804101C0804D
:1004A8004100C1814001C0804100C1814000C1813B
:1004B8004001C0804101C0804100C1814000C1812C
:1004C8004001C0804100C1814001C0804101C0801D
:1004D8004100C181406100A6D900C0C101C3030227
:1004E800C2C60607C705C5C404CC0C0DCD0FCFCEB8
:1004F8000E0ACACB0BC90908C8D81819D91BDBDAE8
:100508001A1EDEDF1FDD1D1CDC14D4D515D7171607
:10051800D6D21213D311D1D010F03031F133F3F217
:100528003236F6F737F53534F43CFCFD3DFF3F3EF7
:10053800FEFA3A3BFB39F9F83828E8E929EB2B2A87
:10054800EAEE2E2FEF2DEDEC2CE42425E527E7E647
:100558002622E2E323E12120E0A06061A163A3A2B7
:100568006266A6A767A56564A46CACAD6DAF6F6E37
:10057800AEAA6A6BAB69A9A86878B8B979BB7B7A67
:10058800BABE7E7FBF7DBDBC7CB47475B577B7B687
:100598007672B2B373B17170B05090915193535257
:1005A8009296565797559594549C5C5D9D5F9F9E77
:1005B8005E5A9A9B5B99595898884849894B8B8A07
:1005C8004A4E8E8F4F8D4D4C8C44848545874746C7
:1005D80086824243834181804041A8890041A7E047
:1005E8000044A8CB0000000041A7DB0041A88A0016
:1005F80044A7DC00000000609AA7EF5A010304C872
:100608000100005000030000FF5A010601C80280E3
:10061800018000030400FF00010302C8010000502C
:1006280000030000FF00010302C80100005000039E
:100638000000FF00010302C8010000500003000091
:10064800FF00010302C80100005000030000FF0082
:10065800010302C80100005000030000FF0001036D
:1006680002C80100005000030000FF00010302C897
:100678000100005000030000FF00010302C8010050
:10068800005000030000FF00010302C801000050F1
:1006980000030000FF4EA7E100000000000000007A
:1006A80000000000000041A7DA0041A7D90000E7D8
:1006B80009F608DFFA8046E709F208DFFA803E8883
:1006C800828C83E709F0A3DFFA8032E309F608DFBA
:1006D800FA8078E309F208DFFA807088828C83E375
:1006E80009F0A3DFFA806489828A83E0A3F608DF31
:1006F800FA805889828A83E0A3F208DFFA804C8066
:10070800D280FA80C680D4806980F28033801080DD
:10071800A680EA809A80A880DA80E280CA8033893D
:10072800828A83ECFAE493A3C8C582C8CCC583CC7B
:10073800F0A3C8C582C8CCC583CCDFE9DEE7800D4D
:1007480089828A83E493A3F608DFF9ECFAA9F0ED2D
:10075800FB2289828A83ECFAE0A3C8C582C8CCC58B
:1007680083CCF0A3C8C582C8CCC583CCDFEADEE859
:1007780080DB89828A83E493A3F208DFF980CC883E
:10078800F0EF60010E4E60C388F0ED2402B404005F
:1007980050B9F582EB2402B4040050AF23234582FC
:1007A8002390070773BB010689828A83E0225002DF
:1007B800E722BBFE02E32289828A83E49322BB01FB
:1007C8000CE58229F582E5833AF583E0225006E9B3
:1007D8002582F8E622BBFE06E92582F8E222E582B8
:1007E80029F582E5833AF583E49322BB01068982E1
:1007F8008A83F0225002F722BBFE01F322F8BB01E4
:100808000DE58229F582E5833AF583E8F022500662
:10081800E92582C8F622BBFE05E92582C8F222BC7A
:10082800000BBE0029EF8DF084FFADF022E4CCF878
:1008380075F008EF2FFFEE33FEEC33FCEE9DEC98DD
:100848004005FCEE9DFE0FD5F0E9E4CEFD22EDF863
:10085800F5F0EE8420D21CFEADF075F008EF2FFF06
:10086800ED33FD4007985006D5F0F222C398FD0FEE
:10087800D5F0EA22C5F0F8A3E028F0C5F0F8E58243
:10088800158270021583E038F022A3F8E0C5F02540
:10089800F0F0E582158270021583E0C838F0E8228E
:1008A800BB0110E58229F582E5833AF583E0F5F08E
:1008B800A3E0225009E92582F886F008E622BBFE6B
:1008C8000AE92582F8E2F5F008E222E5832AF583B1
:1008D800E993F5F0A3E99322BB010A89828A83F0A0
:1008E800E5F0A3F0225006F709A7F01922BBFE068F
:1008F800F3E5F009F31922EF2BFFEE3AFEED39FD8F
:10090800EC38FC2275F008758200EF2FFFEE33FEFD
:10091800CD33CDCC33CCC58233C5829BED9AEC99CF
:10092800E58298400CF582EE9BFEED9AFDEC99FC71
:100938000FD5F0D6E4CEFBE4CDFAE4CCF9A88222B8
:10094800B800C1B90059BA002DEC8BF084CFCECDD8
:10095800FCE5F0CBF97818EF2FFFEE33FEED33FD11
:10096800EC33FCEB33FB10D703994004EB99FB0FF6
:10097800D8E5E4F9FA227818EF2FFFEE33FEED33CD
:10098800FDEC33FCC933C910D7059BE99A4007EC45
:100998009BFCE99AF90FD8E0E4C9FAE4CCFB22758C
:1009A800F010EF2FFFEE33FEED33FDCC33CCC83320
:1009B800C810D7079BEC9AE899400AED9BFDEC9A82
:1009C800FCE899F80FD5F0DAE4CDFBE4CCFAE4C8FA
:1009D800F922EB9FF5F0EA9E42F0E99D42F0EC64C3
:1009E80080C864809845F022EB9FF5F0EA9E42F0BB
:1009F800E99D42F0E89C45F022E86010ECA2E7137C
:100A0800FCED13FDEE13FEEF13FFD8F022E0FCA37C
:100A1800E0FDA3E0FEA3E0FF22E0F8A3E0F9A3E0F5
:100A2800FAA3E0FB22ECF0A3EDF0A3EEF0A3EFF0C5
:100A380022A8828583F0D083D082120A50120A50ED
:100A4800120A50120A50E473E493A3C583C5F0C593
:100A580083C8C582C8F0A3C583C5F0C583C8C5824D
:100A6800C822E0FBA3E0FAA3E0F922F8E0FBA3A385
:100A7800E0F925F0F0E582158270021583E0FA3876
:100A8800F022EBF0A3EAF0A3E9F022D083D082F8B9
:100A9800E4937012740193700DA3A393F8740193F7
:100AA800F5828883E4737402936860EFA3A3A3803C
:100AB800DFD083D082F8E4937012740193700DA391
:100AC800A393F8740193F5828883E473740293B551
:100AD800F0067403936860E9A3A3A3A380D8EF4E3C
:100AE8006012EF60010EEDBB010B89828A83F0A3CF
:100AF800DFFCDEFA2289F05007F709DFFCA9F022B3
:100B0800BBFEFCF309DFFCA9F022E490A3C4F0A328
:100B1800F0A3F0A3F0A3F0A3F0A3F0A3F07B017A75
:100B2800807988A3120A8AE490A3CFF0A3F07BFF10
:100B38007A32794278D17CA37D01FE7F0212078741
:100B4800908082E0FEA3E0D39402EE940040047FFC
:100B58000180027F0090A3CAEFF090A3CAE070035F
:100B6800020ECF7B017A80798890A3CC120A8A90F2
:100B7800A3CC120A6A1207AD645A6037908082E0EB
:100B8800FEA3E02488F974803EFA7B01C003C0020A
:100B9800C00190A3CC120A6AC3D082D083D0E0E906
:100BA8009582EA9583500C90A3CDE475F001120864
:100BB8007C80BC908082E0FEA3E02488F974803EAB
:100BC800FA7B01C003C002C00190A3CC120A6AD00C
:100BD80082D083D0E06B7008E965827003EA658390
:100BE8007007908082F0A3F02290A3CC120A6AC307
:100BF800E99488FFEA9480FE908082E0FCA3E0C339
:100C08009FFFEC9E90A3C8F0A3EFF090A3CFE01253
:100C18000A930C27000C74020CFC0300000CFC7EE9
:100C2800007FFF7D007B017AA079AB120AE6E49091
:100C3800A3D0F090A3CBF090A3C4F0A3F0A3F0A3AB
:100C4800F090A3C6E0FEA3E0C39403EE9400501C0A
:100C580090A3C6E0A3E024D1F58274A33EF583E413
:100C6800F090A3C675F00112087C80D590A3CC1231
:100C78000A6AC003C002C0017B017AA079AB90A3C5
:100C8800D6120A8A7AA379C490A3D9120A8A90A3A1
:100C9800C8E0FEA3E0FF90A3DCEEF0A3EFF0D001E4
:100CA800D002D0031225C290A3D0EFF0E0A3F090B9
:100CB800A3D06401703E7B017AA079ABC002C00169
:100CC80090A3C4E0FCA3E0FD7AA179BB90A3D8125D
:100CD8000A8AD001D002122DD4EF7003020D9112AE
:100CE80027597E017F007D007B017AA179BB120A1A
:100CF800E6020D9190A3D1E064036003020D919088
:100D0800A3CD75F00112087C90A3CC120A6A1207D1
:100D1800AD645A6037908082E0FEA3E02488F974BD
:100D2800803EFA7B01C003C002C00190A3CC120A26
:100D38006AC3D082D083D0E0E99582EA9583500CCB
:100D480090A3CDE475F00112087C80BC908082E00D
:100D5800FEA3E02488F974803EFA7B01C003C00238
:100D6800C00190A3CC120A6AD082D083D0E06B7005
:100D780008E965827003EA65837008908082F0A3B1
:100D8800F0800690A3CB7401F090A3D0E0640160DA
:100D98000990A3CBE07003020EC790A3CC120A6A95
:100DA800C3E99488FFEA9480FE908082E0FCA3E087
:100DB800C39FFFEC9EFE90A3C4E0FCA3E0FDC3EF3D
:100DC8009DFFEE9C90A3C8F0A3EFF090A3C8E0FEAF
:100DD800A3E0D39400EE94005003020E65E490A3C0
:100DE800C6F0A3F090A3C8E0FEA3E0FF90A3C6E07E
:100DF800FCA3E0C39FEC9E505C90A3CC120A6A90BF
:100E0800A3C4E0FEA3E029F9EA3EFAA3E0FEA3E0CA
:100E180029F9EA3EFA1207ADFF90A3C6E0A3E02441
:100E280088F58274803CF583EFF090A3CC120A6AAF
:100E380090A3C4E0FEA3E029F9EA3EFAA3E0FEA3EA
:100E4800E029F9EA3EFAE41207F390A3C675F00127
:100E580012087C808F90A3CA7401F0804FE490A39D
:100E6800C6F0A3F090A3CC120A6AC3E99488FFEAFB
:100E78009480FE90A3C4E0FCA3E02FFFEE3CFEA309
:100E8800E0FCA3E0C39FEC9E501D90A3C6E0FEA328
:100E9800E02488F58274803EF583E4F090A3C6755B
:100EA800F00112087C80BDE490A3CAF090A3C8E0CA
:100EB800FEA3E0FF908082EEF0A3EFF0020B62E465
:100EC80090A3CAF0020B622290A3C9120A8A90A3C7
:100ED800CCECF0A3EDF0E4A3F0A3F090A3CCE0FEFB
:100EE800A3E0FFA3E0FCA3E0C39FEC9E500C90A3FB
:100EF800CEE475F00112087C80E190A3CCE0FEA35B
:100F0800E0C39405EE94005003021189E4A3F0A312
:100F1800F090A3C9120A6A90A3CEE0FEA3E0F5827E
:100F28008E831207C66401600302116390A3C9127D
:100F38000A6A90A3CEE0A3E029F9EA3EFA900001FC
:100F48001207C6120A930F580310AC06000011636B
:100F580090A3C9120A6A90A3CEE0FEA3E029F9EA99
:100F68003EFA9000021207C6FF90A3D2E4F0A3EF66
:100F7800F090A3CEE0A3E0FF90A3D2E0FCA3E02F83
:100F8800FFEC3EFEEF2405FFE43EFE90A3CCE0FC20
:100F9800A3E0FDD3EF9DEE9C401190A3CCE0FEA30F
:100FA800E0FFA3EEF0A3EFF002116390A3C9120AC9
:100FB8006A90A3CEE0FEA3E029F9EA3EFA90A3D214
:100FC800E0FEA3E02403FDE43EFC1229D590A3D063
:100FD800EEF0A3EFF090A3C9120A6A90A3CEE0FE48
:100FE800A3E029F9EA3EFA90A3D2E0FEA3E029F9AA
:100FF800EA3EFA9000031207C6FD90A3D0E0FEA3D4
:10100800E0EE6D7001E4600302116390A3C9120A57
:101018006A90A3CEE0FEA3E029F9EA3EFA90A3D2B3
:10102800E0FEA3E029F9EA3EFA9000041207C6FFA1
:1010380090A3D0E0A3E06F7001E460030211639015
:10104800A7E9E0FEA3E0FF90A3C9120A6AE9240316
:10105800F9E43AFAC003C002C00190A3C9120A6AAF
:101068009000021207C6FD90A5CFE4F0A3EDF0D0E2
:1010780001D002D0031213F77E007F0E7D007B01A2
:101088007AA779E1120AE690A3D2E0FEA3E024054C
:10109800FFE43E90A3CEF0A3EFF090A7D9E044027E
:1010A800F002116390A3CEE0FEA3E02408FFE43E23
:1010B800FE90A3CCE0FCA3E0FDD3EF9DEE9C401195
:1010C80090A3CCE0FEA3E0FFA3EEF0A3EFF00211A3
:1010D8006390A3C9120A6A90A3CEE0FEA3E029F99F
:1010E800EA3EFA7D067C001229D590A3D0EEF0A343
:1010F800EFF090A3C9120A6A90A3CEE0FEA3E029FC
:10110800F9EA3EFA9000061207C6FD90A3D0E0FE69
:10111800A3E0EE6D7001E4704290A3C9120A6A90D0
:10112800A3CEE0FEA3E029F9EA3EFA9000071207F1
:10113800C6FF90A3D0E0A3E0B50720E490A3CE7546
:10114800F00812087C7E007F0E7D007B017AA7796B
:10115800E1120AE690A7D9E04402F090A3CEE47524
:10116800F00112087C90A3CCE0FEA3E024FBFFEE84
:1011780034FFFEA3E0FCA3E0C39FEC9E5003020FE4
:10118800192290A5CAEEF0A3EFF0A3120A8A7B00F9
:101198007A007900C003C002C00190A5CC120A6A87
:1011A800D082D083D0E06B7008E965827003EA656D
:1011B8008370030213F690A5CFE0FEA3E04E700300
:1011C8000213F690A5CFE0A3E0FFEEC313FEEF13E2
:1011D800FF90A5CAE0FCA3E02FFFEE3CFED3EF94FE
:1011E800FEEE94FF40030213F6C2AF90A5CAE0A337
:1011F800E0540190A5D1F090A5CAE0FEA3E0FFEE6F
:10120800C313FEEF13FF90A5CAEEF0A3EFF090A56D
:10121800CAE0FEA3E07810CEC313CE13D8F9F5F1D7
:1012280090A5CAE0FEA3E0EEF5F290A5CAE0A3E01F
:10123800F5F3E4F5F875F401D2FF30FCFDD2FD902A
:10124800A5D1E06401707290A5CFE0FEA3E064012F
:101258004E700AC2FBC2FAD2F9C2F88008C2FBC2B9
:10126800FAD2F9D2F8D2FE20FEFD90A5CFE0FEA377
:10127800E064014E701A90A5CC75F001120A73E56E
:10128800FC1207F390A5CF74FFF5F012087C8029B3
:1012980090A5CCE475F001120A73E5FC1207F390EF
:1012A800A5CCE475F001120A73E5FD1207F390A5C9
:1012B800CF74FF75F0FE12087C90A5CFE0FEA3E086
:1012C8004E70030213F190A5CFE0A3E0C39404EE9F
:1012D8009400400302139A90A5CFE0A3E08EF01289
:1012E8000AB9130E00011304000212FA00030000E9
:1012F8001316D2FBD2FAD2F9C2F88012D2FBD2FA74
:10130800C2F9C2F88008D2FBC2FAC2F9C2F8D2FE0A
:1013180020FEFD90A5CFE0FEA3E08EF0120AB913DF
:101328008700011367000213370003000013F190D0
:10133800A5CCE475F001120A73E5FA1207F390A53B
:10134800CCE475F001120A73E5FB1207F390A5CC03
:10135800E475F001120A73E5FC1207F30213F19029
:10136800A5CCE475F001120A73E5FA1207F390A50B
:10137800CCE475F001120A73E5FB1207F3806A905A
:10138800A5CCE475F001120A73E5FA1207F3805947
:101398008057D2FBD2FAD2F9D2F8D2FE20FEFD90C5
:1013A800A5CCE475F001120A73E5FA1207F390A5CB
:1013B800CCE475F001120A73E5FB1207F390A5CC93
:1013C800E475F001120A73E5FC1207F390A5CCE46A
:1013D80075F001120A73E5FD1207F390A5CF74FFAB
:1013E80075F0FC12087C0212C1E4F5F8D2AF229025
:1013F800A5CAEEF0A3EFF0A3120A8A7B007A00795F
:1014080000C003C002C00190A5CC120A6AD082D0E5
:1014180083D0E06B7008E965827003EA6583700326
:1014280002166290A5CFE0FEA3E04E70030216629A
:1014380090A5CFE0A3E0FFEEC313FEEF13FF90A546
:10144800CAE0FCA3E02FFFEE3CFED3EF94FEEE943F
:10145800FF4003021662C2AF90A5CAE0A3E05401A0
:1014680090A5D1F090A5CAE0FEA3E0FFEEC313FE5D
:10147800EF13FF90A5CAEEF0A3EFF090A5CAE0FE27
:10148800A3E07810CEC313CE13D8F9F5F190A5CA0E
:10149800E0FEA3E0EEF5F290A5CAE0A3E0F5F3E4E0
:1014A800F5F875F401D2FF30FCFDC2FD90A5D1E03E
:1014B8006401707290A5CFE0FEA3E064014E700A4B
:1014C800C2FBC2FAD2F9C2F88008C2FBC2FAD2F94A
:1014D800D2F890A5CFE0FEA3E064014E701A90A563
:1014E800CC75F001120A731207ADF5FC90A5CF7404
:1014F800FFF5F012087C802990A5CCE475F0011264
:101508000A731207ADF5FC90A5CCE475F001120A38
:10151800731207ADF5FD90A5CF74FF75F0FE1208A4
:101528007CD2FE20FEFD90A5CFE0FEA3E04E700326
:1015380002165D90A5CFE0A3E0C39404EE940040AA
:101548000302160690A5CFE0A3E08EF0120AB915A3
:101558007B0001157100021567000300001583D296
:10156800FBD2FAD2F9C2F88012D2FBD2FAC2F9C27F
:10157800F88008D2FBC2FAC2F9C2F890A5CFE0FE03
:10158800A3E08EF0120AB915EE000115CE0002157F
:101598009F0003000015FD90A5CCE475F001120A28
:1015A800731207ADF5FA90A5CCE475F001120A7331
:1015B8001207ADF5FB90A5CCE475F001120A731281
:1015C80007ADF5FC802F90A5CCE475F001120A73E5
:1015D8001207ADF5FA90A5CCE475F001120A731262
:1015E80007ADF5FB800F90A5CCE475F001120A73E6
:1015F8001207ADF5FAD2FE30FE5B80FB8057D2FBB6
:10160800D2FAD2F9D2F890A5CCE475F001120A7397
:101618001207ADF5FA90A5CCE475F001120A731221
:1016280007ADF5FB90A5CCE475F001120A7312071B
:10163800ADF5FC90A5CCE475F001120A731207AD64
:10164800F5FDD2FE20FEFD90A5CF74FF75F0FC12CB
:10165800087C02152EE4F5F8D2AF2290A8F6E03007
:10166800E10D90A90BE475F00112087C12240D908D
:10167800A90BE0FEA3E0C3940AEE940050030218FD
:101688008CE490A90BF0A3F0A3E0FEA3E02400FFF4
:10169800EE341090A3C4F0A3EFF07B017AA379C6CF
:1016A80090A5CFE4F0A37402F07F057E5012118A52
:1016B80090A3C4E0FEA3E0FF7B017AA379C690A5BE
:1016C800CFE4F0A37402F01213F790A90DE0FEA383
:1016D800E02400FFEE341890A3C4F0A3EFF07B01E0
:1016E8007AA379C690A5CFE4F0A37402F07F077EB1
:1016F8005012118A90A3C4E0FEA3E0FF7B017AA3F5
:1017080079C690A5CFE4F0A37402F01213F790A95C
:101718000DE0FEA3E0FF90A3CAEEF0A3EFF090A9BE
:101728000DE475F00112087C90A90DE0FEA3E0C35A
:1017380094FEEE94074007E490A90DF0A3F07B0116
:101748007AA9790D90A5CFE4F0A37402F07F007E0A
:10175800031213F77B017AA9790D90A5CFE4F0A3C2
:101768007402F0FF7E031213F790A3C87407F0A366
:1017780074FEF07B017AA379C890A5CFE4F0A37436
:1017880002F07F087E501213F77B017AA379C89084
:10179800A5CFE4F0A37402F07F097E501213F790EE
:1017A800A3C87402F0A3742BF07B017AA379C890C4
:1017B800A5CFE4F0A37402F07F117E501213F72234
:1017C80090A3CA74FFF5F012087C90A3C874A5F022
:1017D800A3745AF0A3E0FEA3E02400FFEE3410FE49
:1017E8007B017AA379C490A5CFE4F0A37404F01226
:1017F800118A7B017AA379C490A5CFE4F0A374067B
:10180800F07F007E501213F790A3CAE0FEA3E0FF1A
:10181800E4FCFD90A5CD120A2D90A5D1E4F0A374A7
:1018280004F07D007C507FA512295090A3CAE0FEE9
:10183800A3E02400FFEE3418FE7B017AA379C4905C
:10184800A5CFE4F0A37404F012118A7B017AA3797E
:10185800C490A5CFE4F0A37406F07F007E50121365
:10186800F790A3CAE0FEA3E0FFE4FCFD90A5CD122B
:101878000A2D90A5D1E4F0A37404F07D007C507F7C
:10188800A5122950227BFF7A2F79DB78C47CA37DAF
:10189800017E027F0012078790A5CD120A39000049
:1018A800000090A5D17410F0A3E4F0FD7C107F5ADD
:1018B80012295090A5C47410F0A3E4F090A5C4E0D8
:1018C800FEA3E0C394FEEE9417506990A5C4E0A36C
:1018D800E0FF7B017AA379C490A5CF7402F0A3E45A
:1018E800F012118AE490A5C6F0A3F090A5C6E0FE18
:1018F800A3E0C3EE9401502F90A5C6E0A3E025E035
:10190800FFEE33FE74C42FF58274A33EF583E0FE28
:10191800A3E0645A7003EE64A5600C90A5C6E47554
:10192800F00112087C80C490A5C4740175F00012FF
:10193800087C808890A5C6E0FEA3E0FF90A5C4E0DF
:10194800FCA3E02FFFEC3E90A5C8F0A3EFF090A514
:10195800C8E0FEA3E0C394FEEE9417400990A5C822
:101968007410F0A3E4F090A5C874F075F0001208A4
:101978007C90A5C8E0FEA3E0FF90A90DEEF0A3EFD0
:10198800F07B017AA579C890A5CFE4F0A37402F0A2
:101998007F007E031213F77B017AA579C890A5CF43
:1019A800E4F0A37402F0FF7E031213F77B017AA51B
:1019B80079C890A5CFE4F0A37402F07F087E501296
:1019C80013F77B017AA579C890A5CFE4F0A3740238
:1019D800F07F097E501213F790A3C47407F0A37424
:1019E800FEF07B017AA379C490A5CFE4F0A374023A
:1019F800F07F017E031213F77B017AA379C490A5C7
:101A0800CFE4F0A37402F004FFFE1213F790A3C40E
:101A1800E4F0A37406F0A3E4F0A304F0A3E4F0A3B5
:101A2800742EF0A37401F0A3744CF0A37401F0A316
:101A38007471F0A37401F0A37477F0A37401F0A398
:101A4800748AF0A37402F0A3742BF0A37401F0A3BA
:101A58007471F0A374FFF0A3E4F07B017AA379C456
:101A680090A5CFF0A37414F07F0A7E501213F722CA
:101A78007B007A00790090A3C4120A8A90A7E0E05C
:101A880064016003021B0F90A7DBE0FF90A889E0C8
:101A9800D39F4011E090A7DBF090A8CB120A390041
:101AA800000000806290A7DBE0FF90A889E06F70DB
:101AB80056FFFEFDFC90A8CB120A21D31209F04074
:101AC8003890A8CB120A21C3E50D9BFFE50C9AFEBE
:101AD800E50B99FDE50A98FCE47B0AFAF9F8C312CC
:101AE80009F050237B017AA8798B90A889E0FD7CC6
:101AF80000120ED0122E85800EAF0DAE0CAD0BACC1
:101B08000A90A8CB120A2D90A7D9E030E035E02042
:101B1800E12990A7DC120A21C3E50D9BFBE50C9A8D
:101B2800FAE50B99F9E50A98F890A7E5E0FFE4FCD7
:101B3800FDFEC31209F05003021C2790A7DAE00447
:101B4800F0802790A7DC120A21C3E50D9BFFE50C66
:101B58009AFEE50B99FDE50A98FCE47BF47A01F915
:101B6800F8D31209F04003021C27AF0DAE0CAD0BE1
:101B7800AC0A90A7DC120A2D90A88AE004F090A77E
:101B8800D9E054FDF0E054FEF090A88AE0540160DA
:101B980003021C277B017AA779DA121D8290A7DA43
:101BA800E0C3940B748094805070E075F00EA42408
:101BB800EFF974A735F0FA7B0178E17CA77D017E07
:101BC800007F0E12078790A7E3E0640370117B0182
:101BD8007AA779E1121FD590A7D9E04401F02290A5
:101BE800A7E3E06406703890A7E9E0FEA3E0FF7B76
:101BF800017AA379C790A5CFE4F0A37402F012117B
:101C08008A7B017AA779E190A3C7E0FCA3E0FD12E3
:101C180020F090A7D9E04401F022E490A7DAF0225E
:101C2800122EE97F64122CF27F10122CF2122F650B
:101C3800122EE97F65122CF290A3CE7406F090A3C1
:101C4800CEE0D3940074809480401D122C4A90A357
:101C5800CEE024C4F582E434A3F583EFF0122F0418
:101C680090A3CEE014F080D6122C4A90A3C4EFF0D3
:101C7800122F1D122F65E490A3CEF090A3CEE0C3DF
:101C8800940374809480504BE024C4F582E434A318
:101C9800F583E0FFC4540F90A3CFF090A3CEE024C7
:101CA800C4F582E434A3F583E0540F90A3D0F090F8
:101CB800A3CFE075F00AA4FFA3E02FFF90A3CEE026
:101CC80024C4F582E434A3F583EFF090A3CEE004B6
:101CD800F080A890A3CE7404F090A3CEE0C394073C
:101CE80074809480504BE024C4F582E434A3F583D7
:101CF800E0FFC4540F90A3CFF090A3CEE024C4F526
:101D080082E434A3F583E0540F90A3D0F090A3CFDE
:101D1800E075F00AA4FFA3E02FFF90A3CEE024C44F
:101D2800F582E434A3F583EFF090A3CEE004F080CD
:101D3800A8E490A3CCF090A3C4E0FFA3E0FDA3E047
:101D4800FB12231690A3CDEFF07B017AA379CC90F8
:101D5800A5CFE4F0A37402F07F007E701213F7E4BD
:101D680090A3CBF07B017AA379C490A5CFF0A3749C
:101D780008F07F107E001213F72290A3C9120A8A76
:101D880090A3C9120A6A1207AD90A3CCF090A3CC15
:101D9800E0C3940B748094804003021EA9E075F0A0
:101DA8000EA424EFF582E434A7F583E0645A6003B7
:101DB800021EA090A3CCE075F00EA424F2F582E4F4
:101DC80034A7F583E07003021EA090A3CCE075F061
:101DD8000EA424F4F582E434A7F583E07003021E10
:101DE800A990A3CCE075F00EA424F4F582E434A7FE
:101DF800F583E06401702990A3CCE075F00EA4246B
:101E0800F5F582E434A7F583E0FEA3E0FF90A90F7F
:101E1800E0FCA3E06F7002EC6E707D021EA9807872
:101E280090A3CCE075F00EA424F4F582E434A7F571
:101E380083E06402706290A3CCE075F00EA424F5F0
:101E4800F582E434A7F583E0FEA3E0FF7B017AA3E3
:101E580079CD90A5CFE4F0A37402F012118A90A373
:101E6800CDE0A3E0645A703090A3CDF0A3F090A326
:101E7800CCE075F00EA424F5F582E434A7F583E0F0
:101E8800FEA3E0FF7B017AA379CD90A5CFE4F0A370
:101E98007402F01213F7800990A3CCE004F0021D3D
:101EA8009590A3CCE0FF90A3C9120A6AEF1207F33A
:101EB80022E490A3D1F07B017AA879E190A5CFF034
:101EC800A37408F07F9C7E0012118A90A8E1E06458
:101ED8005A6003021FD4A3E064A56003021FD490D4
:101EE800A3CC7402F090A3CCE0C3940874809480CF
:101EF800504EE024E1F582E434A8F583E075F00A59
:101F08008490A3CDF090A3CCE024E1F582E434A83A
:101F1800F583E075F00A8490A3CEE5F0F090A3CDA8
:101F2800E0C454F0FFA3E02FFF90A3CCE024C4F555
:101F380082E434A3F583EFF090A3CCE004F080A50D
:101F480090A3C6E090A8D7F090A3C7E090A8D8F0D7
:101F580090A3C8E090A8D9F090A3C9E090A8DBF0BE
:101F680090A3CAE090A8DCF090A3CBE090A8DDF0A5
:101F780090A8E3E0FFA3E0FDA3E0FB12231690A3E3
:101F8800D0EFF0E490A3CFF0A3E090A8DAF090A30C
:101F9800D075F00A8490A3CDF090A3D0E075F00A34
:101FA8008490A3CEE5F0F07B017AA879D71224EBD0
:101FB800E490A8E1F0A3F07B017AA879E190A5CF9D
:101FC800F0A37408F07F9C7E001213F72290A3C937
:101FD800120A8AE490A3CEF090A3C9120A6A90006C
:101FE800011207C6FF90A3CEE0FE04F074CF2EF5D1
:101FF80082E434A3F583EFF090A3CEE0FF04F074FD
:10200800CF2FF582E434A3F5837403F090A3C912AB
:102018000A6A90000A1208A8E5F0FF90A3CEE0FE35
:1020280004F074CF2EF582E434A3F583EFF090A387
:10203800C9120A6A90000A1208A8FF90A3CEE0FE0F
:1020480004F074CF2EF582E434A3F583EFF090A367
:10205800C9120A6A9000031207C6FFE490A3CEE0F3
:10206800FE04F074CF2EF582E434A3F583E4F090F7
:10207800A3C9120A6A9000031207C6FF90A3CEE014
:10208800FE04F074CF2EF582E434A3F583EFF07BE1
:10209800017AA379CF90A3CEE0FD7C001229D590D8
:1020A800A3CCEEF0A3EFF090A3CCE0FEA3E0EEFF0C
:1020B800A3E0FE04F074CF2EF582E434A3F583EF99
:1020C800F090A3CCE0A3E0FFA3E0FE04F074CF2ED1
:1020D800F582E434A3F583EFF07B017AA379CF90FE
:1020E800A3CEE0FD122B972290A3C9120A8A90A3CF
:1020F800CCECF0A3EDF0E490A3D0F090A3C9120AC1
:102108006A9000011207C6FF90A3D0E0FE04F074A5
:10211800D12EF582E434A3F583EFF090A3D0E0FF4D
:1021280004F074D12FF582E434A3F5837406F0909B
:10213800A3C9120A6A90000A1208A8E5F0FF90A342
:10214800D0E0FE04F074D12EF582E434A3F583EFD9
:10215800F090A3C9120A6A90000A1208A8FF90A377
:10216800D0E0FE04F074D12EF582E434A3F583EFB9
:10217800F090A3CCE0FEA3E0EEFF90A3D0E0FE0435
:10218800F074D12EF582E434A3F583EFF090A3CC5C
:10219800E0A3E0FF90A3D0E0FE04F074D12EF58216
:1021A800E434A3F583EFF07B017AA379D190A3D02F
:1021B800E0FD7C001229D590A3CEEEF0A3EFF090BD
:1021C800A3CEE0FEA3E0EEFFA3E0FE04F074D12E60
:1021D800F582E434A3F583EFF090A3CEE0A3E0FF0B
:1021E800A3E0FE04F074D12EF582E434A3F583EF66
:1021F800F07B017AA379D190A3D0E0FD122B97222E
:10220800C0E0C0F0C083C082C0D075D000C000C09C
:1022180001C002C003C004C005C006C007C2AF7534
:102228008CBC758ACD90A8ECE475F00112087C90FE
:10223800A8ECE0FEA3E0D394E8EE9403401890A83D
:10224800ECE4F0A3F0A375F00112087C90A8EAE48E
:1022580075F00112087C43C90190A8F9120A15E427
:102268007B01FAF9F81208FF90A8F9120A2D90A834
:10227800F0E475F00112087C90A8F2120A15E4F84F
:102288001208FF90A8F2120A2D90A8F7E0FEA3E02A
:10229800FFE4FCFD7BDC7AFFF8D31209DA400A90F0
:1022A800A8F7E475F00112087C0509E50970020534
:1022B80008AF0DAE0CAD0BAC0AE47B01FAF9F812CD
:1022C80008FF8F0D8E0C8D0B8C0AE47B6412094875
:1022D800AC00AD01AE02AF03E4FBFAF9F8C3120992
:1022E800F0700790A8F6E04402F090A8F6E04401E8
:1022F800F0D2AFD007D006D005D004D003D002D09A
:1023080001D000D0D0D082D083D0F0D0E03290A3DA
:10231800D2EFF0A3EDF0A3EBF090A3D2E024D0FF2E
:10232800E4340790A8DFF0A3EFF090A8DFE0FEA365
:10233800E0FF7C007D6412082790A8E9EFF090A8E0
:10234800DFE0FEA3E0FF7C007D6412082790A8CFA1
:10235800EDF090A8E9E0D39413748094804007903E
:10236800A8CFE02464F090A8CFE0FF1313543FFFF8
:10237800E02FFFE43390A3D5F0A3EFF090A3D5E0CE
:10238800FEA3E0FF7C007D0712082790A3D5ECF0A0
:10239800A3EDF090A3D4E0FFA3E0FCA3E0FDEF2DB4
:1023A800FFE43CFE90A3D3E0903243937C002FFFE0
:1023B800EC3E90A3D5F0A3EFF090A8CFE0540370C3
:1023C8001790A3D3E0C3940374809480500A90A319
:1023D800D574FFF5F012087C90A3D5E0FEA3E0FFCA
:1023E8007C007D0712082790A3D5ECF0A3EDF090B0
:1023F800A3D5E0FEA3E04E70037F062290A3D5E0AC
:10240800A3E014FF227B017AA379CC90A5CFE4F056
:10241800A37404F07F087E5012118A90A3CEE0FEC8
:10242800A3E0FF90A3CCE0FCA3E06F7002EC6E7019
:10243800030224EA7B017AA379CE90A5CFE4F0A326
:102448007402F07F097E501213F790A3CCE0FEA32C
:10245800E0FF90A90DE0FCA3E02FFFEC3E90A3D095
:10246800F0A3EFF090A3D0E0FEA3E0C394FEEE94B7
:1024780007400B90A3D074F875F00212087C7B011A
:102488007AA379D090A5CFE4F0A37402F07F007E00
:10249800031213F77B017AA379D090A5CFE4F0A3B8
:1024A8007402F0FF7E031213F790A3CCE0FEA3E0C2
:1024B8007802CEC313CE13D8F9FF90A3CCEEF0A3C5
:1024C800EFF090A3CCE475F08F12087C7B017AA31F
:1024D80079CC90A5CFE4F0A37402F07F117E50125E
:1024E80013F72290A3D2120A8A122EE97F64122CC3
:1024F800F27F30122CF2E4FF122CF2122F65122E0A
:10250800E97F64122CF27F1C122CF27F48122CF205
:10251800E4FF122CF27F40122CF27F10122CF212E0
:102528002F65122EE97F64122CF27F10122CF29084
:10253800A3D2120A6A9000061207C6FF122CF29064
:10254800A3D2120A6A9000051207C6FF122CF29055
:10255800A3D2120A6A9000041207C6FF122CF29046
:10256800A3D2120A6A9000031207C6FF122CF29037
:10257800A3D2120A6A9000021207C6FF122CF29028
:10258800A3D2120A6A9000011207C6FF122CF29019
:10259800A3D2120A6A1207ADFF122CF2122F65128B
:1025A8002EE97F64122CF27F1E122CF2E4FF122C0B
:1025B800F27F10122CF2122F652290A3D3120A8AEE
:1025C800E490A3DEF0A3F0A3F0A3F090A3DCE0FE78
:1025D800A3E0C39407EE940050037F022290A3D394
:1025E800120A6A1207AD645A60037F032290A3D3CC
:1025F800120A6A9000011207C664A560037F0322CD
:1026080090A3D3120A6A9000021207C62403FFE4BB
:102618003390A3DEF0A3EFF090A3DCE0FEA3E0FF8D
:10262800A3E0FCA3E0D39FEC9E5063E4A3F0A3F0E7
:1026380090A3DEE0FEA3E0FFA3E0FCA3E0C39FECD1
:102648009E503490A3D3120A6A1207ADFF90A3D606
:10265800120A6A90A3E0E0A3E0F5828C83EF1208E7
:102668000590A3D4E475F00112087C90A3E0E4750A
:10267800F00112087C80B990A3DEE0FEA3E0FF9091
:10268800A3D9120A6AEE8FF01208E07F01227F02B6
:1026980022122EE97F64122CF27F1D122CF2122FC7
:1026A80065122EE97F65122CF2122C4A90A3C4EF12
:1026B800F0122F04122C4A122F1D122F6590A3C45A
:1026C800E0540264026003022758122EE97F641264
:1026D8002CF27F30122CF2E4FF122CF2122F65122A
:1026E8002EE97F64122CF27F1C122CF27F48122CE8
:1026F800F2E4FF122CF27F40122CF27F10122CF21F
:10270800122F65122EE97F64122CF27F10122CF220
:10271800E4FF122CF2E4FF122CF2E4FF122CF27FF9
:1027280001122CF27F01122CF27F01122CF27F177A
:10273800122CF2122F65122EE97F64122CF27F1EE2
:10274800122CF2E4FF122CF27F10122CF2122F65D9
:1027580022E490A3D3F0A3F090A1BFE0FEA3E0FD94
:10276800EEEDFF90A3D3EEF0A3EFF090A1BEE064EE
:1027780082704390A3D3E0FEA3E0FF7B017AA179A6
:10278800C190A1BDE024FDFDE434FF90A5CFF0A3E6
:10279800EDF01213F790A1BD7403F090A1BF744F30
:1027A800F0A3744BF07B017AA179BB90A1BDE02422
:1027B80003FD122B3D2290A1BEE06483704590A3D7
:1027C800D3E0FEA3E0FFC006C0077B017AA179C26F
:1027D80090A1C1E075F002A4FF90A5CFE5F0F0A3A9
:1027E800EFF0D007D00612118A90A1C1E025E0FFD2
:1027F80090A1BDE02FF07B017AA179BBE02403FD15
:10280800122B3D227BFF7A32793278C47CA37D017A
:102818007E007F10120787E490A3D4F0A3F0A3F002
:10282800A3F0A3F0A3F090A3C1E0FEA3E0FDEEEDBA
:10283800FF90A3D8EEF0A3EFF090A1BB745AF0A3D9
:1028480074A5F090A3C3E025E0240490A1BDF0A3F3
:102858007483F090A3C1E090A1BFF090A3C2E09070
:10286800A1C0F090A3C3E090A1C1F090A3D8E0FE6E
:10287800A3E0FFC006C0077B017AA179C290A3C379
:10288800E075F002A4FF90A5CFE5F0F0A3EFF0D03B
:1028980007D00612118A7B017AA179BB90A1BDE00D
:1028A8002403FD122B3D22759401759502758E0047
:1028B80075930075C87075C96075F800787FE4F67F
:1028C800D8FD75810D02290B022D91E493A3F8E43C
:1028D80093A34003F68001F208DFF48029E493A370
:1028E800F85407240CC8C333C4540F4420C8834089
:1028F80004F456800146F6DFE4800B010204081058
:10290800204080900100E47E019360BCA3FF543F07
:1029180030E509541FFEE493A360010ECF54C0258F
:10292800E060A840B8E493A3FAE493A3F8E493A37F
:10293800C8C582C8CAC583CAF0A3C8C582C8CAC5E3
:1029480083CADFE9DEE780BE90A5CAEFF0A3ECF00A
:10295800A3EDF0E4F5F1F5F275F30475F40175F8FB
:102968008F30FCFD90A5CAE0F5FA90A5CD120A15A6
:102978007810120A018FFB90A5CD120A157808125B
:102988000A018FFC90A5CD120A15EF54FEFFE48FC3
:10299800FDD2FE20FEFD90A5CBE0FEA3E0EEF5FA09
:1029A80090A5CBE0A3E054FEF5FB90A5D1E0FEA3F3
:1029B800E0EEF5FC90A5D1E0A3E054FEF5FDD2FED3
:1029C80020FEFDE4F5F87F04FE122BF12290A3E52A
:1029D800120A8A90A3E8ECF0A3EDF0A374FFF0A329
:1029E800F090A3E874FFF5F012089245F0604D905E
:1029F800A3E5E475F001120A731207ADFF90A3EA8C
:102A0800E06FFF90A3ECE4F0A3EFF090A3ECE0FEFE
:102A1800A3E024D9F58274A53EF583E0FF90A3EBEB
:102A2800E06F90A3EAF090A3ECE0A3E024D9F5824C
:102A380074A63EF583E090A3EBF080A590A3EAE0AE
:102A4800FEA3E0FDEEEDFF22C0E0C0F0C083C0822F
:102A5800C0D075D000C000C004C006C00790A5D57E
:102A6800E4F0C2AF309839E599F0E0FF908082E059
:102A7800FCA3E02488F58274803CF583EFF0908015
:102A880082E475F00112087C908082E0FEA3E0C326
:102A980094A0EE941F4007908082E4F0A3F0C298BF
:102AA800309907C299908080E4F0D2AFD007D00661
:102AB800D004D000D0D0D082D083D0F0D0E032C0C3
:102AC800E0C0F0C083C082C0D075D000C000C00490
:102AD800C006C00790A5D8E4F0C2AFE5AB540164C6
:102AE80001703AE5ADF0E0FF908086E0FCA3E024B9
:102AF80000F58274803CF583EFF0908086E475F0F1
:102B08000112087C53ABFE908086E0FEA3E0C394DC
:102B180080EE94004007908086E4F0A3F043C9015A
:102B2800D2AFD007D006D004D000D0D0D082D08386
:102B3800D0F0D0E03290A3DA120A8A90A3DDEDF04B
:102B48007B007A007900C003C002C00190A3DA12AA
:102B58000A6AD082D083D0E06B7008E9658270037E
:102B6800EA6583602990A3DDE0602390A3DDE0FFA0
:102B780014F0EF601990A3DA120A6A1207ADFF1277
:102B88002F4E90A3DBE475F00112087C80DD2290C3
:102B9800A3E5120A8A90A3E8EDF07B007A00790099
:102BA800C003C002C00190A3E5120A6AD082D08394
:102BB800D0E06B7008E965827003EA65836029904C
:102BC800A3E8E0602390A3E8E0FF14F0EF60199019
:102BD800A3E5120A6A1207ADFF122F9090A3E6E44C
:102BE80075F00112087C80DD2290A5D3EEF0A3EFEA
:102BF800F0E4F5F190A5D3E0FEA3E0EEF5F290A5A0
:102C0800D3E0A3E0F5F3E4F5F4E490A5D3F0A3F062
:102C180090A5D3E0FEA3E0C394E8EE9403500F859B
:102C2800FCFB90A5D3E475F00112087C80E275F8EE
:102C3800AF30FCFDD2FE20FEFDE4F5F8AFFAEF70F0
:102C4800C822120056E490A3D1F090A3D1E0FF333C
:102C580095E0FEC3EF9408EE6480948050337F05BE
:102C6800122E53D2B27F05122E5390A3D2E0FF2525
:102C7800E0F030B306E04401F0800790A3D2E054BE
:102C8800FEF0C2B27F05122E5390A3D1E004F0806B
:102C9800B990A3D2E0FF22C0E0C083C082C0D07543
:102CA800D000C00790A5D7E4F0C2AFE597540164FF
:102CB80001702790A889E0C39440748094805017CD
:102CC800E0FF04F0748B2FF582E434A8F583E59FC8
:102CD800F090A7E07401F05397FE43C901D2AFD03A
:102CE80007D0D0D082D083D0E03290A3D5EFF012B5
:102CF800005EE4A3F090A3D6E0FF3395E0FEC3EFB7
:102D08009408EE64809480503090A3D5E030E704B6
:102D1800D2B38002C2B390A3D5E0FF25E0F07F05CF
:102D2800122E53D2B27F05122E53C2B27F05122E35
:102D38005390A3D6E004F080BC122E15227BFF7AB4
:102D480032792A78C47CA37D017E007F041207872C
:102D58007B017AA379C090A5CFE4F0A37404F07F37
:102D6800007E0F12118A90A3C0E0645A70187B018C
:102D78007AA379C490A5CFF0A37404F07F007E0FE6
:102D88001213F77F01227F002212006E1226991279
:102D98002FBF12188D43C901C3E50994F4E50894BF
:102DA800014008121C28E4F508F509121A781200E7
:102DB80016121EB9122ECB12166390A8F6E030E058
:102DC800D4E054FEF0E054FDF080CA2290A3D31260
:102DD8000A8A90A3D6ECF0A3EDF0E490A3DBF0A36D
:102DE800F090A3D6E0FEA3E0FF90A3D3120A6AC036
:102DF80003C002C00190A3D8120A6AA801AC02ADB0
:102E080003D001D002D0031207877F012212005697
:102E1800D2B37F05122E53D2B27F05122E53E490FF
:102E2800A3D7F090A3D7E0C3943274809480501055
:102E380030B30D7F05122E5390A3D7E004F080E342
:102E4800C2B27F05122E5312005E2290A3D8EFF073
:102E580090A3D8E06026E4A3F090A3D9E0FF3395CF
:102E6800E0FEC3EF9432EE648094805007E0F0E017
:102E780004F080E590A3D8E014F080D422E490A870
:102E880089F090A7E0F0FE7F40FD7B017AA8798B5E
:102E9800120AE6E490A7DBF090A8CB120A390000EA
:102EA80000002275F901E4F5A8F5B8F59AF5A9F539
:102EB800B9F580F590F5A0F5B075B750F5BCF5BD3E
:102EC800F5BE2290A8F6E030E0167B017AA9790FCA
:102ED80090A5CFE4F0A37402F07F147E0012118A4B
:102EE8002212005ED2B3D2B27F0F122E53C2B37F2A
:102EF8000F122E53C2B27F0F122E532212005EC23F
:102F0800B37F05122E53D2B27F05122E53C2B27F61
:102F180005122E532212005ED2B37F05122E53D211
:102F2800B27F05122E53C2B27F05122E532275F9B5
:102F38000175B70375BC03E4F5BD75BE0CF580F5E6
:102F480090F5A0F5B02290A3DEEFF0908080E064C9
:102F58000160F87401F090A3DEE0F5992212005E9A
:102F6800C2B3D2B27F0F122E53D2B37F0F122E5399
:102F78001200562275C870E4F5CDF5CC75CBFF75F7
:102F8800CAEF43A820D2C82290A3E9EFF0E0F59E4B
:102F9800E596540160FA5396FE22759680759780DF
:102FA800E4F5D975E7E0D2BB22438901758CBC757D
:102FB8008ACDD2A9D28C22122E8590A7DC120A398A
:102FC800000000002212002E122FA222122FB1128E
:102FD8002F7C22000000000000000000000000001C
:102FE80000000000000000000000000000000000D9
:102FF80000000000000000000000000000000000C9
:1030080000000000000000000000000000000000B8
:1030180000000000000000000000000000000000A8
:103028000000000000000000000000000000000098
:103038000000000000000000000000000000000088
:103048000000000000000000000000000000000078
:103058000000000000000000000000000000000068
:103068000000000000000000000000000000000058
:103078000000000000000000000000000000000048
:103088000000000000000000000000000000000038
:103098000000000000000000000000000000000028
:1030A8000000000000000000000000000000000018
:1030B8000000000000000000000000000000000008
:1030C80000000000000000000000000000000000F8
:1030D80000000000000000000000000000000000E8
:1030E80000000000000000000000000000000000D8
:1030F80000000000000000000000000000000000C8
:1031080000000000000000000000000000000000B7
:1031180000000000000000000000000000000000A7
:103128000000000000000000000000000000000097
:103138000000000000000000000000000000000087
:103148000000000000000000000000000000000077
:103158000000000000000000000000000000000067
:103168000000000000000000000000000000000057
:103178000000000000000000000000000000000047
:103188000000000000000000000000000000000037
:103198000000000000000000000000000000000027
:1031A8000000000000000000000000000000000017
:1031B8000000000000000000000000000000000007
:1031C80000000000000000000000000000000000F7
:1031D8000000005561727432496E697420446F6E44
:1031E80065212121313233005561727433496E698A
:1031F8007420446F6E652121210055617274344931
:103208006E697420446F6E652121210055617274C6
:1032180035496E697420446F6E65212121000000D4
:103228000000000000005A0100000000000000003B
:10323800000000000000000000000000000303067A
:08324800010406020500030564
:00000001FF
