:10000000024ACF020006C2AFD2AF320242FBC2AFF9
:10001000D2AF3202000E12532012530C2212002EC5
:0A002000223232024EE612525A223A
:10002B0002005E75F901E4F5A8F5B8F59AF5A9F5A6
:10003B00B9F580F590F5A0F5B075B750F5BCF5BDE9
:07004B00F5BE2253BEF722AF
:0700530002002143BE082258
:06005B00024D94C2C63202
:0300630002002276
:10006B00024E0AC2AF12001D1252C6120026120017
:07007B001643C902D2AF22B7
:10008300024C0E909790EBF0A3EAF0A3E9F0E49012
:100093009798F0A3F090979674FFF5F0121D5945C9
:1000A300F0603C909793E0FBA3E0FAA3E0F9121C05
:1000B30084FF909790E0FBA3E0FAA3E0F990979870
:1000C300E475F001121D5985F082F583EF1221BA10
:1000D300EF60C2909794E475F001121D4380B690CF
:0B00E3009790E0FBA3E0FAA3E0F922F5
:1000F800FFFF4457494E5435429DDF0000429DDDC5
:100108000000429DDB00005A9CF53FC9006900646D
:10011800000086000A2D2D203A3A00000000000059
:10012800000000005A9D0F3FCC01270064000086A4
:10013800000A2D2D2F3A3A000000000000000000B0
:10014800005A9D983FD001E50064000001E5006475
:1001580002AD007D00100017181802000000603C76
:100168009D5C400040A04140401040B041504020BC
:1001780040C04160403040D04170404040E0418044
:10018800405040F041904060410041A04070411013
:1001980041B04080412041C04090413041D0549D01
:1001A8004841E041F84210422842404258427042D9
:1001B8008842A042B8489D390000000000000000B5
:1001C800429D410000429D460000429D430000417F
:1001D8009D4500498000B2E2CAD4BABAD7D6006EAB
:1001E80060800949443030BBD8B7E7B8DFCEC200D9
:1001F80000000000000000000000000000000000F7
:1002080000000049443031BBD8B7E7B5CDCEC200B5
:1002180000000000000000000000000000000000D6
:1002280000000049443032BBD8B7E7B8DFCAAA009B
:1002380000000000000000000000000000000000B6
:1002480000000049443033BBD8B7E7B8DFCAAA007A
:100258000000000000000000000000000000000096
:1002680000000049443034CBCDB7E7B8DFCEC20038
:100278000000000000000000000000000000000076
:1002880000000049443035CBCDB7E7B5CDCEC2002C
:100298000000000000000000000000000000000056
:1002A80000000049443036CBCDB7E7B8DFCAAA0012
:1002B8000000000000000000000000000000000036
:1002C80000000049443037CBCDB7E7B5CDCAAA0006
:1002D8000000000000000000000000000000000016
:1002E80000000049443038B1A3C1F4000000000008
:1002F80000000000000000000000000000000000F6
:1003080000000049443039C4DAB2BFCDA8D0C500D6
:1003180000000000000000000000000000000000D5
:10032800000000494431304E5443D2ECB3A30000DE
:1003380000000000000000000000000000000000B5
:1003480000000049443131B7E7BBFA31B9CAD5CF0B
:100358000000000000000000000000000000000095
:1003680000000049443132B7E7BBFA32B9CAD5CFE9
:100378000000000000000000000000000000000075
:1003880000000049443133B7E7BBFA33B9CAD5CFC7
:100398000000000000000000000000000000000055
:1003A80000000049443134B7E7BBFA34B9CAD5CFA5
:1003B8000000000000000000000000000000000035
:1003C80000000049443135B7E7BBFA35B9CAD5CF83
:1003D8000000000000000000000000000000000015
:1003E80000000049443136CDE2B7E7BBFAB9CAD5B7
:1003F800CF00000000000000000000000000000026
:1004080000000049443137B7E7BBFA31D4CBD0D02C
:10041800B3ACCAB1000000000000000000000000FA
:1004280000000049443138B7E7BBFA32D4CBD0D00A
:10043800B3ACCAB1000000000000000000000000DA
:1004480000000049443139B7E7BBFA33D4CBD0D0E8
:10045800B3ACCAB1000000000000000000000000BA
:1004680000000049443230B7E7BBFA34D4CBD0D0CF
:10047800B3ACCAB10000000000000000000000009A
:1004880000000049443231B7E7BBFA35D4CBD0D0AD
:10049800B3ACCAB10000000000000000000000007A
:1004A80000000049443232CDE2B7E7BBFAD4CBD0E2
:1004B800D0B3ACCAB100000000000000000000008A
:1004C80000000049443233B8DFD1B931B8E6BEAFD5
:1004D8000000000000000000000000000000000014
:1004E80000000049443234B8DFD1B931CBF8CBC071
:1004F80000000000000000000000000000000000F4
:1005080000000049443235B5CDD1B931B8E6BEAFA7
:1005180000000000000000000000000000000000D3
:1005280000000049443236B5CDD1B931CBF8CBC043
:1005380000000000000000000000000000000000B3
:1005480000000049443237C5C5C6F8CEC2B6C83126
:10055800B8E6BEAF00000000000000000000000088
:1005680000000049443238C5C5C6F8CEC2B6C83105
:10057800CBF8CBC000000000000000000000000025
:1005880000000049443239B6CCD6DCC6DA31B8E6C8
:10059800BEAF0000000000000000000000000000E6
:1005A80000000049443330D1B9BBFA31D4CBD0D0A4
:1005B800B3ACCAB100000000000000000000000059
:1005C80000000049443331B8DFD1B932B8E6BEAFD4
:1005D8000000000000000000000000000000000013
:1005E80000000049443332B8DFD1B932CBF8CBC070
:1005F80000000000000000000000000000000000F3
:1006080000000049443333B5CDD1B9D1B9C1A6B83A
:10061800E6BEAF000000000000000000000000007F
:1006280000000049443334B5CDD1B932CBF8CBC042
:1006380000000000000000000000000000000000B2
:1006480000000049443335C5C5C6F8CEC2B6C83225
:10065800B8E6BEAF00000000000000000000000087
:1006680000000049443336C5C5C6F8CEC2B6C83204
:10067800CBF8CBC000000000000000000000000024
:1006880000000049443337B6CCD6DCC6DA32B8E6C7
:10069800BEAF0000000000000000000000000000E5
:1006A80000000049443338D1B9BBFA32D4CBD0D09A
:1006B800B3ACCAB100000000000000000000000058
:1006C80000000049443339BCD3CAAAC6F7B5E7C10C
:1006D800F7B9B4F3000000000000000000000000BB
:1006E80000000049443430BCD3CAAAC6F7B8DFCBEF
:1006F800AECEBB00000000000000000000000000BB
:1007080000000049443431BCD3CAAAC6F7C8B1CBEB
:10071800AE00000000000000000000000000000023
:1007280000000049443432BCD3CAAAC6F7D4CBD09F
:10073800D0B3ACCAB1000000000000000000000007
:1007480000000049443433BCD3C8C8C6F7B8E6BE75
:10075800AF000000000000000000000000000000E2
:1007680000000049443434BCD3C8C8C6F731B3AC20
:10077800CAB10000000000000000000000000000F6
:1007880000000049443435BCD3C8C8C6F732B3ACFE
:10079800CAB10000000000000000000000000000D6
:1007A80000000049443436B6CFB5E7D6D8C6F400C1
:1007B8000000000000000000000000000000000031
:1007C80000000049443437B5E7D4B4CFE0D0F2B4E0
:1007D800EDCEF30000000000000000000000000063
:1007E80000000049443438B5E7D4B4C6B5C2CAC617
:1007F800ABB8DF00000000000000000000000000AF
:1008080000000049443439B5E7D4B4C6B5C2CAC6F5
:10081800ABB5CD00000000000000000000000000A3
:100828000000004944353041CFE0B9D1B90000009B
:1008380000000000000000000000000000000000B0
:100848000000004944353142CFE0B9D1B900000079
:100858000000000000000000000000000000000090
:100868000000004944353243CFE0B9D1B900000057
:100878000000000000000000000000000000000070
:100888000000004944353341CFE0C7B7D1B9000073
:100898000000000000000000000000000000000050
:1008A8000000004944353442CFE0C7B7D1B9000051
:1008B8000000000000000000000000000000000030
:1008C8000000004944353543CFE0C7B7D1B900002F
:1008D8000000000000000000000000000000000010
:1008E8000000004944353641CFE0C8B1CFE00000F0
:1008F80000000000000000000000000000000000F0
:100908000000004944353742CFE0C8B1CFE00000CD
:1009180000000000000000000000000000000000CF
:100928000000004944353843CFE0C8B1CFE00000AB
:1009380000000000000000000000000000000000AF
:1009480000000049443539C6F8C1F7B6AACAA7B8A5
:10095800E6BEAF000000000000000000000000003C
:1009680000000049443630B9C2CBCDF8D4CBD0D042
:10097800B3ACCAB100000000000000000000000095
:1009880000000049443631B9C2CBCDF8B6C2B8E64A
:10099800BEAF0000000000000000000000000000E2
:1009A80000000049443632D4B6B3CCB9D8BBFAB843
:1009B800E6BEAF00000000000000000000000000DC
:1009C80000000049443633D2E7CBAEB8E6BEAF00EC
:1009D800000000000000000000000000000000000F
:1009E80000000049443634C8BABFD8CDA8D0C5D213
:1009F800ECB3A300000000000000000000000000AD
:100A080000000049443635B1E4C6B5C6F7B9CAD5C1
:100A1800CF000000000000000000000000000000FF
:100A280000000049443636D7A2CBAEB5E7B5BCC204
:100A3800CAB8DF000000000000000000000000004D
:100A480000000049443637D7A2CBAEB5E7B5BCC2E3
:100A5800CAB5CD0000000000000000000000000042
:100A680000000049443638D1CCCEEDB8E6BEAF0020
:100A7800000000000000000000000000000000006E
:100A880000000049443639D3C3BBA7D7D4B6A8D28F
:100A9800E5B8E6BEAF00000000000000000000005E
:100AA80000000049443730B5E7D4B4D2ECB3A30012
:100AB800000000000000000000000000000000002E
:100AC80000000049443731C8EBCBAEB8DFCEC200D6
:100AD800000000000000000000000000000000000E
:100AE80000000049443732CBAEB7A7B9CAD5CF000A
:100AF80000000000000000000000000000000000EE
:100B080000000049443733C5CCB9DCB6CFC1F7B8CB
:100B1800E6BEAF000000000000000000000000007A
:100B280000000049443734B7E7BBFA36B9CAD5CF15
:100B380000000000000000000000000000000000AD
:100B480000000049443735B7E7BBFA37B9CAD5CFF3
:100B5800000000000000000000000000000000008D
:100B680000000049443736B7E7BBFA38B9CAD5CFD1
:100B7800000000000000000000000000000000006D
:100B880000000049443737B7E7BBFA36B3ACCAB1FF
:100B9800000000000000000000000000000000004D
:100BA80000000049443738B7E7BBFA37B3ACCAB1DD
:100BB800000000000000000000000000000000002D
:100BC80000000049443739B7E7BBFA38B3ACCAB1BB
:100BD800000000000000000000000000000000000D
:100BE80000000049443830C5C5CBAEB8DFCBAECE27
:100BF800BB00000000000000000000000000000032
:100C080000000049443831BCD3CAAAC6F7D2ECB3B5
:100C1800A300000000000000000000000000000029
:100C280000000049443832B7E7D1B9B9B5CD000062
:100C380000000000000000000000000000000000AC
:100C480000000049443833BAECCDE2BCD3CAAAB993
:100C5800C8C80000000000000000000000000000FC
:100C680000000049443834D1B9BBFA31B8DFD1B9F2
:100C7800000000000000000000000000000000006C
:100C880000000049443835B7E7BBFAB5E7C1F7B902
:100C9800B4F30000000000000000000000000000A5
:100CA80000000049443836B8A8C2B7C8EBCBAEB884
:100CB800DFCEC200000000000000000000000000BD
:100CC80000000049443837454556B8E6BEAF000035
:100CD800000000000000000000000000000000000C
:100CE80000000049443838BDD3CBAEC5CCD2E7CBE1
:100CF800AE0000000000000000000000000000003E
:100D080000000049443839C5C5C6F8B8DFCEC2006E
:100D180000000000000000000000000000000000CB
:100D280000000049443930C9E8B1B8CAB9D3C3B3DF
:100D3800ACCAB10000000000000000000000000084
:100D480000000049443931B1A3C1F400000000009B
:100D5800000000000000000000000000000000008B
:100D680000000049443932B1A3C1F400000000007A
:100D7800000000000000000000000000000000006B
:100D880000000049443933B1A3C1F4000000000059
:100D9800000000000000000000000000000000004B
:100DA80000000049443934B1A3C1F4000000000038
:100DB800000000000000000000000000000000002B
:100DC80000000049443935B1A3C1F4000000000017
:100DD800000000000000000000000000000000000B
:100DE80000000049443936B1A3C1F40000000000F6
:100DF80000000000000000000000000000000000EB
:100E080000000049443937BBD8B7E7CEC2CAAAB6F2
:100E1800C8B4ABB8D0C6F70000000000000000005E
:100E280000000049443938CBCDB7E7CEC2CAAAB6CC
:100E3800C8B4ABB8D0C6F70000000000000000003E
:100E480000000049443939BCD3CAAAB0E5D2ECB392
:100E5800A3000000000000000000000000000000E7
:100E68000000004944313030C6C1C4BBD2D1CBF8F0
:100E7800B6A800000000000000000000000000000C
:100E88000000004944313031D2BBCCECBDABCBF8CB
:100E9800B6A80000000000000000000000000000EC
:100EA8000000004944313032C8CCECBDABCBF8B6B9
:100EB800A800000000000000000000000000000082
:100EC8000000004944313033C6DFCCECBDABCBF871
:100ED800B6A80000000000000000000000000000AC
:100EE8000000004944313034CAAECEE5CCECBDAB8D
:100EF800CBF8B6A8000000000000000000000000C9
:100F08000000004944313035C8CAAECCECBDABCB8B
:100F1800F8B6A80000000000000000000000000073
:100F28000000004944313036B5E7D4B432CFE0D0C0
:100F3800F2B4ED0000000000000000000000000016
:100F48000000004944313037B5E7D4B432C6B5C2E1
:100F5800CAB8DF0000000000000000000000000028
:100F68000000004944313038B5E7D4B432C6B5C2C0
:100F7800CAB5CD000000000000000000000000001D
:100F88000000004944313039B5E7D4B43241CFE0EC
:100F9800B9D1B90000000000000000000000000006
:100FA8000000004944313130B5E7D4B43242CFE0D3
:100FB800B9D1B900000000000000000000000000E6
:100FC8000000004944313131B5E7D4B43243CFE0B1
:100FD800B9D1B900000000000000000000000000C6
:100FE8000000004944313132B5E7D4B43241CFE092
:100FF800C7B7D1B9000000000000000000000000E1
:101008000000004944313133B5E7D4B43242CFE06F
:10101800C7B7D1B9000000000000000000000000C0
:101028000000004944313134B5E7D4B43243CFE04D
:10103800C7B7D1B9000000000000000000000000A0
:10104800000000419BED00419BEE00429BEF000039
:10105800429BF10000429BF30000479DB200000054
:1010680000000000489DC10000000000000000488A
:101078009DB90000000000000000429DCB00004226
:101088009DCD0000429DC90000449DD7000000008E
:10109800429DCF0000449DD10000000002080000DE
:1010A800040B00000000429DD50000010A00610009
:1010B800996D00C1814001C0804101C0804100C1DB
:1010C800814001C0804100C1814000C1814001C010
:1010D800804101C0804100C1814000C1814001C000
:1010E800804100C1814001C0804101C0804100C1F0
:1010F800814001C0804100C1814000C1814001C0E0
:10110800804100C1814001C0804101C0804100C1CF
:10111800814000C1814001C0804101C0804100C1BF
:10112800814001C0804100C1814000C1814001C0AF
:10113800804101C0804100C1814000C1814001C09F
:10114800804100C1814001C0804101C0804100C18F
:10115800814000C1814001C0804101C0804100C17F
:10116800814001C0804100C1814000C1814001C06F
:10117800804100C1814001C0804101C0804100C15F
:10118800814001C0804100C1814000C1814001C04F
:10119800804101C0804100C1814000C1814001C03F
:1011A800804100C1814001C0804101C0804100C12F
:1011B800814061009A6D00C0C101C30302C2C60626
:1011C80007C705C5C404CC0C0DCD0FCFCE0E0ACA77
:1011D800CB0BC90908C8D81819D91BDBDA1A1EDEC7
:1011E800DF1FDD1D1CDC14D4D515D71716D6D21277
:1011F80013D311D1D010F03031F133F3F23236F687
:10120800F737F53534F43CFCFD3DFF3F3EFEFA3A36
:101218003BFB39F9F83828E8E929EB2B2AEAEE2EC6
:101228002FEF2DEDEC2CE42425E527E7E62622E236
:10123800E323E12120E0A06061A163A3A26266A686
:10124800A767A56564A46CACAD6DAF6F6EAEAA6AF6
:101258006BAB69A9A86878B8B979BB7B7ABABE7E46
:101268007FBF7DBDBC7CB47475B577B7B67672B2F6
:10127800B373B17170B05090915193535292965686
:101288005797559594549C5C5D9D5F9F9E5E5A9AB6
:101298009B5B99595898884849894B8B8A4A4E8E46
:1012A8008F4F8D4D4C8C44848545874746868242B6
:1012B80043834181804041971300419090004497B7
:1012C800540000000041908B0044908C0000000006
:1012D8006674909F5A010303C8010000A020031CF4
:1012E80000FF5A010301C8010000A023031900FFF1
:1012F8005A010601C803A084A024010000005A0175
:101308000301C8010000A025010400FF5A010303DE
:10131800C8010000A0A0011A00FF5A010302C80179
:101328000000A0A3031000FF5A010302C801000A2D
:10133800AA00032600FF5A010308C801000AAA02EE
:10134800034100FF5A010301C801000AAA0A036FFA
:1013580000FF5A010301C801000AAA0B037700FF26
:101368005A010306C801000DAEA0032000FF5A0170
:101378000307C803B300B320011A00135A0106017A
:10138800C803B380B320011A00135A010601C80329
:10139800B382B322011C00135A010601C803B383A8
:1013A800B323011D00135A010601C803B384B324F3
:1013B800011E00135A010601C803B385B325011F96
:1013C80000135A010601C803B386B326012000138F
:1013D8005A01030BC803B400B420015800145A0181
:1013E8000601C803B480B420015800145A0106014C
:1013F800C803B481B421015900145A010601C80375
:10140800B483B423015B00145A010601C803B484F1
:10141800B424015C00145A010601C803B485B4253C
:10142800015D00145A010601C803B486B426015EA2
:1014380000145A010601C803B487B427015F0014D9
:101448005A010601C803B488B428016000145A017F
:101458000601C803B48AB42A016200145A010306BB
:10146800C803B700B720013B00175A010305C8039A
:10147800B700B726014300175A010601C803B78011
:10148800B720013B00175A010601C803B784B724E7
:10149800013F00175A010601C803B785B725014067
:1014A80000175A010601C803B786B726014300177B
:1014B8005A010601C803B787B727014400175A0124
:1014C8000601C803B788B728014500175A01060165
:1014D800C803B789B729014600175A010601C8038E
:1014E800B78AB72A014700175A010301C803B80091
:1014F800B820016A00185A010303C803B800B821CC
:10150800016D00185A010301C803B800B82401721C
:1015180000185A010301C803B800B825017400185F
:101528005A010301C803B800B826017B00185A0104
:101538000301C803B800B827022A00185A01060197
:10154800C803B880B820016A00185A010601C80308
:10155800B881B821016D00185A010601C803B88284
:10156800B822016E00185A010601C803B883B823CF
:10157800016F00185A010601C803B884B824017223
:1015880000185A010601C803B885B8250174001867
:101598005A010601C803B886B826017B00185A010B
:1015A8000601C803B887B827022A00185A010301A0
:1015B800C803BB00BB2001B0001B5A010302C803CB
:1015C800BB00BB2101B2001B5A010301C803BB00C9
:1015D800BB2301B5001B5A010302C803BB00BB248F
:1015E80001D1001B5A010302C803BB00BB260271CC
:1015F800001B5A010302C803BB00BB280276001B6C
:101608005A010301C803BB00BB2A0286001B5A010A
:101618000601C803BB80BB2001B0001B5A010601AC
:10162800C803BB81BB2101B2001B5A010601C803D4
:10163800BB82BB2201B3001B5A010601C803BB834E
:10164800BB2301B5001B5A010601C803BB84BB2498
:1016580001D1001B5A010601C803BB85BB2501D275
:10166800001B5A010601C803BB86BB260271001B7A
:101678005A010601C803BB87BB270272001B5A0127
:101688000601C803BB88BB280276001B5A01060165
:10169800C803BB89BB290277001B5A010601C8038E
:1016A800BB8ABB2A0286001B5A010302C803BC007E
:1016B800BC200232001C5A010301C803BC00BC2232
:1016C8000252001C5A010301C803BC00BC23025586
:1016D800001C5A010301C803BC00BC240258001CAA
:1016E8005A010301C803BC00BC250261001C5A0151
:1016F8000601C803BC80BC200232001C5A01060146
:10170800C803BC81BC210233001C5A010601C8036E
:10171800BC82BC220252001C5A010601C803BC83C9
:10172800BC230255001C5A010601C803BC84BC2412
:101738000258001C5A010601C803BC85BC25026179
:10174800001C5A010302C803BF00BF200102001F8A
:101758005A010301C803BF00BF220107001F5A0135
:101768000301C803BF00BF2301A5001F5A010601DA
:10177800C803BF80BF200102001F5A010601C80329
:10178800BF81BF210103001F5A010601C803BF82A0
:10179800BF220107001F5A010601C803BF83BF23E8
:1017A80001A5001F5A010308C803C200C220018214
:1017B80000225A010301C803C200C228018C00227A
:1017C8005A010601C803C280C220018200225A01C0
:1017D8000601C803C281C221018300225A01060101
:1017E800C803C282C222018400225A010601C8032A
:1017F800C284C224018600225A010601C803C28598
:10180800C225018700225A010601C803C286C226E2
:10181800018800225A010601C803C287C22701892C
:1018280000225A010601C803C288C228018C00227E
:101838005A010601C803C580C520023B00255A018C
:101848000301C803C700C72001A600275A010301E6
:10185800C803C700C72101A900275A010601C80308
:10186800C780C72001A600275A010601C803C781FF
:10187800C72101A900275A010601C803C782C72248
:10188800020D00275A010301C8010027C723037569
:1018980000FF5A010301C8010027C724037700FF8E
:1018A8005A010301C803C800C820012700285A01AB
:1018B8000301C803C800C821012900285A010304EC
:1018C800C803C800C822012D00285A010601C80310
:1018D800C880C820012700285A010601C803C8810A
:1018E800C821012900285A010601C803C882C82254
:1018F800012D00285A010601C803C883C823012EF8
:1019080000285A010601C803C884C824012F0028EA
:101918005A010601C803C885C825013000285A01A4
:10192800030EC803C900C9B0037800295A0106018B
:10193800C803C990C930023C00295A010301C803F1
:10194800CC00CCA00303002C4E90910000000000B6
:10195800000000000000000000418E6A0062208E36
:101968006B5A13B320B350B3805A13B322B352B394
:10197800825A13B323B353B3835A13B324B354B360
:10198800845A13B325B355B3855A13B326B356B344
:10199800865A14B420B450B4805A14B421B451B443
:1019A800815A14B423B453B4835A14B424B454B429
:1019B800845A14B425B455B4855A14B426B456B40C
:1019C800865A14B427B457B4875A14B428B458B4F0
:1019D800885A14B42AB45AB48A5A17B720B750B7D9
:1019E800805A17B724B754B7845A17B725B755B7CD
:1019F800855A17B726B756B7865A17B727B757B7AE
:101A0800875A17B728B758B7885A17B729B759B791
:101A1800895A17B72AB75AB78A5A18B820B850B887
:101A2800805A18B821B851B8815A18B822B852B893
:101A3800825A18B823B853B8835A18B824B854B877
:101A4800845A18B825B855B8855A18B826B856B85B
:101A5800865A18B827B857B8875A1BBB20BB50BB43
:101A6800805A1BBB21BB51BB815A1BBB22BB52BB3B
:101A7800825A1BBB23BB53BB835A1BBB24BB54BB1F
:101A8800845A1BBB25BB55BB855A1BBB26BB56BB03
:101A9800865A1BBB27BB57BB875A1BBB28BB58BBE7
:101AA800885A1BBB29BB59BB895A1BBB2ABB5ABBCB
:101AB8008A5A1CBC20BC50BC805A1CBC21BC51BCDE
:101AC800815A1CBC22BC52BC825A1CBC23BC53BCCD
:101AD800835A1CBC24BC54BC845A1CBC25BC55BCB1
:101AE800855A1FBF20BF50BF805A1FBF21BF51BF9B
:101AF800815A1FBF22BF52BF825A1FBF23BF53BF85
:101B0800835A22C220C250C2805A22C221C251C264
:101B1800815A22C222C252C2825A22C224C254C24A
:101B2800845A22C225C255C2855A22C226C256C22A
:101B3800865A22C227C257C2875A22C228C258C20E
:101B4800885A27C720C750C7805A27C721C751C7F7
:101B5800815A28C820C850C8805A28C821C851C8E6
:101B6800815A28C822C852C8825A28C823C853C8CC
:101B7800835A28C824C854C8845A28C825C855C8B0
:101B880085418E690000E709F608DFFA8046E70913
:101B9800F208DFFA803E88828C83E709F0A3DFFA37
:101BA8008032E309F608DFFA8078E309F208DFFA01
:101BB800807088828C83E309F0A3DFFA80648982CD
:101BC8008A83E0A3F608DFFA805889828A83E0A333
:101BD800F208DFFA804C80D280FA80C680D480690F
:101BE80080F28033801080A680EA809A80A880DA0C
:101BF80080E280CA803389828A83ECFAE493A3C89E
:101C0800C582C8CCC583CCF0A3C8C582C8CCC5835F
:101C1800CCDFE9DEE7800D89828A83E493A3F608A6
:101C2800DFF9ECFAA9F0EDFB2289828A83ECFAE06D
:101C3800A3C8C582C8CCC583CCF0A3C8C582C8CC0C
:101C4800C583CCDFEADEE880DB89828A83E493A35C
:101C5800F208DFF980CC88F0EF60010E4E60C3888F
:101C6800F0ED2402B4040050B9F582EB2402B40468
:101C78000050AF2323458223901BDE73BB010689E6
:101C8800828A83E0225002E722BBFE02E322898295
:101C98008A83E49322BB010CE58229F582E5833A25
:101CA800F583E0225006E92582F8E622BBFE06E924
:101CB8002582F8E222E58229F582E5833AF583E474
:101CC8009322BB010689828A83F0225002F722BB45
:101CD800FE01F322EF8DF0A4A8F0CF8CF0A428CE5B
:101CE8008DF0A42EFE22BC000BBE0029EF8DF084DF
:101CF800FFADF022E4CCF875F008EF2FFFEE33FECD
:101D0800EC33FCEE9DEC984005FCEE9DFE0FD5F003
:101D1800E9E4CEFD22EDF8F5F0EE8420D21CFEAD0C
:101D2800F075F008EF2FFFED33FD4007985006D50A
:101D3800F0F222C398FD0FD5F0EA22C5F0F8A3E02F
:101D480028F0C5F0F8E582158270021583E038F0B6
:101D580022A3F8E0C5F025F0F0E58215827002159F
:101D680083E0C838F0E822BB010A89828A83E0F55B
:101D7800F0A3E022500687F009E71922BBFE07E32B
:101D8800F5F009E3192289828A83E493F5F0740156
:101D98009322BB0110E58229F582E5833AF583E0B9
:101DA800F5F0A3E0225009E92582F886F008E6223A
:101DB800BBFE0AE92582F8E2F5F008E222E5832A6B
:101DC800F583E993F5F0A3E99322BB010A89828A96
:101DD80083F0E5F0A3F0225006F709A7F01922BB1B
:101DE800FE06F3E5F009F31922EF2BFFEE3AFEEDBC
:101DF80039FDEC38FC2275F008758200EF2FFFEEF4
:101E080033FECD33CDCC33CCC58233C5829BED9A1E
:101E1800EC99E58298400CF582EE9BFEED9AFDEC7C
:101E280099FC0FD5F0D6E4CEFBE4CDFAE4CCF9A8C2
:101E38008222B800C1B90059BA002DEC8BF084CFCA
:101E4800CECDFCE5F0CBF97818EF2FFFEE33FEEDA1
:101E580033FDEC33FCEB33FB10D703994004EB99CB
:101E6800FB0FD8E5E4F9FA227818EF2FFFEE33FEDE
:101E7800ED33FDEC33FCC933C910D7059BE99A4013
:101E880007EC9BFCE99AF90FD8E0E4C9FAE4CCFB2B
:101E98002275F010EF2FFFEE33FEED33FDCC33CC7F
:101EA800C833C810D7079BEC9AE899400AED9BFD08
:101EB800EC9AFCE899F80FD5F0DAE4CDFBE4CCFA1B
:101EC800E4C8F922EB9FF5F0EA9E42F0E99D42F062
:101ED800EC6480C864809845F022EB9FF5F0EA9E98
:101EE80042F0E99D42F0E89C45F022E86010ECA23F
:101EF800E713FCED13FDEE13FEEF13FFD8F022E01D
:101F0800FCA3E0FDA3E0FEA3E0FF22E0F8A3E0F9D4
:101F1800A3E0FAA3E0FB22ECF0A3EDF0A3EEF0A31C
:101F2800EFF022A8828583F0D083D082121F42125C
:101F38001F42121F42121F42E473E493A3C583C5D4
:101F4800F0C583C8C582C8F0A3C583C5F0C583C8DA
:101F5800C582C822A42582F582E5F03583F583225F
:101F6800E0FBA3E0FAA3E0F922F8E0FBA3A3E0F981
:101F780025F0F0E582158270021583E0FA38F02228
:101F8800EBF0A3EAF0A3E9F022D083D082F8E4933F
:101F98007012740193700DA3A393F8740193F582E2
:101FA8008883E4737402936860EFA3A3A380DFD0EF
:101FB80083D082F8E4937012740193700DA3A393F5
:101FC800F8740193F5828883E473740293B5F0067C
:101FD8007403936860E9A3A3A3A380D8E3F5F00989
:101FE800E208B5F06BDFF58067E3F5F009E608B5C0
:101FF800F05EDFF5805A87F009E608B5F052DFF6A3
:10200800804E87F009E208B5F046DFF68042888204
:102018008C8387F009E0A3B5F036DFF6803288823A
:102028008C8387F009E493A3B5F025DFF580218838
:10203800828C83E3F5F009E0A3B5F014DFF5801096
:1020480088828C83E3F5F009E493A3B5F002DFF40A
:10205800022113808780E9809080D4803E8015809B
:102068006E807E809D80B7808D80A3805180748033
:102078003C02211F89828A83ECFAE493F5F0A3C815
:10208800C582C8CCC583CCE493A3C8C582C8CCC5D7
:1020980083CCB5F076DFE3DEE1807089828A83E461
:1020A80093F5F0A3E208B5F062DFF4805E89828AD6
:1020B80083E0F5F0A3E608B5F051DFF5804D89829D
:1020C8008A83E0F5F0A3E208B5F040DFF5803C89AB
:1020D800828A83E493F5F0A3E608B5F02EDFF48056
:1020E8002A8002805789828A83ECFAE493F5F0A368
:1020F800C8C582C8CCC583CCE0A3C8C582C8CCC536
:1021080083CCB5F006DFE4DEE280007FFFB5F002A5
:102118000F2240027F012289828A83ECFAE0F5F0DF
:10212800A3C8C582C8CCC583CCE0A3C8C582C8CC27
:10213800C583CCB5F0D5DFE5DEE380CF89828A831D
:10214800ECFAE0F5F0A3C8C582C8CCC583CCE4930B
:10215800A3C8C582C8CCC583CCB5F0AFDFE4DEE246
:1021680080A988F0EF60010E4E60ABED2402B40444
:10217800005098F582EB2402B40400508E232345C6
:10218800822390205B73EF4E6012EF60010EEDBB6F
:10219800010B89828A83F0A3DFFCDEFA2289F050E2
:1021A80007F709DFFCA9F022BBFEFCF309DFFCA955
:1021B800F022F8BB010DE58229F582E5833AF58323
:1021C800E8F0225006E92582C8F622BBFE05E9257B
:1021D80082C8F222AF0AEFC31354016401600302FC
:1021E80027DF909DDFE0FEA3E0640D4E600302252B
:1021F80091909DDFE0A3E0FF909D41E0FCA3E06F9C
:102208007002EC6E601EE4909D46F0A3F07B017AAC
:102218009D7946909963F0A37402F07F017EAE1217
:102228002D0780167B017A9D7946909963E4F0A387
:102238007402F07F017EAE122A9A7B017A97795850
:10224800909963E4F0A37410F07FA07EAE122A9AEE
:10225800E4909766F0A3E05407F07B017A9D792912
:1022680078587C977D017E007F1012216AEF702FCD
:10227800909D43E0FEA3E0FF909D46E0FCA3E0B5FF
:10228800071DECB50619909DDFE0FEA3E0FF909DC9
:1022980041E0FCA3E06F7002EC6E70030227CF7B75
:1022A800017A97795878297C9D7D017E007F1012EC
:1022B8001C5EE4909D45F090978BF090978BE0C35F
:1022C8009408748094804003022539E490978AF03A
:1022D80090978AE0C394107480948040030225305C
:1022E800A3E0C454F0FF90978AE02F90978FF0E016
:1022F80075F018A42400FFE5F03435FE7B017A97C9
:102308007958909963E4F0A37430F0122A9A7B010B
:102318007A97795890978C121F8890978AE0FF7E59
:10232800007401A807088005C333CE33CED8F9FF5F
:1023380090978BE025E02429F582E4349DF583E02D
:10234800FCA3E0FDEE5CFEEF5D4E70030224879077
:10235800978C121F68121D6F645A7004E5F064A50B
:10236800700302242490978C121F6874A575F05A84
:10237800121DD27B017A97796C909963E4F0A3746B
:1023880008F07F107E00122A9A7B017A97796C7880
:102398005A7C977D017E007F03121C5E7B017A9731
:1023A8007970785D7C977D017E007F03121C5E7ECC
:1023B800007F087D007B017A97796012218E9097C3
:1023C8008FE0FF909766E4F0A3EFF07B017A9779AE
:1023D80068C002C00190978F75F020A42409F97491
:1023E8008035F0FA909793121F88909796E4F0A39F
:1023F8007420F0D001D00212008690978FE075F01B
:1024080018A42400FFE5F03435FE7B017A9779584B
:10241800909963E4F0A37430F0122D07909D46E084
:10242800FEA3E0FF7C007D0A121CDC909D45E0C302
:102438009FEC9E4041A3E0FEA3E0FF121CDCEF24CA
:102448000AFFE43EFE909D45E0C39FEC9E50279016
:10245800978FE075F018A42400FDE5F03435FC9062
:102468009D46E0A3E075F00AA4FF909D45E0C39F58
:10247800FF7B0D1241C6909D45E004F00225279090
:10248800978C121F68121D6F645A7004E5F064A5DA
:1024980060030225277B017A97796C909963F0A3F2
:1024A8007408F07F107E00122A9A7B017A97796C63
:1024B80078607C977D017E007F03121C5E7B017A29
:1024C80097797078637C977D017E007F03121C5E8C
:1024D80090978FE0FF909766E4F0A3EFF07B017A86
:1024E800977958909963E4F0A37410F07F007E30D8
:1024F800122D07124778E4909758F0A3F090978F21
:10250800E075F018A42400FFE5F03435FE7B017A6D
:10251800977958909963E4F0A37402F0122D07900C
:10252800978AE004F00222D890978BE004F0022208
:10253800C3909D45E090978AF0909D46E0FEA3E009
:10254800FF7C007D0A121CDCEF240AFFE43EFE90AB
:10255800978AE0C39FEC9E501D909D46E0A3E075CE
:10256800F00AA4FF90978AE0C39FFF123E0E90974F
:102578008AE004F080C3909D46E0FEA3E0FF909DB2
:1025880043EEF0A3EFF00227CF909DDFE0FEA3E03B
:10259800640E4E60030227CF909DDFE0A3E0FF901A
:1025A8009D41E0FCA3E06F7002EC6E601EE4909D1C
:1025B80046F0A3F07B017A9D7946909963F0A37465
:1025C80002F07F017EAE122D0780347B017A9D795F
:1025D80046909963E4F0A37402F07F017EAE122A5C
:1025E8009A909D43E0FEA3E0FF909D46E0FCA3E0A7
:1025F8006F7002EC6E70030227CF80030227CF9022
:102608009D46E0FEA3E0FF909D43EEF0A3EFF0E4CB
:10261800A3F0909D45E0C3940A748094804003021F
:1026280027B5A3E0FEA3E0FF7C007D0A121CDC9026
:102638009D45E02FFFEC3EFE909D3FE0FCA3E0FDB2
:10264800C3EF9DEE9C40030227B5909D46E0FEA394
:10265800E0FF7C007D0A121CDC909D45E02FFFEC1A
:102668003EFE909D3BE0FCA3E0D39FEC9E40329061
:102678009D46E0FEA3E0FF7C00121CDC909D45E037
:102688002FFFEC3EFEEF2401FFE43EFE909D3BE071
:10269800FCA3E0C39FFFEC9E90978CF0A3EFF08023
:1026A8003A909D46E0FEA3E0FF7C007D0A121CDC08
:1026B800909D45E02FFFEC3EFEEF2401FFE43EFE37
:1026C800909D3BE0FCA3E02400FDEC3402FCC3ED4C
:1026D8009FFFEC9E90978CF0A3EFF090978CE0FE14
:1026E800A3E07803C333CE33CED8F92400FFEE3409
:1026F80020FEE4FCFD909961121F1F909965E4F09B
:10270800A37408F07D007C307F5A124C947B017AC8
:10271800977958909963E4F0A37410F07F007E30A5
:10272800122A9A7B017A977968C003C002C0019087
:102738009766E0FEA3E07805C333CE33CED8F924FC
:1027480009F974803EFA7B01909793121F8890973D
:1027580096E4F0A37420F0D001D002D003120086D2
:10276800909D45E025E02448F582E4349DF583E01A
:10277800FEA3E0FF7B017A977958909963E4F0A370
:102788007430F0122D07909D45E025E02448F5822D
:10279800E4349DF583E0FCA3E0FD909D45E0FF7BDC
:1027A8000E1241C6909D45E004F002261A909D4500
:1027B800E0C3940A74809480500DE0FF123E0E909E
:1027C8009D45E004F080E6909DDFE0FEA3E0FF90E9
:1027D8009D41EEF0A3EFF02290975D121F8890972D
:1027E80060ECF0A3EDF0E4A3F0A3F0909760E0FEB6
:1027F800A3E0FFA3E0FCA3E0C39FEC9E500C9097DE
:1028080062E475F001121D4380E1909760E0FEA339
:10281800E0C39405EE94005003022A99E4A3F0A3C0
:10282800F090975D121F68909762E0FEA3E0F58232
:102838008E83121C9D64016003022A7390975D12B7
:102848001F68909762E0A3E029F9EA3EFA90000138
:10285800121C9D121F9128680329BC0600002A73C8
:1028680090975D121F68909762E0FEA3E029F9EA4D
:102878003EFA900002121C9DFF909766E4F0A3EFC9
:10288800F0909762E0A3E0FF909766E0FCA3E02F4A
:10289800FFEC3EFEEF2405FFE43EFE909760E0FC6F
:1028A800A3E0FDD3EF9DEE9C4011909760E0FEA35E
:1028B800E0FFA3EEF0A3EFF0022A7390975D121FDA
:1028C80068909762E0FEA3E029F9EA3EFA909766DD
:1028D800E0FEA3E02403FDE43EFC124D199097644A
:1028E800EEF0A3EFF090975D121F68909762E0FEFC
:1028F800A3E029F9EA3EFA909766E0FEA3E029F9F9
:10290800EA3EFA900003121C9DFD909764E0FEA336
:10291800E0EE6D7001E46003022A7390975D121F68
:1029280068909762E0FEA3E029F9EA3EFA9097667C
:10293800E0FEA3E029F9EA3EFA900004121C9DFF8C
:10294800909764E0A3E06F7001E46003022A73903B
:102958009099E0FEA3E0FF90975D121F68E92403B9
:10296800F9E43AFAC003C002C00190975D121F68EB
:10297800900002121C9DFD909963E4F0A3EDF0D045
:1029880001D002D003122D077E007F0E7D007B014F
:102998007A90799112218E909766E0FEA3E0240543
:1029A800FFE43E909762F0A3EFF0908E69E0440256
:1029B800F0022A73909762E0FEA3E02408FFE43E49
:1029C800FE909760E0FCA3E0FDD3EF9DEE9C4011E4
:1029D800909760E0FEA3E0FFA3EEF0A3EFF0022AD9
:1029E8007390975D121F68909762E0FEA3E029F943
:1029F800EA3EFA7D067C00124D19909764EEF0A32A
:102A0800EFF090975D121F68909762E0FEA3E029AF
:102A1800F9EA3EFA900006121C9DFD909764E0FECC
:102A2800A3E0EE6D7001E4704290975D121F68900C
:102A38009762E0FEA3E029F9EA3EFA900007121C2B
:102A48009DFF909764E0A3E0B50720E49097627536
:102A5800F008121D437E007F0E7D007B017A90797D
:102A68009112218E908E69E04402F0909762E4758D
:102A7800F001121D43909760E0FEA3E024FBFFEEF7
:102A880034FFFEA3E0FCA3E0C39FEC9E50030228A2
:102A9800292290995EEEF0A3EFF0A3121F887B0025
:102AA8007A007900C003C002C001909960121F68C3
:102AB800D082D083D0E06B7008E965827003EA6544
:102AC800837003022D06909963E0FEA3E04E700325
:102AD800022D06909963E0A3E0FFEEC313FEEF1307
:102AE800FF90995EE0FCA3E02FFFEE3CFED3EF944D
:102AF800FEEE94FF4003022D06C2AF90995EE0A35C
:102B0800E05401909965F090995EE0FEA3E0FFEE35
:102B1800C313FEEF13FF90995EEEF0A3EFF09099C8
:102B28005EE0FEA3E07810CEC313CE13D8F9F5F11A
:102B380090995EE0FEA3E0EEF5F290995EE0A3E0E6
:102B4800F5F3E4F5F875F401D2FF30FCFDD2FD9001
:102B58009965E064017072909963E0FEA3E06401F6
:102B68004E700AC2FBC2FAD2F9C2F88008C2FBC290
:102B7800FAD2F9D2F8D2FE20FEFD909963E0FEA3C6
:102B8800E064014E701A90996075F001121F71E5AA
:102B9800FC121CCA90996374FFF5F0121D4380293A
:102BA800909960E475F001121F71E5FC121CCA903F
:102BB8009960E475F001121F71E5FD121CCA909925
:102BC8006374FF75F0FE121D43909963E0FEA3E065
:102BD8004E7003022D01909963E0A3E0C39404EEC4
:102BE80094004003022CAA909963E0A3E08EF012AF
:102BF8001FB72C1E00012C1400022C0A0003000031
:102C08002C26D2FBD2FAD2F9C2F88012D2FBD2FA21
:102C1800C2F9C2F88008D2FBC2FAC2F9C2F8D2FEE1
:102C280020FEFD909963E0FEA3E08EF0121FB72C02
:102C38009700012C7700022C47000300002D01901B
:102C48009960E475F001121F71E5FA121CCA909997
:102C580060E475F001121F71E5FB121CCA909960BF
:102C6800E475F001121F71E5FC121CCA022D0190D7
:102C78009960E475F001121F71E5FA121CCA909967
:102C880060E475F001121F71E5FB121CCA806A909E
:102C98009960E475F001121F71E5FA121CCA805997
:102CA8008057D2FBD2FAD2F9D2F8D2FE20FEFD909C
:102CB8009960E475F001121F71E5FA121CCA909927
:102CC80060E475F001121F71E5FB121CCA9099604F
:102CD800E475F001121F71E5FC121CCA909960E4BA
:102CE80075F001121F71E5FD121CCA90996374FFFB
:102CF80075F0FC121D43022BD1E4F5F8D2AF2290F7
:102D0800995EEEF0A3EFF0A3121F887B007A00799A
:102D180000C003C002C001909960121F68D082D021
:102D280083D0E06B7008E965827003EA65837003FD
:102D3800022F72909963E0FEA3E04E7003022F7297
:102D4800909963E0A3E0FFEEC313FEEF13FF9099A1
:102D58005EE0FCA3E02FFFEE3CFED3EF94FEEE9482
:102D6800FF4003022F72C2AF90995EE0A3E05401C6
:102D7800909965F090995EE0FEA3E0FFEEC313FE24
:102D8800EF13FF90995EEEF0A3EFF090995EE0FEEE
:102D9800A3E07810CEC313CE13D8F9F5F190995E5D
:102DA800E0FEA3E0EEF5F290995EE0A3E0F5F3E42F
:102DB800F5F875F401D2FF30FCFDC2FD909965E08D
:102DC80064017072909963E0FEA3E064014E700A9A
:102DD800C2FBC2FAD2F9C2F88008C2FBC2FAD2F921
:102DE800D2F8909963E0FEA3E064014E701A9099BE
:102DF8006075F001121F71121C84F5FC90996374C0
:102E0800FFF5F0121D438029909960E475F00112D6
:102E18001F71121C84F5FC909960E475F001121F73
:102E280071121C84F5FD90996374FF75F0FE121DF4
:102E380043D2FE20FEFD909963E0FEA3E04E7003AE
:102E4800022F6D909963E0A3E0C39404EE940040D0
:102E580003022F16909963E0A3E08EF0121FB72E9D
:102E68008B00012E8100022E77000300002E93D2E2
:102E7800FBD2FAD2F9C2F88012D2FBD2FAC2F9C256
:102E8800F88008D2FBC2FAC2F9C2F8909963E0FE52
:102E9800A3E08EF0121FB72EFE00012EDE00022ED8
:102EA800AF000300002F0D909960E475F001121F28
:102EB80071121C84F5FA909960E475F001121F7183
:102EC800121C84F5FB909960E475F001121F7112D1
:102ED8001C84F5FC802F909960E475F001121F7135
:102EE800121C84F5FA909960E475F001121F7112B2
:102EF8001C84F5FB800F909960E475F001121F7136
:102F0800121C84F5FAD2FE30FE5B80FB8057D2FBA0
:102F1800D2FAD2F9D2F8909960E475F001121F71D3
:102F2800121C84F5FA909960E475F001121F711271
:102F38001C84F5FB909960E475F001121F71121C56
:102F480084F5FC909960E475F001121F71121C84DD
:102F5800F5FDD2FE20FEFD90996374FF75F0FC121A
:102F68001D43022E3EE4F5F8D2AF227BFF7A557955
:102F78003C78587C977D017E007F20121C5E7B0187
:102F88007A97795890977A121F8890977D121F88A0
:102F9800E4909778F0A3F0909778E0FEA3E0C3EE72
:102FA8009402400302303C909778E0A3E07803C392
:102FB80033CE33CED8F92400FFEE3420FEE4FCFDF6
:102FC800909961121F1F909965E4F0A37408F07D31
:102FD800007C307F5A124C947B017A9779589099EB
:102FE80063E4F0A37410F07F007E30122A9A909761
:102FF8007A121F68121D6F645A7004E5F064A560A8
:103008002690977D121F68121D6FB4A527E5F0B4AE
:103018005A2290977D121F6878397C9D7D017E0029
:103028007F08121C5E800D909778E475F001121DE0
:1030380043022F9FE4909778F0A3F0909778E0FEF2
:10304800A3E0C3940AEE940040030231CE7BFF7ADA
:1030580055795C78807C977D017E007F20121C5E0C
:103068007B017A9C79F578807C977D017E007F1AB8
:10307800121C5E909778E0FEA3E0FF7C007D1B1297
:103088001CDCEF2464FFE43E909784F0A3EFF090FB
:1030980097897401F0909778E0FEA3E0909D5C75A5
:1030A800F006121F5CEE75F006A42583F583E0FE9A
:1030B800A3E0FF7B017A977980909963E4F0A37489
:1030C80020F0122D077B017A9D790F78807C977DFF
:1030D800017E007F1A121C5E909778E0FEA3E0FF45
:1030E8007C007D1B121CDCEF2464FFE43E90978477
:1030F800F0A3EFF09097897401F0909778E0FEA321
:10310800E0909D5E75F006121F5CEE75F006A42532
:1031180083F583E0FEA3E0FF7B017A97798090999D
:1031280063E4F0A37420F0122D077B017A9D79984F
:1031380078807C977D017E007F1A121C5E909778BC
:10314800E0FEA3E0FF7C007D1B121CDCEF2464FF83
:10315800E43E909784F0A3EFF0909778E0FEA3E028
:10316800FF121CDCEF2464FFE43E90978AF0A3EF83
:10317800F0909778E0FEA3E0FF121CDCEF247DFFBF
:10318800E43E90978EF0A3EFF0909778E0FEA3E0EE
:10319800909D6075F006121F5CEE75F006A42583FD
:1031A800F583E0FEA3E0FF7B017A9779809099632D
:1031B800E4F0A37420F0122D07909778E475F001DD
:1031C800121D430230432290975D121F8890975D2D
:1031D800121F68121C84909760F0909760E0C39467
:1031E80076748094804003023406E075F00E909067
:1031F8009F121F5CE0645A60030233FD909760E001
:1032080075F00E9090A2121F5CE070030233FD90DF
:103218009760E075F00E9090A4121F5CE0700302B6
:103228003406909760E075F00E9090A4121F5CE051
:1032380064017029909760E075F00E9090A5121FB8
:103248005CE0FEA3E0FF909DDFE0FCA3E06F70026E
:10325800EC6E60030233FD0234060233FD90976082
:10326800E075F00E9090A4121F5CE0640260030207
:103278003322909760E075F00E9090A5121F5CE0E5
:10328800FEA3E0FF7B017A977961909963E4F0A34C
:103298007402F0122A9A909761E0A3E0645A6003DE
:1032A8000233FD909760E0C3947574809480503C1D
:1032B800E075F00E9090B2121F5CE06402702D90E1
:1032C8009760E075F00E9090B3121F5CE0FEA3E0EB
:1032D800FF909760E075F00E9090A5121F5CE0FCDF
:1032E800A3E06F7002EC6E7003023406E4909761FD
:1032F800F0A3F0909760E075F00E9090A5121F5C17
:10330800E0FEA3E0FF7B017A977961909963E4F08E
:10331800A37402F0122D07023406909760E075F04E
:103328000E9090A4121F5CE0640360030233FD90CA
:103338009760E075F00E9090AB121F5CE0FEA3E082
:10334800FF909DDFE0FCA3E0FDEF6D7002EE6C6086
:10335800030233FD909760E075F00E9090A5121F60
:103368005CE0FEA3E0FF7B017A977961909963E4C2
:10337800F0A37402F0122A9A909761E0A3E0645ACD
:103388007073909760E0C39475748094805039E0AE
:1033980075F00E9090B2121F5CE06403702A90974B
:1033A80060E075F00E9090B3121F5CE0FEA3E0FFA2
:1033B800909760E075F00E9090A5121F5CE0FCA35A
:1033C800E06F7002EC6E6036E4909761F0A3F090C5
:1033D8009760E075F00E9090A5121F5CE0FEA3E0E8
:1033E800FF7B017A977961909963E4F0A37402F006
:1033F800122D078009909760E004F00231E290975F
:1034080060E0FF90975D121F68EF121CCA22E50A60
:1034180030E10D909DDBE475F001121D4312485A0E
:10342800909DDBE0FEA3E0C394B0EE940450030249
:10343800365AE4909DDBF0A3F0A3E0FEA3E024005D
:10344800FFEE3410909758F0A3EFF07B017A97794C
:103458005A909963E4F0A37402F07F237EAA122A9B
:103468009A909758E0FEA3E0FF7B017A97795A90EB
:103478009963E4F0A37402F0122D07909DDDE0FE3D
:10348800A3E02400FFEE3418909758F0A3EFF07BE8
:10349800017A97795A909963E4F0A37402F07F2433
:1034A8007EAA122A9A909758E0FEA3E0FF7B017A41
:1034B80097795A909963E4F0A37402F0122D07905B
:1034C8009DDDE0FEA3E0FF90975EEEF0A3EFF090A5
:1034D8009DDDE475F001121D43909DDDE0FEA3E043
:1034E800C394FEEE94074007E4909DDDF0A3F07BC3
:1034F800017A9D79DD909963E4F0A37402F07F006E
:103508007E03122D077B017A9D79DD909963E4F0A3
:10351800A37402F0FF7E03122D0790975C7407F0E6
:10352800A374FEF07B017A97795C909963E4F0A329
:103538007402F07F087E50122D077B017A97795C20
:10354800909963E4F0A37402F07F097E50122D076E
:1035580090975C7402F0A3748AF07B017A97795C87
:10356800909963E4F0A37402F07F117E50122D0746
:10357800909DDDE0A3E030E00302365A90975E7438
:10358800FFF5F0121D4390975EE0FEA3E02400FFD4
:10359800EE3410FE7B017A977958909963E4F0A392
:1035A8007404F0122A9A90975C74A5F0A3745AF0E8
:1035B8007B017A977958909963E4F0A37406F07FB9
:1035C800007E50122D0790975EE0FEA3E0FFE4FC1A
:1035D800FD909961121F1F909965E4F0A37404F09F
:1035E8007D007C507FA5124C9490975EE0FEA3E08E
:1035F8002400FFEE3418FE7B017A9779589099637E
:10360800E4F0A37404F0122A9A90975C74A5F0A3CE
:10361800745AF07B017A977958909963E4F0A3740F
:1036280006F07F007E50122D0790975EE0FEA3E023
:103638002400FFEE3408FEE4FCFD909961121F1F80
:10364800909965E4F0A37404F07D007C507FA51286
:103658004C94227BFF7A53793C78587C977D017E85
:10366800027F00121C5E909961121F2B000000005F
:103678009099657410F0A3E4F0FD7C107F5A124C09
:10368800949099587410F0A3E4F0909958E0FEA330
:10369800E0C394FEEE94175069909958E0A3E0FFB8
:1036A8007B017A9779589099637402F0A3E4F01239
:1036B8002A9AE490995AF0A3F090995AE0FEA3E070
:1036C800C3EE9401502F90995AE0A3E025E0FFEE55
:1036D80033FE74582FF58274973EF583E0FEA3E01D
:1036E800645A7003EE64A5601990995AE475F00164
:1036F800121D4380C4909958740175F000121D433F
:10370800808890995AE0FEA3E0FF909958E0FCA3C6
:10371800E02FFFEC3E90995CF0A3EFF090995CE00D
:10372800FEA3E0C394FEEE9417400990995C7410D0
:10373800F0A3E4F090995C74F075F000121D4390CA
:10374800995CE0FEA3E0FF909DDDEEF0A3EFF07B37
:10375800017A99795C909963E4F0A37402F07F0090
:103768007E03122D077B017A99795C909963E4F0C6
:10377800A37402F0FF7E03122D077B017A99795C0E
:10378800909963E4F0A37402F07F087E50122D072D
:103798007B017A99795C909963E4F0A37402F07FD5
:1037A800097E50122D079097587407F0A374FEF005
:1037B8007B017A977958909963E4F0A37402F07FBB
:1037C800017E03122D077B017A977958909963E45B
:1037D800F0A37402F004FFFE122D07909758E4F04E
:1037E800A37406F0A3E4F0A304F0A3E4F0A3742EFA
:1037F800F0A37401F0A3744CF0A37401F0A37471E6
:10380800F0A37401F0A37477F0A37401F0A3748A91
:10381800F0A37402F0A3748AF0A37401F0A3747186
:10382800F0A374FFF0A3E4F07B017A97795890999C
:1038380063F0A37414F07F0A7E50122D07227B00D8
:103848007A007900909758121F88909090E0640150
:1038580060030238DD90908BE0FF909713E0D39FD0
:103868004011E090908BF0909754121F2B000000AD
:1038780000806290908BE0FF909713E06F7056FF86
:10388800FEFDFC909754121F13D3121EE24038908D
:103898009754121F13C3E50E9BFFE50D9AFEE50C26
:1038A80099FDE50B98FCE47B0AFAF9F8C3121EE2CD
:1038B80050237B017A977914909713E0FD7C0012CE
:1038C80027E0125234800EAF0EAE0DAD0CAC0B904B
:1038D8009754121F1F908E69E030E035E020E129EF
:1038E80090908C121F13C3E50E9BFBE50D9AFAE529
:1038F8000C99F9E50B98F8909095E0FFE4FCFDFE33
:10390800C3121EE250030239ED908E6AE004F08083
:103918002790908C121F13C3E50E9BFFE50D9AFEAE
:10392800E50C99FDE50B98FCE47BF47A01F9F8D3F2
:10393800121EE240030239ED908E6AE07003123CD9
:10394800C9AF0EAE0DAD0CAC0B90908C121F1F9032
:103958008E69E054FDF0E054FEF07B017A8E796ABE
:103968001231CF908E6AE0C3947674809480507040
:10397800E075F00EA4249FF9749035F0FA7B017875
:10398800917C907D017E007F0E121C5E909093E0EA
:10399800640370117B017A907991124545908E6984
:1039A800E04401F022909093E0640670389090997A
:1039B800E0FEA3E0FF7B017A97795B909963E4F0DE
:1039C800A37402F0122A9A7B017A90799190975BFE
:1039D800E0FCA3E0FD124660908E69E04401F0220D
:1039E800E4908E6AF022E50A30E0167B017A9D7930
:1039F800DF909963E4F0A37402F07F147E00122A2A
:103A08009AE50A20E203023B83909DDFE0FEA3E0F3
:103A18008EF0121FB73A2900293AFD002C00003B0E
:103A2800837B017A97795B909963E4F0A3741CF027
:103A38007FB07EC9122A9AE4909758F0909758E080
:103A4800C39407748094804003023AE6E025E02599
:103A5800E0245BF582E43497F583E0FEA3E0C4F844
:103A6800540FC868FDEEC454F048FC909758E02500
:103A7800E025E0245DF582E43497F583E0FEA3E0D9
:103A8800EEC4540F2DFFE43C909759F0A3EFF0904B
:103A98009759E0FEA3E0FF7C007D18121CEE90977A
:103AA80058E025E02477F582E43497F583EEF0A317
:103AB800EFF0909759E0FEA3E0FF7C007D18121C00
:103AC800EE909758E025E02485F582E43497F58355
:103AD800ECF0A3EDF0909758E004F0023A447B0133
:103AE8007A977977909963E4F0A3741CF07F207E2D
:103AF800C9122D07227B017A97795E909963E4F0C9
:103B0800A37402F07FA07ECC122A9A90975EE0FE02
:103B1800A3E0FFEEC4F854F0C868FEEFC4540F48A1
:103B2800EE540F909758F0A3E4F0909758E0FCA358
:103B3800E0FD90975EE0FEA3E07807CEC313CE13B6
:103B4800D8F9541FFFECFEED4FFF909758EEF0A305
:103B5800EFF090975EE0A3E0547F90975AF0A3E4CB
:103B6800F004A3F0A3F0FB7A977958909963E4F0F6
:103B7800A37406F07F207ECC122D0722909766EF63
:103B8800F0A3EDF0A3EBF0E4909773F0A3F0909717
:103B980066E024D0FFE43407909773F0A3EFF09029
:103BA8009773E0FEA3E0FF7C007D64121CEE909703
:103BB80069ECF0A3EDF0909773E0FEA3E0FF7C00C2
:103BC8007D64121CEE90976BEEF0A3EFF090976770
:103BD800E0FF90976DE4F0A3EFF0909768E0FF9016
:103BE800976FE4F0A3EFF090976DE0FEA3E0640117
:103BF8004E600B90976DE0A3E064024E70149097AE
:103C08006974FFF5F0121D4390976DE475F00C127E
:103C18001D43909769E0FEA3E07802CEC313CE134C
:103C2800D8F9FF909769E0FCA3E02FFDEE3CFCA3D8
:103C3800E0FEA3E07802CEC313CE13D8F92DFDEC35
:103C48003EFC90976BE0FEA3E025E0FFEE33FEC359
:103C5800ED9FFBEC9EFAA3E0FEA3E02401FFE43E07
:103C6800FE7C007D0D121CDC7D05121CEEEF2BFF87
:103C7800EE3AFEA3E0FCA3E02FFFEE3CFEEF24FFAC
:103C8800FFEE34FFA3F0A3EFF0909771E0FEA3E0FE
:103C9800C3EE9400500C909771E475F007121D4321
:103CA80080E7909771E0FEA3E0FF7C007D07121C7F
:103CB800EE909771ECF0A3EDF0909771E0A3E0FF20
:103CC800227BFF7A5579BC785D7C977D017E007FE9
:103CD80028121C5EE4909785F0A3F0909785E0FE8B
:103CE800A3E0C39444EE94004003023E0D909785F0
:103CF800E0A3E07803C333CE33CED8F9246CF58241
:103D0800748E3EF583E0FF909DDFE0FCA3E0FDEFBD
:103D18006D7001EC6003023E00909785E0FEA3E021
:103D28007803C333CE33CED8F9246DF582748E3E32
:103D3800F583E0FEA3E0FF7B017A97795D909963B4
:103D4800E4F0A37402F0122A9A909785E0FEA3E0AB
:103D58007803C333CE33CED8F9246FF582748E3E00
:103D6800F583E0FEA3E0FF7B017A97795F90996382
:103D7800E4F0A37402F0122A9A90975FE0FEA3E0A1
:103D8800FF90975DE0FCA3E06F7002EC6E606990B5
:103D98009785E0FEA3E07803C333CE33CED8F92469
:103DA8006FF582748E3EF583E0FEA3E0FF7B017A17
:103DB80097795D909963E4F0A37402F0122D07904F
:103DC8009761E4F0A3745AF0909785E0FEA3E07839
:103DD80003C333CE33CED8F92471F582748E3EF501
:103DE80083E0FEA3E0FF7B017A977961909963E411
:103DF800F0A37402F0122D07909785E475F0011274
:103E08001D43023CE322909790EFF07BFF7A5579AF
:103E18009C78917C977D017E007F20121C5E7B013F
:103E28007A9C79F578917C977D017E007F1A121C27
:103E38005E909790E075F01BA42464FFE435F09041
:103E48009795F0A3EFF090979A7401F0909790E00F
:103E580075F006A4245CF582E4349DF583E0FEA3A6
:103E6800E0FF7B017A977991909963E4F0A374203D
:103E7800F0122D077B017A9D790F78917C977D014F
:103E88007E007F1A121C5E909790E075F01BA424A8
:103E980064FFE435F0909795F0A3EFF090979A744B
:103EA80001F0909790E075F006A4245EF582E43462
:103EB8009DF583E0FEA3E0FF7B017A9779919099C5
:103EC80063E4F0A37420F0122D077B017A9D7998A2
:103ED80078917C977D017E007F1A121C5E909790E6
:103EE800E075F01BA42464FFE435F0909795F0A3E7
:103EF800EFF0909790E075F01BA42464FFE435F090
:103F080090979BF0A3EFF0909790E075F01BA42496
:103F18007DFFE435F090979FF0A3EFF0909790E045
:103F280075F006A42460F582E4349DF583E0FEA3D1
:103F3800E0FF7B017A977991909963E4F0A374206C
:103F4800F0122D07227BFF7A5579E4785A7C977D09
:103F5800017E007F0E121C5E7B017A97795A909938
:103F680063E4F0A3740CF07FA07EC7122A9AE49051
:103F78009768F0A3F0909768E0FEA3E0FF90975A47
:103F8800E0A3E05401FDEEEF4DFF909768EEF0A33B
:103F9800EFF0909768E0FCA3E0FD90975CE0A3E069
:103FA800540125E0FFE433FEEC4EFEED4FFF909701
:103FB80068EEF0A3EFF0909768E0FCA3E0FD90971F
:103FC8005EE0A3E07E0054017802C333CE33CED83E
:103FD800F9FFEC4EFEED4FFF909768EEF0A3EFF07F
:103FE800909768E0FCA3E0FD909760E0A3E07E0076
:103FF80054017806C333CE33CED8F9FFEC4EFEED2C
:104008004FFF909768EEF0A3EFF0909768E0FCA35D
:10401800E0FD909762E0A3E05401C454F0FEEC4E3A
:10402800FEEDFF909768EEF0A3EFF0909768E0FC44
:10403800A3E0FD909764E0A3E05401C43354E0FE8C
:10404800EC4EFEEDFF909768EEF0A3EFF07B017A5F
:10405800977968909963E4F0A37402F07F227EC791
:10406800122D07909768E4F0A3745AF07B017A97B1
:104078007968909963E4F0A37402F07F827EC71296
:104088002D07221252797F641250A87F101250A86F
:104098001252F51252797F651250A89097607406F3
:1040A800F0909760E0D3940074809480401D125083
:1040B80053909760E02458F582E43497F583EFF045
:1040C800125294909760E014F080D6125053909753
:1040D80058EFF01252AD1252F5E4909760F09097B5
:1040E80060E0C3940374809480504BE02458F582B8
:1040F800E43497F583E0FFC4540F909761F09097EC
:1041080060E02458F582E43497F583E0540F9097E3
:1041180062F0909761E075F00AA4FFA3E02FFF908A
:104128009760E02458F582E43497F583EFF0909790
:1041380060E004F080A89097607404F0909760E0C5
:10414800C3940774809480504BE02458F582E4347B
:1041580097F583E0FFC4540F909761F0909760E063
:104168002458F582E43497F583E0540F909762F071
:10417800909761E075F00AA4FFA3E02FFF90976085
:10418800E02458F582E43497F583EFF0909760E0E7
:1041980004F080A8909758E0FFA3E0FDA3E0FB128D
:1041A8003B8490975BEFF07B017A977958909963FD
:1041B800E4F0A37408F07F107E00122D0722909778
:1041C80090EFF0A3ECF0A3EDF0A3EBF07BFF7A55B2
:1041D800797C78947C977D017E007F20121C5E7B21
:1041E800017A9C79F578947C977D017E007F1A127C
:1041F8001C5E909790E075F01BA42464FFE435F0F2
:10420800909798F0A3EFF0E490979DF0909791E045
:10421800FEA3E02401FFE43E909794F0A3EFF09012
:104228009790E075F006A4245CF582E4349DF5834C
:10423800E0FEA3E0FF7B017A977994909963E4F01C
:10424800A37420F0122D077B017A9D790F78947C56
:10425800977D017E007F1A121C5E909790E075F0A2
:104268001BA42464FFE435F0909798F0A3EFF09036
:104278009793E0FFC3740E9F90979DF0909791E0FD
:10428800FEA3E02404FFE43E909794F0A3EFF0909F
:104298009790E075F006A4245EF582E4349DF583DA
:1042A800E0FEA3E0FF7B017A977994909963E4F0AC
:1042B800A37420F0122D07909791E0FEA3E0240844
:1042C800FFE43E909794F0A3EFF0909790E075F09C
:1042D80006A42460F582E4349DF583E0FEA3E0FFA4
:1042E8007B017A977994909963E4F0A37402F012B1
:1042F8002D0722C0E0C0F0C083C082C0D075D000B6
:10430800C000C001C002C003C004C005C006C00789
:10431800C2AF758CBC758ACD909DCBE475F0011247
:104328001D43909DCBE0FEA3E0D394E8EE940340B8
:1043380018909DCBE4F0A3F0A375F001121D4390F3
:104348009DC9E475F001121D4343C901909DD71220
:104358001F07E47B01FAF9F8121DF1909DD7121F8F
:104368001F909DCFE475F001121D43909DD1121F3F
:1043780007E4F8121DF1909DD1121F1F909DD5E002
:10438800FEA3E0FFE4FCFD7BDC7AFFF8D3121ECC31
:10439800400A909DD5E475F001121D430509E50911
:1043A80070020508AF0EAE0DAD0CAC0BE47B01FA44
:1043B800F9F8121DF18F0E8E0D8D0C8C0BE47B64B9
:1043C800121E3AAC00AD01AE02AF03E4FBFAF9F8F5
:1043D800C3121EE27003430A02E47BF47A01F9F87F
:1043E800AF0EAE0DAD0CAC0B121E3AAC00AD01AE6B
:1043F80002AF03E4FBFAF9F8C3121EE27003430AA2
:1044080004430A01D2AFD007D006D005D004D003A8
:10441800D002D001D000D0D0D082D083D0F0D0E06C
:1044280032E4909765F07B017A9D79C1909963F0A9
:10443800A37408F07F9C7E00122A9A909DC1E064C4
:104448005A6003024544A3E064A560030245449012
:1044580097607402F0909760E0C394087480948029
:10446800504EE024C1F582E4349DF583E075F00AEE
:1044780084909761F0909760E024C1F582E4349DC0
:10448800F583E075F00A84909762E5F0F090976103
:10449800E0C454F0FFA3E02FFF909760E02458F5A4
:1044A80082E43497F583EFF0909760E004F080A5FC
:1044B80090975AE0909DB9F090975BE0909DBAF084
:1044C80090975CE0909DBBF090975DE0909DBDF06B
:1044D80090975EE0909DBEF090975FE0909DBFF052
:1044E800909DC3E0FFA3E0FDA3E0FB123B849097FF
:1044F80064EFF0E4909763F0A3E0909DBCF0909790
:104508006475F00A84909761F0909764E075F00AFA
:1045180084909762E5F0F07B017A9D79B912493869
:10452800E4909DC1F0A3F07B017A9D79C1909963D5
:10453800F0A37408F07F9C7E00122D072290975DEF
:10454800121F88E4909762F090975D121F689000A0
:1045580001121C9DFF909762E0FE04F074632EF533
:1045680082E43497F583EFF0909762E0FF04F074EB
:10457800632FF582E43497F5837403F090975D1206
:104588001F6890000A121D9AE5F0FF909762E0FEFE
:1045980004F074632EF582E43497F583EFF0909776
:1045A8005D121F6890000A121D9AFF909762E0FE44
:1045B80004F074632EF582E43497F583EFF0909756
:1045C8005D121F68900003121C9DFFE4909762E043
:1045D800FE04F074632EF582E43497F583E4F090DA
:1045E800975D121F68900003121C9DFF909762E070
:1045F800FE04F074632EF582E43497F583EFF07BC4
:10460800017A977963909762E0FD7C00124D1990CA
:104618009760EEF0A3EFF0909760E0FEA3E0EEFF66
:10462800A3E0FE04F074632EF582E43497F583EF7B
:10463800F0909760E0A3E0FFA3E0FE04F074632E1F
:10464800F582E43497F583EFF07B017A97796390EC
:104658009762E0FD124F482290975D121F8890974D
:1046680060ECF0A3EDF0E4909764F090975D121F72
:1046780068900001121C9DFF909764E0FE04F0749E
:10468800652EF582E43497F583EFF0909764E0FFA8
:1046980004F074652FF582E43497F5837406F0907E
:1046A800975D121F6890000A121D9AE5F0FF909717
:1046B80064E0FE04F074652EF582E43497F583EF28
:1046C800F090975D121F6890000A121D9AFF90974C
:1046D80064E0FE04F074652EF582E43497F583EF08
:1046E800F0909760E0FEA3E0EEFF909764E0FE0490
:1046F800F074652EF582E43497F583EFF0909760B7
:10470800E0A3E0FF909764E0FE04F074652EF58264
:10471800E43497F583EFF07B017A97796590976495
:10472800E0FD7C00124D19909762EEF0A3EFF09037
:104738009762E0FEA3E0EEFFA3E0FE04F074652EAE
:10474800F582E43497F583EFF0909762E0A3E0FFF9
:10475800A3E0FE04F074652EF582E43497F583EF48
:10476800F07B017A977965909764E0FD124F4822B3
:10477800909D3BE0FEA3E07803C333CE33CED8F957
:104788002400FFEE3420FEE4FCFD909961121F1F07
:10479800909965E4F0A37408F07D007C307FA51241
:1047A8004C94909D3BE475F001121D43909D3BE0B5
:1047B800FEA3E0C3EE94024007E4909D3BF0A3F013
:1047C800909D3FE0FEA3E0C3EE94024028909D3FF9
:1047D8007402F0A3E4F0909D3D75F001121D439022
:1047E8009D3DE0FEA3E0C3EE94024013E4909D3D9E
:1047F800F0A3F0800A909D3FE475F001121D4390EC
:104808009D39745AF0A374A5F07B017A9D7939908B
:104818009963E4F0A37408F07F007E30122D0790AE
:104828009D3BE0FEA3E07803C333CE33CED8F92412
:1048380000FFEE3420FEE4FCFD909961121F1F90EA
:104848009965E4F0A37404F07D007C307FA5124CD8
:1048580094227B017A977960909963E4F0A37404B9
:10486800F07F087E50122A9A909762E0FEA3E0FF3C
:10487800909760E0FCA3E06F7002EC6E7003024951
:10488800377B017A977962909963E4F0A37402F018
:104898007F097E50122D07909760E0FEA3E0FF90FD
:1048A8009DDDE0FCA3E02FFFEC3E909764F0A3EFC2
:1048B800F0909764E0FEA3E0C394FEEE9407400BEB
:1048C80090976474F875F002121D437B017A97790A
:1048D80064909963E4F0A37402F07F007E03122DC4
:1048E800077B017A977964909963E4F0A37402F0E6
:1048F800FF7E03122D07909760E0FEA3E07802CEBA
:10490800C313CE13D8F9FF909760EEF0A3EFF090A1
:104918009760E475F08F121D437B017A9779609058
:104928009963E4F0A37402F07F117E50122D0722E0
:10493800909766121F881252797F641250A87F30B0
:104948001250A8E4FF1250A81252F51252797F644F
:104958001250A87F1C1250A87F481250A8E4FF12DA
:1049680050A87F401250A87F101250A81252F5127A
:1049780052797F641250A87F101250A8909766123F
:104988001F68900006121C9DFF1250A8909766128F
:104998001F68900005121C9DFF1250A89097661280
:1049A8001F68900004121C9DFF1250A89097661271
:1049B8001F68900003121C9DFF1250A89097661262
:1049C8001F68900002121C9DFF1250A89097661253
:1049D8001F68900001121C9DFF1250A89097661244
:1049E8001F68121C84FF1250A81252F51252797FC8
:1049F800641250A87F1E1250A8E4FF1250A87F101E
:104A08001250A81252F5221252797F641250A87FD0
:104A18001D1250A81252F51252797F651250A81231
:104A28005053909758EFF01252941250531252ADBF
:104A38001252F5909758E0540264026003024ACE7D
:104A48001252797F641250A87F301250A8E4FF12E6
:104A580050A81252F51252797F641250A87F1C1286
:104A680050A87F481250A8E4FF1250A87F40125067
:104A7800A87F101250A81252F51252797F64125072
:104A8800A87F101250A8E4FF1250A8E4FF1250A803
:104A9800E4FF1250A87F011250A87F011250A87F8E
:104AA800011250A87F171250A81252F51252797F9E
:104AB800641250A87F1E1250A8E4FF1250A87F105D
:104AC8001250A81252F522759401759502758E0040
:104AD80075930075C87075C96075F800787FE4F63D
:104AE800D8FD75810E024B2B025146E493A3F8E4DE
:104AF80093A34003F68001F208DFF48029E493A32E
:104B0800F85407240CC8C333C4540F4420C8834046
:104B180004F456800146F6DFE4800B010204081015
:104B2800204080900100E47E019360BCA3FF543FC5
:104B380030E509541FFEE493A360010ECF54C0254D
:104B4800E060A840B8E493A3FAE493A3F8E493A33D
:104B5800C8C582C8CAC583CAF0A3C8C582C8CAC5A1
:104B680083CADFE9DEE780BEE4909758F0A3F0E55A
:104B78000A20E003024C0D7B017A977958909963DB
:104B8800E4F0A37402F07F147E50122A9A9097588A
:104B9800E0FEA3E04E606E909758E0A3E08EF0121E
:104BA8001FB74BD26D004BEEA0004BDCC5004BD7B6
:104BB800C7004BE1C9014BE1C9064BE1C90C4BE108
:104BC800C90D4BE1C91000004BF1124FFB801A12BE
:104BD8003F4D80151251CC8010909758E0FEA3E00D
:104BE800FF1250FB8003124E80E4909758F0A3F018
:104BF8007B017A977958909963F0A37402F07F1437
:104C08007E50122D0722C0E0C0F0C083C082C0D001
:104C180075D000C000C004C006C00790996AE4F0CF
:104C2800C2AFE59B30E03DE59CF0E0FF909BEFE0F4
:104C3800FCA3E024F5F582749B3CF583EFF0909B90
:104C4800EFE475F001121D43539BFE539BFE909BAE
:104C5800EFE0FEA3E0C39480EE94004007909BEF42
:104C6800E4F0A3F0E59B30E10B539BFD539BFD90D3
:104C78009BEEE4F043C901D2AFD007D006D004D0F0
:104C880000D0D0D082D083D0F0D0E03290995EEFBF
:104C9800F0A3ECF0A3EDF0E4F5F1F5F275F304758B
:104CA800F40175F88F30FCFD90995EE0F5FA909963
:104CB80061121F077810121EF38FFB909961121F63
:104CC800077808121EF38FFC909961121F07EF54A2
:104CD800FEFFE48FFDD2FE20FEFD90995FE0FEA36B
:104CE800E0EEF5FA90995FE0A3E054FEF5FB9099A9
:104CF80065E0FEA3E0EEF5FC909965E0A3E054FEC4
:104D0800F5FDD2FE20FEFDE4F5F87F04FE124FA269
:104D180022909779121F8890977CECF0A3EDF0A36E
:104D280074FFF0A3F090977C74FFF5F0121D5945BD
:104D3800F0604D909779E475F001121F71121C8490
:104D4800FF90977EE06FFF909780E4F0A3EFF090DC
:104D58009780E0FEA3E0246DF58274993EF583E028
:104D6800FF90977FE06F90977EF0909780E0A3E0A8
:104D7800246DF582749A3EF583E090977FF080A5C4
:104D880090977EE0FEA3E0FDEEEDFF22C0E0C0F0CC
:104D9800C083C082C0D075D000C000C004C006C0A7
:104DA8000790996BE4F0C2AFE59754016401703A3B
:104DB800E59FF0E0FF909BF1E0FCA3E02475F5820D
:104DC800749C3CF583EFF0909BF1E475F001121DA3
:104DD800435397FE909BF1E0FEA3E0C39480EE94CA
:104DE800004007909BF1E4F0A3F043C901D2AFD093
:104DF80007D006D004D000D0D0D082D083D0F0D055
:104E0800E032C0E0C0F0C083C082C0D075D000C01E
:104E180000C004C006C00790996CE4F0C2AFE5ABCF
:104E280054016401703AE5ADF0E0FF909BF3E0FCBB
:104E3800A3E0246DF582749B3CF583EFF0909BF31F
:104E4800E475F001121D4353ABFE909BF3E0FEA303
:104E5800E0C39480EE94004007909BF3E4F0A3F045
:104E680043C901D2AFD007D006D004D000D0D0D0EB
:104E780082D083D0F0D0E0327B017A97795A90992A
:104E880063E4F0A37402F07F237EA0122A9A90971D
:104E98005AE0A3E030E009E490975AF0A3F08008C4
:104EA80090975AE4F0A304F07B017A97795A909985
:104EB80063E4F0A37402F07F247EA0122D0790977C
:104EC8005AE4F0A3745AF07B017A97795A9099635F
:104ED800E4F0A37402F07F847EA0122D0722C0E0C4
:104EE800C083C082C0D075D000C006C00790996941
:104EF800E4F0C2AF309830E599F0909713E0C3948E
:104F08004074809480501E909969E0FF909713E058
:104F1800FE04F074142EF582E43497F583EFF090D4
:104F280090907401F0C298309907C299909BEDE473
:104F3800F0D2AFD007D006D0D0D082D083D0E03224
:104F4800909779121F8890977CEDF07B007A007912
:104F580000C003C002C001909779121F68D082D0A8
:104F680083D0E06B7008E965827003EA6583602985
:104F780090977CE0602390977CE0FF14F0EF601935
:104F8800909779121F68121C84FF1252DE90977A4C
:104F9800E475F001121D4380DD22909967EEF0A3BD
:104FA800EFF0E4F5F1909967E0FEA3E0EEF5F290FA
:104FB8009967E0A3E0F5F3E4F5F4E4909967F0A3CA
:104FC800F0909967E0FEA3E0C394E8EE9403500FD5
:104FD80085FCFB909967E475F001121D4380E2752A
:104FE800F8AF30FCFDD2FE20FEFDE4F5F8AFFAEF95
:104FF80070C8227E007F087D007B017A9D79391276
:10500800218E7B017A9D7939909963E4F0A3740825
:10501800F07F007E30122D07909D3BE0FEA3E078E4
:1050280003C333CE33CED8F92400FFEE3420FEE498
:10503800FCFD909961121F1F909965E4F0A3740418
:10504800F07D007C307FA5124C942212004EE49033
:105058009763F0909763E0FF3395E0FEC3EF940801
:10506800EE6480948050337F05125202D2B27F05DD
:10507800125202909764E0FF25E0F030B306E04456
:1050880001F08007909764E054FEF0C2B27F0512E9
:105098005202909763E004F080B9909764E0FF2291
:1050A800909769EFF0120056E4A3F090976AE0FF3A
:1050B8003395E0FEC3EF9408EE64809480503090FE
:1050C8009769E030E704D2B38002C2B3909769E0F1
:1050D800FF25E0F07F05125202D2B27F051252027C
:1050E800C2B27F0512520290976AE004F080BC12A7
:1050F800518E2290975AEEF0A3EFF090975AE0A3C2
:10510800E0FFA3E4F0A3EFF07B017A97795C909934
:1051180063E4F0A37402F07F307EC9122D079097E4
:105128005CE4F0A3745AF07B017A97795C909963F8
:10513800E4F0A37402F07F907EC9122D07221200BA
:105148006E124A0F12532E12365B122F7343C90187
:10515800C3E50994F4E5089401400B12408BE4F58B
:1051680008F5091244291238461239EE123416127B
:1051780021DC124B70E50A30E0D3530AFE530AFDD6
:10518800530AFB80C82212004ED2B37F0512520286
:10519800D2B27F05125202E490976BF090976BE0C1
:1051A800C3943274809480501030B30D7F0512522E
:1051B8000290976BE004F080E3C2B27F05125202BE
:1051C8001200562290975AE4F0A3745AF07B017AA1
:1051D80097795A909963E4F0A37402F07F207EC512
:1051E800122D077B017A97795A909963E4F0A3749A
:1051F80002F07F807EC5122D072290976CEFF09009
:10520800976CE06026E4A3F090976DE0FF3395E09B
:10521800FEC3EF9432EE648094805007E0F0E0041F
:10522800F080E590976CE014F080D422E490971316
:10523800F0909090F0FE7F40FD7B017A97791412F0
:10524800218EE490908BF0909754121F2B00000051
:10525800002243B71043C940E4909BEDF075D88015
:1052680075985053877F75BA0375AAE4D29CD2AC5F
:1052780022120056D2B3D2B27F0F125202C2B37FAB
:105288000F125202C2B27F0F12520222120056C2ED
:10529800B37F05125202D2B27F05125202C2B27F08
:1052A8000512520222120056D2B37F05125202D2C0
:1052B800B27F05125202C2B27F051252022275F95C
:1052C8000175B70375BC03E4F5BD75BE0CF580F533
:1052D80090F5A0F5B02290977DEFF0909BEDE064FB
:1052E8000160F87401F090977DE0F599221200565C
:1052F800C2B3D2B27F0F125202D2B37F0F12520240
:1053080012004E2275C870E4F5CDF5CC75CBFF754B
:10531800CAEF43A820D2C822438901758CBC758A7C
:10532800CDD2A9D28C2212523490908C121F2B000D
:105338000000002200000000000000000000000043
:105348000000000000000000000000000000000055
:105358000000000000000000000000000000000045
:105368000000000000000000000000000000000035
:105378000000000000000000000000000000000025
:00000001FF
