:10000000026FEC020006C2AFD2AF32026148C2AF4B
:10001000D2AF3202000E90A798E0FEA3E0FF127864
:0A002000F12222027540127B7622C5
:10002B00027CED90A58C12367F0000300090A590DD
:10003B00E4F0A3740CF07D007C307F5A1271247BAA
:10004B00017AA8794E90A58EE4F0A37418F07F0086
:10005B007E30124FB4E490A383F090A383E0C3945B
:10006B000774809480506EE025E025E0244EF582E5
:10007B00E434A8F58312365BE4FBFAF9F8C31236C5
:10008B0036602290A383E025E025E0244EF582E440
:10009B0034A8F58312365B7B3F7A42790F7800C325
:1000AB00123636502890A383E025E025E0242AF56C
:1000BB0082E434A8F58312365B90A383E025E02518
:1000CB00E0244EF582E434A8F58312367390A383B3
:1000DB00E004F080857B017AA8794E90A58EE4F040
:0C00EB00A37414F07FA07EA61252212204
:1000F800FFFF4457494E543542A97F000041A97873
:100108000042A979000041A97B0041A97C0042A9CD
:100118007D000042A983000042A98100005AA86A14
:100128003FC9002D0064000086000A2D2D203A3AB0
:10013800000000000000000000005AA8843FCC0026
:10014800E60064000086000A2D2D2F3A3A000000D0
:10015800000000000000005AA9213FD0019F006460
:100168000000019F006402F4007D002000171818A9
:1001780002000000603CA8E5400040A0414040105B
:1001880040B04150402040C04160403040D04170B4
:10019800404040E04180405040F041904060410084
:1001A80041A04070411041B04080412041C0409082
:1001B800413041D054A8D141E041F8421042284290
:1001C8004042584270428842A042B848A8C2000043
:1001D80000000000000042A8CA000042A8CF0000AA
:1001E80042A8CC000041A8CE0042A8B0000042A816
:1001F8009E000549949AB2E2CAD4BABAD7D6006E1C
:10020800E094A349443030BBD8B7E7B8DFCEC2008A
:1002180000000000000000000000000000000000D6
:1002280000000049443031BBD8B7E7B5CDCEC20095
:1002380000000000000000000000000000000000B6
:1002480000000049443032BBD8B7E7B8DFCAAA007B
:100258000000000000000000000000000000000096
:1002680000000049443033BBD8B7E7B5CDCAAA006F
:100278000000000000000000000000000000000076
:1002880000000049443034CBCDB7E7B8DFCEC20018
:100298000000000000000000000000000000000056
:1002A80000000049443035CBCDB7E7B5CDCEC2000C
:1002B8000000000000000000000000000000000036
:1002C80000000049443036CBCDB7E7B8DFCAAA00F2
:1002D8000000000000000000000000000000000016
:1002E80000000049443037CBCDB7E7B5CDCAAA00E6
:1002F80000000000000000000000000000000000F6
:1003080000000049443038B1A3C1F40000000000E7
:1003180000000000000000000000000000000000D5
:1003280000000049443039C4DAB2BFCDA8D0C500B6
:1003380000000000000000000000000000000000B5
:10034800000000494431304E5443D2ECB3A30000BE
:100358000000000000000000000000000000000095
:1003680000000049443131B7E7BBFA31B9CAD5CFEB
:100378000000000000000000000000000000000075
:1003880000000049443132B1A3C1F400000000006C
:100398000000000000000000000000000000000055
:1003A80000000049443133B1A3C1F400000000004B
:1003B8000000000000000000000000000000000035
:1003C80000000049443134B1A3C1F400000000002A
:1003D8000000000000000000000000000000000015
:1003E80000000049443135B1A3C1F4000000000009
:1003F80000000000000000000000000000000000F5
:1004080000000049443136CDE2B7E7BBFAB9CAD596
:10041800CF00000000000000000000000000000005
:1004280000000049443137B7E7BBFA31D4CBD0D00C
:10043800B3ACCAB1000000000000000000000000DA
:1004480000000049443138B1A3C1F40000000000A5
:100458000000000000000000000000000000000094
:1004680000000049443139B1A3C1F4000000000084
:100478000000000000000000000000000000000074
:1004880000000049443230B1A3C1F400000000006C
:100498000000000000000000000000000000000054
:1004A80000000049443231B1A3C1F400000000004B
:1004B8000000000000000000000000000000000034
:1004C80000000049443232CDE2B7E7BBFAD4CBD0C2
:1004D800D0B3ACCAB100000000000000000000006A
:1004E80000000049443233B8DFD1B931BFAAB9D8C6
:1004F80000000000000000000000000000000000F4
:1005080000000049443234B8DFD1B931CBF8CBC050
:1005180000000000000000000000000000000000D3
:1005280000000049443235B5CDD1B931BFAAB9D898
:1005380000000000000000000000000000000000B3
:1005480000000049443236B5CDD1B931CBF8CBC023
:100558000000000000000000000000000000000093
:1005680000000049443237C5C5C6F8CEC2B6C83106
:10057800B8E6BEAF00000000000000000000000068
:1005880000000049443238C5C5C6F8CEC2B6C831E5
:10059800CBF8CBC000000000000000000000000005
:1005A80000000049443239B6CCD6DCC6DA31B8E6A8
:1005B800BEAF0000000000000000000000000000C6
:1005C80000000049443330D1B9BBFA31D4CBD0D084
:1005D800B3ACCAB100000000000000000000000039
:1005E80000000049443331B8DFD1B932BFAAB9D8C5
:1005F80000000000000000000000000000000000F3
:1006080000000049443332B8DFD1B932CBF8CBC04F
:1006180000000000000000000000000000000000D2
:1006280000000049443333B5CDD1B9D1B9C1A6B81A
:10063800E6BEAF000000000000000000000000005F
:1006480000000049443334B5CDD1B932CBF8CBC022
:100658000000000000000000000000000000000092
:1006680000000049443335C5C5C6F8CEC2B6C83205
:10067800B8E6BEAF00000000000000000000000067
:1006880000000049443336C5C5C6F8CEC2B6C832E4
:10069800CBF8CBC000000000000000000000000004
:1006A80000000049443337B6CCD6DCC6DA32B8E6A7
:1006B800BEAF0000000000000000000000000000C5
:1006C80000000049443338D1B9BBFA32D4CBD0D07A
:1006D800B3ACCAB100000000000000000000000038
:1006E80000000049443339BCD3CAAAC6F7B5E7C1EC
:1006F800F7B9FDB4F300000000000000000000009E
:1007080000000049443430BCD3CAAAC6F7B8DFCBCE
:10071800AECEBB000000000000000000000000009A
:1007280000000049443431BCD3CAAAC6F7C8B1CBCB
:10073800AE00000000000000000000000000000003
:1007480000000049443432BCD3CAAAC6F7D4CBD07F
:10075800D0B3ACCAB10000000000000000000000E7
:1007680000000049443433BCD3C8C8C6F7B8E6BE55
:10077800AF000000000000000000000000000000C2
:1007880000000049443434BCD3C8C8C6F731B3AC00
:10079800CAB10000000000000000000000000000D6
:1007A80000000049443435BCD3C8C8C6F732B3ACDE
:1007B800CAB10000000000000000000000000000B6
:1007C80000000049443436B6CFB5E7D6D8C6F400A1
:1007D8000000000000000000000000000000000011
:1007E80000000049443437B5E7D4B4CFE0D0F2B4C0
:1007F800EDCEF30000000000000000000000000043
:1008080000000049443438B5E7D4B4C6B5C2CAC6F6
:10081800ABB8DF000000000000000000000000008E
:1008280000000049443439B5E7D4B4C6B5C2CAC6D5
:10083800ABB5CD0000000000000000000000000083
:100848000000004944353041CFE0B9FDD1B900007E
:100858000000000000000000000000000000000090
:100868000000004944353142CFE0B9FDD1B900005C
:100878000000000000000000000000000000000070
:100888000000004944353243CFE0B9FDD1B900003A
:100898000000000000000000000000000000000050
:1008A8000000004944353341CFE0C7B7D1B9000053
:1008B8000000000000000000000000000000000030
:1008C8000000004944353442CFE0C7B7D1B9000031
:1008D8000000000000000000000000000000000010
:1008E8000000004944353543CFE0C7B7D1B900000F
:1008F80000000000000000000000000000000000F0
:100908000000004944353641CFE0C8B1CFE00000CF
:1009180000000000000000000000000000000000CF
:100928000000004944353742CFE0C8B1CFE00000AD
:1009380000000000000000000000000000000000AF
:100948000000004944353843CFE0C8B1CFE000008B
:10095800000000000000000000000000000000008F
:1009680000000049443539C6F8C1F7B6AACAA7B885
:10097800E6BEAF000000000000000000000000001C
:1009880000000049443630B9FDC2CBCDF8D4CBD0F5
:10099800D0B3ACCAB10000000000000000000000A5
:1009A80000000049443631B9FDC2CBCDF8B6C2B813
:1009B800E6BEAF00000000000000000000000000DC
:1009C80000000049443632D4B6B3CCB9D8BBFAB823
:1009D800E6BEAF00000000000000000000000000BC
:1009E80000000049443633D2E7CBAEB8E6BEAF00CC
:1009F80000000000000000000000000000000000EF
:100A080000000049443634C8BABFD8CDA8D0C5D2F2
:100A1800ECB3A3000000000000000000000000008C
:100A280000000049443635B1A3C1F40000000000BD
:100A380000000000000000000000000000000000AE
:100A480000000049443636B5CDB9FDC8C8B6C8312E
:100A5800B8E6BEAF00000000000000000000000083
:100A680000000049443637B5CDB9FDC8C8B6C8320C
:100A7800B8E6BEAF00000000000000000000000063
:100A880000000049443638D1CCCEEDB8E6BEAF0000
:100A9800000000000000000000000000000000004E
:100AA80000000049443639D3C3BBA7D7D4B6A8D26F
:100AB800E5B8E6BEAF00000000000000000000003E
:100AC80000000049443730B5E7D4B4D2ECB3A300F2
:100AD800000000000000000000000000000000000E
:100AE80000000049443731B1A3C1F4000000000000
:100AF80000000000000000000000000000000000EE
:100B080000000049443732B1A3C1F40000000000DE
:100B180000000000000000000000000000000000CD
:100B280000000049443733B1A3C1F40000000000BD
:100B380000000000000000000000000000000000AD
:100B480000000049443734B1A3C1F400000000009C
:100B5800000000000000000000000000000000008D
:100B680000000049443735B1A3C1F400000000007B
:100B7800000000000000000000000000000000006D
:100B880000000049443736B5CDD1B9D1B9C1A60066
:100B9800000000000000000000000000000000004D
:100BA80000000049443737B1A3C1F4000000000039
:100BB800000000000000000000000000000000002D
:100BC80000000049443738B5CDD1B9B4A5B8D0C66E
:100BD800F7D2ECB3A3000000000000000000000002
:100BE80000000049443739B8DFD1B9B4A5B8D0C638
:100BF800F7D2ECB3A30000000000000000000000E2
:100C080000000049443830C5C5CBAEB8DFCBAECE06
:100C1800BB00000000000000000000000000000011
:100C280000000049443831BCD3CAAAC6F7D2ECB395
:100C3800A300000000000000000000000000000009
:100C480000000049443832B7E7D1B9B9FDB5CD0045
:100C5800000000000000000000000000000000008C
:100C680000000049443833B1A3C1F400000000007B
:100C7800000000000000000000000000000000006C
:100C880000000049443834B8DFD1B931D1B9C1A620
:100C9800000000000000000000000000000000004C
:100CA80000000049443835B1A3C1F4000000000039
:100CB800000000000000000000000000000000002C
:100CC800000000494438364D4F5031B8E6BEAF00F9
:100CD800000000000000000000000000000000000C
:100CE800000000494438374D4F5032B8E6BEAF00D7
:100CF80000000000000000000000000000000000EC
:100D0800000000494438384C4F5031B8E6BEAF00B7
:100D180000000000000000000000000000000000CB
:100D2800000000494438394C4F5032B8E6BEAF0095
:100D380000000000000000000000000000000000AB
:100D480000000049443930C9E8B1B8CAB9D3C3B3BF
:100D5800ACCAB10000000000000000000000000064
:100D680000000049443931B1A3C1F400000000007B
:100D7800000000000000000000000000000000006B
:100D880000000049443932B1A3C1F400000000005A
:100D9800000000000000000000000000000000004B
:100DA80000000049443933B1A3C1F4000000000039
:100DB800000000000000000000000000000000002B
:100DC800000000D2BCB7A1C8FECBC1CEE9C2BDC6E7
:100DD800E2B0C6BEC1CAB0D2BCB7A1C8FECBC1CEB4
:100DE800E9C2BD3031323334353637383961626360
:100DF8006465663031323334353637383961626389
:100E080064656649443936B1A3C1F40000000000A6
:100E180000000000000000000000000000000000CA
:100E280000000049443937B1A3C1F40000000000B4
:100E380000000000000000000000000000000000AA
:100E480000000049443938B1A3C1F4000000000093
:100E5800000000000000000000000000000000008A
:100E680000000049443939B1A3C1F4000000000072
:100E7800000000000000000000000000000000006A
:100E88000000004944313030B1A3C1F40000000033
:100E9800000000000000000000000000000000004A
:100EA8000000004944313031B1A3C1F40000000012
:100EB800000000000000000000000000000000002A
:100EC8000000004944313032B1A3C1F400000000F1
:100ED800000000000000000000000000000000000A
:100EE8000000004944313033B1A3C1F400000000D0
:100EF80000000000000000000000000000000000EA
:100F08000000004944313034B1A3C1F400000000AE
:100F180000000000000000000000000000000000C9
:100F28000000004944313035B1A3C1F4000000008D
:100F380000000000000000000000000000000000A9
:100F48000000004944313036B1A3C1F4000000006C
:100F58000000000000000000000000000000000089
:100F68000000004944313037B1A3C1F4000000004B
:100F78000000000000000000000000000000000069
:100F88000000004944313038B1A3C1F4000000002A
:100F98000000000000000000000000000000000049
:100FA8000000004944313039B1A3C1F40000000009
:100FB8000000000000000000000000000000000029
:100FC8000000004944313130B1A3C1F400000000F1
:100FD8000000000000000000000000000000000009
:100FE8000000004944313131B1A3C1F400000000D0
:100FF80000000000000000000000000000000000E9
:101008000000004944313132B1A3C1F400000000AE
:1010180000000000000000000000000000000000C8
:101028000000004944313133B1A3C1F4000000008D
:1010380000000000000000000000000000000000A8
:101048000000004944313134B1A3C1F4000000006C
:101058000000000000000000000000000000000088
:10106800000000D2BCB7A1C8FECBC1CEE9C2BDC644
:10107800E2B0C6BEC1CAB0D2BCB7A1C8FECBC1CE11
:10108800E9C2BD30313233343536373839616263BD
:1010980064656630313233343536373839616263E6
:1010A8006465660000000000000000000000000009
:1010B8000000000000000000000000000000000028
:1010C8000000000000000000000000000000000018
:1010D8000000000000000000000000000000000008
:1010E80000000041A9850047A94F0000000000004A
:1010F8000048A95E000000000000000048A9560052
:1011080000000000000000C10042A94D000052A9E3
:101118003B0000000000000000000000000000008C
:1011280000000042A968000042A96A000042A966BE
:10113800000044A9740000000042A96C000044A902
:101148006E0000000002080000040B00000000040C
:101158000F0000000042A9720000010A006100A50A
:101168009500C1814001C0804101C0804100C1811A
:101178004001C0804100C1814000C1814001C08060
:101188004101C0804100C1814000C1814001C0804F
:101198004100C1814001C0804101C0804100C1813E
:1011A8004001C0804100C1814000C1814001C08030
:1011B8004100C1814001C0804101C0804100C1811E
:1011C8004000C1814001C0804101C0804100C1810F
:1011D8004001C0804100C1814000C1814001C08000
:1011E8004101C0804100C1814000C1814001C080EF
:1011F8004100C1814001C0804101C0804100C181DE
:101208004000C1814001C0804101C0804100C181CE
:101218004001C0804100C1814000C1814001C080BF
:101228004100C1814001C0804101C0804100C181AD
:101238004001C0804100C1814000C1814001C0809F
:101248004101C0804100C1814000C1814001C0808E
:101258004100C1814001C0804101C0804100C1817D
:10126800406100A69500C0C101C30302C2C60607BB
:10127800C705C5C404CC0C0DCD0FCFCE0E0ACACB02
:101288000BC90908C8D81819D91BDBDA1A1EDEDF02
:101298001FDD1D1CDC14D4D515D71716D6D2121392
:1012A800D311D1D010F03031F133F3F23236F6F7F2
:1012B80037F53534F43CFCFD3DFF3F3EFEFA3A3B42
:1012C800FB39F9F83828E8E929EB2B2AEAEE2E2F22
:1012D800EF2DEDEC2CE42425E527E7E62622E2E3D2
:1012E80023E12120E0A06061A163A3A26266A6A712
:1012F80067A56564A46CACAD6DAF6F6EAEAA6A6B82
:10130800AB69A9A86878B8B979BB7B7ABABE7E7F81
:10131800BF7DBDBC7CB47475B577B7B67672B2B311
:1013280073B17170B0509091519353529296565731
:1013380097559594549C5C5D9D5F9F9E5E5A9A9BC1
:101348005B99595898884849894B8B8A4A4E8E8FA1
:101358004F8D4D4C8C448485458747468682424351
:101368008341818040419415004184E00044949673
:10137800000000004184DB004484DC000000006FB2
:101388002684EF5A021003C80250155016000000B8
:10139800FF5A020303C8000000A020031C00FF5AE4
:1013A800020301C8010039A023031900FF5A0206ED
:1013B80001C803A084A024010000395A020301C80F
:1013C800010039A025010400FF5A020601C802A045
:1013D80087A027010400FF5A020301C8010039A0B1
:1013E8002801CC00FF5A020303C8010039A0A0015C
:1013F8001A00FF5A020302C8000000A0A30310004D
:10140800FF5A020302C801000AAA00032600FF5A75
:10141800020308C801000AAA02034100FF5A020396
:1014280001C801000AAA0A036F00FF5A020301C893
:1014380001000AAA0B037700FF5A020301C8010042
:101448000AAA0C036500FF5A020301C801000AAA90
:101458000D036C00FF5A020301C801000AAA0E031B
:101468004F00FF5A020301C801000AAA0F036900CE
:10147800FF5A02031FC801000BAB20038C00FF5A60
:10148800020601C803AC80AC20023A000C5A0203E1
:1014980006C800000DAEA0032000FF5A020307C8CB
:1014A80003B300B320011A00135A020601C803B39C
:1014B80080B320011A00135A020601C803B382B38D
:1014C80022011C00135A020601C803B383B3230187
:1014D8001D00135A020601C803B384B324011E0079
:1014E800135A020601C803B385B325011F00135A16
:1014F800020601C803B386B326012000135A02036B
:101508000BC803B400B420015800145A020301C8E0
:1015180003B400B42B013B00145A020301C803B4FE
:1015280000B42C019E00145A020601C803B480B40A
:1015380020015800145A020601C803B481B42101DD
:101548005900145A020601C803B483B423015B008E
:10155800145A020601C803B484B424015C00145A66
:10156800020601C803B485B425015D00145A0206B9
:1015780001C803B486B426015E00145A020601C8E5
:1015880003B487B427015F00145A020601C803B4E4
:1015980088B428016000145A020601C803B48AB44A
:1015A8002A016200145A020601C803B48BB42B0145
:1015B8003B00145A020601C803B48CB42C019E00E7
:1015C800145A020306C803B700B720013B00175A94
:1015D800020305C803B700B726014300175A0206DD
:1015E80001C803B780B720013B00175A020601C89B
:1015F80003B784B724013F00175A020601C803B78E
:1016080085B725014000175A020601C803B786B7F7
:1016180026014300175A020601C803B787B72701F6
:101628004400175A020601C803B788B728014500C5
:10163800175A020601C803B789B729014600175A85
:10164800020601C803B78AB72A014700175A0203DE
:1016580001C803B800B820016A00185A020303C879
:1016680003B800B821016D00185A020301C803B875
:1016780000B824017200185A020301C803B800B860
:1016880025017400185A020301C803B800B82601DE
:101698007B00185A020301C803B800B827022A00C1
:1016A800185A020301C803B800B828017300185A71
:1016B800020601C803B880B820016A00185A020659
:1016C80001C803B881B821016D00185A020601C883
:1016D80003B882B822016E00185A020601C803B87E
:1016E80083B823016F00185A020601C803B884B8EA
:1016F80024017200185A020601C803B885B82501EA
:101708007400185A020601C803B886B826017B007F
:10171800185A020601C803B887B827022A00185ABF
:10172800020601C803B888B828017300185A0203D2
:1017380001C803BB00BB2001B0001B5A020302C84A
:1017480003BB00BB2101B2001B5A020302C803BB42
:1017580000BB2301B5001B5A020302C803BB00BB30
:101768002501B8001B5A020301C803BB00BB2701AF
:10177800BB001B5A020302C803BB00BB2801D100EF
:101788001B5A020302C803BB00BB2A01FB001B5AF9
:10179800020302C803BB00BB2C0276001B5A0203DB
:1017A80001C803BB00BB2E01DC001B5A020601C89E
:1017B80003BB80BB2001B0001B5A020601C803BB53
:1017C80081BB2101B2001B5A020601C803BB82BBC0
:1017D8002201B3001B5A020601C803BB83BB2301C5
:1017E800B5001B5A020601C803BB84BB2401B6001E
:1017F8001B5A020601C803BB85BB2501B8001B5A4A
:10180800020601C803BB86BB2601B9001B5A0206A3
:1018180001C803BB87BB2701BB001B5A020601C8CE
:1018280003BB88BB2801D1001B5A020601C803BBB1
:1018380089BB2901D2001B5A020601C803BB8ABB17
:101848002A01FB001B5A020601C803BB8BBB2B01F4
:10185800FC001B5A020601C803BB8CBB2C02760095
:101868001B5A020601C803BB8DBB2D0277001B5A09
:10187800020601C803BB8EBB2E01DC001B5A020303
:1018880002C803BC00BC200232001C5A020301C873
:1018980003BC00BC220252001C5A020301C803BC4C
:1018A80000BC230255001C5A020301C803BC00BC3B
:1018B800240258001C5A020301C803BC00BC2502BC
:1018C80061001C5A020302C803BC00BC2602710056
:1018D8001C5A020301C803BC00BC280286001C5A1B
:1018E800020601C803BC80BC200232001C5A020652
:1018F80001C803BC81BC210233001C5A020601C87E
:1019080003BC82BC220252001C5A020601C803BC56
:1019180083BC230255001C5A020601C803BC84BCC0
:10192800240258001C5A020601C803BC85BC2502C3
:1019380061001C5A020601C803BC86BC260271005D
:101948001C5A020601C803BC87BC270272001C5A35
:10195800020601C803BC88BC280286001C5A020380
:1019680002C803BF00BF200102001F5A020301C8BA
:1019780003BF00BF220107001F5A020301C803BFAB
:1019880000BF2301A5001F5A020601C803BF80BF7C
:10199800200102001F5A020601C803BF81BF2101AE
:1019A80003001F5A020601C803BF82BF22010700B5
:1019B8001F5A020601C803BF83BF2301A5001F5A8F
:1019C800020308C803C200C220018200225A02038F
:1019D80001C803C200C228018C00225A020301C8B0
:1019E80003C200C229019800225A020601C803C294
:1019F80080C220018200225A020601C803C281C2A5
:101A080021018300225A020601C803C282C22201B0
:101A18008400225A020601C803C284C22401860037
:101A2800225A020601C803C285C225018700225A2C
:101A3800020601C803C286C226018800225A02068D
:101A480001C803C287C227018900225A020601C8B9
:101A580003C288C228018C00225A020601C803C2A8
:101A680089C229019800225A020601C803C580C507
:101A780020023B000F5A020301C803C700C7200118
:101A8800A600275A020301C803C700C72101A900FD
:101A9800275A020301C803C700C72501AB00275A0C
:101AA800020301C803C700C72602D900275A020348
:101AB80001C803C700C72702D800275A020302C873
:101AC80003C700C72802CE00275A020301C8010035
:101AD80027A025010400FF5A020601C803C780C7D2
:101AE8002001A600275A020601C803C781C72101A1
:101AF800A900275A020601C803C782C72201A80005
:101B0800275A020301C8010027C723037500FF5A9B
:101B1800020301C8010027C724037700FF5A020601
:101B280001C803C785C72501AB00275A020601C8AB
:101B380003C786C72602D900275A020601C803C769
:101B480087C72702D800275A020601C803C788C7D3
:101B58002802CE00275A020601C803C789C72902EE
:101B6800CF00275A020301C803C800C82001270074
:101B7800285A020301C803C800C821012900285AAD
:101B8800020304C803C800C822012D00285A020312
:101B980001C803C800C826019000285A020301C8DA
:101BA80003C800C827019400285A020601C803C8C0
:101BB80080C820012700285A020601C803C881C826
:101BC80021012900285A020601C803C882C8220137
:101BD8002D00285A020601C803C883C823012E0015
:101BE800285A020601C803C884C824012F00285AAD
:101BF800020601C803C885C825013000285A020614
:101C080001C803C886C826019000285A020601C8E0
:101C180003C887C827019400285A02030EC8010088
:101C280029C9B0037800FF5A020601C803C990C940
:101C380030023C00295A020303C803CC00CCA0039D
:101C480002002C5A020304C803CF00CF20010D0064
:101C58002F5A020301C803CF00CF240141002F5A95
:101C6800020301C803CF00CF25015A002F5A0203EF
:101C780001C803CF00CF2602D0002F5A020301C8A3
:101C880003CF00CF27019D002F5A020601C803CFBA
:101C980080CF20010D002F5A020601C803CF81CF43
:101CA80021010E002F5A020601C803CF82CF22015C
:101CB8000F002F5A020601C803CF83CF230110005B
:101CC8002F5A020601C803CF84CF240141002F5A9E
:101CD800020601C803CF85CF25015A002F5A0206F4
:101CE80001C803CF86CF2602D0002F5A020601C8AA
:101CF80003CF87CF27019D002F5A020601C803CFC3
:101D08008ACF2A023B002F5A02030AC8010034D4A2
:101D180020039C00FF5A020302C8010034D42A039E
:101D2800A800FF5A020307C803D500D520011A00EE
:101D3800355A020601C803D580D520011A00355A44
:101D4800020601C803D582D522011C00355A0206B5
:101D580001C803D583D523011D00355A020601C8E1
:101D680003D584D524011E00355A020601C803D5BF
:101D780085D525011F00355A020601C803D586D529
:101D880026012000355A020301C803D600D62001D7
:101D98000800365A020302C803D600D621010A00F9
:101DA800365A020301C803D600D62301A700365AC3
:101DB800020601C803D680D620010800365A02065A
:101DC80001C803D681D621010A00365A020601C885
:101DD80003D682D622010B00365A020601C803D662
:101DE80083D62301A700365A020301C803D700D7B8
:101DF8002002F400375A020301C803D700D7210193
:101E0800CC00375A020601C803D780D72002F40055
:101E1800375A020601C803D781D72101CC00375AA7
:101E2800020301C803D800D82001F500385A02037C
:101E380001C803D800D821020700385A02030CC889
:101E480003D800D82201BC00385A020301C803D8BD
:101E580000D82E027D00385A020301C803D800D8E2
:101E68002F027F00385A020301C803D800D8300275
:101E78000F00385A020601C803D880D82001F5009F
:101E8800385A020601C803D881D821020700385AF7
:101E9800020601C803D882D82201BC00385A0206BB
:101EA80001C803D883D82301BD00385A020601C8E7
:101EB80003D884D82401BE00385A020601C803D8C2
:101EC80085D82501BF00385A020601C803D886D82C
:101ED8002601C000385A020601C803D887D827014E
:101EE800C100385A020601C803D888D82801C200A0
:101EF800385A020601C803D889D82901C300385ABC
:101F0800020601C803D88AD82A01C400385A020632
:101F180001C803D88BD82B01C500385A020601C85E
:101F280003D88CD82C01C600385A020601C803D839
:101F38008DD82D01C700385A020601C803D88ED89B
:101F48002E027D00385A020601C803D88FD82F0206
:101F58007F00385A020601C803D890D830020F0013
:101F6800385A020301C801003ADA2003CD00FF5AAB
:101F7800020301C801003ADA2103CF00FF5A020325
:101F880002C801003ADA2203D100FF5A020301C84D
:101F980001003ADA2403D500FF5A020301C8010000
:101FA8003ADA2503D700FF5A020301C801003ADADA
:101FB8002603D900FF5A020301C801003ADA2703B1
:101FC800DB00FF5A020301C801003ADA2803DD00EA
:101FD800FF5A020301C803DB00DB20019A003B5AC9
:101FE800020301C803DB00DB2102D3003B5A0203D2
:101FF80002C803DB00DB2202D5003B5A020302C8F9
:1020080003DB00DB2402D8003B5A020305C803DBCC
:1020180000DB2602DB003B5A020301C803DB00DBBE
:102028002B0106003B5A020301C803DB00DB2C022C
:10203800E1003B5A020302C803DB00DB2D02E40087
:102048003B5A020601C803DB80DB20019A003B5A99
:10205800020601C803DB81DB2102D3003B5A0206DA
:1020680001C803DB82DB2202D5003B5A020601C805
:1020780003DB83DB2302D6003B5A020601C803DBDD
:1020880084DB2402D8003B5A020601C803DB85DB47
:102098002502D9003B5A020601C803DB86DB26026B
:1020A800DB003B5A020601C803DB87DB2702DC00A2
:1020B8003B5A020601C803DB88DB2802DD003B5AD5
:1020C800020601C803DB89DB2902DE003B5A02064F
:1020D80001C803DB8ADB2A02DF003B5A020601C87B
:1020E80003DB8BDB2B0106003B5A020601C803DB2E
:1020F8008CDB2C02E1003B5A020601C803DB8DDBB6
:102108002D02E4003B5A020601C803DB8EDB2E02D7
:10211800E5003B5A020301C803DD00DD20019B00F6
:102128003D5A020304C803DD00DD2101E7003D5AE2
:10213800020302C803DD00DD2501ED003D5A020659
:1021480001C803DD80DD20019B003D5A020601C85D
:1021580003DD81DD2101E7003D5A020601C803DDE8
:1021680082DD2201E8003D5A020601C803DD83DD55
:102178002301E9003D5A020601C803DD84DD24017C
:10218800EA003D5A020601C803DD85DD2501ED00A0
:102198003D5A020601C803DD86DD2601EE003D5AE0
:1021A800020301C801003EDE20037500FF5A020346
:1021B80001C801003EDE21037700FF5A020303C86D
:1021C80003DF00DF200237003F5A020306C803DF9F
:1021D80000DF23029E003F5A020601C803DF80DFAA
:1021E800200237003F5A020601C803DF81DF2102BF
:1021F80038003F5A020601C803DF82DF2202390095
:102208003F5A020606C803DF83DF23029E003F5AB7
:10221800020606C803DF84DF24029F003F5A020635
:1022280006C803DF85DF2502A0003F5A020606C85C
:1022380003DF86DF2602A1003F5A020606C803DF35
:1022480087DF2702A2003F5A020606C803DF88DF9D
:102258002802A3003F5A020301C8010039E1200205
:10226800F500FF5A020301C8010041E12002F50010
:10227800FF5A020302C8010041E12102F600FF5A99
:10228800020601C803E183E12302F800415A02066D
:1022980001C803E183E12402F900415A020601C89A
:1022A80003D780D72002F400414E84E100000000EB
:1022B80000000000000000000000428001000064EF
:1022C800D880035A13B320B350B3805A13B322B340
:1022D80052B3825A13B323B353B3835A13B324B3F9
:1022E80054B3845A13B325B355B3855A13B326B3DD
:1022F80056B3865A14B420B450B4805A14B421B4D6
:1023080051B4815A14B423B453B4835A14B424B4C2
:1023180054B4845A14B425B455B4855A14B426B4A4
:1023280056B4865A14B427B457B4875A14B428B488
:1023380058B4885A14B42AB45AB48A5A14B42BB468
:102348005BB48B5A14B42CB45CB48C5A17B720B74E
:1023580050B7805A17B724B754B7845A17B725B758
:1023680055B7855A17B726B756B7865A17B727B736
:1023780057B7875A17B728B758B7885A17B729B71A
:1023880059B7895A17B72AB75AB78A5A18B820B806
:1023980050B8805A18B821B851B8815A18B822B81C
:1023A80052B8825A18B823B853B8835A18B824B800
:1023B80054B8845A18B825B855B8855A18B826B8E4
:1023C80056B8865A18B827B857B8875A18B828B8C8
:1023D80058B8885A1BBB20BB50BB805A1BBB21BBBB
:1023E80051BB815A1BBB22BB52BB825A1BBB23BBAE
:1023F80053BB835A1BBB24BB54BB845A1BBB25BB92
:1024080055BB855A1BBB26BB56BB865A1BBB27BB75
:1024180057BB875A1BBB28BB58BB885A1BBB29BB59
:1024280059BB895A1BBB2ABB5ABB8A5A1BBB2BBB3D
:102438005BBB8B5A1BBB2CBB5CBB8C5A1BBB2DBB21
:102448005DBB8D5A1BBB2EBB5EBB8E5A1CBC20BC11
:1024580050BC805A1CBC21BC51BC815A1CBC22BC3B
:1024680052BC825A1CBC23BC53BC835A1CBC24BC1F
:1024780054BC845A1CBC25BC55BC855A1CBC26BC03
:1024880056BC865A1CBC27BC57BC875A1CBC28BCE7
:1024980058BC885A1FBF20BF50BF805A1FBF21BFDA
:1024A80051BF815A1FBF22BF52BF825A1FBF23BFCD
:1024B80053BF835A22C220C250C2805A22C221C2AC
:1024C80051C2815A22C222C252C2825A22C224C294
:1024D80054C2845A22C225C255C2855A22C226C273
:1024E80056C2865A22C227C257C2875A22C228C257
:1024F80058C2885A22C229C259C2895A27C720C736
:1025080050C7805A27C721C751C7815A27C725C72F
:1025180055C7855A27C726C756C7865A27C727C704
:1025280057C7875A27C728C758C7885A27C729C7E8
:1025380059C7895A28C820C850C8805A28C821C8ED
:1025480051C8815A28C822C852C8825A28C823C8E4
:1025580053C8835A28C824C854C8845A28C825C8C8
:1025680055C8855A28C826C856C8865A28C827C8AC
:1025780057C8875A2FCF20CF50CF805A2FCF21CF7F
:1025880051CF815A2FCF22CF52CF825A2FCF23CF6C
:1025980053CF835A2FCF24CF54CF845A2FCF25CF50
:1025A80055CF855A2FCF26CF56CF865A2FCF27CF34
:1025B80057CF875A35D520D550D5805A35D522D50D
:1025C80052D5825A35D523D553D5835A35D524D5F6
:1025D80054D5845A35D525D555D5855A35D526D5DA
:1025E80056D5865A36D620D650D6805A36D621D6D3
:1025F80051D6815A36D622D652D6825A36D623D6C4
:1026080053D6835A37D720D750D7805A37D721D7B0
:1026180051D7815A38D820D850D8805A38D821D89C
:1026280051D8815A38D822D852D8825A38D823D883
:1026380053D8835A38D824D854D8845A38D825D867
:1026480055D8855A38D826D856D8865A38D827D84B
:1026580057D8875A38D828D858D8885A38D829D82F
:1026680059D8895A38D82AD85AD88A5A38D82BD813
:102678005BD88B5A38D82CD85CD88C5A38D82DD8F7
:102688005DD88D5A38D82ED85ED88E5A38D82FD8DB
:102698005FD88F5A38D830D860D8905A3BDB20DBC7
:1026A80050DB805A3BDB21DB51DB815A3BDB22DBF1
:1026B80052DB825A3BDB23DB53DB835A3BDB24DBD5
:1026C80054DB845A3BDB25DB55DB855A3BDB26DBB9
:1026D80056DB865A3BDB27DB57DB875A3BDB28DB9D
:1026E80058DB885A3BDB29DB59DB895A3BDB2ADB81
:1026F8005ADB8A5A3BDB2BDB5BDB8B5A3BDB2CDB65
:102708005CDB8C5A3BDB2DDB5DDB8D5A3BDB2EDB48
:102718005EDB8E5A3DDD20DD50DD805A3DDD21DD5A
:1027280051DD815A3DDD22DD52DD825A3DDD23DD5A
:1027380053DD835A3DDD24DD54DD845A3DDD25DD3E
:1027480055DD855A3DDD26DD56DD865A3FDF20DF23
:1027580050DF805A3FDF21DF51DF815A3FDF22DF20
:1027680052DF825A3FDF23DF53DF835A3FDF24DF04
:1027780054DF845A3FDF25DF55DF855A3FDF26DFE8
:1027880056DF865A3FDF27DF57DF875A3FDF28DFCC
:1027980058DF885A41D720D750D780418000005C45
:1027A800A84E00000000000000000000000000002B
:1027B80000000000000000000000000000005CA80D
:1027C8002A0000000000000001000000020002735F
:1027D80060000A2D080002EA800007ED6541A8267E
:1027E800FF608CA79A0000010002000300040005A6
:1027F8000006000700080009000A000B000C000D85
:10280800000E000F01100011001202130014001531
:102818000016001700180019001A001B021C001DE2
:10282800001E001F00200021002200230024002594
:102838000026022700280029002A002B002C002D42
:10284800002E002F033000310032003300340035F1
:102858000036003705380039003A003B003C003D9F
:10286800003E003F00400041004200430044004554
:102878000048A846000101030203030642A82800F5
:102888000042A798000042A795000041A7970000C2
:10289800AF13EF1313543F54016401600302325C19
:1028A8007B017AA3798390A58EF0A3740CF07F2125
:1028B8007EA0124FB490A385E0FEA3E0FF90A3830F
:1028C800E0FCA3E02FFFEC3EFE90A8B0E0FCA3E004
:1028D8006F7002EE6C605890A385E0FEA3E0FF9055
:1028E800A383E0FCA3E02FFFEC3EFE90A8B0E0FC41
:1028F800A3E0C39FEC9E501D90A38DE4F0A304F0C9
:10290800FB7AA3798D90A58EE4F0A37402F07F265C
:102918007EA012522190A385E0FEA3E0FF90A3833E
:10292800E0FCA3E02FFFEC3E90A8B0F0A3EFF090FE
:10293800A383E0FEA3E0D39400EE9400500CA3E040
:10294800FEA3E09400EE9400402090A38DE0FEA347
:10295800E04E60167B017AA8799E90A58EE4F0A3DC
:102968007402F07FA07E0012522190A97FE0FEA39E
:10297800E0640D4E6003022D1990A97FE0A3E0FFEB
:1029880090A8CAE0FCA3E06F7002EC6E601EE490B1
:10299800A8CFF0A3F07B017AA879CF90A58EF0A3F9
:1029A8007402F07F017EAE12522180167B017AA854
:1029B80079CF90A58EE4F0A37402F07F017EAE1269
:1029C8004FB47B017AA3798390A58EE4F0A37410A9
:1029D800F07FA07EAE124FB4E490A391F0A3E05430
:1029E80007F07B017AA879A078837CA37D017E001B
:1029F8007F101238BEEF702F90A8CCE0FEA3E0FF46
:102A080090A8CFE0FCA3E0B5071DECB5061990A986
:102A18007FE0FEA3E0FF90A8CAE0FCA3E06F70028D
:102A2800EC6E700302300E7B017AA3798378A07C68
:102A3800A87D017E007F1012332DE490A8CEF0907F
:102A4800A3B6F090A3B6E0C39408748094804003C2
:102A5800022CC1E490A3B5F090A3B5E0C394107420
:102A68008094804003022CB8A3E0C454F0FF90A3E4
:102A7800B5E02F90A3BAF0E075F018A42400FFE5A4
:102A8800F03435FE7B017AA3798390A58EE4F0A318
:102A98007430F0124FB47B017AA3798390A3B712F4
:102AA80036DC90A3B5E0FF7E007401A80708800516
:102AB800C333CE33CED8F9FF90A3B6E025E024A0E7
:102AC800F582E434A8F583E0FCA3E0FDEE5CFEEFBC
:102AD8005D4E7003022C0F90A3B71236BC123474EB
:102AE800645A7004E5F064A57003022BAC90A3B798
:102AF8001236BC74A575F05A1234D77B017AA379C3
:102B08009790A58EE4F0A37408F07F107E00124F12
:102B1800B47B017AA3799778857CA37D017E007FB9
:102B28000312332D7B017AA3799B78887CA37D01DE
:102B38007E007F0312332D7E007F087D007B017AA3
:102B4800A3798B1238E290A3BAE0FF90A391E4F046
:102B5800A3EFF07B017AA37993C002C00190A3BAD6
:102B680075F020A424A3F9749435F0FA90A3CE123A
:102B780036DC90A3D1E4F0A37420F0D001D0021287
:102B8800747290A3BAE075F018A42400FFE5F0343D
:102B980035FE7B017AA3798390A58EE4F0A3743087
:102BA800F012522190A8CFE0FEA3E0FF7C007D0A3E
:102BB8001233AB90A8CEE0C39FEC9E4041A3E0FE49
:102BC800A3E0FF1233ABEF240AFFE43EFE90A8CE49
:102BD800E0C39FEC9E502790A3BAE075F018A42498
:102BE80000FDE5F03435FC90A8CFE0A3E075F00ACD
:102BF800A4FF90A8CEE0C39FFF7B0D12665B90A850
:102C0800CEE004F0022CAF90A3B71236BC12347495
:102C1800645A7004E5F064A56003022CAF7B017A66
:102C2800A3799790A58EF0A37408F07F107E001208
:102C38004FB47B017AA37997788B7CA37D017E00C2
:102C48007F0312332D7B017AA3799B788E7CA37D39
:102C5800017E007F0312332D90A3BAE0FF90A39169
:102C6800E4F0A3EFF07B017AA3798390A58EE4F0DA
:102C7800A37410F07F007E30125221126BDDE490B5
:102C8800A383F0A3F090A3BAE075F018A42400FF82
:102C9800E5F03435FE7B017AA3798390A58EE4F0C4
:102CA800A37402F012522190A3B5E004F0022A6046
:102CB80090A3B6E004F0022A4B90A8CEE090A3B50A
:102CC800F090A8CFE0FEA3E0FF7C007D0A1233ABB2
:102CD800EF240AFFE43EFE90A3B5E0C39FEC9E50AC
:102CE8001D90A8CFE0A3E075F00AA4FF90A3B5E07B
:102CF800C39FFF12651C90A3B5E004F080C390A8A1
:102D0800CFE0FEA3E0FF90A8CCEEF0A3EFF00230F6
:102D18000E7B017AA3798390A58EE4F0A37410F05A
:102D28007FA07EAE124FB4E490A391F0A3E05407C5
:102D3800F07B017AA879A078837CA37D017E007F4F
:102D4800101238BEEF700302300E7B017AA379832C
:102D580078B77CA37D017E007F1012332DE490A309
:102D6800B6F090A3B6E0C394067480948040030242
:102D78002FFBE490A3B5F090A3B5E0C39410748042
:102D880094804003022FF2E0FF7E007401A8070838
:102D98008005C333CE33CED8F9FF90A3B6E025E043
:102DA80024B7F582E434A3F583E0FCA3E0FDEE5CF0
:102DB800FCEF5DFD90A3B5E0FF7E007401A8070855
:102DC8008005C333CE33CED8F9FF90A3B6E025E013
:102DD80024A0F582E434A8F583E0FAA3E0FBEE5AD8
:102DE800FEEF5B6D7002EE6C7003022FE990A3B6E4
:102DF800E0C454F0FF90A3B5E02F90A3CAF0E075AB
:102E0800F018A42400FFE5F03435FE7B017AA3799D
:102E18008390A58EE4F0A37430F0124FB47B017A4E
:102E2800A3798390A3C71236DC90A3B5E0FF7E0098
:102E38007401A807088005C333CE33CED8F9FF90B4
:102E4800A3B6E025E024B7F582E434A3F583E0FCDB
:102E5800A3E0FDEE5CFEEF5D4E7003022F3690A3FB
:102E6800C71236BC123474645A7004E5F064A57055
:102E780003022FE990A3C71236BC74A575F05A1245
:102E880034D77B017AA3799790A58EE4F0A37408D0
:102E9800F07F107E00124FB47B017AA37997788572
:102EA8007CA37D017E007F0312332D7B017AA379F9
:102EB8009B78887CA37D017E007F0312332D7E00E2
:102EC8007F087D007B017AA3798B1238E290A3CA30
:102ED800E0FF90A391E4F0A3EFF07B017AA379934C
:102EE800C002C00190A3CA75F020A424A3F9749469
:102EF80035F0FA90A3CE1236DC90A3D1E4F0A37497
:102F080020F0D001D00212747290A3CAE075F018B4
:102F1800A42400FFE5F03435FE7B017AA379839081
:102F2800A58EE4F0A37430F0125221022FE990A389
:102F3800C71236BC123474645A7004E5F064A56094
:102F480003022FE97B017AA3799790A58EF0A374E9
:102F580008F07F107E00124FB47B017AA37997782E
:102F68008B7CA37D017E007F0312332D7B017AA326
:102F7800799B788E7CA37D017E007F0312332D9090
:102F8800A3CAE0FF90A391E4F0A3EFF07B017AA33A
:102F9800798390A58EE4F0A37410F07F007E301240
:102FA8005221126BDDE490A383F0A3F090A3CAE052
:102FB80075F018A42400FFE5F03435FE7B017AA3F0
:102FC800798390A58EE4F0A37402F012522190A8A0
:102FD800CFE0FEA3E02401FFE43E90A8CCF0A3EFED
:102FE800F090A3B5E004F0022D7F90A3B6E004F0C2
:102FF800022D6A7B017AA379B778A07CA87D017E2F
:10300800007F1012332D90A97FE0FEA3E0640E4EDE
:10301800600302324C90A97FE0A3E0FF90A8CAE0C9
:10302800FCA3E06F7002EC6E601EE490A8CFF0A3E2
:10303800F07B017AA879CF90A58EF0A37402F07F77
:10304800017EAE12522180347B017AA879CF90A5F7
:103058008EE4F0A37402F07F017EAE124FB490A804
:10306800CCE0FEA3E0FF90A8CFE0FCA3E06F7002E5
:10307800EC6E700302324C800302324C90A8CFE011
:10308800FEA3E0FF90A8CCEEF0A3EFF0E4A3F0904D
:10309800A8CEE0C3940A748094804003023232A31D
:1030A800E0FEA3E0FF7C007D0A1233AB90A8CEE0DF
:1030B8002FFFEC3EFE90A8C8E0FCA3E0FDC3EF9D07
:1030C800EE9C400302323290A8CFE0FEA3E0FF7CE2
:1030D800007D0A1233AB90A8CEE02FFFEC3EFE90A5
:1030E800A8C4E0FCA3E0D39FEC9E403290A8CFE0B8
:1030F800FEA3E0FF7C001233AB90A8CEE02FFFECDC
:103108003EFEEF2401FFE43EFE90A8C4E0FCA3E0ED
:10311800C39FFFEC9E90A3B7F0A3EFF0803A90A86E
:10312800CFE0FEA3E0FF7C007D0A1233AB90A8CE6F
:10313800E02FFFEC3EFEEF2401FFE43EFE90A8C422
:10314800E0FCA3E02400FDEC3402FCC3ED9FFFEC9F
:103158009E90A3B7F0A3EFF090A3B7E0FEA3E078AA
:1031680003C333CE33CED8F92400FFEE3420FEE477
:10317800FCFD90A58C12367390A590E4F0A374081A
:10318800F07D007C307F5A1271247B017AA3798309
:1031980090A58EE4F0A37410F07F007E30124FB437
:1031A8007B017AA37993C003C002C00190A391E088
:1031B800FEA3E07805C333CE33CED8F924A3F9743F
:1031C800943EFA7B0190A3CE1236DC90A3D1E4F0B2
:1031D800A37420F0D001D002D00312747290A8CE4C
:1031E800E025E024D1F582E434A8F583E0FEA3E0ED
:1031F800FF7B017AA3798390A58EE4F0A37430F065
:1032080012522190A8CEE025E024D1F582E434A81A
:10321800F583E0FCA3E0FD90A8CEE0FF7B0E1266EC
:103228005B90A8CEE004F002309790A8CEE0C3945B
:103238000A74809480500DE0FF12651C90A8CEE0BF
:1032480004F080E690A97FE0FEA3E0FF90A8CAEE14
:10325800F0A3EFF022E709F608DFFA8046E709F263
:1032680008DFFA803E88828C83E709F0A3DFFA80C2
:1032780032E309F608DFFA8078E309F208DFFA801A
:103288007088828C83E309F0A3DFFA806489828ADC
:1032980083E0A3F608DFFA805889828A83E0A3F2E4
:1032A80008DFFA804C80D280FA80C680D48069809A
:1032B800F28033801080A680EA809A80A880DA8025
:1032C800E280CA803389828A83ECFAE493A3C8C572
:1032D80082C8CCC583CCF0A3C8C582C8CCC583CC72
:1032E800DFE9DEE7800D89828A83E493A3F608DFAD
:1032F800F9ECFAA9F0EDFB2289828A83ECFAE0A3C3
:10330800C8C582C8CCC583CCF0A3C8C582C8CCC503
:1033180083CCDFEADEE880DB89828A83E493A3F248
:1033280008DFF980CC88F0EF60010E4E60C388F0AA
:10333800ED2402B4040050B9F582EB2402B4040071
:1033480050AF23234582239032AD73BB0106898297
:103358008A83E0225002E722BBFE02E32289828AA6
:1033680083E49322BB010CE58229F582E5833AF5D3
:1033780083E0225006E92582F8E622BBFE06E9250D
:1033880082F8E222E58229F582E5833AF583E4931F
:1033980022BB010689828A83F0225002F722BBFEF3
:1033A80001F322EF8DF0A4A8F0CF8CF0A428CE8DE5
:1033B800F0A42EFE22BC000BBE0029EF8DF084FF86
:1033C800ADF022E4CCF875F008EF2FFFEE33FEECF9
:1033D80033FCEE9DEC984005FCEE9DFE0FD5F0E920
:1033E800E4CEFD22EDF8F5F0EE8420D21CFEADF01F
:1033F80075F008EF2FFFED33FD4007985006D5F024
:10340800F222C398FD0FD5F0EA22C2D5EC30E709C5
:10341800B2D5E4C39DFDE49CFCEE30E715B2D5E4DB
:10342800C39FFFE49EFE1233BDC3E49DFDE49CFCF4
:1034380080031233BD30D507C3E49FFFE49EFE220C
:10344800C5F0F8A3E028F0C5F0F8E582158270020F
:103458001583E038F022A3F8E0C5F025F0F0E58206
:10346800158270021583E0C838F0E822BB010A898A
:10347800828A83E0F5F0A3E022500687F009E71975
:1034880022BBFE07E3F5F009E3192289828A83E467
:1034980093F5F074019322BB0110E58229F582E5CA
:1034A800833AF583E0F5F0A3E0225009E92582F894
:1034B80086F008E622BBFE0AE92582F8E2F5F00864
:1034C800E222E5832AF583E993F5F0A3E99322BB89
:1034D800010A89828A83F0E5F0A3F0225006F709F1
:1034E800A7F01922BBFE06F3E5F009F31922EF2B2A
:1034F800FFEE3AFEED39FDEC38FC22E88FF0A4CC63
:103508008BF0A42CFCE98EF0A42CFC8AF0EDA42C02
:10351800FCEA8EF0A4CDA8F08BF0A42DCC3825F0D1
:10352800FDE98FF0A42CCD35F0FCEB8EF0A4FEA9BC
:10353800F0EB8FF0A4CFC5F02ECD39FEE43CFCEAC9
:10354800A42DCE35F0FDE43CFC2275F00875820010
:10355800EF2FFFEE33FECD33CDCC33CCC58233C550
:10356800829BED9AEC99E58298400CF582EE9BFEE1
:10357800ED9AFDEC99FC0FD5F0D6E4CEFBE4CDFA3C
:10358800E4CCF9A88222B800C1B90059BA002DECE0
:103598008BF084CFCECDFCE5F0CBF97818EF2FFF78
:1035A800EE33FEED33FDEC33FCEB33FB10D7039920
:1035B8004004EB99FB0FD8E5E4F9FA227818EF2FCD
:1035C800FFEE33FEED33FDEC33FCC933C910D705EC
:1035D8009BE99A4007EC9BFCE99AF90FD8E0E4C90B
:1035E800FAE4CCFB2275F010EF2FFFEE33FEED333B
:1035F800FDCC33CCC833C810D7079BEC9AE8994068
:103608000AED9BFDEC9AFCE899F80FD5F0DAE4CDC9
:10361800FBE4CCFAE4C8F922EB9FF5F0EA9E42F00D
:10362800E99D42F0EC6480C864809845F022EB9FE5
:10363800F5F0EA9E42F0E99D42F0E89C45F022E868
:103648006010ECA2E713FCED13FDEE13FEEF13FF81
:10365800D8F022E0FCA3E0FDA3E0FEA3E0FF22E017
:10366800F8A3E0F9A3E0FAA3E0FB22ECF0A3EDF065
:10367800A3EEF0A3EFF022A8828583F0D083D08256
:10368800123696123696123696123696E473E493EC
:10369800A3C583C5F0C583C8C582C8F0A3C583C5C3
:1036A800F0C583C8C582C822A42582F582E5F03515
:1036B80083F58322E0FBA3E0FAA3E0F922F8E0FB1C
:1036C800A3A3E0F925F0F0E582158270021583E0E6
:1036D800FA38F022EBF0A3EAF0A3E9F022D083D085
:1036E80082F8E4937012740193700DA3A393F87495
:1036F8000193F5828883E4737402936860EFA3A34F
:10370800A380DFD083D082F8E493701274019370A1
:103718000DA3A393F8740193F5828883E47374026C
:1037280093B5F0067403936860E9A3A3A3A380D8B4
:10373800E3F5F009E208B5F06BDFF58067E3F5F033
:1037480009E608B5F05EDFF5805A87F009E608B5A6
:10375800F052DFF6804E87F009E208B5F046DFF652
:10376800804288828C8387F009E0A3B5F036DFF6C3
:10377800803288828C8387F009E493A3B5F025DF33
:10378800F5802188828C83E3F5F009E0A3B5F01475
:10379800DFF5801088828C83E3F5F009E493A3B504
:1037A800F002DFF4023867808780E9809080D48057
:1037B8003E8015806E807E809D80B7808D80A3803E
:1037C800518074803C02387389828A83ECFAE493CE
:1037D800F5F0A3C8C582C8CCC583CCE493A3C8C5FB
:1037E80082C8CCC583CCB5F076DFE3DEE180708992
:1037F800828A83E493F5F0A3E208B5F062DFF480EF
:103808005E89828A83E0F5F0A3E608B5F051DFF51A
:10381800804D89828A83E0F5F0A3E208B5F040DFA5
:10382800F5803C89828A83E493F5F0A3E608B5F035
:103838002EDFF4802A8002805789828A83ECFAE49A
:1038480093F5F0A3C8C582C8CCC583CCE0A3C8C58E
:1038580082C8CCC583CCB5F006DFE4DEE280007F09
:10386800FFB5F0020F2240027F012289828A83EC91
:10387800FAE0F5F0A3C8C582C8CCC583CCE0A3C8DC
:10388800C582C8CCC583CCB5F0D5DFE5DEE380CFF3
:1038980089828A83ECFAE0F5F0A3C8C582C8CCC552
:1038A80083CCE493A3C8C582C8CCC583CCB5F0AF9C
:1038B800DFE4DEE280A988F0EF60010E4E60ABED38
:1038C8002402B404005098F582EB2402B40400509A
:1038D8008E23234582239037AF73EF4E6012EF603B
:1038E800010EEDBB010B89828A83F0A3DFFCDEFAAF
:1038F8002289F05007F709DFFCA9F022BBFEFCF390
:1039080009DFFCA9F022F8BB010DE58229F582E563
:10391800833AF583E8F0225006E92582C8F622BBEF
:10392800FE05E92582C8F2227BFF7A7F797478BE8A
:103938007CA37D017E007F3E12332D7BFF7A7F7949
:10394800B278FD7CA37D017E007F2412332D7B019C
:103958007AA379BE90A58EE4F0A3743EF07F207E12
:10396800AB124FB4E490A3FCF090A3FCE0C3941016
:10397800748094804003023BD1E0FF7E007401A86C
:1039880007088005C333CE33CED8F9FF90A3C4E02F
:10399800FCA3E0FDEE5CFEEF5D4E7003023BB590CC
:1039A800A3FCE0FF7E007401A807088005C333CE9E
:1039B80033CED8F9FF90A3C8E0FCA3E0FDEE5CFE8F
:1039C800EF5D4E7003023B6290A3FCE0FF131354BB
:1039D8003F2407FFE43390A423F0A3EFF090A4233F
:1039E800E0FEA3E025E0FFEE33FE74BE2FF58274FF
:1039F800A33EF583E0FEA3E0FF90A3FCE05403257B
:103A0800E025E0FDEFA805088005CEC313CE13D846
:103A1800F9540FFF90A421E4F0A3EFF090A421E063
:103A2800FEA3E08EF012370B3A5400003A6C000106
:103A38003A8400023A9C00043AB300053ACA0006E8
:103A48003AE100083AF8000900003B0F90A3FCE0B7
:103A580025E024FDF582E434A3F583E4F0A374059E
:103A6800F0023B2490A3FCE025E024FDF582E43439
:103A7800A3F583E4F0A37406F0023B2490A3FCE0D2
:103A880025E024FDF582E434A3F583E4F0A374076C
:103A9800F0023B2490A3FCE025E024FDF582E43409
:103AA800A3F583E4F0A37408F0807190A3FCE025EB
:103AB800E024FDF582E434A3F583E4F0A37409F06F
:103AC800805A90A3FCE025E024FDF582E434A3F5B8
:103AD80083E4F0A3740AF0804390A3FCE025E0247B
:103AE800FDF582E434A3F583E4F0A37403F0802C9D
:103AF80090A3FCE025E024FDF582E434A3F583E4FB
:103B0800F0A37404F0801590A3FCE025E024FDF5F3
:103B180082E434A3F583E4F0A37405F090A3FCE0F9
:103B2800FF7E007401A807088005C333CE33CED8C2
:103B3800F9FF90A3C0E0FCA3E0FDEE5CFEEF5D4E54
:103B4800607E90A3FCE025E024FDF582E434A3F533
:103B580083E475F008123448806690A3FCE0FF7E89
:103B6800007401A807088005C333CE33CED8F9FF07
:103B780090A3C0E0FCA3E0FDEE5CFEEF5D4E601795
:103B880090A3FCE025E024FDF582E434A3F583E46A
:103B9800F0A37402F0802990A3FCE025E024FDF551
:103BA80082E434A3F583E4F0A304F0801390A3FC2B
:103BB800E025E024FDF582E434A3F583E4F0A3F0E6
:103BC80090A3FCE004F002397190A3FC7410F0900B
:103BD800A3FCE0C39412748094804003023E42E048
:103BE80024F0FF7E007401A807088005C333CE3394
:103BF800CED8F9FF90A3C6E0FCA3E0FDEE5CFEEF93
:103C08005D4E7003023E2690A3FCE024F0FF7E0088
:103C18007401A807088005C333CE33CED8F9FF90C6
:103C2800A3CAE0FCA3E0FDEE5CFEEF5D4E7003026C
:103C38003DD190A3FCE0FF1313543F2407FFE43366
:103C480090A423F0A3EFF090A423E0FEA3E025E0E6
:103C5800FFEE33FE74BE2FF58274A33EF583E0FEBB
:103C6800A3E0FF90A3FCE0540325E025E0FDEFA8C6
:103C780005088005CEC313CE13D8F9540FFF90A4BE
:103C880021E4F0A3EFF090A421E0FEA3E08EF0126F
:103C9800370B3CBE00003CD600013CEE00023D065E
:103CA80000043D1D00053D3400063D4B00083D6203
:103CB800000900003D7990A3FCE025E024FDF58291
:103CC800E434A3F583E4F0A37405F0023D8E90A3D9
:103CD800FCE025E024FDF582E434A3F583E4F0A3B9
:103CE8007406F0023D8E90A3FCE025E024FDF582E9
:103CF800E434A3F583E4F0A37407F0023D8E90A3A7
:103D0800FCE025E024FDF582E434A3F583E4F0A388
:103D18007408F0807190A3FCE025E024FDF582E4AE
:103D280034A3F583E4F0A37409F0805A90A3FCE06F
:103D380025E024FDF582E434A3F583E4F0A3740AB6
:103D4800F0804390A3FCE025E024FDF582E434A351
:103D5800F583E4F0A37403F0802C90A3FCE025E045
:103D680024FDF582E434A3F583E4F0A37404F08021
:103D78001590A3FCE025E024FDF582E434A3F58347
:103D8800E4F0A37405F090A3FCE024F0FF7E007437
:103D980001A807088005C333CE33CED8F9FF90A316
:103DA800C2E0FCA3E0FDEE5CFEEF5D4E7003023E58
:103DB8003990A3FCE025E024FDF582E434A3F583E3
:103DC800E475F008123448806890A3FCE024F0FF02
:103DD8007E007401A807088005C333CE33CED8F916
:103DE800FF90A3C2E0FCA3E0FDEE5CFEEF5D4E6039
:103DF8001790A3FCE025E024FDF582E434A3F583C5
:103E0800E4F0A37402F0802990A3FCE025E024FDEF
:103E1800F582E434A3F583E4F0A304F0801390A3BF
:103E2800FCE025E024FDF582E434A3F583E4F0A367
:103E3800F090A3FCE004F0023BD77B017AA379FD64
:103E480090A58EE4F0A37424F07FA07EAB125221DB
:103E580022E51330E0167B017AA9797F90A58EE4DC
:103E6800F0A37402F07F147E00124FB4E51320E231
:103E7800030242FE90A97FE0FEA3E04E702690A9BF
:103E880078E0C39406748094805005E004F08014B0
:103E980090A978E06406700C7F39FE1278F190A939
:103EA80078E004F090A97FE0FEA3E0640B4E700375
:103EB80012393090A97FE0FEA3E064294E60030226
:103EC8003F9C7B017AA3798690A58EF0A3741CF0A1
:103ED8007FB07EC9124FB4E490A383F090A383E02F
:103EE800C39407748094804003023F86E025E02550
:103EF800E02486F582E434A3F583E0FEA3E0C4F869
:103F0800540FC868FDEEC454F048FC90A383E02524
:103F1800E025E02488F582E434A3F583E0FEA3E0FD
:103F2800EEC4540F2DFFE43C90A384F0A3EFF0906F
:103F3800A384E0FEA3E0FF7C007D181233BD90A3AC
:103F480083E025E024A2F582E434A3F583EEF0A310
:103F5800EFF090A384E0FEA3E0FF7C007D1812330D
:103F6800BD90A383E025E024B0F582E434A3F58373
:103F7800ECF0A3EDF090A383E004F0023EE47B01B3
:103F88007AA379A290A58EE4F0A3741CF07F207E1A
:103F9800C912522190A97FE0FEA3E0642C4E600371
:103FA80002407C7B017AA3799390A58EF0A37406D6
:103FB800F07FA07ECC124FB490A393E0FEA3E0FF65
:103FC800EEC4F854F0C868FEEFC4540F4890A383B9
:103FD800EEF0A3E4F090A383E0FCA3E0FD90A393AC
:103FE800E0FEA3E07807CEC313CE13D8F9541FFF21
:103FF800ECFEED4FFF90A383EEF0A3EFF090A393B8
:10400800E0A3E0547F90A385F0A3E4F090A385E0BB
:10401800FCA3E0FD90A397E0FEA3E0EEFFECFEED2D
:104028004FFF90A385EEF0A3EFF090A397E0A3E0F5
:1040380090A387F0A3E4F090A395E0FEA3E0FF909F
:10404800A389EEF0A3EFF0A37402F0A304F0A37425
:1040580007F0A37401F0A3F0A3E4F0A3F0A3F07BAE
:10406800017AA3798390A58EF0A37410F07F207E47
:10407800CC12522190A97FE0FEA3E0642F4E60038A
:1040880002415D7B017AA3798390A58EF0A3740227
:10409800F07F107ECF124FB47B017AA3798790A569
:1040A8008EE4F0A37402F07F227ECF124FB490A367
:1040B80083E0FEA3E0FF90A979E0FCA3E06F700223
:1040C800EC6E606090A383E0A3E090A979EEF0A382
:1040D800EFF090A387E0FEA3E0543FFF90A387EEA4
:1040E800F0A3EFF090A387E0FCA3E0FD90A383E0AA
:1040F800A3E07E0054037806C333CE33CED8F9FF4D
:10410800EC4EFEED4FFF90A387EEF0A3EFF07B019E
:104118007AA3798790A58EE4F0A37402F07F227EBB
:10412800CF12522190A387E0FEA3E07806CEC313F6
:10413800CE13D8F95403FF90A389E4F0A3EFF07BE2
:10414800017AA3798990A58EE4F0A37402F07F1117
:104158007ECF12522190A97FE0FEA3E064414E7009
:10416800287B017AA3798390A58EF0A37402F07F4F
:10417800207EE1124FB490A383E0FEA3E064A54E35
:1041880060077F397E001278F190A97FE0FEA3E0F6
:1041980064274E705690A97BE0C394057480948080
:1041A800504290A383E4F0A304F0FB7AA3798390B0
:1041B800A58EE4F0A37402F07F277EA0125221900E
:1041C800A383E4F0A3745AF07B017AA3798390A5C2
:1041D8008EE4F0A37402F07F877EA012522190A98A
:1041E8007BE004F0E490A97CF0807290A97CE0C3A5
:1041F8009405748094805060E490A383F0A3F07BCE
:10420800017AA3798390A58EF0A37402F07F297EAA
:10421800C7124FB490A383E0FEA3E04E70347B0135
:104228007AA3798390A58EF0A37402F07F277EA0ED
:1042380012522190A383E4F0A3745AF07B017AA36D
:10424800798390A58EE4F0A37402F07F877EA01294
:10425800522190A97CE004F0E490A97BF07B017ADC
:10426800A3798390A58EE4F0A37402F07F167E00F4
:10427800124FB490A383E0FEA3E04E6024E490A321
:1042880083F0A3F07B017AA3798390A58EF0A374C1
:1042980002F07F167E00125221E490A97DF0A3F06F
:1042A8002290A97DE0FEA3E0C39458EE9402501B2F
:1042B800A3E0FEA3E064404E70067F39FE1278F159
:1042C80090A97DE475F0011234482290A97DE0FEA2
:1042D800A3E0B45821EEB4021D90A97DE475F00165
:1042E80012344890A97FE0FEA3E064404E60077F47
:1042F800407E001278F122E51330E10D90A981E4A7
:1043080075F001123448126CBF90A981E0FEA3E059
:10431800C394B0EE94045003024665E490A981F07A
:10432800A3F0A3E0FEA3E02400FFEE341090A383E3
:10433800F0A3EFF07B017AA3798590A58EE4F0A332
:104348007402F07FA37EA0124FB490A385E475F0A9
:10435800C812344890A383E0FEA3E0FF7B017AA350
:10436800798590A58EE4F0A37402F012522190A9E9
:1043780083E0FEA3E02400FFEE341890A383F0A3AB
:10438800EFF07B017AA3798590A58EE4F0A37402FF
:10439800F07FA47EA0124FB490A383E0FEA3E0FFB9
:1043A8007B017AA3798590A58EE4F0A37402F012BC
:1043B800522190A983E0FEA3E0FF90A389EEF0A329
:1043C800EFF090A983E475F00112344890A983E0D6
:1043D800FEA3E0C3EE94084007E490A983F0A3F09D
:1043E8007B017AA9798390A58EE4F0A37402F07F0B
:1043F800007E031252217B017AA9798390A58EE46D
:10440800F0A37402F0FF7E0312522190A387740870
:10441800F0A3E4F07B017AA3798790A58EF0A374CA
:1044280002F07F087E501252217B017AA37987908F
:10443800A58EE4F0A37402F07F097E5012522190F9
:10444800A3877402F0A3748AF07B017AA37987901A
:10445800A58EE4F0A37402F07F117E5012522190D1
:10446800A983E0A3E030E00302466590A983E0FE5B
:10447800A3E04E700302455790A38974FFF5F0122C
:10448800344890A389E0FEA3E02400FFEE3410FE38
:104498007B017AA3798390A58EE4F0A37404F012CB
:1044A8004FB490A38774A5F0A3745AF07B017AA344
:1044B800798390A58EE4F0A37406F07F007E5012F5
:1044C800522190A389E0FEA3E0FFE4FCFD90A58CB7
:1044D80012367390A590E4F0A37404F07D007C502C
:1044E8007FA512712490A389E0FEA3E02400FFEECB
:1044F8003418FE7B017AA3798390A58EE4F0A37427
:1045080004F0124FB490A38774A5F0A3745AF07BFB
:10451800017AA3798390A58EE4F0A37406F07F0056
:104528007E5012522190A389E0FEA3E02400FFEE02
:104538003408FEE4FCFD90A58C12367390A590E437
:10454800F0A37404F07D007C507FA51271242290A2
:10455800A38974FFF5F012344890A389E0FEA3E024
:104568002400FFEE3410FE7B017AA3798390A58E98
:10457800E4F0A37404F0124FB490A38774A5F0A3D9
:10458800745AF07B017AA3798390A58EE4F0A37422
:1045980006F07F007E5012522190A389E0FEA3E02E
:1045A800FFE4FCFD90A58C12367390A590E4F0A36F
:1045B8007402F07D007C507FA512712490A58C12A6
:1045C800367F0000000090A590E4F0A37402F07D0F
:1045D800007C507FA512712490A389E0FEA3E024FB
:1045E80000FFEE3418FE7B017AA3798390A58EE450
:1045F800F0A37404F0124FB490A38774A5F0A374C9
:104608005AF07B017AA3798390A58EE4F0A374060F
:10461800F07F007E5012522190A389E0FEA3E0248F
:1046280000FFEE3408FEE4FCFD90A58C1236739072
:10463800A590E4F0A37402F07D007C507FA5127170
:104648002490A58C12367F0000080090A590E4F015
:10465800A37402F07D007C507FA51271242290A3E0
:10466800881236DC90A38BECF0A3EDF090A38BE0DE
:10467800FEA3E0C39405EE940050030249BBE4A3F3
:10468800F0A3F090A3881236BC90A38DE0FEA3E0BF
:10469800F5828E8312336C6402600302499590A3FD
:1046A800881236BC90A38DE0A3E029F9EA3EFA907F
:1046B800000112336C1236E546CD03481C0648DE6D
:1046C800100000499590A3881236BC90A38DE0FE97
:1046D800A3E029F9EA3EFA90000212336CFF90A396
:1046E80091E4F0A3EFF090A38DE0A3E0FF90A391F5
:1046F800E0FCA3E02FFFEC3EFEEF2405FFE43EFEC6
:1047080090A38BE0FCA3E0FDD3EF9DEE9C401190BD
:10471800A38BE0FEA3E0FFA3EEF0A3EFF002499520
:1047280090A3881236BC90A38DE0FEA3E029F9EA95
:104738003EFA90A391E0FEA3E02403FDE43EFC12C0
:1047480072AA90A38FEEF0A3EFF090A3881236BC64
:1047580090A38DE0FEA3E029F9EA3EFA90A391E048
:10476800FEA3E029F9EA3EFA90000312336CFD90AB
:10477800A38FE0FEA3E0EE6D7001E46003024995AB
:1047880090A3881236BC90A38DE0FEA3E029F9EA35
:104798003EFA90A391E0FEA3E029F9EA3EFA9000E0
:1047A8000412336CFF90A38FE0A3E06F7001E46004
:1047B800030249959084E9E0FEA3E0FF90A38812E4
:1047C80036BC90A38DE0FCA3E029F9EA3CFAE92481
:1047D80003F9E43AFA90A391E0FCA3E0FD90A58EDA
:1047E800ECF0A3EDF01252217E007F0E7D007B01DC
:1047F8007A8479E11238E290A391E0FEA3E02405DF
:10480800FFE43E90A38DF0A3EFF0908000E0440217
:10481800F002499590A38DE0FEA3E02408FFE43E52
:10482800FE90A38BE0FCA3E0FDD3EF9DEE9C40112E
:1048380090A38BE0FEA3E0FFA3EEF0A3EFF0024904
:104848009590A3881236BC90A38DE0FEA3E029F9C9
:10485800EA3EFA7D067C001272AA90A38FEEF0A3BE
:10486800EFF090A3881236BC90A38DE0FEA3E02958
:10487800F9EA3EFA90000612336CFD90A38FE0FE31
:10488800A3E0EE6D7001E4600302499590A38812DD
:1048980036BC90A38DE0FEA3E029F9EA3EFA900029
:1048A8000712336CFF90A38FE0A3E06F7001E46000
:1048B8000302499590A38D75F0081234487E007F55
:1048C8000E7D007B017A8479E11238E2908000E065
:1048D8004402F002499590A38DE0FEA3E02408FF6E
:1048E800E43EFE90A38BE0FCA3E0FDD3EF9DEE9C9D
:1048F800401190A38BE0FEA3E0FFA3EEF0A3EFF03E
:1049080002499590A3881236BC90A38DE0FEA3E0DF
:1049180029F9EA3EFA7D067C001272AA90A38FEE6E
:10492800F0A3EFF090A3881236BC90A38DE0FEA30D
:10493800E029F9EA3EFA90000612336CFD90A38F45
:10494800E0FEA3E0EE6D7001E4704290A388123699
:10495800BC90A38DE0FEA3E029F9EA3EFA90000797
:1049680012336CFF90A38FE0A3E0B50720E490A377
:104978008D75F0081234487E007F0E7D007B017A29
:104988008479E11238E2908000E04402F090A38D2F
:10499800E475F00112344890A38BE0FEA3E024FBF9
:1049A800FFEE34FFFEA3E0FCA3E0C39FEC9E5003A0
:1049B80002468B2290A3881236DC90A3881236BC5C
:1049C800123474FF90A38BE5F0F0A3EFF090A38B63
:1049D800E0FEA3E0C39415EE94014003024CDC9082
:1049E800A38BE0A3E09084EF75F00E1236B0EE755D
:1049F800F00EA42583F583E0645A6003024CCF903F
:104A0800A38BE0A3E09084F275F00E1236B0EE7539
:104A1800F00EA42583F583E07003024CCF90A38B9E
:104A2800E0A3E09084F475F00E1236B0EE75F00E47
:104A3800A42583F583E07003024CDC90A38BE0A3EC
:104A4800E09084F475F00E1236B0EE75F00EA425E1
:104A580083F583E06401703490A38BE0A3E0908435
:104A6800F575F00E1236B0EE75F00EA42583F583B9
:104A7800E0FEA3E0FF90A97FE0FCA3E06F7002ECEA
:104A88006E6003024CCF024CDC024CCF90A38BE04B
:104A9800FEA3E09084F475F00E1236B0EE75F00EB9
:104AA800A42583F583E064026003024B9B90A38BEB
:104AB800E0A3E09084F575F00E1236B0EE75F00EB6
:104AC800A42583F583E0FEA3E0FF7B017AA3798D1B
:104AD80090A58EE4F0A37402F0124FB490A38DE079
:104AE800A3E0645A6003024CCF90A38BE0FEA3E0DE
:104AF800C39414EE9401506190A38BE0A3E09085D9
:104B08000275F00E1236B0EE75F00EA42583F5830B
:104B1800E06402704490A38BE0A3E090850375F0F5
:104B28000E1236B0EE75F00EA42583F583E0FEA3D1
:104B3800E0FF90A38BE0FCA3E09084F575F00E12E3
:104B480036B0EC75F00EA42583F583E0FCA3E06F86
:104B58007002EC6E7003024CDCE490A38DF0A3F0BD
:104B680090A38BE0FEA3E09084F575F00E1236B0AA
:104B7800EE75F00EA42583F583E0FEA3E0FF7B012C
:104B88007AA3798D90A58EE4F0A37402F0125221D5
:104B9800024CDC90A38BE0FEA3E09084F475F00E49
:104BA8001236B0EE75F00EA42583F583E064036039
:104BB80003024CCF90A38BE0A3E09084FB75F00E2A
:104BC8001236B0EE75F00EA42583F583E0FEA3E05F
:104BD800FF90A97FE0FCA3E0FDEF6D7002EE6C6032
:104BE80003024CCF90A38BE0FEA3E09084F575F010
:104BF8000E1236B0EE75F00EA42583F583E0FEA301
:104C0800E0FF7B017AA3798D90A58EE4F0A374026E
:104C1800F0124FB490A38DE0A3E0645A6003024CF5
:104C2800CF90A38BE0FEA3E0C39414EE9401505EF2
:104C380090A38BE0A3E090850275F00E1236B0EEDB
:104C480075F00EA42583F583E06403704190A38B6F
:104C5800E0A3E090850375F00E1236B0EE75F00E05
:104C6800A42583F583E0FEA3E0FF90A38BE0FCA3DB
:104C7800E09084F575F00E1236B0EC75F00EA425B0
:104C880083F583E0FCA3E06F7002EC6E6046E4906D
:104C9800A38DF0A3F090A38BE0FEA3E09084F575BC
:104CA800F00E1236B0EE75F00EA42583F583E0FE03
:104CB800A3E0FF7B017AA3798D90A58EE4F0A3741D
:104CC80002F0125221800D90A38BE475F00112348A
:104CD800480249D590A38BE0FEA3E0FF90A3881279
:104CE80036BCEE8FF01234D72290A3921236DC90A5
:104CF800A395ECF0A3EDF07BFF7A7F79E278977CBF
:104D0800A37D017E007F1812332D90A3921236BC2A
:104D180090000A12349F246CFFE5F0340790A3C377
:104D2800F0A3EFF090A3C3E0FEA3E0FF7C007D6456
:104D3800123412ED4C601390A3C3E0FEA3E0FF7C95
:104D4800007D04123412ED4C601390A3C3E0FEA35F
:104D5800E0FF7C017D90123412ED4C70067E007FDE
:104D68000180047E007F0090A3BFEEF0A3EFF090D7
:104D7800A3921236BC90000A12349F24BAFFE5F0C1
:104D880034FFFE3395E0FDFC90A3AF12367390A379
:104D9800921236BC90000812349FC39401E5F06467
:104DA800809480504090A3BFE0FEA3E064014E7061
:104DB8003490A3AF12365BEF2402FFE43EFEE43DDD
:104DC800FDE43CFCE47B04FAF9F812797FEF24FF58
:104DD800FFEE34FFFEED34FFFDEC34FFFC90A3B78B
:104DE800123673802290A3AF12365BEF2402FFE4E1
:104DF8003EFEE43DFDE43CFCE47B04FAF9F812795C
:104E08007F90A3B712367390A3B312367F000000C9
:104E180000E490A3C1F0A3F090A3921236BC9000D6
:104E28000812349FFF90A3C1E0FCA3E0C39FE5F004
:104E38006480F8EC648098504890A3B312365BC045
:104E480006C00790A3C1E0FEA3E025E0FFEE33FE15
:104E580074972FF58274A33EF583E0FEA3E0FFFB71
:104E6800AA06EA3395E0F9F8D007D0061234F6908E
:104E7800A3B312367390A3C1E475F00112344880CD
:104E88009790A3B312365BC006C00790A392123660
:104E9800BC90000612349F24FFFFE5F034FFFEAB00
:104EA80007FA3395E0F9F8D007D0061234F690A344
:104EB800B312367390A3B312365BC004C005C006A4
:104EC800C007E47F6D7E01FDFC90A3AF1236671228
:104ED800350390A3B71236671234F6A804A905AAB9
:104EE80006AB07D007D006D005D0041234F690A33D
:104EF800B312367390A3921236BC90000412349FFA
:104F0800FF90A395E0FCA3E0FDC3EF9DFFE5F09CB7
:104F1800FE3395E0FDFC90A3BB123673E47F107E50
:104F28000EFDFC90A3BB123667123503C004C00502
:104F3800C006C0077F807E517D017C0090A3B3121C
:104F48003667123503A804A905AA06AB07D007D00F
:104F580006D005D0041234F6C004C005C006C00748
:104F680090A3921236BC90000212349FFFAEF07CE0
:104F7800007D3C1233ABAB07AA06EA3395E0F9F89B
:104F8800D007D006D005D0041234F6C006C007906A
:104F9800A3921236BC123474FFAEF0FBAA06EA33B1
:104FA80095E0F9F8D007D0061234F62290A589EEDC
:104FB800F0A3EFF0A31236DC7B007A007900C0037F
:104FC800C002C00190A58B1236BCD082D083D0E03D
:104FD8006B7008E965827003EA65837003025220EA
:104FE80090A58EE0FEA3E04E700302522090A58E9D
:104FF800E0A3E0FFEEC313FEEF13FF90A589E0FCEA
:10500800A3E02FFFEE3CFED3EF94FEEE94FF4003A7
:10501800025220C2AF90A589E0A3E0540190A59068
:10502800F090A589E0FEA3E0FFEEC313FEEF13FFA7
:1050380090A589EEF0A3EFF090A589E0FEA3E078B3
:1050480010CEC313CE13D8F9F5F190A589E0FEA3CD
:10505800E0EEF5F290A589E0A3E0F5F3E4F5F87544
:10506800F401D2FF30FCFDD2FD90A590E064017000
:105078007290A58EE0FEA3E064014E700AC2FBC2E6
:10508800FAD2F9C2F88008C2FBC2FAD2F9D2F8D231
:10509800FE20FEFD90A58EE0FEA3E064014E701A8E
:1050A80090A58B75F0011236C5E5FC12339990A5D1
:1050B8008E74FFF5F0123448802990A58BE475F0C2
:1050C800011236C5E5FC12339990A58BE475F00101
:1050D8001236C5E5FD12339990A58E74FF75F0FE62
:1050E80012344890A58EE0FEA3E04E700302521BD6
:1050F80090A58EE0A3E0C39404EE9400400302510F
:10510800C490A58EE0A3E08EF012370B5138000151
:10511800512E00025124000300005140D2FBD2FA64
:10512800D2F9C2F88012D2FBD2FAC2F9C2F88008CA
:10513800D2FBC2FAC2F9C2F8D2FE20FEFD90A58EBB
:10514800E0FEA3E08EF012370B51B100015191003F
:1051580002516100030000521B90A58BE475F00119
:105168001236C5E5FA12339990A58BE475F0011251
:1051780036C5E5FB12339990A58BE475F00112361C
:10518800C5E5FC12339902521B90A58BE475F0011A
:105198001236C5E5FA12339990A58BE475F0011221
:1051A80036C5E5FB123399806A90A58BE475F0014A
:1051B8001236C5E5FA12339980598057D2FBD2FAD4
:1051C800D2F9D2F8D2FE20FEFD90A58BE475F0014D
:1051D8001236C5E5FA12339990A58BE475F00112E1
:1051E80036C5E5FB12339990A58BE475F0011236AC
:1051F800C5E5FC12339990A58BE475F0011236C50C
:10520800E5FD12339990A58E74FF75F0FC123448B1
:105218000250EBE4F5F8D2AF2290A589EEF0A3EFA7
:10522800F0A31236DC7B007A007900C003C002C00C
:105238000190A58B1236BCD082D083D0E06B700869
:10524800E965827003EA6583700302548C90A58E29
:10525800E0FEA3E04E700302548C90A58EE0A3E01C
:10526800FFEEC313FEEF13FF90A589E0FCA3E02F28
:10527800FFEE3CFED3EF94FEEE94FF400302548C05
:10528800C2AF90A589E0A3E0540190A590F090A545
:1052980089E0FEA3E0FFEEC313FEEF13FF90A5899C
:1052A800EEF0A3EFF090A589E0FEA3E07810CEC35E
:1052B80013CE13D8F9F5F190A589E0FEA3E0EEF539
:1052C800F290A589E0A3E0F5F3E4F5F875F401D2CE
:1052D800FF30FCFDC2FD90A590E06401707290A5BE
:1052E8008EE0FEA3E064014E700AC2FBC2FAD2F956
:1052F800C2F88008C2FBC2FAD2F9D2F890A58EE0B3
:10530800FEA3E064014E701A90A58B75F001123669
:10531800C5123353F5FC90A58E74FFF5F01234488E
:10532800802990A58BE475F0011236C5123353F528
:10533800FC90A58BE475F0011236C5123353F5FDC8
:1053480090A58E74FF75F0FE123448D2FE20FEFD43
:1053580090A58EE0FEA3E04E700302548790A58EC0
:10536800E0A3E0C39404EE9400400302543090A5F7
:105378008EE0A3E08EF012370B53A50001539B007B
:105388000253910003000053ADD2FBD2FAD2F9C206
:10539800F88012D2FBD2FAC2F9C2F88008D2FBC256
:1053A800FAC2F9C2F890A58EE0FEA3E08EF012379B
:1053B8000B5418000153F8000253C90003000054AD
:1053C8002790A58BE475F0011236C5123353F5FA10
:1053D80090A58BE475F0011236C5123353F5FB9096
:1053E800A58BE475F0011236C5123353F5FC802FF6
:1053F80090A58BE475F0011236C5123353F5FA9077
:10540800A58BE475F0011236C5123353F5FB800FF6
:1054180090A58BE475F0011236C5123353F5FAD214
:10542800FE30FE5B80FB8057D2FBD2FAD2F9D2F86D
:1054380090A58BE475F0011236C5123353F5FA9036
:10544800A58BE475F0011236C5123353F5FB90A510
:105458008BE475F0011236C5123353F5FC90A58B19
:10546800E475F0011236C5123353F5FDD2FE20FE65
:10547800FD90A58E74FF75F0FC123448025358E471
:10548800F5F8D2AF227BFF7A7C79F078837CA37D14
:10549800017E027F0012332D90A58C12367F00000A
:1054A800000090A5907410F0A3E4F0FD7C107F5AE2
:1054B80012712490A5837410F0A3E4F090A583E002
:1054C800FEA3E0C3EE9418506990A583E0A3E0FF23
:1054D8007B017AA3798390A58E7402F0A3E4F0127D
:1054E8004FB4E490A585F0A3F090A585E0FEA3E075
:1054F800C3EE9401502F90A585E0A3E025E0FFEED0
:1055080033FE74832FF58274A33EF583E0FEA3E097
:10551800645A7003EE64A5601990A585E475F001DE
:1055280012344880C490A583740175F00012344881
:10553800808A90A585E0FEA3E0FF90A583E0FCA308
:10554800E02FFFEC3E90A587F0A3EFF090A587E051
:10555800FEA3E0C3EE9418400990A5877410F0A349
:10556800E4F090A58774F075F00012344890A58790
:10557800E0FEA3E0FF90A983EEF0A3EFF090A983EB
:10558800E0FEA3E02400FFEE341090A383F0A3EF25
:10559800F0A37401F0A374B2F0A37401F0A374B281
:1055A800F090A383E0FEA3E0FF7B017AA3798590C6
:1055B800A58EE4F0A37404F012522190A983E0FEB2
:1055C800A3E02400FFEE341890A383F0A3EFF0A328
:1055D8007402F0A37437F0A37402F0A37437F09048
:1055E800A383E0FEA3E0FF7B017AA3798590A58ED3
:1055F800E4F0A37404F01252217B017AA579879014
:10560800A58EE4F0A37402F07F007E031252217B82
:10561800017AA5798790A58EE4F0A37402F0FF7E45
:10562800031252217B017AA5798790A58EE4F0A315
:105638007402F07F087E501252217B017AA5798787
:1056480090A58EE4F0A37402F07F097E50125221D7
:1056580090A3837408F0A3E4F07B017AA379839084
:10566800A58EF0A37402F07F017E031252217B0104
:105678007AA3798390A58EE4F0A37402F004FFFE68
:1056880012522190A383E4F0A37406F0A3E4F0A3DC
:1056980004F0A3E4F0A3742EF0A37401F0A3744CF7
:1056A800F0A37401F0A37471F0A37401F0A37477EC
:1056B800F0A37401F0A3748AF0A37402F0A3748AAF
:1056C800F0A37401F0A37471F0A374FFF0A3E4F0E5
:1056D8007B017AA3798390A58EF0A37414F07F0AD6
:1056E8007E50125221227BFF7A7E79F078837CA348
:1056F8007D017E007F2012332D7B017AA379839070
:10570800A3A51236DC90A3A81236DCE490A3A3F07C
:10571800A3F090A3A3E0FEA3E0C3EE94024003022B
:1057280057B790A3A3E0A3E07803C333CE33CED812
:10573800F92400FFEE3420FEE4FCFD90A58C12361F
:105748007390A590E4F0A37408F07D007C307F5A34
:105758001271247B017AA3798390A58EE4F0A37457
:1057680010F07F007E30124FB490A3A51236BC1201
:105778003474645A7004E5F064A5602690A3A812F6
:1057880036BC123474B4A527E5F0B45A2290A3A805
:105798001236BC78C27CA87D017E007F0812332DAA
:1057A800800D90A3A3E475F00112344802571AE45F
:1057B80090A3A3F0A3F090A3A3E0FEA3E0C3940AF0
:1057C800EE940040030259497BFF7A7F791078AB49
:1057D8007CA37D017E007F2012332D7B017AA8797E
:1057E8006A78AB7CA37D017E007F1A12332D90A3CB
:1057F800A3E0FEA3E0FF7C007D1B1233ABEF246423
:10580800FFE43E90A3AFF0A3EFF090A3B47401F0CF
:1058180090A3A3E0FEA3E090A8E575F0061236B0C9
:10582800EE75F006A42583F583E0FEA3E0FF7B0177
:105838007AA379AB90A58EE4F0A37420F0125221DC
:105848007B017AA8798478AB7CA37D017E007F1ADE
:1058580012332D90A3A3E0FEA3E0FF7C007D1B1272
:1058680033ABEF2464FFE43E90A3AFF0A3EFF090D6
:10587800A3B47401F090A3A3E0FEA3E090A8E77599
:10588800F0061236B0EE75F006A42583F583E0FE27
:10589800A3E0FF7B017AA379AB90A58EE4F0A37413
:1058A80020F01252217B017AA9792178AB7CA37D63
:1058B800017E007F1A12332D90A3A3E0FEA3E0FF20
:1058C8007C007D1B1233ABEF2464FFE43E90A3AF52
:1058D800F0A3EFF090A3A3E0FEA3E0FF1233ABEF39
:1058E8002464FFE43E90A3B5F0A3EFF090A3A3E0F7
:1058F800FEA3E0FF1233ABEF247DFFE43E90A3B993
:10590800F0A3EFF090A3A3E0FEA3E090A8E975F060
:10591800061236B0EE75F006A42583F583E0FEA3E3
:10592800E0FF7B017AA379AB90A58EE4F0A3742005
:10593800F012522190A3A3E475F0011234480257E3
:10594800BE22E490A383F0A3F0E51320E003025BFA
:10595800A27B017AA3798390A58EE4F0A37402F068
:105968007F147E50124FB490A383E0FEA3E04E70E4
:1059780003025BA290A383E0A3E08EF012370B5BD7
:105988000BA0005B10A0265B15A0275B15A0285B69
:1059980022A4005B27A4015B2CA4A05B2CA4A15B20
:1059A8002CA4A25B2CA4A35B2CA4A45B2CA4A55BB5
:1059B8002CA4A65B2CA4A75B2CA4A85B2CA4A95B95
:1059C8002CA4AA5B2CA4AB5B2CA4AC5B2CA4AD5B75
:1059D8002CA4AE5B2CA4AF5B2CA4B05B2CA4B15B55
:1059E8002CA4B25B2CA4B35B2CA4B45B2CA4B55B35
:1059F8002CA4B65B2CA4B75B2CA4B85B2CA4B95B15
:105A08002CA4BA5B2CA4BB5B2CA4BC5B2CA4BD5BF4
:105A18002CA4BE5B2CA4BF5B2CA4C05B2CA4C15BD4
:105A28002CA4C25B2CA4C35B2CA4C45B2CA4C55BB4
:105A38002CA4C65B2CA4C75B2CA4C85B2CA4C95B94
:105A48002CA4CA5B2CA4CB5B2CA4CC5B2CA4CD5B74
:105A58002CA4CE5B2CA4CF5B2CA4D05B2CA4D15B54
:105A68002CA4D25B2CA4D35B2CA4D45B2CA4D55B34
:105A78002CA4D65B2CA4D75B2CA4D85B2CA4D95B14
:105A88002CA4DA5B2CA4DB5B2CA4DC5B2CA4DD5BF4
:105A98002CA4DE5B2CA4DF5B2CA4E05B2CA4E15BD4
:105AA8002CA4E25B2CA4E35B2CA4E45B2CA4E55BB4
:105AB80039A4F05B39A4F15B39A4F25B39A4F35B38
:105AC80046A6005B86A6015B4BAC005B50AC015B55
:105AD8005AC5005B5FC6005B55C7005B64C7015BC6
