:100000000277BE020006C2AFD2AF32026920C2AF91
:10001000D2AF3202000E90ACE9E0FEA3E0FF128006
:02002000DC22E0
:07002300027CD012840822C8
:10002B0002855F90AACE123BCE0000300090AAD280
:10003B00E4F0A3740CF07D007C307F5A12785F7B68
:10004B00017AAD79A590AAD0E4F0A37418F07F00E3
:10005B007E301256E0E490A8C5F090A8C5E0C3949A
:10006B000774809480506EE025E025E024A5F5828E
:10007B00E434ADF583123BAAE4FBFAF9F8C3123B67
:10008B0085602290A8C5E025E025E024A5F582E453
:10009B0034ADF583123BAA7B3F7A42790F7800C3CC
:1000AB00123B85502890A8C5E025E025E0247BF580
:1000BB0082E434ADF583123BAA90A8C5E025E02578
:1000CB00E024A5F582E434ADF583123BC290A8C5BC
:1000DB00E004F080857B017AAD79A590AAE2E4F08B
:0C00EB00A37414F07FA07EA612594D22D1
:1000F800FFFF4457494E543542AEDB000041AED6AF
:100108000042AED7000042AED9000042AEE1000086
:1001180042AEDF000042AEDD00005AADC13FC9006B
:10012800690064000086000A2D2D203A3A0000007C
:10013800000000000000005AADDB3FCC012700643E
:10014800000086000A2D2D2F3A3A0000000000001A
:10015800000000005AAE783FD001E50064000001BD
:10016800E5006402AD007D001000171818020000B9
:1001780000603CAE3C400040A04140401040B041CF
:1001880050402040C04160403040D0417040404025
:10019800E04180405040F041904060410041A04023
:1001A80070411041B04080412041C04090413041F1
:1001B800D054AE2841E041F842104228424042580B
:1001C8004270428842A042B848AE190000000000C0
:1001D80000000042AE21000042AE26000042AE23DD
:1001E800000041AE250042AE07000042ADF5000513
:1001F800499A5CB2E2CAD4BABAD7D6006E609A6598
:1002080049443030BBD8B7E7B8DFCEC200000000A1
:1002180000000000000000000000000000000000D6
:1002280049443031BBD8B7E7B5CDCEC20000000095
:1002380000000000000000000000000000000000B6
:1002480049443032BBD8B7E7B8DFCAAA000000007B
:100258000000000000000000000000000000000096
:1002680049443033BBD8B7E7B5CDCAAA000000006F
:100278000000000000000000000000000000000076
:1002880049443034CBCDB7E7B8DFCEC20000000018
:100298000000000000000000000000000000000056
:1002A80049443035CBCDB7E7B5CDCEC2000000000C
:1002B8000000000000000000000000000000000036
:1002C80049443036CBCDB7E7B8DFCAAA00000000F2
:1002D8000000000000000000000000000000000016
:1002E80049443037CBCDB7E7B5CDCAAA00000000E6
:1002F80000000000000000000000000000000000F6
:1003080049443038B1E4C6B5C6F7CDA8D0C5000019
:1003180000000000000000000000000000000000D5
:1003280049443039C4DAB2BFCDA8D0C500000000B6
:1003380000000000000000000000000000000000B5
:10034800494431304E5443D2ECB3A30000000000BE
:100358000000000000000000000000000000000095
:1003680049443131B7E7BBFA31B9CAD5CF000000EB
:100378000000000000000000000000000000000075
:1003880049443132B1A3C1F400000000000000006C
:100398000000000000000000000000000000000055
:1003A80049443133B1A3C1F400000000000000004B
:1003B8000000000000000000000000000000000035
:1003C80049443134B1A3C1F400000000000000002A
:1003D8000000000000000000000000000000000015
:1003E80049443135B1A3C1F4000000000000000009
:1003F80000000000000000000000000000000000F5
:1004080049443136CDE2B7E7BBFAB9CAD5CF0000C7
:1004180000000000000000000000000000000000D4
:1004280049443137B7E7BBFA31D4CBD0D0B3ACCAE3
:10043800B100000000000000000000000000000003
:1004480049443138B1A3C1F40000000000000000A5
:100458000000000000000000000000000000000094
:1004680049443139B1A3C1F4000000000000000084
:100478000000000000000000000000000000000074
:1004880049443230B1A3C1F400000000000000006C
:100498000000000000000000000000000000000054
:1004A80049443231B1A3C1F400000000000000004B
:1004B8000000000000000000000000000000000034
:1004C80049443232CDE2B7E7BBFAD4CBD0D0B3AC93
:1004D800CAB1000000000000000000000000000099
:1004E80049443233B8DFD1B931BFAAB9D8000000C6
:1004F80000000000000000000000000000000000F4
:1005080049443234B8DFD1B931CBF8CBC000000050
:1005180000000000000000000000000000000000D3
:1005280049443235B5CDD1B931B8E6BEAF00000087
:1005380000000000000000000000000000000000B3
:1005480049443236B5CDD1B931CBF8CBC000000023
:100558000000000000000000000000000000000093
:1005680049443237C5C5C6F8CEC2B6C831B8E6BEAA
:10057800AF000000000000000000000000000000C4
:1005880049443238C5C5C6F8CEC2B6C831CBF8CB57
:10059800C000000000000000000000000000000093
:1005A80049443239B6CCD6DCC6DA31B8E6BEAF003B
:1005B8000000000000000000000000000000000033
:1005C80049443330D1B9BBFA31D4CBD0D0B3ACCA5B
:1005D800B100000000000000000000000000000062
:1005E80049443331B8DFD1B932BFAAB9D8000000C5
:1005F80000000000000000000000000000000000F3
:1006080049443332B8DFD1B932CBF8CBC00000004F
:1006180000000000000000000000000000000000D2
:1006280049443333B5CDD1B9D1B9C1A6B8E6BEAFC7
:1006380000000000000000000000000000000000B2
:1006480049443334B5CDD1B932CBF8CBC000000022
:100658000000000000000000000000000000000092
:1006680049443335C5C5C6F8CEC2B6C832B8E6BEA9
:10067800AF000000000000000000000000000000C3
:1006880049443336C5C5C6F8CEC2B6C832CBF8CB56
:10069800C000000000000000000000000000000092
:1006A80049443337B6CCD6DCC6DA32B8E6BEAF003A
:1006B8000000000000000000000000000000000032
:1006C80049443338D1B9BBFA32D4CBD0D0B3ACCA51
:1006D800B100000000000000000000000000000061
:1006E80049443339BCD3CAAAB5E7C1F7B9FDB4F355
:1006F80000000000000000000000000000000000F2
:1007080049443430BCD3CAAAC6F7B8DFCBAECEBB97
:1007180000000000000000000000000000000000D1
:1007280049443431BCD3CAAAC6F7C8B1CBAE00001D
:1007380000000000000000000000000000000000B1
:1007480049443432BCD3CAAAC6F7D4CBD0D0B3AC50
:10075800CAB1000000000000000000000000000016
:1007680049443433BCD3C8C8C6F7B8E6BEAF0000A6
:100778000000000000000000000000000000000071
:1007880049443434BCD3C8C8C6F731B3ACCAB10085
:100798000000000000000000000000000000000051
:1007A80049443435BCD3C8C8C6F732B3ACCAB10063
:1007B8000000000000000000000000000000000031
:1007C80049443436B6CFB5E7D6D8C6F400000000A1
:1007D8000000000000000000000000000000000011
:1007E80049443437B5E7D4B4CFE0D0F2B4EDCEF312
:1007F80000000000000000000000000000000000F1
:1008080049443438B5E7D4B4C6B5C2CAC6ABB8DFB4
:1008180000000000000000000000000000000000D0
:1008280049443439B5E7D4B4C6B5C2CAC6ABB5CDA8
:1008380000000000000000000000000000000000B0
:100848004944353041CFE0B9FDD1B900000000007E
:100858000000000000000000000000000000000090
:100868004944353142CFE0B9FDD1B900000000005C
:100878000000000000000000000000000000000070
:100888004944353243CFE0B9FDD1B900000000003A
:100898000000000000000000000000000000000050
:1008A8004944353341CFE0C7B7D1B9000000000053
:1008B8000000000000000000000000000000000030
:1008C8004944353442CFE0C7B7D1B9000000000031
:1008D8000000000000000000000000000000000010
:1008E8004944353543CFE0C7B7D1B900000000000F
:1008F80000000000000000000000000000000000F0
:100908004944353641CFE0C8B1CFE00000000000CF
:1009180000000000000000000000000000000000CF
:100928004944353742CFE0C8B1CFE00000000000AD
:1009380000000000000000000000000000000000AF
:100948004944353843CFE0C8B1CFE000000000008B
:10095800000000000000000000000000000000008F
:1009680049443539C6F8C1F7B6AACAA7B8E6BEAF32
:10097800000000000000000000000000000000006F
:1009880049443630B9FDC2CBCDF8D4CBD0D0B3ACC6
:10099800CAB10000000000000000000000000000D4
:1009A80049443631B9FDC2CBCDF8B6C2B8E6BEAFC0
:1009B800000000000000000000000000000000002F
:1009C80049443632D4B6B3CCB9D8BBFAB8E6BEAFD0
:1009D800000000000000000000000000000000000F
:1009E80049443633D2E7CBAEB8E6BEAF00000000CC
:1009F80000000000000000000000000000000000EF
:100A080049443634C8BABFD8CDA8D0C5D2ECB3A3B0
:100A180000000000000000000000000000000000CE
:100A280049443635B1E4C6B5C6F7B9CAD5CF0000D2
:100A380000000000000000000000000000000000AE
:100A480049443636B5CDB9FDC8C8B6C831B8E6BED2
:100A5800AF000000000000000000000000000000DF
:100A680049443637B5CDB9FDC8C8B6C832B8E6BEB0
:100A7800AF000000000000000000000000000000BF
:100A880049443638D1CCCEEDB8E6BEAF0000000000
:100A9800000000000000000000000000000000004E
:100AA80049443639D3C3BBA7D7D4B6A8D2E5B8E6EC
:100AB800BEAF0000000000000000000000000000C1
:100AC80049443730B5E7D4B4D2ECB3A300000000F2
:100AD800000000000000000000000000000000000E
:100AE80049443731B1A3C1F4000000000000000000
:100AF80000000000000000000000000000000000EE
:100B080049443732B1A3C1F40000000000000000DE
:100B180000000000000000000000000000000000CD
:100B280049443733B1A3C1F40000000000000000BD
:100B380000000000000000000000000000000000AD
:100B480049443734B1A3C1F400000000000000009C
:100B5800000000000000000000000000000000008D
:100B680049443735B1A3C1F400000000000000007B
:100B7800000000000000000000000000000000006D
:100B880049443736B5CDD1B9D1B9C1A60000000066
:100B9800000000000000000000000000000000004D
:100BA80049443737B1A3C1F4000000000000000039
:100BB800000000000000000000000000000000002D
:100BC80049443738B1A3C1F4000000000000000018
:100BD800000000000000000000000000000000000D
:100BE80049443739D1B9C1A6CAE4C8EBD2ECB3A39A
:100BF80000000000000000000000000000000000ED
:100C080049443830C5C5CBAEB8DFCBAECEBB00004B
:100C180000000000000000000000000000000000CC
:100C280049443831BCD3CAAAC6F7D2ECB3A30000F2
:100C380000000000000000000000000000000000AC
:100C480049443832B7E7D1B9B9FDB5CD0000000045
:100C5800000000000000000000000000000000008C
:100C680049443833B1A3C1F400000000000000007B
:100C7800000000000000000000000000000000006C
:100C880049443834B8DFD1B931D1B9C1A600000020
:100C9800000000000000000000000000000000004C
:100CA80049443835B1A3C1F4000000000000000039
:100CB800000000000000000000000000000000002C
:100CC800494438364D4F5031B8E6BEAF00000000F9
:100CD800000000000000000000000000000000000C
:100CE800494438374D4F5032B8E6BEAF00000000D7
:100CF80000000000000000000000000000000000EC
:100D0800494438384C4F5031B8E6BEAF00000000B7
:100D180000000000000000000000000000000000CB
:100D2800494438394C4F5032B8E6BEAF0000000095
:100D380000000000000000000000000000000000AB
:100D480049443930C9E8B1B8CAB9D3C3B3ACCAB198
:100D5800000000000000000000000000000000008B
:100D680049443931B1A3C1F400000000000000007B
:100D7800000000000000000000000000000000006B
:100D880049443932B1A3C1F400000000000000005A
:100D9800000000000000000000000000000000004B
:100DA80049443933B1A3C1F4000000000000000039
:100DB800000000000000000000000000000000002B
:100DC80049443934B1A3C1F4000000000000000018
:100DD800000000000000000000000000000000000B
:100DE80049443935B1A3C1F40000000000000000F7
:100DF80000000000000000000000000000000000EB
:100E080049443936B1A3C1F40000000000000000D5
:100E180000000000000000000000000000000000CA
:100E280049443937B1A3C1F40000000000000000B4
:100E380000000000000000000000000000000000AA
:100E480049443938B1A3C1F4000000000000000093
:100E5800000000000000000000000000000000008A
:100E680049443939B1A3C1F4000000000000000072
:100E7800000000000000000000000000000000006A
:100E88004944313030B1A3C1F40000000000000033
:100E9800000000000000000000000000000000004A
:100EA8004944313031B1A3C1F40000000000000012
:100EB800000000000000000000000000000000002A
:100EC8004944313032B1A3C1F400000000000000F1
:100ED800000000000000000000000000000000000A
:100EE8004944313033B1A3C1F400000000000000D0
:100EF80000000000000000000000000000000000EA
:100F08004944313034B1A3C1F400000000000000AE
:100F180000000000000000000000000000000000C9
:100F28004944313035B1A3C1F4000000000000008D
:100F380000000000000000000000000000000000A9
:100F48004944313036B1A3C1F4000000000000006C
:100F58000000000000000000000000000000000089
:100F68004944313037B1A3C1F4000000000000004B
:100F78000000000000000000000000000000000069
:100F88004944313038B1A3C1F4000000000000002A
:100F98000000000000000000000000000000000049
:100FA8004944313039B1A3C1F40000000000000009
:100FB8000000000000000000000000000000000029
:100FC8004944313130B1A3C1F400000000000000F1
:100FD8000000000000000000000000000000000009
:100FE8004944313131B1A3C1F400000000000000D0
:100FF80000000000000000000000000000000000E9
:101008004944313132B1A3C1F400000000000000AE
:1010180000000000000000000000000000000000C8
:101028004944313133B1A3C1F4000000000000008D
:1010380000000000000000000000000000000000A8
:101048004944313134B1A3C1F4000000000000006C
:101058000000000000000000000000000000000088
:1010680041AEE30047AEB50000000000000047AE07
:10107800A60000000000000048AEBC000000000010
:1010880000000048AEAD0000000000000000C100F4
:1010980042AEA4000052AE92000000000000000022
:1010A8000000000000000000000042AEC600004240
:1010B800AEC8000042AEC4000044AED2000000003A
:1010C80042AECA000044AECC000000000208000096
:1010D800040B00000000040F0000000042AED00026
:1010E80000010A006100AAE600C1814001C08041F8
:1010F80001C0804100C1814001C0804100C18140E0
:1011080000C1814001C0804101C0804100C18140CF
:1011180000C1814001C0804100C1814001C08041BF
:1011280001C0804100C1814001C0804100C18140AF
:1011380000C1814001C0804100C1814001C080419F
:1011480001C0804100C1814000C1814001C080418F
:1011580001C0804100C1814001C0804100C181407F
:1011680000C1814001C0804101C0804100C181406F
:1011780000C1814001C0804100C1814001C080415F
:1011880001C0804100C1814000C1814001C080414F
:1011980001C0804100C1814001C0804100C181403F
:1011A80000C1814001C0804100C1814001C080412F
:1011B80001C0804100C1814001C0804100C181401F
:1011C80000C1814001C0804101C0804100C181400F
:1011D80000C1814001C0804100C1814001C08041FF
:1011E80001C0804100C181406100ABE600C0C1017F
:1011F800C30302C2C60607C705C5C404CC0C0DCD7F
:101208000FCFCE0E0ACACB0BC90908C8D81819D9EE
:101218001BDBDA1A1EDEDF1FDD1D1CDC14D4D5151E
:10122800D71716D6D21213D311D1D010F03031F10E
:1012380033F3F23236F6F737F53534F43CFCFD3D3E
:10124800FF3F3EFEFA3A3BFB39F9F83828E8E9292E
:10125800EB2B2AEAEE2E2FEF2DEDEC2CE42425E5DE
:1012680027E7E62622E2E323E12120E0A06061A14E
:1012780063A3A26266A6A767A56564A46CACAD6DFE
:10128800AF6F6EAEAA6A6BAB69A9A86878B8B9796E
:10129800BB7B7ABABE7E7FBF7DBDBC7CB47475B59E
:1012A80077B7B67672B2B373B17170B0509091518E
:1012B8009353529296565797559594549C5C5D9DBE
:1012C8005F9F9E5E5A9A9B5B9959589888484989AE
:1012D8004B8B8A4A4E8E8F4F8D4D4C8C448485455E
:1012E8008747468682424383418180404199D7009F
:1012F80041861800449A58000000004186130044B3
:1013080086140000000073B086275A021003C80232
:1013180050155016000000FF5A020303C8000000D1
:10132800A020031C00FF5A020301C8010039A023B2
:10133800031900FF5A020601C803A084A024010073
:1013480000395A020301C8010039A025010400FF31
:101358005A020601C802A087A027010400FF5A020A
:101368000303C8010039A0A0011A00FF5A020301B3
:10137800C8010039C620010600FF5A020302C8004E
:101388000000A0A3031000FF5A020304C801000ACA
:10139800AA00032600FF5A020305C801000AAA048E
:1013A800034400FF5A020301C801000AAA09034FB7
:1013B80000FF5A020301C801000AAA0A036500FFD8
:1013C8005A020301C801000AAA0B036900FF5A0266
:1013D8000301C801000AAA0C036C00FF5A020301AA
:1013E800C801000AAA0D036F00FF5A020301C801D1
:1013F800000AAA0E037700FF5A020301C801000A77
:10140800CF23011000FF5A020301C801000AAA0FE6
:10141800010A00FF5A020301C801000AAA10038842
:1014280000FF5A020301C801000AAA11010E00FFB9
:101438005A02031FC801000BAB20038C00FF5A029D
:101448000601C803AC80AC20023A000C5A0203061D
:10145800C800000DAEA0032000FF5A020301C80116
:10146800000FCF27019700FF5A020301C80100119E
:10147800B120037200FF5A020303C8010011B12111
:1014880003E300FF5A020302C8010011B12403DF7D
:1014980000FF5A020302C8010011B126034100FFF0
:1014A8005A020301C8010011B128037700FF5A024C
:1014B8000301C8010011B129031800FF5A020301F2
:1014C800C8010011B12A03E600FF5A020301C8014E
:1014D8000011B12B03EA00FF5A020307C803B30047
:1014E800B320011A00135A020601C803B380B320BF
:1014F800011A00135A020601C803B382B322011C61
:1015080000135A020601C803B383B323011D001355
:101518005A020601C803B384B324011E00135A02F9
:101528000601C803B385B325011F00135A0206013B
:10153800C803B386B326012000135A02030BC8035D
:10154800B400B420015800145A020301C803B400BF
:10155800B42B013B00145A020301C803B400B42C95
:10156800019E00145A020301C803B400B42D02CB33
:1015780000145A020601C803B480B42001580014AC
:101588005A020601C803B481B421015900145A0251
:101598000601C803B483B423015B00145A02060190
:1015A800C803B484B424015C00145A020601C803B9
:1015B800B485B425015D00145A020601C803B48637
:1015C800B426015E00145A020601C803B487B42782
:1015D800015F00145A020601C803B488B4280160E8
:1015E80000145A020601C803B48AB42A016200141E
:1015F8005A020601C803B48BB42B013B00145A02EB
:101608000601C803B48CB42C019E00145A020601CA
:10161800C803B48DB42D02CB00145A020304C803C6
:10162800B600B620016300165A020304C803B600C8
:10163800B62402C200165A020601C803B680B620B4
:10164800016300165A020601C803B681B621016477
:1016580000165A020601C803B682B62201650016B2
:101668005A020601C803B683B623016600165A0259
:101678000601C803B684B62402C200165A02030241
:10168800C803B700B720014800175A020301C8036E
:10169800B700B722017A00175A020301C803B7003E
:1016A800B72302C700175A020305C803B700B726B5
:1016B800014300175A020601C803B780B720014842
:1016C80000175A020601C803B781B721014900175C
:1016D8005A020601C803B782B722017A00175A02D4
:1016E8000601C803B783B72302C700175A020601C9
:1016F800C803B786B726014300175A020601C80374
:10170800B787B727014400175A020601C803B788EC
:10171800B728014500175A020601C803B789B72937
:10172800014600175A020601C803B78AB72A0147BB
:1017380000175A020301C803B800B820016A00184C
:101748005A020303C803B800B821016D00185A02F1
:101758000301C803B800B824017200185A02030133
:10176800C803B800B825017400185A020301C80359
:10177800B800B826017B00185A020301C803B80054
:10178800B827022A00185A020301C803B800B8286B
:10179800017300185A020601C803B880B820016A0C
:1017A80000185A020601C803B881B821016D001853
:1017B8005A020601C803B882B822016E00185A02FC
:1017C8000601C803B883B823016F00185A0206013E
:1017D800C803B884B824017200185A020601C80365
:1017E800B885B825017400185A020601C803B886DE
:1017F800B826017B00185A020601C803B887B82723
:10180800022A00185A020601C803B888B8280173CA
:1018180000185A020301C803BA00BA20014A001A84
:101828005A020301C803BA00BA210142001A5A0237
:101838000302C803BA00BA220178001A5A02030246
:10184800C803BA00BA2402C5001A5A020302C80320
:10185800BA00BA26013C001A5A020302C803BA00A9
:10186800BA280139001A5A020302C803BA00BA2A70
:101878000176001A5A020302C803BA00BA2C02C839
:10188800001A5A020601C803BA80BA20014A001A8F
:101898005A020601C803BA81BA210142001A5A0243
:1018A8000601C803BA82BA220178001A5A02060150
:1018B800C803BA83BA230179001A5A020601C80379
:1018C800BA84BA2402C5001A5A020601C803BA85A6
:1018D800BA2502C6001A5A020601C803BA86BA26F1
:1018E800013C001A5A020601C803BA87BA27013D0B
:1018F800001A5A020601C803BA88BA280139001A20
:101908005A020601C803BA89BA29013A001A5A02CA
:101918000601C803BA8ABA2A0176001A5A020601D1
:10192800C803BA8BBA2B0177001A5A020601C803FA
:10193800BA8CBA2C02C8001A5A020301C803BB00A9
:10194800BB2001B0001B5A020302C803BB00BB2125
:1019580001B2001B5A020302C803BB00BB2301B536
:10196800001B5A020302C803BB00BB2501B8001BB9
:101978005A020301C803BB00BB2701BB001B5A0264
:101988000302C803BB00BB2801D1001B5A02030293
:10199800C803BB00BB2A01FB001B5A020302C80391
:1019A800BB00BB2C0276001B5A020601C803BB8091
:1019B800BB2001B0001B5A020601C803BB81BB2132
:1019C80001B2001B5A020601C803BB82BB2201B345
:1019D800001B5A020601C803BB83BB2301B5001BC9
:1019E8005A020601C803BB84BB2401B6001B5A0275
:1019F8000601C803BB85BB2501B8001B5A020601B6
:101A0800C803BB86BB2601B9001B5A020601C803DE
:101A1800BB87BB2701BB001B5A020601C803BB8852
:101A2800BB2801D1001B5A020601C803BB89BB2988
:101A380001D2001B5A020601C803BB8ABB2A01FB5C
:101A4800001B5A020601C803BB8BBB2B01FC001B01
:101A58005A020601C803BB8CBB2C0276001B5A0233
:101A68000601C803BB8DBB2D0277001B5A02030277
:101A7800C803BC00BC200232001C5A020301C80380
:101A8800BC00BC220252001C5A020301C803BC005D
:101A9800BC230255001C5A020301C803BC00BC2425
:101AA8000258001C5A020301C803BC00BC2502618D
:101AB800001C5A020302C803BC00BC260271001CA9
:101AC8005A020301C803BC00BC280286001C5A0243
:101AD8000601C803BC80BC200232001C5A02060161
:101AE800C803BC81BC210233001C5A020601C8038A
:101AF800BC82BC220252001C5A020601C803BC83E5
:101B0800BC230255001C5A020601C803BC84BC242D
:101B18000258001C5A020601C803BC85BC25026194
:101B2800001C5A020601C803BC86BC260271001CB0
:101B38005A020601C803BC87BC270272001C5A025D
:101B48000601C803BC88BC280286001C5A0203028E
:101B5800C803BF00BF200102001F5A020301C803C7
:101B6800BF00BF220107001F5A020301C803BF00BC
:101B7800BF2301A5001F5A020601C803BF80BF206A
:101B88000102001F5A020601C803BF81BF210103D9
:101B9800001F5A020601C803BF82BF220107001FA7
:101BA8005A020601C803BF83BF2301A5001F5A02BA
:101BB8000308C803C200C220018200225A0203019E
:101BC800C803C200C228018C00225A020301C803BC
:101BD800C200C229019800225A020601C803C28025
:101BE800C220018200225A020601C803C281C22112
:101BF800018300225A020601C803C282C22201845C
:101C080000225A020601C803C284C22401860022A7
:101C18005A020601C803C285C225018700225A025A
:101C28000601C803C286C226018800225A0206019C
:101C3800C803C287C227018900225A020601C803C5
:101C4800C288C228018C00225A020601C803C28930
:101C5800C229019800225A020601C803C580C5207E
:101C6800023B000F5A020301C8010026CF27019743
:101C780000FF5A020301C8010026C620010600FF22
:101C88005A020601C803C681C621010600265A0267
:101C98000301C803C700C720010400275A02030331
:101CA800C803C700C72101A800275A020302C803B6
:101CB800C700C72402D800275A020301C801002719
:101CC800C726031600FF5A020301C8010027C727C9
:101CD800031800FF5A020301C8010027C728037729
:101CE80000FF5A020301C8010027C72903D700FFD4
:101CF8005A020301C8010027A025010400FF5A0267
:101D08000601C803C780C720010400275A0206013C
:101D1800C803C781C72101A800275A020601C803C2
:101D2800C782C72201A900275A020601C803C78330
:101D3800C72301AA00275A020601C803C784C7247B
:101D480002D800275A020601C803C785C72502D949
:101D580000275A020301C803C800C8200127002829
:101D68005A020301C803C800C821012900285A02E1
:101D78000304C803C800C822012D00285A02030121
:101D8800C803C800C826019000285A020301C803E6
:101D9800C800C827019400285A020302C803C800D3
:101DA800C828012B00285A020601C803C880C82089
:101DB800012700285A020601C803C881C821012941
:101DC80000285A020601C803C882C822012D00282B
:101DD8005A020601C803C883C823012E00285A02E4
:101DE8000601C803C884C824012F00285A02060126
:101DF800C803C885C825013000285A020601C8034F
:101E0800C886C826019000285A020601C803C88758
:101E1800C827019400285A020601C803C888C828A0
:101E2800012B00285A020601C803C889C829012CB9
:101E380000285A02030EC8010029C9B0037800FF20
:101E48005A020601C803C990C930023C00295A0247
:101E58000303C803CC00CCA00302002C5A020304DD
:101E6800C803CF00CF20010D002F5A020301C80379
:101E7800CF00CF240141002F5A020301C803CF002D
:101E8800CF25015A002F5A020301C803CF00CF26DD
:101E980002D0002F5A020301C803CF00CF270197B1
:101EA800002F5A020601C803CF80CF20010D002F52
:101EB8005A020601C803CF81CF21010E002F5A0212
:101EC8000601C803CF82CF22010F002F5A02060154
:101ED800C803CF83CF230110002F5A020601C8037D
:101EE800CF84CF240141002F5A020601C803CF85B1
:101EF800CF25015A002F5A020601C803CF86CF26E4
:101F080002D0002F5A020601C803CF87CF270197B6
:101F1800002F5A020601C803CF8ACF2A023B002F9E
:101F28005A020301C803D100D12002CA00315A0263
:101F38000301C803D100D121014100315A02030134
:101F4800C803D100D12202C900315A020601C803D0
:101F5800D180D12002CA00315A020601C803D181BA
:101F6800D121014100315A020601C803D182D12290
:101F780002C900315A020301C8010031D12303E22A
:101F880000FF5A02030AC8010034D420039C00FF52
:101F98005A020302C8010034D42A03A800FF5A02D7
:101FA8000307C803D500D520011A00355A020601D7
:101FB800C803D580D520011A00355A020601C80386
:101FC800D582D522011C00355A020601C803D583E3
:101FD800D523011D00355A020601C803D584D5242E
:101FE800011E00355A020601C803D585D525011FF3
:101FF80000355A020601C803D586D52601200035CA
:102008005A020301C803D600D620010800365A0236
:102018000302C803D600D621010A00365A0203017A
:10202800C803D600D62301A700365A020601C80302
:10203800D680D620010800365A020601C803D68188
:10204800D621010A00365A020601C803D682D622D2
:10205800010B00365A020601C803D683D62301A70E
:1020680000365A020301C803D800D82001F5003809
:102078005A020301C803D800D821020700385A02BF
:102088000306C803D800D82201BC00385A0203034B
:10209800C803D800D82801DA00385A020303C80355
:1020A800D800D82B01C500385A020301C803D8004C
:1020B800D82E027D00385A020301C803D800D82F51
:1020C800027F00385A020301C803D800D830020F33
:1020D80000385A020302C803D800D83101C80038B2
:1020E8005A020601C803D880D82001F500385A02E0
:1020F8000601C803D881D821020700385A02060110
:10210800C803D882D82201BC00385A020601C80385
:10211800D883D82301BD00385A020601C803D884E1
:10212800D82401BE00385A020601C803D885D8252C
:1021380001BF00385A020601C803D886D82601C054
:1021480000385A020601C803D887D82701C10038C9
:102158005A020601C803D888D82801DA00385A027A
:102168000601C803D889D82901DB00385A020601BC
:10217800C803D88AD82A01DC00385A020601C803E5
:10218800D88BD82B01C500385A020601C803D88C51
:10219800D82C01C600385A020601C803D88DD82D9C
:1021A80001C700385A020601C803D88ED82E027D0E
:1021B80000385A020601C803D88FD82F027F00388A
:1021C8005A020601C803D890D830020F00385A02C4
:1021D8000601C803D891D83101C800385A0206014F
:1021E800C803D892D83201C900385A020301C8017D
:1021F800003ADA2003CD00FF5A020301C801003A71
:10220800DA2103CF00FF5A020302C801003ADA229A
:1022180003D100FF5A020301C801003ADA2403D5AA
:1022280000FF5A020301C801003ADA2503D700FF6C
:102238005A020301C801003ADA2603D900FF5A02FC
:102248000301C801003ADA2703DB00FF5A02030141
:10225800C801003ADA2803DD00FF5A020301C80367
:10226800DB00DB20019A003B5A020301C803DB00B4
:10227800DB2102D3003B5A020302C803DB00DB2246
:1022880002D5003B5A020302C803DB00DB2402D854
:10229800003B5A020305C803DB00DB2602DB003BD8
:1022A8005A020301C803DB00DB2B0106003B5A027C
:1022B8000301C803DB00DB2C02E1003B5A020302E6
:1022C800C803DB00DB2D02E4003B5A020302C8030B
:1022D800DB00DB2F0178003B5A020601C803DB80D4
:1022E800DB20019A003B5A020601C803DB81DB218F
:1022F80002D3003B5A020601C803DB82DB2202D567
:10230800003B5A020601C803DB83DB2302D6003BED
:102318005A020601C803DB84DB2402D8003B5A02B8
:102328000601C803DB85DB2502D9003B5A020601FA
:10233800C803DB86DB2602DB003B5A020601C80322
:10234800DB87DB2702DC003B5A020601C803DB8877
:10235800DB2802DD003B5A020601C803DB89DB29C2
:1023680002DE003B5A020601C803DB8ADB2A02DFD1
:10237800003B5A020601C803DB8BDB2B0106003B3E
:102388005A020601C803DB8CDB2C02E1003B5A022F
:102398000601C803DB8DDB2D02E4003B5A0206016F
:1023A800C803DB8EDB2E02E5003B5A020601C80398
:1023B800DB8FDB2F0178003B5A020601C803DB9054
:1023C800DB300179003B5A020301C803DD00DD2040
:1023D800019B003D5A020304C803DD00DD2101E72B
:1023E800003D5A020302C803DD00DD2501ED003D72
:1023F8005A020601C803DD80DD20019B003D5A0218
:102408000601C803DD81DD2101E7003D5A0206010E
:10241800C803DD82DD2201E8003D5A020601C80337
:10242800DD83DD2301E9003D5A020601C803DD848E
:10243800DD2401EA003D5A020601C803DD85DD25D9
:1024480001ED003D5A020601C803DD86DD2601EED6
:10245800003D5A020301C801003EDE20037500FF5B
:102468005A020303C803DF00DF200237003F5A0285
:102478000306C803DF00DF23029E003F5A0203035E
:10248800C803DF00DF290201003F5A020302C80324
:10249800DF00DF2C0283003F5A020303C803DF007A
:1024A800DF2E028C003F5A020601C803DF80DF20BE
:1024B8000237003F5A020601C803DF81DF210238D4
:1024C800003F5A020601C803DF82DF220239003FBB
:1024D8005A020601C803DF83DF23029E003F5A0227
:1024E8000601C803DF84DF24029F003F5A02060169
:1024F800C803DF85DF2502A0003F5A020601C80392
:10250800DF86DF2602A1003F5A020601C803DF87E3
:10251800DF2702A2003F5A020601C803DF88DF282E
:1025280002A3003F5A020601C803DF89DF2902011E
:10253800003F5A020601C803DF8ADF2A0202003F71
:102548005A020601C803DF8BDF2B0203003F5A0241
:102558000601C803DF8CDF2C0283003F5A02060104
:10256800C803DF8DDF2D0284003F5A020601C8032D
:10257800DF8EDF2E028C003F5A020601C803DF8F70
:10258800DF2F028D003F5A020601C803DF90DF30BB
:10259800028E003F5A020301C8010040E02203BE38
:1025A80000FF5A020301C8010040E02303C900FFED
:1025B8005A021002C803E080E020000000405A02DE
:1025C8000301C8000000E00003CC00FF5A0210021B
:1025D800C803E080E020000000415A020301C8035C
:1025E800C700C720010400435A020303C803C700F9
:1025F800C72101A800435A020302C803C700C72421
:1026080002D800435A020301C801C700C72A01AB18
:1026180000435A020301C8010043C726031600FFFE
:102628005A020301C8010043C727031800FF5A02D2
:102638000301C8010043C728037700FF5A020301BA
:10264800C8010043C72903D700FF5A020301C80184
:102658000043A025010400FF5A020601C803C780F1
:10266800C720010400435A020601C803C781C721D5
:1026780001A800435A020601C803C782C72201A95C
:1026880000435A020601C803C783C72301AA0043AF
:102698005A020601C803C784C72402D800435A0255
:1026A8000601C803C785C72502D900435A02060197
:1026B800C803C78AC72A01AB00434E861900000029
:1026C800000000000000000000000042800100003F
:1026D800661080035A13B320B350B3805A13B32241
:1026E800B352B3825A13B323B353B3835A13B324E5
:1026F800B354B3845A13B325B355B3855A13B326C9
:10270800B356B3865A14B420B450B4805A14B421C2
:10271800B451B4815A14B423B453B4835A14B424AE
:10272800B454B4845A14B425B455B4855A14B42690
:10273800B456B4865A14B427B457B4875A14B42874
:10274800B458B4885A14B42AB45AB48A5A14B42B54
:10275800B45BB48B5A14B42CB45CB48C5A14B42D36
:10276800B45DB48D5A16B620B650B6805A16B62146
:10277800B651B6815A16B622B652B6825A16B62342
:10278800B653B6835A16B624B654B6845A17B72029
:10279800B750B7805A17B721B751B7815A17B72220
:1027A800B752B7825A17B723B753B7835A17B72602
:1027B800B756B7865A17B727B757B7875A17B728DC
:1027C800B758B7885A17B729B759B7895A17B72AC0
:1027D800B75AB78A5A18B820B850B8805A18B821CA
:1027E800B851B8815A18B822B852B8825A18B823C2
:1027F800B853B8835A18B824B854B8845A18B825A6
:10280800B855B8855A18B826B856B8865A18B82789
:10281800B857B8875A18B828B858B8885A1ABA2072
:10282800BA50BA805A1ABA21BA51BA815A1ABA2277
:10283800BA52BA825A1ABA23BA53BA835A1ABA245B
:10284800BA54BA845A1ABA25BA55BA855A1ABA263F
:10285800BA56BA865A1ABA27BA57BA875A1ABA2823
:10286800BA58BA885A1ABA29BA59BA895A1ABA2A07
:10287800BA5ABA8A5A1ABA2BBA5BBA8B5A1ABA2CEB
:10288800BA5CBA8C5A1BBB20BB50BB805A1BBB21FD
:10289800BB51BB815A1BBB22BB52BB825A1BBB23F9
:1028A800BB53BB835A1BBB24BB54BB845A1BBB25DD
:1028B800BB55BB855A1BBB26BB56BB865A1BBB27C1
:1028C800BB57BB875A1BBB28BB58BB885A1BBB29A5
:1028D800BB59BB895A1BBB2ABB5ABB8A5A1BBB2B89
:1028E800BB5BBB8B5A1BBB2CBB5CBB8C5A1BBB2D6D
:1028F800BB5DBB8D5A1CBC20BC50BC805A1CBC2183
:10290800BC51BC815A1CBC22BC52BC825A1CBC2380
:10291800BC53BC835A1CBC24BC54BC845A1CBC2564
:10292800BC55BC855A1CBC26BC56BC865A1CBC2748
:10293800BC57BC875A1CBC28BC58BC885A1FBF202F
:10294800BF50BF805A1FBF21BF51BF815A1FBF222E
:10295800BF52BF825A1FBF23BF53BF835A22C22010
:10296800C250C2805A22C221C251C2815A22C222F6
:10297800C252C2825A22C224C254C2845A22C225D6
:10298800C255C2855A22C226C256C2865A22C227B8
:10299800C257C2875A22C228C258C2885A22C2299C
:1029A800C259C2895A27C720C750C7805A27C7218A
:1029B800C751C7815A27C722C752C7825A27C72378
:1029C800C753C7835A27C724C754C7845A27C7255C
:1029D800C755C7855A28C820C850C8805A28C82152
:1029E800C851C8815A28C822C852C8825A28C82340
:1029F800C853C8835A28C824C854C8845A28C82524
:102A0800C855C8855A28C826C856C8865A28C82707
:102A1800C857C8875A28C828C858C8885A28C829EB
:102A2800C859C8895A2FCF20CF50CF805A2FCF21CD
:102A3800CF51CF815A2FCF22CF52CF825A2FCF23B7
:102A4800CF53CF835A2FCF24CF54CF845A2FCF259B
:102A5800CF55CF855A2FCF26CF56CF865A2FCF277F
:102A6800CF57CF875A31D120D150D1805A31D12177
:102A7800D151D1815A31D122D152D1825A35D52062
:102A8800D550D5805A35D522D552D5825A35D52339
:102A9800D553D5835A35D524D554D5845A35D5251B
:102AA800D555D5855A35D526D556D5865A36D62004
:102AB800D650D6805A36D621D651D6815A36D62205
:102AC800D652D6825A36D623D653D6835A38D820E9
:102AD800D850D8805A38D821D851D8815A38D822D5
:102AE800D852D8825A38D823D853D8835A38D824B9
:102AF800D854D8845A38D825D855D8855A38D8269D
:102B0800D856D8865A38D827D857D8875A38D82880
:102B1800D858D8885A38D829D859D8895A38D82A64
:102B2800D85AD88A5A38D82BD85BD88B5A38D82C48
:102B3800D85CD88C5A38D82DD85DD88D5A38D82E2C
:102B4800D85ED88E5A38D82FD85FD88F5A38D83010
:102B5800D860D8905A38D831D861D8915A38D832F4
:102B6800D862D8925A3BDB20DB50DB805A3BDB2112
:102B7800DB51DB815A3BDB22DB52DB825A3BDB2316
:102B8800DB53DB835A3BDB24DB54DB845A3BDB25FA
:102B9800DB55DB855A3BDB26DB56DB865A3BDB27DE
:102BA800DB57DB875A3BDB28DB58DB885A3BDB29C2
:102BB800DB59DB895A3BDB2ADB5ADB8A5A3BDB2BA6
:102BC800DB5BDB8B5A3BDB2CDB5CDB8C5A3BDB2D8A
:102BD800DB5DDB8D5A3BDB2EDB5EDB8E5A3BDB2F6E
:102BE800DB5FDB8F5A3BDB30DB60DB905A3DDD205F
:102BF800DD50DD805A3DDD21DD51DD815A3DDD228C
:102C0800DD52DD825A3DDD23DD53DD835A3DDD246F
:102C1800DD54DD845A3DDD25DD55DD855A3DDD2653
:102C2800DD56DD865A3FDF20DF50DF805A3FDF2147
:102C3800DF51DF815A3FDF22DF52DF825A3FDF2335
:102C4800DF53DF835A3FDF24DF54DF845A3FDF2519
:102C5800DF55DF855A3FDF26DF56DF865A3FDF27FD
:102C6800DF57DF875A3FDF28DF58DF885A3FDF29E1
:102C7800DF59DF895A3FDF2ADF5ADF8A5A3FDF2BC5
:102C8800DF5BDF8B5A3FDF2CDF5CDF8C5A3FDF2DA9
:102C9800DF5DDF8D5A3FDF2EDF5EDF8E5A3FDF2F8D
:102CA800DF5FDF8F5A3FDF30DF60DF905A43C72096
:102CB800C750C7805A43C721C751C7815A43C72243
:102CC800C752C7825A43C723C753C7835A43C72427
:102CD800C754C7845A43C725C755C7855A43C72A07
:102CE800C75AC78A418000005CADA50000000000FB
:102CF80000000000000000000000000000000000CC
:102D0800000000000000005CAD7B00000000000037
:102D180000010000000200027360000A2D08000391
:102D280010CC0007ED6541AD77FF608CACEB00007F
:102D38000100020003000400050006000700080067
:102D480009000A000B000C000D000E000F01100016
:102D580011001202130014001500160017001800C5
:102D680019001A001B021C001D001E001F00200075
:102D78002100220023002402250026012700280024
:102D880029002A002B002C002D002E002F033000D4
:102D98003100320033003400350036003700380087
:102DA80039003A003B003C003D003E003F00400532
:102DB800410042004300440045004EAD9700010128
:102DC800030203030604020500060342AD7900006E
:102DD80042ACE9000042ACE6000041ACE80000AFBC
:102DE80013EF1313543F5401640160030237AB7BA4
:102DF800017AA879C590AAD0F0A3740CF07F217E3F
:102E0800A01256E090A8C7E0FEA3E0FF90A8C5E096
:102E1800FCA3E02FFFEC3EFE90AE07E0FCA3E06FC2
:102E28007002EE6C605890A8C7E0FEA3E0FF90A87F
:102E3800C5E0FCA3E02FFFEC3EFE90AE07E0FCA34C
:102E4800E0C39FEC9E501D90A8CFE4F0A304F0FBD4
:102E58007AA879CF90AAE2E4F0A37402F07F267EE4
:102E6800A012594D90A8C7E0FEA3E0FF90A8C5E0C6
:102E7800FCA3E02FFFEC3E90AE07F0A3EFF090A884
:102E8800C5E0FEA3E0D39400EE9400500CA3E0FE4E
:102E9800A3E09400EE9400402090A8CFE0FEA3E0C9
:102EA8004E60167B017AAD79F590AAE2E4F0A3743E
:102EB80002F07FA07E0012594D90AEDBE0FEA3E049
:102EC800640D4E600302326890AEDBE0A3E0FF9031
:102ED800AE21E0FCA3E06F7002EC6E601EE490AEE1
:102EE80026F0A3F07B017AAE792690AAE2F0A374CB
:102EF80002F07F017EAE12594D80167B017AAE79C1
:102F08002690AAD0E4F0A37402F07F017EAE125698
:102F1800E07B017AA879C590AAD0E4F0A37410F0F8
:102F28007FA07EAE1256E0E490A8D3F0A3E0540749
:102F3800F07B017AAD79F778C57CA87D017E007FAA
:102F480010123E0DEF702F90AE23E0FEA3E0FF902D
:102F5800AE26E0FCA3E0B5071DECB5061990AEDB84
:102F6800E0FEA3E0FF90AE21E0FCA3E06F7002EC6E
:102F78006E700302355D7B017AA879C578F77CAD60
:102F88007D017E007F1012387CE490AE25F090A879
:102F9800F8F090A8F8E0C394087480948040030285
:102FA8003210E490A8F7F090A8F7E0C3941074806A
:102FB80094804003023207A3E0C454F0FF90A8F7BE
:102FC800E02F90A8FCF0E075F018A42400FFE5F0CD
:102FD8003435FE7B017AA879C590AAD0E4F0A374B1
:102FE80030F01256E07B017AA879C590A8F9123C16
:102FF8002B90A8F7E0FF7E007401A807088005C39E
:1030080033CE33CED8F9FF90A8F8E025E024F7F5C1
:1030180082E434ADF583E0FCA3E0FDEE5CFEEF5DF9
:103028004E700302315E90A8F9123C0B1239C3644A
:103038005A7004E5F064A570030230FB90A8F912F9
:103048003C0B74A575F05A123A267B017AA879D9F7
:1030580090AAD0E4F0A37408F07F107E001256E026
:103068007B017AA879D978C77CA87D017E007F0387
:1030780012387C7B017AA879DD78CA7CA87D017E2C
:10308800007F0312387C7E007F087D007B017AA8D0
:1030980079CD123E3190A8FCE0FF90A8D3E4F0A3CC
:1030A800EFF07B017AA879D5C002C00190A8FC7521
:1030B800F020A42465F9749A35F0FA90A910123C0E
:1030C8002B90A913E4F0A37420F0D001D002127C55
:1030D8000290A8FCE075F018A42400FFE5F0343550
:1030E800FE7B017AA879C590AAE2E4F0A37430F0D7
:1030F80012594D90AE26E0FEA3E0FF7C007D0A1237
:1031080038FA90AE25E0C39FEC9E4041A3E0FEA3B1
:10311800E0FF1238FAEF240AFFE43EFE90AE25E005
:10312800C39FEC9E502790A8FCE075F018A42400DB
:10313800FDE5F03435FC90AE26E0A3E075F00AA476
:10314800FF90AE25E0C39FFF7B0D126A6A90AE2503
:10315800E004F00231FE90A8F9123C0B1239C36466
:103168005A7004E5F064A560030231FE7B017AA879
:1031780079D990AAD0F0A37408F07F107E00125677
:10318800E07B017AA879D978CD7CA87D017E007F83
:103198000312387C7B017AA879DD78D07CA87D0180
:1031A8007E007F0312387C90A8FCE0FF90A8D3E44F
:1031B800F0A3EFF07B017AA879C590AAE2E4F0A326
:1031C8007410F07F007E3012594D1273A8E490A855
:1031D800C5F0A3F090A8FCE075F018A42400FFE562
:1031E800F03435FE7B017AA879C590AAE2E4F0A311
:1031F8007402F012594D90A8F7E004F0022FAF9036
:10320800A8F8E004F0022F9A90AE25E090A8F7F015
:1032180090AE26E0FEA3E0FF7C007D0A1238FAEFAC
:10322800240AFFE43EFE90A8F7E0C39FEC9E501DE1
:1032380090AE26E0A3E075F00AA4FF90A8F7E0C3DB
:103248009FFF1267D190A8F7E004F080C390AE26E4
:10325800E0FEA3E0FF90AE23EEF0A3EFF002355DB1
:103268007B017AA879C590AAD0E4F0A37410F07F06
:10327800A07EAE1256E0E490A8D3F0A3E05407F085
:103288007B017AAD79F778C57CA87D017E007F1037
:10329800123E0DEF700302355D7B017AA879C5787F
:1032A800F97CA87D017E007F1012387CE490A8F894
:1032B800F090A8F8E0C39406748094804003023527
:1032C8004AE490A8F7F090A8F7E0C39410748094AB
:1032D800804003023541E0FF7E007401A8070880A2
:1032E80005C333CE33CED8F9FF90A8F8E025E02403
:1032F800F9F582E434A8F583E0FCA3E0FDEE5CFC7C
:10330800EF5DFD90A8F7E0FF7E007401A807088034
:1033180005C333CE33CED8F9FF90A8F8E025E024D2
:10332800F7F582E434ADF583E0FAA3E0FBEE5AFE4C
:10333800EF5B6D7002EE6C700302353890A8F8E010
:10334800C454F0FF90A8F7E02F90A90CF0E075F0B6
:1033580018A42400FFE5F03435FE7B017AA879C56E
:1033680090AAD0E4F0A37430F01256E07B017AA85A
:1033780079C590A909123C2B90A8F7E0FF7E00744C
:1033880001A807088005C333CE33CED8F9FF90A82B
:10339800F8E025E024F9F582E434A8F583E0FCA3FD
:1033A800E0FDEE5CFEEF5D4E700302348590A909E6
:1033B800123C0B1239C3645A7004E5F064A570031B
:1033C80002353890A909123C0B74A575F05A123AC7
:1033D800267B017AA879D990AAD0E4F0A37408F0E2
:1033E8007F107E001256E07B017AA879D978C77CD5
:1033F800A87D017E007F0312387C7B017AA879DDE5
:1034080078CA7CA87D017E007F0312387C7E007F0D
:10341800087D007B017AA879CD123E3190A90CE095
:10342800FF90A8D3E4F0A3EFF07B017AA879D5C088
:1034380002C00190A90C75F020A42465F9749A358E
:10344800F0FA90A910123C2B90A913E4F0A3742071
:10345800F0D001D002127C0290A90CE075F018A4FB
:103468002400FFE5F03435FE7B017AA879C590AADF
:10347800E2E4F0A37430F012594D02353890A909EE
:10348800123C0B1239C3645A7004E5F064A560035A
:103498000235387B017AA879D990AAD0F0A37408AC
:1034A800F07F107E001256E07B017AA879D978CD9A
:1034B8007CA87D017E007F0312387C7B017AA87985
:1034C800DD78D07CA87D017E007F0312387C90A92E
:1034D8000CE0FF90A8D3E4F0A3EFF07B017AA87981
:1034E800C590AAE2E4F0A37410F07F007E30125970
:1034F8004D1273A8E490A8C5F0A3F090A90CE0754C
:10350800F018A42400FFE5F03435FE7B017AA87991
:10351800C590AAE2E4F0A37402F012594D90AE26C9
:10352800E0FEA3E02401FFE43E90AE23F0A3EFF019
:1035380090A8F7E004F00232CE90A8F8E004F00278
:1035480032B97B017AA879F978F77CAD7D017E00E4
:103558007F1012387C90AEDBE0FEA3E0640E4E6074
:103568000302379B90AEDBE0A3E0FF90AE21E0FCC6
:10357800A3E06F7002EC6E601EE490AE26F0A3F03C
:103588007B017AAE792690AAE2F0A37402F07F015B
:103598007EAE12594D80347B017AAE792690AAD03E
:1035A800E4F0A37402F07F017EAE1256E090AE23E1
:1035B800E0FEA3E0FF90AE26E0FCA3E06F7002EC13
:1035C8006E700302379B800302379B90AE26E0FEA5
:1035D800A3E0FF90AE23EEF0A3EFF0E4A3F090AEEB
:1035E80025E0C3940A748094804003023781A3E0E5
:1035F800FEA3E0FF7C007D0A1238FA90AE25E02F8A
:10360800FFEC3EFE90AE1FE0FCA3E0FDC3EF9DEE95
:103618009C400302378190AE26E0FEA3E0FF7C00C9
:103628007D0A1238FA90AE25E02FFFEC3EFE90AEF0
:103638001BE0FCA3E0D39FEC9E403290AE26E0FE58
:10364800A3E0FF7C001238FA90AE25E02FFFEC3E95
:10365800FEEF2401FFE43EFE90AE1BE0FCA3E0C3B6
:103668009FFFEC9E90A8F9F0A3EFF0803A90AE2669
:10367800E0FEA3E0FF7C007D0A1238FA90AE25E058
:103688002FFFEC3EFEEF2401FFE43EFE90AE1BE070
:10369800FCA3E02400FDEC3402FCC3ED9FFFEC9E8C
:1036A80090A8F9F0A3EFF090A8F9E0FEA3E0780362
:1036B800C333CE33CED8F92400FFEE3420FEE4FC29
:1036C800FD90AACE123BC290AAD2E4F0A37408F0EF
:1036D8007D007C307F5A12785F7B017AA879C5908B
:1036E800AAD0E4F0A37410F07F007E301256E07B7D
:1036F800017AA879D5C003C002C00190A8D3E0FE22
:10370800A3E07805C333CE33CED8F92465F9749A8B
:103718003EFA7B0190A910123C2B90A913E4F0A368
:103728007420F0D001D002D003127C0290AE25E0C4
:1037380025E02428F582E434AEF583E0FEA3E0FF1B
:103748007B017AA879C590AAE2E4F0A37430F0125C
:10375800594D90AE25E025E02428F582E434AEF5F5
:1037680083E0FCA3E0FD90AE25E0FF7B0E126A6AC1
:1037780090AE25E004F00235E690AE25E0C3940A49
:1037880074809480500DE0FF1267D190AE25E0045C
:10379800F080E690AEDBE0FEA3E0FF90AE21EEF015
:1037A800A3EFF022E709F608DFFA8046E709F208F6
:1037B800DFFA803E88828C83E709F0A3DFFA803243
:1037C800E309F608DFFA8078E309F208DFFA807087
:1037D80088828C83E309F0A3DFFA806489828A8374
:1037E800E0A3F608DFFA805889828A83E0A3F2080A
:1037F800DFFA804C80D280FA80C680D4806980F25B
:103808008033801080A680EA809A80A880DA80E2DF
:1038180080CA803389828A83ECFAE493A3C8C5827C
:10382800C8CCC583CCF0A3C8C582C8CCC583CCDFBF
:10383800E9DEE7800D89828A83E493A3F608DFF93D
:10384800ECFAA9F0EDFB2289828A83ECFAE0A3C89E
:10385800C582C8CCC583CCF0A3C8C582C8CCC583F3
:10386800CCDFEADEE880DB89828A83E493A3F2086E
:10387800DFF980CC88F0EF60010E4E60C388F0ED70
:103888002402B4040050B9F582EB2402B4040050B9
:10389800AF23234582239037FC73BB010689828AB4
:1038A80083E0225002E722BBFE02E32289828A8358
:1038B800E49322BB010CE58229F582E5833AF5837E
:1038C800E0225006E92582F8E622BBFE06E92582B9
:1038D800F8E222E58229F582E5833AF583E493222A
:1038E800BB010689828A83F0225002F722BBFE01BF
:1038F800F322EF8DF0A4A8F0CF8CF0A428CE8DF0A1
:10390800A42EFE22BC000BBE0029EF8DF084FFAD73
:10391800F022E4CCF875F008EF2FFFEE33FEEC331D
:10392800FCEE9DEC984005FCEE9DFE0FD5F0E9E419
:10393800CEFD22EDF8F5F0EE8420D21CFEADF07538
:10394800F008EF2FFFED33FD4007985006D5F0F251
:1039580022C398FD0FD5F0EA22C2D5EC30E709B2B0
:10396800D5E4C39DFDE49CFCEE30E715B2D5E4C375
:103978009FFFE49EFE12390CC3E49DFDE49CFC808D
:103988000312390C30D507C3E49FFFE49EFE22C51D
:10399800F0F8A3E028F0C5F0F8E58215827002156A
:1039A80083E038F022A3F8E0C5F025F0F0E58215B1
:1039B8008270021583E0C838F0E822BB010A8982C8
:1039C8008A83E0F5F0A3E022500687F009E7192280
:1039D800BBFE07E3F5F009E3192289828A83E493A1
:1039E800F5F074019322BB0110E58229F582E58385
:1039F8003AF583E0F5F0A3E0225009E92582F8863C
:103A0800F008E622BBFE0AE92582F8E2F5F008E2B2
:103A180022E5832AF583E993F5F0A3E99322BB0114
:103A28000A89828A83F0E5F0A3F0225006F709A7F5
:103A3800F01922BBFE06F3E5F009F31922EF2BFF7C
:103A4800EE3AFEED39FDEC38FC22E88FF0A4CC8B81
:103A5800F0A42CFCE98EF0A42CFC8AF0EDA42CFC3C
:103A6800EA8EF0A4CDA8F08BF0A42DCC3825F0FD7B
:103A7800E98FF0A42CCD35F0FCEB8EF0A4FEA9F074
:103A8800EB8FF0A4CFC5F02ECD39FEE43CFCEAA4C0
:103A98002DCE35F0FDE43CFC2275F008758200EF70
:103AA8002FFFEE33FECD33CDCC33CCC58233C58268
:103AB8009BED9AEC99E58298400CF582EE9BFEED21
:103AC8009AFDEC99FC0FD5F0D6E4CEFBE4CDFAE4F0
:103AD800CCF9A88222B800C1B90059BA002DEC8BE4
:103AE800F084CFCECDFCE5F0CBF97818EF2FFFEEC0
:103AF80033FEED33FDEC33FCEB33FB10D703994079
:103B080004EB99FB0FD8E5E4F9FA227818EF2FFFB8
:103B1800EE33FEED33FDEC33FCC933C910D7059BFA
:103B2800E99A4007EC9BFCE99AF90FD8E0E4C9FA56
:103B3800E4CCFB2275F010EF2FFFEE33FEED33FDE2
:103B4800CC33CCC833C810D7079BEC9AE899400A05
:103B5800ED9BFDEC9AFCE899F80FD5F0DAE4CDFB83
:103B6800E4CCFAE4C8F922EB9FF5F0EA9E42F0E9CA
:103B78009D42F0EC6480C864809845F022EB9FF584
:103B8800F0EA9E42F0E99D42F0E89C45F022E860A8
:103B980010ECA2E713FCED13FDEE13FEEF13FFD8B4
:103BA800F022E0FCA3E0FDA3E0FEA3E0FF22E0F8A2
:103BB800A3E0F9A3E0FAA3E0FB22ECF0A3EDF0A365
:103BC800EEF0A3EFF022A8828583F0D083D0821292
:103BD8003BE5123BE5123BE5123BE5E473E493A3B6
:103BE800C583C5F0C583C8C582C8F0A3C583C5F021
:103BF800C583C8C582C822A42582F582E5F035832D
:103C0800F58322E0FBA3E0FAA3E0F922F8E0FBA3A6
:103C1800A3E0F925F0F0E582158270021583E0FA39
:103C280038F022EBF0A3EAF0A3E9F022D083D082A7
:103C3800F8E4937012740193700DA3A393F87401C0
:103C480093F5828883E4737402936860EFA3A3A357
:103C580080DFD083D082F8E4937012740193700DE2
:103C6800A3A393F8740193F5828883E47374029391
:103C7800B5F0067403936860E9A3A3A3A380D8E30F
:103C8800F5F009E208B5F06BDFF58067E3F5F009B8
:103C9800E608B5F05EDFF5805A87F009E608B5F06A
:103CA80052DFF6804E87F009E208B5F046DFF6806D
:103CB8004288828C8387F009E0A3B5F036DFF6806E
:103CC8003288828C8387F009E493A3B5F025DFF569
:103CD800802188828C83E3F5F009E0A3B5F014DF36
:103CE800F5801088828C83E3F5F009E493A3B5F09E
:103CF80002DFF4023DB6808780E9809080D4803E60
:103D08008015806E807E809D80B7808D80A38051D5
:103D18008074803C023DC289828A83ECFAE493F580
:103D2800F0A3C8C582C8CCC583CCE493A3C8C58218
:103D3800C8CCC583CCB5F076DFE3DEE1807089823C
:103D48008A83E493F5F0A3E208B5F062DFF4805EBD
:103D580089828A83E0F5F0A3E608B5F051DFF580A3
:103D68004D89828A83E0F5F0A3E208B5F040DFF5DB
:103D7800803C89828A83E493F5F0A3E608B5F02EA7
:103D8800DFF4802A8002805789828A83ECFAE493E0
:103D9800F5F0A3C8C582C8CCC583CCE0A3C8C5824A
:103DA800C8CCC583CCB5F006DFE4DEE280007FFF37
:103DB800B5F0020F2240027F012289828A83ECFA41
:103DC800E0F5F0A3C8C582C8CCC583CCE0A3C8C5BC
:103DD80082C8CCC583CCB5F0D5DFE5DEE380CF89DA
:103DE800828A83ECFAE0F5F0A3C8C582C8CCC58303
:103DF800CCE493A3C8C582C8CCC583CCB5F0AFDFEB
:103E0800E4DEE280A988F0EF60010E4E60ABED249D
:103E180002B404005098F582EB2402B40400508EDA
:103E28002323458223903CFE73EF4E6012EF60011E
:103E38000EEDBB010B89828A83F0A3DFFCDEFA2238
:103E480089F05007F709DFFCA9F022BBFEFCF30953
:103E5800DFFCA9F022F8BB010DE58229F582E58394
:103E68003AF583E8F0225006E92582C8F622BBFE1F
:103E780005E92582C8F2227BFF7A8779E678007CFB
:103E8800A97D017E007F3E12387C7BFF7A887924E9
:103E9800783F7CA97D017E007F2412387C7B017AE3
:103EA800A9790090AAD0E4F0A3743EF07F207EABFD
:103EB8001256E0E490A93EF090A93EE0C394107435
:103EC8008094804003024120E0FF7E007401A8072F
:103ED800088005C333CE33CED8F9FF90A906E0FC9D
:103EE800A3E0FDEE5CFEEF5D4E700302410490A975
:103EF8003EE0FF7E007401A807088005C333CE3377
:103F0800CED8F9FF90A90AE0FCA3E0FDEE5CFEEF35
:103F18005D4E70030240B190A93EE0FF1313543F79
:103F28002407FFE43390A965F0A3EFF090A965E0BA
:103F3800FEA3E025E0FFEE33FE74002FF58274A99E
:103F48003EF583E0FEA3E0FF90A93EE0540325E0A0
:103F580025E0FDEFA805088005CEC313CE13D8F9D8
:103F6800540FFF90A963E4F0A3EFF090A963E0FE7B
:103F7800A3E08EF0123C5A3FA300003FBB00013F74
:103F8800D300023FEB000440020005401900064040
:103F9800300008404700090000405E90A93EE02537
:103FA800E0243FF582E434A9F583E4F0A37405F036
:103FB80002407390A93EE025E0243FF582E434A94D
:103FC800F583E4F0A37406F002407390A93EE0255F
:103FD800E0243FF582E434A9F583E4F0A37407F004
:103FE80002407390A93EE025E0243FF582E434A91D
:103FF800F583E4F0A37408F0807190A93EE025E011
:10400800243FF582E434A9F583E4F0A37409F08031
:104018005A90A93EE025E0243FF582E434A9F583CF
:10402800E4F0A3740AF0804390A93EE025E0243F21
:10403800F582E434A9F583E4F0A37403F0802C90AE
:10404800A93EE025E0243FF582E434A9F583E4F0B5
:10405800A37404F0801590A93EE025E0243FF58282
:10406800E434A9F583E4F0A37405F090A93EE0FFD9
:104078007E007401A807088005C333CE33CED8F973
:10408800FF90A902E0FCA3E0FDEE5CFEEF5D4E6050
:104098007E90A93EE025E0243FF582E434A9F5832B
:1040A800E475F008123997806690A93EE0FF7E001B
:1040B8007401A807088005C333CE33CED8F9FF9022
:1040C800A902E0FCA3E0FDEE5CFEEF5D4E601790F8
:1040D800A93EE025E0243FF582E434A9F583E4F025
:1040E800A37402F0802990A93EE025E0243FF582E0
:1040F800E434A9F583E4F0A304F0801390A93EE02A
:1041080025E0243FF582E434A9F583E4F0A3F09098
:10411800A93EE004F0023EC090A93E7410F090A9B8
:104128003EE0C39412748094804003024391E024DB
:10413800F0FF7E007401A807088005C333CE33CE94
:10414800D8F9FF90A908E0FCA3E0FDEE5CFEEF5D66
:104158004E700302437590A93EE024F0FF7E007480
:1041680001A807088005C333CE33CED8F9FF90A93C
:104178000CE0FCA3E0FDEE5CFEEF5D4E7003024335
:104188002090A93EE0FF1313543F2407FFE4339027
:10419800A965F0A3EFF090A965E0FEA3E025E0FF94
:1041A800EE33FE74002FF58274A93EF583E0FEA37A
:1041B800E0FF90A93EE0540325E025E0FDEFA805C7
:1041C800088005CEC313CE13D8F9540FFF90A96306
:1041D800E4F0A3EFF090A963E0FEA3E08EF0123CB8
:1041E8005A420D000042250001423D00024255009E
:1041F80004426C000542830006429A000842B1005E
:1042080009000042C890A93EE025E0243FF582E479
:1042180034A9F583E4F0A37405F00242DD90A93EC9
:10422800E025E0243FF582E434A9F583E4F0A374A3
:1042380006F00242DD90A93EE025E0243FF582E445
:1042480034A9F583E4F0A37407F00242DD90A93E97
:10425800E025E0243FF582E434A9F583E4F0A37473
:1042680008F0807190A93EE025E0243FF582E4340F
:10427800A9F583E4F0A37409F0805A90A93EE025DB
:10428800E0243FF582E434A9F583E4F0A3740AF04E
:10429800804390A93EE025E0243FF582E434A9F567
:1042A80083E4F0A37403F0802C90A93EE025E02479
:1042B8003FF582E434A9F583E4F0A37404F0801593
:1042C80090A93EE025E0243FF582E434A9F583E493
:1042D800F0A37405F090A93EE024F0FF7E0074017D
:1042E800A807088005C333CE33CED8F9FF90A904B8
:1042F800E0FCA3E0FDEE5CFEEF5D4E700302438838
:1043080090A93EE025E0243FF582E434A9F583E452
:1043180075F008123997806890A93EE024F0FF7E76
:10432800007401A807088005C333CE33CED8F9FF3F
:1043380090A904E0FCA3E0FDEE5CFEEF5D4E601783
:1043480090A93EE025E0243FF582E434A9F583E412
:10435800F0A37402F0802990A93EE025E0243FF5FF
:1043680082E434A9F583E4F0A304F0801390A93E15
:10437800E025E0243FF582E434A9F583E4F0A3F0D6
:1043880090A93EE004F00241267B017AA9793F908A
:10439800AAE2E4F0A37424F07FA07EAB12594D2268
:1043A800E51330E0167B017AAE79DB90AAD0E4F011
:1043B800A37402F07F147E001256E0E51320E20396
:1043C80002477F90AEDBE0FEA3E04E702690AED6AB
:1043D800E0C39406748094805005E004F080149043
:1043E800AED6E06406700C7F39FE1280DC90AED643
:1043F800E004F090AEDBE0FEA3E0640B4E70031225
:104408003E7F90AEDBE0FEA3E064294E60030244E9
:10441800EB7B017AA879C890AAD0F0A3741CF07F2E
:10442800B07EC91256E0E490A8C5F090A8C5E0C3D4
:1044380094077480948040030244D5E025E025E089
:1044480024C8F582E434A8F583E0FEA3E0C4F85458
:104458000FC868FDEEC454F048FC90A8C5E025E0FC
:1044680025E024CAF582E434A8F583E0FEA3E0EE53
:10447800C4540F2DFFE43C90A8C6F0A3EFF090A819
:10448800C6E0FEA3E0FF7C007D1812390C90A8C599
:10449800E025E024E4F582E434A8F583EEF0A3EF08
:1044A800F090A8C6E0FEA3E0FF7C007D1812390C4E
:1044B80090A8C5E025E024F2F582E434A8F583EC61
:1044C800F0A3EDF090A8C5E004F00244337B017A34
:1044D800A879E490AAE2E4F0A3741CF07F207EC9D6
:1044E80012594D90AEDBE0FEA3E0642C4E6003024F
:1044F80045CC7B017AA879D590AAD0F0A37406F0B0
:104508007FA07ECC1256E090A8D5E0FEA3E0FFEE97
:10451800C4F854F0C868FEEFC4540F4890A8C5EE1C
:10452800F0A3E4F090A8C5E0FCA3E0FD90A8D5E0D6
:10453800FEA3E07807CEC313CE13D8F9541FFFECBF
:10454800FEED4FFF90A8C5EEF0A3EFF090A8D5E0E0
:10455800A3E0547F90A8C7F0A3E4F090A8C7E0FCBC
:10456800A3E0FD90A8D9E0FEA3E0EEFFECFEED4F3E
:10457800FF90A8C7EEF0A3EFF090A8D9E0A3E090D1
:10458800A8C9F0A3E4F090A8D7E0FEA3E0FF90A8A4
:10459800CBEEF0A3EFF0A37402F0A314F0A3740918
:1045A800F0A3E4F0A37407F0A3E4F0A3F0A3F07B76
:1045B800017AA879C590AAE2F0A37410F07F207E52
:1045C800CC12594D90AEDBE0FEA3E0642F4E6003A1
:1045D8000246AD7B017AA879C590AAD0F0A37402EF
:1045E800F07F107ECF1256E07B017AA879C990AA95
:1045F800D0E4F0A37402F07F227ECF1256E090A898
:10460800C5E0FEA3E0FF90AED7E0FCA3E06F700228
:10461800EC6E606090A8C5E0A3E090AED7EEF0A382
:10462800EFF090A8C9E0FEA3E0543FFF90A8C9EEC0
:10463800F0A3EFF090A8C9E0FCA3E0FD90A8C5E0C6
:10464800A3E07E0054037806C333CE33CED8F9FFF7
:10465800EC4EFEED4FFF90A8C9EEF0A3EFF07B0102
:104668007AA879C990AAE2E4F0A37402F07F227EC6
:10467800CF12594D90A8C9E0FEA3E07806CEC31327
:10468800CE13D8F95403FF90A8CBE4F0A3EFF07B46
:10469800017AA879CB90AAE2E4F0A37402F07F1122
:1046A8007ECF12594D7B017AA879C590AAD0E4F043
:1046B800A37402F07F167E001256E090A8C5E0FEB3
:1046C800A3E04E6025E490A8C5F0A3F07B017AA88A
:1046D80079C590AAE2F0A37402F07F167E00125901
:1046E8004DE490AED9F0A3F0804690AED9E0FEA399
:1046F800E0C39458EE9402500C90AED9E475F001E2
:10470800123997802B90AED9E0FEA3E0B45821EE81
:10471800B4021D90AED9E475F00112399790AEDB62
:10472800E0FEA3E064394E60077F397E001280DC2A
:104738007B017AA879C590AAD0E4F0A37402F07F2F
:10474800007EE01256E090A8C5E0FEA3E0EE30E05F
:104758001490AEDBE0FEA3E064414E601A7F417E18
:10476800001280DC2290AEDBE0FEA3E064414E70D4
:10477800067F39FE1280DC22E51330E10D90AEDDB4
:10478800E475F001123997126E3990AEDDE0FEA3A0
:10479800E0C394B8EE940B5003024B0CE490AEDDEA
:1047A800F0A3F090AEE1E0FEA3E02400FFEE3410A9
:1047B80090A8C5F0A3EFF07B017AA879C790AAD09A
:1047C800E4F0A37402F07FA37EA01256E090A8C77D
:1047D800E475F0C812399790A8C5E0FEA3E0FF7B06
:1047E800017AA879C790AAE2E4F0A37402F01259FA
:1047F8004D90AEE1E0FEA3E02400FFEE341890A84F
:10480800C5F0A3EFF07B017AA879C790AAD0E4F0AD
:10481800A37402F07FA47EA01256E090A8C5E0FE23
:10482800A3E0FF7B017AA879C790AAE2E4F0A37419
:1048380002F012594D90AEE1E0FEA3E0FF90A8CB44
:10484800EEF0A3EFF090AEE1E475F0011239979025
:10485800AEE1E0FEA3E0C3EE94084007E490AEE1C9
:10486800F0A3F07B017AAE79E190AAE2E4F0A374B8
:1048780002F07F007E0312594D7B017AAE79E190F8
:10488800AAE2E4F0A37402F0FF7E0312594D90A847
:10489800C97408F0A3E4F07B017AA879C990AAE268
:1048A800F0A37402F07F087E5012594D7B017AA85C
:1048B80079C990AAE2E4F0A37402F07F097E50124D
:1048C800594D90A8C97402F0A3748AF07B017AA8A4
:1048D80079C990AAE2E4F0A37402F07F117E501225
:1048E800594D90AEAAE075F03CA4FFA3E07C002FE0
:1048F800FFEC35F090AEDFF0A3EFF090AEDFE0FE16
:10490800A3E0FF12665390AEE1E0A3E030E00302BB
:104918004B0C90AEE1E0FEA3E04E70030249FE901E
:10492800A8CB74FFF5F012399790A8CBE0FEA3E06E
:104938002400FFEE3410FE7B017AA879C590AAD036
:10494800E4F0A37404F01256E090A8C974A5F0A38B
:10495800745AF07B017AA879C590AAE2E4F0A374AE
:1049680006F07F007E5012594D90A8CBE0FEA3E0E0
:10497800FFE4FCFD90AACE123BC290AAD2E4F0A3B9
:104988007404F07D007C507FA512785F90A8CBE07E
:10499800FEA3E02400FFEE3418FE7B017AA879C557
:1049A80090AAD0E4F0A37404F01256E090A8C97459
:1049B800A5F0A3745AF07B017AA879C590AAE2E41D
:1049C800F0A37406F07F007E5012594D90A8CBE0FA
:1049D800FEA3E02400FFEE3408FEE4FCFD90AACE1E
:1049E800123BC290AAD2E4F0A37404F07D007C507C
:1049F8007FA512785F2290A8CB74FFF5F012399743
:104A080090A8CBE0FEA3E02400FFEE3410FE7B016B
:104A18007AA879C590AAD0E4F0A37404F01256E0FD
:104A280090A8C974A5F0A3745AF07B017AA879C537
:104A380090AAE2E4F0A37406F07F007E5012594D6C
:104A480090A8CBE0FEA3E0FFE4FCFD90AACE123BC9
:104A5800C290AAD2E4F0A37402F07D007C507FA536
:104A680012785F90AACE123BCE0000000090AAD226
:104A7800E4F0A37402F07D007C507FA512785F906B
:104A8800A8CBE0FEA3E02400FFEE3418FE7B017AF9
:104A9800A879C590AAD0E4F0A37404F01256E09067
:104AA800A8C974A5F0A3745AF07B017AA879C590B7
:104AB800AAE2E4F0A37406F07F007E5012594D90EC
:104AC800A8CBE0FEA3E02400FFEE3408FEE4FCFDE2
:104AD80090AACE123BC290AAD2E4F0A37402F07D51
:104AE800007C507FA512785F90AACE123BCE0000C2
:104AF800080090AAD2E4F0A37402F07D007C507FF5
:104B0800A512785F2290A8CA123C2B90A8CDECF091
:104B1800A3EDF090A8CDE0FEA3E0C39405EE9400C9
:104B28005003024E62E4A3F0A3F090A8CA123C0B13
:104B380090A8CFE0FEA3E0F5828E831238BB640212
:104B48006003024E3C90A8CA123C0B90A8CFE0A389
:104B5800E029F9EA3EFA9000011238BB123C344BC6
:104B680074034CC3064D851000004E3C90A8CA1231
:104B78003C0B90A8CFE0FEA3E029F9EA3EFA9000AA
:104B8800021238BBFF90A8D3E4F0A3EFF090A8CFAF
:104B9800E0A3E0FF90A8D3E0FCA3E02FFFEC3EFEEB
:104BA800EF2405FFE43EFE90A8CDE0FCA3E0FDD392
:104BB800EF9DEE9C401190A8CDE0FEA3E0FFA3EE90
:104BC800F0A3EFF0024E3C90A8CA123C0B90A8CF7D
:104BD800E0FEA3E029F9EA3EFA90A8D3E0FEA3E0BC
:104BE8002403FDE43EFC12796390A8D1EEF0A3EF14
:104BF800F090A8CA123C0B90A8CFE0FEA3E029F9D8
:104C0800EA3EFA90A8D3E0FEA3E029F9EA3EFA903A
:104C180000031238BBFD90A8D1E0FEA3E0EE6D7052
:104C280001E46003024E3C90A8CA123C0B90A8CF46
:104C3800E0FEA3E029F9EA3EFA90A8D3E0FEA3E05B
:104C480029F9EA3EFA9000041238BBFF90A8D1E097
:104C5800A3E06F7001E46003024E3C908621E0FE01
:104C6800A3E0FF90A8CA123C0B90A8CFE0FCA3E0F9
:104C780029F9EA3CFAE92403F9E43AFA90A8D3E0DE
:104C8800FCA3E0FD90AAE2ECF0A3EDF012594D7EF2
:104C9800007F0E7D007B017A867919123E3190A83B
:104CA800D3E0FEA3E02405FFE43E90A8CFF0A3EFF5
:104CB800F0908000E04402F0024E3C90A8CFE0FE65
:104CC800A3E02408FFE43EFE90A8CDE0FCA3E0FDAD
:104CD800D3EF9DEE9C401190A8CDE0FEA3E0FFA38A
:104CE800EEF0A3EFF0024E3C90A8CA123C0B90A83D
:104CF800CFE0FEA3E029F9EA3EFA7D067C001279AE
:104D08006390A8D1EEF0A3EFF090A8CA123C0B90E4
:104D1800A8CFE0FEA3E029F9EA3EFA90000612388F
:104D2800BBFD90A8D1E0FEA3E0EE6D7001E4600346
:104D3800024E3C90A8CA123C0B90A8CFE0FEA3E01C
:104D480029F9EA3EFA9000071238BBFF90A8D1E093
:104D5800A3E06F7001E46003024E3C90A8CF75F0A9
:104D6800081239977E007F0E7D007B017A867919BB
:104D7800123E31908000E04402F0024E3C90A8CFF1
:104D8800E0FEA3E02408FFE43EFE90A8CDE0FCA3EB
:104D9800E0FDD3EF9DEE9C401190A8CDE0FEA3E08E
:104DA800FFA3EEF0A3EFF0024E3C90A8CA123C0B12
:104DB80090A8CFE0FEA3E029F9EA3EFA7D067C0040
:104DC80012796390A8D1EEF0A3EFF090A8CA123C34
:104DD8000B90A8CFE0FEA3E029F9EA3EFA9000067E
:104DE8001238BBFD90A8D1E0FEA3E0EE6D7001E49F
:104DF800704290A8CA123C0B90A8CFE0FEA3E0290D
:104E0800F9EA3EFA9000071238BBFF90A8D1E0A358
:104E1800E0B50720E490A8CF75F0081239977E0016
:104E28007F0E7D007B017A867919123E31908000D1
:104E3800E04402F090A8CFE475F00112399790A8E9
:104E4800CDE0FEA3E024FBFFEE34FFFEA3E0FCA3CD
:104E5800E0C39FEC9E5003024B322290A8CA123C3A
:104E68002B90A8CA123C0B1239C3FF90A8CDE5F0CD
:104E7800F0A3EFF090A8CDE0FEA3E0C39468EE9411
:104E880001400302518390A8CDE0A3E090862775E6
:104E9800F00E123BFFEE75F00EA42583F583E06457
:104EA8005A600302517690A8CDE0A3E090862A7557
:104EB800F00E123BFFEE75F00EA42583F583E0702B
:104EC8000302517690A8CDE0A3E090862C75F00EF1
:104ED800123BFFEE75F00EA42583F583E070030204
:104EE800518390A8CDE0A3E090862C75F00E123B7C
:104EF800FFEE75F00EA42583F583E064017034900D
:104F0800A8CDE0A3E090862D75F00E123BFFEE755C
:104F1800F00EA42583F583E0FEA3E0FF90AEDBE06E
:104F2800FCA3E06F7002EC6E6003025176025183BD
:104F380002517690A8CDE0FEA3E090862C75F00E85
:104F4800123BFFEE75F00EA42583F583E064026042
:104F58000302504290A8CDE0A3E090862D75F00E94
:104F6800123BFFEE75F00EA42583F583E0FEA3E067
:104F7800FF7B017AA879CF90AAD0E4F0A37402F05D
:104F88001256E090A8CFE0A3E0645A60030251767D
:104F980090A8CDE0FEA3E0C39467EE940150619021
:104FA800A8CDE0A3E090863A75F00E123BFFEE75AF
:104FB800F00EA42583F583E06402704490A8CDE048
:104FC800A3E090863B75F00E123BFFEE75F00EA441
:104FD8002583F583E0FEA3E0FF90A8CDE0FCA3E0E5
:104FE80090862D75F00E123BFFEC75F00EA425830C
:104FF800F583E0FCA3E06F7002EC6E70030251834E
:10500800E490A8CFF0A3F090A8CDE0FEA3E09086AE
:105018002D75F00E123BFFEE75F00EA42583F58377
:10502800E0FEA3E0FF7B017AA879CF90AAE2E4F042
:10503800A37402F012594D02518390A8CDE0FEA34B
:10504800E090862C75F00E123BFFEE75F00EA4254D
:1050580083F583E06403600302517690A8CDE0A352
:10506800E090863375F00E123BFFEE75F00EA42526
:1050780083F583E0FEA3E0FF90AEDBE0FCA3E0FD58
:10508800EF6D7002EE6C600302517690A8CDE0FEE1
:10509800A3E090862D75F00E123BFFEE75F00EA47E
:1050A8002583F583E0FEA3E0FF7B017AA879CF9002
:1050B800AAD0E4F0A37402F01256E090A8CFE0A3BF
:1050C800E0645A600302517690A8CDE0FEA3E0C3E5
:1050D8009467EE9401505E90A8CDE0A3E090863AE4
:1050E80075F00E123BFFEE75F00EA42583F583E0F4
:1050F8006403704190A8CDE0A3E090863B75F00E64
:10510800123BFFEE75F00EA42583F583E0FEA3E0C5
:10511800FF90A8CDE0FCA3E090862D75F00E123B21
:10512800FFEC75F00EA42583F583E0FCA3E06F7017
:1051380002EC6E6046E490A8CFF0A3F090A8CDE012
:10514800FEA3E090862D75F00E123BFFEE75F00E73
:10515800A42583F583E0FEA3E0FF7B017AA879CF3D
:1051680090AAE2E4F0A37402F012594D800D90A8C1
:10517800CDE475F001123997024E7C90A8CDE0FE7F
:10518800A3E0FF90A8CA123C0BEE8FF0123A262239
:1051980090A8D5123C2B90A8D8ECF0A3EDF07BFF9B
:1051A8007A88797C78DA7CA87D017E007F181238AD
:1051B8007C90A8D5123C0B90000A1239EE246CFFA3
:1051C800E5F0340790A906F0A3EFF090A906E0FEF9
:1051D800A3E0FF7C007D64123961ED4C601390A957
:1051E80006E0FEA3E0FF7C007D04123961ED4C600F
:1051F8001390A906E0FEA3E0FF7C017D90123961BF
:10520800ED4C70067E007F0180047E007F0090A92F
:1052180002EEF0A3EFF090A8D5123C0B90000A1212
:1052280039EE24BAFFE5F034FFFE3395E0FDFC903B
:10523800A8F2123BC290A8D5123C0B900008123974
:10524800EEC39401E5F064809480504090A902E098
:10525800FEA3E064014E703490A8F2123BAAEF243A
:1052680002FFE43EFEE43DFDE43CFCE47B04FAF985
:10527800F8128123EF24FFFFEE34FFFEED34FFFD2B
:10528800EC34FFFC90A8FA123BC2802290A8F212DC
:105298003BAAEF2402FFE43EFEE43DFDE43CFCE4CF
:1052A8007B04FAF9F812812390A8FA123BC290A85D
:1052B800F6123BCE00000000E490A904F0A3F090A1
:1052C800A8D5123C0B9000081239EEFF90A904E013
:1052D800FCA3E0C39FE5F06480F8EC648098504834
:1052E80090A8F6123BAAC006C00790A904E0FEA346
:1052F800E025E0FFEE33FE74DA2FF58274A83EF560
:1053080083E0FEA3E0FFFBAA06EA3395E0F9F8D0B4
:1053180007D006123A4590A8F6123BC290A904E4B9
:1053280075F001123997809790A8F6123BAAC0062B
:10533800C00790A8D5123C0B9000061239EE24FF46
:10534800FFE5F034FFFEAB07FA3395E0F9F8D00734
:10535800D006123A4590A8F6123BC290A8F6123B26
:10536800AAC004C005C006C007E47F6D7E01FDFC2D
:1053780090A8F2123BB6123A5290A8FA123BB61213
:105388003A45A804A905AA06AB07D007D006D00558
:10539800D004123A4590A8F6123BC290A8D5123C08
:1053A8000B9000041239EEFF90A8D8E0FCA3E0FDB2
:1053B800C3EF9DFFE5F09CFE3395E0FDFC90A8FE51
:1053C800123BC2E47F107E0EFDFC90A8FE123BB695
:1053D800123A52C004C005C006C0077F807E517DC6
:1053E800017C0090A8F6123BB6123A52A804A9050F
:1053F800AA06AB07D007D006D005D004123A45C09C
:1054080004C005C006C00790A8D5123C0B90000246
:105418001239EEFFAEF07C007D3C1238FAAB07AAD9
:1054280006EA3395E0F9F8D007D006D005D0041283
:105438003A45C006C00790A8D5123C0B1239C3FFE5
:10544800AEF0FBAA06EA3395E0F9F8D007D00612C9
:105458003A45227BFF7A85796278C57CA87D017EF2
:10546800027F0012387C90AACE123BCE00000000CA
:1054780090AAD27410F0A3E4F0FD7C107F5A127841
:105488005F90AAC57410F0A3E4F090AAC5E0FEA34B
:10549800E0C3EE9418506990AAC5E0A3E0FF7B0131
:1054A8007AA879C590AAD07402F0A3E4F01256E065
:1054B800E490AAC7F0A3F090AAC7E0FEA3E0C3EE69
:1054C8009401502F90AAC7E0A3E025E0FFEE33FE39
:1054D80074C52FF58274A83EF583E0FEA3E0645AF4
:1054E8007003EE64A5601990AAC7E475F00112393B
:1054F8009780C490AAC5740175F000123997808A04
:1055080090AAC7E0FEA3E0FF90AAC5E0FCA3E02FA5
:10551800FFEC3E90AAC9F0A3EFF090AAC9E0FEA361
:10552800E0C3EE9418400990AAC97410F0A3E4F0FF
:1055380090AAC974F075F00012399790AAC9E0FED4
:10554800A3E0FF90AEE1EEF0A3EFF090AEE1E0FE55
:10555800A3E02400FFEE341090A8C5F0A3EFF0A359
:105568007401F0A374B2F0A37401F0A374B2F090C4
:10557800A8C5E0FEA3E0FF7B017AA879C790AAE25C
:10558800E4F0A37404F012594D90AEE1E0FEA3E0FC
:105598002400FFEE341890A8C5F0A3EFF0A374021E
:1055A800F0A37437F0A37402F0A37437F090A8C581
:1055B800E0FEA3E0FF7B017AA879C790AAE2E4F0B5
:1055C800A37404F012594D7B017AAA79C990AAE212
:1055D800E4F0A37402F07F007E0312594D7B017A38
:1055E800AA79C990AAE2E4F0A37402F0FF7E03123C
:1055F800594D7B017AAA79C990AAE2E4F0A3740212
:10560800F07F087E5012594D7B017AAA79C990AA79
:10561800E2E4F0A37402F07F097E5012594D90A87D
:10562800C57408F0A3E4F07B017AA879C590AAE2D2
:10563800F0A37402F07F017E0312594D7B017AA812
:1056480079C590AAE2E4F0A37402F004FFFE1259AF
:105658004D90A8C5E4F0A37406F0A3E4F0A304F009
:10566800A3E4F0A3742EF0A37401F0A3744CF0A388
:105678007401F0A37471F0A37401F0A37477F0A31C
:105688007401F0A3748AF0A37402F0A3748AF0A3DF
:105698007401F0A37471F0A374FFF0A3E4F07B012C
:1056A8007AA879C590AAE2F0A37414F07F0A7E5014
:1056B80012594D90AEAAE075F03CA4FFA3E07C001F
:1056C8002FFFEC35F090AEDFF0A3EFF090AEDFE007
:1056D800FEA3E0FF1266532290AACBEEF0A3EFF0F0
:1056E800A3123C2B7B007A007900C003C002C001E2
:1056F80090AACD123C0BD082D083D0E06B7008E921
:1057080065827003EA6583700302594C90AAD0E061
:10571800FEA3E04E700302594C90AAD0E0A3E0FF2C
:10572800EEC313FEEF13FF90AACBE0FCA3E02FFF1C
:10573800EE3CFED3EF94FEEE94FF400302594CC2B8
:10574800AF90AACBE0A3E0540190AAD2F090AACBE4
:10575800E0FEA3E0FFEEC313FEEF13FF90AACBEE2B
:10576800F0A3EFF090AACBE0FEA3E07810CEC3132D
:10577800CE13D8F9F5F190AACBE0FEA3E0EEF5F24E
:1057880090AACBE0A3E0F5F3E4F5F875F401D2FFB5
:1057980030FCFDD2FD90AAD2E06401707290AAD0CC
:1057A800E0FEA3E064014E700AC2FBC2FAD2F9C25D
:1057B800F88008C2FBC2FAD2F9D2F8D2FE20FEFD68
:1057C80090AAD0E0FEA3E064014E701A90AACD75AD
:1057D800F001123C14E5FC1238E890AAD074FFF5E9
:1057E800F0123997802990AACDE475F001123C1483
:1057F800E5FC1238E890AACDE475F001123C14E5F6
:10580800FD1238E890AAD074FF75F0FE123997900F
:10581800AAD0E0FEA3E04E700302594790AAD0E058
:10582800A3E0C39404EE940040030258F090AAD079
:10583800E0A3E08EF0123C5A58640001585A000266
:10584800585000030000586CD2FBD2FAD2F9C2F8C3
:105858008012D2FBD2FAC2F9C2F88008D2FBC2FA8F
:10586800C2F9C2F8D2FE20FEFD90AAD0E0FEA3E065
:105878008EF0123C5A58DD000158BD0002588D00C8
:10588800030000594790AACDE475F001123C14E5D5
:10589800FA1238E890AACDE475F001123C14E5FB41
:1058A8001238E890AACDE475F001123C14E5FC1218
:1058B80038E802594790AACDE475F001123C14E586
:1058C800FA1238E890AACDE475F001123C14E5FB11
:1058D8001238E8806A90AACDE475F001123C14E50C
:1058E800FA1238E880598057D2FBD2FAD2F9D2F8A6
:1058F800D2FE20FEFD90AACDE475F001123C14E51D
:10590800FA1238E890AACDE475F001123C14E5FBD0
:105918001238E890AACDE475F001123C14E5FC12A7
:1059280038E890AACDE475F001123C14E5FD123870
:10593800E890AAD074FF75F0FC123997025817E462
:10594800F5F8D2AF2290AADDEEF0A3EFF0A3123C57
:105958002B7B007A007900C003C002C00190AADF47
:10596800123C0BD082D083D0E06B7008E96582705E
:1059780003EA65837003025BB890AAE2E0FEA3E045
:105988004E7003025BB890AAE2E0A3E0FFEEC313F7
:10599800FEEF13FF90AADDE0FCA3E02FFFEE3CFE34
:1059A800D3EF94FEEE94FF4003025BB8C2AF90AA17
:1059B800DDE0A3E0540190AAE4F090AADDE0FEA3A4
:1059C800E0FFEEC313FEEF13FF90AADDEEF0A3EFA6
:1059D800F090AADDE0FEA3E07810CEC313CE13D872
:1059E800F9F5F190AADDE0FEA3E0EEF5F290AADD6C
:1059F800E0A3E0F5F3E4F5F875F401D2FF30FCFD1F
:105A0800C2FD90AAE4E06401707290AAE2E0FEA3ED
:105A1800E064014E700AC2FBC2FAD2F9C2F88008EB
:105A2800C2FBC2FAD2F9D2F890AAE2E0FEA3E0647F
:105A3800014E701A90AADF75F001123C141238A2B8
:105A4800F5FC90AAE274FFF5F0123997802990AA24
:105A5800DFE475F001123C141238A2F5FC90AADFBD
:105A6800E475F001123C141238A2F5FD90AAE27414
:105A7800FF75F0FE123997D2FE20FEFD90AAE2E0F3
:105A8800FEA3E04E7003025BB390AAE2E0A3E0C37A
:105A98009404EE94004003025B5C90AAE2E0A3E069
:105AA8008EF0123C5A5AD100015AC700025ABD0062
:105AB8000300005AD9D2FBD2FAD2F9C2F88012D226
:105AC800FBD2FAC2F9C2F88008D2FBC2FAC2F9C204
