:10000000026EBA020006C2AFD2AF32026012C2AFB5
:10001000D2AF3202000E90A774E0FEA3E0FF127789
:0A002000BF222202740E127A44225D
:10002B00027BBB90A56812365B0000300090A56C7C
:10003B00E4F0A3740CF07D007C307F5A126FF27BDE
:10004B00017AA8792A90A56AE4F0A37418F07F00CE
:10005B007E30124C29E490A35FF090A35FE0C39431
:10006B000774809480506EE025E025E0242AF58209
:10007B00E434A8F583123637E4FBFAF9F8C31236E9
:10008B0012602290A35FE025E025E0242AF582E4AC
:10009B0034A8F5831236377B3F7A42790F7800C349
:1000AB00123612502890A35FE025E025E02406F5D8
:1000BB0082E434A8F58312363790A35FE025E02560
:1000CB00E0242AF582E434A8F58312364F90A35F1F
:1000DB00E004F080857B017AA8792A90A56AE4F088
:0C00EB00A37414F07FA07EA6124E962293
:1000F800FFFF4457494E543542A95B000041A954BB
:100108000042A955000041A9570041A9580042A939
:1001180059000042A95F000042A95D00005AA846A4
:100128003FC9002D0064000086000A2D2D203A3AB0
:10013800000000000000000000005AA8603FCC004A
:10014800E60064000086000A2D2D2F3A3A000000D0
:10015800000000000000005AA8FD3FD0019F006485
:100168000000019F006402F4007D002000171818A9
:1001780002000000603CA8C1400040A0414040107F
:1001880040B04150402040C04160403040D04170B4
:10019800404040E04180405040F041904060410084
:1001A80041A04070411041B04080412041C0409082
:1001B800413041D054A8AD41E041F84210422842B4
:1001C8004042584270428842A042B848A89E000067
:1001D80000000000000042A8A6000042A8AB0000F2
:1001E80042A8A8000041A8AA0042A88C000042A882
:1001F8007A0005499476B2E2CAD4BABAD7D6006E64
:10020800E0947F49443030BBD8B7E7B8DFCEC200AE
:1002180000000000000000000000000000000000D6
:1002280000000049443031BBD8B7E7B5CDCEC20095
:1002380000000000000000000000000000000000B6
:1002480000000049443032BBD8B7E7B8DFCAAA007B
:100258000000000000000000000000000000000096
:1002680000000049443033BBD8B7E7B5CDCAAA006F
:100278000000000000000000000000000000000076
:1002880000000049443034CBCDB7E7B8DFCEC20018
:100298000000000000000000000000000000000056
:1002A80000000049443035CBCDB7E7B5CDCEC2000C
:1002B8000000000000000000000000000000000036
:1002C80000000049443036CBCDB7E7B8DFCAAA00F2
:1002D8000000000000000000000000000000000016
:1002E80000000049443037CBCDB7E7B5CDCAAA00E6
:1002F80000000000000000000000000000000000F6
:1003080000000049443038B1A3C1F40000000000E7
:1003180000000000000000000000000000000000D5
:1003280000000049443039C4DAB2BFCDA8D0C500B6
:1003380000000000000000000000000000000000B5
:10034800000000494431304E5443D2ECB3A30000BE
:100358000000000000000000000000000000000095
:1003680000000049443131B7E7BBFA31B9CAD5CFEB
:100378000000000000000000000000000000000075
:1003880000000049443132B1A3C1F400000000006C
:100398000000000000000000000000000000000055
:1003A80000000049443133B1A3C1F400000000004B
:1003B8000000000000000000000000000000000035
:1003C80000000049443134B1A3C1F400000000002A
:1003D8000000000000000000000000000000000015
:1003E80000000049443135B1A3C1F4000000000009
:1003F80000000000000000000000000000000000F5
:1004080000000049443136CDE2B7E7BBFAB9CAD596
:10041800CF00000000000000000000000000000005
:1004280000000049443137B7E7BBFA31D4CBD0D00C
:10043800B3ACCAB1000000000000000000000000DA
:1004480000000049443138B1A3C1F40000000000A5
:100458000000000000000000000000000000000094
:1004680000000049443139B1A3C1F4000000000084
:100478000000000000000000000000000000000074
:1004880000000049443230B1A3C1F400000000006C
:100498000000000000000000000000000000000054
:1004A80000000049443231B1A3C1F400000000004B
:1004B8000000000000000000000000000000000034
:1004C80000000049443232CDE2B7E7BBFAD4CBD0C2
:1004D800D0B3ACCAB100000000000000000000006A
:1004E80000000049443233B8DFD1B931BFAAB9D8C6
:1004F80000000000000000000000000000000000F4
:1005080000000049443234B8DFD1B931CBF8CBC050
:1005180000000000000000000000000000000000D3
:1005280000000049443235B5CDD1B931BFAAB9D898
:1005380000000000000000000000000000000000B3
:1005480000000049443236B5CDD1B931CBF8CBC023
:100558000000000000000000000000000000000093
:1005680000000049443237C5C5C6F8CEC2B6C83106
:10057800B8E6BEAF00000000000000000000000068
:1005880000000049443238C5C5C6F8CEC2B6C831E5
:10059800CBF8CBC000000000000000000000000005
:1005A80000000049443239B6CCD6DCC6DA31B8E6A8
:1005B800BEAF0000000000000000000000000000C6
:1005C80000000049443330D1B9BBFA31D4CBD0D084
:1005D800B3ACCAB100000000000000000000000039
:1005E80000000049443331B8DFD1B932BFAAB9D8C5
:1005F80000000000000000000000000000000000F3
:1006080000000049443332B8DFD1B932CBF8CBC04F
:1006180000000000000000000000000000000000D2
:1006280000000049443333B5CDD1B9D1B9C1A6B81A
:10063800E6BEAF000000000000000000000000005F
:1006480000000049443334B5CDD1B932CBF8CBC022
:100658000000000000000000000000000000000092
:1006680000000049443335C5C5C6F8CEC2B6C83205
:10067800B8E6BEAF00000000000000000000000067
:1006880000000049443336C5C5C6F8CEC2B6C832E4
:10069800CBF8CBC000000000000000000000000004
:1006A80000000049443337B6CCD6DCC6DA32B8E6A7
:1006B800BEAF0000000000000000000000000000C5
:1006C80000000049443338D1B9BBFA32D4CBD0D07A
:1006D800B3ACCAB100000000000000000000000038
:1006E80000000049443339BCD3CAAAC6F7B5E7C1EC
:1006F800F7B9FDB4F300000000000000000000009E
:1007080000000049443430BCD3CAAAC6F7B8DFCBCE
:10071800AECEBB000000000000000000000000009A
:1007280000000049443431BCD3CAAAC6F7C8B1CBCB
:10073800AE00000000000000000000000000000003
:1007480000000049443432BCD3CAAAC6F7D4CBD07F
:10075800D0B3ACCAB10000000000000000000000E7
:1007680000000049443433BCD3C8C8C6F7B8E6BE55
:10077800AF000000000000000000000000000000C2
:1007880000000049443434BCD3C8C8C6F731B3AC00
:10079800CAB10000000000000000000000000000D6
:1007A80000000049443435BCD3C8C8C6F732B3ACDE
:1007B800CAB10000000000000000000000000000B6
:1007C80000000049443436B6CFB5E7D6D8C6F400A1
:1007D8000000000000000000000000000000000011
:1007E80000000049443437B5E7D4B4CFE0D0F2B4C0
:1007F800EDCEF30000000000000000000000000043
:1008080000000049443438B5E7D4B4C6B5C2CAC6F6
:10081800ABB8DF000000000000000000000000008E
:1008280000000049443439B5E7D4B4C6B5C2CAC6D5
:10083800ABB5CD0000000000000000000000000083
:100848000000004944353041CFE0B9FDD1B900007E
:100858000000000000000000000000000000000090
:100868000000004944353142CFE0B9FDD1B900005C
:100878000000000000000000000000000000000070
:100888000000004944353243CFE0B9FDD1B900003A
:100898000000000000000000000000000000000050
:1008A8000000004944353341CFE0C7B7D1B9000053
:1008B8000000000000000000000000000000000030
:1008C8000000004944353442CFE0C7B7D1B9000031
:1008D8000000000000000000000000000000000010
:1008E8000000004944353543CFE0C7B7D1B900000F
:1008F80000000000000000000000000000000000F0
:100908000000004944353641CFE0C8B1CFE00000CF
:1009180000000000000000000000000000000000CF
:100928000000004944353742CFE0C8B1CFE00000AD
:1009380000000000000000000000000000000000AF
:100948000000004944353843CFE0C8B1CFE000008B
:10095800000000000000000000000000000000008F
:1009680000000049443539C6F8C1F7B6AACAA7B885
:10097800E6BEAF000000000000000000000000001C
:1009880000000049443630B9FDC2CBCDF8D4CBD0F5
:10099800D0B3ACCAB10000000000000000000000A5
:1009A80000000049443631B9FDC2CBCDF8B6C2B813
:1009B800E6BEAF00000000000000000000000000DC
:1009C80000000049443632D4B6B3CCB9D8BBFAB823
:1009D800E6BEAF00000000000000000000000000BC
:1009E80000000049443633D2E7CBAEB8E6BEAF00CC
:1009F80000000000000000000000000000000000EF
:100A080000000049443634C8BABFD8CDA8D0C5D2F2
:100A1800ECB3A3000000000000000000000000008C
:100A280000000049443635B1A3C1F40000000000BD
:100A380000000000000000000000000000000000AE
:100A480000000049443636B5CDB9FDC8C8B6C8312E
:100A5800B8E6BEAF00000000000000000000000083
:100A680000000049443637B5CDB9FDC8C8B6C8320C
:100A7800B8E6BEAF00000000000000000000000063
:100A880000000049443638D1CCCEEDB8E6BEAF0000
:100A9800000000000000000000000000000000004E
:100AA80000000049443639D3C3BBA7D7D4B6A8D26F
:100AB800E5B8E6BEAF00000000000000000000003E
:100AC80000000049443730B5E7D4B4D2ECB3A300F2
:100AD800000000000000000000000000000000000E
:100AE80000000049443731B1A3C1F4000000000000
:100AF80000000000000000000000000000000000EE
:100B080000000049443732B1A3C1F40000000000DE
:100B180000000000000000000000000000000000CD
:100B280000000049443733B1A3C1F40000000000BD
:100B380000000000000000000000000000000000AD
:100B480000000049443734B1A3C1F400000000009C
:100B5800000000000000000000000000000000008D
:100B680000000049443735B1A3C1F400000000007B
:100B7800000000000000000000000000000000006D
:100B880000000049443736B5CDD1B9D1B9C1A60066
:100B9800000000000000000000000000000000004D
:100BA80000000049443737B1A3C1F4000000000039
:100BB800000000000000000000000000000000002D
:100BC80000000049443738B5CDD1B9B4A5B8D0C66E
:100BD800F7D2ECB3A3000000000000000000000002
:100BE80000000049443739B8DFD1B9B4A5B8D0C638
:100BF800F7D2ECB3A30000000000000000000000E2
:100C080000000049443830C5C5CBAEB8DFCBAECE06
:100C1800BB00000000000000000000000000000011
:100C280000000049443831BCD3CAAAC6F7D2ECB395
:100C3800A300000000000000000000000000000009
:100C480000000049443832B7E7D1B9B9FDB5CD0045
:100C5800000000000000000000000000000000008C
:100C680000000049443833B1A3C1F400000000007B
:100C7800000000000000000000000000000000006C
:100C880000000049443834B8DFD1B931D1B9C1A620
:100C9800000000000000000000000000000000004C
:100CA80000000049443835B1A3C1F4000000000039
:100CB800000000000000000000000000000000002C
:100CC800000000494438364D4F5031B8E6BEAF00F9
:100CD800000000000000000000000000000000000C
:100CE800000000494438374D4F5032B8E6BEAF00D7
:100CF80000000000000000000000000000000000EC
:100D0800000000494438384C4F5031B8E6BEAF00B7
:100D180000000000000000000000000000000000CB
:100D2800000000494438394C4F5032B8E6BEAF0095
:100D380000000000000000000000000000000000AB
:100D480000000049443930C9E8B1B8CAB9D3C3B3BF
:100D5800ACCAB10000000000000000000000000064
:100D680000000049443931B1A3C1F400000000007B
:100D7800000000000000000000000000000000006B
:100D880000000049443932B1A3C1F400000000005A
:100D9800000000000000000000000000000000004B
:100DA80000000049443933B1A3C1F4000000000039
:100DB800000000000000000000000000000000002B
:100DC800000000D2BCB7A1C8FECBC1CEE9C2BDC6E7
:100DD800E2B0C6BEC1CAB0D2BCB7A1C8FECBC1CEB4
:100DE800E9C2BD3031323334353637383961626360
:100DF8006465663031323334353637383961626389
:100E080064656649443936B1A3C1F40000000000A6
:100E180000000000000000000000000000000000CA
:100E280000000049443937B1A3C1F40000000000B4
:100E380000000000000000000000000000000000AA
:100E480000000049443938B1A3C1F4000000000093
:100E5800000000000000000000000000000000008A
:100E680000000049443939B1A3C1F4000000000072
:100E7800000000000000000000000000000000006A
:100E88000000004944313030B1A3C1F40000000033
:100E9800000000000000000000000000000000004A
:100EA8000000004944313031B1A3C1F40000000012
:100EB800000000000000000000000000000000002A
:100EC8000000004944313032B1A3C1F400000000F1
:100ED800000000000000000000000000000000000A
:100EE8000000004944313033B1A3C1F400000000D0
:100EF80000000000000000000000000000000000EA
:100F08000000004944313034B1A3C1F400000000AE
:100F180000000000000000000000000000000000C9
:100F28000000004944313035B1A3C1F4000000008D
:100F380000000000000000000000000000000000A9
:100F48000000004944313036B1A3C1F4000000006C
:100F58000000000000000000000000000000000089
:100F68000000004944313037B1A3C1F4000000004B
:100F78000000000000000000000000000000000069
:100F88000000004944313038B1A3C1F4000000002A
:100F98000000000000000000000000000000000049
:100FA8000000004944313039B1A3C1F40000000009
:100FB8000000000000000000000000000000000029
:100FC8000000004944313130B1A3C1F400000000F1
:100FD8000000000000000000000000000000000009
:100FE8000000004944313131B1A3C1F400000000D0
:100FF80000000000000000000000000000000000E9
:101008000000004944313132B1A3C1F400000000AE
:1010180000000000000000000000000000000000C8
:101028000000004944313133B1A3C1F4000000008D
:1010380000000000000000000000000000000000A8
:101048000000004944313134B1A3C1F4000000006C
:101058000000000000000000000000000000000088
:10106800000000D2BCB7A1C8FECBC1CEE9C2BDC644
:10107800E2B0C6BEC1CAB0D2BCB7A1C8FECBC1CE11
:10108800E9C2BD30313233343536373839616263BD
:1010980064656630313233343536373839616263E6
:1010A8006465660000000000000000000000000009
:1010B8000000000000000000000000000000000028
:1010C8000000000000000000000000000000000018
:1010D8000000000000000000000000000000000008
:1010E80000000041A9610047A92B00000000000092
:1010F8000048A93A000000000000000048A932009A
:1011080000000000000000C10042A929000052A907
:1011180017000000000000000000000000000000B0
:1011280000000042A944000042A946000042A9422A
:10113800000044A9500000000042A948000044A94A
:101148004A0000000002080000040B000000000430
:101158000F0000000042A94E0000010A006100A52E
:101168007100C1814001C0804101C0804100C1813E
:101178004001C0804100C1814000C1814001C08060
:101188004101C0804100C1814000C1814001C0804F
:101198004100C1814001C0804101C0804100C1813E
:1011A8004001C0804100C1814000C1814001C08030
:1011B8004100C1814001C0804101C0804100C1811E
:1011C8004000C1814001C0804101C0804100C1810F
:1011D8004001C0804100C1814000C1814001C08000
:1011E8004101C0804100C1814000C1814001C080EF
:1011F8004100C1814001C0804101C0804100C181DE
:101208004000C1814001C0804101C0804100C181CE
:101218004001C0804100C1814000C1814001C080BF
:101228004100C1814001C0804101C0804100C181AD
:101238004001C0804100C1814000C1814001C0809F
:101248004101C0804100C1814000C1814001C0808E
:101258004100C1814001C0804101C0804100C1817D
:10126800406100A67100C0C101C30302C2C60607DF
:10127800C705C5C404CC0C0DCD0FCFCE0E0ACACB02
:101288000BC90908C8D81819D91BDBDA1A1EDEDF02
:101298001FDD1D1CDC14D4D515D71716D6D2121392
:1012A800D311D1D010F03031F133F3F23236F6F7F2
:1012B80037F53534F43CFCFD3DFF3F3EFEFA3A3B42
:1012C800FB39F9F83828E8E929EB2B2AEAEE2E2F22
:1012D800EF2DEDEC2CE42425E527E7E62622E2E3D2
:1012E80023E12120E0A06061A163A3A26266A6A712
:1012F80067A56564A46CACAD6DAF6F6EAEAA6A6B82
:10130800AB69A9A86878B8B979BB7B7ABABE7E7F81
:10131800BF7DBDBC7CB47475B577B7B67672B2B311
:1013280073B17170B0509091519353529296565731
:1013380097559594549C5C5D9D5F9F9E5E5A9A9BC1
:101348005B99595898884849894B8B8A4A4E8E8FA1
:101358004F8D4D4C8C448485458747468682424351
:1013680083418180404193F1004184D800449472C4
:10137800000000004184D3004484D4000000006FC2
:101388000A84E75A021003C80250155016000000DC
:10139800FF5A020303C8000000A020031C00FF5AE4
:1013A800020301C8010039A023031900FF5A0206ED
:1013B80001C803A084A024010000395A020301C80F
:1013C800010039A025010400FF5A020601C802A045
:1013D80087A027010400FF5A020301C8010039A0B1
:1013E8002801CC00FF5A020303C8010039A0A0015C
:1013F8001A00FF5A020302C8000000A0A30310004D
:10140800FF5A020302C801000AAA00032600FF5A75
:10141800020308C801000AAA02034100FF5A020396
:1014280001C801000AAA0A036F00FF5A020301C893
:1014380001000AAA0B037700FF5A020301C8010042
:101448000AAA0C036500FF5A020301C801000AAA90
:101458000D036C00FF5A020301C801000AAA0E031B
:101468004F00FF5A020301C801000AAA0F036900CE
:10147800FF5A02031FC801000BAB20038C00FF5A60
:10148800020601C803AC80AC20023A000C5A0203E1
:1014980006C800000DAEA0032000FF5A020307C8CB
:1014A80003B300B320011A00135A020601C803B39C
:1014B80080B320011A00135A020601C803B382B38D
:1014C80022011C00135A020601C803B383B3230187
:1014D8001D00135A020601C803B384B324011E0079
:1014E800135A020601C803B385B325011F00135A16
:1014F800020601C803B386B326012000135A02036B
:101508000BC803B400B420015800145A020301C8E0
:1015180003B400B42B013B00145A020301C803B4FE
:1015280000B42C019E00145A020601C803B480B40A
:1015380020015800145A020601C803B481B42101DD
:101548005900145A020601C803B483B423015B008E
:10155800145A020601C803B484B424015C00145A66
:10156800020601C803B485B425015D00145A0206B9
:1015780001C803B486B426015E00145A020601C8E5
:1015880003B487B427015F00145A020601C803B4E4
:1015980088B428016000145A020601C803B48AB44A
:1015A8002A016200145A020601C803B48BB42B0145
:1015B8003B00145A020601C803B48CB42C019E00E7
:1015C800145A020306C803B700B720013B00175A94
:1015D800020305C803B700B726014300175A0206DD
:1015E80001C803B780B720013B00175A020601C89B
:1015F80003B784B724013F00175A020601C803B78E
:1016080085B725014000175A020601C803B786B7F7
:1016180026014300175A020601C803B787B72701F6
:101628004400175A020601C803B788B728014500C5
:10163800175A020601C803B789B729014600175A85
:10164800020601C803B78AB72A014700175A0203DE
:1016580001C803B800B820016A00185A020303C879
:1016680003B800B821016D00185A020301C803B875
:1016780000B824017200185A020301C803B800B860
:1016880025017400185A020301C803B800B82601DE
:101698007B00185A020301C803B800B827022A00C1
:1016A800185A020601C803B880B820016A00185AFF
:1016B800020601C803B881B821016D00185A020654
:1016C80001C803B882B822016E00185A020601C880
:1016D80003B883B823016F00185A020601C803B87B
:1016E80084B824017200185A020601C803B885B8E4
:1016F80025017400185A020601C803B886B82601E5
:101708007B00185A020601C803B887B827022A00C6
:10171800185A020301C803BB00BB2001B0001B5AC2
:10172800020302C803BB00BB2101B2001B5A02031B
:1017380002C803BB00BB2301B5001B5A020302C841
:1017480003BB00BB2501B8001B5A020301C803BB39
:1017580000BB2701BB001B5A020302C803BB00BB26
:101768002801D1001B5A020302C803BB00BB2A018F
:10177800FB001B5A020302C803BB00BB2C02760005
:101788001B5A020301C803BB00BB2E01DC001B5A15
:10179800020601C803BB80BB2001B0001B5A020629
:1017A80001C803BB81BB2101B2001B5A020601C854
:1017B80003BB82BB2201B3001B5A020601C803BB4C
:1017C80083BB2301B5001B5A020601C803BB84BBB7
:1017D8002401B6001B5A020601C803BB85BB2501BC
:1017E800B8001B5A020601C803BB86BB2601B90014
:1017F8001B5A020601C803BB87BB2701BB001B5A43
:10180800020601C803BB88BB2801D1001B5A020687
:1018180001C803BB89BB2901D2001B5A020601C8B3
:1018280003BB8ABB2A01FB001B5A020601C803BB83
:101838008BBB2B01FC001B5A020601C803BB8CBBE7
:101848002C0276001B5A020601C803BB8DBB2D0271
:1018580077001B5A020601C803BB8EBB2E01DC00B1
:101868001B5A020302C803BC00BC200232001C5AE7
:10187800020301C803BC00BC220252001C5A020326
:1018880001C803BC00BC230255001C5A020301C84E
:1018980003BC00BC240258001C5A020301C803BC44
:1018A80000BC250261001C5A020302C803BC00BC2C
:1018B800260271001C5A020301C803BC00BC28029E
:1018C80086001C5A020601C803BC80BC20023200F4
:1018D8001C5A020601C803BC81BC210233001C5AF1
:1018E800020601C803BC82BC220252001C5A02062E
:1018F80001C803BC83BC230255001C5A020601C858
:1019080003BC84BC240258001C5A020601C803BC4C
:1019180085BC250261001C5A020601C803BC86BCAE
:10192800260271001C5A020601C803BC87BC2702A4
:1019380072001C5A020601C803BC88BC2802860033
:101948001C5A020302C803BF00BF200102001F5A2D
:10195800020301C803BF00BF220107001F5A020388
:1019680001C803BF00BF2301A5001F5A020601C812
:1019780003BF80BF200102001F5A020601C803BF2F
:1019880081BF210103001F5A020601C803BF82BF9D
:10199800220107001F5A020601C803BF83BF2301A3
:1019A800A5001F5A020308C803C200C22001820012
:1019B800225A020301C803C200C228018C00225A1D
:1019C800020301C803C200C229019800225A020674
:1019D80001C803C280C220018200225A020601C83F
:1019E80003C281C221018300225A020601C803C230
:1019F80082C222018400225A020601C803C284C29C
:101A080024018600225A020601C803C285C22501A4
:101A18008700225A020601C803C286C2260188002E
:101A2800225A020601C803C287C227018900225A26
:101A3800020601C803C288C228018C00225A020685
:101A480001C803C289C229019800225A020601C8A6
:101A580003C580C520023B000F5A020301C803C713
:101A680000C72001A600275A020301C803C700C700
:101A78002101A900275A020301C803C700C725018D
:101A8800AB00275A020301C803C700C72602D900C2
:101A9800275A020301C803C700C72702D800275ADC
:101AA800020302C803C700C72802CE00275A020350
:101AB80001C8010027A025010400FF5A020601C839
:101AC80003C780C72001A600275A020601C803C71A
:101AD80081C72101A900275A020601C803C782C786
:101AE8002201A800275A020301C8010027C72303BF
:101AF8007500FF5A020301C8010027C724037700B5
:101B0800FF5A020601C803C785C72501AB00275A3B
:101B1800020601C803C786C72602D900275A02064B
:101B280001C803C787C72702D800275A020601C879
:101B380003C788C72802CE00275A020601C803C770
:101B480089C72902CF00275A020301C803C800C861
:101B580020012700285A020301C803C800C8210130
:101B68002900285A020304C803C800C822012D000E
:101B7800285A020301C803C800C826019000285A41
:101B8800020301C803C800C827019400285A0206A6
:101B980001C803C880C820012700285A020601C8C6
:101BA80003C881C821012900285A020601C803C8B0
:101BB80082C822012D00285A020601C803C883C81A
:101BC80023012E00285A020601C803C884C824012C
:101BD8002F00285A020601C803C885C8250130000D
:101BE800285A020601C803C886C826019000285A48
:101BF800020601C803C887C827019400285A0203AF
:101C08000EC8010029C9B0037800FF5A020601C8AE
:101C180003C990C930023C00295A020303C803CC07
:101C280000CCA00302002C5A020304C803CF00CF43
:101C380020010D002F5A020301C803CF00CF240151
:101C480041002F5A020301C803CF00CF25015A00D3
:101C58002F5A020301C803CF00CF2602D0002F5A03
:101C6800020301C803CF00CF27019D002F5A0206A7
:101C780001C803CF80CF20010D002F5A020601C8EA
:101C880003CF81CF21010E002F5A020601C803CFCE
:101C980082CF22010F002F5A020601C803CF83CF3B
:101CA800230110002F5A020601C803CF84CF240154
:101CB80041002F5A020601C803CF85CF25015A00DB
:101CC8002F5A020601C803CF86CF2602D0002F5A0A
:101CD800020601C803CF87CF27019D002F5A0206AD
:101CE80001C803CF8ACF2A023B002F5A02030AC831
:101CF800010034D420039C00FF5A020302C80100EB
:101D080034D42A03A800FF5A020307C803D500D514
:101D180020011A00355A020601C803D580D52001D2
:101D28001A00355A020601C803D582D522011C00C3
:101D3800355A020601C803D583D523011D00355A3B
:101D4800020601C803D584D524011E00355A0206AF
:101D580001C803D585D525011F00355A020601C8DB
:101D680003D586D526012000355A020301C803D6BB
:101D780000D620010800365A020302C803D600D64E
:101D880021010A00365A020301C803D600D62301EE
:101D9800A700365A020601C803D680D620010800DB
:101DA800365A020601C803D681D621010A00365ADE
:101DB800020601C803D682D622010B00365A020653
:101DC80001C803D683D62301A700365A020301C8E7
:101DD80003D700D72002F400375A020301C803D7FB
:101DE80000D72101CC00375A020601C803D780D793
:101DF8002002F400375A020601C803D781D721010F
:101E0800CC00375A020301C803D800D82001F500D6
:101E1800385A020301C803D800D821020700385AEB
:101E280002030CC803D800D82201BC00385A0203A8
:101E380001C803D800D82E027D00385A020301C811
:101E480003D800D82F027F00385A020301C803D8EC
:101E580000D830020F00385A020601C803D880D8CB
:101E68002001F500385A020601C803D881D821029A
:101E78000700385A020601C803D882D82201BC00DC
:101E8800385A020601C803D883D82301BD00385A3E
:101E9800020601C803D884D82401BE00385A0206B5
:101EA80001C803D885D82501BF00385A020601C8E1
:101EB80003D886D82601C000385A020601C803D8BC
:101EC80087D82701C100385A020601C803D888D824
:101ED8002801C200385A020601C803D889D8290146
:101EE800C300385A020601C803D88AD82A01C40098
:101EF800385A020601C803D88BD82B01C500385AB6
:101F0800020601C803D88CD82C01C600385A02062C
:101F180001C803D88DD82D01C700385A020601C858
:101F280003D88ED82E027D00385A020601C803D87D
:101F38008FD82F027F00385A020601C803D890D8DC
:101F480030020F00385A020301C801003ADA2003B0
:101F5800CD00FF5A020301C801003ADA2103CF007D
:101F6800FF5A020302C801003ADA2203D100FF5ADD
:101F7800020301C801003ADA2403D500FF5A02031C
:101F880001C801003ADA2503D700FF5A020301C845
:101F980001003ADA2603D900FF5A020301C80100FA
:101FA8003ADA2703DB00FF5A020301C801003ADAD4
:101FB8002803DD00FF5A020301C803DB00DB200110
:101FC8009A003B5A020301C803DB00DB2102D3005D
:101FD8003B5A020302C803DB00DB2202D5003B5A4E
:101FE800020302C803DB00DB2402D8003B5A0203C9
:101FF80005C803DB00DB2602DB003B5A020301C8ED
:1020080003DB00DB2B0106003B5A020301C803DB9C
:1020180000DB2C02E1003B5A020302C803DB00DBB1
:102028002D02E4003B5A020601C803DB80DB2001D5
:102038009A003B5A020601C803DB81DB2102D30068
:102048003B5A020601C803DB82DB2202D5003B5A59
:10205800020601C803DB83DB2302D6003B5A0206D3
:1020680001C803DB84DB2402D8003B5A020601C8FE
:1020780003DB85DB2502D9003B5A020601C803DBD6
:1020880086DB2602DB003B5A020601C803DB87DB3E
:102098002702DC003B5A020601C803DB88DB280262
:1020A800DD003B5A020601C803DB89DB2902DE009A
:1020B8003B5A020601C803DB8ADB2A02DF003B5ACF
:1020C800020601C803DB8BDB2B0106003B5A020624
:1020D80001C803DB8CDB2C02E1003B5A020601C875
:1020E80003DB8DDB2D02E4003B5A020601C803DB4B
:1020F8008EDB2E02E5003B5A020301C803DD00DD3A
:1021080020019B003D5A020304C803DD00DD2101C4
:10211800E7003D5A020302C803DD00DD2501ED009A
:102128003D5A020601C803DD80DD20019B003D5AAF
:10213800020601C803DD81DD2101E7003D5A0206E0
:1021480001C803DD82DD2201E8003D5A020601C80C
:1021580003DD83DD2301E9003D5A020601C803DDE2
:1021680084DD2401EA003D5A020601C803DD85DD4D
:102178002501ED003D5A020601C803DD86DD260172
:10218800EE003D5A020301C801003EDE200375003F
:10219800FF5A020301C801003EDE21037700FF5AFF
:1021A800020303C803DF00DF200237003F5A02039F
:1021B80006C803DF00DF23029E003F5A020601C85B
:1021C80003DF80DF200237003F5A020601C803DF21
:1021D80081DF210238003F5A020601C803DF82DF8F
:1021E800220239003F5A020606C803DF83DF2302B2
:1021F8009E003F5A020606C803DF84DF24029F00C0
:102208003F5A020606C803DF85DF2502A0003F5AB1
:10221800020606C803DF86DF2602A1003F5A02062F
:1022280006C803DF87DF2702A2003F5A020606C856
:1022380003DF88DF2802A3003F5A020301C8010018
:1022480039E12002F500FF5A020301C8010041E10B
:102258002002F500FF5A020302C8010041E12102F1
:10226800F600FF5A020601C803E183E12302F800E1
:10227800415A020601C803E183E12402F900415AE8
:10228800020601C803D780D72002F400414E84D942
:102298000000000000000000000000000000428074
:1022A80001000064D080035A13B320B350B3805A9E
:1022B80013B322B352B3825A13B323B353B3835A1B
:1022C80013B324B354B3845A13B325B355B3855AFF
:1022D80013B326B356B3865A14B420B450B4805AF4
:1022E80014B421B451B4815A14B423B453B4835AE6
:1022F80014B424B454B4845A14B425B455B4855AC7
:1023080014B426B456B4865A14B427B457B4875AAA
:1023180014B428B458B4885A14B42AB45AB48A5A8B
:1023280014B42BB45BB48B5A14B42CB45CB48C5A6C
:1023380017B720B750B7805A17B724B754B7845A7D
:1023480017B725B755B7855A17B726B756B7865A58
:1023580017B727B757B7875A17B728B758B7885A3C
:1023680017B729B759B7895A17B72AB75AB78A5A20
:1023780018B820B850B8805A18B821B851B8815A3E
:1023880018B822B852B8825A18B823B853B8835A22
:1023980018B824B854B8845A18B825B855B8855A06
:1023A80018B826B856B8865A18B827B857B8875AEA
:1023B8001BBB20BB50BB805A1BBB21BB51BB815AE6
:1023C8001BBB22BB52BB825A1BBB23BB53BB835ACA
:1023D8001BBB24BB54BB845A1BBB25BB55BB855AAE
:1023E8001BBB26BB56BB865A1BBB27BB57BB875A92
:1023F8001BBB28BB58BB885A1BBB29BB59BB895A76
:102408001BBB2ABB5ABB8A5A1BBB2BBB5BBB8B5A59
:102418001BBB2CBB5CBB8C5A1BBB2DBB5DBB8D5A3D
:102428001BBB2EBB5EBB8E5A1CBC20BC50BC805A4A
:102438001CBC21BC51BC815A1CBC22BC52BC825A57
:102448001CBC23BC53BC835A1CBC24BC54BC845A3B
:102458001CBC25BC55BC855A1CBC26BC56BC865A1F
:102468001CBC27BC57BC875A1CBC28BC58BC885A03
:102478001FBF20BF50BF805A1FBF21BF51BF815A05
:102488001FBF22BF52BF825A1FBF23BF53BF835AE9
:1024980022C220C250C2805A22C221C251C2815ACD
:1024A80022C222C252C2825A22C224C254C2845AAE
:1024B80022C225C255C2855A22C226C256C2865A8F
:1024C80022C227C257C2875A22C228C258C2885A73
:1024D80022C229C259C2895A27C720C750C7805A61
:1024E80027C721C751C7815A27C725C755C7855A46
:1024F80027C726C756C7865A27C727C757C7875A21
:1025080027C728C758C7885A27C729C759C7895A04
:1025180028C820C850C8805A28C821C851C8815A1C
:1025280028C822C852C8825A28C823C853C8835A00
:1025380028C824C854C8845A28C825C855C8855AE4
:1025480028C826C856C8865A28C827C857C8875AC8
:102558002FCF20CF50CF805A2FCF21CF51CF815AA4
:102568002FCF22CF52CF825A2FCF23CF53CF835A88
:102578002FCF24CF54CF845A2FCF25CF55CF855A6C
:102588002FCF26CF56CF865A2FCF27CF57CF875A50
:1025980035D520D550D5805A35D522D552D5825A31
:1025A80035D523D553D5835A35D524D554D5845A12
:1025B80035D525D555D5855A35D526D556D5865AF6
:1025C80036D620D650D6805A36D621D651D6815AFC
:1025D80036D622D652D6825A36D623D653D6835AE0
:1025E80037D720D750D7805A37D721D751D7815AD4
:1025F80038D820D850D8805A38D821D851D8815ABC
:1026080038D822D852D8825A38D823D853D8835A9F
:1026180038D824D854D8845A38D825D855D8855A83
:1026280038D826D856D8865A38D827D857D8875A67
:1026380038D828D858D8885A38D829D859D8895A4B
:1026480038D82AD85AD88A5A38D82BD85BD88B5A2F
:1026580038D82CD85CD88C5A38D82DD85DD88D5A13
:1026680038D82ED85ED88E5A38D82FD85FD88F5AF7
:1026780038D830D860D8905A3BDB20DB50DB805A02
:102688003BDB21DB51DB815A3BDB22DB52DB825A0D
:102698003BDB23DB53DB835A3BDB24DB54DB845AF1
:1026A8003BDB25DB55DB855A3BDB26DB56DB865AD5
:1026B8003BDB27DB57DB875A3BDB28DB58DB885AB9
:1026C8003BDB29DB59DB895A3BDB2ADB5ADB8A5A9D
:1026D8003BDB2BDB5BDB8B5A3BDB2CDB5CDB8C5A81
:1026E8003BDB2DDB5DDB8D5A3BDB2EDB5EDB8E5A65
:1026F8003DDD20DD50DD805A3DDD21DD51DD815A93
:102708003DDD22DD52DD825A3DDD23DD53DD835A76
:102718003DDD24DD54DD845A3DDD25DD55DD855A5A
:102728003DDD26DD56DD865A3FDF20DF50DF805A4B
:102738003FDF21DF51DF815A3FDF22DF52DF825A3C
:102748003FDF23DF53DF835A3FDF24DF54DF845A20
:102758003FDF25DF55DF855A3FDF26DF56DF865A04
:102768003FDF27DF57DF875A3FDF28DF58DF885AE8
:1027780041D720D750D780418000005CA82A0000AC
:102788000000000000000000000000000000000041
:10279800000000000000000000005CA80600000027
:1027A80000000000010000000200027360000A2D12
:1027B800080002EA800007ED6541A802FF608CA7C7
:1027C800760000010002000300040005000600076F
:1027D80000080009000A000B000C000D000E000F95
:1027E8000110001100120213001400150016001742
:1027F80000180019001A001B021C001D001E001FF3
:1028080000200021002200230024002500260227A2
:1028180000280029002A002B002C002D002E002F54
:102828000330003100320033003400350036003701
:1028380005380039003A003B003C003D003E003FAF
:102848000040004100420043004400450048A822DF
:10285800000101030203030642A804000042A77412
:10286800000042A771000041A7730000AF13EF13E7
:1028780013543F5401640160030232387B017AA388
:10288800795F90A56AF0A3740CF07F217EA0124CAA
:102898002990A361E0FEA3E0FF90A35FE0FCA3E022
:1028A8002FFFEC3EFE90A88CE0FCA3E06F7002EED8
:1028B8006C605890A361E0FEA3E0FF90A35FE0FC8A
:1028C800A3E02FFFEC3EFE90A88CE0FCA3E0C39FA2
:1028D800EC9E501D90A369E4F0A304F0FB7AA37961
:1028E8006990A56AE4F0A37402F07F267EA0124ED8
:1028F8009690A361E0FEA3E0FF90A35FE0FCA3E055
:102908002FFFEC3E90A88CF0A3EFF090A35FE0FEC1
:10291800A3E0D39400EE9400500CA3E0FEA3E0944F
:1029280000EE9400402090A369E0FEA3E04E6016FC
:102938007B017AA8797A90A56AE4F0A37402F07F03
:10294800A07E00124E9690A95BE0FEA3E0640D4EB7
:102958006003022CF590A95BE0A3E0FF90A8A6E035
:10296800FCA3E06F7002EC6E601EE490A8ABF0A3CD
:10297800F07B017AA879AB90A56AF0A37402F07F86
:10298800017EAE124E9680167B017AA879AB90A58F
:102998006AE4F0A37402F07F017EAE124C297B0139
:1029A8007AA3795F90A56AE4F0A37410F07FA07E03
:1029B800AE124C29E490A36DF0A3E05407F07B011C
:1029C8007AA8797C785F7CA37D017E007F1012381D
:1029D8009AEF702F90A8A8E0FEA3E0FF90A8ABE0C4
:1029E800FCA3E0B5071DECB5061990A95BE0FEA3B2
:1029F800E0FF90A8A6E0FCA3E06F7002EC6E700305
:102A0800022FEA7B017AA3795F787C7CA87D017E1E
:102A1800007F10123309E490A8AAF090A392F090D6
:102A2800A392E0C39408748094804003022C9DE430
:102A380090A391F090A391E0C39410748094804087
:102A480003022C94A3E0C454F0FF90A391E02F90CC
:102A5800A396F0E075F018A42400FFE5F03435FEE5
:102A68007B017AA3795F90A56AE4F0A37430F01231
:102A78004C297B017AA3795F90A3931236B890A36F
:102A880091E0FF7E007401A807088005C333CE33A8
:102A9800CED8F9FF90A392E025E0247CF582E434B7
:102AA800A8F583E0FCA3E0FDEE5CFEEF5D4E70034D
:102AB800022BEB90A393123698123450645A700488
:102AC800E5F064A57003022B8890A39312369874DE
:102AD800A575F05A1234B37B017AA3797390A56A6D
:102AE800E4F0A37408F07F107E00124C297B017A71
:102AF800A3797378617CA37D017E007F031233097B
:102B08007B017AA3797778647CA37D017E007F03BB
:102B18001233097E007F087D007B017AA379671252
:102B280038BE90A396E0FF90A36DE4F0A3EFF07B8E
:102B3800017AA3796FC002C00190A39675F020A412
:102B4800247FF9749435F0FA90A3AA1236B890A3AA
:102B5800ADE4F0A37420F0D001D00212734090A32A
:102B680096E075F018A42400FFE5F03435FE7B01EB
:102B78007AA3795F90A56AE4F0A37430F0124E96B8
:102B880090A8ABE0FEA3E0FF7C007D0A123387909B
:102B9800A8AAE0C39FEC9E4041A3E0FEA3E0FF1279
:102BA8003387EF240AFFE43EFE90A8AAE0C39FEC17
:102BB8009E502790A396E075F018A42400FDE5F038
:102BC8003435FC90A8ABE0A3E075F00AA4FF90A808
:102BD800AAE0C39FFF7B0D12652590A8AAE004F028
:102BE800022C8B90A393123698123450645A7004B6
:102BF800E5F064A56003022C8B7B017AA3797390BE
:102C0800A56AF0A37408F07F107E00124C297B019E
:102C18007AA3797378677CA37D017E007F031233E2
:102C2800097B017AA37977786A7CA37D017E007F8E
:102C38000312330990A396E0FF90A36DE4F0A3EF8D
:102C4800F07B017AA3795F90A56AE4F0A37410F091
:102C58007F007E30124E96126AA9E490A35FF0A31B
:102C6800F090A396E075F018A42400FFE5F0343541
:102C7800FE7B017AA3795F90A56AE4F0A37402F061
:102C8800124E9690A391E004F0022A3C90A392E0A1
:102C980004F0022A2790A8AAE090A391F090A8AB8C
:102CA800E0FEA3E0FF7C007D0A123387EF240AFFD1
:102CB800E43EFE90A391E0C39FEC9E501D90A8AB0C
:102CC800E0A3E075F00AA4FF90A391E0C39FFF1270
:102CD80063E690A391E004F080C390A8ABE0FEA364
:102CE800E0FF90A8A8EEF0A3EFF0022FEA7B017AAC
:102CF800A3795F90A56AE4F0A37410F07FA07EAE7C
:102D0800124C29E490A36DF0A3E05407F07B017AFC
:102D1800A8797C785F7CA37D017E007F1012389AA9
:102D2800EF7003022FEA7B017AA3795F78937CA383
:102D38007D017E007F10123309E490A392F090A3E6
:102D480092E0C39406748094804003022FD7E490E5
:102D5800A391F090A391E0C39410748094804003F1
:102D6800022FCEE0FF7E007401A807088005C33358
:102D7800CE33CED8F9FF90A392E025E02493F582D4
:102D8800E434A3F583E0FCA3E0FDEE5CFCEF5DFD1D
:102D980090A391E0FF7E007401A807088005C33363
:102DA800CE33CED8F9FF90A392E025E0247CF582BB
:102DB800E434A8F583E0FAA3E0FBEE5AFEEF5B6D7E
:102DC8007002EE6C7003022FC590A392E0C454F019
:102DD800FF90A391E02F90A3A6F0E075F018A4242B
:102DE80000FFE5F03435FE7B017AA3795F90A56A90
:102DF800E4F0A37430F0124C297B017AA3795F9038
:102E0800A3A31236B890A391E0FF7E007401A8072F
:102E1800088005C333CE33CED8F9FF90A392E025BE
:102E2800E02493F582E434A3F583E0FCA3E0FDEE0F
:102E38005CFEEF5D4E7003022F1290A3A31236982A
:102E4800123450645A7004E5F064A57003022FC56B
:102E580090A3A312369874A575F05A1234B37B0167
:102E68007AA3797390A56AE4F0A37408F07F107EC2
:102E780000124C297B017AA3797378617CA37D01C8
:102E88007E007F031233097B017AA3797778647C0B
:102E9800A37D017E007F031233097E007F087D0039
:102EA8007B017AA379671238BE90A3A6E0FF90A3AE
:102EB8006DE4F0A3EFF07B017AA3796FC002C00143
:102EC80090A3A675F020A4247FF9749435F0FA90A5
:102ED800A3AA1236B890A3ADE4F0A37420F0D001F1
:102EE800D00212734090A3A6E075F018A42400FF46
:102EF800E5F03435FE7B017AA3795F90A56AE4F0AA
:102F0800A37430F0124E96022FC590A3A3123698E0
:102F1800123450645A7004E5F064A56003022FC5AA
:102F28007B017AA3797390A56AF0A37408F07F10E7
:102F38007E00124C297B017AA3797378677CA37D84
:102F4800017E007F031233097B017AA37977786ABF
:102F58007CA37D017E007F0312330990A3A6E0FFC6
:102F680090A36DE4F0A3EFF07B017AA3795F90A5BD
:102F78006AE4F0A37410F07F007E30124E96126A55
:102F8800A9E490A35FF0A3F090A3A6E075F018A4BD
:102F98002400FFE5F03435FE7B017AA3795F90A524
:102FA8006AE4F0A37402F0124E9690A8ABE0FEA378
:102FB800E02401FFE43E90A8A8F0A3EFF090A391CD
:102FC800E004F0022D5B90A392E004F0022D467B12
:102FD800017AA37993787C7CA87D017E007F10120A
:102FE800330990A95BE0FEA3E0640E4E6003023251
:102FF8002890A95BE0A3E0FF90A8A6E0FCA3E06FFF
:103008007002EC6E601EE490A8ABF0A3F07B017A2E
:10301800A879AB90A56AF0A37402F07F017EAE1286
:103028004E9680347B017AA879AB90A56AE4F0A328
:103038007402F07F017EAE124C2990A8A8E0FEA38E
:10304800E0FF90A8ABE0FCA3E06F7002EC6E7003A9
:10305800023228800302322890A8ABE0FEA3E0FFEA
:1030680090A8A8EEF0A3EFF0E4A3F090A8AAE0C31C
:10307800940A74809480400302320EA3E0FEA3E019
:10308800FF7C007D0A12338790A8AAE02FFFEC3E50
:10309800FE90A8A4E0FCA3E0FDC3EF9DEE9C4003D6
:1030A80002320E90A8ABE0FEA3E0FF7C007D0A127E
:1030B800338790A8AAE02FFFEC3EFE90A8A0E0FC82
:1030C800A3E0D39FEC9E403290A8ABE0FEA3E0FFC4
:1030D8007C0012338790A8AAE02FFFEC3EFEEF2475
:1030E80001FFE43EFE90A8A0E0FCA3E0C39FFFEC34
:1030F8009E90A393F0A3EFF0803A90A8ABE0FEA3D4
:10310800E0FF7C007D0A12338790A8AAE02FFFEC2D
:103118003EFEEF2401FFE43EFE90A8A0E0FCA3E001
:103128002400FDEC3402FCC3ED9FFFEC9E90A393BA
:10313800F0A3EFF090A393E0FEA3E07803C333CEAF
:1031480033CED8F92400FFEE3420FEE4FCFD90A530
:103158006812364F90A56CE4F0A37408F07D007CEB
:10316800307F5A126FF27B017AA3795F90A56AE4E7
:10317800F0A37410F07F007E30124C297B017AA3F3
:10318800796FC003C002C00190A36DE0FEA3E07890
:1031980005C333CE33CED8F9247FF974943EFA7B35
:1031A8000190A3AA1236B890A3ADE4F0A37420F05E
:1031B800D001D002D00312734090A8AAE025E024E1
:1031C800ADF582E434A8F583E0FEA3E0FF7B017A45
:1031D800A3795F90A56AE4F0A37430F0124E96903C
:1031E800A8AAE025E024ADF582E434A8F583E0FC44
:1031F800A3E0FD90A8AAE0FF7B0E12652590A8AA7F
:10320800E004F002307390A8AAE0C3940A74809492
:1032180080500DE0FF1263E690A8AAE004F080E673
:1032280090A95BE0FEA3E0FF90A8A6EEF0A3EFF064
:1032380022E709F608DFFA8046E709F208DFFA8094
:103248003E88828C83E709F0A3DFFA8032E309F62F
:1032580008DFFA8078E309F208DFFA807088828C48
:1032680083E309F0A3DFFA806489828A83E0A3F606
:1032780008DFFA805889828A83E0A3F208DFFA809F
:103288004C80D280FA80C680D4806980F2803380F6
:103298001080A680EA809A80A880DA80E280CA80BE
:1032A8003389828A83ECFAE493A3C8C582C8CCC563
:1032B80083CCF0A3C8C582C8CCC583CCDFE9DEE7E0
:1032C800800D89828A83E493A3F608DFF9ECFAA9D2
:1032D800F0EDFB2289828A83ECFAE0A3C8C582C894
:1032E800CCC583CCF0A3C8C582C8CCC583CCDFEAE3
:1032F800DEE880DB89828A83E493A3F208DFF98021
:10330800CC88F0EF60010E4E60C388F0ED2402B463
:10331800040050B9F582EB2402B4040050AF232313
:1033280045822390328973BB010689828A83E02211
:103338005002E722BBFE02E32289828A83E49322B9
:10334800BB010CE58229F582E5833AF583E022503A
:1033580006E92582F8E622BBFE06E92582F8E22284
:10336800E58229F582E5833AF583E49322BB0106D9
:1033780089828A83F0225002F722BBFE01F322EFF2
:103388008DF0A4A8F0CF8CF0A428CE8DF0A42EFE4A
:1033980022BC000BBE0029EF8DF084FFADF022E4C3
:1033A800CCF875F008EF2FFFEE33FEEC33FCEE9D02
:1033B800EC984005FCEE9DFE0FD5F0E9E4CEFD2229
:1033C800EDF8F5F0EE8420D21CFEADF075F008EFB4
:1033D8002FFFED33FD4007985006D5F0F222C39831
:1033E800FD0FD5F0EA22C2D5EC30E709B2D5E4C327
:1033F8009DFDE49CFCEE30E715B2D5E4C39FFFE4E5
:103408009EFE123399C3E49DFDE49CFC80031233B5
:103418009930D507C3E49FFFE49EFE22C5F0F8A3C8
:10342800E028F0C5F0F8E582158270021583E038CF
:10343800F022A3F8E0C5F025F0F0E58215827002CD
:103448001583E0C838F0E822BB010A89828A83E044
:10345800F5F0A3E022500687F009E71922BBFE0722
:10346800E3F5F009E3192289828A83E493F5F0747D
:10347800019322BB0110E58229F582E5833AF583A1
:10348800E0F5F0A3E0225009E92582F886F008E685
:1034980022BBFE0AE92582F8E2F5F008E222E5837C
:1034A8002AF583E993F5F0A3E99322BB010A8982FF
:1034B8008A83F0E5F0A3F0225006F709A7F0192255
:1034C800BBFE06F3E5F009F31922EF2BFFEE3AFEF7
:1034D800ED39FDEC38FC22E88FF0A4CC8BF0A42C5D
:1034E800FCE98EF0A42CFC8AF0EDA42CFCEA8EF00A
:1034F800A4CDA8F08BF0A42DCC3825F0FDE98FF0F1
:10350800A42CCD35F0FCEB8EF0A4FEA9F0EB8FF0E7
:10351800A4CFC5F02ECD39FEE43CFCEAA42DCE356F
:10352800F0FDE43CFC2275F008758200EF2FFFEEF9
:1035380033FECD33CDCC33CCC58233C5829BED9AD7
:10354800EC99E58298400CF582EE9BFEED9AFDEC35
:1035580099FC0FD5F0D6E4CEFBE4CDFAE4CCF9A87B
:103568008222B800C1B90059BA002DEC8BF084CF83
:10357800CECDFCE5F0CBF97818EF2FFFEE33FEED5A
:1035880033FDEC33FCEB33FB10D703994004EB9984
:10359800FB0FD8E5E4F9FA227818EF2FFFEE33FE97
:1035A800ED33FDEC33FCC933C910D7059BE99A40CC
:1035B80007EC9BFCE99AF90FD8E0E4C9FAE4CCFBE4
:1035C8002275F010EF2FFFEE33FEED33FDCC33CC38
:1035D800C833C810D7079BEC9AE899400AED9BFDC1
:1035E800EC9AFCE899F80FD5F0DAE4CDFBE4CCFAD4
:1035F800E4C8F922EB9FF5F0EA9E42F0E99D42F01B
:10360800EC6480C864809845F022EB9FF5F0EA9E50
:1036180042F0E99D42F0E89C45F022E86010ECA2F7
:10362800E713FCED13FDEE13FEEF13FFD8F022E0D5
:10363800FCA3E0FDA3E0FEA3E0FF22E0F8A3E0F98D
:10364800A3E0FAA3E0FB22ECF0A3EDF0A3EEF0A3D5
:10365800EFF022A8828583F0D083D08212367212CE
:103668003672123672123672E473E493A3C583C5B8
:10367800F0C583C8C582C8F0A3C583C5F0C583C893
:10368800C582C822A42582F582E5F03583F5832218
:10369800E0FBA3E0FAA3E0F922F8E0FBA3A3E0F93A
:1036A80025F0F0E582158270021583E0FA38F022E1
:1036B800EBF0A3EAF0A3E9F022D083D082F8E493F8
:1036C8007012740193700DA3A393F8740193F5829B
:1036D8008883E4737402936860EFA3A3A380DFD0A8
:1036E80083D082F8E4937012740193700DA3A393AE
:1036F800F8740193F5828883E473740293B5F00635
:103708007403936860E9A3A3A3A380D8E3F5F00941
:10371800E208B5F06BDFF58067E3F5F009E608B578
:10372800F05EDFF5805A87F009E608B5F052DFF65B
:10373800804E87F009E208B5F046DFF680428882BD
:103748008C8387F009E0A3B5F036DFF680328882F3
:103758008C8387F009E493A3B5F025DFF5802188F1
:10376800828C83E3F5F009E0A3B5F014DFF580104F
:1037780088828C83E3F5F009E493A3B5F002DFF4C3
:10378800023843808780E9809080D4803E8015800D
:103798006E807E809D80B7808D80A38051807480EC
:1037A8003C02384F89828A83ECFAE493F5F0A3C887
:1037B800C582C8CCC583CCE493A3C8C582C8CCC590
:1037C80083CCB5F076DFE3DEE1807089828A83E41A
:1037D80093F5F0A3E208B5F062DFF4805E89828A8F
:1037E80083E0F5F0A3E608B5F051DFF5804D898256
:1037F8008A83E0F5F0A3E208B5F040DFF5803C8964
:10380800828A83E493F5F0A3E608B5F02EDFF4800E
:103818002A8002805789828A83ECFAE493F5F0A320
:10382800C8C582C8CCC583CCE0A3C8C582C8CCC5EE
:1038380083CCB5F006DFE4DEE280007FFFB5F0025E
:103848000F2240027F012289828A83ECFAE0F5F098
:10385800A3C8C582C8CCC583CCE0A3C8C582C8CCE0
:10386800C583CCB5F0D5DFE5DEE380CF89828A83D6
:10387800ECFAE0F5F0A3C8C582C8CCC583CCE493C4
:10388800A3C8C582C8CCC583CCB5F0AFDFE4DEE2FF
:1038980080A988F0EF60010E4E60ABED2402B404FD
:1038A800005098F582EB2402B40400508E2323457F
:1038B800822390378B73EF4E6012EF60010EEDBBE1
:1038C800010B89828A83F0A3DFFCDEFA2289F0509B
:1038D80007F709DFFCA9F022BBFEFCF309DFFCA90E
:1038E800F022F8BB010DE58229F582E5833AF583DC
:1038F800E8F0225006E92582C8F622BBFE05E92534
:1039080082C8F2227BFF7A7E7942789A7CA37D0175
:103918007E007F3E1233097BFF7A7E798078D97CDE
:10392800A37D017E007F241233097B017AA3799A53
:1039380090A56AE4F0A3743EF07F207EAB124C2978
:10394800E490A3D8F090A3D8E0C394107480948036
:103958004003023BADE0FF7E007401A80708800524
:10396800C333CE33CED8F9FF90A3A0E0FCA3E0FD8B
:10397800EE5CFEEF5D4E7003023B9190A3D8E0FF32
:103988007E007401A807088005C333CE33CED8F96A
:10399800FF90A3A4E0FCA3E0FDEE5CFEEF5D4E709B
:1039A80003023B3E90A3D8E0FF1313543F2407FFC4
:1039B800E43390A3FFF0A3EFF090A3FFE0FEA3E0B1
:1039C80025E0FFEE33FE749A2FF58274A33EF5834B
:1039D800E0FEA3E0FF90A3D8E0540325E025E0FD36
:1039E800EFA805088005CEC313CE13D8F9540FFFEE
:1039F80090A3FDE4F0A3EFF090A3FDE0FEA3E08E1A
:103A0800F01236E73A3000003A4800013A60000206
:103A18003A7800043A8F00053AA600063ABD000835
:103A28003AD4000900003AEB90A3D8E025E024D965
:103A3800F582E434A3F583E4F0A37405F0023B00B7
:103A480090A3D8E025E024D9F582E434A3F583E4F3
:103A5800F0A37406F0023B0090A3D8E025E024D937
:103A6800F582E434A3F583E4F0A37407F0023B0085
:103A780090A3D8E025E024D9F582E434A3F583E4C3
:103A8800F0A37408F0807190A3D8E025E024D9F55C
:103A980082E434A3F583E4F0A37409F0805A90A378
:103AA800D8E025E024D9F582E434A3F583E4F0A333
:103AB800740AF0804390A3D8E025E024D9F582E485
:103AC80034A3F583E4F0A37403F0802C90A3D8E02A
:103AD80025E024D9F582E434A3F583E4F0A3740443
:103AE800F0801590A3D8E025E024D9F582E434A32A
:103AF800F583E4F0A37405F090A3D8E0FF7E00748A
:103B080001A807088005C333CE33CED8F9FF90A3A8
:103B18009CE0FCA3E0FDEE5CFEEF5D4E607E90A3B2
:103B2800D8E025E024D9F582E434A3F583E475F0E0
:103B380008123424806690A3D8E0FF7E007401A8A0
:103B480007088005C333CE33CED8F9FF90A39CE095
:103B5800FCA3E0FDEE5CFEEF5D4E601790A3D8E09D
:103B680025E024D9F582E434A3F583E4F0A37402B4
:103B7800F0802990A3D8E025E024D9F582E434A385
:103B8800F583E4F0A304F0801390A3D8E025E024A3
:103B9800D9F582E434A3F583E4F0A3F090A3D8E048
:103BA80004F002394D90A3D87410F090A3D8E0C364
:103BB8009412748094804003023E1EE024F0FF7E3D
:103BC800007401A807088005C333CE33CED8F9FFA7
:103BD80090A3A2E0FCA3E0FDEE5CFEEF5D4E700357
:103BE800023E0290A3D8E024F0FF7E007401A807EB
:103BF800088005C333CE33CED8F9FF90A3A6E0FCE6
:103C0800A3E0FDEE5CFEEF5D4E7003023DAD90A3B8
:103C1800D8E0FF1313543F2407FFE43390A3FFF0C9
:103C2800A3EFF090A3FFE0FEA3E025E0FFEE33FE54
:103C3800749A2FF58274A33EF583E0FEA3E0FF900B
:103C4800A3D8E0540325E025E0FDEFA8050880058A
:103C5800CEC313CE13D8F9540FFF90A3FDE4F0A3FD
:103C6800EFF090A3FDE0FEA3E08EF01236E73C9A59
:103C780000003CB200013CCA00023CE200043CF9EE
:103C880000053D1000063D2700083D3E00090000E4
:103C98003D5590A3D8E025E024D9F582E434A3F576
:103CA80083E4F0A37405F0023D6A90A3D8E025E010
:103CB80024D9F582E434A3F583E4F0A37406F00272
:103CC8003D6A90A3D8E025E024D9F582E434A3F531
:103CD80083E4F0A37407F0023D6A90A3D8E025E0DE
:103CE80024D9F582E434A3F583E4F0A37408F080C2
:103CF8007190A3D8E025E024D9F582E434A3F583B4
:103D0800E4F0A37409F0805A90A3D8E025E024D900
:103D1800F582E434A3F583E4F0A3740AF0804390B9
:103D2800A3D8E025E024D9F582E434A3F583E4F0B0
:103D3800A37403F0802C90A3D8E025E024D9F58261
:103D4800E434A3F583E4F0A37404F0801590A3D8B9
:103D5800E025E024D9F582E434A3F583E4F0A374E4
:103D680005F090A3D8E024F0FF7E007401A80708AE
:103D78008005C333CE33CED8F9FF90A39EE0FCA3D1
:103D8800E0FDEE5CFEEF5D4E7003023E1590A3D899
:103D9800E025E024D9F582E434A3F583E475F0083E
:103DA800123424806890A3D8E024F0FF7E007401C8
:103DB800A807088005C333CE33CED8F9FF90A39E59
:103DC800E0FCA3E0FDEE5CFEEF5D4E601790A3D82B
:103DD800E025E024D9F582E434A3F583E4F0A37464
:103DE80002F0802990A3D8E025E024D9F582E434B4
:103DF800A3F583E4F0A304F0801390A3D8E025E0B2
:103E080024D9F582E434A3F583E4F0A3F090A3D891
:103E1800E004F0023BB37B017AA379D990A56AE468
:103E2800F0A37424F07FA07EAB124E9622E51330E7
:103E3800E0167B017AA9795B90A56AE4F0A3740285
:103E4800F07F147E00124C29E51320E2030242DAC7
:103E580090A95BE0FEA3E04E702690A954E0C394BD
:103E680006748094805005E004F0801490A954E012
:103E78006406700C7F39FE1277BF90A954E004F0F5
:103E880090A95BE0FEA3E0640B4E700312390C901E
:103E9800A95BE0FEA3E064294E6003023F787B0142
:103EA8007AA3796290A56AF0A3741CF07FB07EC9EA
:103EB800124C29E490A35FF090A35FE0C3940774C9
:103EC8008094804003023F62E025E025E02462F50B
:103ED80082E434A3F583E0FEA3E0C4F8540FC86875
:103EE800FDEEC454F048FC90A35FE025E025E024F3
:103EF80064F582E434A3F583E0FEA3E0EEC4540F36
:103F08002DFFE43C90A360F0A3EFF090A360E0FEE7
:103F1800A3E0FF7C007D1812339990A35FE025E0B1
:103F2800247EF582E434A3F583EEF0A3EFF090A3AA
:103F380060E0FEA3E0FF7C007D1812339990A35F38
:103F4800E025E0248CF582E434A3F583ECF0A3EDBE
:103F5800F090A35FE004F0023EC07B017AA3797E73
:103F680090A56AE4F0A3741CF07F207EC9124E96D7
:103F780090A95BE0FEA3E0642C4E60030240587BEE
:103F8800017AA3796F90A56AF0A37406F07FA07EEA
:103F9800CC124C2990A36FE0FEA3E0FFEEC4F854C6
:103FA800F0C868FEEFC4540F4890A35FEEF0A3E496
:103FB800F090A35FE0FCA3E0FD90A36FE0FEA3E018
:103FC8007807CEC313CE13D8F9541FFFECFEED4F7C
:103FD800FF90A35FEEF0A3EFF090A36FE0A3E0548F
:103FE8007F90A361F0A3E4F090A361E0FCA3E0FD5F
:103FF80090A373E0FEA3E0EEFFECFEED4FFF90A36D
:1040080061EEF0A3EFF090A373E0A3E090A363F058
:10401800A3E4F090A371E0FEA3E0FF90A365EEF0A7
:10402800A3EFF0A37402F0A304F0A37407F0A37441
:1040380001F0A3F0A3E4F0A3F0A3F07B017AA37945
:104048005F90A56AF0A37410F07F207ECC124E9684
:1040580090A95BE0FEA3E0642F4E60030241397B28
:10406800017AA3795F90A56AF0A37402F07F107EAD
:10407800CF124C297B017AA3796390A56AE4F0A357
:104088007402F07F227ECF124C2990A35FE0FEA33A
:10409800E0FF90A955E0FCA3E06F7002EC6E606051
:1040A80090A35FE0A3E090A955EEF0A3EFF090A3F2
:1040B80063E0FEA3E0543FFF90A363EEF0A3EFF0AC
:1040C80090A363E0FCA3E0FD90A35FE0A3E07E0083
:1040D80054037806C333CE33CED8F9FFEC4EFEED49
:1040E8004FFF90A363EEF0A3EFF07B017AA379630F
:1040F80090A56AE4F0A37402F07F227ECF124E9658
:1041080090A363E0FEA3E07806CEC313CE13D8F9DC
:104118005403FF90A365E4F0A3EFF07B017AA37941
:104128006590A56AE4F0A37402F07F117ECF124E69
:104138009690A95BE0FEA3E064414E70287B017A6B
:10414800A3795F90A56AF0A37402F07F207EE11244
:104158004C2990A35FE0FEA3E064A54E60077F3979
:104168007E001277BF90A95BE0FEA3E064274E7043
:104178005690A957E0C3940574809480504290A348
:104188005FE4F0A304F0FB7AA3795F90A56AE4F0FA
:10419800A37402F07F277EA0124E9690A35FE4F0EE
:1041A800A3745AF07B017AA3795F90A56AE4F0A31F
:1041B8007402F07F877EA0124E9690A957E004F013
:1041C800E490A958F0807290A958E0C394057480CF
:1041D80094805060E490A35FF0A3F07B017AA37908
:1041E8005F90A56AF0A37402F07F297EC7124C295C
:1041F80090A35FE0FEA3E04E70347B017AA3795F61
:1042080090A56AF0A37402F07F277EA0124E9690C4
:10421800A35FE4F0A3745AF07B017AA3795F90A5B9
:104228006AE4F0A37402F07F877EA0124E9690A9EC
:1042380058E004F0E490A957F07B017AA3795F90E5
:10424800A56AE4F0A37402F07F167E00124C299050
:10425800A35FE0FEA3E04E6024E490A35FF0A3F028
:104268007B017AA3795F90A56AF0A37402F07F16A8
:104278007E00124E96E490A959F0A3F02290A95915
:10428800E0FEA3E0C39458EE9402501BA3E0FEA303
:10429800E064404E70067F39FE1277BF90A959E45A
:1042A80075F0011234242290A959E0FEA3E0B45815
:1042B80021EEB4021D90A959E475F001123424903E
:1042C800A95BE0FEA3E064404E60077F407E0012D9
:1042D80077BF2290A3641236B890A367ECF0A3EDE1
:1042E800F090A367E0FEA3E0C39405EE94005003AA
:1042F800024630E4A3F0A3F090A36412369890A38A
:1043080069E0FEA3E0F5828E8312334864026003FD
:1043180002460A90A36412369890A369E0A3E029A4
:10432800F9EA3EFA9000011233481236C1434203BB
:104338004491064553100000460A90A3641236982B
:1043480090A369E0FEA3E029F9EA3EFA9000021280
:104358003348FF90A36DE4F0A3EFF090A369E0A3C6
:10436800E0FF90A36DE0FCA3E02FFFEC3EFEEF24FE
:1043780005FFE43EFE90A367E0FCA3E0FDD3EF9DBC
:10438800EE9C401190A367E0FEA3E0FFA3EEF0A32C
:10439800EFF002460A90A36412369890A369E0FEF3
:1043A800A3E029F9EA3EFA90A36DE0FEA3E0240316
:1043B800FDE43EFC12717890A36BEEF0A3EFF09051
:1043C800A36412369890A369E0FEA3E029F9EA3EB7
:1043D800FA90A36DE0FEA3E029F9EA3EFA90000303
:1043E800123348FD90A36BE0FEA3E0EE6D7001E48C
:1043F800600302460A90A36412369890A369E0FE0F
:10440800A3E029F9EA3EFA90A36DE0FEA3E029F9BA
:10441800EA3EFA900004123348FF90A36BE0A3E051
:104428006F7001E4600302460A9084E1E0FEA3E0B5
:10443800FF90A36412369890A369E0FCA3E029F9E1
:10444800EA3CFAE92403F9E43AFA90A36DE0FCA304
:10445800E0FD90A56AECF0A3EDF0124E967E007F89
:104468000E7D007B017A8479D91238BE90A36DE065
:10447800FEA3E02405FFE43E90A369F0A3EFF090CB
:104488008000E04402F002460A90A369E0FEA3E03F
:104498002408FFE43EFE90A367E0FCA3E0FDD3EF11
:1044A8009DEE9C401190A367E0FEA3E0FFA3EEF011
:1044B800A3EFF002460A90A36412369890A369E02D
:1044C800FEA3E029F9EA3EFA7D067C001271789095
:1044D800A36BEEF0A3EFF090A36412369890A36953
:1044E800E0FEA3E029F9EA3EFA900006123348FDFF
:1044F80090A36BE0FEA3E0EE6D7001E4600302465A
:104508000A90A36412369890A369E0FEA3E029F903
:10451800EA3EFA900007123348FF90A36BE0A3E04D
:104528006F7001E4600302460A90A36975F00812EF
:1045380034247E007F0E7D007B017A8479D912387D
:10454800BE908000E04402F002460A90A369E0FEB3
:10455800A3E02408FFE43EFE90A367E0FCA3E0FD8F
:10456800D3EF9DEE9C401190A367E0FEA3E0FFA36C
:10457800EEF0A3EFF002460A90A36412369890A3D7
:1045880069E0FEA3E029F9EA3EFA7D067C00127193
:104598007890A36BEEF0A3EFF090A3641236989096
:1045A800A369E0FEA3E029F9EA3EFA900006123377
:1045B80048FD90A36BE0FEA3E0EE6D7001E470424D
:1045C80090A36412369890A369E0FEA3E029F9EA63
:1045D8003EFA900007123348FF90A36BE0A3E0B5C2
:1045E8000720E490A36975F0081234247E007F0E3A
:1045F8007D007B017A8479D91238BE908000E0442E
:1046080002F090A369E475F00112342490A367E0E6
:10461800FEA3E024FBFFEE34FFFEA3E0FCA3E0C30F
:104628009FEC9E50030243002290A3641236B89078
:10463800A364123698123450FF90A367E5F0F0A3F4
:10464800EFF090A367E0FEA3E0C39413EE9401405B
:104658000302495190A367E0A3E09084E775F00E48
:1046680012368CEE75F00EA42583F583E0645A604B
:104678000302494490A367E0A3E09084EA75F00E32
:1046880012368CEE75F00EA42583F583E0700302D4
:10469800494490A367E0A3E09084EC75F00E1236CD
:1046A8008CEE75F00EA42583F583E0700302495162
:1046B80090A367E0A3E09084EC75F00E12368CEEC0
:1046C80075F00EA42583F583E06401703490A36728
:1046D800E0A3E09084ED75F00E12368CEE75F00EC6
:1046E800A42583F583E0FEA3E0FF90A95BE0FCA38B
:1046F800E06F7002EC6E60030249440249510249BE
:104708004490A367E0FEA3E09084EC75F00E1236A7
:104718008CEE75F00EA42583F583E0640260030235
:10472800481090A367E0A3E09084ED75F00E123670
:104738008CEE75F00EA42583F583E0FEA3E0FF7BE5
:10474800017AA3796990A56AE4F0A37402F0124C87
:104758002990A369E0A3E0645A600302494490A346
:1047680067E0FEA3E0C39412EE9401506190A36742
:10477800E0A3E09084FA75F00E12368CEE75F00E18
:10478800A42583F583E06402704490A367E0A3E066
:104798009084FB75F00E12368CEE75F00EA425830E
:1047A800F583E0FEA3E0FF90A367E0FCA3E090841C
:1047B800ED75F00E12368CEC75F00EA42583F5839A
:1047C800E0FCA3E06F7002EC6E7003024951E490C4
:1047D800A369F0A3F090A367E0FEA3E09084ED75D1
:1047E800F00E12368CEE75F00EA42583F583E0FEEC
:1047F800A3E0FF7B017AA3796990A56AE4F0A3742A
:1048080002F0124E9602495190A367E0FEA3E09091
:1048180084EC75F00E12368CEE75F00EA42583F537
:1048280083E06403600302494490A367E0A3E09037
:1048380084F375F00E12368CEE75F00EA42583F510
:1048480083E0FEA3E0FF90A95BE0FCA3E0FDEF6D31
:104858007002EE6C600302494490A367E0FEA3E097
:104868009084ED75F00E12368CEE75F00EA425834B
:10487800F583E0FEA3E0FF7B017AA3796990A56A3E
:10488800E4F0A37402F0124C2990A369E0A3E06459
:104898005A600302494490A367E0FEA3E0C3941260
:1048A800EE9401505E90A367E0A3E09084FA75F05F
:1048B8000E12368CEE75F00EA42583F583E06403A2
:1048C800704190A367E0A3E09084FB75F00E123668
:1048D8008CEE75F00EA42583F583E0FEA3E0FF902F
:1048E800A367E0FCA3E09084ED75F00E12368CEC23
:1048F80075F00EA42583F583E0FCA3E06F7002EC4D
:104908006E6046E490A369F0A3F090A367E0FEA36D
:10491800E09084ED75F00E12368CEE75F00EA4253D
:1049280083F583E0FEA3E0FF7B017AA3796990A574
:104938006AE4F0A37402F0124E96800D90A367E427
:1049480075F00112342402464A90A367E0FEA3E002
:10495800FF90A364123698EE8FF01234B32290A31E
:104968006E1236B890A371ECF0A3EDF07BFF7A7E5F
:1049780079B078737CA37D017E007F18123309908B
:10498800A36E12369890000A12347B246CFFE5F06F
:10499800340790A39FF0A3EFF090A39FE0FEA3E05D
:1049A800FF7C007D641233EEED4C601390A39FE012
:1049B800FEA3E0FF7C007D041233EEED4C60139003
:1049C800A39FE0FEA3E0FF7C017D901233EEED4C47
:1049D80070067E007F0180047E007F0090A39BEE1E
:1049E800F0A3EFF090A36E12369890000A12347B71
:1049F80024BAFFE5F034FFFE3395E0FDFC90A38B6D
:104A080012364F90A36E12369890000812347BC36A
:104A18009401E5F064809480504090A39BE0FEA34D
:104A2800E064014E703490A38B123637EF2402FFF6
:104A3800E43EFEE43DFDE43CFCE47B04FAF9F812B4
:104A4800784DEF24FFFFEE34FFFEED34FFFDEC342C
:104A5800FFFC90A39312364F802290A38B12363717
:104A6800EF2402FFE43EFEE43DFDE43CFCE47B046D
:104A7800FAF9F812784D90A39312364F90A38F123B
:104A8800365B00000000E490A39DF0A3F090A36EB5
:104A980012369890000812347BFF90A39DE0FCA387
:104AA800E0C39FE5F06480F8EC648098504890A3D8
:104AB8008F123637C006C00790A39DE0FEA3E025FD
:104AC800E0FFEE33FE74732FF58274A33EF583E0A6
:104AD800FEA3E0FFFBAA06EA3395E0F9F8D007D079
:104AE800061234D290A38F12364F90A39DE475F02E
:104AF80001123424809790A38F123637C006C0075E
:104B080090A36E12369890000612347B24FFFFE5BE
:104B1800F034FFFEAB07FA3395E0F9F8D007D0067A
:104B28001234D290A38F12364F90A38F123637C00B
:104B380004C005C006C007E47F6D7E01FDFC90A39C
:104B48008B1236431234DF90A3931236431234D2B9
:104B5800A804A905AA06AB07D007D006D005D0043B
:104B68001234D290A38F12364F90A36E12369890BB
:104B7800000412347BFF90A371E0FCA3E0FDC3EFB7
:104B88009DFFE5F09CFE3395E0FDFC90A39712365F
:104B98004FE47F107E0EFDFC90A39712364312342B
:104BA800DFC004C005C006C0077F807E517D017C40
:104BB8000090A38F1236431234DFA804A905AA0671
:104BC800AB07D007D006D005D0041234D2C004C039
:104BD80005C006C00790A36E1236989000021234E2
:104BE8007BFFAEF07C007D3C123387AB07AA06EA58
:104BF8003395E0F9F8D007D006D005D0041234D2A6
:104C0800C006C00790A36E123698123450FFAEF05B
:104C1800FBAA06EA3395E0F9F8D007D0061234D299
:104C28002290A565EEF0A3EFF0A31236B87B007AC8
:104C3800007900C003C002C00190A567123698D061
:104C480082D083D0E06B7008E965827003EA6583DF
:104C58007003024E9590A56AE0FEA3E04E70030231
:104C68004E9590A56AE0A3E0FFEEC313FEEF13FF95
:104C780090A565E0FCA3E02FFFEE3CFED3EF94FE89
:104C8800EE94FF4003024E95C2AF90A565E0A3E005
:104C9800540190A56CF090A565E0FEA3E0FFEEC37B
:104CA80013FEEF13FF90A565EEF0A3EFF090A56556
:104CB800E0FEA3E07810CEC313CE13D8F9F5F19037
:104CC800A565E0FEA3E0EEF5F290A565E0A3E0F5AA
:104CD800F3E4F5F875F401D2FF30FCFDD2FD90A5A0
:104CE8006CE06401707290A56AE0FEA3E064014E76
:104CF800700AC2FBC2FAD2F9C2F88008C2FBC2FA33
:104D0800D2F9D2F8D2FE20FEFD90A56AE0FEA3E01B
:104D180064014E701A90A56775F0011236A1E5FC82
:104D280012337590A56A74FFF5F012342480299027
:104D3800A567E475F0011236A1E5FC12337590A55C
:104D480067E475F0011236A1E5FD12337590A56A86
:104D580074FF75F0FE12342490A56AE0FEA3E04EBD
:104D68007003024E9090A56AE0A3E0C39404EE9409
:104D7800004003024E3990A56AE0A3E08EF0123697
:104D8800E74DAD00014DA300024D99000300004D11
:104D9800B5D2FBD2FAD2F9C2F88012D2FBD2FAC24B
:104DA800F9C2F88008D2FBC2FAC2F9C2F8D2FE20D2
:104DB800FEFD90A56AE0FEA3E08EF01236E74E26CF
:104DC80000014E0600024DD6000300004E9090A54B
:104DD80067E475F0011236A1E5FA12337590A567FC
:104DE800E475F0011236A1E5FB12337590A567E46E
:104DF80075F0011236A1E5FC123375024E9090A5AC
:104E080067E475F0011236A1E5FA12337590A567CB
:104E1800E475F0011236A1E5FB123375806A90A59E
:104E280067E475F0011236A1E5FA123375805980EE
:104E380057D2FBD2FAD2F9D2F8D2FE20FEFD90A5C5
:104E480067E475F0011236A1E5FA12337590A5678B
:104E5800E475F0011236A1E5FB12337590A567E4FD
:104E680075F0011236A1E5FC12337590A567E4755B
:104E7800F0011236A1E5FD12337590A56A74FF752D
:104E8800F0FC123424024D60E4F5F8D2AF2290A56C
:104E980065EEF0A3EFF0A31236B87B007A00790034
:104EA800C003C002C00190A567123698D082D08393
:104EB800D0E06B7008E965827003EA6583700302CD
:104EC800510190A56AE0FEA3E04E700302510190E3
:104ED800A56AE0A3E0FFEEC313FEEF13FF90A565FC
:104EE800E0FCA3E02FFFEE3CFED3EF94FEEE94FF30
:104EF8004003025101C2AF90A565E0A3E0540190C0
:104F0800A56CF090A565E0FEA3E0FFEEC313FEEFED
:104F180013FF90A565EEF0A3EFF090A565E0FEA362
:104F2800E07810CEC313CE13D8F9F5F190A565E05B
:104F3800FEA3E0EEF5F290A565E0A3E0F5F3E4F555
:104F4800F875F401D2FF30FCFDC2FD90A56CE06459
:104F580001707290A56AE0FEA3E064014E700AC277
:104F6800FBC2FAD2F9C2F88008C2FBC2FAD2F9D25F
:104F7800F890A56AE0FEA3E064014E701A90A56758
:104F880075F0011236A112332FF5FC90A56A74FF53
:104F9800F5F0123424802990A567E475F0011236E3
:104FA800A112332FF5FC90A567E475F0011236A124
:104FB80012332FF5FD90A56A74FF75F0FE123424A4
:104FC800D2FE20FEFD90A56AE0FEA3E04E7003022B
:104FD80050FC90A56AE0A3E0C39404EE940040035B
:104FE8000250A590A56AE0A3E08EF01236E7501AA9
:104FF8000001501000025006000300005022D2FBAE
:10500800D2FAD2F9C2F88012D2FBD2FAC2F9C2F8A7
:105018008008D2FBC2FAC2F9C2F890A56AE0FEA3E2
:10502800E08EF01236E7508D0001506D0002503EC0
:1050380000030000509C90A567E475F0011236A1AA
:1050480012332FF5FA90A567E475F0011236A11214
:10505800332FF5FB90A567E475F0011236A11233E2
:105068002FF5FC802F90A567E475F0011236A11288
:10507800332FF5FA90A567E475F0011236A11233C3
:105088002FF5FB800F90A567E475F0011236A11289
:10509800332FF5FAD2FE30FE5B80FB8057D2FBD26D
:1050A800FAD2F9D2F890A567E475F0011236A11288
:1050B800332FF5FA90A567E475F0011236A1123383
:1050C8002FF5FB90A567E475F0011236A112332F76
:1050D800F5FC90A567E475F0011236A112332FF59F
:1050E800FDD2FE20FEFD90A56A74FF75F0FC123417
:1050F80024024FCDE4F5F8D2AF227BFF7A7B79BE4C
:10510800785F7CA37D017E027F0012330990A56839
:1051180012365B0000000090A56C7410F0A3E4F058
:10512800FD7C107F5A126FF290A55F7410F0A3E413
:10513800F090A55FE0FEA3E0C394FEEE94175069DB
:1051480090A55FE0A3E0FF7B017AA3795F90A56A51
:105158007402F0A3E4F0124C29E490A561F0A3F0E6
:1051680090A561E0FEA3E0C3EE9401502F90A561E5
:10517800E0A3E025E0FFEE33FE745F2FF58274A311
:105188003EF583E0FEA3E0645A7003EE64A560195F
:1051980090A561E475F00112342480C490A55F7471
:1051A8000175F000123424808890A561E0FEA3E028
:1051B800FF90A55FE0FCA3E02FFFEC3E90A563F015
:1051C800A3EFF090A563E0FEA3E0C394FEEE94176E
:1051D800400990A5637410F0A3E4F090A56374F0FF
:1051E80075F00012342490A563E0FEA3E0FF90A9B7
:1051F8005FEEF0A3EFF090A95FE0FEA3E02400FFCC
:10520800EE341090A35FF0A3EFF0A37401F0A37441
:10521800B2F0A37401F0A374B2F090A35FE0FEA310
:10522800E0FF7B017AA3796190A56AE4F0A3740496
:10523800F0124E9690A95FE0FEA3E02400FFEE3442
:105248001890A35FF0A3EFF0A37402F0A37437F0F3
:10525800A37402F0A37437F090A35FE0FEA3E0FF0D
:105268007B017AA3796190A56AE4F0A37404F01233
:105278004E967B017AA5796390A56AE4F0A374023F
:10528800F07F007E03124E967B017AA5796390A584
:105298006AE4F0A37402F0FF7E03124E967B017A53
:1052A800A5796390A56AE4F0A37402F07F087E50A4
:1052B800124E967B017AA5796390A56AE4F0A374EF
:1052C80002F07F097E50124E9690A35F7407F0A3F8
:1052D80074FEF07B017AA3795F90A56AE4F0A37469
:1052E80002F07F017E03124E967B017AA3795F90CC
:1052F800A56AE4F0A37402F004FFFE124E9690A390
:105308005FE4F0A37406F0A3E4F0A304F0A3E4F0D0
:10531800A3742EF0A37401F0A3744CF0A37401F0ED
:10532800A37471F0A37401F0A37477F0A37401F06F
:10533800A3748AF0A37402F0A3748AF0A37401F032
:10534800A37471F0A374FFF0A3E4F07B017AA3794E
:105358005F90A56AF0A37414F07F0A7E50124E96EF
:10536800227BFF7A7D79BE785F7CA37D017E007FFA
:10537800201233097B017AA3795F90A3811236B892
:1053880090A3841236B8E490A37FF0A3F090A37F93
:10539800E0FEA3E0C3EE9402400302543290A37FE0
:1053A800E0A3E07803C333CE33CED8F92400FFEE70
:1053B8003420FEE4FCFD90A56812364F90A56CE4FD
:1053C800F0A37408F07D007C307F5A126FF27B01E5
:1053D8007AA3795F90A56AE4F0A37410F07F007E49
:1053E80030124C2990A381123698123450645A70A6
:1053F80004E5F064A5602690A38412369812345010
:10540800B4A527E5F0B45A2290A384123698789E62
:105418007CA87D017E007F08123309800D90A37F50
:10542800E475F001123424025395E490A37FF0A3AD
:10543800F090A37FE0FEA3E0C3940AEE940040033B
:105448000255C47BFF7A7D79DE78877CA37D017E57
:10545800007F201233097B017AA8794678877CA3DC
:105468007D017E007F1A12330990A37FE0FEA3E03E
:10547800FF7C007D1B123387EF2464FFE43E90A37A
:105488008BF0A3EFF090A3907401F090A37FE0FE5F
:10549800A3E090A8C175F00612368CEE75F006A44C
:1054A8002583F583E0FEA3E0FF7B017AA37987904B
:1054B800A56AE4F0A37420F0124E967B017AA879CD
:1054C8006078877CA37D017E007F1A12330990A340
:1054D8007FE0FEA3E0FF7C007D1B123387EF24648E
:1054E800FFE43E90A38BF0A3EFF090A3907401F03B
:1054F80090A37FE0FEA3E090A8C375F00612368C57
:10550800EE75F006A42583F583E0FEA3E0FF7B019A
:105518007AA3798790A56AE4F0A37420F0124E96D6
:105528007B017AA879FD78877CA37D017E007F1AAC
:1055380012330990A37FE0FEA3E0FF7C007D1B12DD
:105548003387EF2464FFE43E90A38BF0A3EFF09041
:10555800A37FE0FEA3E0FF123387EF2464FFE43E5D
:1055680090A391F0A3EFF090A37FE0FEA3E0FF12D9
:105578003387EF247DFFE43E90A395F0A3EFF090EE
:10558800A37FE0FEA3E090A8C575F00612368CEE66
:1055980075F006A42583F583E0FEA3E0FF7B017A7E
:1055A800A3798790A56AE4F0A37420F0124E969030
:1055B800A37FE475F00112342402543922E490A345
:1055C8005FF0A3F0E51320E00302581D7B017AA3E6
:1055D800795F90A56AE4F0A37402F07F147E5012FC
:1055E8004C2990A35FE0FEA3E04E700302581D9083
:1055F800A35FE0A3E08EF01236E75786A000578B32
:10560800A0265790A0275790A028579DA40057A2DE
:10561800A40157A7A4A057A7A4A157A7A4A257A716
:10562800A4A357A7A4A457A7A4A557A7A4A657A758
:10563800A4A757A7A4A857A7A4A957A7A4AA57A738
:10564800A4AB57A7A4AC57A7A4AD57A7A4AE57A718
:10565800A4AF57A7A4B057A7A4B157A7A4B257A7F8
:10566800A4B357A7A4B457A7A4B557A7A4B657A7D8
:10567800A4B757A7A4B857A7A4B957A7A4BA57A7B8
:10568800A4BB57A7A4BC57A7A4BD57A7A4BE57A798
:10569800A4BF57A7A4C057A7A4C157A7A4C257A778
:1056A800A4C357A7A4C457A7A4C557A7A4C657A758
:1056B800A4C757A7A4C857A7A4C957A7A4CA57A738
:1056C800A4CB57A7A4CC57A7A4CD57A7A4CE57A718
:1056D800A4CF57A7A4D057A7A4D157A7A4D257A7F8
:1056E800A4D357A7A4D457A7A4D557A7A4D657A7D8
:1056F800A4D757A7A4D857A7A4D957A7A4DA57A7B8
:10570800A4DB57A7A4DC57A7A4DD57A7A4DE57A797
:10571800A4DF57A7A4E057A7A4E157A7A4E257A777
:10572800A4E357A7A4E457A7A4E557B4A4F057B433
:10573800A4F157B4A4F257B4A4F357C1A600580172
:10574800A60157C6AC0057CBAC0157D5C50057DAF0
:10575800C60057D0C70057DFC70157E4C90157E44F
:10576800C90657E4C90C57E4C90E57E4C91157F1E3
:10577800CF3C57F1CF6957FED6000000580112738D
:10578800A88076127AA3807190A35FE0FEA3E0FF61
:1057980012780680641272D4805F120016805A90C4
:1057A800A35FE0FEA3E0FF1274CA804D90A35FE000
:1057B800FEA3E0FF1275248040126E00803B127534
:1057C800D7803612794D80311276D7802C127983A2
:1057D8008027127A648022120022801D90A35FE045
:1057E800FEA3E0FF127729801090A35FE0FEA3E0FC
:1057F800FF1277748003127891E490A35FF0A3F00E
:105808007B017AA3795F90A56AF0A37402F07F14F4
:105818007E50124E9622E51330E10D90A95DE47595
:10582800F001123424126B8B90A95DE0FEA3E0C353
:1058380094B0EE94045003025A6CE490A95DF0A36E
:10584800F0A3E0FEA3E02400FFEE341090A35FF085
:10585800A3EFF07B017AA3796190A56AE4F0A374C1
:1058680002F07FA37EA0124C2990A361E475F0C8D2
:1058780012342490A35FE0FEA3E0FF7B017AA379B2
:105888006190A56AE4F0A37402F0124E9690A95FA5
:10589800E0FEA3E02400FFEE341890A35FF0A3EF2E
:1058A800F07B017AA3796190A56AE4F0A37402F011
:1058B8007FA47EA0124C2990A35FE0FEA3E0FF7BAB
:1058C800017AA3796190A56AE4F0A37402F0124EFC
:1058D8009690A95FE0FEA3E0FF90A365EEF0A3EF2A
:1058E800F090A95FE475F00112342490A95FE0FEFE
:1058F800A3E0C394FEEE94074007E490A95FF0A3E9
:10590800F07B017AA9795F90A56AE4F0A37402F0AC
:105918007F007E03124E967B017AA9795F90A56A73
:10592800E4F0A37402F0FF7E03124E9690A3637412
:1059380007F0A374FEF07B017AA3796390A56AE46B
:10594800F0A37402F07F087E50124E967B017AA372
:10595800796390A56AE4F0A37402F07F097E50127F
:105968004E9690A3637402F0A3748AF07B017AA325
:10597800796390A56AE4F0A37402F07F117E501257
:105988004E9690A95FE0A3E030E003025A6C90A322
:105998006574FFF5F012342490A365E0FEA3E024BB
:1059A80000FFEE3410FE7B017AA3795F90A56AE4CC
:1059B800F0A37404F0124C2990A36374A5F0A374A7
:1059C8005AF07B017AA3795F90A56AE4F0A3740684
:1059D800F07F007E50124E9690A365E0FEA3E0FF94
:1059E800E4FCFD90A56812364F90A56CE4F0A37412
:1059F80004F07D007C507FA5126FF290A365E0FE55
:105A0800A3E02400FFEE3418FE7B017AA3795F90AF
:105A1800A56AE4F0A37404F0124C2990A36374A55A
:105A2800F0A3745AF07B017AA3795F90A56AE4F039
:105A3800A37406F07F007E50124E9690A365E0FE98
:105A4800A3E02400FFEE3408FEE4FCFD90A56812F4
:105A5800364F90A56CE4F0A37404F07D007C507F71
:105A6800A5126FF222127AC07F641276847F101218
:105A78007684127B3C127AC07F6512768490A36785
:105A88007406F090A367E0D3940074809480401D5E
:105A980012762F90A367E0245FF582E434A3F583A0
:105AA800EFF0127ADB90A367E014F080D612762F1D
:105AB80090A35FEFF0127AF4127B3CE490A367F0B6
:105AC80090A367E0C3940374809480504BE0245FF4
:105AD800F582E434A3F583E0FFC4540F90A368F083
