:100000000242A1020006C2AFD2AF32023D4DC2AFE2
:10001000D2AF3202000E1249E51249D12212002E4F
:0A0020002232320245B412490322D5
:10002B0002005E75F901E4F5A8F5B8F59AF5A9F5A6
:10003B00B9F580F590F5A0F5B075B750F5BCF5BDE9
:07004B00F5BE2253BEF722AF
:0700530002002143BE082258
:06005B000244C8C2C632D7
:0300630002002276
:10006B0002453EC2AF12001D12498B120026120030
:07007B001643C902D2AF22B7
:10008300024342909280EBF0A3EAF0A3E9F0E490FC
:100093009288F0A3F090928674FFF5F012185645FB
:1000A300F0603C909283E0FBA3E0FAA3E0F912171F
:1000B30081FF909280E0FBA3E0FAA3E0F99092889D
:1000C300E475F00112185685F082F583EF121CB720
:1000D300EF60C2909284E475F00112184080B690EC
:0B00E3009280E0FBA3E0FAA3E0F9220A
:1000F800FFFF4457494E54354298D300004298D1E7
:1001080000004298CF00005A97E53FC90069006493
:10011800000086000A2D2D203A3A00000000000059
:10012800000000005A97FF3FCC01270064000086BA
:10013800000A2D2D2F3A3A000000000000000000B0
:10014800005A98883FD001E50064000001E500648A
:1001580002AD007D00100017181802000000603C76
:10016800984C400040A04140401040B041504020D1
:1001780040C04160403040D04170404040E0418044
:10018800405040F041904060410041A04070411013
:1001980041B04080412041C04090413041D0549806
:1001A8003841E041F84210422842404258427042E9
:1001B8008842A042B84898290000000000000000CA
:1001C80042983100004298360000429833000041BE
:1001D800983500498000B2E2CAD4BABAD7D6006EC0
:1001E80060800949443030BBD8B7E7B8DFCEC200D9
:1001F80000000000000000000000000000000000F7
:1002080000000049443031BBD8B7E7B5CDCEC200B5
:1002180000000000000000000000000000000000D6
:1002280000000049443032BBD8B7E7B8DFCAAA009B
:1002380000000000000000000000000000000000B6
:1002480000000049443033BBD8B7E7B8DFCAAA007A
:100258000000000000000000000000000000000096
:1002680000000049443034CBCDB7E7B8DFCEC20038
:100278000000000000000000000000000000000076
:1002880000000049443035CBCDB7E7B5CDCEC2002C
:100298000000000000000000000000000000000056
:1002A80000000049443036CBCDB7E7B8DFCAAA0012
:1002B8000000000000000000000000000000000036
:1002C80000000049443037CBCDB7E7B5CDCAAA0006
:1002D8000000000000000000000000000000000016
:1002E80000000049443038B1A3C1F4000000000008
:1002F80000000000000000000000000000000000F6
:1003080000000049443039C4DAB2BFCDA8D0C500D6
:1003180000000000000000000000000000000000D5
:10032800000000494431304E5443D2ECB3A30000DE
:1003380000000000000000000000000000000000B5
:1003480000000049443131B7E7BBFA31B9CAD5CF0B
:100358000000000000000000000000000000000095
:1003680000000049443132B7E7BBFA32B9CAD5CFE9
:100378000000000000000000000000000000000075
:1003880000000049443133B7E7BBFA33B9CAD5CFC7
:100398000000000000000000000000000000000055
:1003A80000000049443134B7E7BBFA34B9CAD5CFA5
:1003B8000000000000000000000000000000000035
:1003C80000000049443135B7E7BBFA35B9CAD5CF83
:1003D8000000000000000000000000000000000015
:1003E80000000049443136CDE2B7E7BBFAB9CAD5B7
:1003F800CF00000000000000000000000000000026
:1004080000000049443137B7E7BBFA31D4CBD0D02C
:10041800B3ACCAB1000000000000000000000000FA
:1004280000000049443138B7E7BBFA32D4CBD0D00A
:10043800B3ACCAB1000000000000000000000000DA
:1004480000000049443139B7E7BBFA33D4CBD0D0E8
:10045800B3ACCAB1000000000000000000000000BA
:1004680000000049443230B7E7BBFA34D4CBD0D0CF
:10047800B3ACCAB10000000000000000000000009A
:1004880000000049443231B7E7BBFA35D4CBD0D0AD
:10049800B3ACCAB10000000000000000000000007A
:1004A80000000049443232CDE2B7E7BBFAD4CBD0E2
:1004B800D0B3ACCAB100000000000000000000008A
:1004C80000000049443233B8DFD1B931B8E6BEAFD5
:1004D8000000000000000000000000000000000014
:1004E80000000049443234B8DFD1B931CBF8CBC071
:1004F80000000000000000000000000000000000F4
:1005080000000049443235B5CDD1B931B8E6BEAFA7
:1005180000000000000000000000000000000000D3
:1005280000000049443236B5CDD1B931CBF8CBC043
:1005380000000000000000000000000000000000B3
:1005480000000049443237C5C5C6F8CEC2B6C83126
:10055800B8E6BEAF00000000000000000000000088
:1005680000000049443238C5C5C6F8CEC2B6C83105
:10057800CBF8CBC000000000000000000000000025
:1005880000000049443239B6CCD6DCC6DA31B8E6C8
:10059800BEAF0000000000000000000000000000E6
:1005A80000000049443330D1B9BBFA31D4CBD0D0A4
:1005B800B3ACCAB100000000000000000000000059
:1005C80000000049443331B8DFD1B932B8E6BEAFD4
:1005D8000000000000000000000000000000000013
:1005E80000000049443332B8DFD1B932CBF8CBC070
:1005F80000000000000000000000000000000000F3
:1006080000000049443333B5CDD1B9D1B9C1A6B83A
:10061800E6BEAF000000000000000000000000007F
:1006280000000049443334B5CDD1B932CBF8CBC042
:1006380000000000000000000000000000000000B2
:1006480000000049443335C5C5C6F8CEC2B6C83225
:10065800B8E6BEAF00000000000000000000000087
:1006680000000049443336C5C5C6F8CEC2B6C83204
:10067800CBF8CBC000000000000000000000000024
:1006880000000049443337B6CCD6DCC6DA32B8E6C7
:10069800BEAF0000000000000000000000000000E5
:1006A80000000049443338D1B9BBFA32D4CBD0D09A
:1006B800B3ACCAB100000000000000000000000058
:1006C80000000049443339BCD3CAAAC6F7B5E7C10C
:1006D800F7B9B4F3000000000000000000000000BB
:1006E80000000049443430BCD3CAAAC6F7B8DFCBEF
:1006F800AECEBB00000000000000000000000000BB
:1007080000000049443431BCD3CAAAC6F7C8B1CBEB
:10071800AE00000000000000000000000000000023
:1007280000000049443432BCD3CAAAC6F7D4CBD09F
:10073800D0B3ACCAB1000000000000000000000007
:1007480000000049443433BCD3C8C8C6F7B8E6BE75
:10075800AF000000000000000000000000000000E2
:1007680000000049443434BCD3C8C8C6F731B3AC20
:10077800CAB10000000000000000000000000000F6
:1007880000000049443435BCD3C8C8C6F732B3ACFE
:10079800CAB10000000000000000000000000000D6
:1007A80000000049443436B6CFB5E7D6D8C6F400C1
:1007B8000000000000000000000000000000000031
:1007C80000000049443437B5E7D4B4CFE0D0F2B4E0
:1007D800EDCEF30000000000000000000000000063
:1007E80000000049443438B5E7D4B4C6B5C2CAC617
:1007F800ABB8DF00000000000000000000000000AF
:1008080000000049443439B5E7D4B4C6B5C2CAC6F5
:10081800ABB5CD00000000000000000000000000A3
:100828000000004944353041CFE0B9D1B90000009B
:1008380000000000000000000000000000000000B0
:100848000000004944353142CFE0B9D1B900000079
:100858000000000000000000000000000000000090
:100868000000004944353243CFE0B9D1B900000057
:100878000000000000000000000000000000000070
:100888000000004944353341CFE0C7B7D1B9000073
:100898000000000000000000000000000000000050
:1008A8000000004944353442CFE0C7B7D1B9000051
:1008B8000000000000000000000000000000000030
:1008C8000000004944353543CFE0C7B7D1B900002F
:1008D8000000000000000000000000000000000010
:1008E8000000004944353641CFE0C8B1CFE00000F0
:1008F80000000000000000000000000000000000F0
:100908000000004944353742CFE0C8B1CFE00000CD
:1009180000000000000000000000000000000000CF
:100928000000004944353843CFE0C8B1CFE00000AB
:1009380000000000000000000000000000000000AF
:1009480000000049443539C6F8C1F7B6AACAA7B8A5
:10095800E6BEAF000000000000000000000000003C
:1009680000000049443630B9C2CBCDF8D4CBD0D042
:10097800B3ACCAB100000000000000000000000095
:1009880000000049443631B9C2CBCDF8B6C2B8E64A
:10099800BEAF0000000000000000000000000000E2
:1009A80000000049443632D4B6B3CCB9D8BBFAB843
:1009B800E6BEAF00000000000000000000000000DC
:1009C80000000049443633D2E7CBAEB8E6BEAF00EC
:1009D800000000000000000000000000000000000F
:1009E80000000049443634C8BABFD8CDA8D0C5D213
:1009F800ECB3A300000000000000000000000000AD
:100A080000000049443635B1E4C6B5C6F7B9CAD5C1
:100A1800CF000000000000000000000000000000FF
:100A280000000049443636D7A2CBAEB5E7B5BCC204
:100A3800CAB8DF000000000000000000000000004D
:100A480000000049443637D7A2CBAEB5E7B5BCC2E3
:100A5800CAB5CD0000000000000000000000000042
:100A680000000049443638D1CCCEEDB8E6BEAF0020
:100A7800000000000000000000000000000000006E
:100A880000000049443639D3C3BBA7D7D4B6A8D28F
:100A9800E5B8E6BEAF00000000000000000000005E
:100AA80000000049443730B5E7D4B4D2ECB3A30012
:100AB800000000000000000000000000000000002E
:100AC80000000049443731C8EBCBAEB8DFCEC200D6
:100AD800000000000000000000000000000000000E
:100AE80000000049443732CBAEB7A7B9CAD5CF000A
:100AF80000000000000000000000000000000000EE
:100B080000000049443733C5CCB9DCB6CFC1F7B8CB
:100B1800E6BEAF000000000000000000000000007A
:100B280000000049443734B7E7BBFA36B9CAD5CF15
:100B380000000000000000000000000000000000AD
:100B480000000049443735B7E7BBFA37B9CAD5CFF3
:100B5800000000000000000000000000000000008D
:100B680000000049443736B7E7BBFA38B9CAD5CFD1
:100B7800000000000000000000000000000000006D
:100B880000000049443737B7E7BBFA36B3ACCAB1FF
:100B9800000000000000000000000000000000004D
:100BA80000000049443738B7E7BBFA37B3ACCAB1DD
:100BB800000000000000000000000000000000002D
:100BC80000000049443739B7E7BBFA38B3ACCAB1BB
:100BD800000000000000000000000000000000000D
:100BE80000000049443830C5C5CBAEB8DFCBAECE27
:100BF800BB00000000000000000000000000000032
:100C080000000049443831BCD3CAAAC6F7D2ECB3B5
:100C1800A300000000000000000000000000000029
:100C280000000049443832B7E7D1B9B9B5CD000062
:100C380000000000000000000000000000000000AC
:100C480000000049443833BAECCDE2BCD3CAAAB993
:100C5800C8C80000000000000000000000000000FC
:100C680000000049443834D1B9BBFA31B8DFD1B9F2
:100C7800000000000000000000000000000000006C
:100C880000000049443835B7E7BBFAB5E7C1F7B902
:100C9800B4F30000000000000000000000000000A5
:100CA80000000049443836B8A8C2B7C8EBCBAEB884
:100CB800DFCEC200000000000000000000000000BD
:100CC80000000049443837454556B8E6BEAF000035
:100CD800000000000000000000000000000000000C
:100CE80000000049443838BDD3CBAEC5CCD2E7CBE1
:100CF800AE0000000000000000000000000000003E
:100D080000000049443839C5C5C6F8B8DFCEC2006E
:100D180000000000000000000000000000000000CB
:100D280000000049443930C9E8B1B8CAB9D3C3B3DF
:100D3800ACCAB10000000000000000000000000084
:100D480000000049443931B1A3C1F400000000009B
:100D5800000000000000000000000000000000008B
:100D680000000049443932B1A3C1F400000000007A
:100D7800000000000000000000000000000000006B
:100D880000000049443933B1A3C1F4000000000059
:100D9800000000000000000000000000000000004B
:100DA80000000049443934B1A3C1F4000000000038
:100DB800000000000000000000000000000000002B
:100DC80000000049443935B1A3C1F4000000000017
:100DD800000000000000000000000000000000000B
:100DE80000000049443936B1A3C1F40000000000F6
:100DF80000000000000000000000000000000000EB
:100E080000000049443937BBD8B7E7CEC2CAAAB6F2
:100E1800C8B4ABB8D0C6F70000000000000000005E
:100E280000000049443938CBCDB7E7CEC2CAAAB6CC
:100E3800C8B4ABB8D0C6F70000000000000000003E
:100E480000000049443939BCD3CAAAB0E5D2ECB392
:100E5800A3000000000000000000000000000000E7
:100E68000000004944313030C6C1C4BBD2D1CBF8F0
:100E7800B6A800000000000000000000000000000C
:100E88000000004944313031D2BBCCECBDABCBF8CB
:100E9800B6A80000000000000000000000000000EC
:100EA8000000004944313032C8CCECBDABCBF8B6B9
:100EB800A800000000000000000000000000000082
:100EC8000000004944313033C6DFCCECBDABCBF871
:100ED800B6A80000000000000000000000000000AC
:100EE8000000004944313034CAAECEE5CCECBDAB8D
:100EF800CBF8B6A8000000000000000000000000C9
:100F08000000004944313035C8CAAECCECBDABCB8B
:100F1800F8B6A80000000000000000000000000073
:100F28000000004944313036B5E7D4B432CFE0D0C0
:100F3800F2B4ED0000000000000000000000000016
:100F48000000004944313037B5E7D4B432C6B5C2E1
:100F5800CAB8DF0000000000000000000000000028
:100F68000000004944313038B5E7D4B432C6B5C2C0
:100F7800CAB5CD000000000000000000000000001D
:100F88000000004944313039B5E7D4B43241CFE0EC
:100F9800B9D1B90000000000000000000000000006
:100FA8000000004944313130B5E7D4B43242CFE0D3
:100FB800B9D1B900000000000000000000000000E6
:100FC8000000004944313131B5E7D4B43243CFE0B1
:100FD800B9D1B900000000000000000000000000C6
:100FE8000000004944313132B5E7D4B43241CFE092
:100FF800C7B7D1B9000000000000000000000000E1
:101008000000004944313133B5E7D4B43242CFE06F
:10101800C7B7D1B9000000000000000000000000C0
:101028000000004944313134B5E7D4B43243CFE04D
:10103800C7B7D1B9000000000000000000000000A0
:101048000000004196DD004196DE004296DF000078
:101058004296E100004296E300004798A300000092
:10106800000000004898B40000000000000000489C
:1010780098AA00000000000000004298B200004159
:1010880098BC004198A2004298BF00004298C10055
:10109800004298BD00004498CB000000004298C36D
:1010A80000004498C50000000002080000040B007E
:1010B8000000004298C90000010A006100945D0028
:1010C800C1814001C0804101C0804100C18140010F
:1010D800C0804100C1814000C1814001C080410100
:1010E800C0804100C1814000C1814001C0804100F1
:1010F800C1814001C0804101C0804100C1814001DF
:10110800C0804100C1814000C1814001C0804100D0
:10111800C1814001C0804101C0804100C1814000BF
:10112800C1814001C0804101C0804100C1814001AE
:10113800C0804100C1814000C1814001C08041019F
:10114800C0804100C1814000C1814001C080410090
:10115800C1814001C0804101C0804100C18140007F
:10116800C1814001C0804101C0804100C18140016E
:10117800C0804100C1814000C1814001C080410060
:10118800C1814001C0804101C0804100C18140014E
:10119800C0804100C1814000C1814001C08041013F
:1011A800C0804100C1814000C1814001C080410030
:1011B800C1814001C0804101C0804100C1814061BE
:1011C80000955D00C0C101C30302C2C60607C7057A
:1011D800C5C404CC0C0DCD0FCFCE0E0ACACB0BC99B
:1011E8000908C8D81819D91BDBDA1A1EDEDF1FDD7B
:1011F8001D1CDC14D4D515D71716D6D21213D3114B
:10120800D1D010F03031F133F3F23236F6F737F54A
:101218003534F43CFCFD3DFF3F3EFEFA3A3BFB39DA
:10122800F9F83828E8E929EB2B2AEAEE2E2FEF2DDA
:10123800EDEC2CE42425E527E7E62622E2E323E18A
:101248002120E0A06061A163A3A26266A6A767A5AA
:101258006564A46CACAD6DAF6F6EAEAA6A6BAB691A
:10126800A9A86878B8B979BB7B7ABABE7E7FBF7DFA
:10127800BDBC7CB47475B577B7B67672B2B373B1CA
:101288007170B0509091519353529296565797550A
:101298009594549C5C5D9D5F9F9E5E5A9A9B5B995A
:1012A800595898884849894B8B8A4A4E8E8F4F8D5A
:1012B8004D4C8C448485458747468682424383410A
:1012C80081804041920300418F70004492440000A5
:1012D8000000418F6B00448F6C0000000062848F17
:1012E8007F00010304C801000E5000030000FF5AEC
:1012F800010302C801000AAA00032600FF5A0103DD
:1013080008C801000AAA02034100FF5A010301C8E4
:1013180001000AAA0A036F00FF5A010301C801006D
:101328000AAA0B037700FF5A010307C803B300B3E7
:1013380020011A00135A010601C803B380B3200123
:101348001A00135A010601C803B382B322011C0014
:10135800135A010601C803B383B323011D00135AAE
:10136800010601C803B384B324011E00135A010601
:1013780001C803B385B325011F00135A010601C82C
:1013880003B386B326012000135A01030BC803B424
:1013980000B420015800145A010601C803B480B4EF
:1013A80020015800145A010601C803B481B4210170
:1013B8005900145A010601C803B483B423015B0021
:1013C800145A010601C803B484B424015C00145AF9
:1013D800010601C803B485B425015D00145A01064D
:1013E80001C803B486B426015E00145A010601C878
:1013F80003B487B427015F00145A010601C803B477
:1014080088B428016000145A010601C803B48AB4DC
:101418002A016200145A010306C803B700B7200165
:101428003B00175A010305C803B700B7260143005C
:10143800175A010601C803B780B720013B00175AA5
:10144800010601C803B784B724013F00175A0106F3
:1014580001C803B785B725014000175A010601C81E
:1014680003B786B726014300175A010601C803B718
:1014780087B727014400175A010601C803B788B780
:1014880028014500175A010601C803B789B7290181
:101498004600175A010601C803B78AB72A01470050
:1014A800175A010301C803B800B820016A00185A86
:1014B800010303C803B800B821016D00185A0103DD
:1014C80001C803B800B824017200185A010301C802
:1014D80003B800B825017400185A010301C803B8FD
:1014E80000B826017B00185A010301C803B800B8E8
:1014F80027022A00185A010601C803B880B820013B
:101508006A00185A010601C803B881B821016D00A4
:10151800185A010601C803B882B822016E00185A89
:10152800010601C803B883B823016F00185A0106E1
:1015380001C803B884B824017200185A010601C80A
:1015480003B885B825017400185A010601C803B804
:1015580086B826017B00185A010601C803B887B867
:1015680027022A00184E8F710000000000000000BA
:10157800000000000000418E6A0061008E6B5A1363
:10158800B320B350B3805A13B322B352B3825A1361
:10159800B323B353B3835A13B324B354B3845A1342
:1015A800B325B355B3855A13B326B356B3865A1425
:1015B800B420B450B4805A14B421B451B4815A142C
:1015C800B423B453B4835A14B424B454B4845A140A
:1015D800B425B455B4855A14B426B456B4865A14EE
:1015E800B427B457B4875A14B428B458B4885A14D2
:1015F800B42AB45AB48A5A17B720B750B7805A17C2
:10160800B724B754B7845A17B725B755B7855A17AB
:10161800B726B756B7865A17B727B757B7875A178F
:10162800B728B758B7885A17B729B759B7895A1773
:10163800B72AB75AB78A5A18B820B850B8805A1873
:10164800B821B851B8815A18B822B852B8825A1875
:10165800B823B853B8835A18B824B854B8845A1859
:10166800B825B855B8855A18B826B856B8865A183D
:10167800B827B857B8870017B72AB75AB78A418E1C
:10168800690000E709F608DFFA8046E709F208DF93
:10169800FA803E88828C83E709F0A3DFFA8032E380
:1016A80009F608DFFA8078E309F208DFFA80708823
:1016B800828C83E309F0A3DFFA806489828A83E05D
:1016C800A3F608DFFA805889828A83E0A3F208DF4C
:1016D800FA804C80D280FA80C680D4806980F280FB
:1016E80033801080A680EA809A80A880DA80E28021
:1016F800CA803389828A83ECFAE493A3C8C582C876
:10170800CCC583CCF0A3C8C582C8CCC583CCDFE9DF
:10171800DEE7800D89828A83E493A3F608DFF9EC7B
:10172800FAA9F0EDFB2289828A83ECFAE0A3C8C506
:1017380082C8CCC583CCF0A3C8C582C8CCC583CC2D
:10174800DFEADEE880DB89828A83E493A3F208DF9C
:10175800F980CC88F0EF60010E4E60C388F0ED246C
:1017680002B4040050B9F582EB2402B4040050AF6F
:1017780023234582239016DB73BB010689828A8363
:10178800E0225002E722BBFE02E32289828A83E438
:101798009322BB010CE58229F582E5833AF583E0C3
:1017A800225006E92582F8E622BBFE06E92582F8E2
:1017B800E222E58229F582E5833AF583E49322BBA8
:1017C800010689828A83F0225002F722BBFE01F3C8
:1017D80022EF8DF0A4A8F0CF8CF0A428CE8DF0A431
:1017E8002EFE22BC000BBE0029EF8DF084FFADF069
:1017F80022E4CCF875F008EF2FFFEE33FEEC33FC53
:10180800EE9DEC984005FCEE9DFE0FD5F0E9E4CE88
:10181800FD22EDF8F5F0EE8420D21CFEADF075F057
:1018280008EF2FFFED33FD4007985006D5F0F22260
:10183800C398FD0FD5F0EA22C5F0F8A3E028F0C55B
:10184800F0F8E582158270021583E038F022A3F8DB
:10185800E0C5F025F0F0E582158270021583E0C836
:1018680038F0E822BB010A89828A83E0F5F0A3E018
:1018780022500687F009E71922BBFE07E3F5F009B5
:10188800E3192289828A83E493F5F074019322BBD9
:101898000110E58229F582E5833AF583E0F5F0A3A6
:1018A800E0225009E92582F886F008E622BBFE0A04
:1018B800E92582F8E2F5F008E222E5832AF583E9D2
:1018C80093F5F0A3E99322BB010A89828A83F0E5A4
:1018D800F0A3F0225006F709A7F01922BBFE06F381
:1018E800E5F009F31922EF2BFFEE3AFEED39FDEC96
:1018F80038FC2275F008758200EF2FFFEE33FECD1D
:1019080033CDCC33CCC58233C5829BED9AEC99E5B7
:101918008298400CF582EE9BFEED9AFDEC99FC0F47
:10192800D5F0D6E4CEFBE4CDFAE4CCF9A88222B80F
:1019380000C1B90059BA002DEC8BF084CFCECDFC94
:10194800E5F0CBF97818EF2FFFEE33FEED33FDEC21
:1019580033FCEB33FB10D703994004EB99FB0FD80A
:10196800E5E4F9FA227818EF2FFFEE33FEED33FDA8
:10197800EC33FCC933C910D7059BE99A4007EC9BA7
:10198800FCE99AF90FD8E0E4C9FAE4CCFB2275F037
:1019980010EF2FFFEE33FEED33FDCC33CCC833C848
:1019A80010D7079BEC9AE899400AED9BFDEC9AFC4E
:1019B800E899F80FD5F0DAE4CDFBE4CCFAE4C8F9FD
:1019C80022EB9FF5F0EA9E42F0E99D42F0EC64803C
:1019D800C864809845F022EB9FF5F0EA9E42F0E952
:1019E8009D42F0E89C45F022E86010ECA2E713FC69
:1019F800ED13FDEE13FEEF13FFD8F022E0FCA3E099
:101A0800FDA3E0FEA3E0FF22E0F8A3E0F9A3E0FADB
:101A1800A3E0FB22ECF0A3EDF0A3EEF0A3EFF0229D
:101A2800A8828583F0D083D082121A3F121A3F12FF
:101A38001A3F121A3FE473E493A3C583C5F0C58324
:101A4800C8C582C8F0A3C583C5F0C583C8C582C808
:101A580022A42582F582E5F03583F58322E0FBA3F5
:101A6800E0FAA3E0F922F8E0FBA3A3E0F925F0F0FF
:101A7800E582158270021583E0FA38F022EBF0A3B4
:101A8800EAF0A3E9F022D083D082F8E493701274CC
:101A98000193700DA3A393F8740193F5828883E4EE
:101AA800737402936860EFA3A3A380DFD083D0820E
:101AB800F8E4937012740193700DA3A393F8740162
:101AC80093F5828883E473740293B5F006740393E4
:101AD8006860E9A3A3A3A380D8E3F5F009E208B5F9
:101AE800F06BDFF58067E3F5F009E608B5F05EDF37
:101AF800F5805A87F009E608B5F052DFF6804E8780
:101B0800F009E208B5F046DFF6804288828C8387C8
:101B1800F009E0A3B5F036DFF6803288828C83873F
:101B2800F009E493A3B5F025DFF5802188828C8342
:101B3800E3F5F009E0A3B5F014DFF5801088828C96
:101B480083E3F5F009E493A3B5F002DFF4021C1077
:101B5800808780E9809080D4803E8015806E807E6A
:101B6800809D80B7808D80A380518074803C021C4A
:101B78001C89828A83ECFAE493F5F0A3C8C582C86D
:101B8800CCC583CCE493A3C8C582C8CCC583CCB5E7
:101B9800F076DFE3DEE1807089828A83E493F5F0F2
:101BA800A3E208B5F062DFF4805E89828A83E0F5FB
:101BB800F0A3E608B5F051DFF5804D89828A83E00D
:101BC800F5F0A3E208B5F040DFF5803C89828A830E
:101BD800E493F5F0A3E608B5F02EDFF4802A80023E
:101BE800805789828A83ECFAE493F5F0A3C8C5820A
:101BF800C8CCC583CCE0A3C8C582C8CCC583CCB546
:101C0800F006DFE4DEE280007FFFB5F0020F22403D
:101C1800027F012289828A83ECFAE0F5F0A3C8C525
:101C280082C8CCC583CCE0A3C8C582C8CCC583CC48
:101C3800B5F0D5DFE5DEE380CF89828A83ECFAE070
:101C4800F5F0A3C8C582C8CCC583CCE493A3C8C5A6
:101C580082C8CCC583CCB5F0AFDFE4DEE280A988CA
:101C6800F0EF60010E4E60ABED2402B40400509812
:101C7800F582EB2402B40400508E2323458223907E
:101C88001B5873EF4E6012EF60010EEDBB010B891C
:101C9800828A83F0A3DFFCDEFA2289F05007F70975
:101CA800DFFCA9F022BBFEFCF309DFFCA9F022F857
:101CB800BB010DE58229F582E5833AF583E8F02238
:101CC8005006E92582C8F622BBFE05E92582C8F23E
:101CD80022AF0AEFC3135401640160030222DC90AF
:101CE80098D3E0FEA3E0640E4E600302208E909825
:101CF800D3E0A3E0FF909831E0FCA3E06F7002EC22
:101D08006E601EE4909836F0A3F07B017A987936DD
:101D1800909453F0A37402F07FE07E6E1228048042
:101D2800167B017A987936909453E4F0A37402F004
:101D38007FE07E6E1225977B017A927948909453C2
:101D4800E4F0A37410F07F007E50122597E490927F
:101D580056F0A3E05407F07B017A98791978487C0B
:101D6800927D017E007F10121C67EF702F909833D0
:101D7800E0FEA3E0FF909836E0FCA3E0B5071DEC79
:101D8800B506199098D3E0FEA3E0FF909831E0FCE7
:101D9800A3E06F7002EC6E70030222CC7B017A9292
:101DA800794878197C987D017E007F1012175BE4D2
:101DB800909835F090927BF090927BE0C3940874F1
:101DC8008094804003022036E490927AF090927AD0
:101DD800E0C3941074809480400302202DA3E0C4D3
:101DE80054F0FF90927AE02F90927FF0E075F0180F
:101DF800A42400FFE5F03435FE7B017A92794890FF
:101E08009453E4F0A37430F01225977B017A927909
:101E18004890927C121A8590927AE0FF7E007401B5
:101E2800A807088005C333CE33CED8F9FF90927B3C
:101E3800E025E02419F582E43498F583E0FCA3E07A
:101E4800FDEE5CFEEF5D4E7003021F8490927C12E3
:101E58001A6512186C645A7004E5F064A5700302E0
:101E68001F2190927C121A6574A575F05A1218CF2A
:101E78007B017A92795C909453E4F0A37408F07F24
:101E8800107E001225977B017A92795C784A7C92C1
:101E98007D017E007F0312175B7B017A927960785F
:101EA8004D7C927D017E007F0312175B7E007F08C8
:101EB8007D007B017A927950121C8B90927FE0FF13
:101EC800909256E4F0A3EFF07B017A927958C00221
:101ED800C00190927F75F020A42409F9748035F030
:101EE800FA909283121A85909286E4F0A37420F0F7
:101EF800D001D00212008690927FE075F018A424D9
:101F080000FFE5F03435FE7B017A927948909453CE
:101F1800E4F0A37430F0122804909836E0FEA3E0B1
:101F2800FF7C007D0A1217D9909835E0C39FEC9E7C
:101F38004041A3E0FEA3E0FF1217D9EF240AFFE413
:101F48003EFE909835E0C39FEC9E502790927FE02C
:101F580075F018A42400FDE5F03435FC909836E0BF
:101F6800A3E075F00AA4FF909835E0C39FFF7B0EAD
:101F78001238C9909835E004F002202490927C121F
:101F88001A6512186C645A7004E5F064A5600302BF
:101F980020247B017A92795C909453F0A37408F022
:101FA8007F107E001225977B017A92795C78507CAD
:101FB800927D017E007F0312175B7B017A92796024
:101FC80078537C927D017E007F0312175B90927F8D
:101FD800E0FF909256E4F0A3EFF07B017A92794803
:101FE800909453E4F0A37410F07F007E301228041C
:101FF800123F4AE4909248F0A3F090927FE075F087
:1020080018A42400FFE5F03435FE7B017A92794864
:10201800909453E4F0A37402F012280490927AE0AA
:1020280004F0021DD590927BE004F0021DC0909848
:1020380035E090927AF0909836E0FEA3E0FF7C00BD
:102048007D0A1217D9EF240AFFE43EFE90927AE047
:10205800C39FEC9E501D909836E0A3E075F00AA44B
:10206800FF90927AE0C39FFF12378A90927AE00439
:10207800F080C3909836E0FEA3E0FF909833EEF02E
:10208800A3EFF00222CC9098D3E0FEA3E0640F4EB9
:1020980060030222CC9098D3E0A3E0FF909831E04F
:1020A800FCA3E06F7002EC6E601EE4909836F0A31B
:1020B800F07B017A987936909453F0A37402F07FFC
:1020C800E07E6E12280480347B017A9879369094E9
:1020D80053E4F0A37402F07FE07E6E122597909887
:1020E80033E0FEA3E0FF909836E0FCA3E06F7002B7
:1020F800EC6E70030222CC80030222CC909836E06A
:10210800FEA3E0FF909833EEF0A3EFF0E4A3F09085
:102118009835E0C3940A7480948040030222B2A3E5
:10212800E0FEA3E0FF7C007D0A1217D9909835E005
:102138002FFFEC3EFE90982FE0FCA3E0FDC3EF9D3F
:10214800EE9C40030222B2909836E0FEA3E0FF7CAA
:10215800007D0A1217D9909835E02FFFEC3EFE90CB
:10216800982BE0FCA3E0D39FEC9E4032909836E099
:10217800FEA3E0FF7C001217D9909835E02FFFEC02
:102188003EFEEF2401FFE43EFE90982BE0FCA3E026
:10219800C39FFFEC9E90927CF0A3EFF0803A90985A
:1021A80036E0FEA3E0FF7C007D0A1217D99098352F
:1021B800E02FFFEC3EFEEF2401FFE43EFE90982B5B
:1021C800E0FCA3E02400FDEC3402FCC3ED9FFFEC2F
:1021D8009E90927CF0A3EFF090927CE0FEA3E078D2
:1021E80003C333CE33CED8F92400FFEE3420FEE407
:1021F800FCFD909451121A1C909455E4F0A37408B5
:10220800F07D007C307F5A1243C87B017A9279486E
:10221800909453E4F0A37410F07F007E3012259759
:102228007B017A927958C003C002C001909256E0AF
:10223800FEA3E07805C333CE33CED8F92409F97468
:10224800803EFA7B01909283121A85909286E4F080
:10225800A37420F0D001D002D003120086909835E4
:10226800E025E02438F582E43498F583E0FEA3E025
:10227800FF7B017A927948909453E4F0A37430F08C
:10228800122804909835E025E02438F582E4349843
:10229800F583E0FCA3E0FD909835E0FF7B0F123852
:1022A800C9909835E004F0022117909835E0C3945E
:1022B8000A74809480500DE0FF12378A909835E0B8
:1022C80004F080E69098D3E0FEA3E0FF909831EE0A
:1022D800F0A3EFF02290924D121A85909250ECF0F4
:1022E800A3EDF0E4A3F0A3F0909250E0FEA3E0FF8A
:1022F800A3E0FCA3E0C39FEC9E500C909252E475BF
:10230800F00112184080E1909250E0FEA3E0C394DF
:1023180005EE94005003022596E4A3F0A3F09092F2
:102328004D121A65909252E0FEA3E0F5828E831258
:10233800179A6401600302257090924D121A6590F5
:102348009252E0A3E029F9EA3EFA90000112179AA6
:10235800121A8E23650324B9060000257090924D49
:10236800121A65909252E0FEA3E029F9EA3EFA902B
:10237800000212179AFF909256E4F0A3EFF09092A1
:1023880052E0A3E0FF909256E0FCA3E02FFFEC3E62
:10239800FEEF2405FFE43EFE909250E0FCA3E0FD32
:1023A800D3EF9DEE9C4011909250E0FEA3E0FFA376
:1023B800EEF0A3EFF002257090924D121A659092FC
:1023C80052E0FEA3E029F9EA3EFA909256E0FEA315
:1023D800E02403FDE43EFC12444D909254EEF0A339
:1023E800EFF090924D121A65909252E0FEA3E02908
:1023F800F9EA3EFA909256E0FEA3E029F9EA3EFA9D
:1024080090000312179AFD909254E0FEA3E0EE6D3F
:102418007001E4600302257090924D121A65909243
:1024280052E0FEA3E029F9EA3EFA909256E0FEA3B4
:10243800E029F9EA3EFA90000412179AFF909254A4
:10244800E0A3E06F7001E46003022570908F79E0EB
:10245800FEA3E0FF90924D121A65E92403F9E43ACD
:10246800FAC003C002C00190924D121A6590000292
:1024780012179AFD909453E4F0A3EDF0D001D00226
:10248800D0031228047E007F0E7D007B017A8F79AD
:1024980071121C8B909256E0FEA3E02405FFE43EE7
:1024A800909252F0A3EFF0908E69E04402F002257A
:1024B80070909252E0FEA3E02408FFE43EFE909262
:1024C80050E0FCA3E0FDD3EF9DEE9C4011909250AC
:1024D800E0FEA3E0FFA3EEF0A3EFF00225709092D8
:1024E8004D121A65909252E0FEA3E029F9EA3EFAED
:1024F8007D067C0012444D909254EEF0A3EFF090CC
:10250800924D121A65909252E0FEA3E029F9EA3E34
:10251800FA90000612179AFD909254E0FEA3E0EE9E
:102528006D7001E4704290924D121A65909252E0DB
:10253800FEA3E029F9EA3EFA90000712179AFF90E5
:102548009254E0A3E0B50720E490925275F0081287
:1025580018407E007F0E7D007B017A8F7971121CF6
:102568008B908E69E04402F0909252E475F001126B
:102578001840909250E0FEA3E024FBFFEE34FFFEEB
:10258800A3E0FCA3E0C39FEC9E5003022326229005
:10259800944EEEF0A3EFF0A3121A857B007A00792F
:1025A80000C003C002C001909450121A65D082D0B6
:1025B80083D0E06B7008E965827003EA6583700375
:1025C800022803909453E0FEA3E04E700302280310
:1025D800909453E0A3E0FFEEC313FEEF13FF909433
:1025E8004EE0FCA3E02FFFEE3CFED3EF94FEEE940A
:1025F800FF4003022803C2AF90944EE0A3E05401C9
:10260800909455F090944EE0FEA3E0FFEEC313FEC5
:10261800EF13FF90944EEEF0A3EFF090944EE0FE8F
:10262800A3E07810CEC313CE13D8F9F5F190944EE9
:10263800E0FEA3E0EEF5F290944EE0A3E0F5F3E4BB
:10264800F5F875F401D2FF30FCFDD2FD909455E009
:1026580064017072909453E0FEA3E064014E700A26
:10266800C2FBC2FAD2F9C2F88008C2FBC2FAD2F998
:10267800D2F8D2FE20FEFD909453E0FEA3E0640160
:102688004E701A90945075F001121A6EE5FC1217EC
:10269800C790945374FFF5F0121840802990945015
:1026A800E475F001121A6EE5FC1217C7909450E415
:1026B80075F001121A6EE5FD1217C790945374FF56
:1026C80075F0FE121840909453E0FEA3E04E70039C
:1026D8000227FE909453E0A3E0C39404EE940040D4
:1026E800030227A7909453E0A3E08EF0121AB427B0
:1026F8001B0001271100022707000300002723D22F
:10270800FBD2FAD2F9C2F88012D2FBD2FAC2F9C2CD
:10271800F88008D2FBC2FAC2F9C2F8D2FE20FEFD48
:10272800909453E0FEA3E08EF0121AB427940001AF
:102738002774000227440003000027FE909450E409
:1027480075F001121A6EE5FA1217C7909450E475E5
:10275800F001121A6EE5FB1217C7909450E475F059
:1027680001121A6EE5FC1217C70227FE909450E476
:1027780075F001121A6EE5FA1217C7909450E475B5
:10278800F001121A6EE5FB1217C7806A909450E4A4
:1027980075F001121A6EE5FA1217C780598057D2E0
:1027A800FBD2FAD2F9D2F8D2FE20FEFD909450E482
:1027B80075F001121A6EE5FA1217C7909450E47575
:1027C800F001121A6EE5FB1217C7909450E475F0E9
:1027D80001121A6EE5FC1217C7909450E475F001C7
:1027E800121A6EE5FD1217C790945374FF75F0FC2A
:1027F8001218400226CEE4F5F8D2AF2290944EEE9D
:10280800F0A3EFF0A3121A857B007A007900C003C9
:10281800C002C001909450121A65D082D083D0E0D3
:102828006B7008E965827003EA65837003022A6F9A
:10283800909453E0FEA3E04E7003022A6F909453E5
:10284800E0A3E0FFEEC313FEEF13FF90944EE0FC0D
:10285800A3E02FFFEE3CFED3EF94FEEE94FF40037F
:10286800022A6FC2AF90944EE0A3E05401909455B1
:10287800F090944EE0FEA3E0FFEEC313FEEF13FFCB
:1028880090944EEEF0A3EFF090944EE0FEA3E07823
:1028980010CEC313CE13D8F9F5F190944EE0FEA3F1
:1028A800E0EEF5F290944EE0A3E0F5F3E4F5F87568
:1028B800F401D2FF30FCFDC2FD909455E064017034
:1028C80072909453E0FEA3E064014E700AC2FBC20A
:1028D800FAD2F9C2F88008C2FBC2FAD2F9D2F8904B
:1028E8009453E0FEA3E064014E701A90945075F082
:1028F80001121A6E121781F5FC90945374FFF5F0CB
:102908001218408029909450E475F001121A6E1242
:102918001781F5FC909450E475F001121A6E1217A5
:1029280081F5FD90945374FF75F0FE121840D2FEA5
:1029380020FEFD909453E0FEA3E04E7003022A6A45
:10294800909453E0A3E0C39404EE94004003022A59
:1029580013909453E0A3E08EF0121AB42988000172
:10296800297E00022974000300002990D2FBD2FAC4
:10297800D2F9C2F88012D2FBD2FAC2F9C2F88008A2
:10298800D2FBC2FAC2F9C2F8909453E0FEA3E08EDB
:10299800F0121AB429FB000129DB000229AC00035C
:1029A80000002A0A909450E475F001121A6E12176A
:1029B80081F5FA909450E475F001121A6E1217819D
:1029C800F5FB909450E475F001121A6E121781F518
:1029D800FC802F909450E475F001121A6E12178142
:1029E800F5FA909450E475F001121A6E121781F5F9
:1029F800FB800F909450E475F001121A6E12178143
:102A0800F5FAD2FE30FE5B80FB8057D2FBD2FAD2B9
:102A1800F9D2F8909450E475F001121A6E121781E9
:102A2800F5FA909450E475F001121A6E121781F5B8
:102A3800FB909450E475F001121A6E121781F5FCA0
:102A4800909450E475F001121A6E121781F5FDD2B8
:102A5800FE20FEFD90945374FF75F0FC121840029E
:102A6800293BE4F5F8D2AF227BFF7A4C790178480C
:102A78007C927D017E007F2012175B7B017A927920
:102A88004890926A121A8590926D121A85E4909273
:102A980068F0A3F0909268E0FEA3E0C3EE940240D1
:102AA80003022B39909268E0A3E07803C333CE3356
:102AB800CED8F92400FFEE3420FEE4FCFD909451BA
:102AC800121A1C909455E4F0A37408F07D007C3031
:102AD8007F5A1243C87B017A927948909453E4F064
:102AE800A37410F07F007E3012259790926A121A14
:102AF8006512186C645A7004E5F064A5602690921B
:102B08006D121A6512186CB4A527E5F0B45A229014
:102B1800926D121A6578297C987D017E007F0812D3
:102B2800175B800D909268E475F001121840022A34
:102B38009CE4909268F0A3F0909268E0FEA3E0C352
:102B4800940AEE94004003022CCB7BFF7A4C792147
:102B580078707C927D017E007F2012175B7B017A62
:102B68009779E578707C927D017E007F1A12175B59
:102B7800909268E0FEA3E0FF7C007D1B1217D9EF5E
:102B88002464FFE43E909274F0A3EFF0909279747D
:102B980001F0909268E0FEA3E090984C75F0061260
:102BA8001A59EE75F006A42583F583E0FEA3E0FF2D
:102BB8007B017A927970909453E4F0A37420F01218
:102BC80028047B017A9779FF78707C927D017E00DA
:102BD8007F1A12175B909268E0FEA3E0FF7C007DED
:102BE8001B1217D9EF2464FFE43E909274F0A3EF10
:102BF800F09092797401F0909268E0FEA3E09098CA
:102C08004E75F006121A59EE75F006A42583F58361
:102C1800E0FEA3E0FF7B017A927970909453E4F090
:102C2800A37420F01228047B017A98798878707C44
:102C3800927D017E007F1A12175B909268E0FEA3D6
:102C4800E0FF7C007D1B1217D9EF2464FFE43E905F
:102C58009274F0A3EFF0909268E0FEA3E0FF1217E1
:102C6800D9EF2464FFE43E90927AF0A3EFF09092BB
:102C780068E0FEA3E0FF1217D9EF247DFFE43E9041
:102C8800927EF0A3EFF0909268E0FEA3E090985057
:102C980075F006121A59EE75F006A42583F583E03F
:102CA800FEA3E0FF7B017A927970909453E4F0A33D
:102CB8007420F0122804909268E475F0011218400C
:102CC800022B402290924D121A8590924D121A654D
:102CD800121781909250F0909250E0C3942E748015
:102CE80094804003022F03E075F00E908F7F121A34
:102CF80059E0645A6003022EFA909250E075F00E83
:102D0800908F82121A59E07003022EFA909250E0C6
:102D180075F00E908F84121A59E07003022F0390F9
:102D28009250E075F00E908F84121A59E064017089
:102D380029909250E075F00E908F85121A59E0FE96
:102D4800A3E0FF9098D3E0FCA3E06F7002EC6E6004
:102D580003022EFA022F03022EFA909250E075F029
:102D68000E908F84121A59E064026003022E1F909D
:102D78009250E075F00E908F85121A59E0FEA3E08C
:102D8800FF7B017A927951909453E4F0A37402F096
:102D9800122597909251E0A3E0645A6003022EFA3C
:102DA800909250E0C3942D74809480503CE075F06C
:102DB8000E908F92121A59E06402702D909250E092
:102DC80075F00E908F93121A59E0FEA3E0FF9092CF
:102DD80050E075F00E908F85121A59E0FCA3E06F51
:102DE8007002EC6E7003022F03E4909251F0A3F08E
:102DF800909250E075F00E908F85121A59E0FEA35C
:102E0800E0FF7B017A927951909453E4F0A3740225
:102E1800F0122804022F03909250E075F00E908F64
:102E280084121A59E064036003022EFA909250E06B
:102E380075F00E908F8B121A59E0FEA3E0FF909860
:102E4800D3E0FCA3E0FDEF6D7002EE6C6003022E90
:102E5800FA909250E075F00E908F85121A59E0FEA4
:102E6800A3E0FF7B017A927951909453E4F0A37424
:102E780002F0122597909251E0A3E0645A70739083
:102E88009250E0C3942D748094805039E075F00E10
:102E9800908F92121A59E06403702A909250E0754C
:102EA800F00E908F93121A59E0FEA3E0FF90925013
:102EB800E075F00E908F85121A59E0FCA3E06F7050
:102EC80002EC6E6036E4909251F0A3F0909250E0DC
:102ED80075F00E908F85121A59E0FEA3E0FF7B0172
:102EE8007A927951909453E4F0A37402F012280472
:102EF8008009909250E004F0022CDF909250E0FF9D
:102F080090924D121A65EF1217C722E50A30E10DAB
:102F18009098CFE475F00112184012402C9098CF89
:102F2800E0FEA3E0C394B0EE94045003023157E4EA
:102F38009098CFF0A3F0A3E0FEA3E02400FFEE34C6
:102F480010909248F0A3EFF07B017A92794A90941E
:102F580053E4F0A37402F07F057E501225979092F7
:102F680048E0FEA3E0FF7B017A92794A909453E40B
:102F7800F0A37402F01228049098D1E0FEA3E02494
:102F880000FFEE3418909248F0A3EFF07B017A929C
:102F9800794A909453E4F0A37402F07F077E5012AC
:102FA8002597909248E0FEA3E0FF7B017A92794A48
:102FB800909453E4F0A37402F01228049098D1E09E
:102FC800FEA3E0FF90924EEEF0A3EFF09098D1E4CC
:102FD80075F0011218409098D1E0FEA3E0C394FE6A
:102FE800EE94074007E49098D1F0A3F07B017A981B
:102FF80079D1909453E4F0A37402F07F007E031219
:1030080028047B017A9879D1909453E4F0A3740250
:10301800F0FF7E0312280490924C7407F0A374FE0C
:10302800F07B017A92794C909453E4F0A37402F007
:103038007F087E501228047B017A92794C90945331
:10304800E4F0A37402F07F097E5012280490924C99
:103058007402F0A3748AF07B017A92794C909453AD
:10306800E4F0A37402F07F117E501228049098D1E6
:10307800E0A3E030E00302315790924E74FFF5F080
:1030880012184090924EE0FEA3E02400FFEE3410A8
:10309800FE7B017A927948909453E4F0A37404F08B
:1030A80012259790924C74A5F0A3745AF07B017A7C
:1030B800927948909453E4F0A37406F07F007E5010
:1030C80012280490924EE0FEA3E0FFE4FCFD9094E9
:1030D80051121A1C909455E4F0A37404F07D007CFE
:1030E800507FA51243C890924EE0FEA3E02400FF53
:1030F800EE3418FE7B017A927948909453E4F0A359
:103108007404F012259790924C74A5F0A3745AF0A9
:103118007B017A927948909453E4F0A37406F07F87
:10312800007E5012280490924EE0FEA3E02400FF97
:10313800EE3408FEE4FCFD909451121A1C9094554C
:10314800E4F0A37404F07D007C507FA51243C822EC
:103158007BFF7A4A790178487C927D017E027F0064
:1031680012175B909451121A280000000090945591
:103178007410F0A3E4F0FD7C107F5A1243C89094B9
:10318800487410F0A3E4F0909448E0FEA3E0C394E0
:10319800FEEE94175069909448E0A3E0FF7B017A13
:1031A8009279489094537402F0A3E4F0122597E4BE
:1031B80090944AF0A3F090944AE0FEA3E0C3EE9402
:1031C80001502F90944AE0A3E025E0FFEE33FE740F
:1031D800482FF58274923EF583E0FEA3E0645A70AE
:1031E80003EE64A5601990944AE475F00112184042
:1031F80080C4909448740175F0001218408088903B
:10320800944AE0FEA3E0FF909448E0FCA3E02FFF7F
:10321800EC3E90944CF0A3EFF090944CE0FEA3E0C9
:10322800C394FEEE9417400990944C7410F0A3E4F4
:10323800F090944C74F075F00012184090944CE0A3
:10324800FEA3E0FF9098D1EEF0A3EFF07B017A9413
:10325800794C909453E4F0A37402F07F007E03123B
:1032680028047B017A94794C909453E4F0A3740277
:10327800F0FF7E031228047B017A94794C909453D2
:10328800E4F0A37402F07F087E501228047B017AD0
:1032980094794C909453E4F0A37402F07F097E5023
:1032A8001228049092487407F0A374FEF07B017A08
:1032B800927948909453E4F0A37402F07F017E035E
:1032C8001228047B017A927948909453E4F0A3740D
:1032D80002F004FFFE122804909248E4F0A374065A
:1032E800F0A3E4F0A304F0A3E4F0A3742EF0A37415
:1032F80001F0A3744CF0A37401F0A37471F0A374EB
:1033080001F0A37477F0A37401F0A3748AF0A37496
:1033180002F0A3748AF0A37401F0A37471F0A3748B
:10332800FFF0A3E4F07B017A927948909453F0A3DC
:103338007414F07F0A7E50122804227B007A0079E8
:1033480000909248121A85908F70E0640160030221
:1033580033DA908F6BE0FF909203E0D39F4011E047
:10336800908F6BF0909244121A280000000080623F
:10337800908F6BE0FF909203E06F7056FFFEFDFCAC
:10338800909244121A10D31219DF403890924412C6
:103398001A10C3E50E9BFFE50D9AFEE50C99FDE5B5
:1033A8000B98FCE47B0AFAF9F8C31219DF50237B67
:1033B800017A927904909203E0FD7C001222DD12DA
:1033C80048DD800EAF0EAE0DAD0CAC0B90924412E2
:1033D8001A1C908E69E030E035E020E129908F6C6E
:1033E800121A10C3E50E9BFBE50D9AFAE50C99F944
:1033F800E50B98F8908F75E0FFE4FCFDFEC3121909
:10340800DF50030234EA908E6AE004F08027908F40
:103418006C121A10C3E50E9BFFE50D9AFEE50C9998
:10342800FDE50B98FCE47BF47A01F9F8D31219DF77
:1034380040030234EA908E6AE07003123645AF0EFC
:10344800AE0DAD0CAC0B908F6C121A1C908E69E00F
:1034580054FDF0E054FEF07B017A8E796A122CCC90
:10346800908E6AE0C3942E748094805070E075F05A
:103478000EA4247FF9748F35F0FA7B0178717C8F64
:103488007D017E007F0E12175B908F73E0640370DE
:10349800117B017A8F7971123B1A908E69E0440191
:1034A800F022908F73E064067038908F79E0FEA365
:1034B800E0FF7B017A92794B909453E4F0A3740275
:1034C800F01225977B017A8F797190924BE0FCA3DB
:1034D800E0FD123C35908E69E04401F022E4908EC4
:1034E8006AF02212493E7F641247D57F101247D5F1
:1034F8001249BA12493E7F651247D5909252740616
:10350800F0909252E0D3940074809480401D12474A
:1035180080909252E02448F582E43492F583EFF0EB
:10352800124959909252E014F080D6124780909236
:1035380048EFF01249721249BAE4909252F0909210
:1035480052E0C3940374809480504BE02448F58281
:10355800E43492F583E0FFC4540F909253F09092B4
:1035680052E02448F582E43492F583E0540F9092B7
:1035780054F0909253E075F00AA4FFA3E02FFF9057
:103588009252E02448F582E43492F583EFF0909269
:1035980052E004F080A89092527404F0909252E0A5
:1035A800C3940774809480504BE02448F582E43437
:1035B80092F583E0FFC4540F909253F0909252E03A
:1035C8002448F582E43492F583E0540F909254F045
:1035D800909253E075F00AA4FFA3E02FFF90925257
:1035E800E02448F582E43492F583EFF0909252E0BB
:1035F80004F080A8E4909250F0909248E0FFA3E095
:10360800FDA3E0FB123E53909251EFF07B017A92BA
:103618007950909453E4F0A37402F07F007E701206
:103628002804E490924FF07B017A92794890945361
:10363800F0A37408F07F107E00122804227BFF7A22
:103648004C7981784D7C927D017E007F2812175B32
:10365800E4909275F0A3F0909275E0FEA3E0C39415
:1036680020EE94004003023789909275E0A3E07839
:1036780003C333CE33CED8F9246CF582748E3EF56D
:1036880083E0FF9098D3E0FCA3E0FDEF6D7001ECC0
:10369800600302377C909275E0FEA3E07803C333A1
:1036A800CE33CED8F9246DF582748E3EF583E0FED4
:1036B800A3E0FF7B017A92794D909453E4F0A374D0
:1036C80002F0122597909275E0FEA3E07803C333C9
:1036D800CE33CED8F9246FF582748E3EF583E0FEA2
:1036E800A3E0FF7B017A92794F909453E4F0A3749E
:1036F80002F012259790924FE0FEA3E0FF90924DC2
:10370800E0FCA3E06F7002EC6E6069909275E0FED9
:10371800A3E07803C333CE33CED8F9246FF582748F
:103728008E3EF583E0FEA3E0FF7B017A92794D900F
:103738009453E4F0A37402F0122804909251E4F038
:10374800A3745AF0909275E0FEA3E07803C333CED9
:1037580033CED8F92471F582748E3EF583E0FEA34A
:10376800E0FF7B017A927951909453E4F0A37402BC
:10377800F0122804909275E475F001121840023690
:103788005F22909280EFF07BFF7A4C796178817CA0
:10379800927D017E007F2012175B7B017A9779E585
:1037A80078817C927D017E007F1A12175B9092804F
:1037B800E075F01BA42464FFE435F0909285F0A333
:1037C800EFF090928A7401F0909280E075F006A470
:1037D800244CF582E43498F583E0FEA3E0FF7B01F6
:1037E8007A927981909453E4F0A37420F01228041B
:1037F8007B017A9779FF78817C927D017E007F1A20
:1038080012175B909280E075F01BA42464FFE435E6
:10381800F0909285F0A3EFF090928A7401F0909264
:1038280080E075F006A4244EF582E43498F583E030
:10383800FEA3E0FF7B017A927981909453E4F0A390
:103848007420F01228047B017A98798878817C9218
:103858007D017E007F1A12175B909280E075F01B45
:10386800A42464FFE435F0909285F0A3EFF09092E1
:1038780080E075F01BA42464FFE435F090928BF08F
:10388800A3EFF0909280E075F01BA4247DFFE4354F
:10389800F090928FF0A3EFF0909280E075F006A47C
:1038A8002450F582E43498F583E0FEA3E0FF7B0121
:1038B8007A927981909453E4F0A37420F01228044A
:1038C80022909280EFF0A3ECF0A3EDF0A3EBF07B55
:1038D800FF7A4C794178847C927D017E007F2012AA
:1038E800175B7B017A9779E578847C927D017E006D
:1038F8007F1A12175B909280E075F01BA42464FF76
:10390800E435F0909288F0A3EFF0E490928DF09077
:103918009281E0FEA3E02401FFE43E909284F0A3AC
:10392800EFF0909280E075F006A4244CF582E43420
:1039380098F583E0FEA3E0FF7B017A927984909466
:1039480053E4F0A37420F01228047B017A9779FFDE
:1039580078847C927D017E007F1A12175B9092809A
:10396800E075F01BA42464FFE435F0909288F0A37E
:10397800EFF0909283E0FFC3740F9F90928DF090C8
:103988009281E0FEA3E02404FFE43E909284F0A339
:10399800EFF0909280E075F006A4244EF582E434AE
:1039A80098F583E0FEA3E0FF7B017A9279849094F6
:1039B80053E4F0A37420F0122804909281E0FEA34F
:1039C800E02408FFE43E909284F0A3EFF090928008
:1039D800E075F006A42450F582E43498F583E0FEFF
:1039E800A3E0FF7B017A927984909453E4F0A37466
:1039F80002F012280422E4909255F07B017A98791B
:103A0800B4909453F0A37408F07F9C7E001225971D
:103A18009098B4E0645A6003023B19A3E064A5607F
:103A280003023B199092507402F0909250E0C394B4
:103A38000874809480504EE024B4F582E43498F5FC
:103A480083E075F00A84909251F0909250E024B48B
:103A5800F582E43498F583E075F00A84909252E593
:103A6800F0F0909251E0C454F0FFA3E02FFF909241
:103A780050E02448F582E43492F583EFF0909250B8
:103A8800E004F080A590924AE09098AAF090924BBA
:103A9800E09098ABF090924CE09098ACF090924DFA
:103AA800E09098AEF090924EE09098AFF090924FE0
:103AB800E09098B0F09098B6E0FFA3E0FDA3E0FB9B
:103AC800123E53909254EFF0E4909253F0A3E0909A
:103AD80098ADF090925475F00A84909251F09092BB
:103AE80054E075F00A84909252E5F0F07B017A98E0
:103AF80079AA12410AE49098B4F0A3F07B017A986D
:103B080079B4909453F0A37408F07F9C7E00122837
:103B1800042290924D121A85E4909252F090924DA0
:103B2800121A6590000112179AFF909252E0FE0453
:103B3800F074532EF582E43492F583EFF0909252AC
:103B4800E0FF04F074532FF582E43492F583740394
:103B5800F090924D121A6590000A121897E5F0FF3E
:103B6800909252E0FE04F074532EF582E43492F5FC
:103B780083EFF090924D121A6590000A121897FF81
:103B8800909252E0FE04F074532EF582E43492F5DC
:103B980083EFF090924D121A6590000312179AFF66
:103BA800E4909252E0FE04F074532EF582E43492CD
:103BB800F583E4F090924D121A6590000312179A5B
:103BC800FF909252E0FE04F074532EF582E4349292
:103BD800F583EFF07B017A927953909252E0FD7C65
:103BE8000012444D909250EEF0A3EFF0909250E006
:103BF800FEA3E0EEFFA3E0FE04F074532EF582E48A
:103C08003492F583EFF0909250E0A3E0FFA3E0FE3A
:103C180004F074532EF582E43492F583EFF07B01BF
:103C28007A927953909252E0FD1246752290924D05
:103C3800121A85909250ECF0A3EDF0E4909254F0B3
:103C480090924D121A6590000112179AFF909254A3
:103C5800E0FE04F074552EF582E43492F583EFF01B
:103C6800909254E0FF04F074552FF582E43492F5F5
:103C7800837406F090924D121A6590000A121897F4
:103C8800E5F0FF909254E0FE04F074552EF582E4BE
:103C98003492F583EFF090924D121A6590000A1253
:103CA8001897FF909254E0FE04F074552EF582E4C4
:103CB8003492F583EFF0909250E0FEA3E0EEFF908F
:103CC8009254E0FE04F074552EF582E43492F583A4
:103CD800EFF0909250E0A3E0FF909254E0FE04F0E1
:103CE80074552EF582E43492F583EFF07B017A92D5
:103CF8007955909254E0FD7C0012444D909252EE1A
:103D0800F0A3EFF0909252E0FEA3E0EEFFA3E0FEF6
:103D180004F074552EF582E43492F583EFF0909216
:103D280052E0A3E0FFA3E0FE04F074552EF582E410
:103D38003492F583EFF07B017A927955909254E0B2
:103D4800FD12467522C0E0C0F0C083C082C0D075A5
:103D5800D000C000C001C002C003C004C005C00636
:103D6800C007C2AF758CBC758ACD9098BFE475F05A
:103D7800011218409098BFE0FEA3E0D394E8EE94B7
:103D88000340189098BFE4F0A3F0A375F00112184F
:103D9800409098BDE475F00112184043C90190980D
:103DA800CB121A04E47B01FAF9F81218EE9098CBBA
:103DB800121A1C9098C3E475F0011218409098C527
:103DC800121A04E4F81218EE9098C5121A1C90986A
:103DD800C9E0FEA3E0FFE4FCFD7BDC7AFFF8D31228
:103DE80019C9400A9098C9E475F0011218400509EC
:103DF800E50970020508AF0EAE0DAD0CAC0BE47B07
:103E080001FAF9F81218EE8F0E8E0D8D0C8C0BE45A
:103E18007B64121937AC00AD01AE02AF03E4FBFAC4
:103E2800F9F8C31219DF7003430A02430A01D2AF3B
:103E3800D007D006D005D004D003D002D001D000DE
:103E4800D0D0D082D083D0F0D0E032909256EFF02C
:103E5800A3EDF0A3EBF0909256E024D0FFE43407F2
:103E68009098B2F0A3EFF09098B2E0FEA3E0FF7C48
:103E7800007D641217EB9098BCEFF09098B2E0FECA
:103E8800A3E0FF7C007D641217EB9098A2EDF09000
:103E980098BCE0D394137480948040079098A2E073
:103EA8002464F09098A2E0FF1313543FFFE02FFF23
:103EB800E433909259F0A3EFF0909259E0FEA3E01A
:103EC800FF7C007D071217EB909259ECF0A3EDF000
:103ED800909258E0FFA3E0FCA3E0FDEF2DFFE43C47
:103EE800FE909257E0904CA8937C002FFFEC3E90F8
:103EF8009259F0A3EFF09098A2E0540370179092B3
:103F080057E0C3940374809480500A90925974FFC8
:103F1800F5F0121840909259E0FEA3E0FF7C007D76
:103F2800071217EB909259ECF0A3EDF0909259E03C
:103F3800FEA3E04E70037F0622909259E0A3E0149E
:103F4800FF2290982BE0FEA3E07803C333CE33CE54
:103F5800D8F92400FFEE3420FEE4FCFD90945112C1
:103F68001A1C909455E4F0A37408F07D007C307F0F
:103F7800A51243C890982BE475F001121840909848
:103F88002BE0FEA3E0C3EE94024007E490982BF0E8
:103F9800A3F090982FE0FEA3E0C3EE94024028908F
:103FA800982F7402F0A3E4F090982D75F001121880
:103FB8004090982DE0FEA3E0C3EE94024013E490F5
:103FC800982DF0A3F0800A90982FE475F00112184C
:103FD80040909829745AF0A374A5F07B017A9879D7
:103FE80029909453E4F0A37408F07F007E301228DF
:103FF8000490982BE0FEA3E07803C333CE33CED8E9
:10400800F92400FFEE3420FEE4FCFD909451121ACE
:104018001C909455E4F0A37404F07D007C307FA5D7
:104028001243C8227B017A927950909453E4F0A30A
:104038007404F07F087E50122597909252E0FEA3F8
:10404800E0FF909250E0FCA3E06F7002EC6E70030A
:104058000241097B017A927952909453E4F0A37457
:1040680002F07F097E50122804909250E0FEA3E0EF
:10407800FF9098D1E0FCA3E02FFFEC3E909254F023
:10408800A3EFF0909254E0FEA3E0C394FEEE9407F1
:10409800400B90925474F875F0021218407B017A24
:1040A800927954909453E4F0A37402F07F007E0355
:1040B8001228047B017A927954909453E4F0A37403
:1040C80002F0FF7E03122804909250E0FEA3E078ED
:1040D80002CEC313CE13D8F9FF909250EEF0A3EF9F
:1040E800F0909250E475F08F1218407B017A927923
:1040F80050909453E4F0A37402F07F117E5012287C
:104108000422909256121A8512493E7F641247D5AE
:104118007F301247D5E4FF1247D51249BA12493EFB
:104128007F641247D57F1C1247D57F481247D5E4D4
:10413800FF1247D57F401247D57F101247D5124945
:10414800BA12493E7F641247D57F101247D5909224
:1041580056121A6590000612179AFF1247D59092C8
:1041680056121A6590000512179AFF1247D59092B9
:1041780056121A6590000412179AFF1247D59092AA
:1041880056121A6590000312179AFF1247D590929B
:1041980056121A6590000212179AFF1247D590928C
:1041A80056121A6590000112179AFF1247D590927D
:1041B80056121A65121781FF1247D51249BA1249C9
:1041C8003E7F641247D57F1E1247D5E4FF1247D5BC
:1041D8007F101247D51249BA2212493E7F6412470E
:1041E800D57F1D1247D51249BA12493E7F6512473D
:1041F800D5124780909248EFF01249591247801221
:1042080049721249BA909248E0540264026003026B
:1042180042A012493E7F641247D57F301247D5E449
:10422800FF1247D51249BA12493E7F641247D57F1B
:104238001C1247D57F481247D5E4FF1247D57F4067
:104248001247D57F101247D51249BA12493E7F64EA
:104258001247D57F101247D5E4FF1247D5E4FF1265
:1042680047D5E4FF1247D57F011247D57F01124792
:10427800D57F011247D57F171247D51249BA12497F
:104288003E7F641247D57F1E1247D5E4FF1247D5FB
:104298007F101247D51249BA227594017595027597
:1042A8008E0075930075C87075C96075F800787FC1
:1042B800E4F6D8FD75810E0242FD024828E493A376
:1042C800F8E493A34003F68001F208DFF48029E4C0
:1042D80093A3F85407240CC8C333C4540F4420C80C
:1042E800834004F456800146F6DFE4800B010204A3
:1042F8000810204080900100E47E019360BCA3FF79
:10430800543F30E509541FFEE493A360010ECF54D7
:10431800C025E060A840B8E493A3FAE493A3F8E4C6
:1043280093A3C8C582C8CAC583CAF0A3C8C582C832
:10433800CAC583CADFE9DEE780BEC0E0C0F0C0833B
:10434800C082C0D075D000C000C004C006C00790AD
:10435800945AE4F0C2AFE59B30E03DE59CF0E0FF05
:104368009096DFE0FCA3E024E5F58274963CF583A3
:10437800EFF09096DFE475F001121840539BFE535E
:104388009BFE9096DFE0FEA3E0C39480EE9400408D
:10439800079096DFE4F0A3F0E59B30E10B539BFD1B
:1043A800539BFD9096DEE4F043C901D2AFD007D00D
:1043B80006D004D000D0D0D082D083D0F0D0E03264
:1043C80090944EEFF0A3ECF0A3EDF0E4F5F1F5F2E4
:1043D80075F30475F40175F88F30FCFD90944EE088
:1043E800F5FA909451121A0478101219F08FFB9074
:1043F8009451121A0478081219F08FFC90945112F3
:104408001A04EF54FEFFE48FFDD2FE20FEFD9094C7
:104418004FE0FEA3E0EEF5FA90944FE0A3E054FEDF
:10442800F5FB909455E0FEA3E0EEF5FC909455E082
:10443800A3E054FEF5FDD2FE20FEFDE4F5F87F046E
:10444800FE1246CF22909269121A8590926CECF077
:10445800A3EDF0A374FFF0A3F090926C74FFF5F055
:1044680012185645F0604D909269E475F001121AE1
:104478006E121781FF90926EE06FFF909270E4F0D9
:10448800A3EFF0909270E0FEA3E0245DF5827494AF
:104498003EF583E0FF90926FE06F90926EF09092FD
:1044A80070E0A3E0245DF58274953EF583E0909278
:1044B8006FF080A590926EE0FEA3E0FDEEEDFF2286
:1044C800C0E0C0F0C083C082C0D075D000C000C0BA
:1044D80004C006C00790945BE4F0C2AFE5975401AE
:1044E8006401703AE59FF0E0FF9096E1E0FCA3E0FC
:1044F8002465F58274973CF583EFF09096E1E475B6
:10450800F0011218405397FE9096E1E0FEA3E0C335
:104518009480EE940040079096E1E4F0A3F043C93C
:1045280001D2AFD007D006D004D000D0D0D082D0EE
:1045380083D0F0D0E032C0E0C0F0C083C082C0D0E9
:1045480075D000C000C004C006C00790945CE4F0B9
:10455800C2AFE5AB54016401703AE5ADF0E0FF90FD
:1045680096E3E0FCA3E0245DF58274963CF583EFC6
:10457800F09096E3E475F00112184053ABFE909664
:10458800E3E0FEA3E0C39480EE940040079096E336
:10459800E4F0A3F043C901D2AFD007D006D004D0CD
:1045A80000D0D0D082D083D0F0D0E032C0E0C08339
:1045B800C082C0D075D000C006C007909459E4F0FE
:1045C800C2AF309830E599F0909203E0C3944074FC
:1045D800809480501E909459E0FF909203E0FE046E
:1045E800F074042EF582E43492F583EFF0908F7026
:1045F8007401F0C298309907C2999096DDE4F0D220
:10460800AFD007D006D0D0D082D083D0E032E490AB
:104618009248F0A3F0E50A30E0527B017A9279489B
:10462800909453E4F0A37402F07F147E50122597FF
:10463800909248E0FEA3E04E6032909248E0A3E0FA
:104648008EF0121AB446556D0000004658124728DD
:10465800E4909248F0A3F07B017A927948909453C1
:10466800F0A37402F07F147E5012280422909269FD
:10467800121A8590926CEDF07B007A007900C003E5
:10468800C002C001909269121A65D082D083D0E02E
:104698006B7008E965827003EA6583602990926C03
:1046A800E0602390926CE0FF14F0EF60199092693B
:1046B800121A65121781FF1249A390926AE475F0E5
:1046C8000112184080DD22909457EEF0A3EFF0E439
:1046D800F5F1909457E0FEA3E0EEF5F2909457E0E0
:1046E800A3E0F5F3E4F5F4E4909457F0A3F0909484
:1046F80057E0FEA3E0C394E8EE9403500F85FCFB5B
:10470800909457E475F00112184080E275F8AF30C4
:10471800FCFDD2FE20FEFDE4F5F8AFFAEF70C822EA
:104728007E007F087D007B017A987929121C8B7B9B
:10473800017A987929909453E4F0A37408F07F00E3
:104748007E3012280490982BE0FEA3E07803C33350
:10475800CE33CED8F92400FFEE3420FEE4FCFD90E1
:104768009451121A1C909455E4F0A37404F07D003F
:104778007C307FA51243C82212004EE4909255F077
:10478800909255E0FF3395E0FEC3EF9408EE648005
:10479800948050337F051248ABD2B27F051248ABE4
:1047A800909256E0FF25E0F030B306E04401F08037
:1047B80007909256E054FEF0C2B27F051248AB90C3
:1047C8009255E004F080B9909256E0FF22909259F9
:1047D800EFF0120056E4A3F090925AE0FF3395E010
:1047E800FEC3EF9408EE648094805030909259E0B4
:1047F80030E704D2B38002C2B3909259E0FF25E0BB
:10480800F07F051248ABD2B27F051248ABC2B27F27
:10481800051248AB90925AE004F080BC12486D2211
:1048280012006E1241E11249F3123158122A7043F4
:10483800C901C3E50994F4E5089401400B1234EB6F
:10484800E4F508F5091239FE123343124922122FF2
:1048580013121CD9124616E50A30E0D3530AFE5348
:104868000AFD80CB2212004ED2B37F051248ABD28C
:10487800B27F051248ABE490925BF090925BE0C384
:10488800943274809480501030B30D7F051248AB79
:1048980090925BE004F080E3C2B27F051248AB124D
:1048A80000562290925CEFF090925CE06026E4A3C0
:1048B800F090925DE0FF3395E0FEC3EF9432EE6432
:1048C8008094805007E0F0E004F080E590925CE08E
:1048D80014F080D422E4909203F0908F70F0FE7F61
:1048E80040FD7B017A927904121C8BE4908F6BF067
:1048F800909244121A28000000002243B71043C9BE
:1049080040E49096DDF075D88075985053877F7590
:10491800BA0375AAE4D29CD2AC22E50A30E0167B31
:10492800017A9879D3909453E4F0A37402F07F1439
:104938007E0012259722120056D2B3D2B27F0F12F0
:1049480048ABC2B37F0F1248ABC2B27F0F1248AB5D
:1049580022120056C2B37F051248ABD2B27F0512AD
:1049680048ABC2B27F051248AB22120056D2B37FC1
:10497800051248ABD2B27F051248ABC2B27F05120E
:1049880048AB2275F90175B70375BC03E4F5BD752D
:10499800BE0CF580F590F5A0F5B02290926DEFF081
:1049A8009096DDE0640160F87401F090926DE0F596
:1049B8009922120056C2B3D2B27F0F1248ABD2B3BB
:1049C8007F0F1248AB12004E2275C870E4F5CDF582
:1049D800CC75CBFF75CAEF43A820D2C82243890102
:1049E800758CBC758ACDD2A9D28C221248DD908FE5
:1049F8006C121A28000000002200000000000000CD
:104A0800000000000000000000000000000000009E
:104A1800000000000000000000000000000000008E
:104A2800000000000000000000000000000000007E
:104A3800000000000000000000000000000000006E
:0D4CA80000000303060104060205000305D9
:00000001FF
