:100000000277ED020006C2AFD2AF32026830C2AF53
:10001000D2AF3202000E90AC67E0FEA3E0FF128187
:020020000B22B1
:07002300027CFF1283FC22A6
:10002B0002855390AA4C123B520000300090AA500C
:10003B00E4F0A3740CF07D007C307F5A12788E7B39
:10004B00017AAD792190AA4EE4F0A37418F07F00E9
:10005B007E30125743E490A843F090A843E0C3943A
:10006B000774809480506EE025E025E02421F58212
:10007B00E434ADF583123B2EE4FBFAF9F8C3123BE3
:10008B0009602290A843E025E025E02421F582E4D5
:10009B0034ADF583123B2E7B3F7A42790F7800C348
:1000AB00123B09502890A843E025E025E024F9F500
:1000BB0082E434ACF583123B2E90A843E025E02577
:1000CB00E02421F582E434ADF583123B4690A8433E
:1000DB00E004F080857B017AAD792190AA60E4F091
:0C00EB00A37414F07FA07EA61259B0226E
:1000F800FFFF4457494E543542AE59000041AE52B5
:100108000042AE53000041AE550041AE560042AE2B
:1001180057000042AE5F000042AE5D000042AE5B99
:1001280000005AAD3D3FC900690064000086000A1E
:100138002D2D203A3A000000000000000000005A6F
:10014800AD573FCC01270064000086000A2D2D2FF3
:100158003A3A000000000000000000005AADF43FE9
:10016800D001E50064000001E5006402AD007D00F7
:10017800100017181802000000603CADB84000409D
:10018800A04140401040B04150402040C041604034
:100198003040D04170404040E04180405040F04104
:1001A800904060410041A04070411041B040804102
:1001B8002041C04090413041D054ADA441E041F8C5
:1001C80042104228424042584270428842A042B8F7
:1001D80048AD95000000000000000042AD9D000001
:1001E80042ADA2000042AD9F000041ADA10042AD6A
:1001F80083000042AD7100054999DAB2E2CAD4BA67
:10020800BAD7D6006E6099E349443030BBD8B7E717
:10021800B8DFCEC2000000000000000000000000AF
:10022800000000000000000049443031BBD8B7E7A7
:10023800B5CDCEC2000000000000000000000000A4
:10024800000000000000000049443032BBD8B7E786
:10025800B8DFCAAA0000000000000000000000008B
:10026800000000000000000049443033BBD8B7E765
:10027800B5CDCAAA00000000000000000000000080
:10028800000000000000000049443034CBCDB7E73F
:10029800B8DFCEC20000000000000000000000002F
:1002A800000000000000000049443035CBCDB7E71E
:1002B800B5CDCEC200000000000000000000000024
:1002C800000000000000000049443036CBCDB7E7FD
:1002D800B8DFCAAA0000000000000000000000000B
:1002E800000000000000000049443037CBCDB7E7DC
:1002F800B5CDCAAA00000000000000000000000000
:10030800000000000000000049443038B1E4C6B5E0
:10031800C6F7CDA8D0C5000000000000000000000E
:10032800000000000000000049443039C4DAB2BFC0
:10033800CDA8D0C5000000000000000000000000AB
:100348000000000000000000494431304E5443D200
:10035800ECB3A30000000000000000000000000053
:10036800000000000000000049443131B7E7BBFA43
:1003780031B9CAD5CF00000000000000000000001D
:10038800000000000000000049443132B1A3C1F46C
:100398000000000000000000000000000000000055
:1003A800000000000000000049443133B1A3C1F44B
:1003B8000000000000000000000000000000000035
:1003C800000000000000000049443134B1A3C1F42A
:1003D8000000000000000000000000000000000015
:1003E800000000000000000049443135B1A3C1F409
:1003F80000000000000000000000000000000000F5
:10040800000000000000000049443136CDE2B7E7A3
:10041800BBFAB9CAD5CF00000000000000000000F8
:10042800000000000000000049443137B7E7BBFA7C
:1004380031D4CBD0D0B3ACCAB1000000000000006A
:10044800000000000000000049443138B1A3C1F4A5
:100458000000000000000000000000000000000094
:10046800000000000000000049443139B1A3C1F484
:100478000000000000000000000000000000000074
:10048800000000000000000049443230B1A3C1F46C
:100498000000000000000000000000000000000054
:1004A800000000000000000049443231B1A3C1F44B
:1004B8000000000000000000000000000000000034
:1004C800000000000000000049443232CDE2B7E7E6
:1004D800BBFAD4CBD0D0B3ACCAB100000000000046
:1004E800000000000000000049443233B8DFD1B9F1
:1004F80031BFAAB9D80000000000000000000000C9
:10050800000000000000000049443234B8DFD1B9CF
:1005180031CBF8CBC0000000000000000000000054
:10052800000000000000000049443235B5CDD1B9C3
:1005380031B8E6BEAF000000000000000000000077
:10054800000000000000000049443236B5CDD1B9A2
:1005580031CBF8CBC0000000000000000000000014
:10056800000000000000000049443237C5C5C6F845
:10057800CEC2B6C831B8E6BEAF0000000000000029
:10058800000000000000000049443238C5C5C6F824
:10059800CEC2B6C831CBF8CBC000000000000000C6
:1005A800000000000000000049443239B6CCD6DC17
:1005B800C6DA31B8E6BEAF00000000000000000057
:1005C800000000000000000049443330D1B9BBFAF4
:1005D80031D4CBD0D0B3ACCAB100000000000000C9
:1005E800000000000000000049443331B8DFD1B9F1
:1005F80032BFAAB9D80000000000000000000000C7
:10060800000000000000000049443332B8DFD1B9CF
:1006180032CBF8CBC0000000000000000000000052
:10062800000000000000000049443333B5CDD1B9C3
:10063800D1B9C1A6B8E6BEAF0000000000000000B6
:10064800000000000000000049443334B5CDD1B9A2
:1006580032CBF8CBC0000000000000000000000012
:10066800000000000000000049443335C5C5C6F845
:10067800CEC2B6C832B8E6BEAF0000000000000027
:10068800000000000000000049443336C5C5C6F824
:10069800CEC2B6C832CBF8CBC000000000000000C4
:1006A800000000000000000049443337B6CCD6DC17
:1006B800C6DA32B8E6BEAF00000000000000000055
:1006C800000000000000000049443338D1B9BBFAEB
:1006D80032D4CBD0D0B3ACCAB100000000000000C7
:1006E800000000000000000049443339BCD3CAAA06
:1006F800B5E7C1F7B9FDB4F3000000000000000041
:10070800000000000000000049443430BCD3CAAAED
:10071800C6F7B8DFCBAECEBB00000000000000007B
:10072800000000000000000049443431BCD3CAAACC
:10073800C6F7C8B1CBAE0000000000000000000002
:10074800000000000000000049443432BCD3CAAAAB
:10075800C6F7D4CBD0D0B3ACCAB1000000000000BB
:10076800000000000000000049443433BCD3C8C86E
:10077800C6F7B8E6BEAF00000000000000000000A9
:10078800000000000000000049443434BCD3C8C84D
:10079800C6F731B3ACCAB100000000000000000089
:1007A800000000000000000049443435BCD3C8C82C
:1007B800C6F732B3ACCAB100000000000000000068
:1007C800000000000000000049443436B6CFB5E709
:1007D800D6D8C6F4000000000000000000000000A9
:1007E800000000000000000049443437B5E7D4B4E5
:1007F800CFE0D0F2B4EDCEF300000000000000001E
:10080800000000000000000049443438B5E7D4B4C3
:10081800C6B5C2CAC6ABB8DF0000000000000000C1
:10082800000000000000000049443439B5E7D4B4A2
:10083800C6B5C2CAC6ABB5CD0000000000000000B6
:1008480000000000000000004944353041CFE0B905
:10085800FDD1B90000000000000000000000000009
:1008680000000000000000004944353142CFE0B9E3
:10087800FDD1B900000000000000000000000000E9
:1008880000000000000000004944353243CFE0B9C1
:10089800FDD1B900000000000000000000000000C9
:1008A80000000000000000004944353341CFE0C794
:1008B800B7D1B900000000000000000000000000EF
:1008C80000000000000000004944353442CFE0C772
:1008D800B7D1B900000000000000000000000000CF
:1008E80000000000000000004944353543CFE0C750
:1008F800B7D1B900000000000000000000000000AF
:1009080000000000000000004944353641CFE0C82F
:10091800B1CFE0000000000000000000000000006F
:1009280000000000000000004944353742CFE0C80D
:10093800B1CFE0000000000000000000000000004F
:1009480000000000000000004944353843CFE0C8EB
:10095800B1CFE0000000000000000000000000002F
:10096800000000000000000049443539C6F8C1F70E
:10097800B6AACAA7B8E6BEAF000000000000000093
:10098800000000000000000049443630B9FDC2CB29
:10099800CDF8D4CBD0D0B3ACCAB100000000000071
:1009A800000000000000000049443631B9FDC2CB08
:1009B800CDF8B6C2B8E6BEAF0000000000000000E7
:1009C800000000000000000049443632D4B6B3CC21
:1009D800B9D8BBFAB8E6BEAF0000000000000000BE
:1009E800000000000000000049443633D2E7CBAED7
:1009F800B8E6BEAF000000000000000000000000E4
:100A0800000000000000000049443634C8BABFD8CE
:100A1800CDA8D0C5D2ECB3A30000000000000000B0
:100A2800000000000000000049443635B1A3C1F4BD
:100A380000000000000000000000000000000000AE
:100A4800000000000000000049443636B5CDB9FD6D
:100A5800C8C8B6C831B8E6BEAF0000000000000044
:100A6800000000000000000049443637B5CDB9FD4C
:100A7800C8C8B6C832B8E6BEAF0000000000000023
:100A8800000000000000000049443638D1CCCEED0B
:100A9800B8E6BEAF00000000000000000000000043
:100AA800000000000000000049443639D3C3BBA74A
:100AB800D7D4B6A8D2E5B8E6BEAF00000000000063
:100AC800000000000000000049443730B5E7D4B406
:100AD800D2ECB3A3000000000000000000000000FA
:100AE800000000000000000049443731B1A3C1F400
:100AF80000000000000000000000000000000000EE
:100B0800000000000000000049443732B1A3C1F4DE
:100B180000000000000000000000000000000000CD
:100B2800000000000000000049443733B1A3C1F4BD
:100B380000000000000000000000000000000000AD
:100B4800000000000000000049443734B1A3C1F49C
:100B5800000000000000000000000000000000008D
:100B6800000000000000000049443735B1A3C1F47B
:100B7800000000000000000000000000000000006D
:100B8800000000000000000049443736B1A3C1F45A
:100B9800000000000000000000000000000000004D
:100BA800000000000000000049443737B1A3C1F439
:100BB800000000000000000000000000000000002D
:100BC800000000000000000049443738B1A3C1F418
:100BD800000000000000000000000000000000000D
:100BE800000000000000000049443739B1A3C1F4F7
:100BF80000000000000000000000000000000000ED
:100C0800000000000000000049443830C5C5CBAEE4
:100C1800B8DFCBAECEBB0000000000000000000033
:100C2800000000000000000049443831BCD3CAAAC3
:100C3800C6F7D2ECB3A300000000000000000000DB
:100C4800000000000000000049443832B7E7D1B97D
:100C5800B9FDB5CD00000000000000000000000054
:100C6800000000000000000049443833B1A3C1F47B
:100C7800000000000000000000000000000000006C
:100C8800000000000000000049443834B8DFD1B942
:100C980031D1B9C1A600000000000000000000002A
:100CA800000000000000000049443835B1A3C1F439
:100CB800000000000000000000000000000000002C
:100CC8000000000000000000494438364D4F503104
:100CD800B8E6BEAF00000000000000000000000001
:100CE8000000000000000000494438374D4F5032E2
:100CF800B8E6BEAF000000000000000000000000E1
:100D08000000000000000000494438384C4F5031C2
:100D1800B8E6BEAF000000000000000000000000C0
:100D28000000000000000000494438394C4F5032A0
:100D3800B8E6BEAF000000000000000000000000A0
:100D4800000000000000000049443930C9E8B1B88B
:100D5800CAB9D3C3B3ACCAB1000000000000000098
:100D6800000000000000000049443931B1A3C1F47B
:100D7800000000000000000000000000000000006B
:100D8800000000000000000049443932B1A3C1F45A
:100D9800000000000000000000000000000000004B
:100DA800000000000000000049443933B1A3C1F439
:100DB800000000000000000000000000000000002B
:100DC800000000000000000049443934B1A3C1F418
:100DD800000000000000000000000000000000000B
:100DE800000000000000000049443935B1A3C1F4F7
:100DF80000000000000000000000000000000000EB
:100E0800000000000000000049443936B1A3C1F4D5
:100E180000000000000000000000000000000000CA
:100E2800000000000000000049443937B1A3C1F4B4
:100E380000000000000000000000000000000000AA
:100E4800000000000000000049443938B1A3C1F493
:100E5800000000000000000000000000000000008A
:100E6800000000000000000049443939B1A3C1F472
:100E7800000000000000000000000000000000006A
:100E880000000000000000004944313030B1A3C127
:100E9800F400000000000000000000000000000056
:100EA80000000000000000004944313031B1A3C106
:100EB800F400000000000000000000000000000036
:100EC80000000000000000004944313032B1A3C1E5
:100ED800F400000000000000000000000000000016
:100EE80000000000000000004944313033B1A3C1C4
:100EF800F4000000000000000000000000000000F6
:100F080000000000000000004944313034B1A3C1A2
:100F1800F4000000000000000000000000000000D5
:100F280000000000000000004944313035B1A3C181
:100F3800F4000000000000000000000000000000B5
:100F480000000000000000004944313036B1A3C160
:100F5800F400000000000000000000000000000095
:100F680000000000000000004944313037B1A3C13F
:100F7800F400000000000000000000000000000075
:100F880000000000000000004944313038B1A3C11E
:100F9800F400000000000000000000000000000055
:100FA80000000000000000004944313039B1A3C1FD
:100FB800F400000000000000000000000000000035
:100FC80000000000000000004944313130B1A3C1E5
:100FD800F400000000000000000000000000000015
:100FE80000000000000000004944313131B1A3C1C4
:100FF800F4000000000000000000000000000000F5
:1010080000000000000000004944313132B1A3C1A2
:10101800F4000000000000000000000000000000D4
:1010280000000000000000004944313133B1A3C181
:10103800F4000000000000000000000000000000B4
:1010480000000000000000004944313134B1A3C160
:10105800F400000000000000000000000000000094
:10106800000000000000000041AE610047AE310002
:1010780000000000000047AE220000000000000051
:1010880048AE38000000000000000048AE2900000B
:10109800000000000000C10042AE20000052AE0E69
:1010A8000000000000000000000000000000000038
:1010B800000042AE42000042AE44000042AE400092
:1010C8000044AE4E0000000042AE46000044AE4868
:1010D8000000000002080000040B00000000040FDC
:1010E8000000000042AE4C0000010A006100AA6442
:1010F80000C1814001C0804101C0804100C18140E0
:1011080001C0804100C1814000C1814001C08041CF
:1011180001C0804100C1814000C1814001C08041BF
:1011280000C1814001C0804101C0804100C18140AF
:1011380001C0804100C1814000C1814001C080419F
:1011480000C1814001C0804101C0804100C181408F
:1011580000C1814001C0804101C0804100C181407F
:1011680001C0804100C1814000C1814001C080416F
:1011780001C0804100C1814000C1814001C080415F
:1011880000C1814001C0804101C0804100C181404F
:1011980000C1814001C0804101C0804100C181403F
:1011A80001C0804100C1814000C1814001C080412F
:1011B80000C1814001C0804101C0804100C181401F
:1011C80001C0804100C1814000C1814001C080410F
:1011D80001C0804100C1814000C1814001C08041FF
:1011E80000C1814001C0804101C0804100C18140EF
:1011F8006100AB6400C0C101C30302C2C60607C7D1
:1012080005C5C404CC0C0DCD0FCFCE0E0ACACB0B2E
:10121800C90908C8D81819D91BDBDA1A1EDEDF1F5E
:10122800DD1D1CDC14D4D515D71716D6D21213D34E
:1012380011D1D010F03031F133F3F23236F6F737FE
:10124800F53534F43CFCFD3DFF3F3EFEFA3A3BFBEE
:1012580039F9F83828E8E929EB2B2AEAEE2E2FEF9E
:101268002DEDEC2CE42425E527E7E62622E2E3230E
:10127800E12120E0A06061A163A3A26266A6A7673E
:10128800A56564A46CACAD6DAF6F6EAEAA6A6BABAE
:1012980069A9A86878B8B979BB7B7ABABE7E7FBFDE
:1012A8007DBDBC7CB47475B577B7B67672B2B373CE
:1012B800B17170B05090915193535292965657977E
:1012C800559594549C5C5D9D5F9F9E5E5A9A9B5B6E
:1012D80099595898884849894B8B8A4A4E8E8F4F1E
:1012E8008D4D4C8C4484854587474686824243838E
:1012F80041818040419955004185F8004499D600C4
:101308000000004185F3004485F400000000734E9E
:1013180086075A021003C80250155016000000FF35
:101328005A020303C8000000A020031C00FF5A0251
:101338000301C8010039A023031900FF5A0206015E
:10134800C803A084A024010000395A020301C8017F
:101358000039A025010400FF5A020601C802A0872F
:10136800A027010400FF5A020303C8010039A0A006
:10137800011A00FF5A020302C8000000A0A30310CC
:1013880000FF5A020304C801000AAA00032600FF4E
:101398005A020305C801000AAA04034400FF5A02BE
:1013A8000301C801000AAA09034F00FF5A020301FA
:1013B800C801000AAA0A036500FF5A020301C8010E
:1013C800000AAA0B036900FF5A020301C801000AB8
:1013D800AA0C036C00FF5A020301C801000AAA0DF7
:1013E800036F00FF5A020301C801000AAA0E03771F
:1013F80000FF5A020301C801000ACF23011000FFB1
:101408005A020301C801000AAA0F010A00FF5A0282
:10141800031FC801000BAB20038C00FF5A02060112
:10142800C803AC80AC20023A000C5A020306C8007C
:10143800000DAEA0032000FF5A020301C801000FEF
:10144800CF27019700FF5A020301C8010011B120FC
:10145800037200FF5A020303C8010011B12103E31C
:1014680000FF5A020302C8010011B12403DF00FF84
:101478005A020302C8010011B126034100FF5A02B3
:101488000301C8010011B128037700FF5A020301C4
:10149800C8010011B129031800FF5A020301C8014D
:1014A8000011B12A03E600FF5A020301C801001126
:1014B800B12B03EA00FF5A020307C803B300B320A5
:1014C800011A00135A020601C803B380B320011A97
:1014D80000135A020601C803B382B322011C001389
:1014E8005A020601C803B383B323011D00135A022D
:1014F8000601C803B384B324011E00135A0206016F
:10150800C803B385B325011F00135A020601C80397
:10151800B386B326012000135A02030BC803B40094
:10152800B420015800145A020301C803B400B42BB4
:10153800013B00145A020301C803B400B42C019EF5
:1015480000145A020301C803B400B42D02CB0014DE
:101558005A020601C803B480B420015800145A0284
:101568000601C803B481B421015900145A020601C6
:10157800C803B483B423015B00145A020601C803EC
:10158800B484B424015C00145A020601C803B4856B
:10159800B425015D00145A020601C803B486B426B6
:1015A800015E00145A020601C803B487B427015F1C
:1015B80000145A020601C803B488B4280160001454
:1015C8005A020601C803B48AB42A016200145A02F6
:1015D8000601C803B48BB42B013B00145A02060160
:1015E800C803B48CB42C019E00145A020601C80327
:1015F800B48DB42D02CB00145A020302C803B700FD
:10160800B720014800175A020301C803B700B722E0
:10161800017A00175A020301C803B700B72302C7AB
:1016280000175A020305C803B700B726014300177D
:101638005A020601C803B780B720014800175A02AA
:101648000601C803B781B721014900175A020601EC
:10165800C803B782B722017A00175A020601C803E5
:10166800B783B72302C700175A020601C803B78613
:10167800B726014300175A020601C803B787B727E0
:10168800014400175A020601C803B788B728014564
:1016980000175A020601C803B789B729014600177F
:1016A8005A020601C803B78AB72A014700175A0227
:1016B8000301C803B800B820016A00185A020303DE
:1016C800C803B800B821016D00185A020301C80305
:1016D800B800B824017200185A020301C803B80000
:1016E800B825017400185A020301C803B800B826C7
:1016F800017B00185A020301C803B800B827022A60
:1017080000185A020301C803B800B828017300186A
:101718005A020601C803B880B820016A00185A02A4
:101728000601C803B881B821016D00185A020601E4
:10173800C803B882B822016E00185A020601C8030D
:10174800B883B823016F00185A020601C803B88489
:10175800B824017200185A020601C803B885B825D2
:10176800017400185A020601C803B886B826017B1E
:1017780000185A020601C803B887B827022A0018B9
:101788005A020601C803B888B828017300185A021B
:101798000301C803BA00BA20014A001A5A02030119
:1017A800C803BA00BA210142001A5A020302C80348
:1017B800BA00BA220178001A5A020302C803BA0012
:1017C800BA2402C5001A5A020302C803BA00BA268C
:1017D800013C001A5A020302C803BA00BA280139A8
:1017E800001A5A020302C803BA00BA2A0176001A7C
:1017F8005A020302C803BA00BA2C02C8001A5A02D5
:101808000601C803BA80BA20014A001A5A02060122
:10181800C803BA81BA210142001A5A020601C80354
:10182800BA82BA220178001A5A020601C803BA839A
:10183800BA230179001A5A020601C803BA84BA24E5
:1018480002C5001A5A020601C803BA85BA2502C69B
:10185800001A5A020601C803BA86BA26013C001AC1
:101868005A020601C803BA87BA27013D001A5A026C
:101878000601C803BA88BA280139001A5A020601B3
:10188800C803BA89BA29013A001A5A020601C803DC
:10189800BA8ABA2A0176001A5A020601C803BA8B14
:1018A800BA2B0177001A5A020601C803BA8CBA2C5F
:1018B80002C8001A5A020301C803BB00BB2001B0CA
:1018C800001B5A020302C803BB00BB2101B2001B64
:1018D8005A020302C803BB00BB2301B5001B5A020E
:1018E8000302C803BB00BB2501B8001B5A02030151
:1018F800C803BB00BB2701BB001B5A020302C80375
:10190800BB00BB2801D1001B5A020302C803BB005D
:10191800BB2A01FB001B5A020302C803BB00BB2CF5
:101928000276001B5A020601C803BB80BB2001B027
:10193800001B5A020601C803BB81BB2101B2001B70
:101948005A020601C803BB82BB2201B3001B5A021C
:101958000601C803BB83BB2301B5001B5A0206015D
:10196800C803BB84BB2401B6001B5A020601C80386
:10197800BB85BB2501B8001B5A020601C803BB86FC
:10198800BB2601B9001B5A020601C803BB87BB2747
:1019980001BB001B5A020601C803BB88BB2801D142
:1019A800001B5A020601C803BB89BB2901D2001BD0
:1019B8005A020601C803BB8ABB2A01FB001B5A0254
:1019C8000601C803BB8BBB2B01FC001B5A02060196
:1019D800C803BB8CBB2C0276001B5A020601C80345
:1019E800BB8DBB2D0277001B5A020302C803BC0043
:1019F800BC200232001C5A020301C803BC00BC22EE
:101A08000252001C5A020301C803BC00BC23025541
:101A1800001C5A020301C803BC00BC240258001C65
:101A28005A020301C803BC00BC250261001C5A020B
:101A38000302C803BC00BC260271001C5A02030141
:101A4800C803BC00BC280286001C5A020601C80351
:101A5800BC80BC200232001C5A020601C803BC81AB
:101A6800BC210233001C5A020601C803BC82BC22F6
:101A78000252001C5A020601C803BC83BC2302554B
:101A8800001C5A020601C803BC84BC240258001C6E
:101A98005A020601C803BC85BC250261001C5A0213
:101AA8000601C803BC86BC260271001C5A02060146
:101AB800C803BC87BC270272001C5A020601C8036F
:101AC800BC88BC280286001C5A020302C803BF0057
:101AD800BF200102001F5A020301C803BF00BF2232
:101AE8000107001F5A020301C803BF00BF2301A555
:101AF800001F5A020601C803BF80BF200102001F51
:101B08005A020601C803BF81BF210103001F5A0200
:101B18000601C803BF82BF220107001F5A0206013F
:101B2800C803BF83BF2301A5001F5A020308C803C7
:101B3800C200C220018200225A020301C803C20067
:101B4800C228018C00225A020301C803C200C2291C
:101B5800019800225A020601C803C280C2200182ED
:101B680000225A020601C803C281C2210183002251
:101B78005A020601C803C282C222018400225A0204
:101B88000601C803C284C224018600225A02060143
:101B9800C803C285C225018700225A020601C8036C
:101BA800C286C226018800225A020601C803C287DB
:101BB800C227018900225A020601C803C288C22826
:101BC800018C00225A020601C803C289C229019861
:101BD80000225A020601C803C580C520023B000F37
:101BE8005A020301C8010026CF27019700FF5A02B5
:101BF8000301C8010026C620010600FF5A0206019B
:101C0800C803C681C621010600265A020301C8037B
:101C1800C700C72001A600275A020301C803C7004E
:101C2800C72101A900275A020301C803C700C72515
:101C380001AB00275A020301C803C700C72602D90F
:101C480000275A020301C803C700C72702D8002784
:101C58005A020302C803C700C72802CE00275A0247
:101C68000301C803C700C72A01AA00275A020301B3
:101C7800C8010027A025010400FF5A020601C80375
:101C8800C780C72001A600275A020601C803C781DA
:101C9800C72101A900275A020601C803C782C72223
:101CA80001A800275A020301C8010027C7230375AA
:101CB80000FF5A020301C8010027C724037700FF69
:101CC8005A020601C803C785C72501AB00275A0277
:101CD8000601C803C786C72602D900275A0206018B
:101CE800C803C787C72702D800275A020601C803B6
:101CF800C788C72802CE00275A020601C803C78929
:101D0800C72902CF00275A020601C803C78AC72A73
:101D180001AA00275A020301C803C800C8200127E6
:101D280000285A020301C803C800C8210129002855
:101D38005A020304C803C800C822012D00285A0209
:101D48000301C803C800C826019000285A020301ED
:101D5800C803C800C827019400285A020302C80310
:101D6800C800C828012B00285A020601C803C880E9
:101D7800C820012700285A020601C803C881C821C3
:101D8800012900285A020601C803C882C822012D69
:101D980000285A020601C803C883C823012E002858
:101DA8005A020601C803C884C824012F00285A0211
:101DB8000601C803C885C825013000285A02060153
:101DC800C803C886C826019000285A020601C8031D
:101DD800C887C827019400285A020601C803C88882
:101DE800C828012B00285A020601C803C889C82937
:101DF800012C00285A02030EC8010029C9B0037833
:101E080000FF5A020601C803C990C930023C0029E4
:101E18005A020303C803CC00CCA00302002C5A02C8
:101E28000304C803CF00CF20010D002F5A0203017D
:101E3800C803CF00CF240141002F5A020301C80371
:101E4800CF00CF25015A002F5A020301C803CF0043
:101E5800CF2602D0002F5A020301C803CF00CF2794
:101E68000197002F5A020601C803CF80CF20010D29
:101E7800002F5A020601C803CF81CF21010E002F7F
:101E88005A020601C803CF82CF22010F002F5A023F
:101E98000601C803CF83CF230110002F5A02060181
:101EA800C803CF84CF240141002F5A020601C8037A
:101EB800CF85CF25015A002F5A020601C803CF86C5
:101EC800CF2602D0002F5A020601C803CF87CF279A
:101ED8000197002F5A020601C803CF8ACF2A023B76
:101EE800002F5A020301C803D100D12002CA0031D1
:101EF8005A020301C803D100D121014100315A021D
:101F08000301C803D100D12202C900315A020601D7
:101F1800C803D180D12002CA00315A020601C80381
:101F2800D181D121014100315A020601C803D18271
:101F3800D12202C900315A020301C8010031D1235C
:101F480003E200FF5A02030AC8010034D420039CAC
:101F580000FF5A020302C8010034D42A03A800FF74
:101F68005A020307C803D500D520011A00355A02C2
:101F78000601C803D580D520011A00355A0206018A
:101F8800C803D582D522011C00355A020601C803B0
:101F9800D583D523011D00355A020601C803D5840F
:101FA800D524011E00355A020601C803D585D5255A
:101FB800011F00355A020601C803D586D52601201F
:101FC80000355A020301C803D600D620010800369E
:101FD8005A020302C803D600D621010A00365A0263
:101FE8000301C803D600D62301A700365A0206010A
:101FF800C803D680D620010800365A020601C80355
:10200800D681D621010A00365A020601C803D682B3
:10201800D622010B00365A020601C803D683D623FE
:1020280001A700365A020301C803D800D82001F5D9
:1020380000385A020301C803D800D8210207003823
:102048005A02030CC803D800D82201BC00385A022F
:102058000301C803D800D82E027D00385A020301B4
:10206800C803D800D82F027F00385A020301C803DA
:10207800D800D830020F00385A020601C803D880A9
:10208800D82001F500385A020601C803D881D821A2
:10209800020700385A020601C803D882D82201BCB8
:1020A80000385A020601C803D883D82301BD003876
:1020B8005A020601C803D884D82401BE00385A023F
:1020C8000601C803D885D82501BF00385A02060181
:1020D800C803D886D82601C000385A020601C803AA
:1020E800D887D82701C100385A020601C803D88802
:1020F800D82801C200385A020601C803D889D8294D
:1021080001C300385A020601C803D88AD82A01C474
:1021180000385A020601C803D88BD82B01C50038ED
:102128005A020601C803D88CD82C01C600385A02B6
:102138000601C803D88DD82D01C700385A020601F8
:10214800C803D88ED82E027D00385A020601C8036B
:10215800D88FD82F027F00385A020601C803D890BA
:10216800D830020F00385A020301C801003ADA20B9
:1021780003CD00FF5A020301C801003ADA2103CF58
:1021880000FF5A020302C801003ADA2203D100FF15
:102198005A020301C801003ADA2403D500FF5A02A3
:1021A8000301C801003ADA2503D700FF5A020301E8
:1021B800C801003ADA2603D900FF5A020301C80110
:1021C800003ADA2703DB00FF5A020301C801003A8C
:1021D800DA2803DD00FF5A020301C803DB00DB2015
:1021E800019A003B5A020301C803DB00DB2102D33A
:1021F800003B5A020302C803DB00DB2202D5003B86
:102208005A020302C803DB00DB2402D8003B5A024F
:102218000305C803DB00DB2602DB003B5A0203018F
:10222800C803DB00DB2B0106003B5A020301C8038D
:10223800DB00DB2C02E1003B5A020302C803DB008F
:10224800DB2D02E4003B5A020302C803DB00DB2F4C
:102258000178003B5A020601C803DB80DB20019AA3
:10226800003B5A020601C803DB81DB2102D3003B95
:102278005A020601C803DB82DB2202D5003B5A0260
:102288000601C803DB83DB2302D6003B5A020601A2
:10229800C803DB84DB2402D8003B5A020601C803CA
:1022A800DB85DB2502D9003B5A020601C803DB8621
:1022B800DB2602DB003B5A020601C803DB87DB276B
:1022C80002DC003B5A020601C803DB88DB2802DD7A
:1022D800003B5A020601C803DB89DB2902DE003B0A
:1022E8005A020601C803DB8ADB2A02DF003B5A02D6
:1022F8000601C803DB8BDB2B0106003B5A020601F3
:10230800C803DB8CDB2C02E1003B5A020601C80340
:10231800DB8DDB2D02E4003B5A020601C803DB8E8D
:10232800DB2E02E5003B5A020601C803DB8FDB2FD8
:102338000178003B5A020601C803DB90DB300179C3
:10234800003B5A020301C803DD00DD20019B003D6C
:102358005A020304C803DD00DD2101E7003D5A02EB
:102368000302C803DD00DD2501ED003D5A02060128
:10237800C803DD80DD20019B003D5A020601C80329
:10238800DD81DD2101E7003D5A020601C803DD8237
:10239800DD2201E8003D5A020601C803DD83DD2382
:1023A80001E9003D5A020601C803DD84DD2401EA83
:1023B800003D5A020601C803DD85DD2501ED003D1B
:1023C8005A020601C803DD86DD2601EE003D5A02E9
:1023D8000301C801003EDE20037500FF5A02030313
:1023E800C803DF00DF200237003F5A020306C80394
:1023F800DF00DF23029E003F5A020303C803DF0009
:10240800DF290201003F5A020302C803DF00DF2C64
:102418000283003F5A020303C803DF00DF2E028C49
:10242800003F5A020601C803DF80DF200237003F61
:102438005A020601C803DF81DF210238003F5A0231
:102448000601C803DF82DF220239003F5A02060173
:10245800C803DF83DF23029E003F5A020601C80338
:10246800DF84DF24029F003F5A020601C803DF858C
:10247800DF2502A0003F5A020601C803DF86DF26D7
:1024880002A1003F5A020601C803DF87DF2702A224
:10249800003F5A020601C803DF88DF2802A3003F75
:1024A8005A020601C803DF89DF290201003F5A02E8
:1024B8000601C803DF8ADF2A0202003F5A0206012A
:1024C800C803DF8BDF2B0203003F5A020601C80353
:1024D800DF8CDF2C0283003F5A020601C803DF8D20
:1024E800DF2D0284003F5A020601C803DF8EDF2E6B
:1024F800028C003F5A020601C803DF8FDF2F028DCE
:10250800003F5A020601C803DF90DF30028E003F09
:102518005A020301C8010040E02203BE00FF5A022C
:102528000301C8010040E02303C900FF5A0210025A
:10253800C803E080E020000000405A020301C80000
:102548000000E00003CC00FF5A021002C803E0803C
:10255800E020000000415A020301C803C700C72059
:1025680001A600435A020301C803C700C72101A9F5
:1025780000435A020301C803C700C72501AB004343
:102588005A020301C803C700C72602D900435A02EA
:102598000301C803C700C72702D800435A02030231
:1025A800C803C700C72802CE00435A020301C80364
:1025B800C700C72A01AA00435A020301C801004301
:1025C800A025010400FF5A020601C803C780C720DE
:1025D80001A600435A020601C803C781C72101A901
:1025E80000435A020601C803C782C72201A8004354
:1025F8005A020301C8010043C723037500FF5A02AA
:102608000301C8010043C724037700FF5A020601EB
:10261800C803C785C72501AB00435A020601C80392
:10262800C786C72602D900435A020601C803C787CE
:10263800C72702D800435A020601C803C788C7281B
:1026480002CE00435A020601C803C789C72902CF30
:1026580000435A020601C803C78AC72A01AA0043D1
:102668004E85F90000000000000000000000000096
:1026780000428001000065F080035A13B320B35074
:10268800B3805A13B322B352B3825A13B323B3534A
:10269800B3835A13B324B354B3845A13B325B3552D
:1026A800B3855A13B326B356B3865A14B420B4501C
:1026B800B4805A14B421B451B4815A14B423B45315
:1026C800B4835A14B424B454B4845A14B425B455F5
:1026D800B4855A14B426B456B4865A14B427B457D9
:1026E800B4875A14B428B458B4885A14B42AB45ABB
:1026F800B48A5A14B42BB45BB48B5A14B42CB45C9B
:10270800B48C5A14B42DB45DB48D5A17B720B75091
:10271800B7805A17B721B751B7815A17B722B7529E
:10272800B7825A17B723B753B7835A17B726B7567E
:10273800B7865A17B727B757B7875A17B728B7585A
:10274800B7885A17B729B759B7895A17B72AB75A3E
:10275800B78A5A18B820B850B8805A18B821B85152
:10276800B8815A18B822B852B8825A18B823B85340
:10277800B8835A18B824B854B8845A18B825B85524
:10278800B8855A18B826B856B8865A18B827B85708
:10279800B8875A18B828B858B8885A1ABA20BA50F8
:1027A800BA805A1ABA21BA51BA815A1ABA22BA52F6
:1027B800BA825A1ABA23BA53BA835A1ABA24BA54DA
:1027C800BA845A1ABA25BA55BA855A1ABA26BA56BE
:1027D800BA865A1ABA27BA57BA875A1ABA28BA58A2
:1027E800BA885A1ABA29BA59BA895A1ABA2ABA5A86
:1027F800BA8A5A1ABA2BBA5BBA8B5A1ABA2CBA5C6A
:10280800BA8C5A1BBB20BB50BB805A1BBB21BB5187
:10281800BB815A1BBB22BB52BB825A1BBB23BB5377
:10282800BB835A1BBB24BB54BB845A1BBB25BB555B
:10283800BB855A1BBB26BB56BB865A1BBB27BB573F
:10284800BB875A1BBB28BB58BB885A1BBB29BB5923
:10285800BB895A1BBB2ABB5ABB8A5A1BBB2BBB5B07
:10286800BB8B5A1BBB2CBB5CBB8C5A1BBB2DBB5DEB
:10287800BB8D5A1CBC20BC50BC805A1CBC21BC510E
:10288800BC815A1CBC22BC52BC825A1CBC23BC53FF
:10289800BC835A1CBC24BC54BC845A1CBC25BC55E3
:1028A800BC855A1CBC26BC56BC865A1CBC27BC57C7
:1028B800BC875A1CBC28BC58BC885A1FBF20BF50B4
:1028C800BF805A1FBF21BF51BF815A1FBF22BF52AD
:1028D800BF825A1FBF23BF53BF835A22C220C25090
:1028E800C2805A22C221C251C2815A22C222C25275
:1028F800C2825A22C224C254C2845A22C225C25554
:10290800C2855A22C226C256C2865A22C227C25736
:10291800C2875A22C228C258C2885A22C229C2591A
:10292800C2895A27C720C750C7805A27C721C7510D
:10293800C7815A27C725C755C7855A27C726C756E7
:10294800C7865A27C727C757C7875A27C728C758C8
:10295800C7885A27C729C759C7895A27C72AC75AAC
:10296800C78A5A28C820C850C8805A28C821C851C0
:10297800C8815A28C822C852C8825A28C823C853AE
:10298800C8835A28C824C854C8845A28C825C85592
:10299800C8855A28C826C856C8865A28C827C85776
:1029A800C8875A28C828C858C8885A28C829C8595A
:1029B800C8895A2FCF20CF50CF805A2FCF21CF513F
:1029C800CF815A2FCF22CF52CF825A2FCF23CF5326
:1029D800CF835A2FCF24CF54CF845A2FCF25CF550A
:1029E800CF855A2FCF26CF56CF865A2FCF27CF57EE
:1029F800CF875A31D120D150D1805A31D121D151EC
:102A0800D1815A31D122D152D1825A35D520D550CF
:102A1800D5805A35D522D552D5825A35D523D553A6
:102A2800D5835A35D524D554D5845A35D525D55589
:102A3800D5855A35D526D556D5865A36D620D65078
:102A4800D6805A36D621D651D6815A36D622D65273
:102A5800D6825A36D623D653D6835A38D820D85059
:102A6800D8805A38D821D851D8815A38D822D85243
:102A7800D8825A38D823D853D8835A38D824D85427
:102A8800D8845A38D825D855D8855A38D826D8560B
:102A9800D8865A38D827D857D8875A38D828D858EF
:102AA800D8885A38D829D859D8895A38D82AD85AD3
:102AB800D88A5A38D82BD85BD88B5A38D82CD85CB7
:102AC800D88C5A38D82DD85DD88D5A38D82ED85E9B
:102AD800D88E5A38D82FD85FD88F5A38D830D8607F
:102AE800D8905A3BDB20DB50DB805A3BDB21DB51A3
:102AF800DB815A3BDB22DB52DB825A3BDB23DB5395
:102B0800DB835A3BDB24DB54DB845A3BDB25DB5578
:102B1800DB855A3BDB26DB56DB865A3BDB27DB575C
:102B2800DB875A3BDB28DB58DB885A3BDB29DB5940
:102B3800DB895A3BDB2ADB5ADB8A5A3BDB2BDB5B24
:102B4800DB8B5A3BDB2CDB5CDB8C5A3BDB2DDB5D08
:102B5800DB8D5A3BDB2EDB5EDB8E5A3BDB2FDB5FEC
:102B6800DB8F5A3BDB30DB60DB905A3DDD20DD50EC
:102B7800DD805A3DDD21DD51DD815A3DDD22DD520A
:102B8800DD825A3DDD23DD53DD835A3DDD24DD54EE
:102B9800DD845A3DDD25DD55DD855A3DDD26DD56D2
:102BA800DD865A3FDF20DF50DF805A3FDF21DF51CB
:102BB800DF815A3FDF22DF52DF825A3FDF23DF53B4
:102BC800DF835A3FDF24DF54DF845A3FDF25DF5598
:102BD800DF855A3FDF26DF56DF865A3FDF27DF577C
:102BE800DF875A3FDF28DF58DF885A3FDF29DF5960
:102BF800DF895A3FDF2ADF5ADF8A5A3FDF2BDF5B44
:102C0800DF8B5A3FDF2CDF5CDF8C5A3FDF2DDF5D27
:102C1800DF8D5A3FDF2EDF5EDF8E5A3FDF2FDF5F0B
:102C2800DF8F5A3FDF30DF60DF905A43C720C7503D
:102C3800C7805A43C721C751C7815A43C725C755BB
:102C4800C7855A43C726C756C7865A43C727C75793
:102C5800C7875A43C728C758C7885A43C729C75977
:102C6800C7895A43C72AC75AC78A418000005CAD42
:102C7800210000000000000000000000000000002B
:102C8800000000000000000000000000005CACF93B
:102C98000000000000000001000000020002736054
:102CA800000A2D08000310CC0007ED6541ACF5FFC4
:102CB800608CAC69000001000200030004000500FC
:102CC80006000700080009000A000B000C000D00B0
:102CD8000E000F011000110012021300140015005D
:102CE80016001700180019001A001B021C001D000E
:102CF8001E001F00200021002200230024032500BD
:102D080026022700280029002A002B002C002D006D
:102D18002E002F033000310032003300340035001C
:102D280036003700380039003A003B003C003D00CF
:102D38003E003F004005410042004300440045007A
:102D48004CAD15000101030203030604020500420D
:102D5800ACF7000042AC67000042AC64000041AC34
:102D6800660000AF13EF1313543F5401640160036E
:102D780002372F7B017AA8794390AA4EF0A3740CEE
:102D8800F07F217EA012574390A845E0FEA3E0FF04
:102D980090A843E0FCA3E02FFFEC3EFE90AD83E05B
:102DA800FCA3E06F7002EE6C605890A845E0FEA3AB
:102DB800E0FF90A843E0FCA3E02FFFEC3EFE90ADBF
:102DC80083E0FCA3E0C39FEC9E501D90A84DE4F067
:102DD800A304F0FB7AA8794D90AA60E4F0A37402EA
:102DE800F07F267EA01259B090A845E0FEA3E0FF30
:102DF80090A843E0FCA3E02FFFEC3E90AD83F0A346
:102E0800EFF090A843E0FEA3E0D39400EE940050C6
:102E18000CA3E0FEA3E09400EE9400402090A84D9F
:102E2800E0FEA3E04E60167B017AAD797190AA604E
:102E3800E4F0A37402F07FA07E001259B090AE595E
:102E4800E0FEA3E0640D4E60030231EC90AE59E061
:102E5800A3E0FF90AD9DE0FCA3E06F7002EC6E6014
:102E68001EE490ADA2F0A3F07B017AAD79A290AAFE
:102E780060F0A37402F07F017EAE1259B080167B19
:102E8800017AAD79A290AA4EE4F0A37402F07F0112
:102E98007EAE1257437B017AA8794390AA4EE4F09C
:102EA800A37410F07FA07EAE125743E490A851F0AF
:102EB800A3E05407F07B017AAD797378437CA87D51
:102EC800017E007F10123D91EF702F90AD9FE0FEC4
:102ED800A3E0FF90ADA2E0FCA3E0B5071DECB506AA
:102EE8001990AE59E0FEA3E0FF90AD9DE0FCA3E091
:102EF8006F7002EC6E70030234E17B017AA87943AB
:102F080078737CAD7D017E007F10123800E490ADAF
:102F1800A1F090A876F090A876E0C3940874809405
:102F2800804003023194E490A875F090A875E0C33E
:102F3800941074809480400302318BA3E0C454F051
:102F4800FF90A875E02F90A87AF0E075F018A424F7
:102F580000FFE5F03435FE7B017AA8794390AA4E4C
:102F6800E4F0A37430F01257437B017AA8794390B8
:102F7800A877123BAF90A875E0FF7E007401A80700
:102F8800088005C333CE33CED8F9FF90A876E02564
:102F9800E02473F582E434ADF583E0FCA3E0FDEEB4
:102FA8005CFEEF5D4E70030230E290A877123B8F13
:102FB800123947645A7004E5F064A5700302307F43
:102FC80090A877123B8F74A575F05A1239AA7B0125
:102FD8007AA8795790AA4EE4F0A37408F07F107E7F
:102FE800001257437B017AA8795778457CA87D0160
:102FF8007E007F031238007B017AA8795B78487CD1
:10300800A87D017E007F031238007E007F087D00C6
:103018007B017AA8794B123DB590A87AE0FF90A879
:1030280051E4F0A3EFF07B017AA87953C002C00104
:1030380090A87A75F020A424E3F9749935F0FA90F1
:10304800A88E123BAF90A891E4F0A37420F0D001B1
:10305800D002127C3190A87AE075F018A42400FF01
:10306800E5F03435FE7B017AA8794390AA60E4F054
:10307800A37430F01259B090ADA2E0FEA3E0FF7C3B
:10308800007D0A12387E90ADA1E0C39FEC9E4041BE
:10309800A3E0FEA3E0FF12387EEF240AFFE43EFE21
:1030A80090ADA1E0C39FEC9E502790A87AE075F000
:1030B80018A42400FDE5F03435FC90ADA2E0A3E0AF
:1030C80075F00AA4FF90ADA1E0C39FFF7B0D126DC0
:1030D8004390ADA1E004F002318290A877123B8FB3
:1030E800123947645A7004E5F064A560030231821E
:1030F8007B017AA8795790AA4EF0A37408F07F1044
:103108007E001257437B017AA87957784B7CA87DBB
:10311800017E007F031238007B017AA8795B784E24
:103128007CA87D017E007F0312380090A87AE0FF1A
:1031380090A851E4F0A3EFF07B017AA8794390AA14
:1031480060E4F0A37410F07F007E301259B012735F
:10315800E7E490A843F0A3F090A87AE075F018A4EB
:103168002400FFE5F03435FE7B017AA8794390AA64
:1031780060E4F0A37402F01259B090A875E004F06E
:10318800022F3390A876E004F0022F1E90ADA1E044
:1031980090A875F090ADA2E0FEA3E0FF7C007D0A48
:1031A80012387EEF240AFFE43EFE90A875E0C39F24
:1031B800EC9E501D90ADA2E0A3E075F00AA4FF902C
:1031C800A875E0C39FFF126C0490A875E004F08016
:1031D800C390ADA2E0FEA3E0FF90AD9FEEF0A3EF99
:1031E800F00234E17B017AA8794390AA4EE4F0A377
:1031F8007410F07FA07EAE125743E490A851F0A35C
:10320800E05407F07B017AAD797378437CA87D019F
:103218007E007F10123D91EF70030234E17B017A4A
:10322800A8794378777CA87D017E007F101238004A
:10323800E490A876F090A876E0C394067480948011
:1032480040030234CEE490A875F090A875E0C394CA
:10325800107480948040030234C5E0FF7E0074013E
:10326800A807088005C333CE33CED8F9FF90A876D7
:10327800E025E02477F582E434A8F583E0FCA3E0B8
:10328800FDEE5CFCEF5DFD90A875E0FF7E0074012B
:10329800A807088005C333CE33CED8F9FF90A876A7
:1032A800E025E02473F582E434ADF583E0FAA3E089
:1032B800FBEE5AFEEF5B6D7002EE6C70030234BCDD
:1032C80090A876E0C454F0FF90A875E02F90A88AE3
:1032D800F0E075F018A42400FFE5F03435FE7B011A
:1032E8007AA8794390AA4EE4F0A37430F0125743B9
:1032F8007B017AA8794390A887123BAF90A875E024
:10330800FF7E007401A807088005C333CE33CED8EA
:10331800F9FF90A876E025E02477F582E434A8F553
:1033280083E0FCA3E0FDEE5CFEEF5D4E700302342B
:103338000990A887123B8F123947645A7004E5F048
:1033480064A570030234BC90A887123B8F74A575DE
:10335800F05A1239AA7B017AA8795790AA4EE4F05C
:10336800A37408F07F107E001257437B017AA87976
:103378005778457CA87D017E007F031238007B01C9
:103388007AA8795B78487CA87D017E007F03123893
:10339800007E007F087D007B017AA8794B123DB53D
:1033A80090A88AE0FF90A851E4F0A3EFF07B017A9F
:1033B800A87953C002C00190A88A75F020A424E31C
:1033C800F9749935F0FA90A88E123BAF90A891E461
:1033D800F0A37420F0D001D002127C3190A88AE0CA
:1033E80075F018A42400FFE5F03435FE7B017AA8B7
:1033F800794390AA60E4F0A37430F01259B0023413
:10340800BC90A887123B8F123947645A7004E5F0C4
:1034180064A560030234BC7B017AA8795790AA4E50
:10342800F0A37408F07F107E001257437B017AA83E
:103438007957784B7CA87D017E007F031238007B8A
:10344800017AA8795B784E7CA87D017E007F031203
:10345800380090A88AE0FF90A851E4F0A3EFF07B31
:10346800017AA8794390AA60E4F0A37410F07F0071
:103478007E301259B01273E7E490A843F0A3F0909D
:10348800A88AE075F018A42400FFE5F03435FE7B27
:10349800017AA8794390AA60E4F0A37402F0125963
:1034A800B090ADA2E0FEA3E02401FFE43E90AD9F02
:1034B800F0A3EFF090A875E004F002325290A876DD
:1034C800E004F002323D7B017AA8797778737CAD0D
:1034D8007D017E007F1012380090AE59E0FEA3E017
:1034E800640E4E600302371F90AE59E0A3E0FF90D0
:1034F800AD9DE0FCA3E06F7002EC6E601EE490AD41
:10350800A2F0A3F07B017AAD79A290AA60F0A3742F
:1035180002F07F017EAE1259B080347B017AAD791A
:10352800A290AA4EE4F0A37402F07F017EAE125777
:103538004390AD9FE0FEA3E0FF90ADA2E0FCA3E0C6
:103548006F7002EC6E700302371F800302371F9002
:10355800ADA2E0FEA3E0FF90AD9FEEF0A3EFF0E494
:10356800A3F090ADA1E0C3940A7480948040030254
:103578003705A3E0FEA3E0FF7C007D0A12387E90A9
:10358800ADA1E02FFFEC3EFE90AD9BE0FCA3E0FD7B
:10359800C3EF9DEE9C400302370590ADA2E0FEA369
:1035A800E0FF7C007D0A12387E90ADA1E02FFFEC91
:1035B8003EFE90AD97E0FCA3E0D39FEC9E40329096
:1035C800ADA2E0FEA3E0FF7C0012387E90ADA1E042
:1035D8002FFFEC3EFEEF2401FFE43EFE90AD97E0A6
:1035E800FCA3E0C39FFFEC9E90A877F0A3EFF080C8
:1035F8003A90ADA2E0FEA3E0FF7C007D0A12387E7F
:1036080090ADA1E02FFFEC3EFEEF2401FFE43EFE6B
:1036180090AD97E0FCA3E02400FDEC3402FCC3ED80
:103628009FFFEC9E90A877F0A3EFF090A877E0FEBC
:10363800A3E07803C333CE33CED8F92400FFEE34A9
:1036480020FEE4FCFD90AA4C123B4690AA50E4F000
:10365800A37408F07D007C307F5A12788E7B017A43
:10366800A8794390AA4EE4F0A37410F07F007E304E
:103678001257437B017AA87953C003C002C0019056
:10368800A851E0FEA3E07805C333CE33CED8F924A1
:10369800E3F974993EFA7B0190A88E123BAF90A88B
:1036A80091E4F0A37420F0D001D002D003127C3151
:1036B80090ADA1E025E024A4F582E434ADF583E0E3
:1036C800FEA3E0FF7B017AA8794390AA60E4F0A307
:1036D8007430F01259B090ADA1E025E024A4F58231
:1036E800E434ADF583E0FCA3E0FD90ADA1E0FF7B01
:1036F8000E126D4390ADA1E004F002356A90ADA1C1
:10370800E0C3940A74809480500DE0FF126C04901A
:10371800ADA1E004F080E690AE59E0FEA3E0FF9092
:10372800AD9DEEF0A3EFF022E709F608DFFA804638
:10373800E709F208DFFA803E88828C83E709F0A364
:10374800DFFA8032E309F608DFFA8078E309F20845
:10375800DFFA807088828C83E309F0A3DFFA806443
:1037680089828A83E0A3F608DFFA805889828A83EF
:10377800E0A3F208DFFA804C80D280FA80C680D4B9
:10378800806980F28033801080A680EA809A80A8C1
:1037980080DA80E280CA803389828A83ECFAE493F3
:1037A800A3C8C582C8CCC583CCF0A3C8C582C8CC81
:1037B800C583CCDFE9DEE7800D89828A83E493A3A1
:1037C800F608DFF9ECFAA9F0EDFB2289828A83EC8E
:1037D800FAE0A3C8C582C8CCC583CCF0A3C8C5820B
:1037E800C8CCC583CCDFEADEE880DB89828A83E443
:1037F80093A3F208DFF980CC88F0EF60010E4E60E9
:10380800C388F0ED2402B4040050B9F582EB240219
:10381800B4040050AF232345822390378073BB0143
:103828000689828A83E0225002E722BBFE02E32255
:1038380089828A83E49322BB010CE58229F582E51B
:10384800833AF583E0225006E92582F8E622BBFE9A
:1038580006E92582F8E222E58229F582E5833AF530
:1038680083E49322BB010689828A83F0225002F7FF
:1038780022BBFE01F322EF8DF0A4A8F0CF8CF0A4B8
:1038880028CE8DF0A42EFE22BC000BBE0029EF8DA1
:10389800F084FFADF022E4CCF875F008EF2FFFEECE
:1038A80033FEEC33FCEE9DEC984005FCEE9DFE0FDC
:1038B800D5F0E9E4CEFD22EDF8F5F0EE8420D21C37
:1038C800FEADF075F008EF2FFFED33FD400798507F
:1038D80006D5F0F222C398FD0FD5F0EA22C2D5EC46
:1038E80030E709B2D5E4C39DFDE49CFCEE30E71552
:1038F800B2D5E4C39FFFE49EFE123890C3E49DFD59
:10390800E49CFC800312389030D507C3E49FFFE4A1
:103918009EFE22C5F0F8A3E028F0C5F0F8E5821570
:103928008270021583E038F022A3F8E0C5F025F094
:10393800F0E582158270021583E0C838F0E822BBF2
:10394800010A89828A83E0F5F0A3E022500687F015
:1039580009E71922BBFE07E3F5F009E3192289827A
:103968008A83E493F5F074019322BB0110E5822960
:10397800F582E5833AF583E0F5F0A3E0225009E902
:103988002582F886F008E622BBFE0AE92582F8E2DD
:10399800F5F008E222E5832AF583E993F5F0A3E937
:1039A8009322BB010A89828A83F0E5F0A3F02250B2
:1039B80006F709A7F01922BBFE06F3E5F009F3198B
:1039C80022EF2BFFEE3AFEED39FDEC38FC22E88FB2
:1039D800F0A4CC8BF0A42CFCE98EF0A42CFC8AF08B
:1039E800EDA42CFCEA8EF0A4CDA8F08BF0A42DCC8D
:1039F8003825F0FDE98FF0A42CCD35F0FCEB8EF0E6
:103A0800A4FEA9F0EB8FF0A4CFC5F02ECD39FEE4CB
:103A18003CFCEAA42DCE35F0FDE43CFC2275F00810
:103A2800758200EF2FFFEE33FECD33CDCC33CCC5FE
:103A38008233C5829BED9AEC99E58298400CF58219
:103A4800EE9BFEED9AFDEC99FC0FD5F0D6E4CEFB8B
:103A5800E4CDFAE4CCF9A88222B800C1B90059BA79
:103A6800002DEC8BF084CFCECDFCE5F0CBF97818A7
:103A7800EF2FFFEE33FEED33FDEC33FCEB33FB10A1
:103A8800D703994004EB99FB0FD8E5E4F9FA2278BB
:103A980018EF2FFFEE33FEED33FDEC33FCC933C9CD
:103AA80010D7059BE99A4007EC9BFCE99AF90FD8D7
:103AB800E0E4C9FAE4CCFB2275F010EF2FFFEE33F7
:103AC800FEED33FDCC33CCC833C810D7079BEC9A36
:103AD800E899400AED9BFDEC9AFCE899F80FD5F0BF
:103AE800DAE4CDFBE4CCFAE4C8F922EB9FF5F0EA7E
:103AF8009E42F0E99D42F0EC6480C864809845F0ED
:103B080022EB9FF5F0EA9E42F0E99D42F0E89C45E1
:103B1800F022E86010ECA2E713FCED13FDEE13FEB3
:103B2800EF13FFD8F022E0FCA3E0FDA3E0FEA3E042
:103B3800FF22E0F8A3E0F9A3E0FAA3E0FB22ECF00F
:103B4800A3EDF0A3EEF0A3EFF022A8828583F0D0D6
:103B580083D082123B69123B69123B69123B69E4CC
:103B680073E493A3C583C5F0C583C8C582C8F0A311
:103B7800C583C5F0C583C8C582C822A42582F5823D
:103B8800E5F03583F58322E0FBA3E0FAA3E0F92210
:103B9800F8E0FBA3A3E0F925F0F0E58215827002B6
:103BA8001583E0FA38F022EBF0A3EAF0A3E9F0225B
:103BB800D083D082F8E4937012740193700DA3A39C
:103BC80093F8740193F5828883E4737402936860B0
:103BD800EFA3A3A380DFD083D082F8E4937012749C
:103BE8000193700DA3A393F8740193F5828883E47D
:103BF80073740293B5F0067403936860E9A3A3A3F2
:103C0800A380D8E3F5F009E208B5F06BDFF580672B
:103C1800E3F5F009E608B5F05EDFF5805A87F009AC
:103C2800E608B5F052DFF6804E87F009E208B5F0F5
:103C380046DFF6804288828C8387F009E0A3B5F0DE
:103C480036DFF6803288828C8387F009E493A3B547
:103C5800F025DFF5802188828C83E3F5F009E0A365
:103C6800B5F014DFF5801088828C83E3F5F009E461
:103C780093A3B5F002DFF4023D3A808780E9809093
:103C880080D4803E8015806E807E809D80B7808D38
:103C980080A380518074803C023D4689828A83ECEF
:103CA800FAE493F5F0A3C8C582C8CCC583CCE493E5
:103CB800A3C8C582C8CCC583CCB5F076DFE3DEE106
:103CC800807089828A83E493F5F0A3E208B5F062F4
:103CD800DFF4805E89828A83E0F5F0A3E608B5F018
:103CE80051DFF5804D89828A83E0F5F0A3E208B5BB
:103CF800F040DFF5803C89828A83E493F5F0A3E6FF
:103D080008B5F02EDFF4802A8002805789828A83E2
:103D1800ECFAE493F5F0A3C8C582C8CCC583CCE01F
:103D2800A3C8C582C8CCC583CCB5F006DFE4DEE203
:103D380080007FFFB5F0020F2240027F01228982B6
:103D48008A83ECFAE0F5F0A3C8C582C8CCC583CC59
:103D5800E0A3C8C582C8CCC583CCB5F0D5DFE5DE05
:103D6800E380CF89828A83ECFAE0F5F0A3C8C582A4
:103D7800C8CCC583CCE493A3C8C582C8CCC583CCC2
:103D8800B5F0AFDFE4DEE280A988F0EF60010E4E07
:103D980060ABED2402B404005098F582EB2402B421
:103DA8000400508E2323458223903C8273EF4E609B
:103DB80012EF60010EEDBB010B89828A83F0A3DF4D
:103DC800FCDEFA2289F05007F709DFFCA9F022BBD4
:103DD800FEFCF309DFFCA9F022F8BB010DE58229FE
:103DE800F582E5833AF583E8F0225006E92582C892
:103DF800F622BBFE05E92582C8F2227BFF7A877985
:103E0800DA787E7CA87D017E007F3E1238007BFF39
:103E18007A88791878BD7CA87D017E007F241238C5
:103E2800007B017AA8797E90AA4EE4F0A3743EF054
:103E38007F207EAB125743E490A8BCF090A8BCE06A
:103E4800C394107480948040030240A4E0FF7E0075
:103E58007401A807088005C333CE33CED8F9FF9084
:103E6800A884E0FCA3E0FDEE5CFEEF5D4E7003026B
:103E7800408890A8BCE0FF7E007401A80708800570
:103E8800C333CE33CED8F9FF90A888E0FCA3E0FD79
:103E9800EE5CFEEF5D4E700302403590A8BCE0FF7B
:103EA8001313543F2407FFE43390A8E3F0A3EFF083
:103EB80090A8E3E0FEA3E025E0FFEE33FE747E2F3A
:103EC800F58274A83EF583E0FEA3E0FF90A8BCE06D
:103ED800540325E025E0FDEFA805088005CEC313AF
:103EE800CE13D8F9540FFF90A8E1E4F0A3EFF090B7
:103EF800A8E1E0FEA3E08EF0123BDE3F2700003F82
:103F08003F00013F5700023F6F00043F8600053F16
:103F18009D00063FB400083FCB000900003FE29037
:103F2800A8BCE025E024BDF582E434A8F583E4F0DC
:103F3800A37405F0023FF790A8BCE025E024BDF586
:103F480082E434A8F583E4F0A37406F0023FF79006
:103F5800A8BCE025E024BDF582E434A8F583E4F0AC
:103F6800A37407F0023FF790A8BCE025E024BDF554
:103F780082E434A8F583E4F0A37408F0807190A873
:103F8800BCE025E024BDF582E434A8F583E4F0A381
:103F98007409F0805A90A8BCE025E024BDF582E4BD
:103FA80034A8F583E4F0A3740AF0804390A8BCE039
:103FB80025E024BDF582E434A8F583E4F0A3740376
:103FC800F0802C90A8BCE025E024BDF582E434A85C
:103FD800F583E4F0A37404F0801590A8BCE025E014
:103FE80024BDF582E434A8F583E4F0A37405F090C9
:103FF800A8BCE0FF7E007401A807088005C333CE83
:1040080033CED8F9FF90A880E0FCA3E0FDEE5CFE7B
:10401800EF5D4E607E90A8BCE025E024BDF582E40B
:1040280034A8F583E475F00812391B806690A8BCA3
:10403800E0FF7E007401A807088005C333CE33CEA5
:10404800D8F9FF90A880E0FCA3E0FDEE5CFEEF5DF0
:104058004E601790A8BCE025E024BDF582E434A8A2
:10406800F583E4F0A37402F0802990A8BCE025E071
:1040780024BDF582E434A8F583E4F0A304F08013AA
:1040880090A8BCE025E024BDF582E434A8F583E4DB
:10409800F0A3F090A8BCE004F0023E4490A8BC74E1
:1040A80010F090A8BCE0C39412748094804003027E
:1040B8004315E024F0FF7E007401A807088005C3BB
:1040C80033CE33CED8F9FF90A886E0FCA3E0FDEE0E
:1040D8005CFEEF5D4E70030242F990A8BCE024F04C
:1040E800FF7E007401A807088005C333CE33CED8FD
:1040F800F9FF90A88AE0FCA3E0FDEE5CFEEF5D4EC0
:1041080070030242A490A8BCE0FF1313543F240795
:10411800FFE43390A8E3F0A3EFF090A8E3E0FEA358
:10412800E025E0FFEE33FE747E2FF58274A83EF59D
:1041380083E0FEA3E0FF90A8BCE0540325E025E05F
:10414800FDEFA805088005CEC313CE13D8F9540F88
:10415800FF90A8E1E4F0A3EFF090A8E1E0FEA3E06F
:104168008EF0123BDE4191000041A9000141C100DF
:104178000241D9000441F0000542070006421E0032
:1041880008423500090000424C90A8BCE025E02414
:10419800BDF582E434A8F583E4F0A37405F0024287
:1041A8006190A8BCE025E024BDF582E434A8F5833D
:1041B800E4F0A37406F002426190A8BCE025E02474
:1041C800BDF582E434A8F583E4F0A37407F0024255
:1041D8006190A8BCE025E024BDF582E434A8F5830D
:1041E800E4F0A37408F0807190A8BCE025E024BD39
:1041F800F582E434A8F583E4F0A37409F0805A90BA
:10420800A8BCE025E024BDF582E434A8F583E4F0F9
:10421800A3740AF0804390A8BCE025E024BDF58291
:10422800E434A8F583E4F0A37403F0802C90A8BCD0
:10423800E025E024BDF582E434A8F583E4F0A37416
:1042480004F0801590A8BCE025E024BDF582E43494
:10425800A8F583E4F0A37405F090A8BCE024F0FF6F
:104268007E007401A807088005C333CE33CED8F981
:10427800FF90A882E0FCA3E0FDEE5CFEEF5D4E70CF
:104288000302430C90A8BCE025E024BDF582E43489
:10429800A8F583E475F00812391B806890A8BCE083
:1042A80024F0FF7E007401A807088005C333CE33CD
:1042B800CED8F9FF90A882E0FCA3E0FDEE5CFEEF0B
:1042C8005D4E601790A8BCE025E024BDF582E4347B
:1042D800A8F583E4F0A37402F0802990A8BCE02537
:1042E800E024BDF582E434A8F583E4F0A304F0806B
:1042F8001390A8BCE025E024BDF582E434A8F5833A
:10430800E4F0A3F090A8BCE004F00240AA7B017A94
:10431800A879BD90AA60E4F0A37424F07FA07EABD6
:104328001259B022E51330E0167B017AAE79599024
:10433800AA4EE4F0A37402F07F147E00125743E5FE
:104348001320E2030247E290AE59E0FEA3E04E706C
:104358002690AE52E0C39406748094805005E00421
:10436800F0801490AE52E06406700C7F39FE128122
:104378000B90AE52E004F090AE59E0FEA3E0640B5F
:104388004E7003123E0390AE59E0FEA3E064294E3E
:10439800600302446F7B017AA8794690AA4EF0A385
:1043A800741CF07FB07EC9125743E490A843F09084
:1043B800A843E0C39407748094804003024459E002
:1043C80025E025E02446F582E434A8F583E0FEA341
:1043D800E0C4F8540FC868FDEEC454F048FC90A837
:1043E80043E025E025E02448F582E434A8F583E09D
:1043F800FEA3E0EEC4540F2DFFE43C90A844F0A3C4
:10440800EFF090A844E0FEA3E0FF7C007D1812388E
:104418009090A843E025E02462F582E434A8F5836F
:10442800EEF0A3EFF090A844E0FEA3E0FF7C007D4F
:104438001812389090A843E025E02470F582E434FF
:10444800A8F583ECF0A3EDF090A843E004F0024354
:10445800B77B017AA8796290AA60E4F0A3741CF093
:104468007F207EC91259B090AE59E0FEA3E0642CBB
:104478004E60030245507B017AA8795390AA4EF00A
:10448800A37406F07FA07ECC12574390A853E0FE99
:10449800A3E0FFEEC4F854F0C868FEEFC4540F4818
:1044A80090A843EEF0A3E4F090A843E0FCA3E0FD5D
:1044B80090A853E0FEA3E07807CEC313CE13D8F933
:1044C800541FFFECFEED4FFF90A843EEF0A3EFF072
:1044D80090A853E0A3E0547F90A845F0A3E4F0909F
:1044E800A845E0FCA3E0FD90A857E0FEA3E0EEFF9E
:1044F800ECFEED4FFF90A845EEF0A3EFF090A85723
:10450800E0A3E090A847F0A3E4F090A855E0FEA34C
:10451800E0FF90A849EEF0A3EFF0A37402F0A31413
:10452800F0A37409F0A3E4F0A37403F0A3E4F0A3E8
:10453800F0A3F07B017AA8794390AA60F0A37410E5
:10454800F07F207ECC1259B090AE59E0FEA3E06413
:104558002F4E60030246317B017AA8794390AA4E18
:10456800F0A37402F07F107ECF1257437B017AA824
:10457800794790AA4EE4F0A37402F07F227ECF120E
:10458800574390A843E0FEA3E0FF90AE53E0FCA39E
:10459800E06F7002EC6E606090A843E0A3E090AE1C
:1045A80053EEF0A3EFF090A847E0FEA3E0543FFFDE
:1045B80090A847EEF0A3EFF090A847E0FCA3E0FD39
:1045C80090A843E0A3E07E0054037806C333CE33BB
:1045D800CED8F9FFEC4EFEED4FFF90A847EEF0A3C2
:1045E800EFF07B017AA8794790AA60E4F0A37402FF
:1045F800F07F227ECF1259B090A847E0FEA3E07862
:1046080006CEC313CE13D8F95403FF90A849E4F09B
:10461800A3EFF07B017AA8794990AA60E4F0A3742B
:1046280002F07F117ECF1259B090AE59E0FEA3E0A0
:1046380064274E600B90AE59E0A3E064434E705679
:1046480090AE55E0C3940574809480504290A8437E
:10465800E4F0A304F0FB7AA8794390AA60E4F0A3FD
:104668007402F07F277EA01259B090A843E4F0A30B
:10467800745AF07B017AA8794390AA60E4F0A37495
:1046880002F07F877EA01259B090AE55E004F0E4A6
:1046980090AE56F0807290AE56E0C3940574809444
:1046A800805060E490A843F0A3F07B017AA8794396
:1046B80090AA4EF0A37402F07F297EC71257439048
:1046C800A843E0FEA3E04E70347B017AA8794390BA
:1046D800AA60F0A37402F07F277EA01259B090A8B8
:1046E80043E4F0A3745AF07B017AA8794390AA6056
:1046F800E4F0A37402F07F877EA01259B090AE5602
:10470800E004F0E490AE55F07B017AA8794390AAD2
:104718004EE4F0A37402F07F167E0012574390A86F
:1047280043E0FEA3E04E6025E490A843F0A3F07BAD
:10473800017AA8794390AA60F0A37402F07F167EEC
:10474800001259B0E490AE57F0A3F0804690AE57EF
:10475800E0FEA3E0C39458EE9402500C90AE57E4E8
:1047680075F00112391B802B90AE57E0FEA3E0B420
:104778005821EEB4021D90AE57E475F00112391BB2
:1047880090AE59E0FEA3E064394E60077F397E00A1
:1047980012810B7B017AA8794390AA4EE4F0A374A6
:1047A80002F07F007EE012574390A843E0FEA3E0AA
:1047B800EE30E01490AE59E0FEA3E064414E601A7A
:1047C8007F417E0012810B2290AE59E0FEA3E06487
:1047D800414E70067F39FE12810B22E51330E10D40
:1047E80090AE5BE475F00112391B126E7890AE5BE7
:1047F800E0FEA3E0C394B8EE940B5003024B6FE4C1
:1048080090AE5BF0A3F090AE5FE0FEA3E02400FF63
:10481800EE341090A843F0A3EFF07B017AA8794515
:1048280090AA4EE4F0A37402F07FA37EA01257432F
:1048380090A845E475F0C812391B90A843E0FEA380
:10484800E0FF7B017AA8794590AA60E4F0A374029E
:10485800F01259B090AE5FE0FEA3E02400FFEE3402
:104868001890A843F0A3EFF07B017AA8794590AAA5
:104878004EE4F0A37402F07FA47EA012574390A8E0
:1048880043E0FEA3E0FF7B017AA8794590AA60E4A3
:10489800F0A37402F01259B090AE5FE0FEA3E0FFFF
:1048A80090A849EEF0A3EFF090AE5FE475F0011226
:1048B800391B90AE5FE0FEA3E0C3EE94084007E426
:1048C80090AE5FF0A3F07B017AAE795F90AA60E4C6
:1048D800F0A37402F07F007E031259B07B017AAE18
:1048E800795F90AA60E4F0A37402F0FF7E03125986
:1048F800B090A8477408F0A3E4F07B017AA8794740
:1049080090AA60F0A37402F07F087E501259B07B21
:10491800017AA8794790AA60E4F0A37402F07F09AD
:104928007E501259B090A8477402F0A3748AF07BA5
:10493800017AA8794790AA60E4F0A37402F07F1185
:104948007E501259B090AE26E075F03CA4FFA3E06B
:104958007C002FFFEC35F090AE5DF0A3EFF090AE49
:104968005DE0FEA3E0FF1266B290AE5FE0A3E03028
:10497800E003024B6F90AE5FE0FEA3E04E700302CF
:104988004A6190A84974FFF5F012391B90A849E0D4
:10499800FEA3E02400FFEE3410FE7B017AA87943E1
:1049A80090AA4EE4F0A37404F012574390A84774F9
:1049B800A5F0A3745AF07B017AA8794390AA60E421
:1049C800F0A37406F07F007E501259B090A849E019
:1049D800FEA3E0FFE4FCFD90AA4C123B4690AA50CF
:1049E800E4F0A37404F07D007C507FA512788E90CB
:1049F800A849E0FEA3E02400FFEE3418FE7B017A0C
:104A0800A8794390AA4EE4F0A37404F01257439097
:104A1800A84774A5F0A3745AF07B017AA87943904B
:104A2800AA60E4F0A37406F07F007E501259B0909B
:104A3800A849E0FEA3E02400FFEE3408FEE4FCFDF4
:104A480090AA4C123B4690AA50E4F0A37404F07D5F
:104A5800007C507FA512788E2290A84974FFF5F04B
:104A680012391B90A849E0FEA3E02400FFEE3410A1
:104A7800FE7B017AA8794390AA4EE4F0A37404F06F
:104A880012574390A84774A5F0A3745AF07B017A93
:104A9800A8794390AA60E4F0A37406F07F007E50E2
:104AA8001259B090A849E0FEA3E0FFE4FCFD90AAEB
:104AB8004C123B4690AA50E4F0A37402F07D007CAF
:104AC800507FA512788E90AA4C123B52000000002D
:104AD80090AA50E4F0A37402F07D007C507FA512E8
:104AE800788E90A849E0FEA3E02400FFEE3418FE7B
:104AF8007B017AA8794390AA4EE4F0A37404F012DB
:104B0800574390A84774A5F0A3745AF07B017AA87C
:104B1800794390AA60E4F0A37406F07F007E5012F7
:104B280059B090A849E0FEA3E02400FFEE3408FE47
:104B3800E4FCFD90AA4C123B4690AA50E4F0A37402
:104B480002F07D007C507FA512788E90AA4C123B13
:104B5800520000080090AA50E4F0A37402F07D000F
:104B68007C507FA512788E2290A848123BAF90A85F
:104B78004BECF0A3EDF090A84BE0FEA3E0C3940546
:104B8800EE94005003024EC5E4A3F0A3F090A848A9
:104B9800123B8F90A84DE0FEA3E0F5828E83123879
:104BA8003F64026003024E9F90A848123B8F90A872
:104BB8004DE0A3E029F9EA3EFA90000112383F12CD
:104BC8003BB84BD7034D26064DE81000004E9F908A
:104BD800A848123B8F90A84DE0FEA3E029F9EA3ED1
:104BE800FA90000212383FFF90A851E4F0A3EFF0CA
:104BF80090A84DE0A3E0FF90A851E0FCA3E02FFFB0
:104C0800EC3EFEEF2405FFE43EFE90A84BE0FCA33B
:104C1800E0FDD3EF9DEE9C401190A84BE0FEA3E091
:104C2800FFA3EEF0A3EFF0024E9F90A848123B8F2F
:104C380090A84DE0FEA3E029F9EA3EFA90A851E0D9
:104C4800FEA3E02403FDE43EFC12799290A84FEE07
:104C5800F0A3EFF090A848123B8F90A84DE0FEA378
:104C6800E029F9EA3EFA90A851E0FEA3E029F9EA22
:104C78003EFA90000312383FFD90A84FE0FEA3E0F3
:104C8800EE6D7001E46003024E9F90A848123B8FBE
:104C980090A84DE0FEA3E029F9EA3EFA90A851E079
:104CA800FEA3E029F9EA3EFA90000412383FFF908B
:104CB800A84FE0A3E06F7001E46003024E9F908666
:104CC80001E0FEA3E0FF90A848123B8F90A84DE0BA
:104CD800FCA3E029F9EA3CFAE92403F9E43AFA905A
:104CE800A851E0FCA3E0FD90AA60ECF0A3EDF0125F
:104CF80059B07E007F0E7D007B017A8579F9123DDF
:104D0800B590A851E0FEA3E02405FFE43E90A84D2D
:104D1800F0A3EFF0908000E04402F0024E9F90A8CC
:104D28004DE0FEA3E02408FFE43EFE90A84BE0FC23
:104D3800A3E0FDD3EF9DEE9C401190A84BE0FEA3AD
:104D4800E0FFA3EEF0A3EFF0024E9F90A848123BBD
:104D58008F90A84DE0FEA3E029F9EA3EFA7D067C93
:104D68000012799290A84FEEF0A3EFF090A84812A5
:104D78003B8F90A84DE0FEA3E029F9EA3EFA9000A7
:104D88000612383FFD90A84FE0FEA3E0EE6D7001DB
:104D9800E46003024E9F90A848123B8F90A84DE014
:104DA800FEA3E029F9EA3EFA90000712383FFF9087
:104DB800A84FE0A3E06F7001E46003024E9F90A843
:104DC8004D75F00812391B7E007F0E7D007B017A3D
:104DD8008579F9123DB5908000E04402F0024E9FBB
:104DE80090A84DE0FEA3E02408FFE43EFE90A84B07
:104DF800E0FCA3E0FDD3EF9DEE9C401190A84BE0B2
:104E0800FEA3E0FFA3EEF0A3EFF0024E9F90A848A8
:104E1800123B8F90A84DE0FEA3E029F9EA3EFA7D07
:104E2800067C0012799290A84FEEF0A3EFF090A8BC
:104E380048123B8F90A84DE0FEA3E029F9EA3EFA1C
:104E480090000612383FFD90A84FE0FEA3E0EE6DFB
:104E58007001E4704290A848123B8F90A84DE0FE84
:104E6800A3E029F9EA3EFA90000712383FFF90A81C
:104E78004FE0A3E0B50720E490A84D75F00812397B
:104E88001B7E007F0E7D007B017A8579F9123DB586
:104E9800908000E04402F090A84DE475F0011239CA
:104EA8001B90A84BE0FEA3E024FBFFEE34FFFEA31B
:104EB800E0FCA3E0C39FEC9E5003024B952290A810
:104EC80048123BAF90A848123B8F123947FF90A871
:104ED8004BE5F0F0A3EFF090A84BE0FEA3E0C394FD
:104EE80061EE940140030251E690A84BE0A3E090E4
:104EF800860775F00E123B83EE75F00EA42583F538
:104F080083E0645A60030251D990A84BE0A3E09073
:104F1800860A75F00E123B83EE75F00EA42583F514
:104F280083E070030251D990A84BE0A3E090860C6F
:104F380075F00E123B83EE75F00EA42583F583E021
:104F480070030251E690A84BE0A3E090860C75F040
:104F58000E123B83EE75F00EA42583F583E0640101
:104F6800703490A84BE0A3E090860D75F00E123BCC
:104F780083EE75F00EA42583F583E0FEA3E0FF9091
:104F8800AE59E0FCA3E06F7002EC6E60030251D9E9
:104F98000251E60251D990A84BE0FEA3E090860C9E
:104FA80075F00E123B83EE75F00EA42583F583E0B1
:104FB800640260030250A590A84BE0A3E090860D20
:104FC80075F00E123B83EE75F00EA42583F583E091
:104FD800FEA3E0FF7B017AA8794D90AA4EE4F0A3E6
:104FE8007402F012574390A84DE0A3E0645A60039E
:104FF8000251D990A84BE0FEA3E0C39460EE94015F
:10500800506190A84BE0A3E090861A75F00E123B11
:1050180083EE75F00EA42583F583E0640270449056
:10502800A84BE0A3E090861B75F00E123B83EE754B
:10503800F00EA42583F583E0FEA3E0FF90A84BE0E3
:10504800FCA3E090860D75F00E123B83EC75F00E14
:10505800A42583F583E0FCA3E06F7002EC6E700377
:105068000251E6E490A84DF0A3F090A84BE0FEA30F
:10507800E090860D75F00E123B83EE75F00EA425B8
:1050880083F583E0FEA3E0FF7B017AA8794D90AA1F
:1050980060E4F0A37402F01259B00251E690A84BF4
:1050A800E0FEA3E090860C75F00E123B83EE75F0DF
:1050B8000EA42583F583E0640360030251D990A808
:1050C8004BE0A3E090861375F00E123B83EE75F06B
:1050D8000EA42583F583E0FEA3E0FF90AE59E0FC23
:1050E800A3E0FDEF6D7002EE6C60030251D990A849
:1050F8004BE0FEA3E090860D75F00E123B83EE7533
:10510800F00EA42583F583E0FEA3E0FF7B017AA8D7
:10511800794D90AA4EE4F0A37402F012574390A878
:105128004DE0A3E0645A60030251D990A84BE0FE19
:10513800A3E0C39460EE9401505E90A84BE0A3E016
:1051480090861A75F00E123B83EE75F00EA4258337
:10515800F583E06403704190A84BE0A3E090861BC0
:1051680075F00E123B83EE75F00EA42583F583E0EF
:10517800FEA3E0FF90A84BE0FCA3E090860D75F03D
:105188000E123B83EC75F00EA42583F583E0FCA397
:10519800E06F7002EC6E6046E490A84DF0A3F090CA
:1051A800A84BE0FEA3E090860D75F00E123B83EE4F
:1051B80075F00EA42583F583E0FEA3E0FF7B017A5A
:1051C800A8794D90AA60E4F0A37402F01259B08057
:1051D8000D90A84BE475F00112391B024EDF90A820
:1051E8004BE0FEA3E0FF90A848123B8FEE8FF01231
:1051F80039AA2290A853123BAF90A856ECF0A3ED21
:10520800F07BFF7A88797078587CA87D017E007FD2
:105218001812380090A853123B8F90000A12397266
:10522800246CFFE5F0340790A884F0A3EFF090A871
:1052380084E0FEA3E0FF7C007D641238E5ED4C605D
:105248001390A884E0FEA3E0FF7C007D041238E5FB
:10525800ED4C601390A884E0FEA3E0FF7C017D90F4
:105268001238E5ED4C70067E007F0180047E007FD9
:105278000090A880EEF0A3EFF090A853123B8F9017
:10528800000A12397224BAFFE5F034FFFE3395E0C4
:10529800FDFC90A870123B4690A853123B8F9000DB
:1052A80008123972C39401E5F064809480504090EC
:1052B800A880E0FEA3E064014E703490A870123B11
:1052C8002EEF2402FFE43EFEE43DFDE43CFCE47BDB
:1052D80004FAF9F8128152EF24FFFFEE34FFFEEDD5
:1052E80034FFFDEC34FFFC90A878123B46802290F6
:1052F800A870123B2EEF2402FFE43EFEE43DFDE4DD
:105308003CFCE47B04FAF9F812815290A878123B2D
:105318004690A874123B5200000000E490A882F066
:10532800A3F090A853123B8F900008123972FF9097
:10533800A882E0FCA3E0C39FE5F06480F8EC6480F9
:1053480098504890A874123B2EC006C00790A882B7
:10535800E0FEA3E025E0FFEE33FE74582FF58274DB
:10536800A83EF583E0FEA3E0FFFBAA06EA3395E03A
:10537800F9F8D007D0061239C990A874123B4690A4
:10538800A882E475F00112391B809790A874123B2B
:105398002EC006C00790A853123B8F900006123902
:1053A8007224FFFFE5F034FFFEAB07FA3395E0F90E
:1053B800F8D007D0061239C990A874123B4690A8B5
:1053C80074123B2EC004C005C006C007E47F6D7E82
:1053D80001FDFC90A870123B3A1239D690A87812B9
:1053E8003B3A1239C9A804A905AA06AB07D007D0C9
:1053F80006D005D0041239C990A874123B4690A86B
:1054080053123B8F900004123972FF90A856E0FCAB
:10541800A3E0FDC3EF9DFFE5F09CFE3395E0FDFCA6
:1054280090A87C123B46E47F107E0EFDFC90A87C81
:10543800123B3A1239D6C004C005C006C0077F80A7
:105448007E517D017C0090A874123B3A1239D6A88F
:1054580004A905AA06AB07D007D006D005D00412C8
:1054680039C9C004C005C006C00790A853123B8FB5
:10547800900002123972FFAEF07C007D3C12387E3B
:10548800AB07AA06EA3395E0F9F8D007D006D005AD
:10549800D0041239C9C006C00790A853123B8F1216
:1054A8003947FFAEF0FBAA06EA3395E0F9F8D007D2
:1054B800D0061239C9227BFF7A85795678437CA8B1
:1054C8007D017E027F0012380090AA4C123B5200E8
:1054D80000000090AA507410F0A3E4F0FD7C107F47
:1054E8005A12788E90AA437410F0A3E4F090AA435D
:1054F800E0FEA3E0C3EE9418506990AA43E0A3E04D
:10550800FF7B017AA8794390AA4E7402F0A3E4F0D5
:10551800125743E490AA45F0A3F090AA45E0FEA3F1
:10552800E0C3EE9401502F90AA45E0A3E025E0FFE8
:10553800EE33FE74432FF58274A83EF583E0FEA394
:10554800E0645A7003EE64A5601990AA45E475F00A
:105558000112391B80C490AA43740175F0001239F6
:105568001B808A90AA45E0FEA3E0FF90AA43E0FCD6
:10557800A3E02FFFEC3E90AA47F0A3EFF090AA47D4
:10558800E0FEA3E0C3EE9418400990AA477410F017
:10559800A3E4F090AA4774F075F00012391B90AAA2
:1055A80047E0FEA3E0FF90AE5FEEF0A3EFF090AE11
:1055B8005FE0FEA3E02400FFEE341090A843F0A3C0
:1055C800EFF0A37401F0A374B2F0A37401F0A37414
:1055D800B2F090A843E0FEA3E0FF7B017AA87945EA
:1055E80090AA60E4F0A37404F01259B090AE5FE0A2
:1055F800FEA3E02400FFEE341890A843F0A3EFF0D8
:10560800A37402F0A37437F0A37402F0A37437F004
:1056180090A843E0FEA3E0FF7B017AA8794590AA11
:1056280060E4F0A37404F01259B07B017AAA7947B8
:1056380090AA60E4F0A37402F07F007E031259B0D0
:105648007B017AAA794790AA60E4F0A37402F0FF7C
:105658007E031259B07B017AAA794790AA60E4F0D8
:10566800A37402F07F087E501259B07B017AAA79A0
:105678004790AA60E4F0A37402F07F097E501259A3
:10568800B090A8437408F0A3E4F07B017AA87943AA
:1056980090AA60F0A37402F07F017E031259B07BD8
:1056A800017AA8794390AA60E4F0A37402F004FF99
:1056B800FE1259B090A843E4F0A37406F0A3E4F0F6
:1056C800A304F0A3E4F0A3742EF0A37401F0A37470
:1056D8004CF0A37401F0A37471F0A37401F0A374E7
:1056E80077F0A37401F0A3748AF0A37402F0A37492
:1056F8008AF0A37401F0A37471F0A374FFF0A3E41B
:10570800F07B017AA8794390AA60F0A37414F07F23
:105718000A7E501259B090AE26E075F03CA4FFA363
:10572800E07C002FFFEC35F090AE5DF0A3EFF09039
:10573800AE5DE0FEA3E0FF1266B22290AA49EEF049
:10574800A3EFF0A3123BAF7B007A007900C003C03F
:1057580002C00190AA4B123B8FD082D083D0E06B5D
:105768007008E965827003EA658370030259AF9097
:10577800AA4EE0FEA3E04E70030259AF90AA4EE095
:10578800A3E0FFEEC313FEEF13FF90AA49E0FCA3CA
:10579800E02FFFEE3CFED3EF94FEEE94FF400302B1
:1057A80059AFC2AF90AA49E0A3E0540190AA50F0C3
:1057B80090AA49E0FEA3E0FFEEC313FEEF13FF90AB
:1057C800AA49EEF0A3EFF090AA49E0FEA3E0781012
:1057D800CEC313CE13D8F9F5F190AA49E0FEA3E0A1
:1057E800EEF5F290AA49E0A3E0F5F3E4F5F875F4D4
:1057F80001D2FF30FCFDD2FD90AA50E06401707226
:1058080090AA4EE0FEA3E064014E700AC2FBC2FA01
:10581800D2F9C2F88008C2FBC2FAD2F9D2F8D2FE95
:1058280020FEFD90AA4EE0FEA3E064014E701A909F
:10583800AA4B75F001123B98E5FC12386C90AA4E01
:1058480074FFF5F012391B802990AA4BE475F0011A
:10585800123B98E5FC12386C90AA4BE475F00112E3
:105868003B98E5FD12386C90AA4E74FF75F0FE1255
:10587800391B90AA4EE0FEA3E04E70030259AA908D
:10588800AA4EE0A3E0C39404EE94004003025953E7
:1058980090AA4EE0A3E08EF0123BDE58C7000158F4
:1058A800BD000258B30003000058CFD2FBD2FAD291
:1058B800F9C2F88012D2FBD2FAC2F9C2F88008D233
:1058C800FBC2FAC2F9C2F8D2FE20FEFD90AA4EE051
:1058D800FEA3E08EF0123BDE594000015920000281
:1058E80058F00003000059AA90AA4BE475F0011281
:1058F8003B98E5FA12386C90AA4BE475F001123B1C
:1059080098E5FB12386C90AA4BE475F001123B98AD
:10591800E5FC12386C0259AA90AA4BE475F0011202
:105928003B98E5FA12386C90AA4BE475F001123BEB
:1059380098E5FB12386C806A90AA4BE475F0011266
:105948003B98E5FA12386C80598057D2FBD2FAD2CC
:10595800F9D2F8D2FE20FEFD90AA4BE475F00112B0
:105968003B98E5FA12386C90AA4BE475F001123BAB
:1059780098E5FB12386C90AA4BE475F001123B983D
:10598800E5FC12386C90AA4BE475F001123B98E5DF
:10599800FD12386C90AA4E74FF75F0FC12391B0288
:1059A800587AE4F5F8D2AF2290AA5BEEF0A3EFF0B4
:1059B800A3123BAF7B007A007900C003C002C0018C
:1059C80090AA5D123B8FD082D083D0E06B7008E93B
:1059D80065827003EA65837003025C1B90AA60E02D
:1059E800FEA3E04E7003025C1B90AA60E0A3E0FFF8
:1059F800EEC313FEEF13FF90AA5BE0FCA3E02FFFBA
:105A0800EE3CFED3EF94FEEE94FF4003025C1BC213
:105A1800AF90AA5BE0A3E0540190AA62F090AA5B61
:105A2800E0FEA3E0FFEEC313FEEF13FF90AA5BEEC8
:105A3800F0A3EFF090AA5BE0FEA3E07810CEC313CA
:105A4800CE13D8F9F5F190AA5BE0FEA3E0EEF5F2EB
:105A580090AA5BE0A3E0F5F3E4F5F875F401D2FF52
:105A680030FCFDC2FD90AA62E06401707290AA60E9
:105A7800E0FEA3E064014E700AC2FBC2FAD2F9C28A
:105A8800F88008C2FBC2FAD2F9D2F890AA60E0FE08
:105A9800A3E064014E701A90AA5D75F001123B985C
:105AA800123826F5FC90AA6074FFF5F012391B80B5
:105AB8002990AA5DE475F001123B98123826F5FC8E
:105AC80090AA5DE475F001123B98123826F5FD9016
