:10000000026364020006C2AFD2AF320259D8C2AF57
:10001000D2AF3202000E909FF5E0FEA3E0FF126B1C
:0A0020007B222202680C126DF82208
:10002B00026F6D909D19122DB500003000909D1D33
:10003B00E4F0A3740AF07D007C307F5A1264057BD8
:10004B00017AA0797F909D1BE4F0A37414F07F00DC
:10005B007E30123EB2E4909B10F0909B10E0C39464
:10006B000674809480506EE025E025E0247FF582B5
:10007B00E434A0F583122D91E4FBFAF9F8C3122DA9
:10008B006C6022909B10E025E025E0247FF582E454
:10009B0034A0F583122D917B3F7A42790F7800C300
:1000AB00122D6C5028909B10E025E025E0245FF585
:1000BB0082E434A0F583122D91909B10E025E0256E
:1000CB00E0247FF582E434A0F583122DA9909B10D8
:1000DB00E004F080857B017AA0797F909D1BE4F092
:0C00EB00A37414F07FA07EA612411F2217
:1000F800FFFF4457494E543542A0D6000041A0D2D4
:100108000041A0D30042A0D4000042A0DA0000427F
:10011800A0D800005A9F223FC900690064000086E9
:10012800000A2D2D203A3A000000000000000000CF
:10013800005A9F3C3FCC01270064000086000A2D2E
:100148002D2F3A3A000000000000000000005A9FDE
:10015800D83FD001E50064000001E5006402AD006D
:100168007D00100017181802000000603C9F9C409A
:100178000040A04140401040B04150402040C041A4
:1001880060403040D04170404040E04180405040A5
:10019800F041904060410041A04070411041B040A2
:1001A80080412041C04090413041D0549F8841E077
:1001B80041F842104228424042584270428842A0C8
:1001C80042B8489F790000000000000000429F816B
:1001D8000000429F860000429F830000419F8500E7
:1001E800419F6800429F560005498000B2E2CAD488
:1001F800BABAD7D6006E60800949443030BBD8B748
:10020800E7B8DFCEC20000000000000000000000D8
:1002180000000000000000000049443031BBD8B79E
:10022800E7B5CDCEC20000000000000000000000CD
:1002380000000000000000000049443032BBD8B77D
:10024800E7B8DFCAAA0000000000000000000000B4
:1002580000000000000000000049443033BBD8B75C
:10026800E7B5CDCAAA0000000000000000000000A9
:1002780000000000000000000049443034CBCDB736
:10028800E7B8DFCEC2000000000000000000000058
:1002980000000000000000000049443035CBCDB715
:1002A800E7B5CDCEC200000000000000000000004D
:1002B80000000000000000000049443036CBCDB7F4
:1002C800E7B8DFCAAA000000000000000000000034
:1002D80000000000000000000049443037CBCDB7D3
:1002E800E7B5CDCAAA000000000000000000000029
:1002F80000000000000000000049443038B1A3C1EC
:10030800F4000000000000000000000000000000F1
:1003180000000000000000000049443039C4DAB28F
:10032800BFCDA8D0C50000000000000000000000FC
:10033800000000000000000000494431304E5443E2
:10034800D2ECB3A300000000000000000000000091
:1003580000000000000000000049443131B7E7BB4D
:10036800FA31B9CAD5CF0000000000000000000033
:1003780000000000000000000049443132B7E7BB2C
:10038800FA32B9CAD5CF0000000000000000000012
:1003980000000000000000000049443133B7E7BB0B
:1003A800FA33B9CAD5CF00000000000000000000F1
:1003B80000000000000000000049443134B7E7BBEA
:1003C800FA34B9CAD5CF00000000000000000000D0
:1003D80000000000000000000049443135B7E7BBC9
:1003E800FA35B9CAD5CF00000000000000000000AF
:1003F80000000000000000000049443136CDE2B79B
:10040800E7BBFAB9CAD5CF00000000000000000021
:1004180000000000000000000049443137B7E7BB86
:10042800FA31D4CBD0D0B3ACCAB100000000000080
:1004380000000000000000000049443138B7E7BB65
:10044800FA32D4CBD0D0B3ACCAB10000000000005F
:1004580000000000000000000049443139B7E7BB44
:10046800FA33D4CBD0D0B3ACCAB10000000000003E
:1004780000000000000000000049443230B7E7BB2C
:10048800FA34D4CBD0D0B3ACCAB10000000000001D
:1004980000000000000000000049443231B7E7BB0B
:1004A800FA35D4CBD0D0B3ACCAB1000000000000FC
:1004B80000000000000000000049443232CDE2B7DD
:1004C800E7BBFAD4CBD0D0B3ACCAB100000000006F
:1004D80000000000000000000049443233B8DFD1BA
:1004E800B931B8E6BEAF000000000000000000000F
:1004F80000000000000000000049443234B8DFD199
:10050800B931CBF8CBC000000000000000000000AB
:1005180000000000000000000049443235B5CDD18C
:10052800B931B8E6BEAF00000000000000000000CE
:1005380000000000000000000049443236B5CDD16B
:10054800B931CBF8CBC0000000000000000000006B
:1005580000000000000000000049443237C5C5C64D
:10056800F8CEC2B6C831B8E6BEAF00000000000041
:1005780000000000000000000049443238C5C5C62C
:10058800F8CEC2B6C831CBF8CBC0000000000000DE
:1005980000000000000000000049443239B6CCD603
:1005A800DCC6DA31B8E6BEAF00000000000000008B
:1005B80000000000000000000049443330D1B9BBFE
:1005C800FA31D4CBD0D0B3ACCAB1000000000000DF
:1005D80000000000000000000049443331B8DFD1BA
:1005E800B932B8E6BEAF000000000000000000000D
:1005F80000000000000000000049443332B8DFD199
:10060800B932CBF8CBC000000000000000000000A9
:1006180000000000000000000049443333B5CDD18C
:10062800B9D1B9C1A6B8E6BEAF000000000000000D
:1006380000000000000000000049443334B5CDD16B
:10064800B932CBF8CBC00000000000000000000069
:1006580000000000000000000049443335C5C5C64D
:10066800F8CEC2B6C832B8E6BEAF0000000000003F
:1006780000000000000000000049443336C5C5C62C
:10068800F8CEC2B6C832CBF8CBC0000000000000DC
:1006980000000000000000000049443337B6CCD603
:1006A800DCC6DA32B8E6BEAF000000000000000089
:1006B80000000000000000000049443338D1B9BBF5
:1006C800FA32D4CBD0D0B3ACCAB1000000000000DD
:1006D80000000000000000000049443339BCD3CAC0
:1006E800AAC6F7B5E7C1F7B9FDB4F30000000000EA
:1006F80000000000000000000049443430BCD3CAA8
:10070800AAC6F7B8DFCBAECEBB00000000000000E1
:1007180000000000000000000049443431BCD3CA86
:10072800AAC6F7C8B1CBAE00000000000000000068
:1007380000000000000000000049443432BCD3CA65
:10074800AAC6F7D4CBD0D0B3ACCAB1000000000021
:1007580000000000000000000049443433BCD3C846
:10076800C8C6F7B8E6BEAF000000000000000000F1
:1007780000000000000000000049443434BCD3C825
:10078800C8C6F731B3ACCAB10000000000000000D1
:1007980000000000000000000049443435BCD3C804
:1007A800C8C6F732B3ACCAB10000000000000000B0
:1007B80000000000000000000049443436B6CFB500
:1007C800E7D6D8C6F40000000000000000000000D2
:1007D80000000000000000000049443437B5E7D4A9
:1007E800B4CFE0D0F2B4EDCEF3000000000000007A
:1007F80000000000000000000049443438B5E7D488
:10080800B4C6B5C2CAC6ABB8DF000000000000001D
:1008180000000000000000000049443439B5E7D466
:10082800B4C6B5C2CAC6ABB5CD0000000000000012
:100838000000000000000000004944353041CFE0CE
:10084800B9FDD1B900000000000000000000000060
:100858000000000000000000004944353142CFE0AC
:10086800B9FDD1B900000000000000000000000040
:100878000000000000000000004944353243CFE08A
:10088800B9FDD1B920000000000000000000000000
:100898000000000000000000004944353341CFE06B
:1008A800C7B7D1B900000000000000000000000038
:1008B8000000000000000000004944353442CFE049
:1008C800C7B7D1B900000000000000000000000018
:1008D8000000000000000000004944353543CFE027
:1008E800C7B7D1B9000000000000000000000000F8
:1008F8000000000000000000004944353641CFE008
:10090800C8B1CFE0000000000000000000000000B7
:100918000000000000000000004944353742CFE0E5
:10092800C8B1CFE000000000000000000000000097
:100938000000000000000000004944353843CFE0C3
:10094800C8B1CFE000000000000000000000000077
:1009580000000000000000000049443539C6F8C115
:10096800F7B6AACAA7B8E6BEAF00000000000000AC
:1009780000000000000000000049443630B9FDC204
:10098800CBCDF8D4CBD0D0B3ACCAB10000000000B6
:1009980000000000000000000049443631B9FDC2E3
:1009A800CBCDF8B6C2B8E6BEAF000000000000002C
:1009B80000000000000000000049443632D4B6B3FD
:1009C800CCB9D8BBFAB8E6BEAF0000000000000002
:1009D80000000000000000000049443633D2E7CB95
:1009E800AEB8E6BEAF000000000000000000000046
:1009F80000000000000000000049443634C8BABFB7
:100A0800D8CDA8D0C5D2ECB3A300000000000000E8
:100A180000000000000000000049443635B1E4C67B
:100A2800B5C6F7B9CAD5CF00000000000000000025
:100A380000000000000000000049443636D7A2CB71
:100A4800AEB5E7B5BCC2CAB8DF00000000000000C0
:100A580000000000000000000049443637D7A2CB50
:100A6800AEB5E7B5BCC2CAB5CD00000000000000B5
:100A780000000000000000000049443638D1CCCE08
:100A8800EDB8E6BEAF000000000000000000000066
:100A980000000000000000000049443639D3C3BB01
:100AA800A7D7D4B6A8D2E5B8E6BEAF0000000000CC
:100AB80000000000000000000049443730B5E7D4CA
:100AC800B4D2ECB3A3000000000000000000000056
:100AD80000000000000000000049443731C8EBCB9B
:100AE800AEB8DFCEC2000000000000000000000029
:100AF80000000000000000000049443732CBAEB7C8
:100B0800A7B9CAD5CF00000000000000000000000F
:100B180000000000000000000049443733C5CCB98C
:100B2800DCB6CFC1F7B8E6BEAF0000000000000099
:100B380000000000000000000049443734B7E7BB5C
:100B4800FA36B9CAD5CF0000000000000000000046
:100B580000000000000000000049443735B7E7BB3B
:100B6800FA37B9CAD5CF0000000000000000000025
:100B780000000000000000000049443736B7E7BB1A
:100B8800FA38B9CAD5CF0000000000000000000004
:100B980000000000000000000049443737B7E7BBF9
:100BA800FA36B3ACCAB10000000000000000000033
:100BB80000000000000000000049443738B7E7BBD8
:100BC800FA37B3ACCAB10000000000000000000012
:100BD80000000000000000000049443739B7E7BBB7
:100BE800FA38B3ACCAB100000000000000000000F1
:100BF80000000000000000000049443830C5C5CBA3
:100C0800AEB8DFCBAECEBB00000000000000000095
:100C180000000000000000000049443831BCD3CA7D
:100C2800AAC6F7D2ECB3A300000000000000000041
:100C380000000000000000000049443832B7E7D146
:100C4800B9B9FDB5CD0000000000000000000000AB
:100C580000000000000000000049443833BAECCD21
:100C6800E2BCD3CAAAB9FDC8C80000000000000051
:100C780000000000000000000049443834D1B9BB2E
:100C8800FA31B8DFD1B90000000000000000000010
:100C980000000000000000000049443835B7E7BBF9
:100CA800FAB5E7C1F7B9FDB4F30000000000000091
:100CB80000000000000000000049443836B8A8C20F
:100CC800B7C8EBCBAEB8DFCEC20000000000000012
:100CD8000000000000000000004944383745455630
:100CE800B8E6BEAF000000000000000000000000F1
:100CF80000000000000000000049443838BDD3CB94
:100D0800AEC5CCD2E7CBAE0000000000000000006A
:100D180000000000000000000049443839C5C5C67D
:100D2800F8B8DFCEC200000000000000000000009C
:100D380000000000000000000049443930C9E8B153
:100D4800B8CAB9D3C3B3ACCAB100000000000000F0
:100D580000000000000000000049443931B1A3C17F
:100D6800F400000000000000000000000000000087
:100D780000000000000000000049443932B1A3C15E
:100D8800F400000000000000000000000000000067
:100D980000000000000000000049443933B1A3C13D
:100DA800F400000000000000000000000000000047
:100DB80000000000000000000049443934B1A3C11C
:100DC800F400000000000000000000000000000027
:100DD80000000000000000000049443935B1A3C1FB
:100DE800F400000000000000000000000000000007
:100DF80000000000000000000049443936B1A3C1DA
:100E0800F4000000000000000000000000000000E6
:100E180000000000000000000049443937BBD8B783
:100E2800E7CEC2CAAAB6C8B4ABB8D0C6F7000000AD
:100E380000000000000000000049443938CBCDB75D
:100E4800E7CEC2CAAAB6C8B4ABB8D0C6F70000008D
:100E580000000000000000000049443939BCD3CA32
:100E6800AAB0E5D2ECB3A300000000000000000027
:100E78000000000000000000004944313030C6C1C5
:100E8800C4BBD2D1CBF8B6A8000000000000000017
:100E98000000000000000000004944313031D2BB9E
:100EA800CCECBDABCBF8B6A80000000000000000F9
:100EB8000000000000000000004944313032C8FD45
:100EC800CCECBDABCBF8B6A80000000000000000D9
:100ED8000000000000000000004944313033C6DF44
:100EE800CCECBDABCBF8B6A80000000000000000B9
:100EF8000000000000000000004944313034CAAE50
:100F0800CEE5CCECBDABCBF8B6A8000000000000E5
:100F18000000000000000000004944313035C8FDE1
:100F2800CAAECCECBDABCBF8B6A800000000000000
:100F38000000000000000000004944313036B5E7E9
:100F4800D4B432CFE0D0F2B4ED00000000000000CD
:100F58000000000000000000004944313037B5E7C8
:100F6800D4B432C6B5C2CAB8DF0000000000000021
:100F78000000000000000000004944313038B5E7A7
:100F8800D4B432C6B5C2CAB5CD0000000000000016
:100F98000000000000000000004944313039B5E786
:100FA800D4B43241CFE0B9FDD1B90000000000004F
:100FB8000000000000000000004944313130B5E76E
:100FC800D4B43242CFE0B9FDD1B90000000000002E
:100FD8000000000000000000004944313131B5E74D
:100FE800D4B43243CFE0B9FDD1B90000000000000D
:100FF8000000000000000000004944313132B5E72C
:10100800D4B43241CFE0C7B7D1B900000000000026
:101018000000000000000000004944313133B5E70A
:10102800D4B43242CFE0C7B7D1B900000000000005
:101038000000000000000000004944313134B5E7E9
:10104800D4B43243CFE0C7B7D1B9000000000000E4
:1010580000000000000000000041A0DC0047A0A93B
:101068000000000000000048A0B8000000000000D8
:10107800000048A0B0000000000000000052A09747
:101088000000000000000000000000000000000058
:10109800000042A0C2000042A0C4000042A0C0005C
:1010A8000044A0CE0000000042A0C6000044A0C832
:1010B8000000000002080000040B0000000042A02D
:1010C800CC0000010A0061009D2200C1814001C0DE
:1010D800804101C0804100C1814001C0804100C100
:1010E800814000C1814001C0804101C0804100C1F0
:1010F800814000C1814001C0804100C1814001C0E0
:10110800804101C0804100C1814001C0804100C1CF
:10111800814000C1814001C0804100C1814001C0BF
:10112800804101C0804100C1814000C1814001C0AF
:10113800804101C0804100C1814001C0804100C19F
:10114800814000C1814001C0804101C0804100C18F
:10115800814000C1814001C0804100C1814001C07F
:10116800804101C0804100C1814000C1814001C06F
:10117800804101C0804100C1814001C0804100C15F
:10118800814000C1814001C0804100C1814001C04F
:10119800804101C0804100C1814001C0804100C13F
:1011A800814000C1814001C0804101C0804100C12F
:1011B800814000C1814001C0804100C1814001C01F
:1011C800804101C0804100C1814061009E2200C071
:1011D800C101C30302C2C60607C705C5C404CC0CB7
:1011E8000DCD0FCFCE0E0ACACB0BC90908C8D81827
:1011F80019D91BDBDA1A1EDEDF1FDD1D1CDC14D437
:10120800D515D71716D6D21213D311D1D010F03066
:1012180031F133F3F23236F6F737F53534F43CFC76
:10122800FD3DFF3F3EFEFA3A3BFB39F9F83828E826
:10123800E929EB2B2AEAEE2E2FEF2DEDEC2CE424F6
:1012480025E527E7E62622E2E323E12120E0A06066
:1012580061A163A3A26266A6A767A56564A46CAC36
:10126800AD6DAF6F6EAEAA6A6BAB69A9A86878B8A6
:10127800B979BB7B7ABABE7E7FBF7DBDBC7CB474B6
:1012880075B577B7B67672B2B373B17170B0509066
:1012980091519353529296565797559594549C5CF6
:1012A8005D9D5F9F9E5E5A9A9B5B995958988848A6
:1012B80049894B8B8A4A4E8E8F4F8D4D4C8C448476
:1012C8008545874746868242438341818040419ACB
:1012D8008B0041916800449B0C0000000041916321
:1012E8000044916400000000691491775A021003C9
:1012F800C80250155016000000FF5A020303C80028
:101308000000A020031C00FF5A020301C8010000CE
:10131800A023031900FF5A020601C803A084A024D1
:10132800010000005A020301C8010000A0250104C1
:1013380000FF5A020601C802A087A027010400FF87
:101348005A020303C8010000A0A0011A00FF5A02B4
:101358000302C8000000A0A3031000FF5A02030202
:10136800C801000AAA00032600FF5A020308C801A0
:10137800000AAA02034100FF5A020301C801000A39
:10138800AA0A036F00FF5A020301C801000AAA0B48
:10139800037700FF5A02031FC801000BAB20038C20
:1013A80000FF5A020601C803AC80AC20023A000CC8
:1013B8005A020306C800000DAEA0032000FF5A021F
:1013C8000307C803B300B320011A00135A02060129
:1013D800C803B380B320011A00135A020601C803D8
:1013E800B382B322011C00135A020601C803B38357
:1013F800B323011D00135A020601C803B384B324A2
:10140800011E00135A020601C803B385B325011F44
:1014180000135A020601C803B386B326012000133D
:101428005A02030BC803B400B420015800145A022E
:101438000301C803B400B42B013B00145A02030192
:10144800C803B400B42C019E00145A020601C80354
:10145800B480B420015800145A020601C803B481AC
:10146800B421015900145A020601C803B483B423F5
:10147800015B00145A020601C803B484B424015C59
:1014880000145A020601C803B485B425015D00148E
:101498005A020601C803B486B426015E00145A0233
:1014A8000601C803B487B427015F00145A02060175
:1014B800C803B488B428016000145A020601C8039E
:1014C800B48AB42A016200145A020601C803B48B14
:1014D800B42B013B00145A020601C803B48CB42C87
:1014E800019E00145A020306C803B700B720013B47
:1014F80000175A020305C803B700B72601430017AF
:101508005A020601C803B780B720013B00175A02E8
:101518000601C803B784B724013F00175A02060121
:10152800C803B785B725014000175A020601C8034A
:10153800B786B726014300175A020601C803B787C2
:10154800B727014400175A020601C803B788B7280D
:10155800014500175A020601C803B789B729014691
:1015680000175A020601C803B78AB72A01470017AD
:101578005A020301C803B800B820016A00185A02C9
:101588000303C803B800B821016D00185A0203010B
:10159800C803B800B824017200185A020301C8032E
:1015A800B800B825017400185A020301C803B8002E
:1015B800B826017B00185A020301C803B800B827EF
:1015C800022A00185A020601C803B880B820016A26
:1015D80000185A020601C803B881B821016D001825
:1015E8005A020601C803B882B822016E00185A02CE
:1015F8000601C803B883B823016F00185A02060110
:10160800C803B884B824017200185A020601C80336
:10161800B885B825017400185A020601C803B886AF
:10162800B826017B00185A020601C803B887B827F4
:10163800022A00185A020301C803BB00BB2001B0EC
:10164800001B5A020302C803BB00BB2101B2001BE6
:101658005A020302C803BB00BB2301B5001B5A0290
:101668000302C803BB00BB2501B8001B5A020301D3
:10167800C803BB00BB2701BB001B5A020302C803F7
:10168800BB00BB2801D1001B5A020302C803BB00E0
:10169800BB2A01FB001B5A020302C803BB00BB2C78
:1016A8000276001B5A020601C803BB80BB2001B0AA
:1016B800001B5A020601C803BB81BB2101B2001BF3
:1016C8005A020601C803BB82BB2201B3001B5A029F
:1016D8000601C803BB83BB2301B5001B5A020601E0
:1016E800C803BB84BB2401B6001B5A020601C80309
:1016F800BB85BB2501B8001B5A020601C803BB867F
:10170800BB2601B9001B5A020601C803BB87BB27C9
:1017180001BB001B5A020601C803BB88BB2801D1C4
:10172800001B5A020601C803BB89BB2901D2001B52
:101738005A020601C803BB8ABB2A01FB001B5A02D6
:101748000601C803BB8BBB2B01FC001B5A02060118
:10175800C803BB8CBB2C0276001B5A020601C803C7
:10176800BB8DBB2D0277001B5A020302C803BC00C5
:10177800BC200232001C5A020301C803BC00BC2270
:101788000252001C5A020301C803BC00BC230255C4
:10179800001C5A020301C803BC00BC240258001CE8
:1017A8005A020301C803BC00BC250261001C5A028E
:1017B8000302C803BC00BC260271001C5A020301C4
:1017C800C803BC00BC280286001C5A020601C803D4
:1017D800BC80BC200232001C5A020601C803BC812E
:1017E800BC210233001C5A020601C803BC82BC2279
:1017F8000252001C5A020601C803BC83BC230255CE
:10180800001C5A020601C803BC84BC240258001CF0
:101818005A020601C803BC85BC250261001C5A0295
:101828000601C803BC86BC260271001C5A020601C8
:10183800C803BC87BC270272001C5A020601C803F1
:10184800BC88BC280286001C5A020302C803BF00D9
:10185800BF200102001F5A020301C803BF00BF22B4
:101868000107001F5A020301C803BF00BF2301A5D7
:10187800001F5A020601C803BF80BF200102001FD3
:101888005A020601C803BF81BF210103001F5A0283
:101898000601C803BF82BF220107001F5A020601C2
:1018A800C803BF83BF2301A5001F5A020308C8034A
:1018B800C200C220018200225A020301C803C200EA
:1018C800C228018C00225A020601C803C280C22025
:1018D800018200225A020601C803C281C221018383
:1018E80000225A020601C803C282C22201840022D1
:1018F8005A020601C803C284C224018600225A0281
:101908000601C803C285C225018700225A020601C2
:10191800C803C286C226018800225A020601C803EB
:10192800C287C227018900225A020601C803C28859
:10193800C228018C00225A020601C803C580C520AE
:10194800023B000F5A020301C803C700C72001A6C3
:1019580000275A020301C803C700C72101A90027AD
:101968005A020601C803C780C72001A600275A02E9
:101978000601C803C781C72101A900275A02060129
:10198800C803C782C72201A800275A020301C80159
:101998000027C723037500FF5A020301C801002767
:1019A800C724037700FF5A020301C803C800C820F0
:1019B800012700285A020301C803C800C8210129C9
:1019C80000285A020304C803C800C822012D0028B1
:1019D8005A020601C803C880C820012700285A02F5
:1019E8000601C803C881C821012900285A02060136
:1019F800C803C882C822012D00285A020601C8035C
:101A0800C883C823012E00285A020601C803C884C7
:101A1800C824012F00285A020601C803C885C82512
:101A2800013000285A02030EC8010029C9B0037802
:101A380000FF5A020601C803C990C930023C0029B8
:101A48005A020301C803CC00CCA00302002C5A029E
:101A58000301C803CF00CF200108002F5A02030258
:101A6800C803CF00CF21010A002F5A020304C8037C
:101A7800CF00CF23010D002F5A020301C803CF0066
:101A8800CF270141002F5A020301C803CF00CF28F6
:101A9800015A002F5A020301C803CF00CF2901A71A
:101AA800002F5A020601C803CF81CF21010A002F57
:101AB8005A020601C803CF83CF23010D002F5A0213
:101AC8000601C803CF84CF24010E002F5A02060155
:101AD800C803CF85CF25010F002F5A020601C8037E
:101AE800CF86CF260110002F5A020601C803CF87E0
:101AF800CF270141002F5A020601C803CF88CF28FB
:101B0800015A002F5A020601C803CF89CF2901A71D
:101B1800002F5A020601C803CF8ACF2A023B002FA2
:101B28005A02030AC8010034D420039C00FF5A0259
:101B38000302C8010034D42A03A800FF5A0203078D
:101B4800C803D500D520011A00355A020601C8037A
:101B5800D580D520011A00355A020601C803D5825E
:101B6800D522011C00355A020601C803D583D523A6
:101B7800011D00355A020601C803D584D524011E6B
:101B880000355A020601C803D585D525011F003541
:101B98005A020601C803D586D526012000355A0207
:101BA8000301C803D600D620010800365A020301F3
:101BB800C803D600D622010B00365A020601C80314
:101BC800D680D620010800365A020601C803D682FC
:101BD800D622010B00365A020601C803D68BD62B33
:101BE800023B00365A020301C803D800D82001F589
:101BF80000385A020601C803D880D82001F50038F9
:101C08004E91690000000000000000000000000084
:101C180000418E6A0062F88E6B5A13B320B350B33A
:101C2800805A13B322B352B3825A13B323B353B3B4
:101C3800835A13B324B354B3845A13B325B355B397
:101C4800855A13B326B356B3865A14B420B450B485
:101C5800805A14B421B451B4815A14B423B453B47F
:101C6800835A14B424B454B4845A14B425B455B45F
:101C7800855A14B426B456B4865A14B427B457B443
:101C8800875A14B428B458B4885A14B42AB45AB425
:101C98008A5A14B42BB45BB48B5A14B42CB45CB405
:101CA8008C5A17B720B750B7805A17B724B754B70C
:101CB800845A17B725B755B7855A17B726B756B7F1
:101CC800865A17B727B757B7875A17B728B758B7D5
:101CD800885A17B729B759B7895A17B72AB75AB7B9
:101CE8008A5A18B820B850B8805A18B821B851B8CC
:101CF800815A18B822B852B8825A18B823B853B8BB
:101D0800835A18B824B854B8845A18B825B855B89E
:101D1800855A18B826B856B8865A18B827B857B882
:101D2800875A1BBB20BB50BB805A1BBB21BB51BB76
:101D3800815A1BBB22BB52BB825A1BBB23BB53BB62
:101D4800835A1BBB24BB54BB845A1BBB25BB55BB46
:101D5800855A1BBB26BB56BB865A1BBB27BB57BB2A
:101D6800875A1BBB28BB58BB885A1BBB29BB59BB0E
:101D7800895A1BBB2ABB5ABB8A5A1BBB2BBB5BBBF2
:101D88008B5A1BBB2CBB5CBB8C5A1BBB2DBB5DBBD6
:101D98008D5A1CBC20BC50BC805A1CBC21BC51BCF8
:101DA800815A1CBC22BC52BC825A1CBC23BC53BCEA
:101DB800835A1CBC24BC54BC845A1CBC25BC55BCCE
:101DC800855A1CBC26BC56BC865A1CBC27BC57BCB2
:101DD800875A1CBC28BC58BC885A1FBF20BF50BF9C
:101DE800805A1FBF21BF51BF815A1FBF22BF52BF98
:101DF800825A1FBF23BF53BF835A22C220C250C278
:101E0800805A22C221C251C2815A22C222C252C25F
:101E1800825A22C224C254C2845A22C225C255C23E
:101E2800855A22C226C256C2865A22C227C257C221
:101E3800875A22C228C258C2885A27C720C750C703
:101E4800805A27C721C751C7815A28C820C850C8F7
:101E5800805A28C821C851C8815A28C822C852C8DF
:101E6800825A28C823C853C8835A28C824C854C8C3
:101E7800845A28C825C855C8855A2FCF20CF50CF97
:101E8800805A2FCF21CF51CF815A2FCF22CF52CF77
:101E9800825A2FCF23CF53CF835A2FCF24CF54CF5B
:101EA800845A2FCF25CF55CF855A2FCF26CF56CF3F
:101EB800865A2FCF27CF57CF875A2FCF28CF58CF23
:101EC800885A2FCF29CF59CF895A35D520D550D503
:101ED800805A35D522D552D5825A35D523D553D5F2
:101EE800835A35D524D554D5845A35D525D555D5D5
:101EF800855A35D526D556D5865A36D620D650D6C3
:101F0800805A36D622D652D6825A38D820D850D8B7
:101F180080418E690058A07F00000000000000008A
:101F280000000000000000000000000000000000A9
:101F380058A05F000000000000000100000002003F
:101F4800027360000A2D080007ED6541A05BFF6081
:101F5800649FF7000001000200030004000500066A
:101F6800000700080009000A000B000C000D000E15
:101F7800000F0110001100120213001400150016C2
:101F8800001700180019001A001B021C001D001E73
:101F9800001F002000210022002300240025002625
:101FA800022700280029002A002B002C002D002ED3
:101FB800002F033000310048A0770001010302031D
:101FC800030542A05D0000429FF50000429FF20019
:101FD80000419FF40000AF0FEF1313543F54016406
:101FE8000160030229927B017A9B7910909D1BF076
:101FF800A3740CF07F217EA0123EB2909B12E0FEEB
:10200800A3E0FF909B10E0FCA3E02FFFEC3EFE90C6
:102018009F68E06F7001EE604C909B12E0FEA3E0B9
:10202800FF909B10E0A3E02FFFEC3EFE909F68E03E
:10203800C39FE49E501D909B1AE4F0A304F0FB7A22
:102048009B791A909D1BE4F0A37402F07F267EA072
:1020580012411F909B12E0A3E0FF909B10E0A3E0C9
:102068002F909F68F0909B10E0FEA3E0D39400EEC1
:102078009400500CA3E0FEA3E09400EE94004020EE
:10208800909B1AE0FEA3E04E60167B017A9F79567A
:10209800909D1BE4F0A37402F07FA07E0012411F04
:1020A80090A0D6E0FEA3E0640D4E600302244F909A
:1020B800A0D6E0A3E0FF909F81E0FCA3E06F700250
:1020C800EC6E601EE4909F86F0A3F07B017A9F7906
:1020D80086909D1BF0A37402F07F017EAE12411F13
:1020E80080167B017A9F7986909D1BE4F0A3740289
:1020F800F07F017EAE123EB27B017A9B7910909DF3
:102108001BE4F0A37410F07FA07EAE123EB2E49000
:102118009B1EF0A3E05407F07B017A9F7958781052
:102128007C9B7D017E007F10122FF4EF702F909F13
:1021380083E0FEA3E0FF909F86E0FCA3E0B5071DC7
:10214800ECB5061990A0D6E0FEA3E0FF909F81E0D1
:10215800FCA3E06F7002EC6E70030227447B017AE7
:102168009B791078587C9F7D017E007F10122A632E
:10217800E4909F85F0909B43F0909B43E0C39408C4
:102188007480948040030223F7E4909B42F0909B74
:1021980042E0C394107480948040030223EEA3E0CD
:1021A800C454F0FF909B42E02F909B47F0E075F0FD
:1021B80018A42400FFE5F03435FE7B017A9B7910E2
:1021C800909D1BE4F0A37430F0123EB27B017A9B21
:1021D8007910909B44122E12909B42E0FF7E00746F
:1021E80001A807088005C333CE33CED8F9FF909BEA
:1021F80043E025E02458F582E4349FF583E0FCA30E
:10220800E0FDEE5CFEEF5D4E7003022345909B44BB
:10221800122DF2122BAA645A7004E5F064A570031B
:102228000222E2909B44122DF274A575F05A122CEA
:102238000D7B017A9B7924909D1BE4F0A37408F030
:102248007F107E00123EB27B017A9B792478127C43
:102258009B7D017E007F03122A637B017A9B79288C
:1022680078157C9B7D017E007F03122A637E007FA8
:10227800087D007B017A9B7918123018909B47E003
:10228800FF909B1EE4F0A3EFF07B017A9B7920C0BE
:1022980002C001909B4775F020A42409F974803589
:1022A800F0FA909B5B122E12909B5EE4F0A37420D0
:1022B800F0D001D00212673E909B47E075F018A459
:1022C8002400FFE5F03435FE7B017A9B7910909D60
:1022D8001BE4F0A37430F012411F909F86E0FEA328
:1022E800E0FF7C007D0A122AE1909F85E0C39FEC05
:1022F8009E4041A3E0FEA3E0FF122AE1EF240AFF7B
:10230800E43EFE909F85E0C39FEC9E5027909B473C
:10231800E075F018A42400FDE5F03435FC909F86A4
:10232800E0A3E075F00AA4FF909F85E0C39FFF7BC0
:102338000D1258A3909F85E004F00223E5909B447A
:10234800122DF2122BAA645A7004E5F064A56003FA
:102358000223E57B017A9B7924909D1BF0A37408E6
:10236800F07F107E00123EB27B017A9B79247818A8
:102378007C9B7D017E007F03122A637B017A9B7917
:1023880028781B7C9B7D017E007F03122A63909B2B
:1023980047E0FF909B1EE4F0A3EFF07B017A9B7966
:1023A80010909D1BE4F0A37410F07F007E30124162
:1023B8001F125F53E4909B10F0A3F0909B47E075C9
:1023C800F018A42400FFE5F03435FE7B017A9B79F0
:1023D80010909D1BE4F0A37402F012411F909B42E1
:1023E800E004F0022196909B43E004F002218190E2
:1023F8009F85E0909B42F0909F86E0FEA3E0FF7CE3
:10240800007D0A122AE1EF240AFFE43EFE909B4277
:10241800E0C39FEC9E501D909F86E0A3E075F00AF4
:10242800A4FF909B42E0C39FFF125626909B42E078
:1024380004F080C3909F86E0FEA3E0FF909F83EEA8
:10244800F0A3EFF00227447B017A9B7910909D1B43
:10245800E4F0A37410F07FA07EAE123EB2E4909B2D
:102468001EF0A3E05407F07B017A9F795878107C1E
:102478009B7D017E007F10122FF4EF70030227442A
:102488007B017A9B791078447C9B7D017E007F10CC
:10249800122A63E4909B43F0909B43E0C394087432
:1024A8008094804003022731E4909B42F0909B4245
:1024B800E0C39410748094804003022728E0FF7ED4
:1024C800007401A807088005C333CE33CED8F9FFBE
:1024D800909B43E025E02444F582E4349BF583E0B7
:1024E800FCA3E0FDEE5CFCEF5DFD909B42E0FF7E0F
:1024F800007401A807088005C333CE33CED8F9FF8E
:10250800909B43E025E02458F582E4349FF583E06E
:10251800FAA3E0FBEE5AFEEF5B6D7002EE6C7003FF
:1025280002271F909B43E0C454F0FF909B42E02F8A
:10253800909B57F0E075F018A42400FFE5F03435BF
:10254800FE7B017A9B7910909D1BE4F0A37430F018
:10255800123EB27B017A9B7910909B54122E1290F6
:102568009B42E0FF7E007401A807088005C333CEB4
:1025780033CED8F9FF909B43E025E02444F582E46C
:10258800349BF583E0FCA3E0FDEE5CFEEF5D4E704E
:102598000302266C909B54122DF2122BAA645A70D7
:1025A80004E5F064A5700302271F909B54122DF2D6
:1025B80074A575F05A122C0D7B017A9B7924909D95
:1025C8001BE4F0A37408F07F107E00123EB27B017A
:1025D8007A9B792478127C9B7D017E007F03122AE6
:1025E800637B017A9B792878157C9B7D017E007F2F
:1025F80003122A637E007F087D007B017A9B79188D
:10260800123018909B57E0FF909B1EE4F0A3EFF068
:102618007B017A9B7920C002C001909B5775F020FE
:10262800A42409F9748035F0FA909B5B122E12905D
:102638009B5EE4F0A37420F0D001D00212673E90B4
:102648009B57E075F018A42400FFE5F03435FE7BB5
:10265800017A9B7910909D1BE4F0A37430F012412D
:102668001F02271F909B54122DF2122BAA645A7036
:1026780004E5F064A5600302271F7B017A9B792497
:10268800909D1BF0A37408F07F107E00123EB27B71
:10269800017A9B792478187C9B7D017E007F031248
:1026A8002A637B017A9B7928781B7C9B7D017E00BD
:1026B8007F03122A63909B57E0FF909B1EE4F0A3D0
:1026C800EFF07B017A9B7910909D1BE4F0A37410C6
:1026D800F07F007E3012411F125F53E4909B10F090
:1026E800A3F0909B57E075F018A42400FFE5F034A0
:1026F80035FE7B017A9B7910909D1BE4F0A3740250
:10270800F012411F909F86E0FEA3E02401FFE43E03
:10271800909F83F0A3EFF0909B42E004F00224B571
:10272800909B43E004F00224A07B017A9B794478D3
:10273800587C9F7D017E007F10122A6390A0D6E00E
:10274800FEA3E0640E4E600302298290A0D6E0A3A7
:10275800E0FF909F81E0FCA3E06F7002EC6E601ECA
:10276800E4909F86F0A3F07B017A9F7986909D1B69
:10277800F0A37402F07F017EAE12411F80347B010A
:102788007A9F7986909D1BE4F0A37402F07F017E06
:10279800AE123EB2909F83E0FEA3E0FF909F86E0DA
:1027A800FCA3E06F7002EC6E7003022982800302C2
:1027B8002982909F86E0FEA3E0FF909F83EEF0A31E
:1027C800EFF0E4A3F0909F85E0C3940A74809480AE
:1027D8004003022968A3E0FEA3E0FF7C007D0A1203
:1027E8002AE1909F85E02FFFEC3EFE909F7FE0FC62
:1027F800A3E0FDC3EF9DEE9C4003022968909F86ED
:10280800E0FEA3E0FF7C007D0A122AE1909F85E0AC
:102818002FFFEC3EFE909F7BE0FCA3E0D39FEC9E55
:102828004032909F86E0FEA3E0FF7C00122AE190F0
:102838009F85E02FFFEC3EFEEF2401FFE43EFE9073
:102848009F7BE0FCA3E0C39FFFEC9E909B44F0A31A
:10285800EFF0803A909F86E0FEA3E0FF7C007D0ABF
:10286800122AE1909F85E02FFFEC3EFEEF2401FF46
:10287800E43EFE909F7BE0FCA3E02400FDEC3402E4
:10288800FCC3ED9FFFEC9E909B44F0A3EFF0909B60
:1028980044E0FEA3E07803C333CE33CED8F9240056
:1028A800FFEE3420FEE4FCFD909D19122DA9909DA9
:1028B8001DE4F0A37408F07D007C307F5A12640593
:1028C8007B017A9B7910909D1BE4F0A37410F07F34
:1028D800007E30123EB27B017A9B7920C003C00291
:1028E800C001909B1EE0FEA3E07805C333CE33CE33
:1028F800D8F92409F974803EFA7B01909B5B122E6B
:1029080012909B5EE4F0A37420F0D001D002D003B3
:1029180012673E909F85E025E02488F582E4349F85
:10292800F583E0FEA3E0FF7B017A9B7910909D1B65
:10293800E4F0A37430F012411F909F85E025E02455
:1029480088F582E4349FF583E0FCA3E0FD909F8541
:10295800E0FF7B0E1258A3909F85E004F00227CD7C
:10296800909F85E0C3940A74809480500DE0FF1214
:102978005626909F85E004F080E690A0D6E0FEA35E
:10298800E0FF909F81EEF0A3EFF022E709F608DF61
:10299800FA8046E709F208DFFA803E88828C83E7EE
:1029A80009F0A3DFFA8032E309F608DFFA8078E35A
:1029B80009F208DFFA807088828C83E309F0A3DFCC
:1029C800FA806489828A83E0A3F608DFFA8058894E
:1029D800828A83E0A3F208DFFA804C80D280FA80F2
:1029E800C680D4806980F28033801080A680EA8017
:1029F8009A80A880DA80E280CA803389828A83EC50
:102A0800FAE493A3C8C582C8CCC583CCF0A3C8C5D3
:102A180082C8CCC583CCDFE9DEE7800D89828A8352
:102A2800E493A3F608DFF9ECFAA9F0EDFB2289821A
:102A38008A83ECFAE0A3C8C582C8CCC583CCF0A3CE
:102A4800C8C582C8CCC583CCDFEADEE880DB8982D2
:102A58008A83E493A3F208DFF980CC88F0EF600161
:102A68000E4E60C388F0ED2402B4040050B9F5821C
:102A7800EB2402B4040050AF23234582239029E3BA
:102A880073BB010689828A83E0225002E722BBFEDB
:102A980002E32289828A83E49322BB010CE582291E
:102AA800F582E5833AF583E0225006E92582F8E6C7
:102AB80022BBFE06E92582F8E222E58229F582E5B5
:102AC800833AF583E49322BB010689828A83F02244
:102AD8005002F722BBFE01F322EF8DF0A4A8F0CF3D
:102AE8008CF0A428CE8DF0A42EFE22BC000BBE00D4
:102AF80029EF8DF084FFADF022E4CCF875F008EFF3
:102B08002FFFEE33FEEC33FCEE9DEC984005FCEE17
:102B18009DFE0FD5F0E9E4CEFD22EDF8F5F0EE8448
:102B280020D21CFEADF075F008EF2FFFED33FD400D
:102B380007985006D5F0F222C398FD0FD5F0EA2287
:102B4800C2D5EC30E709B2D5E4C39DFDE49CFCEEA8
:102B580030E715B2D5E4C39FFFE49EFE122AF3C303
:102B6800E49DFDE49CFC8003122AF330D507C3E4FE
:102B78009FFFE49EFE22C5F0F8A3E028F0C5F0F818
:102B8800E582158270021583E038F022A3F8E0C5CB
:102B9800F025F0F0E582158270021583E0C838F060
:102BA800E822BB010A89828A83E0F5F0A3E022507B
:102BB8000687F009E71922BBFE07E3F5F009E319D8
:102BC8002289828A83E493F5F074019322BB011071
:102BD800E58229F582E5833AF583E0F5F0A3E02262
:102BE8005009E92582F886F008E622BBFE0AE925A5
:102BF80082F8E2F5F008E222E5832AF583E993F505
:102C0800F0A3E99322BB010A89828A83F0E5F0A345
:102C1800F0225006F709A7F01922BBFE06F3E5F0EB
:102C280009F31922EF2BFFEE3AFEED39FDEC38FCE3
:102C380022E88FF0A4CC8BF0A42CFCE98EF0A42C15
:102C4800FC8AF0EDA42CFCEA8EF0A4CDA8F08BF061
:102C5800A42DCC3825F0FDE98FF0A42CCD35F0FC5F
:102C6800EB8EF0A4FEA9F0EB8FF0A4CFC5F02ECD2B
:102C780039FEE43CFCEAA42DCE35F0FDE43CFC2210
:102C880075F008758200EF2FFFEE33FECD33CDCC03
:102C980033CCC58233C5829BED9AEC99E582984086
:102CA8000CF582EE9BFEED9AFDEC99FC0FD5F0D663
:102CB800E4CEFBE4CDFAE4CCF9A88222B800C1B98D
:102CC8000059BA002DEC8BF084CFCECDFCE5F0CBCB
:102CD800F97818EF2FFFEE33FEED33FDEC33FCEB04
:102CE80033FB10D703994004EB99FB0FD8E5E4F9BF
:102CF800FA227818EF2FFFEE33FEED33FDEC33FCAC
:102D0800C933C910D7059BE99A4007EC9BFCE99A9F
:102D1800F90FD8E0E4C9FAE4CCFB2275F010EF2FE4
:102D2800FFEE33FEED33FDCC33CCC833C810D707E4
:102D38009BEC9AE899400AED9BFDEC9AFCE899F81F
:102D48000FD5F0DAE4CDFBE4CCFAE4C8F922EB9F26
:102D5800F5F0EA9E42F0E99D42F0EC6480C8648098
:102D68009845F022EB9FF5F0EA9E42F0E99D42F08B
:102D7800E89C45F022E86010ECA2E713FCED13FD97
:102D8800EE13FEEF13FFD8F022E0FCA3E0FDA3E072
:102D9800FEA3E0FF22E0F8A3E0F9A3E0FAA3E0FB3A
:102DA80022ECF0A3EDF0A3EEF0A3EFF022A88285C9
:102DB80083F0D083D082122DCC122DCC122DCC12C0
:102DC8002DCCE473E493A3C583C5F0C583C8C5823D
:102DD800C8F0A3C583C5F0C583C8C582C822A42589
:102DE80082F582E5F03583F58322E0FBA3E0FAA3C0
:102DF800E0F922F8E0FBA3A3E0F925F0F0E582155D
:102E08008270021583E0FA38F022EBF0A3EAF0A30F
:102E1800E9F022D083D082F8E493701274019370A1
:102E28000DA3A393F8740193F5828883E473740265
:102E3800936860EFA3A3A380DFD083D082F8E493E4
:102E48007012740193700DA3A393F8740193F58223
:102E58008883E473740293B5F0067403936860E999
:102E6800A3A3A3A380D8E3F5F009E208B5F06BDFCC
:102E7800F58067E3F5F009E608B5F05EDFF5805AFE
:102E880087F009E608B5F052DFF6804E87F009E2D0
:102E980008B5F046DFF6804288828C8387F009E027
:102EA800A3B5F036DFF6803288828C8387F009E498
:102EB80093A3B5F025DFF5802188828C83E3F5F0B4
:102EC80009E0A3B5F014DFF5801088828C83E3F560
:102ED800F009E493A3B5F002DFF4022F9D80878008
:102EE800E9809080D4803E8015806E807E809D80B1
:102EF800B7808D80A380518074803C022FA989827D
:102F08008A83ECFAE493F5F0A3C8C582C8CCC583DC
:102F1800CCE493A3C8C582C8CCC583CCB5F076DF12
:102F2800E3DEE1807089828A83E493F5F0A3E20806
:102F3800B5F062DFF4805E89828A83E0F5F0A3E66B
:102F480008B5F051DFF5804D89828A83E0F5F0A35A
:102F5800E208B5F040DFF5803C89828A83E493F586
:102F6800F0A3E608B5F02EDFF4802A8002805789A6
:102F7800828A83ECFAE493F5F0A3C8C582C8CCC56D
:102F880083CCE0A3C8C582C8CCC583CCB5F006DF26
:102F9800E4DEE280007FFFB5F0020F2240027F01ED
:102FA8002289828A83ECFAE0F5F0A3C8C582C8CCEE
:102FB800C583CCE0A3C8C582C8CCC583CCB5F0D541
:102FC800DFE5DEE380CF89828A83ECFAE0F5F0A3BF
:102FD800C8C582C8CCC583CCE493A3C8C582C8CC75
:102FE800C583CCB5F0AFDFE4DEE280A988F0EF60FE
:102FF800010E4E60ABED2402B404005098F582EB4C
:103008002402B40400508E2323458223902EE573B6
:10301800EF4E6012EF60010EEDBB010B89828A83CF
:10302800F0A3DFFCDEFA2289F05007F709DFFCA9DC
:10303800F022BBFEFCF309DFFCA9F022F8BB010D6E
:10304800E58229F582E5833AF583E8F0225006E91E
:103058002582C8F622BBFE05E92582C8F2227BFF3D
:103068007A7179F4784B7C9B7D017E007F3E122A31
:10307800637BFF7A727932788A7C9B7D017E007F40
:1030880024122A637B017A9B794B909D1BE4F0A361
:10309800743EF07F207EAB123EB2E4909B89F090A4
:1030A8009B89E0C39410748094804003023307E046
:1030B800FF7E007401A807088005C333CE33CED83D
:1030C800F9FF909B51E0FCA3E0FDEE5CFEEF5D4E46
:1030D80070030232EB909B89E0FF7E007401A80721
:1030E800088005C333CE33CED8F9FF909B55E0FC5A
:1030F800A3E0FDEE5CFEEF5D4E7003023298909BFC
:1031080089E0FF1313543F2407FFE433909BB0F08A
:10311800A3EFF0909BB0E0FEA3E025E0FFEE33FEC6
:10312800744B2FF582749B3EF583E0FEA3E0FF907D
:103138009B89E0540325E025E0FDEFA805088005FC
:10314800CEC313CE13D8F9540FFF909BAEE4F0A36F
:10315800EFF0909BAEE0FEA3E08EF0122E41318A94
:10316800000031A2000131BA000231D2000431E975
:1031780000053200000632170008322E0009000050
:103188003245909B89E025E0248AF582E4349BF55A
:1031980083E4F0A37405F002325A909B89E025E09D
:1031A800248AF582E4349BF583E4F0A37406F002E4
:1031B800325A909B89E025E0248AF582E4349BF515
:1031C80083E4F0A37407F002325A909B89E025E06B
:1031D800248AF582E4349BF583E4F0A37408F08034
:1031E80071909B89E025E0248AF582E4349BF5837D
:1031F800E4F0A37409F0805A909B89E025E0248AC2
:10320800F582E4349BF583E4F0A3740AF0804390DC
:103218009B89E025E0248AF582E4349BF583E4F079
:10322800A37403F0802C909B89E025E0248AF58222
:10323800E4349BF583E4F0A37404F08015909B8933
:10324800E025E0248AF582E4349BF583E4F0A37456
:1032580005F0909B89E0FF7E007401A807088005AF
:10326800C333CE33CED8F9FF909B4DE0FCA3E0FDED
:10327800EE5CFEEF5D4E607E909B89E025E0248A3F
:10328800F582E4349BF583E475F008122B7E8066A2
:10329800909B89E0FF7E007401A807088005C3336E
:1032A800CE33CED8F9FF909B4DE0FCA3E0FDEE5C59
:1032B800FEEF5D4E6017909B89E025E0248AF58239
:1032C800E4349BF583E4F0A37402F08029909B8991
:1032D800E025E0248AF582E4349BF583E4F0A30436
:1032E800F08013909B89E025E0248AF582E4349BE2
:1032F800F583E4F0A3F0909B89E004F00230A790F6
:103308009B897410F0909B89E0C394127480948018
:103318004003023578E024F0FF7E007401A8070816
:103328008005C333CE33CED8F9FF909B53E0FCA37E
:10333800E0FDEE5CFEEF5D4E700302355C909B890C
:10334800E024F0FF7E007401A807088005C333CE8F
:1033580033CED8F9FF909B57E0FCA3E0FDEE5CFE6E
:10336800EF5D4E7003023507909B89E0FF131354FD
:103378003F2407FFE433909BB0F0A3EFF0909BB09D
:10338800E0FEA3E025E0FFEE33FE744B2FF58274D8
:103398009B3EF583E0FEA3E0FF909B89E054032564
:1033A800E025E0FDEFA805088005CEC313CE13D8AD
:1033B800F9540FFF909BAEE4F0A3EFF0909BAEE0C2
:1033C800FEA3E08EF0122E4133F40000340C00010D
:1033D80034240002343C000434530005346A0006E7
:1033E8003481000834980009000034AF909B89E0CC
:1033F80025E0248AF582E4349BF583E4F0A3740580
:10340800F00234C4909B89E025E0248AF582E434F4
:103418009BF583E4F0A37406F00234C4909B89E022
:1034280025E0248AF582E4349BF583E4F0A374074D
:10343800F00234C4909B89E025E0248AF582E434C4
:103448009BF583E4F0A37408F08071909B89E025D4
:10345800E0248AF582E4349BF583E4F0A37409F050
:10346800805A909B89E025E0248AF582E4349BF514
:1034780083E4F0A3740AF08043909B89E025E0245C
:103488008AF582E4349BF583E4F0A37403F0802C7E
:10349800909B89E025E0248AF582E4349BF583E457
:1034A800F0A37404F08015909B89E025E0248AF548
:1034B80082E4349BF583E4F0A37405F0909B89E0E3
:1034C80024F0FF7E007401A807088005C333CE33BB
:1034D800CED8F9FF909B4FE0FCA3E0FDEE5CFEEF39
:1034E8005D4E700302356F909B89E025E0248AF5D4
:1034F80082E4349BF583E475F008122B7E80689093
:103508009B89E024F0FF7E007401A807088005C3AA
:1035180033CE33CED8F9FF909B4FE0FCA3E0FDEE0D
:103528005CFEEF5D4E6017909B89E025E0248AF5EC
:1035380082E4349BF583E4F0A37402F08029909B25
:1035480089E025E0248AF582E4349BF583E4F0A33E
:1035580004F08013909B89E025E0248AF582E43406
:103568009BF583E4F0A3F0909B89E004F002330D0F
:103578007B017A9B798A909D1BE4F0A37424F07FE9
:10358800A07EAB12411F22909B15122E12909B1801
:10359800ECF0A3EDF0E4A3F0A3F0909B18E0FEA3F9
:1035A800E0FFA3E0FCA3E0C39FEC9E500C909B1AA5
:1035B800E475F001122B7E80E1909B18E0FEA3E0F9
:1035C800C39405EE94005003023908E4A3F0A3F075
:1035D800909B15122DF2909B1AE0FEA3E0F5828EC7
:1035E80083122AA2640260030238E2909B15122D0E
:1035F800F2909B1AE0A3E029F9EA3EFA9000011242
:103608002AA2122E1B361A03376906382B1000001F
:1036180038E2909B15122DF2909B1AE0FEA3E02948
:10362800F9EA3EFA900002122AA2FF909B1EE4F0EB
:10363800A3EFF0909B1AE0A3E0FF909B1EE0FCA391
:10364800E02FFFEC3EFEEF2405FFE43EFE909B18C2
:10365800E0FCA3E0FDD3EF9DEE9C4011909B18E0A9
:10366800FEA3E0FFA3EEF0A3EFF00238E2909B1573
:10367800122DF2909B1AE0FEA3E029F9EA3EFA9097
:103688009B1EE0FEA3E02403FDE43EFC12650C90C3
:103698009B1CEEF0A3EFF0909B15122DF2909B1A55
:1036A800E0FEA3E029F9EA3EFA909B1EE0FEA3E0C3
:1036B80029F9EA3EFA900003122AA2FD909B1CE029
:1036C800FEA3E0EE6D7001E460030238E2909B1502
:1036D800122DF2909B1AE0FEA3E029F9EA3EFA9037
:1036E8009B1EE0FEA3E029F9EA3EFA900004122AA4
:1036F800A2FF909B1CE0A3E06F7001E46003023816
:10370800E2909171E0FEA3E0FF909B15122DF290DC
:103718009B1AE0FCA3E029F9EA3CFAE92403F9E45E
:103728003AFA909B1EE0FCA3E0FD909D1BECF0A3F1
:10373800EDF012411F7E007F0E7D007B017A9179AA
:1037480069123018909B1EE0FEA3E02405FFE43EBA
:10375800909B1AF0A3EFF0908E69E04402F00238D3
:10376800E2909B1AE0FEA3E02408FFE43EFE909B53
:1037780018E0FCA3E0FDD3EF9DEE9C4011909B1850
:10378800E0FEA3E0FFA3EEF0A3EFF00238E2909B87
:1037980015122DF2909B1AE0FEA3E029F9EA3EFAF1
:1037A8007D067C0012650C909B1CEEF0A3EFF09058
:1037B8009B15122DF2909B1AE0FEA3E029F9EA3E30
:1037C800FA900006122AA2FD909B1CE0FEA3E0EEF0
:1037D8006D7001E460030238E2909B15122DF2909F
:1037E8009B1AE0FEA3E029F9EA3EFA900007122AA4
:1037F800A2FF909B1CE0A3E06F7001E46003023815
:10380800E2909B1A75F008122B7E7E007F0E7D00D9
:103818007B017A917969123018908E69E04402F040
:103828000238E2909B1AE0FEA3E02408FFE43EFE83
:10383800909B18E0FCA3E0FDD3EF9DEE9C40119017
:103848009B18E0FEA3E0FFA3EEF0A3EFF00238E23E
:10385800909B15122DF2909B1AE0FEA3E029F9EA3D
:103868003EFA7D067C0012650C909B1CEEF0A3EFDF
:10387800F0909B15122DF2909B1AE0FEA3E029F917
:10388800EA3EFA900006122AA2FD909B1CE0FEA3D5
:10389800E0EE6D7001E47042909B15122DF2909B42
:1038A8001AE0FEA3E029F9EA3EFA900007122AA2DC
:1038B800FF909B1CE0A3E0B50720E4909B1A75F0ED
:1038C80008122B7E7E007F0E7D007B017A9179693C
:1038D800123018908E69E04402F0909B1AE475F05B
:1038E80001122B7E909B18E0FEA3E024FBFFEE3430
:1038F800FFFEA3E0FCA3E0C39FEC9E50030235D873
:1039080022E50F30E0167B017AA079D6909D1BE462
:10391800F0A37402F07F147E00123EB2E50F20E29D
:1039280003023BEE90A0D6E0FEA3E0640B4E7003CA
:1039380012306690A0D6E0FEA3E064294E60030230
:103948003A1C7B017A9B7913909D1BF0A3741CF0A1
:103958007FB07EC9123EB2E4909B10F0909B10E0BD
:10396800C39407748094804003023A06E025E0255A
:10397800E02413F582E4349BF583E0FEA3E0C4F869
:10398800540FC868FDEEC454F048FC909B10E02525
:10399800E025E02415F582E4349BF583E0FEA3E0FE
:1039A800EEC4540F2DFFE43C909B11F0A3EFF09070
:1039B8009B11E0FEA3E0FF7C007D18122AF3909B88
:1039C80010E025E0242FF582E4349BF583EEF0A384
:1039D800EFF0909B11E0FEA3E0FF7C007D18122A17
:1039E800F3909B10E025E0243DF582E4349BF583B9
:1039F800ECF0A3EDF0909B10E004F00239647B0139
:103A08007A9B792F909D1BE4F0A3741CF07F207E95
:103A1800C912411F90A0D6E0FEA3E0642C4E6003BB
:103A2800023AB37B017A9B7916909D1BF0A374022E
:103A3800F07FA07ECC123EB2909B16E0FEA3E0FF82
:103A4800EEC4F854F0C868FEEFC4540F48EE540FA3
:103A5800909B10F0A3E4F0909B10E0FCA3E0FD9095
:103A68009B16E0FEA3E07807CEC313CE13D8F95413
:103A78001FFFECFEED4FFF909B10EEF0A3EFF090D0
:103A88009B16E0A3E0547F909B12F0A3E4F0A304FC
:103A9800F0A37412F07B017A9B7910909D1BE4F0DF
:103AA800A37406F07F207ECC12411F90A0D6E0FEC2
:103AB800A3E064274E705690A0D2E0C394057480AA
:103AC80094805042909B10E4F0A304F0FB7A9B7919
:103AD80010909D1BE4F0A37402F07F277EA0124192
:103AE8001F909B10E4F0A3745AF07B017A9B791025
:103AF800909D1BE4F0A37402F07F877EA012411F03
:103B080090A0D2E004F0E490A0D3F0805390A0D32A
:103B1800E0C39405748094805041E4909B10F0A316
:103B2800F07B017A9B7910909D1BF0A37402F07FC3
:103B3800277EA012411F909B10E4F0A3745AF07BDB
:103B4800017A9B7910909D1BE4F0A37402F07F87A3
:103B58007EA012411F90A0D3E004F0E490A0D2F020
:103B68007B017A9B7910909D1BE4F0A37402F07F8F
:103B7800167E00123EB2909B10E0FEA3E04E602439
:103B8800E4909B10F0A3F07B017A9B7910909D1B29
:103B9800F0A37402F07F167E0012411FE490A0D4B7
:103BA800F0A3F02290A0D4E0FEA3E0C39458EE94D2
:103BB80002500B90A0D4E475F001122B7E2290A045
:103BC800D4E0FEA3E0B4581EEEB4021A90A0D4E4E8
:103BD80075F001122B7E90A0D6E0FEA3E04E6006A1
:103BE800E4FFFE126B7B22909B1F122E12909B22E9
:103BF800ECF0A3EDF07BFF7A72799878247C9B7DBA
:103C0800017E007F18122A63909B1F122DF29000EC
:103C18000A122BD5246CFFE5F03407909B50F0A3D3
:103C2800EFF0909B50E0FEA3E0FF7C007D64122B38
:103C380048ED4C6013909B50E0FEA3E0FF7C007DB4
:103C480004122B48ED4C6013909B50E0FEA3E0FF5C
:103C58007C017D90122B48ED4C70067E007F018020
:103C6800047E007F00909B4CEEF0A3EFF0909B1F2A
:103C7800122DF290000A122BD524BAFFE5F034FF7A
:103C8800FE3395E0FDFC909B3C122DA9909B1F12E2
:103C98002DF2900008122BD5C39401E5F0648094AE
:103CA800805040909B4CE0FEA3E064014E7034903D
:103CB8009B3C122D91EF2402FFE43EFEE43DFDE41F
:103CC8003CFCE47B04FAF9F8126BC2EF24FFFFEE28
:103CD80034FFFEED34FFFDEC34FFFC909B44122DC5
:103CE800A98022909B3C122D91EF2402FFE43EFE16
:103CF800E43DFDE43CFCE47B04FAF9F8126BC29065
:103D08009B44122DA9909B40122DB500000000E4A1
:103D1800909B4EF0A3F0909B1F122DF2900008127A
:103D28002BD5FF909B4EE0FCA3E0C39FE5F0648099
:103D3800F8EC6480985048909B40122D91C006C0C2
:103D480007909B4EE0FEA3E025E0FFEE33FE7424CF
:103D58002FF582749B3EF583E0FEA3E0FFFBAA06E5
:103D6800EA3395E0F9F8D007D006122C2C909B4046
:103D7800122DA9909B4EE475F001122B7E8097902E
:103D88009B40122D91C006C007909B1F122DF290E8
:103D98000006122BD524FFFFE5F034FFFEAB07FA2F
:103DA8003395E0F9F8D007D006122C2C909B4012DE
:103DB8002DA9909B40122D91C004C005C006C007D4
:103DC800E47F6D7E01FDFC909B3C122D9D122C39E9
:103DD800909B44122D9D122C2CA804A905AA06AB71
:103DE80007D007D006D005D004122C2C909B401287
:103DF8002DA9909B1F122DF2900004122BD5FF9035
:103E08009B22E0FCA3E0FDC3EF9DFFE5F09CFE33A1
:103E180095E0FDFC909B48122DA9E47F107E0EFDD5
:103E2800FC909B48122D9D122C39C004C005C00679
:103E3800C0077F807E517D017C00909B40122D9DA4
:103E4800122C39A804A905AA06AB07D007D006D0BA
:103E580005D004122C2CC004C005C006C007909BD6
:103E68001F122DF2900002122BD5FFAEF07C007DC0
:103E78003C122AE1AB07AA06EA3395E0F9F8D00725
:103E8800D006D005D004122C2CC006C007909B1F6A
:103E9800122DF2122BAAFFAEF0FBAA06EA3395E028
:103EA800F9F8D007D006122C2C22909D16EEF0A31C
:103EB800EFF0A3122E127B007A007900C003C00233
:103EC800C001909D18122DF2D082D083D0E06B7083
:103ED80008E965827003EA6583700302411E909DBC
:103EE8001BE0FEA3E04E700302411E909D1BE0A361
:103EF800E0FFEEC313FEEF13FF909D16E0FCA3E076
:103F08002FFFEE3CFED3EF94FEEE94FF40030241F8
:103F18001EC2AF909D16E0A3E05401909D1DF09045
:103F28009D16E0FEA3E0FFEEC313FEEF13FF909D86
:103F380016EEF0A3EFF0909D16E0FEA3E07810CE09
:103F4800C313CE13D8F9F5F1909D16E0FEA3E0EE69
:103F5800F5F2909D16E0A3E0F5F3E4F5F875F401A9
:103F6800D2FF30FCFDD2FD909D1DE064017072907F
:103F78009D1BE0FEA3E064014E700AC2FBC2FAD2A8
:103F8800F9C2F88008C2FBC2FAD2F9D2F8D2FE20F0
:103F9800FEFD909D1BE0FEA3E064014E701A909D0B
:103FA8001875F001122DFBE5FC122ACF909D1B74A9
:103FB800FFF5F0122B7E8029909D18E475F0011210
:103FC8002DFBE5FC122ACF909D18E475F001122D07
:103FD800FBE5FD122ACF909D1B74FF75F0FE122B96
:103FE8007E909D1BE0FEA3E04E7003024119909D58
:103FF8001BE0A3E0C39404EE940040030240C29087
:104008009D1BE0A3E08EF0122E4140360001402CAB
:104018000002402200030000403ED2FBD2FAD2F94F
:10402800C2F88012D2FBD2FAC2F9C2F88008D2FBD9
:10403800C2FAC2F9C2F8D2FE20FEFD909D1BE0FE36
:10404800A3E08EF0122E4140AF0001408F000240E5
:104058005F000300004119909D18E475F001122DCE
:10406800FBE5FA122ACF909D18E475F001122DFB9A
:10407800E5FB122ACF909D18E475F001122DFBE59F
:10408800FC122ACF024119909D18E475F001122DF7
:10409800FBE5FA122ACF909D18E475F001122DFB6A
:1040A800E5FB122ACF806A909D18E475F001122D65
:1040B800FBE5FA122ACF80598057D2FBD2FAD2F9FF
:1040C800D2F8D2FE20FEFD909D18E475F001122D65
:1040D800FBE5FA122ACF909D18E475F001122DFB2A
:1040E800E5FB122ACF909D18E475F001122DFBE52F
:1040F800FC122ACF909D18E475F001122DFBE5FD06
:10410800122ACF909D1B74FF75F0FC122B7E023F84
:10411800E9E4F5F8D2AF22909D16EEF0A3EFF0A3F4
:10412800122E127B007A007900C003C002C00190F1
:104138009D18122DF2D082D083D0E06B7008E9650B
:10414800827003EA6583700302438A909D1BE0FE38
:10415800A3E04E700302438A909D1BE0A3E0FFEEAC
:10416800C313FEEF13FF909D16E0FCA3E02FFFEEB4
:104178003CFED3EF94FEEE94FF400302438AC2AFA5
:10418800909D16E0A3E05401909D1DF0909D16E0CF
:10419800FEA3E0FFEEC313FEEF13FF909D16EEF0B3
:1041A800A3EFF0909D16E0FEA3E07810CEC313CEE7
:1041B80013D8F9F5F1909D16E0FEA3E0EEF5F29024
:1041C8009D16E0A3E0F5F3E4F5F875F401D2FF30AD
:1041D800FCFDC2FD909D1DE064017072909D1BE086
:1041E800FEA3E064014E700AC2FBC2FAD2F9C2F81B
:1041F8008008C2FBC2FAD2F9D2F8909D1BE0FEA358
:10420800E064014E701A909D1875F001122DFB1292
:104218002A89F5FC909D1B74FFF5F0122B7E8029EE
:10422800909D18E475F001122DFB122A89F5FC9077
:104238009D18E475F001122DFB122A89F5FD909D59
:104248001B74FF75F0FE122B7ED2FE20FEFD909DA2
:104258001BE0FEA3E04E7003024385909D1BE0A384
:10426800E0C39404EE9400400302432E909D1BE0AB
:10427800A3E08EF0122E4142A300014299000242AF
:104288008F0003000042ABD2FBD2FAD2F9C2F88009
:1042980012D2FBD2FAC2F9C2F88008D2FBC2FAC223
:1042A800F9C2F8909D1BE0FEA3E08EF0122E414368
:1042B80016000142F6000242C700030000432590A1
:1042C8009D18E475F001122DFB122A89F5FA909DCC
:1042D80018E475F001122DFB122A89F5FB909D1840
:1042E800E475F001122DFB122A89F5FC802F909DB0
:1042F80018E475F001122DFB122A89F5FA909D1821
:10430800E475F001122DFB122A89F5FB800F909DB0
:1043180018E475F001122DFB122A89F5FAD2FE3045
:10432800FE5B80FB8057D2FBD2FAD2F9D2F8909D7F
:1043380018E475F001122DFB122A89F5FA909D18E0
:10434800E475F001122DFB122A89F5FB909D18E403
:1043580075F001122DFB122A89F5FC909D18E47561
:10436800F001122DFB122A89F5FDD2FE20FEFD90E8
:104378009D1B74FF75F0FC122B7E024256E4F5F883
:10438800D2AF227BFF7A71797078107C9B7D017E99
:10439800007F20122A637B017A9B7910909B32124E
:1043A8002E12909B35122E12E4909B30F0A3F090C1
:1043B8009B30E0FEA3E0C3EE940240030244549015
:1043C8009B30E0A3E07803C333CE33CED8F9240082
:1043D800FFEE3420FEE4FCFD909D19122DA9909D5E
:1043E8001DE4F0A37408F07D007C307F5A12640548
:1043F8007B017A9B7910909D1BE4F0A37410F07FE9
:10440800007E30123EB2909B32122DF2122BAA641B
:104418005A7004E5F064A56026909B35122DF212BF
:104428002BAAB4A527E5F0B45A22909B35122DF299
:1044380078797C9F7D017E007F08122A63800D9029
:104448009B30E475F001122B7E0243B7E4909B3059
:10445800F0A3F0909B30E0FEA3E0C3940AEE940032
:1044680040030245E67BFF7A71799078387C9B7D22
:10447800017E007F20122A637B017A9F7922783897
:104488007C9B7D017E007F1A122A63909B30E0FEA0
:10449800A3E0FF7C007D1B122AE1EF2464FFE43EC9
:1044A800909B3CF0A3EFF0909B417401F0909B30FF
:1044B800E0FEA3E0909F9C75F006122DE6EE75F0E5
:1044C80006A42583F583E0FEA3E0FF7B017A9B79B0
:1044D80038909D1BE4F0A37420F012411F7B017AF1
:1044E8009F793C78387C9B7D017E007F1A122A6375
:1044F800909B30E0FEA3E0FF7C007D1B122AE1EFD9
:104508002464FFE43E909B3CF0A3EFF0909B417441
:1045180001F0909B30E0FEA3E0909F9E75F006129C
:104528002DE6EE75F006A42583F583E0FEA3E0FFF3
:104538007B017A9B7938909D1BE4F0A37420F012DC
:10454800411F7B017A9F79D878387C9B7D017E005A
:104558007F1A122A63909B30E0FEA3E0FF7C007D67
:104568001B122AE1EF2464FFE43E909B3CF0A3EF8A
:10457800F0909B30E0FEA3E0FF122AE1EF2464FFF5
:10458800E43E909B42F0A3EFF0909B30E0FEA3E066
:10459800FF122AE1EF247DFFE43E909B46F0A3EF53
:1045A800F0909B30E0FEA3E0909FA075F006122DDE
:1045B800E6EE75F006A42583F583E0FEA3E0FF7B15
:1045C800017A9B7938909D1BE4F0A37420F0124186
:1045D8001F909B30E475F001122B7E02445B22E5AC
:1045E8000F30E10D90A0D8E475F001122B7E126017
:1045F8003590A0D8E0FEA3E0C394B0EE9404500335
:10460800024835E490A0D8F0A3F0A3E0FEA3E0248C
:1046180000FFEE3410909B10F0A3EFF07B017A9B23
:104628007912909D1BE4F0A37402F07FA37EA01280
:104638003EB2909B12E475F0C8122B7E909B10E05E
:10464800FEA3E0FF7B017A9B7912909D1BE4F0A307
:104658007402F012411F90A0DAE0FEA3E02400FFEC
:10466800EE3418909B10F0A3EFF07B017A9B79123F
:10467800909D1BE4F0A37402F07FA47EA0123EB2CA
:10468800909B10E0FEA3E0FF7B017A9B7912909D3E
:104698001BE4F0A37402F012411F90A0DAE0FEA31D
:1046A800E0FF909B16EEF0A3EFF090A0DAE475F02F
:1046B80001122B7E90A0DAE0FEA3E0C394FEEE94F4
:1046C800074007E490A0DAF0A3F07B017AA079DA3A
:1046D800909D1BE4F0A37402F07F007E0312411F3B
:1046E8007B017AA079DA909D1BE4F0A37402F0FFB5
:1046F8007E0312411F909B147407F0A374FEF07B95
:10470800017A9B7914909D1BE4F0A37402F07F0852
:104718007E5012411F7B017A9B7914909D1BE4F017
:10472800A37402F07F097E5012411F909B147402FB
:10473800F0A3748AF07B017A9B7914909D1BE4F0B6
:10474800A37402F07F117E5012411F90A0DAE0A3FB
:10475800E030E003024835909B1674FFF5F0122B09
:104768007E909B16E0FEA3E02400FFEE3410FE7B53
:10477800017A9B7910909D1BE4F0A37404F0123E1B
:10478800B2909B1474A5F0A3745AF07B017A9B79BC
:1047980010909D1BE4F0A37406F07F007E50124138
:1047A8001F909B16E0FEA3E0FFE4FCFD909D19120C
:1047B8002DA9909D1DE4F0A37404F07D007C507F2A
:1047C800A5126405909B16E0FEA3E02400FFEE34DA
:1047D80018FE7B017A9B7910909D1BE4F0A374046A
:1047E800F0123EB2909B1474A5F0A3745AF07B01AA
:1047F8007A9B7910909D1BE4F0A37406F07F007EED
:104808005012411F909B16E0FEA3E02400FFEE34F7
:1048180008FEE4FCFD909D19122DA9909D1DE4F061
:10482800A37404F07D007C507FA512640522909B40
:1048380015122E12909B15122DF2122A89909B1890
:10484800F0909B18E0C394A6748094804003024AB9
:104858006DE075F00E909177122DE6E0645A6003D2
:10486800024A64909B18E075F00E90917A122DE63A
:10487800E07003024A64909B18E075F00E90917CFA
:10488800122DE6E07003024A6D909B18E075F00E59
:1048980090917C122DE6E064017029909B18E075D8
:1048A800F00E90917D122DE6E0FEA3E0FF90A0D6D9
:1048B800E0FCA3E06F7002EC6E6003024A64024AF7
:1048C8006D024A64909B18E075F00E90917C122D51
:1048D800E6E064026003024989909B18E075F00ED7
:1048E80090917D122DE6E0FEA3E0FF7B017A9B7993
:1048F80019909D1BE4F0A37402F0123EB2909B192C
:10490800E0A3E0645A6003024A64909B18E0C394F1
:10491800A574809480503CE075F00E90918A122D19
:10492800E6E06402702D909B18E075F00E90918B74
:10493800122DE6E0FEA3E0FF909B18E075F00E90C4
:10494800917D122DE6E0FCA3E06F7002EC6E70031F
:10495800024A6DE4909B19F0A3F0909B18E075F063
:104968000E90917D122DE6E0FEA3E0FF7B017A9B7D
:104978007919909D1BE4F0A37402F012411F024ABA
:104988006D909B18E075F00E90917C122DE6E06416
:10499800036003024A64909B18E075F00E909183BF
:1049A800122DE6E0FEA3E0FF90A0D6E0FCA3E0FD18
:1049B800EF6D7002EE6C6003024A64909B18E0751C
:1049C800F00E90917D122DE6E0FEA3E0FF7B017AC8
:1049D8009B7919909D1BE4F0A37402F0123EB290EB
:1049E8009B19E0A3E0645A7073909B18E0C394A5E8
:1049F800748094805039E075F00E90918A122DE6FB
:104A0800E06403702A909B18E075F00E90918B1269
:104A18002DE6E0FEA3E0FF909B18E075F00E909164
:104A28007D122DE6E0FCA3E06F7002EC6E6036E4C8
:104A3800909B19F0A3F0909B18E075F00E90917D73
:104A4800122DE6E0FEA3E0FF7B017A9B7919909D89
:104A58001BE4F0A37402F012411F8009909B18E038
:104A680004F0024849909B18E0FF909B15122DF224
:104A7800EF122ACF227BFF7A6F797078107C9B7DAA
:104A8800017E027F00122A63909D19122DB5000045
:104A98000000909D1D7410F0A3E4F0FD7C107F5A77
:104AA800126405909D107410F0A3E4F0909D10E03E
:104AB800FEA3E0C394FEEE94175069909D10E0A306
:104AC800E0FF7B017A9B7910909D1B7402F0A3E4B0
:104AD800F0123EB2E4909D12F0A3F0909D12E0FE19
:104AE800A3E0C3EE9401502F909D12E0A3E025E0CF
:104AF800FFEE33FE74102FF582749B3EF583E0FEC3
:104B0800A3E0645A7003EE64A56019909D12E475E1
:104B1800F001122B7E80C4909D10740175F0001274
:104B28002B7E8088909D12E0FEA3E0FF909D10E010
:104B3800FCA3E02FFFEC3E909D14F0A3EFF0909DB6
:104B480014E0FEA3E0C394FEEE94174009909D1470
:104B58007410F0A3E4F0909D1474F075F000122B1B
:104B68007E909D14E0FEA3E0FF90A0DAEEF0A3EFA4
:104B7800F07B017A9D7914909D1BE4F0A37402F0F8
:104B88007F007E0312411F7B017A9D7914909D1B43
:104B9800E4F0A37402F0FF7E0312411F7B017A9DAB
:104BA8007914909D1BE4F0A37402F07F087E5012E4
:104BB800411F7B017A9D7914909D1BE4F0A3740238
:104BC800F07F097E5012411F909B107407F0A37468
:104BD800FEF07B017A9B7910909D1BE4F0A3740290
:104BE800F07F017E0312411F7B017A9B7910909D13
:104BF8001BE4F0A37402F004FFFE12411F909B1007
:104C0800E4F0A37406F0A3E4F0A304F0A3E4F0A393
:104C1800742EF0A37401F0A3744CF0A37401F0A3F4
:104C28007471F0A37401F0A37477F0A37401F0A376
:104C3800748AF0A37402F0A3748AF0A37401F0A339
:104C48007471F0A374FFF0A3E4F07B017A9B7910F0
:104C5800909D1BF0A37414F07F0A7E5012411F220E
:104C6800E4909B10F0A3F0E50F20E003024E4F7B89
:104C7800017A9B7910909D1BE4F0A37402F07F14D5
:104C88007E50123EB2909B10E0FEA3E04E700302ED
:104C98004E4F909B10E0A3E08EF0122E414DCDA018
:104CA800004DD2A0264DD7A4004DDCA4014DE1A4AF
:104CB800A04DE1A4A14DE1A4A24DE1A4A34DE1A41E
:104CC800A44DE1A4A54DE1A4A64DE1A4A74DE1A4FE
:104CD800A84DE1A4A94DE1A4AA4DE1A4AB4DE1A4DE
:104CE800AC4DE1A4AD4DE1A4AE4DE1A4AF4DE1A4BE
:104CF800B04DE1A4B14DE1A4B24DE1A4B34DE1A49E
:104D0800B44DE1A4B54DE1A4B64DE1A4B74DE1A47D
:104D1800B84DE1A4B94DE1A4BA4DE1A4BB4DE1A45D
:104D2800BC4DE1A4BD4DE1A4BE4DE1A4BF4DE1A43D
:104D3800C04DE1A4C14DE1A4C24DE1A4C34DE1A41D
:104D4800C44DE1A4C54DE1A4C64DE1A4C74DE1A4FD
:104D5800C84DE1A4C94DE1A4CA4DE1A4CB4DE1A4DD
:104D6800CC4DE1A4CD4DE1A4CE4DE1A4CF4DE1A4BD
:104D7800D04DE1A4D14DEEA4F04DEEA4F14DEEA43A
:104D8800F24DEEA4F34DFBA6004E33A6014E00AC47
:104D9800004E05AC014E0FC5004E14C6004E0AC7A2
:104DA800004E19C7014E1EC9014E1EC9074E1EC925
:104DB8000D4E1EC90E4E1EC9114E2BCF004E30D6B9
:104DC8000000004E331267A68061126E57805C1295
:104DD800666880571200168052909B10E0FEA3E090
:104DE800FF1269238045909B10E0FEA3E0FF126943
:104DF8007D80381262AA8033126A30802E126D01CB
:104E080080291257658024126D37801F126E188012
:104E18001A1200228015909B10E0FEA3E0FF126B8F
:104E2800308008126C068003126C45E4909B10F0E9
:104E3800A3F07B017A9B7910909D1BF0A37402F07C
:104E48007F147E5012411F22126E747F64126ADD35
:104E58007F10126ADD126EF0126E747F65126ADDC1
:104E6800909B187406F0909B18E0D394007480947B
:104E780080401D126A88909B18E02410F582E43463
:104E88009BF583EFF0126E8F909B18E014F080D69C
:104E9800126A88909B10EFF0126EA8126EF0E490E0
:104EA8009B18F0909B18E0C3940374809480504B37
:104EB800E02410F582E4349BF583E0FFC4540F909E
:104EC8009B19F0909B18E02410F582E4349BF5833D
:104ED800E0540F909B1AF0909B19E075F00AA4FF1C
:104EE800A3E02FFF909B18E02410F582E4349BF593
:104EF80083EFF0909B18E004F080A8909B1874044E
:104F0800F0909B18E0C3940774809480504BE02481
:104F180010F582E4349BF583E0FFC4540F909B198D
:104F2800F0909B18E02410F582E4349BF583E0545C
:104F38000F909B1AF0909B19E075F00AA4FFA3E06C
:104F48002FFF909B18E02410F582E4349BF583EF43
:104F5800F0909B18E004F080A8909B10E0FFA3E07D
:104F6800FDA3E0FB12539C909B13EFF07B017A9B0F
:104F78007910909D1BE4F0A37408F07F107E001256
:104F8800411F909B15E06003025032A3E0600302CA
:104F98005032909B1B122DB500000000909B16E02C
:104FA800FF90A097E4F0A3EFF0909B15E0FF90A08E
:104FB80099E4F0A3EFF0909B14E0FF90A09BE4F03D
:104FC800A3EFF0909B12E0FF90A09DE4F0A3EFF018
:104FD800909B11E024FFFFE434FF90A09FF0A3EF23
:104FE800F0909B10E02464FFE43390A0A1F0A3EFBD
:104FF800F0909B10E4F0A3745AF0A3E4F0A37412A9
:10500800F07B017AA079977D087C00123BEF909B9A
:1050180014122DA97B017A9B7910909D1BE4F0A3B3
:105028007408F07F157E5012411F227B007A0079A8
:1050380000909B10122E12909168E06401600302A8
:1050480050CA909163E0FF909A8BE0D39F4011E0A3
:10505800909163F0909B0C122DB5000000008062C7
:10506800909163E0FF909A8BE06F7056FFFEFDFC15
:10507800909B0C122D9DD3122D6C4038909B0C12D6
:105088002D9DC3E50E9BFFE50D9AFEE50C99FDE508
:105098000B98FCE47B14FAF9F8C3122D6C50237BAF
:1050A800017A9A798C909A8BE0FD7C0012358F12E8
:1050B8006DD2800EAF0EAE0DAD0CAC0B909B0C12EA
:1050C8002DA9908E69E030E03AE020E129909164C2
:1050D800122D9DC3E50E9BFBE50D9AFAE50C99F997
:1050E800E50B98F890916DE0FFE4FCFDFEC3122DEE
:1050F8006C5003025206908E69E030E12DA3E00463
:10510800F08027909164122D9DC3E50E9BFFE50D5D
:105118009AFEE50C99FDE50B98FCE47BF47A01F91D
:10512800F8D3122D6C4003025206908E6AE0700389
:105138001254E1909164122DB500000000E4F50EC0
:10514800F50DF50CF50B908E69E054FDF0E054FE7A
:10515800F0126DD27B017A8E796A124836908E6A87
:10516800E0C394A6748094804003025201E075F075
:105178000EA42477F9749135F0FA7B0178697C9153
:105188007D017E007F0E122A63126DD290916BE032
:10519800640370117B017A917969125C22908E699F
:1051A800E04401F02290916BE064067033909171B5
:1051B800E0FEA3E0FF7B017A9B7913909D1BE4F04E
:1051C800A37402F0123EB27B017A917969909B1325
:1051D800E0FCA3E0FD125D3D908E69E04401F02201
:1051E80090916BE0641070167B017A917969125284
:1051F80007908E69E04401F022E4908E6AF02290D4
:105208009B15122E12E4909B1AF0909B15122DF20A
:10521800900001122AA2FF909B1AE0FE04F0741B72
:105228002EF582E4349BF583EFF0909B1AE0FF049F
:10523800F0741B2FF582E4349BF5837410F0909B77
:1052480015122DF290000A122BD5E5F0FF909B1A4B
:10525800E0FE04F0741B2EF582E4349BF583EFF036
:10526800909B15122DF290000A122BD5FF909B1AD5
:10527800E0FE04F0741B2EF582E4349BF583EFF016
:10528800909B15122DF2900003122AA2FFE4909B26
:105298001AE0FE04F0741B2EF582E4349BF583E4D7
:1052A800F0909B15122DF2900003122AA2FF909BFA
:1052B8001AE0FE04F0741B2EF582E4349BF583EFAC
:1052C800F0909B15122DF2900003122AA225E0FF00
:1052D800909B1AE0FE04F0741B2EF582E4349BF5D3
:1052E80083EFF0909171E0FEA3E0FFC006C0079045
:1052F8009B1AE0241BF9E4349BFA7B01C003C0022B
:10530800C001909B15122DF2900003122AA275F08D
:1053180002A4FF909D1BE5F0F0A3EFF0D001D002AE
:10532800D003D007D006123EB2909B15122DF290F2
:105338000003122AA225E0FF909B1AE02FF07B01C0
:105348007A9B791BE0FD7C0012650C909B18EEF0AF
:10535800A3EFF0909B18E0FEA3E0EEFFA3E0FE04AD
:10536800F0741B2EF582E4349BF583EFF0909B18C4
:10537800E0A3E0FFA3E0FE04F0741B2EF582E43402
:105388009BF583EFF07B017A9B791B909B1AE0FDDC
:105398001268C922909B1FEFF0A3EDF0A3EBF0E495
:1053A800909B2CF0A3F0909B1FE024D0FFE43407DF
:1053B800909B2CF0A3EFF0909B2CE0FEA3E0FF7CE9
:1053C800007D64122AF3909B22ECF0A3EDF0909BF1
:1053D8002CE0FEA3E0FF7C007D64122AF3909B245E
:1053E800EEF0A3EFF0909B20E0FF909B26E4F0A363
:1053F800EFF0909B21E0FF909B28E4F0A3EFF09062
:105408009B26E0FEA3E064014E600B909B26E0A380
:10541800E064024E7014909B2274FFF5F0122B7E0C
:10542800909B26E475F00C122B7E909B22E0FEA345
:10543800E07802CEC313CE13D8F9FF909B22E0FC8C
:10544800A3E02FFDEE3CFCA3E0FEA3E07802CEC370
:1054580013CE13D8F92DFDEC3EFC909B24E0FEA35F
:10546800E025E0FFEE33FEC3ED9FFBEC9EFAA3E0E0
:10547800FEA3E02401FFE43EFE7C007D0D122AE13C
:105488007D05122AF3EF2BFFEE3AFEA3E0FCA3E022
:105498002FFFEE3CFEEF24FFFFEE34FFA3F0A3EF57
:1054A800F0909B2AE0FEA3E0C3EE9400500C909B82
:1054B8002AE475F007122B7E80E7909B2AE0FEA372
:1054C800E0FF7C007D07122AF3909B2AECF0A3ED05
:1054D800F0909B2AE0A3E0FF227BFF7A727956784E
:1054E800157C9B7D017E007F28122A63E4909B3DFA
:1054F800F0A3F0909B3DE0FEA3E0C3945FEE940020
:105508004003025625909B3DE0A3E07803C333CEC9
:1055180033CED8F9246CF582748E3EF583E0FF9083
:10552800A0D6E0FCA3E0FDEF6D7001EC600302562D
:1055380018909B3DE0FEA3E07803C333CE33CED86A
:10554800F9246DF582748E3EF583E0FEA3E0FF7BBF
:10555800017A9B7915909D1BE4F0A37402F0123E2A
:10556800B2909B3DE0FEA3E07803C333CE33CED8A0
:10557800F9246FF582748E3EF583E0FEA3E0FF7B8D
:10558800017A9B7917909D1BE4F0A37402F0123EF8
:10559800B2909B17E0FEA3E0FF909B15E0FCA3E010
:1055A8006F7002EC6E6069909B3DE0FEA3E07803AB
:1055B800C333CE33CED8F9246FF582748E3EF5838B
:1055C800E0FEA3E0FF7B017A9B7915909D1BE4F038
:1055D800A37402F012411F909B19E4F0A3745AF0CF
:1055E800909B3DE0FEA3E07803C333CE33CED8F9D9
:1055F8002471F582748E3EF583E0FEA3E0FF7B0103
:105608007A9B7919909D1BE4F0A37402F012411F54
:10561800909B3DE475F001122B7E0254FB22909B77
:1056280058EFF07BFF7A7179D078597C9B7D017EA9
:10563800007F20122A637B017A9F792278597C9B0C
:105648007D017E007F1A122A63909B58E075F01B3B
:10565800A42464FFE435F0909B5DF0A3EFF0909BE9
:10566800627401F0909B58E075F006A4249CF582C2
:10567800E4349FF583E0FEA3E0FF7B017A9B795930
:10568800909D1BE4F0A37420F012411F7B017A9FC8
:10569800793C78597C9B7D017E007F1A122A6390A1
:1056A8009B58E075F01BA42464FFE435F0909B5DE3
:1056B800F0A3EFF0909B627401F0909B58E075F0B6
:1056C80006A4249EF582E4349FF583E0FEA3E0FF60
:1056D8007B017A9B7959909D1BE4F0A37420F0120A
:1056E800411F7B017A9F79D878597C9B7D017E0088
:1056F8007F1A122A63909B58E075F01BA42464FF5C
:10570800E435F0909B5DF0A3EFF0909B58E075F0C6
:105718001BA42464FFE435F0909B63F0A3EFF090A2
:105728009B58E075F01BA4247DFFE435F0909B673F
:10573800F0A3EFF0909B58E075F006A424A0F58242
:10574800E4349FF583E0FEA3E0FF7B017A9B79595F
:10575800909D1BE4F0A37420F012411F227BFF7A76
:1057680072797E78127C9B7D017E007F0E122A63FF
:105778007B017A9B7912909D1BE4F0A3740CF07F57
:10578800A07EC7123EB2E4909B20F0A3F0909B202D
:10579800E0FEA3E0FF909B12E0A3E05401FDEEEFD2
:1057A8004DFF909B20EEF0A3EFF0909B20E0FCA330
:1057B800E0FD909B14E0A3E0540125E0FFE433FEF4
:1057C800EC4EFEED4FFF909B20EEF0A3EFF0909B88
:1057D80020E0FCA3E0FD909B16E0A3E07E005401CE
:1057E8007802C333CE33CED8F9FFEC4EFEED4FFF2F
:1057F800909B20EEF0A3EFF0909B20E0FCA3E0FD4F
:10580800909B18E0A3E07E0054017806C333CE33A2
:10581800CED8F9FFEC4EFEED4FFF909B20EEF0A3A3
:10582800EFF0909B20E0FCA3E0FD909B1AE0A3E042
:105838005401C454F0FEEC4EFEEDFF909B20EEF0B8
:10584800A3EFF0909B20E0FCA3E0FD909B1CE0A35D
:10585800E05401C43354E0FEEC4EFEEDFF909B2073
:10586800EEF0A3EFF07B017A9B7920909D1BE4F08A
:10587800A37402F07F227EC712411F909B20E4F0A0
:10588800A3745AF07B017A9B7920909D1BE4F0A3C6
:105898007402F07F827EC712411F22909B58EFF05E
:1058A800A3ECF0A3EDF0A3EBF07BFF7A7179B0786D
:1058B8005C7C9B7D017E007F20122A637B017A9F9E
:1058C8007922785C7C9B7D017E007F1A122A639086
:1058D8009B58E075F01BA42464FFE435F0909B60AE
:1058E800F0A3EFF0E4909B65F0909B59E0FEA3E0F5
:1058F8002401FFE43E909B5CF0A3EFF0909B58E0FE
:1059080075F006A4249CF582E4349FF583E0FEA399
:10591800E0FF7B017A9B795C909D1BE4F0A37420E7
:10592800F012411F7B017A9F793C785C7C9B7D015A
:105938007E007F1A122A63909B58E075F01BA424FE
:1059480064FFE435F0909B60F0A3EFF0909B5BE080
:10595800FFC3740E9F909B65F0909B59E0FEA3E0F7
:105968002404FFE43E909B5CF0A3EFF0909B58E08A
:1059780075F006A4249EF582E4349FF583E0FEA327
:10598800E0FF7B017A9B795C909D1BE4F0A3742077
:10599800F012411F909B59E0FEA3E02408FFE43E6B
:1059A800909B5CF0A3EFF0909B58E075F006A42460
:1059B800A0F582E4349FF583E0FEA3E0FF7B017A43
:1059C8009B795C909D1BE4F0A37402F012411F22A6
:1059D800C0E0C0F0C083C082C0D075D000C000C095
:1059E80001C002C003C004C005C006C007C2AF752D
:1059F8008CBC758ACD90A0C2E475F001122B7E9004
:105A0800A0C2E0FEA3E0D394E8EE9403401890A06F
:105A1800C2E4F0A3F0A375F001122B7E90A0C0E4BD
:105A280075F001122B7E43C90190A0CE122D91E48E
:105A38007B01FAF9F8122C2C90A0CE122DA990A077
:105A4800C6E475F001122B7E90A0C8122D91E4F8DF
:105A5800122C2C90A0C8122DA990A0CCE0FEA3E097
:105A6800FFE4FCFD7BDC7AFFF8D3122D56400A9048
:105A7800A0CCE475F001122B7E0509E5097002053A
:105A880008AF0EAE0DAD0CAC0BE47B01FAF9F812C1
:105A98002C2C8F0E8E0D8D0C8C0BE47B64122CC479
:105AA800AC00AD01AE02AF03E4FBFAF9F8C3122D66
:105AB8006C7003430A02E47BF47A01F9F8AF0EAE86
:105AC8000DAD0CAC0B122CC4AC00AD01AE02AF0393
:105AD800E4FBFAF9F8C3122D6C7003430A04430A75
