:10000000027532020006C2AFD2AF32026581C2AFC2
:10001000D2AF3202000E90AB51E0FEA3E0FF127DA2
:02002000E322D9
:070023000279D71280D422FC
:10002B0002822B90A936123A3A0000300090A93A7E
:10003B00E4F0A3740CF07D007C307F5A1275D37BF7
:10004B00017AAC790990A938E4F0A37418F07F0019
:10005B007E3012528DE490A72DF090A72DE0C39423
:10006B000774809480506EE025E025E02409F5822A
:10007B00E434ACF583123A16E4FBFAF9F8C31239FF
:10008B00F1602290A72DE025E025E02409F582E41C
:10009B0034ACF583123A167B3F7A42790F7800C362
:1000AB001239F1502890A72DE025E025E024E3F547
:1000BB0082E434ABF583123A1690A72DE025E025A8
:1000CB00E02409F582E434ACF583123A2E90A72D87
:1000DB00E004F080857B017AAC790990A94AE4F0C1
:0C00EB00A37414F07FA07EA61254FA2229
:1000F800FFFF4457494E543542AD41000041AD3AE7
:100108000042AD3B000041AD3D0041AD3E0042AD77
:100118003F000042AD47000042AD45000042AD43FC
:1001280000005AAC253FC900690064000086000A37
:100138002D2D203A3A000000000000000000005A6F
:10014800AC3F3FCC01270064000086000A2D2D2F0C
:100158003A3A000000000000000000005AACDC3F02
:10016800D001E50064000001E5006402AD007D00F7
:10017800100017181802000000603CACA0400040B6
:10018800A04140401040B04150402040C041604034
:100198003040D04170404040E04180405040F04104
:1001A800904060410041A04070411041B040804102
:1001B8002041C04090413041D054AC8C41E041F8DE
:1001C80042104228424042584270428842A042B8F7
:1001D80048AC7D000000000000000042AC85000033
:1001E80042AC8A000042AC87000041AC890042ACB6
:1001F8006B000042AC5900054998C4B2E2CAD4BAAF
:10020800BAD7D6006E6098CD49443030BBD8B7E72E
:10021800B8DFCEC2000000000000000000000000AF
:10022800000000000000000049443031BBD8B7E7A7
:10023800B5CDCEC2000000000000000000000000A4
:10024800000000000000000049443032BBD8B7E786
:10025800B8DFCAAA0000000000000000000000008B
:10026800000000000000000049443033BBD8B7E765
:10027800B5CDCAAA00000000000000000000000080
:10028800000000000000000049443034CBCDB7E73F
:10029800B8DFCEC20000000000000000000000002F
:1002A800000000000000000049443035CBCDB7E71E
:1002B800B5CDCEC200000000000000000000000024
:1002C800000000000000000049443036CBCDB7E7FD
:1002D800B8DFCAAA0000000000000000000000000B
:1002E800000000000000000049443037CBCDB7E7DC
:1002F800B5CDCAAA00000000000000000000000000
:10030800000000000000000049443038B1A3C1F4E7
:1003180000000000000000000000000000000000D5
:10032800000000000000000049443039C4DAB2BFC0
:10033800CDA8D0C5000000000000000000000000AB
:100348000000000000000000494431304E5443D200
:10035800ECB3A30000000000000000000000000053
:10036800000000000000000049443131B7E7BBFA43
:1003780031B9CAD5CF00000000000000000000001D
:10038800000000000000000049443132B1A3C1F46C
:100398000000000000000000000000000000000055
:1003A800000000000000000049443133B1A3C1F44B
:1003B8000000000000000000000000000000000035
:1003C800000000000000000049443134B1A3C1F42A
:1003D8000000000000000000000000000000000015
:1003E800000000000000000049443135B1A3C1F409
:1003F80000000000000000000000000000000000F5
:10040800000000000000000049443136CDE2B7E7A3
:10041800BBFAB9CAD5CF00000000000000000000F8
:10042800000000000000000049443137B7E7BBFA7C
:1004380031D4CBD0D0B3ACCAB1000000000000006A
:10044800000000000000000049443138B1A3C1F4A5
:100458000000000000000000000000000000000094
:10046800000000000000000049443139B1A3C1F484
:100478000000000000000000000000000000000074
:10048800000000000000000049443230B1A3C1F46C
:100498000000000000000000000000000000000054
:1004A800000000000000000049443231B1A3C1F44B
:1004B8000000000000000000000000000000000034
:1004C800000000000000000049443232CDE2B7E7E6
:1004D800BBFAD4CBD0D0B3ACCAB100000000000046
:1004E800000000000000000049443233B8DFD1B9F1
:1004F80031BFAAB9D80000000000000000000000C9
:10050800000000000000000049443234B8DFD1B9CF
:1005180031CBF8CBC0000000000000000000000054
:10052800000000000000000049443235B5CDD1B9C3
:1005380031B8E6BEAF000000000000000000000077
:10054800000000000000000049443236B5CDD1B9A2
:1005580031CBF8CBC0000000000000000000000014
:10056800000000000000000049443237C5C5C6F845
:10057800CEC2B6C831B8E6BEAF0000000000000029
:10058800000000000000000049443238C5C5C6F824
:10059800CEC2B6C831CBF8CBC000000000000000C6
:1005A800000000000000000049443239B6CCD6DC17
:1005B800C6DA31B8E6BEAF00000000000000000057
:1005C800000000000000000049443330D1B9BBFAF4
:1005D80031D4CBD0D0B3ACCAB100000000000000C9
:1005E800000000000000000049443331B8DFD1B9F1
:1005F80032BFAAB9D80000000000000000000000C7
:10060800000000000000000049443332B8DFD1B9CF
:1006180032CBF8CBC0000000000000000000000052
:10062800000000000000000049443333B5CDD1B9C3
:10063800D1B9C1A6B8E6BEAF0000000000000000B6
:10064800000000000000000049443334B5CDD1B9A2
:1006580032CBF8CBC0000000000000000000000012
:10066800000000000000000049443335C5C5C6F845
:10067800CEC2B6C832B8E6BEAF0000000000000027
:10068800000000000000000049443336C5C5C6F824
:10069800CEC2B6C832CBF8CBC000000000000000C4
:1006A800000000000000000049443337B6CCD6DC17
:1006B800C6DA32B8E6BEAF00000000000000000055
:1006C800000000000000000049443338D1B9BBFAEB
:1006D80032D4CBD0D0B3ACCAB100000000000000C7
:1006E800000000000000000049443339BCD3CAAA06
:1006F800C6F7B5E7C1F7B9FDB4F300000000000084
:10070800000000000000000049443430BCD3CAAAED
:10071800C6F7B8DFCBAECEBB00000000000000007B
:10072800000000000000000049443431BCD3CAAACC
:10073800C6F7C8B1CBAE0000000000000000000002
:10074800000000000000000049443432BCD3CAAAAB
:10075800C6F7D4CBD0D0B3ACCAB1000000000000BB
:10076800000000000000000049443433BCD3C8C86E
:10077800C6F7B8E6BEAF00000000000000000000A9
:10078800000000000000000049443434BCD3C8C84D
:10079800C6F731B3ACCAB100000000000000000089
:1007A800000000000000000049443435BCD3C8C82C
:1007B800C6F732B3ACCAB100000000000000000068
:1007C800000000000000000049443436B6CFB5E709
:1007D800D6D8C6F4000000000000000000000000A9
:1007E800000000000000000049443437B5E7D4B4E5
:1007F800CFE0D0F2B4EDCEF300000000000000001E
:10080800000000000000000049443438B5E7D4B4C3
:10081800C6B5C2CAC6ABB8DF0000000000000000C1
:10082800000000000000000049443439B5E7D4B4A2
:10083800C6B5C2CAC6ABB5CD0000000000000000B6
:1008480000000000000000004944353041CFE0B905
:10085800FDD1B90000000000000000000000000009
:1008680000000000000000004944353142CFE0B9E3
:10087800FDD1B900000000000000000000000000E9
:1008880000000000000000004944353243CFE0B9C1
:10089800FDD1B900000000000000000000000000C9
:1008A80000000000000000004944353341CFE0C794
:1008B800B7D1B900000000000000000000000000EF
:1008C80000000000000000004944353442CFE0C772
:1008D800B7D1B900000000000000000000000000CF
:1008E80000000000000000004944353543CFE0C750
:1008F800B7D1B900000000000000000000000000AF
:1009080000000000000000004944353641CFE0C82F
:10091800B1CFE0000000000000000000000000006F
:1009280000000000000000004944353742CFE0C80D
:10093800B1CFE0000000000000000000000000004F
:1009480000000000000000004944353843CFE0C8EB
:10095800B1CFE0000000000000000000000000002F
:10096800000000000000000049443539C6F8C1F70E
:10097800B6AACAA7B8E6BEAF000000000000000093
:10098800000000000000000049443630B9FDC2CB29
:10099800CDF8D4CBD0D0B3ACCAB100000000000071
:1009A800000000000000000049443631B9FDC2CB08
:1009B800CDF8B6C2B8E6BEAF0000000000000000E7
:1009C800000000000000000049443632D4B6B3CC21
:1009D800B9D8BBFAB8E6BEAF0000000000000000BE
:1009E800000000000000000049443633D2E7CBAED7
:1009F800B8E6BEAF000000000000000000000000E4
:100A0800000000000000000049443634C8BABFD8CE
:100A1800CDA8D0C5D2ECB3A30000000000000000B0
:100A2800000000000000000049443635B1A3C1F4BD
:100A380000000000000000000000000000000000AE
:100A4800000000000000000049443636B5CDB9FD6D
:100A5800C8C8B6C831B8E6BEAF0000000000000044
:100A6800000000000000000049443637B5CDB9FD4C
:100A7800C8C8B6C832B8E6BEAF0000000000000023
:100A8800000000000000000049443638D1CCCEED0B
:100A9800B8E6BEAF00000000000000000000000043
:100AA800000000000000000049443639D3C3BBA74A
:100AB800D7D4B6A8D2E5B8E6BEAF00000000000063
:100AC800000000000000000049443730B5E7D4B406
:100AD800D2ECB3A3000000000000000000000000FA
:100AE800000000000000000049443731B1A3C1F400
:100AF80000000000000000000000000000000000EE
:100B0800000000000000000049443732B1A3C1F4DE
:100B180000000000000000000000000000000000CD
:100B2800000000000000000049443733B1A3C1F4BD
:100B380000000000000000000000000000000000AD
:100B4800000000000000000049443734B1A3C1F49C
:100B5800000000000000000000000000000000008D
:100B6800000000000000000049443735B1A3C1F47B
:100B7800000000000000000000000000000000006D
:100B8800000000000000000049443736B1A3C1F45A
:100B9800000000000000000000000000000000004D
:100BA800000000000000000049443737B1A3C1F439
:100BB800000000000000000000000000000000002D
:100BC800000000000000000049443738B1A3C1F418
:100BD800000000000000000000000000000000000D
:100BE800000000000000000049443739B1A3C1F4F7
:100BF80000000000000000000000000000000000ED
:100C0800000000000000000049443830C5C5CBAEE4
:100C1800B8DFCBAECEBB0000000000000000000033
:100C2800000000000000000049443831BCD3CAAAC3
:100C3800C6F7D2ECB3A300000000000000000000DB
:100C4800000000000000000049443832B7E7D1B97D
:100C5800B9FDB5CD00000000000000000000000054
:100C6800000000000000000049443833B1A3C1F47B
:100C7800000000000000000000000000000000006C
:100C8800000000000000000049443834B8DFD1B942
:100C980031D1B9C1A600000000000000000000002A
:100CA800000000000000000049443835B1A3C1F439
:100CB800000000000000000000000000000000002C
:100CC8000000000000000000494438364D4F503104
:100CD800B8E6BEAF00000000000000000000000001
:100CE8000000000000000000494438374D4F5032E2
:100CF800B8E6BEAF000000000000000000000000E1
:100D08000000000000000000494438384C4F5031C2
:100D1800B8E6BEAF000000000000000000000000C0
:100D28000000000000000000494438394C4F5032A0
:100D3800B8E6BEAF000000000000000000000000A0
:100D4800000000000000000049443930C9E8B1B88B
:100D5800CAB9D3C3B3ACCAB1000000000000000098
:100D6800000000000000000049443931B1A3C1F47B
:100D7800000000000000000000000000000000006B
:100D8800000000000000000049443932B1A3C1F45A
:100D9800000000000000000000000000000000004B
:100DA800000000000000000049443933B1A3C1F439
:100DB800000000000000000000000000000000002B
:100DC800000000000000000049443934B1A3C1F418
:100DD800000000000000000000000000000000000B
:100DE800000000000000000049443935B1A3C1F4F7
:100DF80000000000000000000000000000000000EB
:100E0800000000000000000049443936B1A3C1F4D5
:100E180000000000000000000000000000000000CA
:100E2800000000000000000049443937B1A3C1F4B4
:100E380000000000000000000000000000000000AA
:100E4800000000000000000049443938B1A3C1F493
:100E5800000000000000000000000000000000008A
:100E6800000000000000000049443939B1A3C1F472
:100E7800000000000000000000000000000000006A
:100E880000000000000000004944313030B1A3C127
:100E9800F400000000000000000000000000000056
:100EA80000000000000000004944313031B1A3C106
:100EB800F400000000000000000000000000000036
:100EC80000000000000000004944313032B1A3C1E5
:100ED800F400000000000000000000000000000016
:100EE80000000000000000004944313033B1A3C1C4
:100EF800F4000000000000000000000000000000F6
:100F080000000000000000004944313034B1A3C1A2
:100F1800F4000000000000000000000000000000D5
:100F280000000000000000004944313035B1A3C181
:100F3800F4000000000000000000000000000000B5
:100F480000000000000000004944313036B1A3C160
:100F5800F400000000000000000000000000000095
:100F680000000000000000004944313037B1A3C13F
:100F7800F400000000000000000000000000000075
:100F880000000000000000004944313038B1A3C11E
:100F9800F400000000000000000000000000000055
:100FA80000000000000000004944313039B1A3C1FD
:100FB800F400000000000000000000000000000035
:100FC80000000000000000004944313130B1A3C1E5
:100FD800F400000000000000000000000000000015
:100FE80000000000000000004944313131B1A3C1C4
:100FF800F4000000000000000000000000000000F5
:1010080000000000000000004944313132B1A3C1A2
:10101800F4000000000000000000000000000000D4
:1010280000000000000000004944313133B1A3C181
:10103800F4000000000000000000000000000000B4
:1010480000000000000000004944313134B1A3C160
:10105800F400000000000000000000000000000094
:10106800000000000000000041AD490047AD190034
:1010780000000000000047AD0A000000000000006A
:1010880048AD20000000000000000048AD1100003D
:10109800000000000000C10042AD08000052ACF69C
:1010A8000000000000000000000000000000000038
:1010B800000042AD2A000042AD2C000042AD2800DD
:1010C8000044AD360000000042AD2E000044AD30B3
:1010D8000000000002080000040B00000000040FDC
:1010E8000000000042AD340000010A006100A94E72
:1010F80000C1814001C0804101C0804100C18140E0
:1011080001C0804100C1814000C1814001C08041CF
:1011180001C0804100C1814000C1814001C08041BF
:1011280000C1814001C0804101C0804100C18140AF
:1011380001C0804100C1814000C1814001C080419F
:1011480000C1814001C0804101C0804100C181408F
:1011580000C1814001C0804101C0804100C181407F
:1011680001C0804100C1814000C1814001C080416F
:1011780001C0804100C1814000C1814001C080415F
:1011880000C1814001C0804101C0804100C181404F
:1011980000C1814001C0804101C0804100C181403F
:1011A80001C0804100C1814000C1814001C080412F
:1011B80000C1814001C0804101C0804100C181401F
:1011C80001C0804100C1814000C1814001C080410F
:1011D80001C0804100C1814000C1814001C08041FF
:1011E80000C1814001C0804101C0804100C18140EF
:1011F8006100AA4E00C0C101C30302C2C60607C7E8
:1012080005C5C404CC0C0DCD0FCFCE0E0ACACB0B2E
:10121800C90908C8D81819D91BDBDA1A1EDEDF1F5E
:10122800DD1D1CDC14D4D515D71716D6D21213D34E
:1012380011D1D010F03031F133F3F23236F6F737FE
:10124800F53534F43CFCFD3DFF3F3EFEFA3A3BFBEE
:1012580039F9F83828E8E929EB2B2AEAEE2E2FEF9E
:101268002DEDEC2CE42425E527E7E62622E2E3230E
:10127800E12120E0A06061A163A3A26266A6A7673E
:10128800A56564A46CACAD6DAF6F6EAEAA6A6BABAE
:1012980069A9A86878B8B979BB7B7ABABE7E7FBFDE
:1012A8007DBDBC7CB47475B577B7B67672B2B373CE
:1012B800B17170B05090915193535292965657977E
:1012C800559594549C5C5D9D5F9F9E5E5A9A9B5B6E
:1012D80099595898884849894B8B8A4A4E8E8F4F1E
:1012E8008D4D4C8C4484854587474686824243838E
:1012F8004181804041983F004185D0004498C0001A
:101308000000004185CB004485CC000000007260DD
:1013180085DF5A021003C80250155016000000FF5E
:101328005A020303C8000000A020031C00FF5A0251
:101338000301C8010039A023031900FF5A0206015E
:10134800C803A084A024010000395A020301C8017F
:101358000039A025010400FF5A020601C802A0872F
:10136800A027010400FF5A020303C8010039A0A006
:10137800011A00FF5A020302C8000000A0A30310CC
:1013880000FF5A020302C801000AAA00032600FF50
:101398005A020308C801000AAA02034100FF5A02C0
:1013A8000301C801000AAA0A036F00FF5A020301D9
:1013B800C801000AAA0B037700FF5A020301C801FB
:1013C800000AAA0C036500FF5A020301C801000ABB
:1013D800AA0D036C00FF5A020301C801000AAA0EF5
:1013E800034F00FF5A020301C801000AAA0F03694C
:1013F80000FF5A020301C801000ACF23011000FFB1
:101408005A020301C801000ACF27019700FF5A02B8
:10141800031FC801000BAB20038C00FF5A02060112
:10142800C803AC80AC20023A000C5A020306C8007C
:10143800000DAEA0032000FF5A020301C801000FEF
:10144800CF27019700FF5A020301C8010011B120FC
:10145800037200FF5A020303C8010011B12103E31C
:1014680000FF5A020302C8010011B12403DF00FF84
:101478005A020307C803B300B320011A00135A0223
:101488000601C803B380B320011A00135A020601EB
:10149800C803B382B322011C00135A020601C80311
:1014A800B383B323011D00135A020601C803B38492
:1014B800B324011E00135A020601C803B385B325DD
:1014C800011F00135A020601C803B386B326012080
:1014D80000135A02030BC803B400B42001580014C7
:1014E8005A020301C803B400B42B013B00145A028A
:1014F8000301C803B400B42C019E00145A0206016B
:10150800C803B480B420015800145A020601C80365
:10151800B481B421015900145A020601C803B483E6
:10152800B423015B00145A020601C803B484B4242E
:10153800015C00145A020601C803B485B425015D94
:1015480000145A020601C803B486B426015E0014CA
:101558005A020601C803B487B427015F00145A026F
:101568000601C803B488B428016000145A020601B1
:10157800C803B48AB42A016200145A020601C803D7
:10158800B48BB42B013B00145A020601C803B48C77
:10159800B42C019E00145A020306C803B700B720F2
:1015A800013B00175A020305C803B700B7260143D9
:1015B80000175A020601C803B780B720013B00177D
:1015C8005A020601C803B784B724013F00175A021C
:1015D8000601C803B785B725014000175A0206015E
:1015E800C803B786B726014300175A020601C80385
:1015F800B787B727014400175A020601C803B788FE
:10160800B728014500175A020601C803B789B72948
:10161800014600175A020601C803B78AB72A0147CC
:1016280000175A020301C803B800B820016A00185D
:101638005A020303C803B800B821016D00185A0202
:101648000301C803B800B824017200185A02030144
:10165800C803B800B825017400185A020301C8036A
:10166800B800B826017B00185A020301C803B80065
:10167800B827022A00185A020601C803B880B82001
:10168800016A00185A020601C803B881B821016D21
:1016980000185A020601C803B882B822016E001861
:1016A8005A020601C803B883B823016F00185A020A
:1016B8000601C803B884B824017200185A0206014A
:1016C800C803B885B825017400185A020601C80372
:1016D800B886B826017B00185A020601C803B887E5
:1016E800B827022A00185A020301C803BA00BA2010
:1016F800014A001A5A020301C803BA00BA2101427A
:10170800001A5A020302C803BA00BA220178001A62
:101718005A020302C803BA00BA2402C5001A5A02C0
:101728000302C803BA00BA26013C001A5A0203028F
:10173800C803BA00BA280139001A5A020302C803BA
:10174800BA00BA2A0176001A5A020302C803BA007C
:10175800BA2C02C8001A5A020601C803BA80BA2075
:10176800014A001A5A020601C803BA81BA21014285
:10177800001A5A020601C803BA82BA220178001A6E
:101788005A020601C803BA83BA230179001A5A0219
:101798000601C803BA84BA2402C5001A5A0206010F
:1017A800C803BA85BA2502C6001A5A020601C80338
:1017B800BA86BA26013C001A5A020601C803BA873B
:1017C800BA27013D001A5A020601C803BA88BA2886
:1017D8000139001A5A020601C803BA89BA29013A1E
:1017E800001A5A020601C803BA8ABA2A0176001AF0
:1017F8005A020601C803BA8BBA2B0177001A5A029B
:101808000601C803BA8CBA2C02C8001A5A0203018E
:10181800C803BB00BB2001B0001B5A020302C80367
:10182800BB00BB2101B2001B5A020302C803BB0064
:10183800BB2301B5001B5A020302C803BB00BB252A
:1018480001B8001B5A020301C803BB00BB2701BB38
:10185800001B5A020302C803BB00BB2801D1001BAE
:101868005A020302C803BB00BB2A01FB001B5A0231
:101878000302C803BB00BB2C0276001B5A020601F8
:10188800C803BB80BB2001B0001B5A020601C80375
:10189800BB81BB2101B2001B5A020601C803BB82EF
:1018A800BB2201B3001B5A020601C803BB83BB233A
:1018B80001B5001B5A020601C803BB84BB2401B64C
:1018C800001B5A020601C803BB85BB2501B8001BD3
:1018D8005A020601C803BB86BB2601B9001B5A027F
:1018E8000601C803BB87BB2701BB001B5A020601C0
:1018F800C803BB88BB2801D1001B5A020601C803D4
:10190800BB89BB2901D2001B5A020601C803BB8A46
:10191800BB2A01FB001B5A020601C803BB8BBB2B69
:1019280001FC001B5A020601C803BB8CBB2C0276C3
:10193800001B5A020601C803BB8DBB2D0277001B92
:101948005A020302C803BC00BC200232001C5A021F
:101958000301C803BC00BC220252001C5A02030146
:10196800C803BC00BC230255001C5A020301C8036B
:10197800BC00BC240258001C5A020301C803BC0066
:10198800BC250261001C5A020302C803BC00BC2625
:101998000271001C5A020301C803BC00BC2802865D
:1019A800001C5A020601C803BC80BC200232001C7D
:1019B8005A020601C803BC81BC210233001C5A022A
:1019C8000601C803BC82BC220252001C5A0206014E
:1019D800C803BC83BC230255001C5A020601C80375
:1019E800BC84BC240258001C5A020601C803BC85EA
:1019F800BC250261001C5A020601C803BC86BC262D
:101A08000271001C5A020601C803BC87BC27027277
:101A1800001C5A020601C803BC88BC280286001CA8
:101A28005A020302C803BF00BF200102001F5A0266
:101A38000301C803BF00BF220107001F5A020301A8
:101A4800C803BF00BF2301A5001F5A020601C8032F
:101A5800BF80BF200102001F5A020601C803BF81D0
:101A6800BF210103001F5A020601C803BF82BF221B
:101A78000107001F5A020601C803BF83BF2301A53F
:101A8800001F5A020308C803C200C22001820022B4
:101A98005A020301C803C200C228018C00225A025C
:101AA8000301C803C200C229019800225A02060194
:101AB800C803C280C220018200225A020601C8035C
:101AC800C281C221018300225A020601C803C282D0
:101AD800C222018400225A020601C803C284C22419
:101AE800018600225A020601C803C285C225018761
:101AF80000225A020601C803C286C22601880022B3
:101B08005A020601C803C287C227018900225A0265
:101B18000601C803C288C228018C00225A020601A5
:101B2800C803C289C229019800225A020601C803C3
:101B3800C580C520023B000F5A020301C8010026D8
:101B4800CF27019700FF5A020301C803C700C72027
:101B580001A600275A020301C803C700C72101A92B
:101B680000275A020301C803C700C72501AB002795
:101B78005A020301C803C700C72602D900275A0220
:101B88000301C803C700C72702D800275A02030267
:101B9800C803C700C72802CE00275A020301C8039A
:101BA800C700C72A01AA00275A020301C801002753
:101BB800A025010400FF5A020601C803C780C720F8
:101BC80001A600275A020601C803C781C72101A937
:101BD80000275A020601C803C782C72201A80027A6
:101BE8005A020301C8010027C723037500FF5A02E0
:101BF8000301C8010027C724037700FF5A02060122
:101C0800C803C785C72501AB00275A020601C803C8
:101C1800C786C72602D900275A020601C803C78704
:101C2800C72702D800275A020601C803C788C72851
:101C380002CE00275A020601C803C789C72902CF66
:101C480000275A020601C803C78AC72A01AA002723
:101C58005A020301C803C800C820012700285A02F5
:101C68000301C803C800C821012900285A02030437
:101C7800C803C800C822012D00285A020301C8035E
:101C8800C800C826019000285A020301C803C800EA
:101C9800C827019400285A020601C803C880C82032
:101CA800012700285A020601C803C881C821012952
:101CB80000285A020601C803C882C822012D00283C
:101CC8005A020601C803C883C823012E00285A02F5
:101CD8000601C803C884C824012F00285A02060137
:101CE800C803C885C825013000285A020601C80360
:101CF800C886C826019000285A020601C803C8876A
:101D0800C827019400285A02030EC8010029C9B047
:101D1800037800FF5A020601C803C990C930023C83
:101D280000295A020303C803CC00CCA00302002CEC
:101D38005A020304C803CF00CF20010D002F5A0216
:101D48000301C803CF00CF240141002F5A02030129
:101D5800C803CF00CF25015A002F5A020301C80338
:101D6800CF00CF2602D0002F5A020301C803CF00AC
:101D7800CF270197002F5A020601C803CF80CF2032
:101D8800010D002F5A020601C803CF81CF21010E91
:101D9800002F5A020601C803CF82CF22010F002F5D
:101DA8005A020601C803CF83CF230110002F5A021D
:101DB8000601C803CF84CF240141002F5A0206012F
:101DC800C803CF85CF25015A002F5A020601C80340
:101DD800CF86CF2602D0002F5A020601C803CF872C
:101DE800CF270197002F5A020601C803CF8ACF2AAE
:101DF800023B002F5A020301C803D100D12002CAB6
:101E080000315A020301C803D100D1210141003138
:101E18005A020301C803D100D12202C900315A0273
:101E28000601C803D180D12002CA00315A02060136
:101E3800C803D181D121014100315A020601C803EA
:101E4800D182D12202C900315A020301C8010031EE
:101E5800D12303E200FF5A02030AC8010034D42048
:101E6800039C00FF5A020302C8010034D42A03A8C5
:101E780000FF5A020307C803D500D520011A003510
:101E88005A020601C803D580D520011A00355A0226
:101E98000601C803D582D522011C00355A02060165
:101EA800C803D583D523011D00355A020601C8038E
:101EB800D584D524011E00355A020601C803D585EC
:101EC800D525011F00355A020601C803D586D52637
:101ED800012000355A020301C803D600D6200108A4
:101EE80000365A020302C803D600D621010A00367A
:101EF8005A020301C803D600D62301A700365A02A6
:101F08000601C803D680D620010800365A02060109
:101F1800C803D681D621010A00365A020601C80331
:101F2800D682D622010B00365A020601C803D68390
:101F3800D62301A700365A020301C803D800D820C7
:101F480001F500385A020301C803D800D821020756
:101F580000385A02030CC803D800D82201BC003844
:101F68005A020301C803D800D82E027D00385A024D
:101F78000301C803D800D82F027F00385A02030192
:101F8800C803D800D830020F00385A020601C80327
:101F9800D880D82001F500385A020601C803D88134
:101FA800D821020700385A020601C803D882D8226D
:101FB80001BC00385A020601C803D883D82301BDE2
:101FC80000385A020601C803D884D82401BE003854
:101FD8005A020601C803D885D82501BF00385A021D
:101FE8000601C803D886D82601C000385A0206015F
:101FF800C803D887D82701C100385A020601C80388
:10200800D888D82801C200385A020601C803D889DE
:10201800D82901C300385A020601C803D88AD82A29
:1020280001C400385A020601C803D88BD82B01C551
:1020380000385A020601C803D88CD82C01C60038CB
:102048005A020601C803D88DD82D01C700385A0294
:102058000601C803D88ED82E027D00385A02060120
:10206800C803D88FD82F027F00385A020601C80348
:10207800D890D830020F00385A020301C801003A3C
:10208800DA2003CD00FF5A020301C801003ADA2121
:1020980003CF00FF5A020302C801003ADA2203D133
:1020A80000FF5A020301C801003ADA2403D500FFF1
:1020B8005A020301C801003ADA2503D700FF5A0281
:1020C8000301C801003ADA2603D900FF5A020301C6
:1020D800C801003ADA2703DB00FF5A020301C801EE
:1020E800003ADA2803DD00FF5A020301C803DB00C7
:1020F800DB20019A003B5A020301C803DB00DB2105
:1021080002D3003B5A020302C803DB00DB2202D5DC
:10211800003B5A020302C803DB00DB2402D8003B61
:102128005A020305C803DB00DB2602DB003B5A0228
:102138000301C803DB00DB2B0106003B5A02030145
:10214800C803DB00DB2C02E1003B5A020302C80390
:10215800DB00DB2D02E4003B5A020302C803DB006C
:10216800DB2F0178003B5A020601C803DB80DB2025
:10217800019A003B5A020601C803DB81DB2102D326
:10218800003B5A020601C803DB82DB2202D5003B72
:102198005A020601C803DB83DB2302D6003B5A023E
:1021A8000601C803DB84DB2402D8003B5A0206017F
:1021B800C803DB85DB2502D9003B5A020601C803A8
:1021C800DB86DB2602DB003B5A020601C803DB87FD
:1021D800DB2702DC003B5A020601C803DB88DB2848
:1021E80002DD003B5A020601C803DB89DB2902DE57
:1021F800003B5A020601C803DB8ADB2A02DF003BE8
:102208005A020601C803DB8BDB2B0106003B5A028E
:102218000601C803DB8CDB2C02E1003B5A020601F5
:10222800C803DB8DDB2D02E4003B5A020601C8031C
:10223800DB8EDB2E02E5003B5A020601C803DB8F6A
:10224800DB2F0178003B5A020601C803DB90DB3024
:102258000179003B5A020301C803DD00DD20019B20
:10226800003D5A020304C803DD00DD2101E7003DFB
:102278005A020302C803DD00DD2501ED003D5A02C4
:102288000601C803DD80DD20019B003D5A020601DE
:10229800C803DD81DD2101E7003D5A020601C803BC
:1022A800DD82DD2201E8003D5A020601C803DD8314
:1022B800DD2301E9003D5A020601C803DD84DD245F
:1022C80001EA003D5A020601C803DD85DD2501ED5E
:1022D800003D5A020601C803DD86DD2601EE003DF9
:1022E8005A020301C801003EDE20037500FF5A02AE
:1022F8000303C803DF00DF200237003F5A0203064A
:10230800C803DF00DF23029E003F5A020303C8030D
:10231800DF00DF290201003F5A020302C803DF0081
:10232800DF2C0283003F5A020303C803DF00DF2EBD
:10233800028C003F5A020601C803DF80DF20023703
:10234800003F5A020601C803DF81DF210238003F3F
:102358005A020601C803DF82DF220239003F5A020F
:102368000601C803DF83DF23029E003F5A020601ED
:10237800C803DF84DF24029F003F5A020601C80316
:10238800DF85DF2502A0003F5A020601C803DF8669
:10239800DF2602A1003F5A020601C803DF87DF27B4
:1023A80002A2003F5A020601C803DF88DF2802A301
:1023B800003F5A020601C803DF89DF290201003FF6
:1023C8005A020601C803DF8ADF2A0202003F5A02C6
:1023D8000601C803DF8BDF2B0203003F5A02060108
:1023E800C803DF8CDF2C0283003F5A020601C803B2
:1023F800DF8DDF2D0284003F5A020601C803DF8EFD
:10240800DF2E028C003F5A020601C803DF8FDF2F40
:10241800028D003F5A020601C803DF90DF30028EAA
:10242800003F5A020301C8010040E02203BE00FF3A
:102438005A020301C8010040E02303C900FF5A0201
:102448001002C803E080E020000000405A020301A7
:10245800C8000000E00003CC00FF5A021002C803C5
:10246800E080E020000000415A020301C803C700D1
:10247800C72001A600435A020301C803C700C721A9
:1024880001A900435A020301C803C700C72501ABCD
:1024980000435A020301C803C700C72602D90043F4
:1024A8005A020301C803C700C72702D800435A02CB
:1024B8000302C803C700C72802CE00435A0203011B
:1024C800C803C700C72A01AA00435A020301C8016A
:1024D8000043A025010400FF5A020601C803C78073
:1024E800C72001A600435A020601C803C781C721B5
:1024F80001A900435A020601C803C782C72201A8DE
:1025080000435A020301C8010043C723037500FFB3
:102518005A020301C8010043C724037700FF5A0287
:102528000601C803C785C72501AB00435A02060147
:10253800C803C786C72602D900435A020601C80342
:10254800C787C72702D800435A020601C803C788AD
:10255800C72802CE00435A020601C803C789C72903
:1025680002CF00435A020601C803C78AC72A01AA34
:1025780000434E85D100000000000000000000006C
:10258800000000428001000065C880035A13B32090
:10259800B350B3805A13B322B352B3825A13B3233E
:1025A800B353B3835A13B324B354B3845A13B32520
:1025B800B355B3855A13B326B356B3865A14B42009
:1025C800B450B4805A14B421B451B4815A14B42309
:1025D800B453B4835A14B424B454B4845A14B425E8
:1025E800B455B4855A14B426B456B4865A14B427CC
:1025F800B457B4875A14B428B458B4885A14B42AAF
:10260800B45AB48A5A14B42BB45BB48B5A14B42C8D
:10261800B45CB48C5A17B720B750B7805A17B72490
:10262800B754B7845A17B725B755B7855A17B72679
:10263800B756B7865A17B727B757B7875A17B7285D
:10264800B758B7885A17B729B759B7895A17B72A41
:10265800B75AB78A5A18B820B850B8805A18B8214B
:10266800B851B8815A18B822B852B8825A18B82343
:10267800B853B8835A18B824B854B8845A18B82527
:10268800B855B8855A18B826B856B8865A18B8270B
:10269800B857B8875A1ABA20BA50BA805A1ABA2103
:1026A800BA51BA815A1ABA22BA52BA825A1ABA23F3
:1026B800BA53BA835A1ABA24BA54BA845A1ABA25D7
:1026C800BA55BA855A1ABA26BA56BA865A1ABA27BB
:1026D800BA57BA875A1ABA28BA58BA885A1ABA299F
:1026E800BA59BA895A1ABA2ABA5ABA8A5A1ABA2B83
:1026F800BA5BBA8B5A1ABA2CBA5CBA8C5A1BBB2072
:10270800BB50BB805A1BBB21BB51BB815A1BBB2290
:10271800BB52BB825A1BBB23BB53BB835A1BBB2474
:10272800BB54BB845A1BBB25BB55BB855A1BBB2658
:10273800BB56BB865A1BBB27BB57BB875A1BBB283C
:10274800BB58BB885A1BBB29BB59BB895A1BBB2A20
:10275800BB5ABB8A5A1BBB2BBB5BBB8B5A1BBB2C04
:10276800BB5CBB8C5A1BBB2DBB5DBB8D5A1CBC20F4
:10277800BC50BC805A1CBC21BC51BC815A1CBC2218
:10278800BC52BC825A1CBC23BC53BC835A1CBC24FC
:10279800BC54BC845A1CBC25BC55BC855A1CBC26E0
:1027A800BC56BC865A1CBC27BC57BC875A1CBC28C4
:1027B800BC58BC885A1FBF20BF50BF805A1FBF21BA
:1027C800BF51BF815A1FBF22BF52BF825A1FBF23AA
:1027D800BF53BF835A22C220C250C2805A22C2218C
:1027E800C251C2815A22C222C252C2825A22C22471
:1027F800C254C2845A22C225C255C2855A22C22650
:10280800C256C2865A22C227C257C2875A22C22833
:10281800C258C2885A22C229C259C2895A27C72017
:10282800C750C7805A27C721C751C7815A27C7250C
:10283800C755C7855A27C726C756C7865A27C727E1
:10284800C757C7875A27C728C758C7885A27C729C5
:10285800C759C7895A27C72AC75AC78A5A28C820B2
:10286800C850C8805A28C821C851C8815A28C822C7
:10287800C852C8825A28C823C853C8835A28C824AB
:10288800C854C8845A28C825C855C8855A28C8268F
:10289800C856C8865A28C827C857C8875A2FCF206D
:1028A800CF50CF805A2FCF21CF51CF815A2FCF224F
:1028B800CF52CF825A2FCF23CF53CF835A2FCF2433
:1028C800CF54CF845A2FCF25CF55CF855A2FCF2617
:1028D800CF56CF865A2FCF27CF57CF875A31D120FF
:1028E800D150D1805A31D121D151D1815A31D122FF
:1028F800D152D1825A35D520D550D5805A35D522D6
:10290800D552D5825A35D523D553D5835A35D524B2
:10291800D554D5845A35D525D555D5855A35D52696
:10292800D556D5865A36D620D650D6805A36D62190
:10293800D651D6815A36D622D652D6825A36D62380
:10294800D653D6835A38D820D850D8805A38D82168
:10295800D851D8815A38D822D852D8825A38D82350
:10296800D853D8835A38D824D854D8845A38D82534
:10297800D855D8855A38D826D856D8865A38D82718
:10298800D857D8875A38D828D858D8885A38D829FC
:10299800D859D8895A38D82AD85AD88A5A38D82BE0
:1029A800D85BD88B5A38D82CD85CD88C5A38D82DC4
:1029B800D85DD88D5A38D82ED85ED88E5A38D82FA8
:1029C800D85FD88F5A38D830D860D8905A3BDB2097
:1029D800DB50DB805A3BDB21DB51DB815A3BDB22BE
:1029E800DB52DB825A3BDB23DB53DB835A3BDB24A2
:1029F800DB54DB845A3BDB25DB55DB855A3BDB2686
:102A0800DB56DB865A3BDB27DB57DB875A3BDB2869
:102A1800DB58DB885A3BDB29DB59DB895A3BDB2A4D
:102A2800DB5ADB8A5A3BDB2BDB5BDB8B5A3BDB2C31
:102A3800DB5CDB8C5A3BDB2DDB5DDB8D5A3BDB2E15
:102A4800DB5EDB8E5A3BDB2FDB5FDB8F5A3BDB30F9
:102A5800DB60DB905A3DDD20DD50DD805A3DDD2115
:102A6800DD51DD815A3DDD22DD52DD825A3DDD2317
:102A7800DD53DD835A3DDD24DD54DD845A3DDD25FB
:102A8800DD55DD855A3DDD26DD56DD865A3FDF20E2
:102A9800DF50DF805A3FDF21DF51DF815A3FDF22DD
:102AA800DF52DF825A3FDF23DF53DF835A3FDF24C1
:102AB800DF54DF845A3FDF25DF55DF855A3FDF26A5
:102AC800DF56DF865A3FDF27DF57DF875A3FDF2889
:102AD800DF58DF885A3FDF29DF59DF895A3FDF2A6D
:102AE800DF5ADF8A5A3FDF2BDF5BDF8B5A3FDF2C51
:102AF800DF5CDF8C5A3FDF2DDF5DDF8D5A3FDF2E35
:102B0800DF5EDF8E5A3FDF2FDF5FDF8F5A3FDF3018
:102B1800DF60DF905A43C720C750C7805A43C72198
:102B2800C751C7815A43C725C755C7855A43C726C2
:102B3800C756C7865A43C727C757C7875A43C728A0
:102B4800C758C7885A43C729C759C7895A43C72A84
:102B5800C75AC78A418000005CAC09000000000029
:102B6800000000000000000000000000000000005D
:102B7800000000000000005CABE300000000000063
:102B880000010000000200027360000A2D08000323
:102B980010CC0007ED6541ABDFFF608CAB53000044
:102BA80001000200030004000500060007000800F9
:102BB80009000A000B000C000D000E000F011000A8
:102BC8001100120213001400150016001700180057
:102BD80019001A001B021C001D001E001F00200007
:102BE80021002200230024002500260227002800B7
:102BF80029002A002B002C002D002E002F03300066
:102C08003100320033003400350036003700380018
:102C180039003A003B003C003D003E003F004005C3
:102C2800410042004300440045004AABFF00010157
:102C38000302030306040242ABE1000042AB510069
:102C48000042AB4E000041AB500000AF13EF13132E
:102C5800543F5401640160030236177B017AA77957
:102C68002D90A938F0A3740CF07F217EA012528D0C
:102C780090A72FE0FEA3E0FF90A72DE0FCA3E02F94
:102C8800FFEC3EFE90AC6BE0FCA3E06F7002EE6CD4
:102C9800605890A72FE0FEA3E0FF90A72DE0FCA3CB
:102CA800E02FFFEC3EFE90AC6BE0FCA3E0C39FEC92
:102CB8009E501D90A737E4F0A304F0FB7AA779375C
:102CC80090A94AE4F0A37402F07F267EA01254FA79
:102CD80090A72FE0FEA3E0FF90A72DE0FCA3E02F34
:102CE800FFEC3E90AC6BF0A3EFF090A72DE0FEA3B5
:102CF800E0D39400EE9400500CA3E0FEA3E094000F
:102D0800EE9400402090A737E0FEA3E04E60167BCB
:102D1800017AAC795990A94AE4F0A37402F07FA033
:102D28007E001254FA90AD41E0FEA3E0640D4E60BF
:102D3800030230D490AD41E0A3E0FF90AC85E0FC05
:102D4800A3E06F7002EC6E601EE490AC8AF0A3F012
:102D58007B017AAC798A90A94AF0A37402F07F01CA
:102D68007EAE1254FA80167B017AAC798A90A93823
:102D7800E4F0A37402F07F017EAE12528D7B017ADB
:102D8800A7792D90A938E4F0A37410F07FA07EAE47
:102D980012528DE490A73BF0A3E05407F07B017A30
:102DA800AC795B782D7CA77D017E007F10123C7981
:102DB800EF702F90AC87E0FEA3E0FF90AC8AE0FCB8
:102DC800A3E0B5071DECB5061990AD41E0FEA3E000
:102DD800FF90AC85E0FCA3E06F7002EC6E7003021C
:102DE80033C97B017AA7792D785B7CAC7D017E00A5
:102DF8007F101236E8E490AC89F090A760F090A7B5
:102E080060E0C3940874809480400302307CE490AE
:102E1800A75FF090A75FE0C394107480948040038C
:102E2800023073A3E0C454F0FF90A75FE02F90A78F
:102E380064F0E075F018A42400FFE5F03435FE7B5B
:102E4800017AA7792D90A938E4F0A37430F01252D2
:102E58008D7B017AA7792D90A761123A9790A75F89
:102E6800E0FF7E007401A807088005C333CE33CE87
:102E7800D8F9FF90A760E025E0245BF582E434AC44
:102E8800F583E0FCA3E0FDEE5CFEEF5D4E7003020F
:102E98002FCA90A761123A7712382F645A7004E546
:102EA800F064A57003022F6790A761123A7774A5A2
:102EB80075F05A1238927B017AA7794190A938E4C3
:102EC800F0A37408F07F107E0012528D7B017AA760
:102ED8007941782F7CA77D017E007F031236E87B3D
:102EE800017AA7794578327CA77D017E007F03129D
:102EF80036E87E007F087D007B017AA77935123C91
:102F08009D90A764E0FF90A73BE4F0A3EFF07B015E
:102F18007AA7793DC002C00190A76475F020A42467
:102F2800CDF9749835F0FA90A778123A9790A77B64
:102F3800E4F0A37420F0D001D00212790990A764BC
:102F4800E075F018A42400FFE5F03435FE7B017A23
:102F5800A7792D90A94AE4F0A37430F01254FA909E
:102F6800AC8AE0FEA3E0FF7C007D0A12376690ACD5
:102F780089E0C39FEC9E4041A3E0FEA3E0FF123727
:102F880066EF240AFFE43EFE90AC89E0C39FEC9E06
:102F9800502790A764E075F018A42400FDE5F034EC
:102FA80035FC90AC8AE0A3E075F00AA4FF90AC89E8
:102FB800E0C39FFF7B0D126A9490AC89E004F00295
:102FC800306A90A761123A7712382F645A7004E574
:102FD800F064A5600302306A7B017AA7794190A961
:102FE80038F0A37408F07F107E0012528D7B017AAE
:102FF800A7794178357CA77D017E007F031236E8EA
:103008007B017AA7794578387CA77D017E007F030C
:103018001236E890A764E0FF90A73BE4F0A3EFF036
:103028007B017AA7792D90A94AE4F0A37410F07F68
:10303800007E301254FA12713CE490A72DF0A3F0F0
:1030480090A764E075F018A42400FFE5F03435FE7D
:103058007B017AA7792D90A94AE4F0A37402F012B3
:1030680054FA90A75FE004F0022E1B90A760E004DA
:10307800F0022E0690AC89E090A75FF090AC8AE051
:10308800FEA3E0FF7C007D0A123766EF240AFFE406
:103098003EFE90A75FE0C39FEC9E501D90AC8AE077
:1030A800A3E075F00AA4FF90A75FE0C39FFF126931
:1030B8005590A75FE004F080C390AC8AE0FEA3E0DF
:1030C800FF90AC87EEF0A3EFF00233C97B017AA73B
:1030D800792D90A938E4F0A37410F07FA07EAE1289
:1030E800528DE490A73BF0A3E05407F07B017AAC43
:1030F800795B782D7CA77D017E007F10123C79EFEB
:1031080070030233C97B017AA7792D78617CA77D8A
:10311800017E007F101236E8E490A760F090A76067
:10312800E0C394067480948040030233B6E490A709
:103138005FF090A75FE0C39410748094804003020E
:1031480033ADE0FF7E007401A807088005C333CEC5
:1031580033CED8F9FF90A760E025E02461F582E43A
:1031680034A7F583E0FCA3E0FDEE5CFCEF5DFD9089
:10317800A75FE0FF7E007401A807088005C333CE6F
:1031880033CED8F9FF90A760E025E0245BF582E410
:1031980034ACF583E0FAA3E0FBEE5AFEEF5B6D700A
:1031A80002EE6C70030233A490A760E0C454F0FFF1
:1031B80090A75FE02F90A774F0E075F018A42400A2
:1031C800FFE5F03435FE7B017AA7792D90A938E424
:1031D800F0A37430F012528D7B017AA7792D90A755
:1031E80071123A9790A75FE0FF7E007401A8070864
:1031F8008005C333CE33CED8F9FF90A760E025E031
:103208002461F582E434A7F583E0FCA3E0FDEE5CDD
:10321800FEEF5D4E70030232F190A771123A7712F9
:10322800382F645A7004E5F064A570030233A49043
:10323800A771123A7774A575F05A1238927B017A01
:10324800A7794190A938E4F0A37408F07F107E00B4
:1032580012528D7B017AA77941782F7CA77D017E58
:10326800007F031236E87B017AA7794578327CA77C
:103278007D017E007F031236E87E007F087D007B9B
:10328800017AA77935123C9D90A774E0FF90A73B7F
:10329800E4F0A3EFF07B017AA7793DC002C001906A
:1032A800A77475F020A424CDF9749835F0FA90A786
:1032B80078123A9790A77BE4F0A37420F0D001D05D
:1032C8000212790990A774E075F018A42400FFE5AC
:1032D800F03435FE7B017AA7792D90A94AE4F0A352
:1032E8007430F01254FA0233A490A771123A77128C
:1032F800382F645A7004E5F064A560030233A47B98
:10330800017AA7794190A938F0A37408F07F107E5C
:103318000012528D7B017AA7794178357CA77D010F
:103328007E007F031236E87B017AA7794578387CDE
:10333800A77D017E007F031236E890A774E0FF9016
:10334800A73BE4F0A3EFF07B017AA7792D90A94A77
:10335800E4F0A37410F07F007E301254FA12713C2E
:10336800E490A72DF0A3F090A774E075F018A424BA
:1033780000FFE5F03435FE7B017AA7792D90A94A44
:10338800E4F0A37402F01254FA90AC8AE0FEA3E0D1
:103398002401FFE43E90AC87F0A3EFF090A75FE034
:1033A80004F002313A90A760E004F00231257B0175
:1033B8007AA77961785B7CAC7D017E007F1012363C
:1033C800E890AD41E0FEA3E0640E4E6003023607CC
:1033D80090AD41E0A3E0FF90AC85E0FCA3E06F7006
:1033E80002EC6E601EE490AC8AF0A3F07B017AAC2C
:1033F800798A90A94AF0A37402F07F017EAE125434
:10340800FA80347B017AAC798A90A938E4F0A37405
:1034180002F07F017EAE12528D90AC87E0FEA3E0F1
:10342800FF90AC8AE0FCA3E06F7002EC6E700302C0
:103438003607800302360790AC8AE0FEA3E0FF90CF
:10344800AC87EEF0A3EFF0E4A3F090AC89E0C3946E
:103458000A7480948040030235EDA3E0FEA3E0FFE8
:103468007C007D0A12376690AC89E02FFFEC3EFEA7
:1034780090AC83E0FCA3E0FDC3EF9DEE9C4003020B
:1034880035ED90AC8AE0FEA3E0FF7C007D0A1237A0
:103498006690AC89E02FFFEC3EFE90AC7FE0FCA389
:1034A800E0D39FEC9E403290AC8AE0FEA3E0FF7C24
:1034B8000012376690AC89E02FFFEC3EFEEF240146
:1034C800FFE43EFE90AC7FE0FCA3E0C39FFFEC9ED0
:1034D80090A761F0A3EFF0803A90AC8AE0FEA3E0F9
:1034E800FF7C007D0A12376690AC89E02FFFEC3E26
:1034F800FEEF2401FFE43EFE90AC7FE0FCA3E02455
:1035080000FDEC3402FCC3ED9FFFEC9E90A761F038
:10351800A3EFF090A761E0FEA3E07803C333CE33B6
:10352800CED8F92400FFEE3420FEE4FCFD90A93645
:10353800123A2E90A93AE4F0A37408F07D007C308A
:103548007F5A1275D37B017AA7792D90A938E4F0B8
:10355800A37410F07F007E3012528D7B017AA77918
:103568003DC003C002C00190A73BE0FEA3E0780580
:10357800C333CE33CED8F924CDF974983EFA7B0103
:1035880090A778123A9790A77BE4F0A37420F0D024
:1035980001D002D00312790990AC89E025E0248C8F
:1035A800F582E434ACF583E0FEA3E0FF7B017AA763
:1035B800792D90A94AE4F0A37430F01254FA90AC33
:1035C80089E025E0248CF582E434ACF583E0FCA3A3
:1035D800E0FD90AC89E0FF7B0E126A9490AC89E024
:1035E80004F002345290AC89E0C3940A7480948049
:1035F800500DE0FF12695590AC89E004F080E69028
:10360800AD41E0FEA3E0FF90AC85EEF0A3EFF02221
:10361800E709F608DFFA8046E709F208DFFA803E94
:1036280088828C83E709F0A3DFFA8032E309F60881
:10363800DFFA8078E309F208DFFA807088828C83E9
:10364800E309F0A3DFFA806489828A83E0A3F6089D
:10365800DFFA805889828A83E0A3F208DFFA804C77
:1036680080D280FA80C680D4806980F2803380104E
:1036780080A680EA809A80A880DA80E280CA8033B7
:1036880089828A83ECFAE493A3C8C582C8CCC5832F
:10369800CCF0A3C8C582C8CCC583CCDFE9DEE780FF
:1036A8000D89828A83E493A3F608DFF9ECFAA9F07E
:1036B800EDFB2289828A83ECFAE0A3C8C582C8CCD4
:1036C800C583CCF0A3C8C582C8CCC583CCDFEADEED
:1036D800E880DB89828A83E493A3F208DFF980CC4F
:1036E80088F0EF60010E4E60C388F0ED2402B40448
:1036F8000050B9F582EB2402B4040050AF232345EF
:10370800822390366873BB010689828A83E022503F
:1037180002E722BBFE02E32289828A83E49322BB6A
:10372800010CE58229F582E5833AF583E02250060B
:10373800E92582F8E622BBFE06E92582F8E222E5C1
:103748008229F582E5833AF583E49322BB01068951
:10375800828A83F0225002F722BBFE01F322EF8D0A
:10376800F0A4A8F0CF8CF0A428CE8DF0A42EFE22D1
:10377800BC000BBE0029EF8DF084FFADF022E4CC35
:10378800F875F008EF2FFFEE33FEEC33FCEE9DECFE
:10379800984005FCEE9DFE0FD5F0E9E4CEFD22ED44
:1037A800F8F5F0EE8420D21CFEADF075F008EF2F8E
:1037B800FFED33FD4007985006D5F0F222C398FD7F
:1037C8000FD5F0EA22C2D5EC30E709B2D5E4C39DA3
:1037D800FDE49CFCEE30E715B2D5E4C39FFFE49E00
:1037E800FE123778C3E49DFDE49CFC800312377811
:1037F80030D507C3E49FFFE49EFE22C5F0F8A3E09E
:1038080028F0C5F0F8E582158270021583E038F0DB
:1038180022A3F8E0C5F025F0F0E5821582700215C4
:1038280083E0C838F0E822BB010A89828A83E0F580
:10383800F0A3E022500687F009E71922BBFE07E350
:10384800F5F009E3192289828A83E493F5F074017B
:103858009322BB0110E58229F582E5833AF583E0DE
:10386800F5F0A3E0225009E92582F886F008E6225F
:10387800BBFE0AE92582F8E2F5F008E222E5832A90
:10388800F583E993F5F0A3E99322BB010A89828ABB
:1038980083F0E5F0A3F0225006F709A7F01922BB40
:1038A800FE06F3E5F009F31922EF2BFFEE3AFEEDE1
:1038B80039FDEC38FC22E88FF0A4CC8BF0A42CFC6A
:1038C800E98EF0A42CFC8AF0EDA42CFCEA8EF0A47E
:1038D800CDA8F08BF0A42DCC3825F0FDE98FF0A40D
:1038E8002CCD35F0FCEB8EF0A4FEA9F0EB8FF0A404
:1038F800CFC5F02ECD39FEE43CFCEAA42DCE35F040
:10390800FDE43CFC2275F008758200EF2FFFEE33D2
:10391800FECD33CDCC33CCC58233C5829BED9AEC3A
:1039280099E58298400CF582EE9BFEED9AFDEC99A4
:10393800FC0FD5F0D6E4CEFBE4CDFAE4CCF9A882AE
:1039480022B800C1B90059BA002DEC8BF084CFCE53
:10395800CDFCE5F0CBF97818EF2FFFEE33FEED3311
:10396800FDEC33FCEB33FB10D703994004EB99FBD8
:103978000FD8E5E4F9FA227818EF2FFFEE33FEEDC1
:1039880033FDEC33FCC933C910D7059BE99A4007CE
:10399800EC9BFCE99AF90FD8E0E4C9FAE4CCFB22E5
:1039A80075F010EF2FFFEE33FEED33FDCC33CCC8AE
:1039B80033C810D7079BEC9AE899400AED9BFDECB9
:1039C8009AFCE899F80FD5F0DAE4CDFBE4CCFAE4F8
:1039D800C8F922EB9FF5F0EA9E42F0E99D42F0EC2F
:1039E8006480C864809845F022EB9FF5F0EA9E4217
:1039F800F0E99D42F0E89C45F022E86010ECA2E76F
:103A080013FCED13FDEE13FEEF13FFD8F022E0FCDC
:103A1800A3E0FDA3E0FEA3E0FF22E0F8A3E0F9A302
:103A2800E0FAA3E0FB22ECF0A3EDF0A3EEF0A3EFA5
:103A3800F022A8828583F0D083D082123A51123ABC
:103A480051123A51123A51E473E493A3C583C5F075
:103A5800C583C8C582C8F0A3C583C5F0C583C8C5DA
:103A680082C822A42582F582E5F03583F58322E019
:103A7800FBA3E0FAA3E0F922F8E0FBA3A3E0F92511
:103A8800F0F0E582158270021583E0FA38F022EB37
:103A9800F0A3EAF0A3E9F022D083D082F8E493708F
:103AA80012740193700DA3A393F8740193F582889F
:103AB80083E4737402936860EFA3A3A380DFD083C9
:103AC800D082F8E4937012740193700DA3A393F855
:103AD800740193F5828883E473740293B5F00674D5
:103AE80003936860E9A3A3A3A380D8E3F5F009E2F0
:103AF80008B5F06BDFF58067E3F5F009E608B5F087
:103B08005EDFF5805A87F009E608B5F052DFF680E7
:103B18004E87F009E208B5F046DFF6804288828CCD
:103B28008387F009E0A3B5F036DFF6803288828C0F
:103B38008387F009E493A3B5F025DFF58021888217
:103B48008C83E3F5F009E0A3B5F014DFF580108865
:103B5800828C83E3F5F009E493A3B5F002DFF40265
:103B68003C22808780E9809080D4803E8015806EDA
:103B7800807E809D80B7808D80A380518074803C3A
:103B8800023C2E89828A83ECFAE493F5F0A3C8C537
:103B980082C8CCC583CCE493A3C8C582C8CCC583EE
:103BA800CCB5F076DFE3DEE1807089828A83E49326
:103BB800F5F0A3E208B5F062DFF4805E89828A83BB
:103BC800E0F5F0A3E608B5F051DFF5804D89828A6B
:103BD80083E0F5F0A3E208B5F040DFF5803C898288
:103BE8008A83E493F5F0A3E608B5F02EDFF4802A83
:103BF8008002805789828A83ECFAE493F5F0A3C89F
:103C0800C582C8CCC583CCE0A3C8C582C8CCC5834F
:103C1800CCB5F006DFE4DEE280007FFFB5F0020FEE
:103C28002240027F012289828A83ECFAE0F5F0A320
:103C3800C8C582C8CCC583CCE0A3C8C582C8CCC5DA
:103C480083CCB5F0D5DFE5DEE380CF89828A83ECCB
:103C5800FAE0F5F0A3C8C582C8CCC583CCE493A329
:103C6800C8C582C8CCC583CCB5F0AFDFE4DEE2803E
:103C7800A988F0EF60010E4E60ABED2402B4040099
:103C88005098F582EB2402B40400508E2323458219
:103C980023903B6A73EF4E6012EF60010EEDBB019B
:103CA8000B89828A83F0A3DFFCDEFA2289F05007B1
:103CB800F709DFFCA9F022BBFEFCF309DFFCA9F041
:103CC80022F8BB010DE58229F582E5833AF583E800
:103CD800F0225006E92582C8F622BBFE05E92582B6
:103CE800C8F2227BFF7A8479B278687CA77D017E4E
:103CF800007F3E1236E87BFF7A8479F078A77CA7AC
:103D08007D017E007F241236E87B017AA7796890CE
:103D1800A938E4F0A3743EF07F207EAB12528DE404
:103D280090A7A6F090A7A6E0C39410748094804052
:103D380003023F8CE0FF7E007401A807088005C3DA
:103D480033CE33CED8F9FF90A76EE0FCA3E0FDEEAA
:103D58005CFEEF5D4E7003023F7090A7A6E0FF7E09
:103D6800007401A807088005C333CE33CED8F9FF05
:103D780090A772E0FCA3E0FDEE5CFEEF5D4E7003E1
:103D8800023F1D90A7A6E0FF1313543F2407FFE44A
:103D98003390A7CDF0A3EFF090A7CDE0FEA3E025E8
:103DA800E0FFEE33FE74682FF58274A73EF583E0DA
:103DB800FEA3E0FF90A7A6E0540325E025E0FDEF71
:103DC800A805088005CEC313CE13D8F9540FFF9069
:103DD800A7CBE4F0A3EFF090A7CBE0FEA3E08EF032
:103DE800123AC63E0F00003E2700013E3F00023E49
:103DF8005700043E6E00053E8500063E9C00083EC6
:103E0800B3000900003ECA90A7A6E025E024A7F564
:103E180082E434A7F583E4F0A37405F0023EDF9052
:103E2800A7A6E025E024A7F582E434A7F583E4F00B
:103E3800A37406F0023EDF90A7A6E025E024A7F5CC
:103E480082E434A7F583E4F0A37407F0023EDF9020
:103E5800A7A6E025E024A7F582E434A7F583E4F0DB
:103E6800A37408F0807190A7A6E025E024A7F58246
:103E7800E434A7F583E4F0A37409F0805A90A7A668
:103E8800E025E024A7F582E434A7F583E4F0A374E1
:103E98000AF0804390A7A6E025E024A7F582E43441
:103EA800A7F583E4F0A37403F0802C90A7A6E0257F
:103EB800E024A7F582E434A7F583E4F0A37404F0C2
:103EC800801590A7A6E025E024A7F582E434A7F59D
:103ED80083E4F0A37405F090A7A6E0FF7E007401C8
:103EE800A807088005C333CE33CED8F9FF90A76A58
:103EF800E0FCA3E0FDEE5CFEEF5D4E607E90A7A6C1
:103F0800E025E024A7F582E434A7F583E475F008FA
:103F1800123803806690A7A6E0FF7E007401A80708
:103F2800088005C333CE33CED8F9FF90A76AE0FCEA
:103F3800A3E0FDEE5CFEEF5D4E601790A7A6E025BE
:103F4800E024A7F582E434A7F583E4F0A37402F033
:103F5800802990A7A6E025E024A7F582E434A7F5F8
:103F680083E4F0A304F0801390A7A6E025E024A73B
:103F7800F582E434A7F583E4F0A3F090A7A6E00463
:103F8800F0023D2C90A7A67410F090A7A6E0C39469
:103F9800127480948040030241FDE024F0FF7E000B
:103FA8007401A807088005C333CE33CED8F9FF9033
:103FB800A770E0FCA3E0FDEE5CFEEF5D4E7003022F
:103FC80041E190A7A6E024F0FF7E007401A807084D
:103FD8008005C333CE33CED8F9FF90A774E0FCA395
:103FE800E0FDEE5CFEEF5D4E700302418C90A7A6EB
:103FF800E0FF1313543F2407FFE43390A7CDF0A349
:10400800EFF090A7CDE0FEA3E025E0FFEE33FE74CD
:10401800682FF58274A73EF583E0FEA3E0FF90A722
:10402800A6E0540325E025E0FDEFA805088005CEAD
:10403800C313CE13D8F9540FFF90A7CBE4F0A3EF26
:10404800F090A7CBE0FEA3E08EF0123AC6407900CC
:10405800004091000140A9000240C1000440D8007E
:104068000540EF000641060008411D000900004117
:104078003490A7A6E025E024A7F582E434A7F583C9
:10408800E4F0A37405F002414990A7A6E025E024D6
:10409800A7F582E434A7F583E4F0A37406F002419F
:1040A8004990A7A6E025E024A7F582E434A7F58384
:1040B800E4F0A37407F002414990A7A6E025E024A4
:1040C800A7F582E434A7F583E4F0A37408F08071BF
:1040D80090A7A6E025E024A7F582E434A7F583E4B9
:1040E800F0A37409F0805A90A7A6E025E024A7F56C
:1040F80082E434A7F583E4F0A3740AF0804390A720
:10410800A6E025E024A7F582E434A7F583E4F0A32C
:104118007403F0802C90A7A6E025E024A7F582E49C
:1041280034A7F583E4F0A37404F0801590A7A6E003
:1041380025E024A7F582E434A7F583E4F0A3740509
:10414800F090A7A6E024F0FF7E007401A80708807D
:1041580005C333CE33CED8F9FF90A76CE0FCA3E0BB
:10416800FDEE5CFEEF5D4E70030241F490A7A6E001
:1041780025E024A7F582E434A7F583E475F0081256
:104188003803806890A7A6E024F0FF7E007401A899
:1041980007088005C333CE33CED8F9FF90A76CE06B
:1041A800FCA3E0FDEE5CFEEF5D4E601790A7A6E075
:1041B80025E024A7F582E434A7F583E4F0A374028C
:1041C800F0802990A7A6E025E024A7F582E434A78B
:1041D800F583E4F0A304F0801390A7A6E025E0247B
:1041E800A7F582E434A7F583E4F0A3F090A7A6E04E
:1041F80004F0023F927B017AA779A790A94AE4F0DC
:10420800A37424F07FA07EAB1254FA22E51330E0A9
:10421800167B017AAD794190A938E4F0A37402F0D5
:104228007F147E0012528DE51320E2030246C990E6
:10423800AD41E0FEA3E04E702690AD3AE0C394068F
:10424800748094805005E004F0801490AD3AE064E6
:1042580006700C7F39FE127DE390AD3AE004F090D1
:10426800AD41E0FEA3E0640B4E7003123CEB90AD51
:1042780041E0FEA3E064294E60030243577B017AC4
:10428800A7793090A938F0A3741CF07FB07EC912CA
:10429800528DE490A72DF090A72DE0C39407748069
:1042A80094804003024341E025E025E02430F58274
:1042B800E434A7F583E0FEA3E0C4F8540FC868FD12
:1042C800EEC454F048FC90A72DE025E025E0243208
:1042D800F582E434A7F583E0FEA3E0EEC4540F2D85
:1042E800FFE43C90A72EF0A3EFF090A72EE0FEA3EA
:1042F800E0FF7C007D1812377890A72DE025E02498
:104308004CF582E434A7F583EEF0A3EFF090A72EE6
:10431800E0FEA3E0FF7C007D1812377890A72DE01F
:1043280025E0245AF582E434A7F583ECF0A3EDF0F8
:1043380090A72DE004F002429F7B017AA7794C9068
:10434800A94AE4F0A3741CF07F207EC91254FA90A5
:10435800AD41E0FEA3E0642C4E60030244377B01CC
:104368007AA7793D90A938F0A37406F07FA07ECC97
:1043780012528D90A73DE0FEA3E0FFEEC4F854F082
:10438800C868FEEFC4540F4890A72DEEF0A3E4F0E0
:1043980090A72DE0FCA3E0FD90A73DE0FEA3E07808
:1043A80007CEC313CE13D8F9541FFFECFEED4FFF11
:1043B80090A72DEEF0A3EFF090A73DE0A3E0547F87
:1043C80090A72FF0A3E4F090A72FE0FCA3E0FD90C6
:1043D800A741E0FEA3E0EEFFECFEED4FFF90A72F14
:1043E800EEF0A3EFF090A741E0A3E090A731F0A38F
:1043F800E4F090A73FE0FEA3E0FF90A733EEF0A320
:10440800EFF0A37402F0A314F0A37409F0A3E4F08E
:10441800A304F0A3E4F0A3F0A3F07B017AA7792D1D
:1044280090A94AF0A37410F07F207ECC1254FA9021
:10443800AD41E0FEA3E0642F4E60030245187B0106
:104448007AA7792D90A938F0A37402F07F107ECF57
:1044580012528D7B017AA7793190A938E4F0A374C0
:1044680002F07F227ECF12528D90A72DE0FEA3E0AE
:10447800FF90AD3BE0FCA3E06F7002EC6E606090D3
:10448800A72DE0A3E090AD3BEEF0A3EFF090A731AD
:10449800E0FEA3E0543FFF90A731EEF0A3EFF090C9
:1044A800A731E0FCA3E0FD90A72DE0A3E07E005437
:1044B800037806C333CE33CED8F9FFEC4EFEED4F6A
:1044C800FF90A731EEF0A3EFF07B017AA779319046
:1044D800A94AE4F0A37402F07F227ECF1254FA9026
:1044E800A731E0FEA3E07806CEC313CE13D8F95463
:1044F80003FF90A733E4F0A3EFF07B017AA77933A9
:1045080090A94AE4F0A37402F07F117ECF1254FA06
:1045180090AD41E0FEA3E064274E600B90AD41E012
:10452800A3E064434E705690AD3DE0C3940574809B
:104538009480504290A72DE4F0A304F0FB7AA77969
:104548002D90A94AE4F0A37402F07F277EA01254AC
:10455800FA90A72DE4F0A3745AF07B017AA7792D7D
:1045680090A94AE4F0A37402F07F877EA01254FA5F
:1045780090AD3DE004F0E490AD3EF0807290AD3E29
:10458800E0C39405748094805060E490A72DF0A354
:10459800F07B017AA7792D90A938F0A37402F07FF7
:1045A800297EC712528D90A72DE0FEA3E04E7034ED
:1045B8007B017AA7792D90A94AF0A37402F07F278E
:1045C8007EA01254FA90A72DE4F0A3745AF07B0150
:1045D8007AA7792D90A94AE4F0A37402F07F877E28
:1045E800A01254FA90AD3EE004F0E490AD3DF07BAB
:1045F800017AA7792D90A938E4F0A37402F07F1608
:104608007E0012528D90A72DE0FEA3E04E6025E4B7
:1046180090A72DF0A3F07B017AA7792D90A94AF0F5
:10462800A37402F07F167E001254FAE490AD3FF0B6
:10463800A3F0804690AD3FE0FEA3E0C39458EE940B
:1046480002500C90AD3FE475F001123803802B90B6
:10465800AD3FE0FEA3E0B45821EEB4021D90AD3F9B
:10466800E475F00112380390AD41E0FEA3E064392F
:104678004E60077F397E00127DE37B017AA7792D92
:1046880090A938E4F0A37402F07F007EE012528D06
:1046980090A72DE0FEA3E0EE30E01490AD41E0FEDF
:1046A800A3E064414E601A7F417E00127DE32290B0
:1046B800AD41E0FEA3E064414E70067F39FE127DF5
:1046C800E32290A732123A9790A735ECF0A3EDF0C9
:1046D80090A735E0FEA3E0C39405EE9400500302D2
:1046E8004A1FE4A3F0A3F090A732123A7790A737B5
:1046F800E0FEA3E0F5828E8312372764026003028E
:1047080049F990A732123A7790A737E0A3E029F940
:10471800EA3EFA900001123727123AA047310348BF
:104728008006494210000049F990A732123A779062
:10473800A737E0FEA3E029F9EA3EFA900002123713
:1047480027FF90A73BE4F0A3EFF090A737E0A3E0A2
:10475800FF90A73BE0FCA3E02FFFEC3EFEEF240513
:10476800FFE43EFE90A735E0FCA3E0FDD3EF9DEE0D
:104778009C401190A735E0FEA3E0FFA3EEF0A3EF65
:10478800F00249F990A732123A7790A737E0FEA3D2
:10479800E029F9EA3EFA90A73BE0FEA3E02403FDF6
:1047A800E43EFC1276D790A739EEF0A3EFF090A77D
:1047B80032123A7790A737E0FEA3E029F9EA3EFAE9
:1047C80090A73BE0FEA3E029F9EA3EFA9000031225
:1047D8003727FD90A739E0FEA3E0EE6D7001E46095
:1047E800030249F990A732123A7790A737E0FEA35F
:1047F800E029F9EA3EFA90A73BE0FEA3E029F9EAAE
:104808003EFA900004123727FF90A739E0A3E06F23
:104818007001E460030249F99085D9E0FEA3E0FF46
:1048280090A732123A7790A737E0FCA3E029F9EA7B
:104838003CFAE92403F9E43AFA90A73BE0FCA3E048
:10484800FD90A94AECF0A3EDF01254FA7E007F0E19
:104858007D007B017A8579D1123C9D90A73BE0FED3
:10486800A3E02405FFE43E90A737F0A3EFF0908083
:1048780000E04402F00249F990A737E0FEA3E024E3
:1048880008FFE43EFE90A735E0FCA3E0FDD3EF9DD2
:10489800EE9C401190A735E0FEA3E0FFA3EEF0A345
:1048A800EFF00249F990A732123A7790A737E0FE65
:1048B800A3E029F9EA3EFA7D067C001276D790A794
:1048C80039EEF0A3EFF090A732123A7790A737E0CD
:1048D800FEA3E029F9EA3EFA900006123727FD9078
:1048E800A739E0FEA3E0EE6D7001E460030249F928
:1048F80090A732123A7790A737E0FEA3E029F9EAA9
:104908003EFA900007123727FF90A739E0A3E06F1F
:104918007001E460030249F990A73775F00812386E
:10492800037E007F0E7D007B017A8579D1123C9D44
:10493800908000E04402F00249F990A737E0FEA316
:10494800E02408FFE43EFE90A735E0FCA3E0FDD399
:10495800EF9DEE9C401190A735E0FEA3E0FFA3EE8B
:10496800F0A3EFF00249F990A732123A7790A737EF
:10497800E0FEA3E029F9EA3EFA7D067C001276D72C
:1049880090A739EEF0A3EFF090A732123A7790A7EC
:1049980037E0FEA3E029F9EA3EFA9000061237272D
:1049A800FD90A739E0FEA3E0EE6D7001E47042903F
:1049B800A732123A7790A737E0FEA3E029F9EA3E3A
:1049C800FA900007123727FF90A739E0A3E0B50750
:1049D80020E490A73775F0081238037E007F0E7D1B
:1049E800007B017A8579D1123C9D908000E04402D9
:1049F800F090A737E475F00112380390A735E0FE70
:104A0800A3E024FBFFEE34FFFEA3E0FCA3E0C39F7A
:104A1800EC9E50030246EF2290A732123A9790A7D5
:104A280032123A7712382FFF90A735E5F0F0A3EF4E
:104A3800F090A735E0FEA3E0C39450EE9401400344
:104A4800024D4090A735E0A3E09085DF75F00E1287
:104A58003A6BEE75F00EA42583F583E0645A600383
:104A6800024D3390A735E0A3E09085E275F00E1271
:104A78003A6BEE75F00EA42583F583E07003024DC2
:104A88003390A735E0A3E09085E475F00E123A6BF9
:104A9800EE75F00EA42583F583E07003024D409077
:104AA800A735E0A3E09085E475F00E123A6BEE7539
:104AB800F00EA42583F583E06401703490A735E0F7
:104AC800A3E09085E575F00E123A6BEE75F00EA432
:104AD8002583F583E0FEA3E0FF90AD41E0FCA3E071
:104AE8006F7002EC6E6003024D33024D40024D338D
:104AF80090A735E0FEA3E09085E475F00E123A6BBE
:104B0800EE75F00EA42583F583E064026003024B82
:104B1800FF90A735E0A3E09085E575F00E123A6B9B
:104B2800EE75F00EA42583F583E0FEA3E0FF7B017C
:104B38007AA7793790A938E4F0A37402F012528D5D
:104B480090A737E0A3E0645A6003024D3390A7357D
:104B5800E0FEA3E0C3944FEE9401506190A735E0C6
:104B6800A3E09085F275F00E123A6BEE75F00EA484
:104B78002583F583E06402704490A735E0A3E090B4
:104B880085F375F00E123A6BEE75F00EA42583F5D9
:104B980083E0FEA3E0FF90A735E0FCA3E09085E565
:104BA80075F00E123A6BEC75F00EA42583F583E0D0
:104BB800FCA3E06F7002EC6E7003024D40E490A716
:104BC80037F0A3F090A735E0FEA3E09085E575F0F7
:104BD8000E123A6BEE75F00EA42583F583E0FEA362
:104BE800E0FF7B017AA7793790A94AE4F0A3740221
:104BF800F01254FA024D4090A735E0FEA3E09085EC
:104C0800E475F00E123A6BEE75F00EA42583F58369
:104C1800E064036003024D3390A735E0A3E090857C
:104C2800EB75F00E123A6BEE75F00EA42583F58342
:104C3800E0FEA3E0FF90AD41E0FCA3E0FDEF6D7066
:104C480002EE6C6003024D3390A735E0FEA3E090BE
:104C580085E575F00E123A6BEE75F00EA42583F516
:104C680083E0FEA3E0FF7B017AA7793790A938E4B7
:104C7800F0A37402F012528D90A737E0A3E0645AB3
:104C88006003024D3390A735E0FEA3E0C3944FEED6
:104C98009401505E90A735E0A3E09085F275F00E80
:104CA800123A6BEE75F00EA42583F583E064037069
:104CB8004190A735E0A3E09085F375F00E123A6BAA
:104CC800EE75F00EA42583F583E0FEA3E0FF90A720
:104CD80035E0FCA3E09085E575F00E123A6BEC75B3
:104CE800F00EA42583F583E0FCA3E06F7002EC6E60
:104CF8006046E490A737F0A3F090A735E0FEA3E064
:104D08009085E575F00E123A6BEE75F00EA42583CA
:104D1800F583E0FEA3E0FF7B017AA7793790A94AE3
:104D2800E4F0A37402F01254FA800D90A735E475EC
:104D3800F001123803024A3990A735E0FEA3E0FFDC
:104D480090A732123A77EE8FF01238922290A73D50
:104D5800123A9790A740ECF0A3EDF07BFF7A8579A3
:104D68004878427CA77D017E007F181236E890A71C
:104D78003D123A7790000A12385A246CFFE5F03455
:104D88000790A76EF0A3EFF090A76EE0FEA3E0FFF8
:104D98007C007D641237CDED4C601390A76EE0FE69
:104DA800A3E0FF7C007D041237CDED4C601390A783
:104DB8006EE0FEA3E0FF7C017D901237CDED4C70D4
:104DC800067E007F0180047E007F0090A76AEEF0D7
:104DD800A3EFF090A73D123A7790000A12385A24B0
:104DE800BAFFE5F034FFFE3395E0FDFC90A75A12B8
:104DF8003A2E90A73D123A7790000812385AC39479
:104E080001E5F064809480504090A76AE0FEA3E03A
:104E180064014E703490A75A123A16EF2402FFE448
:104E28003EFEE43DFDE43CFCE47B04FAF9F8127E26
:104E38002AEF24FFFFEE34FFFEED34FFFDEC34FFD4
:104E4800FC90A762123A2E802290A75A123A16EFC7
:104E58002402FFE43EFEE43DFDE43CFCE47B04FA6E
:104E6800F9F8127E2A90A762123A2E90A75E123A9B
:104E78003A00000000E490A76CF0A3F090A73D1260
:104E88003A7790000812385AFF90A76CE0FCA3E02C
:104E9800C39FE5F06480F8EC648098504890A75E62
:104EA800123A16C006C00790A76CE0FEA3E025E002
:104EB800FFEE33FE74422FF58274A73EF583E0FEC1
:104EC800A3E0FFFBAA06EA3395E0F9F8D007D0067D
:104ED8001238B190A75E123A2E90A76CE475F001D3
:104EE800123803809790A75E123A16C006C0079042
:104EF800A73D123A7790000612385A24FFFFE5F0D2
:104F080034FFFEAB07FA3395E0F9F8D007D0061264
:104F180038B190A75E123A2E90A75E123A16C004D6
:104F2800C005C006C007E47F6D7E01FDFC90A75A4E
:104F3800123A221238BE90A762123A221238B1A849
:104F480004A905AA06AB07D007D006D005D00412DD
:104F580038B190A75E123A2E90A73D123A7790008A
:104F68000412385AFF90A740E0FCA3E0FDC3EF9D70
:104F7800FFE5F09CFE3395E0FDFC90A766123A2E03
:104F8800E47F107E0EFDFC90A766123A221238BE0E
:104F9800C004C005C006C0077F807E517D017C002B
:104FA80090A75E123A221238BEA804A905AA06AB39
:104FB80007D007D006D005D0041238B1C004C00508
:104FC800C006C00790A73D123A7790000212385ADF
:104FD800FFAEF07C007D3C123766AB07AA06EA33C9
:104FE80095E0F9F8D007D006D005D0041238B1C042
:104FF80006C00790A73D123A7712382FFFAEF0FB94
:10500800AA06EA3395E0F9F8D007D0061238B1229B
:10501800E51330E10D90AD43E475F0011238031249
:105028006BC990AD43E0FEA3E0C394B8EE940B5077
:105038000302528CE490AD43F0A3F090AD47E0FE3C
:10504800A3E02400FFEE341090A72DF0A3EFF07B2F
:10505800017AA7792F90A938E4F0A37402F07FA30E
:105068007EA012528D90A72FE475F0C812380390D5
:10507800A72DE0FEA3E0FF7B017AA7792F90A94A2C
:10508800E4F0A37402F01254FA90AD47E0FEA3E0F6
:105098002400FFEE341890A72DF0A3EFF07B017ADF
:1050A800A7792F90A938E4F0A37402F07FA47EA01A
:1050B80012528D90A72DE0FEA3E0FF7B017AA7791D
:1050C8002F90A94AE4F0A37402F01254FA90AD4765
:1050D800E0FEA3E0FF90A733EEF0A3EFF090AD471A
:1050E800E475F00112380390AD47E0FEA3E0C394E5
:1050F800FEEE94074007E490AD47F0A3F07B017AF9
:10510800AD794790A94AE4F0A37402F07F007E03CA
:105118001254FA7B017AAD794790A94AE4F0A37456
:1051280002F0FF7E031254FA90A7317407F0A374BB
:10513800FEF07B017AA7793190A94AE4F0A37402C2
:10514800F07F087E501254FA7B017AA7793190A932
:105158004AE4F0A37402F07F097E501254FA90A733
:10516800317402F0A3748AF07B017AA7793190A98F
:105178004AE4F0A37402F07F117E501254FA90AD05
:105188000EE075F03CA4FFA3E07C002FFFEC35F0A7
:1051980090AD45F0A3EFF090AD45E0FEA3E0FF121F
:1051A800640390AD47E0A3E030E00302528C90A77F
:1051B8003374FFF5F012380390A733E0FEA3E02420
:1051C80000FFEE3410FE7B017AA7792D90A938E410
:1051D800F0A37404F012528D90A73174A5F0A37453
:1051E8005AF07B017AA7792D90A94AE4F0A37406B6
:1051F800F07F007E501254FA90A733E0FEA3E0FF40
:10520800E4FCFD90A936123A2E90A93AE4F0A37472
:1052180004F07D007C507FA51275D390A733E0FE83
:10522800A3E02400FFEE3418FE7B017AA7792D90C5
:10523800A938E4F0A37404F012528D90A73174A534
:10524800F0A3745AF07B017AA7792D90A94AE4F06B
:10525800A37406F07F007E501254FA90A733E0FE44
:10526800A3E02400FFEE3408FEE4FCFD90A936120A
:105278003A2E90A93AE4F0A37404F07D007C507FA4
:10528800A51275D32290A933EEF0A3EFF0A3123A3A
:10529800977B007A007900C003C002C00190A9354D
:1052A800123A77D082D083D0E06B7008E9658270BB
:1052B80003EA658370030254F990A938E0FEA3E07D
:1052C8004E70030254F990A938E0A3E0FFEEC3132F
:1052D800FEEF13FF90A933E0FCA3E02FFFEE3CFEA6
:1052E800D3EF94FEEE94FF40030254F9C2AF90A9A5
:1052F80033E0A3E0540190A93AF090A933E0FEA36B
:10530800E0FFEEC313FEEF13FF90A933EEF0A3EF17
:10531800F090A933E0FEA3E07810CEC313CE13D8E3
:10532800F9F5F190A933E0FEA3E0EEF5F290A93388
:10533800E0A3E0F5F3E4F5F875F401D2FF30FCFDE5
:10534800D2FD90A93AE06401707290A938E0FEA3FA
:10535800E064014E700AC2FBC2FAD2F9C2F88008B2
:10536800C2FBC2FAD2F9D2F8D2FE20FEFD90A938CB
:10537800E0FEA3E064014E701A90A93575F00112A1
:105388003A80E5FC12375490A93874FFF5F01238CA
:1053980003802990A935E475F001123A80E5FC12E2
:1053A800375490A935E475F001123A80E5FD1237BB
:1053B8005490A93874FF75F0FE12380390A938E0AC
:1053C800FEA3E04E70030254F490A938E0A3E0C3B2
:1053D8009404EE9400400302549D90A938E0A3E0A1
:1053E8008EF0123AC6541100015407000253FD0012
:1053F8000300005419D2FBD2FAD2F9C2F88012D2B3
:10540800FBD2FAC2F9C2F88008D2FBC2FAC2F9C2CA
:10541800F8D2FE20FEFD90A938E0FEA3E08EF0123F
:105428003AC6548A0001546A0002543A0003000044
:1054380054F490A935E475F001123A80E5FA123770
:105448005490A935E475F001123A80E5FB123754FF
:1054580090A935E475F001123A80E5FC1237540240
:1054680054F490A935E475F001123A80E5FA123740
:105478005490A935E475F001123A80E5FB123754CF
:10548800806A90A935E475F001123A80E5FA12377E
:105498005480598057D2FBD2FAD2F9D2F8D2FE20E2
:1054A800FEFD90A935E475F001123A80E5FA12374D
:1054B8005490A935E475F001123A80E5FB1237548F
:1054C80090A935E475F001123A80E5FC1237549042
:1054D800A935E475F001123A80E5FD12375490A918
:1054E8003874FF75F0FC1238030253C4E4F5F8D29F
:1054F800AF2290A945EEF0A3EFF0A3123A977B00F4
:105508007A007900C003C002C00190A947123A7717
:10551800D082D083D0E06B7008E965827003EA65B9
:1055280083700302576590A94AE0FEA3E04E70031A
:1055380002576590A94AE0A3E0FFEEC313FEEF13FC
:10554800FF90A945E0FCA3E02FFFEE3CFED3EF94CB
:10555800FEEE94FF4003025765C2AF90A945E0A351
:10556800E0540190A94CF090A945E0FEA3E0FFEEBD
:10557800C313FEEF13FF90A945EEF0A3EFF090A937
:1055880045E0FEA3E07810CEC313CE13D8F9F5F1A9
:1055980090A945E0FEA3E0EEF5F290A945E0A3E06E
:1055A800F5F3E4F5F875F401D2FF30FCFDC2FD9087
:1055B800A94CE06401707290A94AE0FEA3E064017E
:1055C8004E700AC2FBC2FAD2F9C2F88008C2FBC206
:1055D800FAD2F9D2F890A94AE0FEA3E064014E702D
:1055E8001A90A94775F001123A8012370EF5FC900F
:1055F800A94A74FFF5F0123803802990A947E47589
:10560800F001123A8012370EF5FC90A947E475F0C4
:1056180001123A8012370EF5FD90A94A74FF75F011
:10562800FE123803D2FE20FEFD90A94AE0FEA3E058
:105638004E700302576090A94AE0A3E0C39404EEB9
:105648009400400302570990A94AE0A3E08EF012A3
:105658003AC6567E000156740002566A00030000DE
:105668005686D2FBD2FAD2F9C2F88012D2FBD2FA0D
:10567800C2F9C2F88008D2FBC2FAC2F9C2F890A9EE
:105688004AE0FEA3E08EF0123AC656F1000156D168
:10569800000256A200030000570090A947E475F0E5
:1056A80001123A8012370EF5FA90A947E475F00115
:1056B800123A8012370EF5FB90A947E475F00112F3
:1056C8003A8012370EF5FC802F90A947E475F00157
:1056D800123A8012370EF5FA90A947E475F00112D4
:1056E8003A8012370EF5FB800F90A947E475F00158
:1056F800123A8012370EF5FAD2FE30FE5B80FB803C
:1057080057D2FBD2FAD2F9D2F890A947E475F00142
:10571800123A8012370EF5FA90A947E475F0011293
:105728003A8012370EF5FB90A947E475F001123A5A
:105738008012370EF5FC90A947E475F001123A8003
:1057480012370EF5FDD2FE20FEFD90A94A74FF75B2
:10575800F0FC123803025631E4F5F8D2AF227BFF91
:105768007A84792E782D7CA77D017E007F201236E1
:10577800E87B017AA7792D90A74F123A9790A75204
:10578800123A97E490A74DF0A3F090A74DE0FEA33E
:10579800E0C3EE9402400302582F90A74DE0A3E027
:1057A8007803C333CE33CED8F92400FFEE3420FE7D
:1057B800E4FCFD90A936123A2E90A93AE4F0A374BD
:1057C80008F07D007C307F5A1275D37B017AA77967
:1057D8002D90A938E4F0A37410F07F007E301252A7
:1057E8008D90A74F123A7712382F645A7004E5F05B
:1057F80064A5602690A752123A7712382FB4A527CD
:10580800E5F0B45A2290A752123A77787D7CAC7DA5
:10581800017E007F081236E8800D90A74DE475F0F0
:1058280001123803025792E490A74DF0A3F090A715
:105838004DE0FEA3E0C3940AEE940040030259C170
:105848007BFF7A84794E78557CA77D017E007F2086
:105858001236E87B017AAC792578557CA77D017EE4
:10586800007F1A1236E890A74DE0FEA3E0FF7C0007
:105878007D1B123766EF2464FFE43E90A759F0A31E
:10588800EFF090A75E7401F090A74DE0FEA3E090C2
:10589800ACA075F006123A6BEE75F006A42583F5F8
:1058A80083E0FEA3E0FF7B017AA7795590A94AE43B
:1058B800F0A37420F01254FA7B017AAC793F785542
:1058C8007CA77D017E007F1A1236E890A74DE0FE86
:1058D800A3E0FF7C007D1B123766EF2464FFE43EE3
:1058E80090A759F0A3EFF090A75E7401F090A74D30
:1058F800E0FEA3E090ACA275F006123A6BEE75F0EC
:1059080006A42583F583E0FEA3E0FF7B017AA7794F
:105918005590A94AE4F0A37420F01254FA7B017A56
:10592800AC79DC78557CA77D017E007F1A1236E8B9
:1059380090A74DE0FEA3E0FF7C007D1B123766EFC9
:105948002464FFE43E90A759F0A3EFF090A74DE040
:10595800FEA3E0FF123766EF2464FFE43E90A75FE2
:10596800F0A3EFF090A74DE0FEA3E0FF123766EF3B
:10597800247DFFE43E90A763F0A3EFF090A74DE0ED
:10598800FEA3E090ACA475F006123A6BEE75F00633
:10599800A42583F583E0FEA3E0FF7B017AA7795570
:1059A80090A94AE4F0A37420F01254FA90A74DE4A9
:1059B80075F00112380302583622E490A72DF0A39F
:1059C800F0E51320E003025C127B017AA7792D90A1
:1059D800A938E4F0A37402F07F147E5012528D901F
:1059E800A72DE0FEA3E04E7003025C1290A72DE005
:1059F800A3E08EF0123AC65B83A0005B88A0265B0A
:105A08008DA4005B92A4015B97A4A05B97A4A15B03
:105A180097A4A25B97A4A35B97A4A45B97A4A55B98
:105A280097A4A65B97A4A75B97A4A85B97A4A95B78
:105A380097A4AA5B97A4AB5B97A4AC5B97A4AD5B58
:105A480097A4AE5B97A4AF5B97A4B05B97A4B15B38
:105A580097A4B25B97A4B35B97A4B45B97A4B55B18
:105A680097A4B65B97A4B75B97A4B85B97A4B95BF8
:105A780097A4BA5B97A4BB5B97A4BC5B97A4BD5BD8
:105A880097A4BE5B97A4BF5B97A4C05B97A4C15BB8
:105A980097A4C25B97A4C35B97A4C45B97A4C55B98
:105AA80097A4C65B97A4C75B97A4C85B97A4C95B78
:105AB80097A4CA5B97A4CB5B97A4CC5B97A4CD5B58
:105AC80097A4CE5B97A4CF5B97A4D05B97A4D15B38
